{
  "_format": "hh-sol-artifact-1",
  "contractName": "BaseERC20Guild",
  "sourceName": "dxdao-contracts/contracts/erc20guild/BaseERC20Guild.sol",
  "abi": [
    {
      "anonymous": false,
      "inputs": [
        {
          "indexed": true,
          "internalType": "bytes32",
          "name": "proposalId",
          "type": "bytes32"
        },
        {
          "indexed": false,
          "internalType": "uint256",
          "name": "newState",
          "type": "uint256"
        }
      ],
      "name": "ProposalStateChanged",
      "type": "event"
    },
    {
      "anonymous": false,
      "inputs": [
        {
          "indexed": false,
          "internalType": "address",
          "name": "voter",
          "type": "address"
        },
        {
          "indexed": false,
          "internalType": "uint256",
          "name": "value",
          "type": "uint256"
        }
      ],
      "name": "TokensLocked",
      "type": "event"
    },
    {
      "anonymous": false,
      "inputs": [
        {
          "indexed": false,
          "internalType": "address",
          "name": "voter",
          "type": "address"
        },
        {
          "indexed": false,
          "internalType": "uint256",
          "name": "value",
          "type": "uint256"
        }
      ],
      "name": "TokensWithdrawn",
      "type": "event"
    },
    {
      "anonymous": false,
      "inputs": [
        {
          "indexed": true,
          "internalType": "bytes32",
          "name": "proposalId",
          "type": "bytes32"
        },
        {
          "indexed": true,
          "internalType": "uint256",
          "name": "option",
          "type": "uint256"
        },
        {
          "indexed": false,
          "internalType": "address",
          "name": "voter",
          "type": "address"
        },
        {
          "indexed": false,
          "internalType": "uint256",
          "name": "votingPower",
          "type": "uint256"
        }
      ],
      "name": "VoteAdded",
      "type": "event"
    },
    {
      "stateMutability": "payable",
      "type": "fallback"
    },
    {
      "inputs": [],
      "name": "MAX_OPTIONS_PER_PROPOSAL",
      "outputs": [
        {
          "internalType": "uint8",
          "name": "",
          "type": "uint8"
        }
      ],
      "stateMutability": "view",
      "type": "function"
    },
    {
      "inputs": [],
      "name": "activeProposalsNow",
      "outputs": [
        {
          "internalType": "uint256",
          "name": "",
          "type": "uint256"
        }
      ],
      "stateMutability": "view",
      "type": "function"
    },
    {
      "inputs": [
        {
          "internalType": "address[]",
          "name": "to",
          "type": "address[]"
        },
        {
          "internalType": "bytes[]",
          "name": "data",
          "type": "bytes[]"
        },
        {
          "internalType": "uint256[]",
          "name": "value",
          "type": "uint256[]"
        },
        {
          "internalType": "uint256",
          "name": "totalOptions",
          "type": "uint256"
        },
        {
          "internalType": "string",
          "name": "title",
          "type": "string"
        },
        {
          "internalType": "string",
          "name": "contentHash",
          "type": "string"
        }
      ],
      "name": "createProposal",
      "outputs": [
        {
          "internalType": "bytes32",
          "name": "",
          "type": "bytes32"
        }
      ],
      "stateMutability": "nonpayable",
      "type": "function"
    },
    {
      "inputs": [
        {
          "internalType": "bytes32",
          "name": "proposalId",
          "type": "bytes32"
        }
      ],
      "name": "endProposal",
      "outputs": [],
      "stateMutability": "nonpayable",
      "type": "function"
    },
    {
      "inputs": [
        {
          "internalType": "bytes32",
          "name": "root",
          "type": "bytes32"
        },
        {
          "internalType": "address",
          "name": "voter",
          "type": "address"
        },
        {
          "internalType": "bytes32",
          "name": "voteHash",
          "type": "bytes32"
        },
        {
          "internalType": "bytes32[]",
          "name": "proof",
          "type": "bytes32[]"
        },
        {
          "internalType": "bytes32",
          "name": "proposalId",
          "type": "bytes32"
        },
        {
          "internalType": "uint256",
          "name": "option",
          "type": "uint256"
        },
        {
          "internalType": "uint256",
          "name": "votingPower",
          "type": "uint256"
        }
      ],
      "name": "executeSignedVote",
      "outputs": [],
      "stateMutability": "nonpayable",
      "type": "function"
    },
    {
      "inputs": [
        {
          "internalType": "bytes32[]",
          "name": "roots",
          "type": "bytes32[]"
        },
        {
          "internalType": "address[]",
          "name": "voters",
          "type": "address[]"
        },
        {
          "internalType": "bytes32[]",
          "name": "votesHashes",
          "type": "bytes32[]"
        },
        {
          "internalType": "bytes32[][]",
          "name": "proofs",
          "type": "bytes32[][]"
        },
        {
          "internalType": "bytes32[]",
          "name": "proposalIds",
          "type": "bytes32[]"
        },
        {
          "internalType": "uint256[]",
          "name": "options",
          "type": "uint256[]"
        },
        {
          "internalType": "uint256[]",
          "name": "votingPowers",
          "type": "uint256[]"
        }
      ],
      "name": "executeSignedVotesBatches",
      "outputs": [],
      "stateMutability": "nonpayable",
      "type": "function"
    },
    {
      "inputs": [
        {
          "internalType": "bytes32[]",
          "name": "proposalIds",
          "type": "bytes32[]"
        },
        {
          "internalType": "uint256[]",
          "name": "options",
          "type": "uint256[]"
        },
        {
          "internalType": "uint256[]",
          "name": "votingPowers",
          "type": "uint256[]"
        }
      ],
      "name": "executeVotes",
      "outputs": [
        {
          "internalType": "bool[]",
          "name": "",
          "type": "bool[]"
        }
      ],
      "stateMutability": "nonpayable",
      "type": "function"
    },
    {
      "inputs": [],
      "name": "getActiveProposalsNow",
      "outputs": [
        {
          "internalType": "uint256",
          "name": "",
          "type": "uint256"
        }
      ],
      "stateMutability": "view",
      "type": "function"
    },
    {
      "inputs": [],
      "name": "getLockTime",
      "outputs": [
        {
          "internalType": "uint256",
          "name": "",
          "type": "uint256"
        }
      ],
      "stateMutability": "view",
      "type": "function"
    },
    {
      "inputs": [],
      "name": "getMaxActiveProposals",
      "outputs": [
        {
          "internalType": "uint256",
          "name": "",
          "type": "uint256"
        }
      ],
      "stateMutability": "view",
      "type": "function"
    },
    {
      "inputs": [],
      "name": "getMaxGasPrice",
      "outputs": [
        {
          "internalType": "uint256",
          "name": "",
          "type": "uint256"
        }
      ],
      "stateMutability": "view",
      "type": "function"
    },
    {
      "inputs": [],
      "name": "getMinimumMembersForProposalCreation",
      "outputs": [
        {
          "internalType": "uint256",
          "name": "",
          "type": "uint256"
        }
      ],
      "stateMutability": "view",
      "type": "function"
    },
    {
      "inputs": [],
      "name": "getMinimumTokensLockedForProposalCreation",
      "outputs": [
        {
          "internalType": "uint256",
          "name": "",
          "type": "uint256"
        }
      ],
      "stateMutability": "view",
      "type": "function"
    },
    {
      "inputs": [],
      "name": "getName",
      "outputs": [
        {
          "internalType": "string",
          "name": "",
          "type": "string"
        }
      ],
      "stateMutability": "view",
      "type": "function"
    },
    {
      "inputs": [],
      "name": "getPermissionRegistry",
      "outputs": [
        {
          "internalType": "address",
          "name": "",
          "type": "address"
        }
      ],
      "stateMutability": "view",
      "type": "function"
    },
    {
      "inputs": [
        {
          "internalType": "bytes32",
          "name": "proposalId",
          "type": "bytes32"
        }
      ],
      "name": "getProposal",
      "outputs": [
        {
          "components": [
            {
              "internalType": "address",
              "name": "creator",
              "type": "address"
            },
            {
              "internalType": "uint256",
              "name": "startTime",
              "type": "uint256"
            },
            {
              "internalType": "uint256",
              "name": "endTime",
              "type": "uint256"
            },
            {
              "internalType": "address[]",
              "name": "to",
              "type": "address[]"
            },
            {
              "internalType": "bytes[]",
              "name": "data",
              "type": "bytes[]"
            },
            {
              "internalType": "uint256[]",
              "name": "value",
              "type": "uint256[]"
            },
            {
              "internalType": "string",
              "name": "title",
              "type": "string"
            },
            {
              "internalType": "string",
              "name": "contentHash",
              "type": "string"
            },
            {
              "internalType": "enum BaseERC20Guild.ProposalState",
              "name": "state",
              "type": "uint8"
            },
            {
              "internalType": "uint256[]",
              "name": "totalVotes",
              "type": "uint256[]"
            }
          ],
          "internalType": "struct BaseERC20Guild.Proposal",
          "name": "",
          "type": "tuple"
        }
      ],
      "stateMutability": "view",
      "type": "function"
    },
    {
      "inputs": [],
      "name": "getProposalTime",
      "outputs": [
        {
          "internalType": "uint256",
          "name": "",
          "type": "uint256"
        }
      ],
      "stateMutability": "view",
      "type": "function"
    },
    {
      "inputs": [
        {
          "internalType": "bytes32",
          "name": "proposalId",
          "type": "bytes32"
        },
        {
          "internalType": "address",
          "name": "voter",
          "type": "address"
        }
      ],
      "name": "getProposalVotesOfVoter",
      "outputs": [
        {
          "internalType": "uint256",
          "name": "option",
          "type": "uint256"
        },
        {
          "internalType": "uint256",
          "name": "votingPower",
          "type": "uint256"
        }
      ],
      "stateMutability": "view",
      "type": "function"
    },
    {
      "inputs": [],
      "name": "getProposalsIds",
      "outputs": [
        {
          "internalType": "bytes32[]",
          "name": "",
          "type": "bytes32[]"
        }
      ],
      "stateMutability": "view",
      "type": "function"
    },
    {
      "inputs": [],
      "name": "getProposalsIdsLength",
      "outputs": [
        {
          "internalType": "uint256",
          "name": "",
          "type": "uint256"
        }
      ],
      "stateMutability": "view",
      "type": "function"
    },
    {
      "inputs": [
        {
          "internalType": "bytes32",
          "name": "signedVoteHash",
          "type": "bytes32"
        }
      ],
      "name": "getSignedVote",
      "outputs": [
        {
          "internalType": "bool",
          "name": "",
          "type": "bool"
        }
      ],
      "stateMutability": "view",
      "type": "function"
    },
    {
      "inputs": [],
      "name": "getTimeForExecution",
      "outputs": [
        {
          "internalType": "uint256",
          "name": "",
          "type": "uint256"
        }
      ],
      "stateMutability": "view",
      "type": "function"
    },
    {
      "inputs": [],
      "name": "getToken",
      "outputs": [
        {
          "internalType": "address",
          "name": "",
          "type": "address"
        }
      ],
      "stateMutability": "view",
      "type": "function"
    },
    {
      "inputs": [],
      "name": "getTokenVault",
      "outputs": [
        {
          "internalType": "address",
          "name": "",
          "type": "address"
        }
      ],
      "stateMutability": "view",
      "type": "function"
    },
    {
      "inputs": [],
      "name": "getTotalLocked",
      "outputs": [
        {
          "internalType": "uint256",
          "name": "",
          "type": "uint256"
        }
      ],
      "stateMutability": "view",
      "type": "function"
    },
    {
      "inputs": [],
      "name": "getTotalMembers",
      "outputs": [
        {
          "internalType": "uint256",
          "name": "",
          "type": "uint256"
        }
      ],
      "stateMutability": "view",
      "type": "function"
    },
    {
      "inputs": [],
      "name": "getTotalProposals",
      "outputs": [
        {
          "internalType": "uint256",
          "name": "",
          "type": "uint256"
        }
      ],
      "stateMutability": "view",
      "type": "function"
    },
    {
      "inputs": [],
      "name": "getVoteGas",
      "outputs": [
        {
          "internalType": "uint256",
          "name": "",
          "type": "uint256"
        }
      ],
      "stateMutability": "view",
      "type": "function"
    },
    {
      "inputs": [
        {
          "internalType": "address",
          "name": "voter",
          "type": "address"
        }
      ],
      "name": "getVoterLockTimestamp",
      "outputs": [
        {
          "internalType": "uint256",
          "name": "",
          "type": "uint256"
        }
      ],
      "stateMutability": "view",
      "type": "function"
    },
    {
      "inputs": [],
      "name": "getVotingPowerForProposalCreation",
      "outputs": [
        {
          "internalType": "uint256",
          "name": "",
          "type": "uint256"
        }
      ],
      "stateMutability": "view",
      "type": "function"
    },
    {
      "inputs": [],
      "name": "getVotingPowerForProposalExecution",
      "outputs": [
        {
          "internalType": "uint256",
          "name": "",
          "type": "uint256"
        }
      ],
      "stateMutability": "view",
      "type": "function"
    },
    {
      "inputs": [
        {
          "internalType": "address",
          "name": "voter",
          "type": "address"
        },
        {
          "internalType": "bytes32",
          "name": "proposalId",
          "type": "bytes32"
        },
        {
          "internalType": "uint256",
          "name": "option",
          "type": "uint256"
        },
        {
          "internalType": "uint256",
          "name": "votingPower",
          "type": "uint256"
        }
      ],
      "name": "hashVote",
      "outputs": [
        {
          "internalType": "bytes32",
          "name": "",
          "type": "bytes32"
        }
      ],
      "stateMutability": "pure",
      "type": "function"
    },
    {
      "inputs": [],
      "name": "lockTime",
      "outputs": [
        {
          "internalType": "uint256",
          "name": "",
          "type": "uint256"
        }
      ],
      "stateMutability": "view",
      "type": "function"
    },
    {
      "inputs": [
        {
          "internalType": "uint256",
          "name": "tokenAmount",
          "type": "uint256"
        }
      ],
      "name": "lockTokens",
      "outputs": [],
      "stateMutability": "nonpayable",
      "type": "function"
    },
    {
      "inputs": [],
      "name": "maxActiveProposals",
      "outputs": [
        {
          "internalType": "uint256",
          "name": "",
          "type": "uint256"
        }
      ],
      "stateMutability": "view",
      "type": "function"
    },
    {
      "inputs": [],
      "name": "maxGasPrice",
      "outputs": [
        {
          "internalType": "uint256",
          "name": "",
          "type": "uint256"
        }
      ],
      "stateMutability": "view",
      "type": "function"
    },
    {
      "inputs": [],
      "name": "minimumMembersForProposalCreation",
      "outputs": [
        {
          "internalType": "uint256",
          "name": "",
          "type": "uint256"
        }
      ],
      "stateMutability": "view",
      "type": "function"
    },
    {
      "inputs": [],
      "name": "minimumTokensLockedForProposalCreation",
      "outputs": [
        {
          "internalType": "uint256",
          "name": "",
          "type": "uint256"
        }
      ],
      "stateMutability": "view",
      "type": "function"
    },
    {
      "inputs": [],
      "name": "name",
      "outputs": [
        {
          "internalType": "string",
          "name": "",
          "type": "string"
        }
      ],
      "stateMutability": "view",
      "type": "function"
    },
    {
      "inputs": [],
      "name": "proposalTime",
      "outputs": [
        {
          "internalType": "uint256",
          "name": "",
          "type": "uint256"
        }
      ],
      "stateMutability": "view",
      "type": "function"
    },
    {
      "inputs": [
        {
          "internalType": "bytes32",
          "name": "",
          "type": "bytes32"
        },
        {
          "internalType": "address",
          "name": "",
          "type": "address"
        }
      ],
      "name": "proposalVotes",
      "outputs": [
        {
          "internalType": "uint256",
          "name": "option",
          "type": "uint256"
        },
        {
          "internalType": "uint256",
          "name": "votingPower",
          "type": "uint256"
        }
      ],
      "stateMutability": "view",
      "type": "function"
    },
    {
      "inputs": [
        {
          "internalType": "bytes32",
          "name": "",
          "type": "bytes32"
        }
      ],
      "name": "proposals",
      "outputs": [
        {
          "internalType": "address",
          "name": "creator",
          "type": "address"
        },
        {
          "internalType": "uint256",
          "name": "startTime",
          "type": "uint256"
        },
        {
          "internalType": "uint256",
          "name": "endTime",
          "type": "uint256"
        },
        {
          "internalType": "string",
          "name": "title",
          "type": "string"
        },
        {
          "internalType": "string",
          "name": "contentHash",
          "type": "string"
        },
        {
          "internalType": "enum BaseERC20Guild.ProposalState",
          "name": "state",
          "type": "uint8"
        }
      ],
      "stateMutability": "view",
      "type": "function"
    },
    {
      "inputs": [
        {
          "internalType": "uint256",
          "name": "",
          "type": "uint256"
        }
      ],
      "name": "proposalsIds",
      "outputs": [
        {
          "internalType": "bytes32",
          "name": "",
          "type": "bytes32"
        }
      ],
      "stateMutability": "view",
      "type": "function"
    },
    {
      "inputs": [
        {
          "internalType": "uint256",
          "name": "_proposalTime",
          "type": "uint256"
        },
        {
          "internalType": "uint256",
          "name": "_timeForExecution",
          "type": "uint256"
        },
        {
          "internalType": "uint256",
          "name": "_votingPowerPercentageForProposalExecution",
          "type": "uint256"
        },
        {
          "internalType": "uint256",
          "name": "_votingPowerPercentageForProposalCreation",
          "type": "uint256"
        },
        {
          "internalType": "uint256",
          "name": "_voteGas",
          "type": "uint256"
        },
        {
          "internalType": "uint256",
          "name": "_maxGasPrice",
          "type": "uint256"
        },
        {
          "internalType": "uint256",
          "name": "_maxActiveProposals",
          "type": "uint256"
        },
        {
          "internalType": "uint256",
          "name": "_lockTime",
          "type": "uint256"
        },
        {
          "internalType": "uint256",
          "name": "_minimumMembersForProposalCreation",
          "type": "uint256"
        },
        {
          "internalType": "uint256",
          "name": "_minimumTokensLockedForProposalCreation",
          "type": "uint256"
        }
      ],
      "name": "setConfig",
      "outputs": [],
      "stateMutability": "nonpayable",
      "type": "function"
    },
    {
      "inputs": [
        {
          "internalType": "bytes32",
          "name": "proposalId",
          "type": "bytes32"
        },
        {
          "internalType": "uint256",
          "name": "option",
          "type": "uint256"
        },
        {
          "internalType": "uint256",
          "name": "votingPower",
          "type": "uint256"
        },
        {
          "internalType": "address",
          "name": "voter",
          "type": "address"
        },
        {
          "internalType": "bytes",
          "name": "signature",
          "type": "bytes"
        }
      ],
      "name": "setSignedVote",
      "outputs": [],
      "stateMutability": "nonpayable",
      "type": "function"
    },
    {
      "inputs": [
        {
          "internalType": "bytes32",
          "name": "proposalId",
          "type": "bytes32"
        },
        {
          "internalType": "uint256",
          "name": "option",
          "type": "uint256"
        },
        {
          "internalType": "uint256",
          "name": "votingPower",
          "type": "uint256"
        }
      ],
      "name": "setVote",
      "outputs": [],
      "stateMutability": "nonpayable",
      "type": "function"
    },
    {
      "inputs": [
        {
          "internalType": "bytes32",
          "name": "",
          "type": "bytes32"
        }
      ],
      "name": "signedVotes",
      "outputs": [
        {
          "internalType": "bool",
          "name": "",
          "type": "bool"
        }
      ],
      "stateMutability": "view",
      "type": "function"
    },
    {
      "inputs": [],
      "name": "timeForExecution",
      "outputs": [
        {
          "internalType": "uint256",
          "name": "",
          "type": "uint256"
        }
      ],
      "stateMutability": "view",
      "type": "function"
    },
    {
      "inputs": [],
      "name": "token",
      "outputs": [
        {
          "internalType": "contract IERC20Upgradeable",
          "name": "",
          "type": "address"
        }
      ],
      "stateMutability": "view",
      "type": "function"
    },
    {
      "inputs": [],
      "name": "tokenVault",
      "outputs": [
        {
          "internalType": "contract TokenVault",
          "name": "",
          "type": "address"
        }
      ],
      "stateMutability": "view",
      "type": "function"
    },
    {
      "inputs": [
        {
          "internalType": "address",
          "name": "",
          "type": "address"
        }
      ],
      "name": "tokensLocked",
      "outputs": [
        {
          "internalType": "uint256",
          "name": "amount",
          "type": "uint256"
        },
        {
          "internalType": "uint256",
          "name": "timestamp",
          "type": "uint256"
        }
      ],
      "stateMutability": "view",
      "type": "function"
    },
    {
      "inputs": [],
      "name": "totalLocked",
      "outputs": [
        {
          "internalType": "uint256",
          "name": "",
          "type": "uint256"
        }
      ],
      "stateMutability": "view",
      "type": "function"
    },
    {
      "inputs": [],
      "name": "totalProposals",
      "outputs": [
        {
          "internalType": "uint256",
          "name": "",
          "type": "uint256"
        }
      ],
      "stateMutability": "view",
      "type": "function"
    },
    {
      "inputs": [
        {
          "internalType": "bytes32",
          "name": "root",
          "type": "bytes32"
        },
        {
          "internalType": "bytes32",
          "name": "voteHash",
          "type": "bytes32"
        },
        {
          "internalType": "bytes32[]",
          "name": "proof",
          "type": "bytes32[]"
        }
      ],
      "name": "validateMerkleTreeLeaf",
      "outputs": [
        {
          "internalType": "bool",
          "name": "",
          "type": "bool"
        }
      ],
      "stateMutability": "nonpayable",
      "type": "function"
    },
    {
      "inputs": [],
      "name": "voteGas",
      "outputs": [
        {
          "internalType": "uint256",
          "name": "",
          "type": "uint256"
        }
      ],
      "stateMutability": "view",
      "type": "function"
    },
    {
      "inputs": [
        {
          "internalType": "address",
          "name": "account",
          "type": "address"
        }
      ],
      "name": "votingPowerOf",
      "outputs": [
        {
          "internalType": "uint256",
          "name": "",
          "type": "uint256"
        }
      ],
      "stateMutability": "view",
      "type": "function"
    },
    {
      "inputs": [],
      "name": "votingPowerPercentageForProposalCreation",
      "outputs": [
        {
          "internalType": "uint256",
          "name": "",
          "type": "uint256"
        }
      ],
      "stateMutability": "view",
      "type": "function"
    },
    {
      "inputs": [],
      "name": "votingPowerPercentageForProposalExecution",
      "outputs": [
        {
          "internalType": "uint256",
          "name": "",
          "type": "uint256"
        }
      ],
      "stateMutability": "view",
      "type": "function"
    },
    {
      "inputs": [
        {
          "internalType": "uint256",
          "name": "tokenAmount",
          "type": "uint256"
        }
      ],
      "name": "withdrawTokens",
      "outputs": [],
      "stateMutability": "nonpayable",
      "type": "function"
    }
  ],
  "bytecode": "0x608060405234801561001057600080fd5b50614a06806100206000396000f3fe60806040526004361061035e5760003560e01c806364fe6ed2116101c4578063ad6c1e34116100f6578063c93e01e31161009a578063f4732da61161006c578063f4732da614610a1a578063f98606a714610a2f578063fc0c546a14610a45578063fc4e703f14610a6557005b8063c93e01e31461099a578063e0450353146109af578063e158080a146109c5578063f0995198146109db57005b8063b3b47061116100d3578063b3b4706114610930578063b7c15f8d14610950578063bcc3f3bd14610965578063c0a4d64d1461098557005b8063ad6c1e34146108e6578063ae619234146108fb578063b3929aaa1461091057005b806389c98c0611610168578063a16fe3421161013a578063a16fe3421461087c578063a78d80fc1461089a578063a7aeb557146108b0578063ab6ea06b146108c657005b806389c98c06146108125780638bb8591e146108275780638f1803051461084757806392b716541461085c57005b80636e27d889116101a15780636e27d8891461078d57806377027ff4146107ad5780638029eff1146107c257806386e27125146107f257005b806364fe6ed214610736578063671abed71461074b5780636c8b72f61461077857005b80632467ef941161029d5780633bf353fb1161024157806354f2f7af1161021357806354f2f7af146106cc57806356891412146106ea5780635bc789d9146107005780635e508c2c1461072057005b80633bf353fb1461065d5780633de39c11146106735780633f10cf1514610689578063430694cf1461069f57005b80632d757c3e1161027a5780632d757c3e146105925780632fd99c00146105cb578063315a095d1461060b57806332ed5b121461062b57005b80632467ef941461053657806325c069fc1461054b5780632d5b17de1461057257005b806313108d7411610304578063184a0ae9116102e1578063184a0ae9146104c45780631a5007dd146104da57806321df0da7146104ef5780632229a0e21461052157005b806313108d741461046f57806316bbecde1461048f57806317d7de7c146104af57005b80630a366a631161033d5780630a366a63146103f65780630d66808714610419578063123f6d671461042f578063130485fe1461044f57005b80623a40d01461036057806301a598a61461038b57806306fdde03146103d4575b005b34801561036c57600080fd5b50610375610a7b565b6040516103829190613b56565b60405180910390f35b34801561039757600080fd5b506103bf6103a6366004613bb6565b6012602052600090815260409020805460019091015482565b60408051928352602083019190915201610382565b3480156103e057600080fd5b506103e9610ad3565b6040516103829190613c1e565b34801561040257600080fd5b5061040b610b61565b604051908152602001610382565b34801561042557600080fd5b5061040b600d5481565b34801561043b57600080fd5b5061035e61044a366004613c31565b610b89565b34801561045b57600080fd5b506103bf61046a366004613c99565b610e0a565b34801561047b57600080fd5b5061040b61048a366004613f05565b610e3c565b34801561049b57600080fd5b5061035e6104aa366004613fde565b6113f1565b3480156104bb57600080fd5b506103e9611527565b3480156104d057600080fd5b5061040b60035481565b3480156104e657600080fd5b50600a5461040b565b3480156104fb57600080fd5b506000546001600160a01b03165b6040516001600160a01b039091168152602001610382565b34801561052d57600080fd5b5060165461040b565b34801561054257600080fd5b50600c5461040b565b34801561055757600080fd5b50610560600a81565b60405160ff9091168152602001610382565b34801561057e57600080fd5b5061035e61058d36600461400a565b6115b0565b34801561059e57600080fd5b5061040b6105ad366004613bb6565b6001600160a01b031660009081526012602052604090206001015490565b3480156105d757600080fd5b506105fb6105e6366004614074565b60136020526000908152604090205460ff1681565b6040519015158152602001610382565b34801561061757600080fd5b5061035e610626366004614074565b61185c565b34801561063757600080fd5b5061064b610646366004614074565b611aa4565b604051610382969594939291906140c5565b34801561066957600080fd5b5061040b600c5481565b34801561067f57600080fd5b5061040b60085481565b34801561069557600080fd5b5061040b60045481565b3480156106ab57600080fd5b506106bf6106ba366004614074565b611bf8565b60405161038291906141eb565b3480156106d857600080fd5b506011546001600160a01b0316610509565b3480156106f657600080fd5b5061040b600e5481565b34801561070c57600080fd5b50601154610509906001600160a01b031681565b34801561072c57600080fd5b5061040b60055481565b34801561074257600080fd5b5060105461040b565b34801561075757600080fd5b5061076b6107663660046142e9565b611f83565b6040516103829190614370565b34801561078457600080fd5b5060075461040b565b34801561079957600080fd5b5061035e6107a8366004614074565b6123aa565b3480156107b957600080fd5b5060095461040b565b3480156107ce57600080fd5b506105fb6107dd366004614074565b60009081526013602052604090205460ff1690565b3480156107fe57600080fd5b5061035e61080d3660046143aa565b61252a565b34801561081e57600080fd5b5060085461040b565b34801561083357600080fd5b5061035e6108423660046144af565b6127ce565b34801561085357600080fd5b50600b5461040b565b34801561086857600080fd5b5061040b6108773660046145c9565b6128b4565b34801561088857600080fd5b506001546001600160a01b0316610509565b3480156108a657600080fd5b5061040b600a5481565b3480156108bc57600080fd5b5061040b600f5481565b3480156108d257600080fd5b506105fb6108e1366004614602565b61290b565b3480156108f257600080fd5b50600f5461040b565b34801561090757600080fd5b5061040b612920565b34801561091c57600080fd5b5061040b61092b366004614074565b612937565b34801561093c57600080fd5b5061035e61094b366004614074565b612958565b34801561095c57600080fd5b5060045461040b565b34801561097157600080fd5b5061040b610980366004613bb6565b61322e565b34801561099157600080fd5b50600d5461040b565b3480156109a657600080fd5b5060035461040b565b3480156109bb57600080fd5b5061040b60095481565b3480156109d157600080fd5b5061040b60105481565b3480156109e757600080fd5b506103bf6109f6366004613c99565b60146020908152600092835260408084209091529082529020805460019091015482565b348015610a2657600080fd5b50600e5461040b565b348015610a3b57600080fd5b5061040b60065481565b348015610a5157600080fd5b50600054610509906001600160a01b031681565b348015610a7157600080fd5b5061040b60075481565b60606016805480602002602001604051908101604052809291908181526020018280548015610ac957602002820191906000526020600020905b815481526020019060010190808311610ab5575b5050505050905090565b60028054610ae090614647565b80601f0160208091040260200160405190810160405280929190818152602001828054610b0c90614647565b8015610b595780601f10610b2e57610100808354040283529160200191610b59565b820191906000526020600020905b815481529060010190602001808311610b3c57829003601f168201915b505050505081565b6000610b84612710610b7e600654610b78600e5490565b90613249565b9061325c565b905090565b333014610c0e5760405162461bcd60e51b815260206004820152604260248201527f45524332304775696c643a204f6e6c792063616c6c61626c652062792045524360448201527f32306775696c6420697473656c66206f72207768656e20696e697469616c697a606482015261195960f21b608482015260a4015b60405180910390fd5b60008a11610c765760405162461bcd60e51b815260206004820152602f60248201527f45524332304775696c643a2070726f706f73616c2074696d652068617320746f60448201526e0206265206d6f7265207468616e203608c1b6064820152608401610c05565b89831015610cec5760405162461bcd60e51b815260206004820152603e60248201527f45524332304775696c643a206c6f636b54696d652068617320746f206265206860448201527f6967686572206f7220657175616c20746f2070726f706f73616c54696d6500006064820152608401610c05565b60008811610d625760405162461bcd60e51b815260206004820152603c60248201527f45524332304775696c643a20766f74696e6720706f77657220666f722065786560448201527f637574696f6e2068617320746f206265206d6f7265207468616e2030000000006064820152608401610c05565b6201c908861115610ddb5760405162461bcd60e51b815260206004820152603960248201527f45524332304775696c643a20766f7465206761732068617320746f206265206560448201527f7175616c206f72206c6f776572207468616e20313137303030000000000000006064820152608401610c05565b600399909955600497909755600595909555600693909355600791909155600855600955600d55600f55601055565b60008281526014602090815260408083206001600160a01b0385168452909152902080546001909101545b9250929050565b6000601054600e541015610eb85760405162461bcd60e51b815260206004820152603960248201527f45524332304775696c643a204e6f7420656e6f75676820746f6b656e73206c6f60448201527f636b656420746f2063726561746520612070726f706f73616c000000000000006064820152608401610c05565b600f54600b541015610f285760405162461bcd60e51b815260206004820152603360248201527f45524332304775696c643a204e6f7420656e6f756768206d656d6265727320746044820152721bc818dc99585d194818481c1c9bdc1bdcd85b606a1b6064820152608401610c05565b600954600c5410610f9a5760405162461bcd60e51b815260206004820152603660248201527f45524332304775696c643a204d6178696d756d20616d6f756e74206f662061636044820152751d1a5d99481c1c9bdc1bdcd85b1cc81c995858da195960521b6064820152608401610c05565b610fa2610b61565b610fab3361322e565b10156110175760405162461bcd60e51b815260206004820152603560248201527f45524332304775696c643a204e6f7420656e6f75676820766f74696e67506f77604482015274195c881d1bc818dc99585d19481c1c9bdc1bdcd85b605a1b6064820152608401610c05565b85518751148015611029575084518751145b6110925760405162461bcd60e51b815260206004820152603460248201527f45524332304775696c643a2057726f6e67206c656e677468206f6620746f2c2060448201527364617461206f722076616c75652061727261797360601b6064820152608401610c05565b60008751116110fd5760405162461bcd60e51b815260206004820152603160248201527f45524332304775696c643a20746f2c20646174612076616c7565206172726179604482015270732063616e6e6f7420626520656d70747960781b6064820152608401610c05565b86518411158015611117575084516111159085613268565b155b6111895760405162461bcd60e51b815260206004820152603760248201527f45524332304775696c643a20496e76616c696420746f74616c4f7074696f6e7360448201527f206f72206f7074696f6e2063616c6c73206c656e6774680000000000000000006064820152608401610c05565b600a8411156112005760405162461bcd60e51b815260206004820152603a60248201527f45524332304775696c643a204d6178696d756d20616d6f756e74206f66206f7060448201527f74696f6e73207065722070726f706f73616c20726561636865640000000000006064820152608401610c05565b600a546040516bffffffffffffffffffffffff193360601b16602082015242603482015260548101919091526000906074016040516020818303038152906040528051906020012090506112606001600a5461327490919063ffffffff16565b600a55600081815260156020526040902080546001600160a01b0319163317815542600182018190556003546112969190613274565b600282015588516112b090600383019060208c0190613911565b5087516112c690600483019060208b0190613976565b5086516112dc90600583019060208a01906139cf565b5084516112f29060068301906020880190613a0a565b5083516113089060078301906020870190613a0a565b50611314866001613274565b6001600160401b0381111561132b5761132b613cc5565b604051908082528060200260200182016040528015611354578160200160208202803683370190505b50805161136b9160098401916020909101906139cf565b5060088101805460ff19166001908117909155600c5461138a91613274565b600c55816000805160206149b1833981519152600160405190815260200160405180910390a250601680546001810182556000919091527fd833147d7dc355ba459fc788f669e58cfaf9dc25ddcd0702e87d69c7b512428901819055979650505050505050565b60008381526015602052604090206002015442106114215760405162461bcd60e51b8152600401610c0590614682565b8061142b3361322e565b101580156114545750600083815260146020908152604080832033845290915290206001015481115b6114705760405162461bcd60e51b8152600401610c05906146cd565b60008381526014602090815260408083203384529091529020541580156114b157506000838152601460209081526040808320338452909152902060010154155b806114fa57506000838152601460209081526040808320338452909152902054821480156114fa5750600083815260146020908152604080832033845290915290206001015481115b6115165760405162461bcd60e51b8152600401610c0590614713565b61152233848484613280565b505050565b60606002805461153690614647565b80601f016020809104026020016040519081016040528092919081815260200182805461156290614647565b8015610ac95780601f1061158457610100808354040283529160200191610ac9565b820191906000526020600020905b81548152906001019060200180831161159257509395945050505050565b60008581526015602052604090206002015442106115e05760405162461bcd60e51b8152600401610c0590614682565b60006115ee838787876128b4565b60008181526013602052604090205490915060ff161561164c5760405162461bcd60e51b8152602060048201526019602482015278115490cc8c11dd5a5b190e88105b1c9958591e481d9bdd1959603a1b6044820152606401610c05565b6116ad826116a7836040517f19457468657265756d205369676e6564204d6573736167653a0a3332000000006020820152603c8101829052600090605c01604051602081830303815290604052805190602001209050919050565b906134ca565b6001600160a01b0316836001600160a01b03161461170d5760405162461bcd60e51b815260206004820152601860248201527f45524332304775696c643a2057726f6e67207369676e657200000000000000006044820152606401610c05565b6000818152601360205260409020805460ff19166001179055836117308461322e565b10158015611762575060008681526014602090815260408083206001600160a01b038716845290915290206001015484115b61177e5760405162461bcd60e51b8152600401610c05906146cd565b60008681526014602090815260408083206001600160a01b03871684529091529020541580156117d1575060008681526014602090815260408083206001600160a01b0387168452909152902060010154155b8061182c575060008681526014602090815260408083206001600160a01b03871684529091529020548514801561182c575060008681526014602090815260408083206001600160a01b038716845290915290206001015484115b6118485760405162461bcd60e51b8152600401610c0590614713565b61185483878787613280565b505050505050565b806118663361322e565b10156118d35760405162461bcd60e51b815260206004820152603660248201527f45524332304775696c643a20556e61626c6520746f207769746864726177206d6044820152751bdc99481d1bdad95b9cc81d1a185b881b1bd8dad95960521b6064820152608401610c05565b3360009081526012602052604090206001015442116119345760405162461bcd60e51b815260206004820152601f60248201527f45524332304775696c643a20546f6b656e73207374696c6c206c6f636b6564006044820152606401610c05565b600081116119aa5760405162461bcd60e51b815260206004820152603f60248201527f45524332304775696c643a20616d6f756e74206f6620746f6b656e7320746f2060448201527f7769746864726177206d7573742062652067726561746572207468616e2030006064820152608401610c05565b336000908152601260205260409020546119c490826134ee565b33600090815260126020526040902055600e546119e190826134ee565b600e5560115460405163f3fef3a360e01b8152336004820152602481018390526001600160a01b039091169063f3fef3a390604401600060405180830381600087803b158015611a3057600080fd5b505af1158015611a44573d6000803e3d6000fd5b50505050611a513361322e565b611a6757600b54611a639060016134ee565b600b555b60408051338152602081018390527f6352c5382c4a4578e712449ca65e83cdb392d045dfcf1cad9615189db2da244b91015b60405180910390a150565b60156020526000908152604090208054600182015460028301546006840180546001600160a01b03909416949293919291611ade90614647565b80601f0160208091040260200160405190810160405280929190818152602001828054611b0a90614647565b8015611b575780601f10611b2c57610100808354040283529160200191611b57565b820191906000526020600020905b815481529060010190602001808311611b3a57829003601f168201915b505050505090806007018054611b6c90614647565b80601f0160208091040260200160405190810160405280929190818152602001828054611b9890614647565b8015611be55780601f10611bba57610100808354040283529160200191611be5565b820191906000526020600020905b815481529060010190602001808311611bc857829003601f168201915b5050506008909301549192505060ff1686565b611c00613a7d565b60008281526015602090815260409182902082516101408101845281546001600160a01b031681526001820154818401526002820154818501526003820180548551818602810186019096528086529194929360608601939290830182828015611c9357602002820191906000526020600020905b81546001600160a01b03168152600190910190602001808311611c75575b5050505050815260200160048201805480602002602001604051908101604052809291908181526020016000905b82821015611d6d578382906000526020600020018054611ce090614647565b80601f0160208091040260200160405190810160405280929190818152602001828054611d0c90614647565b8015611d595780601f10611d2e57610100808354040283529160200191611d59565b820191906000526020600020905b815481529060010190602001808311611d3c57829003601f168201915b505050505081526020019060010190611cc1565b50505050815260200160058201805480602002602001604051908101604052809291908181526020018280548015611dc457602002820191906000526020600020905b815481526020019060010190808311611db0575b50505050508152602001600682018054611ddd90614647565b80601f0160208091040260200160405190810160405280929190818152602001828054611e0990614647565b8015611e565780601f10611e2b57610100808354040283529160200191611e56565b820191906000526020600020905b815481529060010190602001808311611e3957829003601f168201915b50505050508152602001600782018054611e6f90614647565b80601f0160208091040260200160405190810160405280929190818152602001828054611e9b90614647565b8015611ee85780601f10611ebd57610100808354040283529160200191611ee8565b820191906000526020600020905b815481529060010190602001808311611ecb57829003601f168201915b5050509183525050600882015460209091019060ff166004811115611f0f57611f0f61408d565b6004811115611f2057611f2061408d565b815260200160098201805480602002602001604051908101604052809291908181526020018280548015611f7357602002820191906000526020600020905b815481526020019060010190808311611f5f575b5050505050815250509050919050565b606082518451148015611f97575081518351145b6120095760405162461bcd60e51b815260206004820152603f60248201527f45524332304775696c643a20496e76616c69642070726f706f73616c4964732c60448201527f206f7074696f6e73206f7220766f74696e67506f77657273206c656e677468006064820152608401610c05565b60008085516001600160401b0381111561202557612025613cc5565b60405190808252806020026020018201604052801561204e578160200160208202803683370190505b509050600091505b85518210156123a15742601560008885815181106120765761207661477a565b602002602001015181526020019081526020016000206002015410156120bf5760008183815181106120aa576120aa61477a565b9115156020928302919091019091015261238f565b8382815181106120d1576120d161477a565b60200260200101516120e23361322e565b10806121585750601460008784815181106120ff576120ff61477a565b602002602001015181526020019081526020016000206000336001600160a01b03166001600160a01b031681526020019081526020016000206001015484838151811061214e5761214e61477a565b6020026020010151105b156121715760008183815181106120aa576120aa61477a565b601460008784815181106121875761218761477a565b60209081029190910181015182528181019290925260409081016000908120338252909252902054158061220d5750601460008784815181106121cc576121cc61477a565b602002602001015181526020019081526020016000206000336001600160a01b03166001600160a01b03168152602001908152602001600020600101546000145b80156122f957508482815181106122265761222661477a565b6020026020010151601460008885815181106122445761224461477a565b602002602001015181526020019081526020016000206000336001600160a01b03166001600160a01b0316815260200190815260200160002060000154141580156122f9575083828151811061229c5761229c61477a565b6020026020010151601460008885815181106122ba576122ba61477a565b602002602001015181526020019081526020016000206000336001600160a01b03166001600160a01b0316815260200190815260200160002060010154115b156123125760008183815181106120aa576120aa61477a565b60018183815181106123265761232661477a565b60200260200101901515908115158152505061238f3387848151811061234e5761234e61477a565b60200260200101518785815181106123685761236861477a565b60200260200101518786815181106123825761238261477a565b6020026020010151613280565b81612399816147a6565b925050612056565b95945050505050565b600081116124155760405162461bcd60e51b815260206004820152603260248201527f45524332304775696c643a20546f6b656e7320746f206c6f636b2073686f756c60448201527106420626520686967686572207468616e20360741b6064820152608401610c05565b61241e3361322e565b61243457600b54612430906001613274565b600b555b6011546040516311f9fbc960e21b8152336004820152602481018390526001600160a01b03909116906347e7ef2490604401600060405180830381600087803b15801561248057600080fd5b505af1158015612494573d6000803e3d6000fd5b5050336000908152601260205260409020546124b39250905082613274565b33600090815260126020526040902055600d546124d1904290613274565b33600090815260126020526040902060010155600e546124f19082613274565b600e5560408051338152602081018390527fac87f20a77d28ee8bbb58ec87ea8fa968b3393efae1a368fd50b767c2847391c9101611a99565b6000612538878585856128b4565b90508581146125895760405162461bcd60e51b815260206004820152601d60248201527f45524332304775696c643a20496e76616c696420766f746520686173680000006044820152606401610c05565b60008181526013602052604090205460ff16156125e45760405162461bcd60e51b8152602060048201526019602482015278115490cc8c11dd5a5b190e88105b1c9958591e481d9bdd1959603a1b6044820152606401610c05565b60006125f189888861290b565b90508061264c5760405162461bcd60e51b8152602060048201526024808201527f45524332304775696c643a20496e76616c6964206d65726b6c652074726565206044820152633632b0b360e11b6064820152608401610c05565b600085815260156020526040902060020154421061267c5760405162461bcd60e51b8152600401610c0590614682565b826126868961322e565b101580156126b8575060008581526014602090815260408083206001600160a01b038c16845290915290206001015483115b6126d45760405162461bcd60e51b8152600401610c05906146cd565b60008581526014602090815260408083206001600160a01b038c168452909152902054158015612727575060008581526014602090815260408083206001600160a01b038c168452909152902060010154155b80612782575060008581526014602090815260408083206001600160a01b038c16845290915290205484148015612782575060008581526014602090815260408083206001600160a01b038c16845290915290206001015483115b61279e5760405162461bcd60e51b8152600401610c0590614713565b6000828152601360205260409020805460ff191660011790556127c388868686613280565b505050505050505050565b60005b87518110156128aa576128988882815181106127ef576127ef61477a565b60200260200101518883815181106128095761280961477a565b60200260200101518884815181106128235761282361477a565b602002602001015188858151811061283d5761283d61477a565b60200260200101518886815181106128575761285761477a565b60200260200101518887815181106128715761287161477a565b602002602001015188888151811061288b5761288b61477a565b602002602001015161252a565b806128a2816147a6565b9150506127d1565b5050505050505050565b6040516bffffffffffffffffffffffff19606086901b166020820152603481018490526054810183905260748101829052600090609401604051602081830303815290604052805190602001209050949350505050565b60006129188285856134fa565b949350505050565b6000610b84612710610b7e600554610b78600e5490565b6016818154811061294757600080fd5b600091825260209091200154905081565b60175460ff16156129b75760405162461bcd60e51b8152602060048201526024808201527f45524332304775696c643a2050726f706f73616c20756e6465722065786563756044820152633a34b7b760e11b6064820152608401610c05565b600160008281526015602052604090206008015460ff1660048111156129df576129df61408d565b14612a3a5760405162461bcd60e51b815260206004820152602560248201527f45524332304775696c643a2050726f706f73616c20616c72656164792065786560448201526418dd5d195960da1b6064820152608401610c05565b6000818152601560205260409020600201544211612aa85760405162461bcd60e51b815260206004820152602560248201527f45524332304775696c643a2050726f706f73616c206861736e277420656e646560448201526419081e595d60da1b6064820152608401610c05565b600081815260156020526040812060090180548291908290612acc57612acc61477a565b600091825260209091200154905060015b600084815260156020526040902060090154811015612bf657612afe612920565b6000858152601560205260409020600901805483908110612b2157612b2161477a565b906000526020600020015410158015612b6957506000848152601560205260409020600901805483919083908110612b5b57612b5b61477a565b906000526020600020015410155b15612be4576000848152601560205260409020600901805483919083908110612b9457612b9461477a565b90600052602060002001541415612bae5760009250612be4565b60008481526015602052604090206009018054919350839182908110612bd657612bd661477a565b906000526020600020015491505b80612bee816147a6565b915050612add565b82612c43576000848152601560205260409020600801805460ff1916600290811790915584906000805160206149b1833981519152905b60405190815260200160405180910390a2613217565b6004546000858152601560205260409020600201544291612c649190613274565b1015612ca0576000848152601560205260409020600801805460ff1916600490811790915584906000805160206149b183398151915290612c2d565b600084815260156020526040812060088101805460ff1916600317905560090154612ce890612cd09060016134ee565b6000878152601560205260409020600301549061325c565b9050612cff612cf88560016134ee565b8290613249565b91506000612d0d8383613274565b9050600160009054906101000a90046001600160a01b03166001600160a01b0316633e7a47b26040518163ffffffff1660e01b8152600401600060405180830381600087803b158015612d5f57600080fd5b505af1158015612d73573d6000803e3d6000fd5b505050505b80831015613173576000868152601560205260408120600301805485908110612da357612da361477a565b6000918252602090912001546001600160a01b031614801590612dfd57506000868152601560205260408120600401805485908110612de457612de461477a565b906000526020600020018054612df990614647565b9050115b15613161576000868152601560205260408120600401805485908110612e2557612e2561477a565b906000526020600020018054612e3a90614647565b80601f0160208091040260200160405190810160405280929190818152602001828054612e6690614647565b8015612eb35780601f10612e8857610100808354040283529160200191612eb3565b820191906000526020600020905b815481529060010190602001808311612e9657829003601f168201915b50505060208084015160015460008d815260159093526040909220600301805495965090946001600160a01b03909216935063eed470339250309189908110612efe57612efe61477a565b9060005260206000200160009054906101000a90046001600160a01b031684601560008e81526020019081526020016000206005018a81548110612f4457612f4461477a565b60009182526020909120015460405160e086901b6001600160e01b031990811682526001600160a01b039586166004830152939094166024850152911660448301526064820152608401600060405180830381600087803b158015612fa857600080fd5b505af1925050508015612fb9575060015b61300b57612fc56147c1565b806308c379a01415612fff5750612fda6147dd565b80612fe55750613001565b8060405162461bcd60e51b8152600401610c059190613c1e565b505b3d6000803e3d6000fd5b6017805460ff19166001179055600088815260156020526040812060030180548790811061303b5761303b61477a565b60009182526020808320909101548b83526015909152604090912060050180546001600160a01b0390921691889081106130775761307761477a565b9060005260206000200154601560008c815260200190815260200160002060040188815481106130a9576130a961477a565b906000526020600020016040516130c09190614866565b60006040518083038185875af1925050503d80600081146130fd576040519150601f19603f3d011682016040523d82523d6000602084013e613102565b606091505b50509050806131535760405162461bcd60e51b815260206004820181905260248201527f45524332304775696c643a2050726f706f73616c2063616c6c206661696c65646044820152606401610c05565b50506017805460ff19169055505b8261316b816147a6565b935050612d78565b60015460405163fb0fde8560e01b81523060048201526001600160a01b039091169063fb0fde8590602401602060405180830381600087803b1580156131b857600080fd5b505af11580156131cc573d6000803e3d6000fd5b505050506040513d601f19601f820116820180604052508101906131f09190614902565b50856000805160206149b1833981519152600360405190815260200160405180910390a250505b600c546132259060016134ee565b600c5550505050565b6001600160a01b031660009081526012602052604090205490565b60006132558284614924565b9392505050565b60006132558284614959565b6000613255828461496d565b60006132558284614981565b60008381526014602090815260408083206001600160a01b0388168452825280832060010154868452601590925290912060090180546132ef9284926132e992879081106132d0576132d061477a565b90600052602060002001546134ee90919063ffffffff16565b90613274565b60008481526015602052604090206009018054849081106133125761331261477a565b60009182526020808320909101929092558481526014825260408082206001600160a01b0388168352835280822085815560010184905585825260159092522060020154613378856001600160a01b031660009081526012602052604090206001015490565b10156133ac576000838152601560209081526040808320600201546001600160a01b03881684526012909252909120600101555b604080516001600160a01b038616815260208101839052839185917f583c62f152711bcb1ca6186c1065821ff17a7cbe226dcb559a1c889dcf0d769b910160405180910390a3600754156134c457600061341d6134146008543a61351090919063ffffffff16565b60075490613249565b905080471015801561342e5750333b155b156134c257604051600090339083908381818185875af1925050503d8060008114613475576040519150601f19603f3d011682016040523d82523d6000602084013e61347a565b606091505b50509050806118545760405162461bcd60e51b81526020600482015260146024820152734661696c656420746f20726566756e642067617360601b6044820152606401610c05565b505b50505050565b60008060006134d98585613526565b915091506134e681613593565b509392505050565b60006132558284614999565b6000826135078584613751565b14949350505050565b600081831061351f5781613255565b5090919050565b60008082516041141561355d5760208301516040840151606085015160001a613551878285856137f5565b94509450505050610e35565b825160401415613587576020830151604084015161357c8683836138e2565b935093505050610e35565b50600090506002610e35565b60008160048111156135a7576135a761408d565b14156135b05750565b60018160048111156135c4576135c461408d565b14156136125760405162461bcd60e51b815260206004820152601860248201527f45434453413a20696e76616c6964207369676e617475726500000000000000006044820152606401610c05565b60028160048111156136265761362661408d565b14156136745760405162461bcd60e51b815260206004820152601f60248201527f45434453413a20696e76616c6964207369676e6174757265206c656e677468006044820152606401610c05565b60038160048111156136885761368861408d565b14156136e15760405162461bcd60e51b815260206004820152602260248201527f45434453413a20696e76616c6964207369676e6174757265202773272076616c604482015261756560f01b6064820152608401610c05565b60048160048111156136f5576136f561408d565b141561374e5760405162461bcd60e51b815260206004820152602260248201527f45434453413a20696e76616c6964207369676e6174757265202776272076616c604482015261756560f01b6064820152608401610c05565b50565b600081815b84518110156134e65760008582815181106137735761377361477a565b602002602001015190508083116137b55760408051602081018590529081018290526060016040516020818303038152906040528051906020012092506137e2565b60408051602081018390529081018490526060016040516020818303038152906040528051906020012092505b50806137ed816147a6565b915050613756565b6000807f7fffffffffffffffffffffffffffffff5d576e7357a4501ddfe92f46681b20a083111561382c57506000905060036138d9565b8460ff16601b1415801561384457508460ff16601c14155b1561385557506000905060046138d9565b6040805160008082526020820180845289905260ff881692820192909252606081018690526080810185905260019060a0016020604051602081039080840390855afa1580156138a9573d6000803e3d6000fd5b5050604051601f1901519150506001600160a01b0381166138d2576000600192509250506138d9565b9150600090505b94509492505050565b6000806001600160ff1b03831660ff84901c601b01613903878288856137f5565b935093505050935093915050565b828054828255906000526020600020908101928215613966579160200282015b8281111561396657825182546001600160a01b0319166001600160a01b03909116178255602090920191600190910190613931565b50613972929150613aea565b5090565b8280548282559060005260206000209081019282156139c3579160200282015b828111156139c357825180516139b3918491602090910190613a0a565b5091602001919060010190613996565b50613972929150613aff565b828054828255906000526020600020908101928215613966579160200282015b828111156139665782518255916020019190600101906139ef565b828054613a1690614647565b90600052602060002090601f016020900481019282613a385760008555613966565b82601f10613a5157805160ff1916838001178555613966565b8280016001018555821561396657918201828111156139665782518255916020019190600101906139ef565b60405180610140016040528060006001600160a01b031681526020016000815260200160008152602001606081526020016060815260200160608152602001606081526020016060815260200160006004811115613add57613add61408d565b8152602001606081525090565b5b808211156139725760008155600101613aeb565b80821115613972576000613b138282613b1c565b50600101613aff565b508054613b2890614647565b6000825580601f10613b38575050565b601f01602090049060005260206000209081019061374e9190613aea565b6020808252825182820181905260009190848201906040850190845b81811015613b8e57835183529284019291840191600101613b72565b50909695505050505050565b80356001600160a01b0381168114613bb157600080fd5b919050565b600060208284031215613bc857600080fd5b61325582613b9a565b6000815180845260005b81811015613bf757602081850181015186830182015201613bdb565b81811115613c09576000602083870101525b50601f01601f19169290920160200192915050565b6020815260006132556020830184613bd1565b6000806000806000806000806000806101408b8d031215613c5157600080fd5b505088359a60208a01359a5060408a013599606081013599506080810135985060a0810135975060c0810135965060e081013595506101008101359450610120013592509050565b60008060408385031215613cac57600080fd5b82359150613cbc60208401613b9a565b90509250929050565b634e487b7160e01b600052604160045260246000fd5b601f8201601f191681016001600160401b0381118282101715613d0057613d00613cc5565b6040525050565b60006001600160401b03821115613d2057613d20613cc5565b5060051b60200190565b600082601f830112613d3b57600080fd5b81356020613d4882613d07565b604051613d558282613cdb565b83815260059390931b8501820192828101915086841115613d7557600080fd5b8286015b84811015613d9757613d8a81613b9a565b8352918301918301613d79565b509695505050505050565b600082601f830112613db357600080fd5b81356001600160401b03811115613dcc57613dcc613cc5565b604051613de3601f8301601f191660200182613cdb565b818152846020838601011115613df857600080fd5b816020850160208301376000918101602001919091529392505050565b600082601f830112613e2657600080fd5b81356020613e3382613d07565b604051613e408282613cdb565b83815260059390931b8501820192828101915086841115613e6057600080fd5b8286015b84811015613d975780356001600160401b03811115613e835760008081fd5b613e918986838b0101613da2565b845250918301918301613e64565b600082601f830112613eb057600080fd5b81356020613ebd82613d07565b604051613eca8282613cdb565b83815260059390931b8501820192828101915086841115613eea57600080fd5b8286015b84811015613d975780358352918301918301613eee565b60008060008060008060c08789031215613f1e57600080fd5b86356001600160401b0380821115613f3557600080fd5b613f418a838b01613d2a565b97506020890135915080821115613f5757600080fd5b613f638a838b01613e15565b96506040890135915080821115613f7957600080fd5b613f858a838b01613e9f565b9550606089013594506080890135915080821115613fa257600080fd5b613fae8a838b01613da2565b935060a0890135915080821115613fc457600080fd5b50613fd189828a01613da2565b9150509295509295509295565b600080600060608486031215613ff357600080fd5b505081359360208301359350604090920135919050565b600080600080600060a0868803121561402257600080fd5b85359450602086013593506040860135925061404060608701613b9a565b915060808601356001600160401b0381111561405b57600080fd5b61406788828901613da2565b9150509295509295909350565b60006020828403121561408657600080fd5b5035919050565b634e487b7160e01b600052602160045260246000fd5b600581106140c157634e487b7160e01b600052602160045260246000fd5b9052565b60018060a01b038716815285602082015284604082015260c0606082015260006140f260c0830186613bd1565b82810360808401526141048186613bd1565b91505061411460a08301846140a3565b979650505050505050565b600081518084526020808501945080840160005b838110156141585781516001600160a01b031687529582019590820190600101614133565b509495945050505050565b600082825180855260208086019550808260051b84010181860160005b848110156141ae57601f1986840301895261419c838351613bd1565b98840198925090830190600101614180565b5090979650505050505050565b600081518084526020808501945080840160005b83811015614158578151875295820195908201906001016141cf565b602081526142056020820183516001600160a01b03169052565b60208201516040820152604082015160608201526000606083015161014080608085015261423761016085018361411f565b91506080850151601f19808685030160a08701526142558483614163565b935060a08701519150808685030160c087015261427284836141bb565b935060c08701519150808685030160e087015261428f8483613bd1565b935060e087015191506101008187860301818801526142ae8584613bd1565b9450808801519250506101206142c6818801846140a3565b8701518685039091018387015290506142df83826141bb565b9695505050505050565b6000806000606084860312156142fe57600080fd5b83356001600160401b038082111561431557600080fd5b61432187838801613e9f565b9450602086013591508082111561433757600080fd5b61434387838801613e9f565b9350604086013591508082111561435957600080fd5b5061436686828701613e9f565b9150509250925092565b6020808252825182820181905260009190848201906040850190845b81811015613b8e57835115158352928401929184019160010161438c565b600080600080600080600060e0888a0312156143c557600080fd5b873596506143d560208901613b9a565b95506040880135945060608801356001600160401b038111156143f757600080fd5b6144038a828b01613e9f565b979a969950949760808101359660a0820135965060c090910135945092505050565b600082601f83011261443657600080fd5b8135602061444382613d07565b6040516144508282613cdb565b83815260059390931b850182019282810191508684111561447057600080fd5b8286015b84811015613d975780356001600160401b038111156144935760008081fd5b6144a18986838b0101613e9f565b845250918301918301614474565b600080600080600080600060e0888a0312156144ca57600080fd5b87356001600160401b03808211156144e157600080fd5b6144ed8b838c01613e9f565b985060208a013591508082111561450357600080fd5b61450f8b838c01613d2a565b975060408a013591508082111561452557600080fd5b6145318b838c01613e9f565b965060608a013591508082111561454757600080fd5b6145538b838c01614425565b955060808a013591508082111561456957600080fd5b6145758b838c01613e9f565b945060a08a013591508082111561458b57600080fd5b6145978b838c01613e9f565b935060c08a01359150808211156145ad57600080fd5b506145ba8a828b01613e9f565b91505092959891949750929550565b600080600080608085870312156145df57600080fd5b6145e885613b9a565b966020860135965060408601359560600135945092505050565b60008060006060848603121561461757600080fd5b833592506020840135915060408401356001600160401b0381111561463b57600080fd5b61436686828701613e9f565b600181811c9082168061465b57607f821691505b6020821081141561467c57634e487b7160e01b600052602260045260246000fd5b50919050565b6020808252602b908201527f45524332304775696c643a2050726f706f73616c20656e6465642c2063616e6e60408201526a1bdd081899481d9bdd195960aa1b606082015260800190565b60208082526026908201527f45524332304775696c643a20496e76616c696420766f74696e67506f77657220604082015265185b5bdd5b9d60d21b606082015260800190565b60208082526041908201527f45524332304775696c643a2043616e6e6f74206368616e6765206f7074696f6e60408201527f20766f7465642c206f6e6c7920696e63726561736520766f74696e67506f77656060820152603960f91b608082015260a00190565b634e487b7160e01b600052603260045260246000fd5b634e487b7160e01b600052601160045260246000fd5b60006000198214156147ba576147ba614790565b5060010190565b600060033d11156147da5760046000803e5060005160e01c5b90565b600060443d10156147eb5790565b6040516003193d81016004833e81513d6001600160401b03816024840111818411171561481a57505050505090565b82850191508151818111156148325750505050505090565b843d870101602082850101111561484c5750505050505090565b61485b60208286010187613cdb565b509095945050505050565b600080835481600182811c91508083168061488257607f831692505b60208084108214156148a257634e487b7160e01b86526022600452602486fd5b8180156148b657600181146148c7576148f4565b60ff198616895284890196506148f4565b60008a81526020902060005b868110156148ec5781548b8201529085019083016148d3565b505084890196505b509498975050505050505050565b60006020828403121561491457600080fd5b8151801515811461325557600080fd5b600081600019048311821515161561493e5761493e614790565b500290565b634e487b7160e01b600052601260045260246000fd5b60008261496857614968614943565b500490565b60008261497c5761497c614943565b500690565b6000821982111561499457614994614790565b500190565b6000828210156149ab576149ab614790565b50039056fefee62a9eec0be50eb061c711990ef0f1e17b40ea131d9347b0468acdaf8bf243a2646970667358221220a3e552340723cfd636e9196e15c02f050ad2869d9ba4f7677dea88ed01cdb07764736f6c63430008080033",
  "linkReferences": {},
  "deployedLinkReferences": {}
}