{
  "_format": "hh-sol-artifact-1",
  "contractName": "BaseERC20Guild",
  "sourceName": "dxdao-contracts/contracts/erc20guild/BaseERC20Guild.sol",
  "abi": [
    {
      "anonymous": false,
      "inputs": [
        {
          "indexed": true,
          "internalType": "bytes32",
          "name": "proposalId",
          "type": "bytes32"
        },
        {
          "indexed": false,
          "internalType": "uint256",
          "name": "newState",
          "type": "uint256"
        }
      ],
      "name": "ProposalStateChanged",
      "type": "event"
    },
    {
      "anonymous": false,
      "inputs": [
        {
          "indexed": false,
          "internalType": "address",
          "name": "voter",
          "type": "address"
        },
        {
          "indexed": false,
          "internalType": "uint256",
          "name": "value",
          "type": "uint256"
        }
      ],
      "name": "TokensLocked",
      "type": "event"
    },
    {
      "anonymous": false,
      "inputs": [
        {
          "indexed": false,
          "internalType": "address",
          "name": "voter",
          "type": "address"
        },
        {
          "indexed": false,
          "internalType": "uint256",
          "name": "value",
          "type": "uint256"
        }
      ],
      "name": "TokensWithdrawn",
      "type": "event"
    },
    {
      "anonymous": false,
      "inputs": [
        {
          "indexed": true,
          "internalType": "bytes32",
          "name": "proposalId",
          "type": "bytes32"
        },
        {
          "indexed": true,
          "internalType": "uint256",
          "name": "option",
          "type": "uint256"
        },
        {
          "indexed": false,
          "internalType": "address",
          "name": "voter",
          "type": "address"
        },
        {
          "indexed": false,
          "internalType": "uint256",
          "name": "votingPower",
          "type": "uint256"
        }
      ],
      "name": "VoteAdded",
      "type": "event"
    },
    {
      "stateMutability": "payable",
      "type": "fallback"
    },
    {
      "inputs": [],
      "name": "MAX_OPTIONS_PER_PROPOSAL",
      "outputs": [
        {
          "internalType": "uint8",
          "name": "",
          "type": "uint8"
        }
      ],
      "stateMutability": "view",
      "type": "function"
    },
    {
      "inputs": [],
      "name": "activeProposalsNow",
      "outputs": [
        {
          "internalType": "uint256",
          "name": "",
          "type": "uint256"
        }
      ],
      "stateMutability": "view",
      "type": "function"
    },
    {
      "inputs": [
        {
          "internalType": "address[]",
          "name": "to",
          "type": "address[]"
        },
        {
          "internalType": "bytes[]",
          "name": "data",
          "type": "bytes[]"
        },
        {
          "internalType": "uint256[]",
          "name": "value",
          "type": "uint256[]"
        },
        {
          "internalType": "uint256",
          "name": "totalOptions",
          "type": "uint256"
        },
        {
          "internalType": "string",
          "name": "title",
          "type": "string"
        },
        {
          "internalType": "string",
          "name": "contentHash",
          "type": "string"
        }
      ],
      "name": "createProposal",
      "outputs": [
        {
          "internalType": "bytes32",
          "name": "",
          "type": "bytes32"
        }
      ],
      "stateMutability": "nonpayable",
      "type": "function"
    },
    {
      "inputs": [
        {
          "internalType": "bytes32",
          "name": "proposalId",
          "type": "bytes32"
        }
      ],
      "name": "endProposal",
      "outputs": [],
      "stateMutability": "nonpayable",
      "type": "function"
    },
    {
      "inputs": [
        {
          "internalType": "bytes32",
          "name": "root",
          "type": "bytes32"
        },
        {
          "internalType": "address",
          "name": "voter",
          "type": "address"
        },
        {
          "internalType": "bytes32",
          "name": "voteHash",
          "type": "bytes32"
        },
        {
          "internalType": "bytes32[]",
          "name": "proof",
          "type": "bytes32[]"
        },
        {
          "internalType": "bytes32",
          "name": "proposalId",
          "type": "bytes32"
        },
        {
          "internalType": "uint256",
          "name": "option",
          "type": "uint256"
        },
        {
          "internalType": "uint256",
          "name": "votingPower",
          "type": "uint256"
        }
      ],
      "name": "executeSignedVote",
      "outputs": [],
      "stateMutability": "nonpayable",
      "type": "function"
    },
    {
      "inputs": [
        {
          "internalType": "bytes32[]",
          "name": "proposalIds",
          "type": "bytes32[]"
        },
        {
          "internalType": "uint256[]",
          "name": "options",
          "type": "uint256[]"
        },
        {
          "internalType": "uint256[]",
          "name": "votingPowers",
          "type": "uint256[]"
        }
      ],
      "name": "executeVotes",
      "outputs": [
        {
          "internalType": "bool[]",
          "name": "",
          "type": "bool[]"
        }
      ],
      "stateMutability": "nonpayable",
      "type": "function"
    },
    {
      "inputs": [],
      "name": "getActiveProposalsNow",
      "outputs": [
        {
          "internalType": "uint256",
          "name": "",
          "type": "uint256"
        }
      ],
      "stateMutability": "view",
      "type": "function"
    },
    {
      "inputs": [],
      "name": "getLockTime",
      "outputs": [
        {
          "internalType": "uint256",
          "name": "",
          "type": "uint256"
        }
      ],
      "stateMutability": "view",
      "type": "function"
    },
    {
      "inputs": [],
      "name": "getMaxActiveProposals",
      "outputs": [
        {
          "internalType": "uint256",
          "name": "",
          "type": "uint256"
        }
      ],
      "stateMutability": "view",
      "type": "function"
    },
    {
      "inputs": [],
      "name": "getMaxGasPrice",
      "outputs": [
        {
          "internalType": "uint256",
          "name": "",
          "type": "uint256"
        }
      ],
      "stateMutability": "view",
      "type": "function"
    },
    {
      "inputs": [],
      "name": "getMinimumMembersForProposalCreation",
      "outputs": [
        {
          "internalType": "uint256",
          "name": "",
          "type": "uint256"
        }
      ],
      "stateMutability": "view",
      "type": "function"
    },
    {
      "inputs": [],
      "name": "getMinimumTokensLockedForProposalCreation",
      "outputs": [
        {
          "internalType": "uint256",
          "name": "",
          "type": "uint256"
        }
      ],
      "stateMutability": "view",
      "type": "function"
    },
    {
      "inputs": [],
      "name": "getName",
      "outputs": [
        {
          "internalType": "string",
          "name": "",
          "type": "string"
        }
      ],
      "stateMutability": "view",
      "type": "function"
    },
    {
      "inputs": [],
      "name": "getPermissionRegistry",
      "outputs": [
        {
          "internalType": "address",
          "name": "",
          "type": "address"
        }
      ],
      "stateMutability": "view",
      "type": "function"
    },
    {
      "inputs": [
        {
          "internalType": "bytes32",
          "name": "proposalId",
          "type": "bytes32"
        }
      ],
      "name": "getProposal",
      "outputs": [
        {
          "components": [
            {
              "internalType": "address",
              "name": "creator",
              "type": "address"
            },
            {
              "internalType": "uint256",
              "name": "startTime",
              "type": "uint256"
            },
            {
              "internalType": "uint256",
              "name": "endTime",
              "type": "uint256"
            },
            {
              "internalType": "address[]",
              "name": "to",
              "type": "address[]"
            },
            {
              "internalType": "bytes[]",
              "name": "data",
              "type": "bytes[]"
            },
            {
              "internalType": "uint256[]",
              "name": "value",
              "type": "uint256[]"
            },
            {
              "internalType": "string",
              "name": "title",
              "type": "string"
            },
            {
              "internalType": "string",
              "name": "contentHash",
              "type": "string"
            },
            {
              "internalType": "enum BaseERC20Guild.ProposalState",
              "name": "state",
              "type": "uint8"
            },
            {
              "internalType": "uint256[]",
              "name": "totalVotes",
              "type": "uint256[]"
            }
          ],
          "internalType": "struct BaseERC20Guild.Proposal",
          "name": "",
          "type": "tuple"
        }
      ],
      "stateMutability": "view",
      "type": "function"
    },
    {
      "inputs": [],
      "name": "getProposalTime",
      "outputs": [
        {
          "internalType": "uint256",
          "name": "",
          "type": "uint256"
        }
      ],
      "stateMutability": "view",
      "type": "function"
    },
    {
      "inputs": [
        {
          "internalType": "bytes32",
          "name": "proposalId",
          "type": "bytes32"
        },
        {
          "internalType": "address",
          "name": "voter",
          "type": "address"
        }
      ],
      "name": "getProposalVotesOfVoter",
      "outputs": [
        {
          "internalType": "uint256",
          "name": "option",
          "type": "uint256"
        },
        {
          "internalType": "uint256",
          "name": "votingPower",
          "type": "uint256"
        }
      ],
      "stateMutability": "view",
      "type": "function"
    },
    {
      "inputs": [],
      "name": "getProposalsIds",
      "outputs": [
        {
          "internalType": "bytes32[]",
          "name": "",
          "type": "bytes32[]"
        }
      ],
      "stateMutability": "view",
      "type": "function"
    },
    {
      "inputs": [],
      "name": "getProposalsIdsLength",
      "outputs": [
        {
          "internalType": "uint256",
          "name": "",
          "type": "uint256"
        }
      ],
      "stateMutability": "view",
      "type": "function"
    },
    {
      "inputs": [
        {
          "internalType": "bytes32",
          "name": "signedVoteHash",
          "type": "bytes32"
        }
      ],
      "name": "getSignedVote",
      "outputs": [
        {
          "internalType": "bool",
          "name": "",
          "type": "bool"
        }
      ],
      "stateMutability": "view",
      "type": "function"
    },
    {
      "inputs": [],
      "name": "getTimeForExecution",
      "outputs": [
        {
          "internalType": "uint256",
          "name": "",
          "type": "uint256"
        }
      ],
      "stateMutability": "view",
      "type": "function"
    },
    {
      "inputs": [],
      "name": "getToken",
      "outputs": [
        {
          "internalType": "address",
          "name": "",
          "type": "address"
        }
      ],
      "stateMutability": "view",
      "type": "function"
    },
    {
      "inputs": [],
      "name": "getTokenVault",
      "outputs": [
        {
          "internalType": "address",
          "name": "",
          "type": "address"
        }
      ],
      "stateMutability": "view",
      "type": "function"
    },
    {
      "inputs": [],
      "name": "getTotalLocked",
      "outputs": [
        {
          "internalType": "uint256",
          "name": "",
          "type": "uint256"
        }
      ],
      "stateMutability": "view",
      "type": "function"
    },
    {
      "inputs": [],
      "name": "getTotalMembers",
      "outputs": [
        {
          "internalType": "uint256",
          "name": "",
          "type": "uint256"
        }
      ],
      "stateMutability": "view",
      "type": "function"
    },
    {
      "inputs": [],
      "name": "getTotalProposals",
      "outputs": [
        {
          "internalType": "uint256",
          "name": "",
          "type": "uint256"
        }
      ],
      "stateMutability": "view",
      "type": "function"
    },
    {
      "inputs": [],
      "name": "getVoteGas",
      "outputs": [
        {
          "internalType": "uint256",
          "name": "",
          "type": "uint256"
        }
      ],
      "stateMutability": "view",
      "type": "function"
    },
    {
      "inputs": [
        {
          "internalType": "address",
          "name": "voter",
          "type": "address"
        }
      ],
      "name": "getVoterLockTimestamp",
      "outputs": [
        {
          "internalType": "uint256",
          "name": "",
          "type": "uint256"
        }
      ],
      "stateMutability": "view",
      "type": "function"
    },
    {
      "inputs": [],
      "name": "getVotingPowerForProposalCreation",
      "outputs": [
        {
          "internalType": "uint256",
          "name": "",
          "type": "uint256"
        }
      ],
      "stateMutability": "view",
      "type": "function"
    },
    {
      "inputs": [],
      "name": "getVotingPowerForProposalExecution",
      "outputs": [
        {
          "internalType": "uint256",
          "name": "",
          "type": "uint256"
        }
      ],
      "stateMutability": "view",
      "type": "function"
    },
    {
      "inputs": [
        {
          "internalType": "address",
          "name": "voter",
          "type": "address"
        },
        {
          "internalType": "bytes32",
          "name": "proposalId",
          "type": "bytes32"
        },
        {
          "internalType": "uint256",
          "name": "option",
          "type": "uint256"
        },
        {
          "internalType": "uint256",
          "name": "votingPower",
          "type": "uint256"
        }
      ],
      "name": "hashVote",
      "outputs": [
        {
          "internalType": "bytes32",
          "name": "",
          "type": "bytes32"
        }
      ],
      "stateMutability": "pure",
      "type": "function"
    },
    {
      "inputs": [],
      "name": "lockTime",
      "outputs": [
        {
          "internalType": "uint256",
          "name": "",
          "type": "uint256"
        }
      ],
      "stateMutability": "view",
      "type": "function"
    },
    {
      "inputs": [
        {
          "internalType": "uint256",
          "name": "tokenAmount",
          "type": "uint256"
        }
      ],
      "name": "lockTokens",
      "outputs": [],
      "stateMutability": "nonpayable",
      "type": "function"
    },
    {
      "inputs": [],
      "name": "maxActiveProposals",
      "outputs": [
        {
          "internalType": "uint256",
          "name": "",
          "type": "uint256"
        }
      ],
      "stateMutability": "view",
      "type": "function"
    },
    {
      "inputs": [],
      "name": "maxGasPrice",
      "outputs": [
        {
          "internalType": "uint256",
          "name": "",
          "type": "uint256"
        }
      ],
      "stateMutability": "view",
      "type": "function"
    },
    {
      "inputs": [],
      "name": "minimumMembersForProposalCreation",
      "outputs": [
        {
          "internalType": "uint256",
          "name": "",
          "type": "uint256"
        }
      ],
      "stateMutability": "view",
      "type": "function"
    },
    {
      "inputs": [],
      "name": "minimumTokensLockedForProposalCreation",
      "outputs": [
        {
          "internalType": "uint256",
          "name": "",
          "type": "uint256"
        }
      ],
      "stateMutability": "view",
      "type": "function"
    },
    {
      "inputs": [],
      "name": "name",
      "outputs": [
        {
          "internalType": "string",
          "name": "",
          "type": "string"
        }
      ],
      "stateMutability": "view",
      "type": "function"
    },
    {
      "inputs": [],
      "name": "proposalTime",
      "outputs": [
        {
          "internalType": "uint256",
          "name": "",
          "type": "uint256"
        }
      ],
      "stateMutability": "view",
      "type": "function"
    },
    {
      "inputs": [
        {
          "internalType": "bytes32",
          "name": "",
          "type": "bytes32"
        },
        {
          "internalType": "address",
          "name": "",
          "type": "address"
        }
      ],
      "name": "proposalVotes",
      "outputs": [
        {
          "internalType": "uint256",
          "name": "option",
          "type": "uint256"
        },
        {
          "internalType": "uint256",
          "name": "votingPower",
          "type": "uint256"
        }
      ],
      "stateMutability": "view",
      "type": "function"
    },
    {
      "inputs": [
        {
          "internalType": "bytes32",
          "name": "",
          "type": "bytes32"
        }
      ],
      "name": "proposals",
      "outputs": [
        {
          "internalType": "address",
          "name": "creator",
          "type": "address"
        },
        {
          "internalType": "uint256",
          "name": "startTime",
          "type": "uint256"
        },
        {
          "internalType": "uint256",
          "name": "endTime",
          "type": "uint256"
        },
        {
          "internalType": "string",
          "name": "title",
          "type": "string"
        },
        {
          "internalType": "string",
          "name": "contentHash",
          "type": "string"
        },
        {
          "internalType": "enum BaseERC20Guild.ProposalState",
          "name": "state",
          "type": "uint8"
        }
      ],
      "stateMutability": "view",
      "type": "function"
    },
    {
      "inputs": [
        {
          "internalType": "uint256",
          "name": "",
          "type": "uint256"
        }
      ],
      "name": "proposalsIds",
      "outputs": [
        {
          "internalType": "bytes32",
          "name": "",
          "type": "bytes32"
        }
      ],
      "stateMutability": "view",
      "type": "function"
    },
    {
      "inputs": [
        {
          "internalType": "uint256",
          "name": "_proposalTime",
          "type": "uint256"
        },
        {
          "internalType": "uint256",
          "name": "_timeForExecution",
          "type": "uint256"
        },
        {
          "internalType": "uint256",
          "name": "_votingPowerPercentageForProposalExecution",
          "type": "uint256"
        },
        {
          "internalType": "uint256",
          "name": "_votingPowerPercentageForProposalCreation",
          "type": "uint256"
        },
        {
          "internalType": "uint256",
          "name": "_voteGas",
          "type": "uint256"
        },
        {
          "internalType": "uint256",
          "name": "_maxGasPrice",
          "type": "uint256"
        },
        {
          "internalType": "uint256",
          "name": "_maxActiveProposals",
          "type": "uint256"
        },
        {
          "internalType": "uint256",
          "name": "_lockTime",
          "type": "uint256"
        },
        {
          "internalType": "uint256",
          "name": "_minimumMembersForProposalCreation",
          "type": "uint256"
        },
        {
          "internalType": "uint256",
          "name": "_minimumTokensLockedForProposalCreation",
          "type": "uint256"
        }
      ],
      "name": "setConfig",
      "outputs": [],
      "stateMutability": "nonpayable",
      "type": "function"
    },
    {
      "inputs": [
        {
          "internalType": "bytes32",
          "name": "proposalId",
          "type": "bytes32"
        },
        {
          "internalType": "uint256",
          "name": "option",
          "type": "uint256"
        },
        {
          "internalType": "uint256",
          "name": "votingPower",
          "type": "uint256"
        },
        {
          "internalType": "address",
          "name": "voter",
          "type": "address"
        },
        {
          "internalType": "bytes",
          "name": "signature",
          "type": "bytes"
        }
      ],
      "name": "setSignedVote",
      "outputs": [],
      "stateMutability": "nonpayable",
      "type": "function"
    },
    {
      "inputs": [
        {
          "internalType": "bytes32",
          "name": "proposalId",
          "type": "bytes32"
        },
        {
          "internalType": "uint256",
          "name": "option",
          "type": "uint256"
        },
        {
          "internalType": "uint256",
          "name": "votingPower",
          "type": "uint256"
        }
      ],
      "name": "setVote",
      "outputs": [],
      "stateMutability": "nonpayable",
      "type": "function"
    },
    {
      "inputs": [
        {
          "internalType": "bytes32",
          "name": "",
          "type": "bytes32"
        }
      ],
      "name": "signedVotes",
      "outputs": [
        {
          "internalType": "bool",
          "name": "",
          "type": "bool"
        }
      ],
      "stateMutability": "view",
      "type": "function"
    },
    {
      "inputs": [],
      "name": "timeForExecution",
      "outputs": [
        {
          "internalType": "uint256",
          "name": "",
          "type": "uint256"
        }
      ],
      "stateMutability": "view",
      "type": "function"
    },
    {
      "inputs": [],
      "name": "token",
      "outputs": [
        {
          "internalType": "contract IERC20Upgradeable",
          "name": "",
          "type": "address"
        }
      ],
      "stateMutability": "view",
      "type": "function"
    },
    {
      "inputs": [],
      "name": "tokenVault",
      "outputs": [
        {
          "internalType": "contract TokenVault",
          "name": "",
          "type": "address"
        }
      ],
      "stateMutability": "view",
      "type": "function"
    },
    {
      "inputs": [
        {
          "internalType": "address",
          "name": "",
          "type": "address"
        }
      ],
      "name": "tokensLocked",
      "outputs": [
        {
          "internalType": "uint256",
          "name": "amount",
          "type": "uint256"
        },
        {
          "internalType": "uint256",
          "name": "timestamp",
          "type": "uint256"
        }
      ],
      "stateMutability": "view",
      "type": "function"
    },
    {
      "inputs": [],
      "name": "totalLocked",
      "outputs": [
        {
          "internalType": "uint256",
          "name": "",
          "type": "uint256"
        }
      ],
      "stateMutability": "view",
      "type": "function"
    },
    {
      "inputs": [],
      "name": "totalProposals",
      "outputs": [
        {
          "internalType": "uint256",
          "name": "",
          "type": "uint256"
        }
      ],
      "stateMutability": "view",
      "type": "function"
    },
    {
      "inputs": [
        {
          "internalType": "bytes32",
          "name": "root",
          "type": "bytes32"
        },
        {
          "internalType": "bytes32",
          "name": "voteHash",
          "type": "bytes32"
        },
        {
          "internalType": "bytes32[]",
          "name": "proof",
          "type": "bytes32[]"
        }
      ],
      "name": "validateMerkleTreeLeaf",
      "outputs": [
        {
          "internalType": "bool",
          "name": "",
          "type": "bool"
        }
      ],
      "stateMutability": "nonpayable",
      "type": "function"
    },
    {
      "inputs": [],
      "name": "voteGas",
      "outputs": [
        {
          "internalType": "uint256",
          "name": "",
          "type": "uint256"
        }
      ],
      "stateMutability": "view",
      "type": "function"
    },
    {
      "inputs": [
        {
          "internalType": "address",
          "name": "account",
          "type": "address"
        }
      ],
      "name": "votingPowerOf",
      "outputs": [
        {
          "internalType": "uint256",
          "name": "",
          "type": "uint256"
        }
      ],
      "stateMutability": "view",
      "type": "function"
    },
    {
      "inputs": [],
      "name": "votingPowerPercentageForProposalCreation",
      "outputs": [
        {
          "internalType": "uint256",
          "name": "",
          "type": "uint256"
        }
      ],
      "stateMutability": "view",
      "type": "function"
    },
    {
      "inputs": [],
      "name": "votingPowerPercentageForProposalExecution",
      "outputs": [
        {
          "internalType": "uint256",
          "name": "",
          "type": "uint256"
        }
      ],
      "stateMutability": "view",
      "type": "function"
    },
    {
      "inputs": [
        {
          "internalType": "uint256",
          "name": "tokenAmount",
          "type": "uint256"
        }
      ],
      "name": "withdrawTokens",
      "outputs": [],
      "stateMutability": "nonpayable",
      "type": "function"
    }
  ],
  "bytecode": "0x608060405234801561001057600080fd5b5061475d806100206000396000f3fe6080604052600436106103535760003560e01c806364fe6ed2116101b9578063ad6c1e34116100f6578063c93e01e31161009a578063f4732da61161006c578063f4732da6146109ef578063f98606a714610a04578063fc0c546a14610a1a578063fc4e703f14610a3a57005b8063c93e01e31461096f578063e045035314610984578063e158080a1461099a578063f0995198146109b057005b8063b3b47061116100d3578063b3b4706114610905578063b7c15f8d14610925578063bcc3f3bd1461093a578063c0a4d64d1461095a57005b8063ad6c1e34146108bb578063ae619234146108d0578063b3929aaa146108e557005b806389c98c061161015d578063a16fe3421161013a578063a16fe34214610851578063a78d80fc1461086f578063a7aeb55714610885578063ab6ea06b1461089b57005b806389c98c06146108075780638f1803051461081c57806392b716541461083157005b80636e27d889116101965780636e27d8891461078257806377027ff4146107a25780638029eff1146107b757806386e27125146107e757005b806364fe6ed21461072b578063671abed7146107405780636c8b72f61461076d57005b80632467ef94116102925780633bf353fb1161023657806354f2f7af1161020857806354f2f7af146106c157806356891412146106df5780635bc789d9146106f55780635e508c2c1461071557005b80633bf353fb146106525780633de39c11146106685780633f10cf151461067e578063430694cf1461069457005b80632d757c3e1161026f5780632d757c3e146105875780632fd99c00146105c0578063315a095d1461060057806332ed5b121461062057005b80632467ef941461052b57806325c069fc146105405780632d5b17de1461056757005b806313108d74116102f9578063184a0ae9116102d6578063184a0ae9146104b95780631a5007dd146104cf57806321df0da7146104e45780632229a0e21461051657005b806313108d741461046457806316bbecde1461048457806317d7de7c146104a457005b80630a366a63116103325780630a366a63146103eb5780630d6680871461040e578063123f6d6714610424578063130485fe1461044457005b80623a40d01461035557806301a598a61461038057806306fdde03146103c9575b005b34801561036157600080fd5b5061036a610a50565b6040516103779190613a47565b60405180910390f35b34801561038c57600080fd5b506103b461039b366004613aa7565b6012602052600090815260409020805460019091015482565b60408051928352602083019190915201610377565b3480156103d557600080fd5b506103de610aa8565b6040516103779190613b0f565b3480156103f757600080fd5b50610400610b36565b604051908152602001610377565b34801561041a57600080fd5b50610400600d5481565b34801561043057600080fd5b5061035361043f366004613b22565b610b5e565b34801561045057600080fd5b506103b461045f366004613b8a565b610ddf565b34801561047057600080fd5b5061040061047f366004613dfa565b610e11565b34801561049057600080fd5b5061035361049f366004613ed4565b6113c7565b3480156104b057600080fd5b506103de6114fd565b3480156104c557600080fd5b5061040060035481565b3480156104db57600080fd5b50600a54610400565b3480156104f057600080fd5b506000546001600160a01b03165b6040516001600160a01b039091168152602001610377565b34801561052257600080fd5b50601654610400565b34801561053757600080fd5b50600c54610400565b34801561054c57600080fd5b50610555600a81565b60405160ff9091168152602001610377565b34801561057357600080fd5b50610353610582366004613f00565b611586565b34801561059357600080fd5b506104006105a2366004613aa7565b6001600160a01b031660009081526012602052604090206001015490565b3480156105cc57600080fd5b506105f06105db366004613f6b565b60136020526000908152604090205460ff1681565b6040519015158152602001610377565b34801561060c57600080fd5b5061035361061b366004613f6b565b611832565b34801561062c57600080fd5b5061064061063b366004613f6b565b611a7a565b60405161037796959493929190613fbc565b34801561065e57600080fd5b50610400600c5481565b34801561067457600080fd5b5061040060085481565b34801561068a57600080fd5b5061040060045481565b3480156106a057600080fd5b506106b46106af366004613f6b565b611bce565b60405161037791906140e2565b3480156106cd57600080fd5b506011546001600160a01b03166104fe565b3480156106eb57600080fd5b50610400600e5481565b34801561070157600080fd5b506011546104fe906001600160a01b031681565b34801561072157600080fd5b5061040060055481565b34801561073757600080fd5b50601054610400565b34801561074c57600080fd5b5061076061075b3660046141e0565b611f59565b6040516103779190614268565b34801561077957600080fd5b50600754610400565b34801561078e57600080fd5b5061035361079d366004613f6b565b612381565b3480156107ae57600080fd5b50600954610400565b3480156107c357600080fd5b506105f06107d2366004613f6b565b60009081526013602052604090205460ff1690565b3480156107f357600080fd5b506103536108023660046142a2565b612501565b34801561081357600080fd5b50600854610400565b34801561082857600080fd5b50600b54610400565b34801561083d57600080fd5b5061040061084c36600461431e565b6127a5565b34801561085d57600080fd5b506001546001600160a01b03166104fe565b34801561087b57600080fd5b50610400600a5481565b34801561089157600080fd5b50610400600f5481565b3480156108a757600080fd5b506105f06108b6366004614357565b6127fc565b3480156108c757600080fd5b50600f54610400565b3480156108dc57600080fd5b50610400612811565b3480156108f157600080fd5b50610400610900366004613f6b565b612828565b34801561091157600080fd5b50610353610920366004613f6b565b612849565b34801561093157600080fd5b50600454610400565b34801561094657600080fd5b50610400610955366004613aa7565b61311f565b34801561096657600080fd5b50600d54610400565b34801561097b57600080fd5b50600354610400565b34801561099057600080fd5b5061040060095481565b3480156109a657600080fd5b5061040060105481565b3480156109bc57600080fd5b506103b46109cb366004613b8a565b60146020908152600092835260408084209091529082529020805460019091015482565b3480156109fb57600080fd5b50600e54610400565b348015610a1057600080fd5b5061040060065481565b348015610a2657600080fd5b506000546104fe906001600160a01b031681565b348015610a4657600080fd5b5061040060075481565b60606016805480602002602001604051908101604052809291908181526020018280548015610a9e57602002820191906000526020600020905b815481526020019060010190808311610a8a575b5050505050905090565b60028054610ab59061439d565b80601f0160208091040260200160405190810160405280929190818152602001828054610ae19061439d565b8015610b2e5780601f10610b0357610100808354040283529160200191610b2e565b820191906000526020600020905b815481529060010190602001808311610b1157829003601f168201915b505050505081565b6000610b59612710610b53600654610b4d600e5490565b9061313a565b9061314d565b905090565b333014610be35760405162461bcd60e51b815260206004820152604260248201527f45524332304775696c643a204f6e6c792063616c6c61626c652062792045524360448201527f32306775696c6420697473656c66206f72207768656e20696e697469616c697a606482015261195960f21b608482015260a4015b60405180910390fd5b60008a11610c4b5760405162461bcd60e51b815260206004820152602f60248201527f45524332304775696c643a2070726f706f73616c2074696d652068617320746f60448201526e0206265206d6f7265207468616e203608c1b6064820152608401610bda565b89831015610cc15760405162461bcd60e51b815260206004820152603e60248201527f45524332304775696c643a206c6f636b54696d652068617320746f206265206860448201527f6967686572206f7220657175616c20746f2070726f706f73616c54696d6500006064820152608401610bda565b60008811610d375760405162461bcd60e51b815260206004820152603c60248201527f45524332304775696c643a20766f74696e6720706f77657220666f722065786560448201527f637574696f6e2068617320746f206265206d6f7265207468616e2030000000006064820152608401610bda565b6201c908861115610db05760405162461bcd60e51b815260206004820152603960248201527f45524332304775696c643a20766f7465206761732068617320746f206265206560448201527f7175616c206f72206c6f776572207468616e20313137303030000000000000006064820152608401610bda565b600399909955600497909755600595909555600693909355600791909155600855600955600d55600f55601055565b60008281526014602090815260408083206001600160a01b0385168452909152902080546001909101545b9250929050565b6000601054600e541015610e8d5760405162461bcd60e51b815260206004820152603960248201527f45524332304775696c643a204e6f7420656e6f75676820746f6b656e73206c6f60448201527f636b656420746f2063726561746520612070726f706f73616c000000000000006064820152608401610bda565b600f54600b541015610efd5760405162461bcd60e51b815260206004820152603360248201527f45524332304775696c643a204e6f7420656e6f756768206d656d6265727320746044820152721bc818dc99585d194818481c1c9bdc1bdcd85b606a1b6064820152608401610bda565b600954600c5410610f6f5760405162461bcd60e51b815260206004820152603660248201527f45524332304775696c643a204d6178696d756d20616d6f756e74206f662061636044820152751d1a5d99481c1c9bdc1bdcd85b1cc81c995858da195960521b6064820152608401610bda565b610f77610b36565b610f803361311f565b1015610fec5760405162461bcd60e51b815260206004820152603560248201527f45524332304775696c643a204e6f7420656e6f75676820766f74696e67506f77604482015274195c881d1bc818dc99585d19481c1c9bdc1bdcd85b605a1b6064820152608401610bda565b85518751148015610ffe575084518751145b6110675760405162461bcd60e51b815260206004820152603460248201527f45524332304775696c643a2057726f6e67206c656e677468206f6620746f2c2060448201527364617461206f722076616c75652061727261797360601b6064820152608401610bda565b60008751116110d25760405162461bcd60e51b815260206004820152603160248201527f45524332304775696c643a20746f2c20646174612076616c7565206172726179604482015270732063616e6e6f7420626520656d70747960781b6064820152608401610bda565b865184111580156110ec575084516110ea9085613159565b155b61115e5760405162461bcd60e51b815260206004820152603760248201527f45524332304775696c643a20496e76616c696420746f74616c4f7074696f6e7360448201527f206f72206f7074696f6e2063616c6c73206c656e6774680000000000000000006064820152608401610bda565b600a8411156111d55760405162461bcd60e51b815260206004820152603a60248201527f45524332304775696c643a204d6178696d756d20616d6f756e74206f66206f7060448201527f74696f6e73207065722070726f706f73616c20726561636865640000000000006064820152608401610bda565b600a546040516bffffffffffffffffffffffff193360601b16602082015242603482015260548101919091526000906074016040516020818303038152906040528051906020012090506112356001600a5461316590919063ffffffff16565b600a55600081815260156020526040902080546001600160a01b03191633178155426001820181905560035461126b9190613165565b6002820155885161128590600383019060208c0190613802565b50875161129b90600483019060208b0190613867565b5086516112b190600583019060208a01906138c0565b5084516112c790600683019060208801906138fb565b5083516112dd90600783019060208701906138fb565b506112e9866001613165565b67ffffffffffffffff81111561130157611301613bb6565b60405190808252806020026020018201604052801561132a578160200160208202803683370190505b5080516113419160098401916020909101906138c0565b5060088101805460ff19166001908117909155600c5461136091613165565b600c5581600080516020614708833981519152600160405190815260200160405180910390a250601680546001810182556000919091527fd833147d7dc355ba459fc788f669e58cfaf9dc25ddcd0702e87d69c7b512428901819055979650505050505050565b60008381526015602052604090206002015442106113f75760405162461bcd60e51b8152600401610bda906143d8565b806114013361311f565b1015801561142a5750600083815260146020908152604080832033845290915290206001015481115b6114465760405162461bcd60e51b8152600401610bda90614423565b600083815260146020908152604080832033845290915290205415801561148757506000838152601460209081526040808320338452909152902060010154155b806114d057506000838152601460209081526040808320338452909152902054821480156114d05750600083815260146020908152604080832033845290915290206001015481115b6114ec5760405162461bcd60e51b8152600401610bda90614469565b6114f833848484613171565b505050565b60606002805461150c9061439d565b80601f01602080910402602001604051908101604052809291908181526020018280546115389061439d565b8015610a9e5780601f1061155a57610100808354040283529160200191610a9e565b820191906000526020600020905b81548152906001019060200180831161156857509395945050505050565b60008581526015602052604090206002015442106115b65760405162461bcd60e51b8152600401610bda906143d8565b60006115c4838787876127a5565b60008181526013602052604090205490915060ff16156116225760405162461bcd60e51b8152602060048201526019602482015278115490cc8c11dd5a5b190e88105b1c9958591e481d9bdd1959603a1b6044820152606401610bda565b6116838261167d836040517f19457468657265756d205369676e6564204d6573736167653a0a3332000000006020820152603c8101829052600090605c01604051602081830303815290604052805190602001209050919050565b906133bb565b6001600160a01b0316836001600160a01b0316146116e35760405162461bcd60e51b815260206004820152601860248201527f45524332304775696c643a2057726f6e67207369676e657200000000000000006044820152606401610bda565b6000818152601360205260409020805460ff19166001179055836117068461311f565b10158015611738575060008681526014602090815260408083206001600160a01b038716845290915290206001015484115b6117545760405162461bcd60e51b8152600401610bda90614423565b60008681526014602090815260408083206001600160a01b03871684529091529020541580156117a7575060008681526014602090815260408083206001600160a01b0387168452909152902060010154155b80611802575060008681526014602090815260408083206001600160a01b038716845290915290205485148015611802575060008681526014602090815260408083206001600160a01b038716845290915290206001015484115b61181e5760405162461bcd60e51b8152600401610bda90614469565b61182a83878787613171565b505050505050565b8061183c3361311f565b10156118a95760405162461bcd60e51b815260206004820152603660248201527f45524332304775696c643a20556e61626c6520746f207769746864726177206d6044820152751bdc99481d1bdad95b9cc81d1a185b881b1bd8dad95960521b6064820152608401610bda565b33600090815260126020526040902060010154421161190a5760405162461bcd60e51b815260206004820152601f60248201527f45524332304775696c643a20546f6b656e73207374696c6c206c6f636b6564006044820152606401610bda565b600081116119805760405162461bcd60e51b815260206004820152603f60248201527f45524332304775696c643a20616d6f756e74206f6620746f6b656e7320746f2060448201527f7769746864726177206d7573742062652067726561746572207468616e2030006064820152608401610bda565b3360009081526012602052604090205461199a90826133df565b33600090815260126020526040902055600e546119b790826133df565b600e5560115460405163f3fef3a360e01b8152336004820152602481018390526001600160a01b039091169063f3fef3a390604401600060405180830381600087803b158015611a0657600080fd5b505af1158015611a1a573d6000803e3d6000fd5b50505050611a273361311f565b611a3d57600b54611a399060016133df565b600b555b60408051338152602081018390527f6352c5382c4a4578e712449ca65e83cdb392d045dfcf1cad9615189db2da244b91015b60405180910390a150565b60156020526000908152604090208054600182015460028301546006840180546001600160a01b03909416949293919291611ab49061439d565b80601f0160208091040260200160405190810160405280929190818152602001828054611ae09061439d565b8015611b2d5780601f10611b0257610100808354040283529160200191611b2d565b820191906000526020600020905b815481529060010190602001808311611b1057829003601f168201915b505050505090806007018054611b429061439d565b80601f0160208091040260200160405190810160405280929190818152602001828054611b6e9061439d565b8015611bbb5780601f10611b9057610100808354040283529160200191611bbb565b820191906000526020600020905b815481529060010190602001808311611b9e57829003601f168201915b5050506008909301549192505060ff1686565b611bd661396e565b60008281526015602090815260409182902082516101408101845281546001600160a01b031681526001820154818401526002820154818501526003820180548551818602810186019096528086529194929360608601939290830182828015611c6957602002820191906000526020600020905b81546001600160a01b03168152600190910190602001808311611c4b575b5050505050815260200160048201805480602002602001604051908101604052809291908181526020016000905b82821015611d43578382906000526020600020018054611cb69061439d565b80601f0160208091040260200160405190810160405280929190818152602001828054611ce29061439d565b8015611d2f5780601f10611d0457610100808354040283529160200191611d2f565b820191906000526020600020905b815481529060010190602001808311611d1257829003601f168201915b505050505081526020019060010190611c97565b50505050815260200160058201805480602002602001604051908101604052809291908181526020018280548015611d9a57602002820191906000526020600020905b815481526020019060010190808311611d86575b50505050508152602001600682018054611db39061439d565b80601f0160208091040260200160405190810160405280929190818152602001828054611ddf9061439d565b8015611e2c5780601f10611e0157610100808354040283529160200191611e2c565b820191906000526020600020905b815481529060010190602001808311611e0f57829003601f168201915b50505050508152602001600782018054611e459061439d565b80601f0160208091040260200160405190810160405280929190818152602001828054611e719061439d565b8015611ebe5780601f10611e9357610100808354040283529160200191611ebe565b820191906000526020600020905b815481529060010190602001808311611ea157829003601f168201915b5050509183525050600882015460209091019060ff166004811115611ee557611ee5613f84565b6004811115611ef657611ef6613f84565b815260200160098201805480602002602001604051908101604052809291908181526020018280548015611f4957602002820191906000526020600020905b815481526020019060010190808311611f35575b5050505050815250509050919050565b606082518451148015611f6d575081518351145b611fdf5760405162461bcd60e51b815260206004820152603f60248201527f45524332304775696c643a20496e76616c69642070726f706f73616c4964732c60448201527f206f7074696f6e73206f7220766f74696e67506f77657273206c656e677468006064820152608401610bda565b600080855167ffffffffffffffff811115611ffc57611ffc613bb6565b604051908082528060200260200182016040528015612025578160200160208202803683370190505b509050600091505b855182101561237857426015600088858151811061204d5761204d6144d0565b60200260200101518152602001908152602001600020600201541015612096576000818381518110612081576120816144d0565b91151560209283029190910190910152612366565b8382815181106120a8576120a86144d0565b60200260200101516120b93361311f565b108061212f5750601460008784815181106120d6576120d66144d0565b602002602001015181526020019081526020016000206000336001600160a01b03166001600160a01b0316815260200190815260200160002060010154848381518110612125576121256144d0565b6020026020010151105b15612148576000818381518110612081576120816144d0565b6014600087848151811061215e5761215e6144d0565b6020908102919091018101518252818101929092526040908101600090812033825290925290205415806121e45750601460008784815181106121a3576121a36144d0565b602002602001015181526020019081526020016000206000336001600160a01b03166001600160a01b03168152602001908152602001600020600101546000145b80156122d057508482815181106121fd576121fd6144d0565b60200260200101516014600088858151811061221b5761221b6144d0565b602002602001015181526020019081526020016000206000336001600160a01b03166001600160a01b0316815260200190815260200160002060000154141580156122d05750838281518110612273576122736144d0565b602002602001015160146000888581518110612291576122916144d0565b602002602001015181526020019081526020016000206000336001600160a01b03166001600160a01b0316815260200190815260200160002060010154115b156122e9576000818381518110612081576120816144d0565b60018183815181106122fd576122fd6144d0565b60200260200101901515908115158152505061236633878481518110612325576123256144d0565b602002602001015187858151811061233f5761233f6144d0565b6020026020010151878681518110612359576123596144d0565b6020026020010151613171565b81612370816144fc565b92505061202d565b95945050505050565b600081116123ec5760405162461bcd60e51b815260206004820152603260248201527f45524332304775696c643a20546f6b656e7320746f206c6f636b2073686f756c60448201527106420626520686967686572207468616e20360741b6064820152608401610bda565b6123f53361311f565b61240b57600b54612407906001613165565b600b555b6011546040516311f9fbc960e21b8152336004820152602481018390526001600160a01b03909116906347e7ef2490604401600060405180830381600087803b15801561245757600080fd5b505af115801561246b573d6000803e3d6000fd5b50503360009081526012602052604090205461248a9250905082613165565b33600090815260126020526040902055600d546124a8904290613165565b33600090815260126020526040902060010155600e546124c89082613165565b600e5560408051338152602081018390527fac87f20a77d28ee8bbb58ec87ea8fa968b3393efae1a368fd50b767c2847391c9101611a6f565b600061250f878585856127a5565b90508581146125605760405162461bcd60e51b815260206004820152601d60248201527f45524332304775696c643a20496e76616c696420766f746520686173680000006044820152606401610bda565b60008181526013602052604090205460ff16156125bb5760405162461bcd60e51b8152602060048201526019602482015278115490cc8c11dd5a5b190e88105b1c9958591e481d9bdd1959603a1b6044820152606401610bda565b60006125c88988886127fc565b9050806126235760405162461bcd60e51b8152602060048201526024808201527f45524332304775696c643a20496e76616c6964206d65726b6c652074726565206044820152633632b0b360e11b6064820152608401610bda565b60008581526015602052604090206002015442106126535760405162461bcd60e51b8152600401610bda906143d8565b8261265d8961311f565b1015801561268f575060008581526014602090815260408083206001600160a01b038c16845290915290206001015483115b6126ab5760405162461bcd60e51b8152600401610bda90614423565b60008581526014602090815260408083206001600160a01b038c1684529091529020541580156126fe575060008581526014602090815260408083206001600160a01b038c168452909152902060010154155b80612759575060008581526014602090815260408083206001600160a01b038c16845290915290205484148015612759575060008581526014602090815260408083206001600160a01b038c16845290915290206001015483115b6127755760405162461bcd60e51b8152600401610bda90614469565b6000828152601360205260409020805460ff1916600117905561279a88868686613171565b505050505050505050565b6040516bffffffffffffffffffffffff19606086901b166020820152603481018490526054810183905260748101829052600090609401604051602081830303815290604052805190602001209050949350505050565b60006128098285856133eb565b949350505050565b6000610b59612710610b53600554610b4d600e5490565b6016818154811061283857600080fd5b600091825260209091200154905081565b60175460ff16156128a85760405162461bcd60e51b8152602060048201526024808201527f45524332304775696c643a2050726f706f73616c20756e6465722065786563756044820152633a34b7b760e11b6064820152608401610bda565b600160008281526015602052604090206008015460ff1660048111156128d0576128d0613f84565b1461292b5760405162461bcd60e51b815260206004820152602560248201527f45524332304775696c643a2050726f706f73616c20616c72656164792065786560448201526418dd5d195960da1b6064820152608401610bda565b60008181526015602052604090206002015442116129995760405162461bcd60e51b815260206004820152602560248201527f45524332304775696c643a2050726f706f73616c206861736e277420656e646560448201526419081e595d60da1b6064820152608401610bda565b6000818152601560205260408120600901805482919082906129bd576129bd6144d0565b600091825260209091200154905060015b600084815260156020526040902060090154811015612ae7576129ef612811565b6000858152601560205260409020600901805483908110612a1257612a126144d0565b906000526020600020015410158015612a5a57506000848152601560205260409020600901805483919083908110612a4c57612a4c6144d0565b906000526020600020015410155b15612ad5576000848152601560205260409020600901805483919083908110612a8557612a856144d0565b90600052602060002001541415612a9f5760009250612ad5565b60008481526015602052604090206009018054919350839182908110612ac757612ac76144d0565b906000526020600020015491505b80612adf816144fc565b9150506129ce565b82612b34576000848152601560205260409020600801805460ff191660029081179091558490600080516020614708833981519152905b60405190815260200160405180910390a2613108565b6004546000858152601560205260409020600201544291612b559190613165565b1015612b91576000848152601560205260409020600801805460ff19166004908117909155849060008051602061470883398151915290612b1e565b600084815260156020526040812060088101805460ff1916600317905560090154612bd990612bc19060016133df565b6000878152601560205260409020600301549061314d565b9050612bf0612be98560016133df565b829061313a565b91506000612bfe8383613165565b9050600160009054906101000a90046001600160a01b03166001600160a01b0316633e7a47b26040518163ffffffff1660e01b8152600401600060405180830381600087803b158015612c5057600080fd5b505af1158015612c64573d6000803e3d6000fd5b505050505b80831015613064576000868152601560205260408120600301805485908110612c9457612c946144d0565b6000918252602090912001546001600160a01b031614801590612cee57506000868152601560205260408120600401805485908110612cd557612cd56144d0565b906000526020600020018054612cea9061439d565b9050115b15613052576000868152601560205260408120600401805485908110612d1657612d166144d0565b906000526020600020018054612d2b9061439d565b80601f0160208091040260200160405190810160405280929190818152602001828054612d579061439d565b8015612da45780601f10612d7957610100808354040283529160200191612da4565b820191906000526020600020905b815481529060010190602001808311612d8757829003601f168201915b50505060208084015160015460008d815260159093526040909220600301805495965090946001600160a01b03909216935063eed470339250309189908110612def57612def6144d0565b9060005260206000200160009054906101000a90046001600160a01b031684601560008e81526020019081526020016000206005018a81548110612e3557612e356144d0565b60009182526020909120015460405160e086901b6001600160e01b031990811682526001600160a01b039586166004830152939094166024850152911660448301526064820152608401600060405180830381600087803b158015612e9957600080fd5b505af1925050508015612eaa575060015b612efc57612eb6614517565b806308c379a01415612ef05750612ecb614533565b80612ed65750612ef2565b8060405162461bcd60e51b8152600401610bda9190613b0f565b505b3d6000803e3d6000fd5b6017805460ff191660011790556000888152601560205260408120600301805487908110612f2c57612f2c6144d0565b60009182526020808320909101548b83526015909152604090912060050180546001600160a01b039092169188908110612f6857612f686144d0565b9060005260206000200154601560008c81526020019081526020016000206004018881548110612f9a57612f9a6144d0565b90600052602060002001604051612fb191906145bd565b60006040518083038185875af1925050503d8060008114612fee576040519150601f19603f3d011682016040523d82523d6000602084013e612ff3565b606091505b50509050806130445760405162461bcd60e51b815260206004820181905260248201527f45524332304775696c643a2050726f706f73616c2063616c6c206661696c65646044820152606401610bda565b50506017805460ff19169055505b8261305c816144fc565b935050612c69565b60015460405163fb0fde8560e01b81523060048201526001600160a01b039091169063fb0fde8590602401602060405180830381600087803b1580156130a957600080fd5b505af11580156130bd573d6000803e3d6000fd5b505050506040513d601f19601f820116820180604052508101906130e19190614659565b5085600080516020614708833981519152600360405190815260200160405180910390a250505b600c546131169060016133df565b600c5550505050565b6001600160a01b031660009081526012602052604090205490565b6000613146828461467b565b9392505050565b600061314682846146b0565b600061314682846146c4565b600061314682846146d8565b60008381526014602090815260408083206001600160a01b0388168452825280832060010154868452601590925290912060090180546131e09284926131da92879081106131c1576131c16144d0565b90600052602060002001546133df90919063ffffffff16565b90613165565b6000848152601560205260409020600901805484908110613203576132036144d0565b60009182526020808320909101929092558481526014825260408082206001600160a01b0388168352835280822085815560010184905585825260159092522060020154613269856001600160a01b031660009081526012602052604090206001015490565b101561329d576000838152601560209081526040808320600201546001600160a01b03881684526012909252909120600101555b604080516001600160a01b038616815260208101839052839185917f583c62f152711bcb1ca6186c1065821ff17a7cbe226dcb559a1c889dcf0d769b910160405180910390a3600754156133b557600061330e6133056008543a61340190919063ffffffff16565b6007549061313a565b905080471015801561331f5750333b155b156133b357604051600090339083908381818185875af1925050503d8060008114613366576040519150601f19603f3d011682016040523d82523d6000602084013e61336b565b606091505b505090508061182a5760405162461bcd60e51b81526020600482015260146024820152734661696c656420746f20726566756e642067617360601b6044820152606401610bda565b505b50505050565b60008060006133ca8585613417565b915091506133d781613484565b509392505050565b600061314682846146f0565b6000826133f88584613642565b14949350505050565b60008183106134105781613146565b5090919050565b60008082516041141561344e5760208301516040840151606085015160001a613442878285856136e6565b94509450505050610e0a565b825160401415613478576020830151604084015161346d8683836137d3565b935093505050610e0a565b50600090506002610e0a565b600081600481111561349857613498613f84565b14156134a15750565b60018160048111156134b5576134b5613f84565b14156135035760405162461bcd60e51b815260206004820152601860248201527f45434453413a20696e76616c6964207369676e617475726500000000000000006044820152606401610bda565b600281600481111561351757613517613f84565b14156135655760405162461bcd60e51b815260206004820152601f60248201527f45434453413a20696e76616c6964207369676e6174757265206c656e677468006044820152606401610bda565b600381600481111561357957613579613f84565b14156135d25760405162461bcd60e51b815260206004820152602260248201527f45434453413a20696e76616c6964207369676e6174757265202773272076616c604482015261756560f01b6064820152608401610bda565b60048160048111156135e6576135e6613f84565b141561363f5760405162461bcd60e51b815260206004820152602260248201527f45434453413a20696e76616c6964207369676e6174757265202776272076616c604482015261756560f01b6064820152608401610bda565b50565b600081815b84518110156133d7576000858281518110613664576136646144d0565b602002602001015190508083116136a65760408051602081018590529081018290526060016040516020818303038152906040528051906020012092506136d3565b60408051602081018390529081018490526060016040516020818303038152906040528051906020012092505b50806136de816144fc565b915050613647565b6000807f7fffffffffffffffffffffffffffffff5d576e7357a4501ddfe92f46681b20a083111561371d57506000905060036137ca565b8460ff16601b1415801561373557508460ff16601c14155b1561374657506000905060046137ca565b6040805160008082526020820180845289905260ff881692820192909252606081018690526080810185905260019060a0016020604051602081039080840390855afa15801561379a573d6000803e3d6000fd5b5050604051601f1901519150506001600160a01b0381166137c3576000600192509250506137ca565b9150600090505b94509492505050565b6000806001600160ff1b03831660ff84901c601b016137f4878288856136e6565b935093505050935093915050565b828054828255906000526020600020908101928215613857579160200282015b8281111561385757825182546001600160a01b0319166001600160a01b03909116178255602090920191600190910190613822565b506138639291506139db565b5090565b8280548282559060005260206000209081019282156138b4579160200282015b828111156138b457825180516138a49184916020909101906138fb565b5091602001919060010190613887565b506138639291506139f0565b828054828255906000526020600020908101928215613857579160200282015b828111156138575782518255916020019190600101906138e0565b8280546139079061439d565b90600052602060002090601f0160209004810192826139295760008555613857565b82601f1061394257805160ff1916838001178555613857565b8280016001018555821561385757918201828111156138575782518255916020019190600101906138e0565b60405180610140016040528060006001600160a01b0316815260200160008152602001600081526020016060815260200160608152602001606081526020016060815260200160608152602001600060048111156139ce576139ce613f84565b8152602001606081525090565b5b8082111561386357600081556001016139dc565b80821115613863576000613a048282613a0d565b506001016139f0565b508054613a199061439d565b6000825580601f10613a29575050565b601f01602090049060005260206000209081019061363f91906139db565b6020808252825182820181905260009190848201906040850190845b81811015613a7f57835183529284019291840191600101613a63565b50909695505050505050565b80356001600160a01b0381168114613aa257600080fd5b919050565b600060208284031215613ab957600080fd5b61314682613a8b565b6000815180845260005b81811015613ae857602081850181015186830182015201613acc565b81811115613afa576000602083870101525b50601f01601f19169290920160200192915050565b6020815260006131466020830184613ac2565b6000806000806000806000806000806101408b8d031215613b4257600080fd5b505088359a60208a01359a5060408a013599606081013599506080810135985060a0810135975060c0810135965060e081013595506101008101359450610120013592509050565b60008060408385031215613b9d57600080fd5b82359150613bad60208401613a8b565b90509250929050565b634e487b7160e01b600052604160045260246000fd5b601f8201601f1916810167ffffffffffffffff81118282101715613bf257613bf2613bb6565b6040525050565b600067ffffffffffffffff821115613c1357613c13613bb6565b5060051b60200190565b600082601f830112613c2e57600080fd5b81356020613c3b82613bf9565b604051613c488282613bcc565b83815260059390931b8501820192828101915086841115613c6857600080fd5b8286015b84811015613c8a57613c7d81613a8b565b8352918301918301613c6c565b509695505050505050565b600082601f830112613ca657600080fd5b813567ffffffffffffffff811115613cc057613cc0613bb6565b604051613cd7601f8301601f191660200182613bcc565b818152846020838601011115613cec57600080fd5b816020850160208301376000918101602001919091529392505050565b600082601f830112613d1a57600080fd5b81356020613d2782613bf9565b604051613d348282613bcc565b83815260059390931b8501820192828101915086841115613d5457600080fd5b8286015b84811015613c8a57803567ffffffffffffffff811115613d785760008081fd5b613d868986838b0101613c95565b845250918301918301613d58565b600082601f830112613da557600080fd5b81356020613db282613bf9565b604051613dbf8282613bcc565b83815260059390931b8501820192828101915086841115613ddf57600080fd5b8286015b84811015613c8a5780358352918301918301613de3565b60008060008060008060c08789031215613e1357600080fd5b863567ffffffffffffffff80821115613e2b57600080fd5b613e378a838b01613c1d565b97506020890135915080821115613e4d57600080fd5b613e598a838b01613d09565b96506040890135915080821115613e6f57600080fd5b613e7b8a838b01613d94565b9550606089013594506080890135915080821115613e9857600080fd5b613ea48a838b01613c95565b935060a0890135915080821115613eba57600080fd5b50613ec789828a01613c95565b9150509295509295509295565b600080600060608486031215613ee957600080fd5b505081359360208301359350604090920135919050565b600080600080600060a08688031215613f1857600080fd5b853594506020860135935060408601359250613f3660608701613a8b565b9150608086013567ffffffffffffffff811115613f5257600080fd5b613f5e88828901613c95565b9150509295509295909350565b600060208284031215613f7d57600080fd5b5035919050565b634e487b7160e01b600052602160045260246000fd5b60058110613fb857634e487b7160e01b600052602160045260246000fd5b9052565b60018060a01b038716815285602082015284604082015260c060608201526000613fe960c0830186613ac2565b8281036080840152613ffb8186613ac2565b91505061400b60a0830184613f9a565b979650505050505050565b600081518084526020808501945080840160005b8381101561404f5781516001600160a01b03168752958201959082019060010161402a565b509495945050505050565b600082825180855260208086019550808260051b84010181860160005b848110156140a557601f19868403018952614093838351613ac2565b98840198925090830190600101614077565b5090979650505050505050565b600081518084526020808501945080840160005b8381101561404f578151875295820195908201906001016140c6565b602081526140fc6020820183516001600160a01b03169052565b60208201516040820152604082015160608201526000606083015161014080608085015261412e610160850183614016565b91506080850151601f19808685030160a087015261414c848361405a565b935060a08701519150808685030160c087015261416984836140b2565b935060c08701519150808685030160e08701526141868483613ac2565b935060e087015191506101008187860301818801526141a58584613ac2565b9450808801519250506101206141bd81880184613f9a565b8701518685039091018387015290506141d683826140b2565b9695505050505050565b6000806000606084860312156141f557600080fd5b833567ffffffffffffffff8082111561420d57600080fd5b61421987838801613d94565b9450602086013591508082111561422f57600080fd5b61423b87838801613d94565b9350604086013591508082111561425157600080fd5b5061425e86828701613d94565b9150509250925092565b6020808252825182820181905260009190848201906040850190845b81811015613a7f578351151583529284019291840191600101614284565b600080600080600080600060e0888a0312156142bd57600080fd5b873596506142cd60208901613a8b565b955060408801359450606088013567ffffffffffffffff8111156142f057600080fd5b6142fc8a828b01613d94565b979a969950949760808101359660a0820135965060c090910135945092505050565b6000806000806080858703121561433457600080fd5b61433d85613a8b565b966020860135965060408601359560600135945092505050565b60008060006060848603121561436c57600080fd5b8335925060208401359150604084013567ffffffffffffffff81111561439157600080fd5b61425e86828701613d94565b600181811c908216806143b157607f821691505b602082108114156143d257634e487b7160e01b600052602260045260246000fd5b50919050565b6020808252602b908201527f45524332304775696c643a2050726f706f73616c20656e6465642c2063616e6e60408201526a1bdd081899481d9bdd195960aa1b606082015260800190565b60208082526026908201527f45524332304775696c643a20496e76616c696420766f74696e67506f77657220604082015265185b5bdd5b9d60d21b606082015260800190565b60208082526041908201527f45524332304775696c643a2043616e6e6f74206368616e6765206f7074696f6e60408201527f20766f7465642c206f6e6c7920696e63726561736520766f74696e67506f77656060820152603960f91b608082015260a00190565b634e487b7160e01b600052603260045260246000fd5b634e487b7160e01b600052601160045260246000fd5b6000600019821415614510576145106144e6565b5060010190565b600060033d11156145305760046000803e5060005160e01c5b90565b600060443d10156145415790565b6040516003193d81016004833e81513d67ffffffffffffffff816024840111818411171561457157505050505090565b82850191508151818111156145895750505050505090565b843d87010160208285010111156145a35750505050505090565b6145b260208286010187613bcc565b509095945050505050565b600080835481600182811c9150808316806145d957607f831692505b60208084108214156145f957634e487b7160e01b86526022600452602486fd5b81801561460d576001811461461e5761464b565b60ff1986168952848901965061464b565b60008a81526020902060005b868110156146435781548b82015290850190830161462a565b505084890196505b509498975050505050505050565b60006020828403121561466b57600080fd5b8151801515811461314657600080fd5b6000816000190483118215151615614695576146956144e6565b500290565b634e487b7160e01b600052601260045260246000fd5b6000826146bf576146bf61469a565b500490565b6000826146d3576146d361469a565b500690565b600082198211156146eb576146eb6144e6565b500190565b600082821015614702576147026144e6565b50039056fefee62a9eec0be50eb061c711990ef0f1e17b40ea131d9347b0468acdaf8bf243a26469706673582212208b63de13def4c549b3da39968b37c5adb4e552687c4b3508c0b0625f4e29ce0064736f6c63430008080033",
  "linkReferences": {},
  "deployedLinkReferences": {}
}