{
  "_format": "hh-sol-artifact-1",
  "contractName": "BaseERC20Guild",
  "sourceName": "dxdao-contracts/contracts/erc20guild/BaseERC20Guild.sol",
  "abi": [
    {
      "anonymous": false,
      "inputs": [
        {
          "indexed": true,
          "internalType": "bytes32",
          "name": "proposalId",
          "type": "bytes32"
        },
        {
          "indexed": false,
          "internalType": "uint256",
          "name": "newState",
          "type": "uint256"
        }
      ],
      "name": "ProposalStateChanged",
      "type": "event"
    },
    {
      "anonymous": false,
      "inputs": [
        {
          "indexed": false,
          "internalType": "address",
          "name": "voter",
          "type": "address"
        },
        {
          "indexed": false,
          "internalType": "uint256",
          "name": "value",
          "type": "uint256"
        }
      ],
      "name": "TokensLocked",
      "type": "event"
    },
    {
      "anonymous": false,
      "inputs": [
        {
          "indexed": false,
          "internalType": "address",
          "name": "voter",
          "type": "address"
        },
        {
          "indexed": false,
          "internalType": "uint256",
          "name": "value",
          "type": "uint256"
        }
      ],
      "name": "TokensWithdrawn",
      "type": "event"
    },
    {
      "anonymous": false,
      "inputs": [
        {
          "indexed": true,
          "internalType": "bytes32",
          "name": "proposalId",
          "type": "bytes32"
        },
        {
          "indexed": true,
          "internalType": "uint256",
          "name": "option",
          "type": "uint256"
        },
        {
          "indexed": false,
          "internalType": "address",
          "name": "voter",
          "type": "address"
        },
        {
          "indexed": false,
          "internalType": "uint256",
          "name": "votingPower",
          "type": "uint256"
        }
      ],
      "name": "VoteAdded",
      "type": "event"
    },
    {
      "stateMutability": "payable",
      "type": "fallback"
    },
    {
      "inputs": [],
      "name": "MAX_OPTIONS_PER_PROPOSAL",
      "outputs": [
        {
          "internalType": "uint8",
          "name": "",
          "type": "uint8"
        }
      ],
      "stateMutability": "view",
      "type": "function"
    },
    {
      "inputs": [],
      "name": "activeProposalsNow",
      "outputs": [
        {
          "internalType": "uint256",
          "name": "",
          "type": "uint256"
        }
      ],
      "stateMutability": "view",
      "type": "function"
    },
    {
      "inputs": [
        {
          "internalType": "address[]",
          "name": "to",
          "type": "address[]"
        },
        {
          "internalType": "bytes[]",
          "name": "data",
          "type": "bytes[]"
        },
        {
          "internalType": "uint256[]",
          "name": "value",
          "type": "uint256[]"
        },
        {
          "internalType": "uint256",
          "name": "totalOptions",
          "type": "uint256"
        },
        {
          "internalType": "string",
          "name": "title",
          "type": "string"
        },
        {
          "internalType": "string",
          "name": "contentHash",
          "type": "string"
        }
      ],
      "name": "createProposal",
      "outputs": [
        {
          "internalType": "bytes32",
          "name": "",
          "type": "bytes32"
        }
      ],
      "stateMutability": "nonpayable",
      "type": "function"
    },
    {
      "inputs": [
        {
          "internalType": "bytes32",
          "name": "proposalId",
          "type": "bytes32"
        }
      ],
      "name": "endProposal",
      "outputs": [],
      "stateMutability": "nonpayable",
      "type": "function"
    },
    {
      "inputs": [
        {
          "internalType": "bytes32",
          "name": "root",
          "type": "bytes32"
        },
        {
          "internalType": "address",
          "name": "voter",
          "type": "address"
        },
        {
          "internalType": "bytes32",
          "name": "voteHash",
          "type": "bytes32"
        },
        {
          "internalType": "bytes32[]",
          "name": "proof",
          "type": "bytes32[]"
        },
        {
          "internalType": "bytes32",
          "name": "proposalId",
          "type": "bytes32"
        },
        {
          "internalType": "uint256",
          "name": "option",
          "type": "uint256"
        },
        {
          "internalType": "uint256",
          "name": "votingPower",
          "type": "uint256"
        },
        {
          "internalType": "bytes",
          "name": "signature",
          "type": "bytes"
        }
      ],
      "name": "executeSignedVote",
      "outputs": [],
      "stateMutability": "nonpayable",
      "type": "function"
    },
    {
      "inputs": [
        {
          "internalType": "bytes32[]",
          "name": "roots",
          "type": "bytes32[]"
        },
        {
          "internalType": "address[]",
          "name": "voters",
          "type": "address[]"
        },
        {
          "internalType": "bytes32[]",
          "name": "votesHashes",
          "type": "bytes32[]"
        },
        {
          "internalType": "bytes32[][]",
          "name": "proofs",
          "type": "bytes32[][]"
        },
        {
          "internalType": "bytes32[]",
          "name": "proposalIds",
          "type": "bytes32[]"
        },
        {
          "internalType": "uint256[]",
          "name": "options",
          "type": "uint256[]"
        },
        {
          "internalType": "uint256[]",
          "name": "votingPowers",
          "type": "uint256[]"
        },
        {
          "internalType": "bytes[]",
          "name": "signatures",
          "type": "bytes[]"
        }
      ],
      "name": "executeSignedVotesBatches",
      "outputs": [],
      "stateMutability": "nonpayable",
      "type": "function"
    },
    {
      "inputs": [
        {
          "internalType": "bytes32[]",
          "name": "proposalIds",
          "type": "bytes32[]"
        },
        {
          "internalType": "uint256[]",
          "name": "options",
          "type": "uint256[]"
        },
        {
          "internalType": "uint256[]",
          "name": "votingPowers",
          "type": "uint256[]"
        }
      ],
      "name": "executeVotes",
      "outputs": [
        {
          "internalType": "bool[]",
          "name": "",
          "type": "bool[]"
        }
      ],
      "stateMutability": "nonpayable",
      "type": "function"
    },
    {
      "inputs": [],
      "name": "getActiveProposalsNow",
      "outputs": [
        {
          "internalType": "uint256",
          "name": "",
          "type": "uint256"
        }
      ],
      "stateMutability": "view",
      "type": "function"
    },
    {
      "inputs": [],
      "name": "getLockTime",
      "outputs": [
        {
          "internalType": "uint256",
          "name": "",
          "type": "uint256"
        }
      ],
      "stateMutability": "view",
      "type": "function"
    },
    {
      "inputs": [],
      "name": "getMaxActiveProposals",
      "outputs": [
        {
          "internalType": "uint256",
          "name": "",
          "type": "uint256"
        }
      ],
      "stateMutability": "view",
      "type": "function"
    },
    {
      "inputs": [],
      "name": "getMaxGasPrice",
      "outputs": [
        {
          "internalType": "uint256",
          "name": "",
          "type": "uint256"
        }
      ],
      "stateMutability": "view",
      "type": "function"
    },
    {
      "inputs": [],
      "name": "getMinimumMembersForProposalCreation",
      "outputs": [
        {
          "internalType": "uint256",
          "name": "",
          "type": "uint256"
        }
      ],
      "stateMutability": "view",
      "type": "function"
    },
    {
      "inputs": [],
      "name": "getMinimumTokensLockedForProposalCreation",
      "outputs": [
        {
          "internalType": "uint256",
          "name": "",
          "type": "uint256"
        }
      ],
      "stateMutability": "view",
      "type": "function"
    },
    {
      "inputs": [],
      "name": "getName",
      "outputs": [
        {
          "internalType": "string",
          "name": "",
          "type": "string"
        }
      ],
      "stateMutability": "view",
      "type": "function"
    },
    {
      "inputs": [],
      "name": "getPermissionRegistry",
      "outputs": [
        {
          "internalType": "address",
          "name": "",
          "type": "address"
        }
      ],
      "stateMutability": "view",
      "type": "function"
    },
    {
      "inputs": [
        {
          "internalType": "bytes32",
          "name": "proposalId",
          "type": "bytes32"
        }
      ],
      "name": "getProposal",
      "outputs": [
        {
          "components": [
            {
              "internalType": "address",
              "name": "creator",
              "type": "address"
            },
            {
              "internalType": "uint256",
              "name": "startTime",
              "type": "uint256"
            },
            {
              "internalType": "uint256",
              "name": "endTime",
              "type": "uint256"
            },
            {
              "internalType": "address[]",
              "name": "to",
              "type": "address[]"
            },
            {
              "internalType": "bytes[]",
              "name": "data",
              "type": "bytes[]"
            },
            {
              "internalType": "uint256[]",
              "name": "value",
              "type": "uint256[]"
            },
            {
              "internalType": "string",
              "name": "title",
              "type": "string"
            },
            {
              "internalType": "string",
              "name": "contentHash",
              "type": "string"
            },
            {
              "internalType": "enum BaseERC20Guild.ProposalState",
              "name": "state",
              "type": "uint8"
            },
            {
              "internalType": "uint256[]",
              "name": "totalVotes",
              "type": "uint256[]"
            }
          ],
          "internalType": "struct BaseERC20Guild.Proposal",
          "name": "",
          "type": "tuple"
        }
      ],
      "stateMutability": "view",
      "type": "function"
    },
    {
      "inputs": [],
      "name": "getProposalTime",
      "outputs": [
        {
          "internalType": "uint256",
          "name": "",
          "type": "uint256"
        }
      ],
      "stateMutability": "view",
      "type": "function"
    },
    {
      "inputs": [
        {
          "internalType": "bytes32",
          "name": "proposalId",
          "type": "bytes32"
        },
        {
          "internalType": "address",
          "name": "voter",
          "type": "address"
        }
      ],
      "name": "getProposalVotesOfVoter",
      "outputs": [
        {
          "internalType": "uint256",
          "name": "option",
          "type": "uint256"
        },
        {
          "internalType": "uint256",
          "name": "votingPower",
          "type": "uint256"
        }
      ],
      "stateMutability": "view",
      "type": "function"
    },
    {
      "inputs": [],
      "name": "getProposalsIds",
      "outputs": [
        {
          "internalType": "bytes32[]",
          "name": "",
          "type": "bytes32[]"
        }
      ],
      "stateMutability": "view",
      "type": "function"
    },
    {
      "inputs": [],
      "name": "getProposalsIdsLength",
      "outputs": [
        {
          "internalType": "uint256",
          "name": "",
          "type": "uint256"
        }
      ],
      "stateMutability": "view",
      "type": "function"
    },
    {
      "inputs": [
        {
          "internalType": "bytes32",
          "name": "signedVoteHash",
          "type": "bytes32"
        }
      ],
      "name": "getSignedVote",
      "outputs": [
        {
          "internalType": "bool",
          "name": "",
          "type": "bool"
        }
      ],
      "stateMutability": "view",
      "type": "function"
    },
    {
      "inputs": [],
      "name": "getTimeForExecution",
      "outputs": [
        {
          "internalType": "uint256",
          "name": "",
          "type": "uint256"
        }
      ],
      "stateMutability": "view",
      "type": "function"
    },
    {
      "inputs": [],
      "name": "getToken",
      "outputs": [
        {
          "internalType": "address",
          "name": "",
          "type": "address"
        }
      ],
      "stateMutability": "view",
      "type": "function"
    },
    {
      "inputs": [],
      "name": "getTokenVault",
      "outputs": [
        {
          "internalType": "address",
          "name": "",
          "type": "address"
        }
      ],
      "stateMutability": "view",
      "type": "function"
    },
    {
      "inputs": [],
      "name": "getTotalLocked",
      "outputs": [
        {
          "internalType": "uint256",
          "name": "",
          "type": "uint256"
        }
      ],
      "stateMutability": "view",
      "type": "function"
    },
    {
      "inputs": [],
      "name": "getTotalMembers",
      "outputs": [
        {
          "internalType": "uint256",
          "name": "",
          "type": "uint256"
        }
      ],
      "stateMutability": "view",
      "type": "function"
    },
    {
      "inputs": [],
      "name": "getTotalProposals",
      "outputs": [
        {
          "internalType": "uint256",
          "name": "",
          "type": "uint256"
        }
      ],
      "stateMutability": "view",
      "type": "function"
    },
    {
      "inputs": [],
      "name": "getVoteGas",
      "outputs": [
        {
          "internalType": "uint256",
          "name": "",
          "type": "uint256"
        }
      ],
      "stateMutability": "view",
      "type": "function"
    },
    {
      "inputs": [
        {
          "internalType": "address",
          "name": "voter",
          "type": "address"
        }
      ],
      "name": "getVoterLockTimestamp",
      "outputs": [
        {
          "internalType": "uint256",
          "name": "",
          "type": "uint256"
        }
      ],
      "stateMutability": "view",
      "type": "function"
    },
    {
      "inputs": [],
      "name": "getVotingPowerForProposalCreation",
      "outputs": [
        {
          "internalType": "uint256",
          "name": "",
          "type": "uint256"
        }
      ],
      "stateMutability": "view",
      "type": "function"
    },
    {
      "inputs": [],
      "name": "getVotingPowerForProposalExecution",
      "outputs": [
        {
          "internalType": "uint256",
          "name": "",
          "type": "uint256"
        }
      ],
      "stateMutability": "view",
      "type": "function"
    },
    {
      "inputs": [
        {
          "internalType": "address",
          "name": "voter",
          "type": "address"
        },
        {
          "internalType": "bytes32",
          "name": "proposalId",
          "type": "bytes32"
        },
        {
          "internalType": "uint256",
          "name": "option",
          "type": "uint256"
        },
        {
          "internalType": "uint256",
          "name": "votingPower",
          "type": "uint256"
        }
      ],
      "name": "hashVote",
      "outputs": [
        {
          "internalType": "bytes32",
          "name": "",
          "type": "bytes32"
        }
      ],
      "stateMutability": "pure",
      "type": "function"
    },
    {
      "inputs": [],
      "name": "lockTime",
      "outputs": [
        {
          "internalType": "uint256",
          "name": "",
          "type": "uint256"
        }
      ],
      "stateMutability": "view",
      "type": "function"
    },
    {
      "inputs": [
        {
          "internalType": "uint256",
          "name": "tokenAmount",
          "type": "uint256"
        }
      ],
      "name": "lockTokens",
      "outputs": [],
      "stateMutability": "nonpayable",
      "type": "function"
    },
    {
      "inputs": [],
      "name": "maxActiveProposals",
      "outputs": [
        {
          "internalType": "uint256",
          "name": "",
          "type": "uint256"
        }
      ],
      "stateMutability": "view",
      "type": "function"
    },
    {
      "inputs": [],
      "name": "maxGasPrice",
      "outputs": [
        {
          "internalType": "uint256",
          "name": "",
          "type": "uint256"
        }
      ],
      "stateMutability": "view",
      "type": "function"
    },
    {
      "inputs": [],
      "name": "minimumMembersForProposalCreation",
      "outputs": [
        {
          "internalType": "uint256",
          "name": "",
          "type": "uint256"
        }
      ],
      "stateMutability": "view",
      "type": "function"
    },
    {
      "inputs": [],
      "name": "minimumTokensLockedForProposalCreation",
      "outputs": [
        {
          "internalType": "uint256",
          "name": "",
          "type": "uint256"
        }
      ],
      "stateMutability": "view",
      "type": "function"
    },
    {
      "inputs": [],
      "name": "name",
      "outputs": [
        {
          "internalType": "string",
          "name": "",
          "type": "string"
        }
      ],
      "stateMutability": "view",
      "type": "function"
    },
    {
      "inputs": [],
      "name": "proposalTime",
      "outputs": [
        {
          "internalType": "uint256",
          "name": "",
          "type": "uint256"
        }
      ],
      "stateMutability": "view",
      "type": "function"
    },
    {
      "inputs": [
        {
          "internalType": "bytes32",
          "name": "",
          "type": "bytes32"
        },
        {
          "internalType": "address",
          "name": "",
          "type": "address"
        }
      ],
      "name": "proposalVotes",
      "outputs": [
        {
          "internalType": "uint256",
          "name": "option",
          "type": "uint256"
        },
        {
          "internalType": "uint256",
          "name": "votingPower",
          "type": "uint256"
        }
      ],
      "stateMutability": "view",
      "type": "function"
    },
    {
      "inputs": [
        {
          "internalType": "bytes32",
          "name": "",
          "type": "bytes32"
        }
      ],
      "name": "proposals",
      "outputs": [
        {
          "internalType": "address",
          "name": "creator",
          "type": "address"
        },
        {
          "internalType": "uint256",
          "name": "startTime",
          "type": "uint256"
        },
        {
          "internalType": "uint256",
          "name": "endTime",
          "type": "uint256"
        },
        {
          "internalType": "string",
          "name": "title",
          "type": "string"
        },
        {
          "internalType": "string",
          "name": "contentHash",
          "type": "string"
        },
        {
          "internalType": "enum BaseERC20Guild.ProposalState",
          "name": "state",
          "type": "uint8"
        }
      ],
      "stateMutability": "view",
      "type": "function"
    },
    {
      "inputs": [
        {
          "internalType": "uint256",
          "name": "",
          "type": "uint256"
        }
      ],
      "name": "proposalsIds",
      "outputs": [
        {
          "internalType": "bytes32",
          "name": "",
          "type": "bytes32"
        }
      ],
      "stateMutability": "view",
      "type": "function"
    },
    {
      "inputs": [
        {
          "internalType": "uint256",
          "name": "_proposalTime",
          "type": "uint256"
        },
        {
          "internalType": "uint256",
          "name": "_timeForExecution",
          "type": "uint256"
        },
        {
          "internalType": "uint256",
          "name": "_votingPowerPercentageForProposalExecution",
          "type": "uint256"
        },
        {
          "internalType": "uint256",
          "name": "_votingPowerPercentageForProposalCreation",
          "type": "uint256"
        },
        {
          "internalType": "uint256",
          "name": "_voteGas",
          "type": "uint256"
        },
        {
          "internalType": "uint256",
          "name": "_maxGasPrice",
          "type": "uint256"
        },
        {
          "internalType": "uint256",
          "name": "_maxActiveProposals",
          "type": "uint256"
        },
        {
          "internalType": "uint256",
          "name": "_lockTime",
          "type": "uint256"
        },
        {
          "internalType": "uint256",
          "name": "_minimumMembersForProposalCreation",
          "type": "uint256"
        },
        {
          "internalType": "uint256",
          "name": "_minimumTokensLockedForProposalCreation",
          "type": "uint256"
        }
      ],
      "name": "setConfig",
      "outputs": [],
      "stateMutability": "nonpayable",
      "type": "function"
    },
    {
      "inputs": [
        {
          "internalType": "bytes32",
          "name": "proposalId",
          "type": "bytes32"
        },
        {
          "internalType": "uint256",
          "name": "option",
          "type": "uint256"
        },
        {
          "internalType": "uint256",
          "name": "votingPower",
          "type": "uint256"
        },
        {
          "internalType": "address",
          "name": "voter",
          "type": "address"
        },
        {
          "internalType": "bytes",
          "name": "signature",
          "type": "bytes"
        }
      ],
      "name": "setSignedVote",
      "outputs": [],
      "stateMutability": "nonpayable",
      "type": "function"
    },
    {
      "inputs": [
        {
          "internalType": "bytes32",
          "name": "proposalId",
          "type": "bytes32"
        },
        {
          "internalType": "uint256",
          "name": "option",
          "type": "uint256"
        },
        {
          "internalType": "uint256",
          "name": "votingPower",
          "type": "uint256"
        }
      ],
      "name": "setVote",
      "outputs": [],
      "stateMutability": "nonpayable",
      "type": "function"
    },
    {
      "inputs": [
        {
          "internalType": "bytes32",
          "name": "",
          "type": "bytes32"
        }
      ],
      "name": "signedVotes",
      "outputs": [
        {
          "internalType": "bool",
          "name": "",
          "type": "bool"
        }
      ],
      "stateMutability": "view",
      "type": "function"
    },
    {
      "inputs": [],
      "name": "timeForExecution",
      "outputs": [
        {
          "internalType": "uint256",
          "name": "",
          "type": "uint256"
        }
      ],
      "stateMutability": "view",
      "type": "function"
    },
    {
      "inputs": [],
      "name": "token",
      "outputs": [
        {
          "internalType": "contract IERC20Upgradeable",
          "name": "",
          "type": "address"
        }
      ],
      "stateMutability": "view",
      "type": "function"
    },
    {
      "inputs": [],
      "name": "tokenVault",
      "outputs": [
        {
          "internalType": "contract TokenVault",
          "name": "",
          "type": "address"
        }
      ],
      "stateMutability": "view",
      "type": "function"
    },
    {
      "inputs": [
        {
          "internalType": "address",
          "name": "",
          "type": "address"
        }
      ],
      "name": "tokensLocked",
      "outputs": [
        {
          "internalType": "uint256",
          "name": "amount",
          "type": "uint256"
        },
        {
          "internalType": "uint256",
          "name": "timestamp",
          "type": "uint256"
        }
      ],
      "stateMutability": "view",
      "type": "function"
    },
    {
      "inputs": [],
      "name": "totalLocked",
      "outputs": [
        {
          "internalType": "uint256",
          "name": "",
          "type": "uint256"
        }
      ],
      "stateMutability": "view",
      "type": "function"
    },
    {
      "inputs": [],
      "name": "totalProposals",
      "outputs": [
        {
          "internalType": "uint256",
          "name": "",
          "type": "uint256"
        }
      ],
      "stateMutability": "view",
      "type": "function"
    },
    {
      "inputs": [
        {
          "internalType": "bytes32",
          "name": "root",
          "type": "bytes32"
        },
        {
          "internalType": "bytes32",
          "name": "voteHash",
          "type": "bytes32"
        },
        {
          "internalType": "bytes32[]",
          "name": "proof",
          "type": "bytes32[]"
        }
      ],
      "name": "validateMerkleTreeLeaf",
      "outputs": [
        {
          "internalType": "bool",
          "name": "",
          "type": "bool"
        }
      ],
      "stateMutability": "nonpayable",
      "type": "function"
    },
    {
      "inputs": [],
      "name": "voteGas",
      "outputs": [
        {
          "internalType": "uint256",
          "name": "",
          "type": "uint256"
        }
      ],
      "stateMutability": "view",
      "type": "function"
    },
    {
      "inputs": [
        {
          "internalType": "address",
          "name": "account",
          "type": "address"
        }
      ],
      "name": "votingPowerOf",
      "outputs": [
        {
          "internalType": "uint256",
          "name": "",
          "type": "uint256"
        }
      ],
      "stateMutability": "view",
      "type": "function"
    },
    {
      "inputs": [],
      "name": "votingPowerPercentageForProposalCreation",
      "outputs": [
        {
          "internalType": "uint256",
          "name": "",
          "type": "uint256"
        }
      ],
      "stateMutability": "view",
      "type": "function"
    },
    {
      "inputs": [],
      "name": "votingPowerPercentageForProposalExecution",
      "outputs": [
        {
          "internalType": "uint256",
          "name": "",
          "type": "uint256"
        }
      ],
      "stateMutability": "view",
      "type": "function"
    },
    {
      "inputs": [
        {
          "internalType": "uint256",
          "name": "tokenAmount",
          "type": "uint256"
        }
      ],
      "name": "withdrawTokens",
      "outputs": [],
      "stateMutability": "nonpayable",
      "type": "function"
    }
  ],
  "bytecode": "0x608060405234801561001057600080fd5b50614af3806100206000396000f3fe60806040526004361061035e5760003560e01c806364fe6ed2116101c4578063ae619234116100f6578063c93e01e31161009a578063f4732da61161006c578063f4732da614610a1a578063f98606a714610a2f578063fc0c546a14610a45578063fc4e703f14610a6557005b8063c93e01e31461099a578063e0450353146109af578063e158080a146109c5578063f0995198146109db57005b8063b3b47061116100d3578063b3b4706114610930578063b7c15f8d14610950578063bcc3f3bd14610965578063c0a4d64d1461098557005b8063ae619234146108db578063afd22c40146108f0578063b3929aaa1461091057005b80638ddaae9e11610168578063a78d80fc1161013a578063a78d80fc1461087a578063a7aeb55714610890578063ab6ea06b146108a6578063ad6c1e34146108c657005b80638ddaae9e146108075780638f1803051461082757806392b716541461083c578063a16fe3421461085c57005b80636e27d889116101a15780636e27d8891461078d57806377027ff4146107ad5780638029eff1146107c257806389c98c06146107f257005b806364fe6ed214610736578063671abed71461074b5780636c8b72f61461077857005b80632467ef941161029d5780633bf353fb1161024157806354f2f7af1161021357806354f2f7af146106cc57806356891412146106ea5780635bc789d9146107005780635e508c2c1461072057005b80633bf353fb1461065d5780633de39c11146106735780633f10cf1514610689578063430694cf1461069f57005b80632d757c3e1161027a5780632d757c3e146105925780632fd99c00146105cb578063315a095d1461060b57806332ed5b121461062b57005b80632467ef941461053657806325c069fc1461054b5780632d5b17de1461057257005b806313108d7411610304578063184a0ae9116102e1578063184a0ae9146104c45780631a5007dd146104da57806321df0da7146104ef5780632229a0e21461052157005b806313108d741461046f57806316bbecde1461048f57806317d7de7c146104af57005b80630a366a631161033d5780630a366a63146103f65780630d66808714610419578063123f6d671461042f578063130485fe1461044f57005b80623a40d01461036057806301a598a61461038b57806306fdde03146103d4575b005b34801561036c57600080fd5b50610375610a7b565b6040516103829190613c08565b60405180910390f35b34801561039757600080fd5b506103bf6103a6366004613c68565b6012602052600090815260409020805460019091015482565b60408051928352602083019190915201610382565b3480156103e057600080fd5b506103e9610ad3565b6040516103829190613cd0565b34801561040257600080fd5b5061040b610b61565b604051908152602001610382565b34801561042557600080fd5b5061040b600d5481565b34801561043b57600080fd5b5061035e61044a366004613ce3565b610b89565b34801561045b57600080fd5b506103bf61046a366004613d4b565b610e0a565b34801561047b57600080fd5b5061040b61048a366004613fb7565b610e3c565b34801561049b57600080fd5b5061035e6104aa366004614090565b6113f1565b3480156104bb57600080fd5b506103e9611527565b3480156104d057600080fd5b5061040b60035481565b3480156104e657600080fd5b50600a5461040b565b3480156104fb57600080fd5b506000546001600160a01b03165b6040516001600160a01b039091168152602001610382565b34801561052d57600080fd5b5060165461040b565b34801561054257600080fd5b50600c5461040b565b34801561055757600080fd5b50610560600a81565b60405160ff9091168152602001610382565b34801561057e57600080fd5b5061035e61058d3660046140bc565b6115b0565b34801561059e57600080fd5b5061040b6105ad366004613c68565b6001600160a01b031660009081526012602052604090206001015490565b3480156105d757600080fd5b506105fb6105e6366004614126565b60136020526000908152604090205460ff1681565b6040519015158152602001610382565b34801561061757600080fd5b5061035e610626366004614126565b611809565b34801561063757600080fd5b5061064b610646366004614126565b611a51565b60405161038296959493929190614177565b34801561066957600080fd5b5061040b600c5481565b34801561067f57600080fd5b5061040b60085481565b34801561069557600080fd5b5061040b60045481565b3480156106ab57600080fd5b506106bf6106ba366004614126565b611ba5565b604051610382919061429a565b3480156106d857600080fd5b506011546001600160a01b0316610509565b3480156106f657600080fd5b5061040b600e5481565b34801561070c57600080fd5b50601154610509906001600160a01b031681565b34801561072c57600080fd5b5061040b60055481565b34801561074257600080fd5b5060105461040b565b34801561075757600080fd5b5061076b610766366004614398565b611f30565b604051610382919061441f565b34801561078457600080fd5b5060075461040b565b34801561079957600080fd5b5061035e6107a8366004614126565b612357565b3480156107b957600080fd5b5060095461040b565b3480156107ce57600080fd5b506105fb6107dd366004614126565b60009081526013602052604090205460ff1690565b3480156107fe57600080fd5b5060085461040b565b34801561081357600080fd5b5061035e6108223660046144e3565b6124d7565b34801561083357600080fd5b50600b5461040b565b34801561084857600080fd5b5061040b610857366004614622565b6125d8565b34801561086857600080fd5b506001546001600160a01b0316610509565b34801561088657600080fd5b5061040b600a5481565b34801561089c57600080fd5b5061040b600f5481565b3480156108b257600080fd5b506105fb6108c136600461465b565b61262f565b3480156108d257600080fd5b50600f5461040b565b3480156108e757600080fd5b5061040b612644565b3480156108fc57600080fd5b5061035e61090b3660046146a0565b61265b565b34801561091c57600080fd5b5061040b61092b366004614126565b612996565b34801561093c57600080fd5b5061035e61094b366004614126565b6129b7565b34801561095c57600080fd5b5060045461040b565b34801561097157600080fd5b5061040b610980366004613c68565b61328d565b34801561099157600080fd5b50600d5461040b565b3480156109a657600080fd5b5060035461040b565b3480156109bb57600080fd5b5061040b60095481565b3480156109d157600080fd5b5061040b60105481565b3480156109e757600080fd5b506103bf6109f6366004613d4b565b60146020908152600092835260408084209091529082529020805460019091015482565b348015610a2657600080fd5b50600e5461040b565b348015610a3b57600080fd5b5061040b60065481565b348015610a5157600080fd5b50600054610509906001600160a01b031681565b348015610a7157600080fd5b5061040b60075481565b60606016805480602002602001604051908101604052809291908181526020018280548015610ac957602002820191906000526020600020905b815481526020019060010190808311610ab5575b5050505050905090565b60028054610ae090614734565b80601f0160208091040260200160405190810160405280929190818152602001828054610b0c90614734565b8015610b595780601f10610b2e57610100808354040283529160200191610b59565b820191906000526020600020905b815481529060010190602001808311610b3c57829003601f168201915b505050505081565b6000610b84612710610b7e600654610b78600e5490565b906132a8565b906132bb565b905090565b333014610c0e5760405162461bcd60e51b815260206004820152604260248201527f45524332304775696c643a204f6e6c792063616c6c61626c652062792045524360448201527f32306775696c6420697473656c66206f72207768656e20696e697469616c697a606482015261195960f21b608482015260a4015b60405180910390fd5b60008a11610c765760405162461bcd60e51b815260206004820152602f60248201527f45524332304775696c643a2070726f706f73616c2074696d652068617320746f60448201526e0206265206d6f7265207468616e203608c1b6064820152608401610c05565b89831015610cec5760405162461bcd60e51b815260206004820152603e60248201527f45524332304775696c643a206c6f636b54696d652068617320746f206265206860448201527f6967686572206f7220657175616c20746f2070726f706f73616c54696d6500006064820152608401610c05565b60008811610d625760405162461bcd60e51b815260206004820152603c60248201527f45524332304775696c643a20766f74696e6720706f77657220666f722065786560448201527f637574696f6e2068617320746f206265206d6f7265207468616e2030000000006064820152608401610c05565b6201c908861115610ddb5760405162461bcd60e51b815260206004820152603960248201527f45524332304775696c643a20766f7465206761732068617320746f206265206560448201527f7175616c206f72206c6f776572207468616e20313137303030000000000000006064820152608401610c05565b600399909955600497909755600595909555600693909355600791909155600855600955600d55600f55601055565b60008281526014602090815260408083206001600160a01b0385168452909152902080546001909101545b9250929050565b6000601054600e541015610eb85760405162461bcd60e51b815260206004820152603960248201527f45524332304775696c643a204e6f7420656e6f75676820746f6b656e73206c6f60448201527f636b656420746f2063726561746520612070726f706f73616c000000000000006064820152608401610c05565b600f54600b541015610f285760405162461bcd60e51b815260206004820152603360248201527f45524332304775696c643a204e6f7420656e6f756768206d656d6265727320746044820152721bc818dc99585d194818481c1c9bdc1bdcd85b606a1b6064820152608401610c05565b600954600c5410610f9a5760405162461bcd60e51b815260206004820152603660248201527f45524332304775696c643a204d6178696d756d20616d6f756e74206f662061636044820152751d1a5d99481c1c9bdc1bdcd85b1cc81c995858da195960521b6064820152608401610c05565b610fa2610b61565b610fab3361328d565b10156110175760405162461bcd60e51b815260206004820152603560248201527f45524332304775696c643a204e6f7420656e6f75676820766f74696e67506f77604482015274195c881d1bc818dc99585d19481c1c9bdc1bdcd85b605a1b6064820152608401610c05565b85518751148015611029575084518751145b6110925760405162461bcd60e51b815260206004820152603460248201527f45524332304775696c643a2057726f6e67206c656e677468206f6620746f2c2060448201527364617461206f722076616c75652061727261797360601b6064820152608401610c05565b60008751116110fd5760405162461bcd60e51b815260206004820152603160248201527f45524332304775696c643a20746f2c20646174612076616c7565206172726179604482015270732063616e6e6f7420626520656d70747960781b6064820152608401610c05565b865184111580156111175750845161111590856132c7565b155b6111895760405162461bcd60e51b815260206004820152603760248201527f45524332304775696c643a20496e76616c696420746f74616c4f7074696f6e7360448201527f206f72206f7074696f6e2063616c6c73206c656e6774680000000000000000006064820152608401610c05565b600a8411156112005760405162461bcd60e51b815260206004820152603a60248201527f45524332304775696c643a204d6178696d756d20616d6f756e74206f66206f7060448201527f74696f6e73207065722070726f706f73616c20726561636865640000000000006064820152608401610c05565b600a546040516bffffffffffffffffffffffff193360601b16602082015242603482015260548101919091526000906074016040516020818303038152906040528051906020012090506112606001600a546132d390919063ffffffff16565b600a55600081815260156020526040902080546001600160a01b03191633178155426001820181905560035461129691906132d3565b600282015588516112b090600383019060208c01906139c3565b5087516112c690600483019060208b0190613a28565b5086516112dc90600583019060208a0190613a81565b5084516112f29060068301906020880190613abc565b5083516113089060078301906020870190613abc565b506113148660016132d3565b6001600160401b0381111561132b5761132b613d77565b604051908082528060200260200182016040528015611354578160200160208202803683370190505b50805161136b916009840191602090910190613a81565b5060088101805460ff19166001908117909155600c5461138a916132d3565b600c5581600080516020614a9e833981519152600160405190815260200160405180910390a250601680546001810182556000919091527fd833147d7dc355ba459fc788f669e58cfaf9dc25ddcd0702e87d69c7b512428901819055979650505050505050565b60008381526015602052604090206002015442106114215760405162461bcd60e51b8152600401610c059061476f565b8061142b3361328d565b101580156114545750600083815260146020908152604080832033845290915290206001015481115b6114705760405162461bcd60e51b8152600401610c05906147ba565b60008381526014602090815260408083203384529091529020541580156114b157506000838152601460209081526040808320338452909152902060010154155b806114fa57506000838152601460209081526040808320338452909152902054821480156114fa5750600083815260146020908152604080832033845290915290206001015481115b6115165760405162461bcd60e51b8152600401610c0590614800565b611522338484846132df565b505050565b60606002805461153690614734565b80601f016020809104026020016040519081016040528092919081815260200182805461156290614734565b8015610ac95780601f1061158457610100808354040283529160200191610ac9565b820191906000526020600020905b81548152906001019060200180831161159257509395945050505050565b60008581526015602052604090206002015442106115e05760405162461bcd60e51b8152600401610c059061476f565b60006115ee838787876125d8565b60008181526013602052604090205490915060ff161561164c5760405162461bcd60e51b8152602060048201526019602482015278115490cc8c11dd5a5b190e88105b1c9958591e481d9bdd1959603a1b6044820152606401610c05565b61165f8261165983613529565b9061357c565b6001600160a01b0316836001600160a01b0316146116ba5760405162461bcd60e51b815260206004820152601860248201527722a921991823bab4b6321d102bb937b7339039b4b3b732b960411b6044820152606401610c05565b6000818152601360205260409020805460ff19166001179055836116dd8461328d565b1015801561170f575060008681526014602090815260408083206001600160a01b038716845290915290206001015484115b61172b5760405162461bcd60e51b8152600401610c05906147ba565b60008681526014602090815260408083206001600160a01b038716845290915290205415801561177e575060008681526014602090815260408083206001600160a01b0387168452909152902060010154155b806117d9575060008681526014602090815260408083206001600160a01b0387168452909152902054851480156117d9575060008681526014602090815260408083206001600160a01b038716845290915290206001015484115b6117f55760405162461bcd60e51b8152600401610c0590614800565b611801838787876132df565b505050505050565b806118133361328d565b10156118805760405162461bcd60e51b815260206004820152603660248201527f45524332304775696c643a20556e61626c6520746f207769746864726177206d6044820152751bdc99481d1bdad95b9cc81d1a185b881b1bd8dad95960521b6064820152608401610c05565b3360009081526012602052604090206001015442116118e15760405162461bcd60e51b815260206004820152601f60248201527f45524332304775696c643a20546f6b656e73207374696c6c206c6f636b6564006044820152606401610c05565b600081116119575760405162461bcd60e51b815260206004820152603f60248201527f45524332304775696c643a20616d6f756e74206f6620746f6b656e7320746f2060448201527f7769746864726177206d7573742062652067726561746572207468616e2030006064820152608401610c05565b3360009081526012602052604090205461197190826135a0565b33600090815260126020526040902055600e5461198e90826135a0565b600e5560115460405163f3fef3a360e01b8152336004820152602481018390526001600160a01b039091169063f3fef3a390604401600060405180830381600087803b1580156119dd57600080fd5b505af11580156119f1573d6000803e3d6000fd5b505050506119fe3361328d565b611a1457600b54611a109060016135a0565b600b555b60408051338152602081018390527f6352c5382c4a4578e712449ca65e83cdb392d045dfcf1cad9615189db2da244b91015b60405180910390a150565b60156020526000908152604090208054600182015460028301546006840180546001600160a01b03909416949293919291611a8b90614734565b80601f0160208091040260200160405190810160405280929190818152602001828054611ab790614734565b8015611b045780601f10611ad957610100808354040283529160200191611b04565b820191906000526020600020905b815481529060010190602001808311611ae757829003601f168201915b505050505090806007018054611b1990614734565b80601f0160208091040260200160405190810160405280929190818152602001828054611b4590614734565b8015611b925780601f10611b6757610100808354040283529160200191611b92565b820191906000526020600020905b815481529060010190602001808311611b7557829003601f168201915b5050506008909301549192505060ff1686565b611bad613b2f565b60008281526015602090815260409182902082516101408101845281546001600160a01b031681526001820154818401526002820154818501526003820180548551818602810186019096528086529194929360608601939290830182828015611c4057602002820191906000526020600020905b81546001600160a01b03168152600190910190602001808311611c22575b5050505050815260200160048201805480602002602001604051908101604052809291908181526020016000905b82821015611d1a578382906000526020600020018054611c8d90614734565b80601f0160208091040260200160405190810160405280929190818152602001828054611cb990614734565b8015611d065780601f10611cdb57610100808354040283529160200191611d06565b820191906000526020600020905b815481529060010190602001808311611ce957829003601f168201915b505050505081526020019060010190611c6e565b50505050815260200160058201805480602002602001604051908101604052809291908181526020018280548015611d7157602002820191906000526020600020905b815481526020019060010190808311611d5d575b50505050508152602001600682018054611d8a90614734565b80601f0160208091040260200160405190810160405280929190818152602001828054611db690614734565b8015611e035780601f10611dd857610100808354040283529160200191611e03565b820191906000526020600020905b815481529060010190602001808311611de657829003601f168201915b50505050508152602001600782018054611e1c90614734565b80601f0160208091040260200160405190810160405280929190818152602001828054611e4890614734565b8015611e955780601f10611e6a57610100808354040283529160200191611e95565b820191906000526020600020905b815481529060010190602001808311611e7857829003601f168201915b5050509183525050600882015460209091019060ff166004811115611ebc57611ebc61413f565b6004811115611ecd57611ecd61413f565b815260200160098201805480602002602001604051908101604052809291908181526020018280548015611f2057602002820191906000526020600020905b815481526020019060010190808311611f0c575b5050505050815250509050919050565b606082518451148015611f44575081518351145b611fb65760405162461bcd60e51b815260206004820152603f60248201527f45524332304775696c643a20496e76616c69642070726f706f73616c4964732c60448201527f206f7074696f6e73206f7220766f74696e67506f77657273206c656e677468006064820152608401610c05565b60008085516001600160401b03811115611fd257611fd2613d77565b604051908082528060200260200182016040528015611ffb578160200160208202803683370190505b509050600091505b855182101561234e57426015600088858151811061202357612023614867565b6020026020010151815260200190815260200160002060020154101561206c57600081838151811061205757612057614867565b9115156020928302919091019091015261233c565b83828151811061207e5761207e614867565b602002602001015161208f3361328d565b10806121055750601460008784815181106120ac576120ac614867565b602002602001015181526020019081526020016000206000336001600160a01b03166001600160a01b03168152602001908152602001600020600101548483815181106120fb576120fb614867565b6020026020010151105b1561211e57600081838151811061205757612057614867565b6014600087848151811061213457612134614867565b6020908102919091018101518252818101929092526040908101600090812033825290925290205415806121ba57506014600087848151811061217957612179614867565b602002602001015181526020019081526020016000206000336001600160a01b03166001600160a01b03168152602001908152602001600020600101546000145b80156122a657508482815181106121d3576121d3614867565b6020026020010151601460008885815181106121f1576121f1614867565b602002602001015181526020019081526020016000206000336001600160a01b03166001600160a01b0316815260200190815260200160002060000154141580156122a6575083828151811061224957612249614867565b60200260200101516014600088858151811061226757612267614867565b602002602001015181526020019081526020016000206000336001600160a01b03166001600160a01b0316815260200190815260200160002060010154115b156122bf57600081838151811061205757612057614867565b60018183815181106122d3576122d3614867565b60200260200101901515908115158152505061233c338784815181106122fb576122fb614867565b602002602001015187858151811061231557612315614867565b602002602001015187868151811061232f5761232f614867565b60200260200101516132df565b8161234681614893565b925050612003565b95945050505050565b600081116123c25760405162461bcd60e51b815260206004820152603260248201527f45524332304775696c643a20546f6b656e7320746f206c6f636b2073686f756c60448201527106420626520686967686572207468616e20360741b6064820152608401610c05565b6123cb3361328d565b6123e157600b546123dd9060016132d3565b600b555b6011546040516311f9fbc960e21b8152336004820152602481018390526001600160a01b03909116906347e7ef2490604401600060405180830381600087803b15801561242d57600080fd5b505af1158015612441573d6000803e3d6000fd5b50503360009081526012602052604090205461246092509050826132d3565b33600090815260126020526040902055600d5461247e9042906132d3565b33600090815260126020526040902060010155600e5461249e90826132d3565b600e5560408051338152602081018390527fac87f20a77d28ee8bbb58ec87ea8fa968b3393efae1a368fd50b767c2847391c9101611a46565b60005b88518110156125cd576125bb8982815181106124f8576124f8614867565b602002602001015189838151811061251257612512614867565b602002602001015189848151811061252c5761252c614867565b602002602001015189858151811061254657612546614867565b602002602001015189868151811061256057612560614867565b602002602001015189878151811061257a5761257a614867565b602002602001015189888151811061259457612594614867565b60200260200101518989815181106125ae576125ae614867565b602002602001015161265b565b806125c581614893565b9150506124da565b505050505050505050565b6040516bffffffffffffffffffffffff19606086901b166020820152603481018490526054810183905260748101829052600090609401604051602081830303815290604052805190602001209050949350505050565b600061263c8285856135ac565b949350505050565b6000610b84612710610b7e600554610b78600e5490565b6000612669888686866125d8565b90508681146126ba5760405162461bcd60e51b815260206004820152601d60248201527f45524332304775696c643a20496e76616c696420766f746520686173680000006044820152606401610c05565b60008181526013602052604090205460ff16156127155760405162461bcd60e51b8152602060048201526019602482015278115490cc8c11dd5a5b190e88105b1c9958591e481d9bdd1959603a1b6044820152606401610c05565b60008960405160200161272a91815260200190565b60405160208183030381529060405280519060200120905061274f8361165983613529565b6001600160a01b0316896001600160a01b0316146127aa5760405162461bcd60e51b815260206004820152601860248201527722a921991823bab4b6321d102bb937b7339039b4b3b732b960411b6044820152606401610c05565b60006127b78b8a8a61262f565b9050806128125760405162461bcd60e51b8152602060048201526024808201527f45524332304775696c643a20496e76616c6964206d65726b6c652074726565206044820152633632b0b360e11b6064820152608401610c05565b60008781526015602052604090206002015442106128425760405162461bcd60e51b8152600401610c059061476f565b8461284c8b61328d565b1015801561287e575060008781526014602090815260408083206001600160a01b038e16845290915290206001015485115b61289a5760405162461bcd60e51b8152600401610c05906147ba565b60008781526014602090815260408083206001600160a01b038e1684529091529020541580156128ed575060008781526014602090815260408083206001600160a01b038e168452909152902060010154155b80612948575060008781526014602090815260408083206001600160a01b038e16845290915290205486148015612948575060008781526014602090815260408083206001600160a01b038e16845290915290206001015485115b6129645760405162461bcd60e51b8152600401610c0590614800565b6000838152601360205260409020805460ff191660011790556129898a8888886132df565b5050505050505050505050565b601681815481106129a657600080fd5b600091825260209091200154905081565b60175460ff1615612a165760405162461bcd60e51b8152602060048201526024808201527f45524332304775696c643a2050726f706f73616c20756e6465722065786563756044820152633a34b7b760e11b6064820152608401610c05565b600160008281526015602052604090206008015460ff166004811115612a3e57612a3e61413f565b14612a995760405162461bcd60e51b815260206004820152602560248201527f45524332304775696c643a2050726f706f73616c20616c72656164792065786560448201526418dd5d195960da1b6064820152608401610c05565b6000818152601560205260409020600201544211612b075760405162461bcd60e51b815260206004820152602560248201527f45524332304775696c643a2050726f706f73616c206861736e277420656e646560448201526419081e595d60da1b6064820152608401610c05565b600081815260156020526040812060090180548291908290612b2b57612b2b614867565b600091825260209091200154905060015b600084815260156020526040902060090154811015612c5557612b5d612644565b6000858152601560205260409020600901805483908110612b8057612b80614867565b906000526020600020015410158015612bc857506000848152601560205260409020600901805483919083908110612bba57612bba614867565b906000526020600020015410155b15612c43576000848152601560205260409020600901805483919083908110612bf357612bf3614867565b90600052602060002001541415612c0d5760009250612c43565b60008481526015602052604090206009018054919350839182908110612c3557612c35614867565b906000526020600020015491505b80612c4d81614893565b915050612b3c565b82612ca2576000848152601560205260409020600801805460ff191660029081179091558490600080516020614a9e833981519152905b60405190815260200160405180910390a2613276565b6004546000858152601560205260409020600201544291612cc391906132d3565b1015612cff576000848152601560205260409020600801805460ff191660049081179091558490600080516020614a9e83398151915290612c8c565b600084815260156020526040812060088101805460ff1916600317905560090154612d4790612d2f9060016135a0565b600087815260156020526040902060030154906132bb565b9050612d5e612d578560016135a0565b82906132a8565b91506000612d6c83836132d3565b9050600160009054906101000a90046001600160a01b03166001600160a01b0316633e7a47b26040518163ffffffff1660e01b8152600401600060405180830381600087803b158015612dbe57600080fd5b505af1158015612dd2573d6000803e3d6000fd5b505050505b808310156131d2576000868152601560205260408120600301805485908110612e0257612e02614867565b6000918252602090912001546001600160a01b031614801590612e5c57506000868152601560205260408120600401805485908110612e4357612e43614867565b906000526020600020018054612e5890614734565b9050115b156131c0576000868152601560205260408120600401805485908110612e8457612e84614867565b906000526020600020018054612e9990614734565b80601f0160208091040260200160405190810160405280929190818152602001828054612ec590614734565b8015612f125780601f10612ee757610100808354040283529160200191612f12565b820191906000526020600020905b815481529060010190602001808311612ef557829003601f168201915b50505060208084015160015460008d815260159093526040909220600301805495965090946001600160a01b03909216935063eed470339250309189908110612f5d57612f5d614867565b9060005260206000200160009054906101000a90046001600160a01b031684601560008e81526020019081526020016000206005018a81548110612fa357612fa3614867565b60009182526020909120015460405160e086901b6001600160e01b031990811682526001600160a01b039586166004830152939094166024850152911660448301526064820152608401600060405180830381600087803b15801561300757600080fd5b505af1925050508015613018575060015b61306a576130246148ae565b806308c379a0141561305e57506130396148ca565b806130445750613060565b8060405162461bcd60e51b8152600401610c059190613cd0565b505b3d6000803e3d6000fd5b6017805460ff19166001179055600088815260156020526040812060030180548790811061309a5761309a614867565b60009182526020808320909101548b83526015909152604090912060050180546001600160a01b0390921691889081106130d6576130d6614867565b9060005260206000200154601560008c8152602001908152602001600020600401888154811061310857613108614867565b9060005260206000200160405161311f9190614953565b60006040518083038185875af1925050503d806000811461315c576040519150601f19603f3d011682016040523d82523d6000602084013e613161565b606091505b50509050806131b25760405162461bcd60e51b815260206004820181905260248201527f45524332304775696c643a2050726f706f73616c2063616c6c206661696c65646044820152606401610c05565b50506017805460ff19169055505b826131ca81614893565b935050612dd7565b60015460405163fb0fde8560e01b81523060048201526001600160a01b039091169063fb0fde8590602401602060405180830381600087803b15801561321757600080fd5b505af115801561322b573d6000803e3d6000fd5b505050506040513d601f19601f8201168201806040525081019061324f91906149ef565b5085600080516020614a9e833981519152600360405190815260200160405180910390a250505b600c546132849060016135a0565b600c5550505050565b6001600160a01b031660009081526012602052604090205490565b60006132b48284614a11565b9392505050565b60006132b48284614a46565b60006132b48284614a5a565b60006132b48284614a6e565b60008381526014602090815260408083206001600160a01b03881684528252808320600101548684526015909252909120600901805461334e928492613348928790811061332f5761332f614867565b90600052602060002001546135a090919063ffffffff16565b906132d3565b600084815260156020526040902060090180548490811061337157613371614867565b60009182526020808320909101929092558481526014825260408082206001600160a01b03881683528352808220858155600101849055858252601590925220600201546133d7856001600160a01b031660009081526012602052604090206001015490565b101561340b576000838152601560209081526040808320600201546001600160a01b03881684526012909252909120600101555b604080516001600160a01b038616815260208101839052839185917f583c62f152711bcb1ca6186c1065821ff17a7cbe226dcb559a1c889dcf0d769b910160405180910390a36007541561352357600061347c6134736008543a6135c290919063ffffffff16565b600754906132a8565b905080471015801561348d5750333b155b1561352157604051600090339083908381818185875af1925050503d80600081146134d4576040519150601f19603f3d011682016040523d82523d6000602084013e6134d9565b606091505b50509050806118015760405162461bcd60e51b81526020600482015260146024820152734661696c656420746f20726566756e642067617360601b6044820152606401610c05565b505b50505050565b6040517f19457468657265756d205369676e6564204d6573736167653a0a3332000000006020820152603c8101829052600090605c01604051602081830303815290604052805190602001209050919050565b600080600061358b85856135d8565b9150915061359881613645565b509392505050565b60006132b48284614a86565b6000826135b98584613803565b14949350505050565b60008183106135d157816132b4565b5090919050565b60008082516041141561360f5760208301516040840151606085015160001a613603878285856138a7565b94509450505050610e35565b825160401415613639576020830151604084015161362e868383613994565b935093505050610e35565b50600090506002610e35565b60008160048111156136595761365961413f565b14156136625750565b60018160048111156136765761367661413f565b14156136c45760405162461bcd60e51b815260206004820152601860248201527f45434453413a20696e76616c6964207369676e617475726500000000000000006044820152606401610c05565b60028160048111156136d8576136d861413f565b14156137265760405162461bcd60e51b815260206004820152601f60248201527f45434453413a20696e76616c6964207369676e6174757265206c656e677468006044820152606401610c05565b600381600481111561373a5761373a61413f565b14156137935760405162461bcd60e51b815260206004820152602260248201527f45434453413a20696e76616c6964207369676e6174757265202773272076616c604482015261756560f01b6064820152608401610c05565b60048160048111156137a7576137a761413f565b14156138005760405162461bcd60e51b815260206004820152602260248201527f45434453413a20696e76616c6964207369676e6174757265202776272076616c604482015261756560f01b6064820152608401610c05565b50565b600081815b845181101561359857600085828151811061382557613825614867565b60200260200101519050808311613867576040805160208101859052908101829052606001604051602081830303815290604052805190602001209250613894565b60408051602081018390529081018490526060016040516020818303038152906040528051906020012092505b508061389f81614893565b915050613808565b6000807f7fffffffffffffffffffffffffffffff5d576e7357a4501ddfe92f46681b20a08311156138de575060009050600361398b565b8460ff16601b141580156138f657508460ff16601c14155b15613907575060009050600461398b565b6040805160008082526020820180845289905260ff881692820192909252606081018690526080810185905260019060a0016020604051602081039080840390855afa15801561395b573d6000803e3d6000fd5b5050604051601f1901519150506001600160a01b0381166139845760006001925092505061398b565b9150600090505b94509492505050565b6000806001600160ff1b03831660ff84901c601b016139b5878288856138a7565b935093505050935093915050565b828054828255906000526020600020908101928215613a18579160200282015b82811115613a1857825182546001600160a01b0319166001600160a01b039091161782556020909201916001909101906139e3565b50613a24929150613b9c565b5090565b828054828255906000526020600020908101928215613a75579160200282015b82811115613a755782518051613a65918491602090910190613abc565b5091602001919060010190613a48565b50613a24929150613bb1565b828054828255906000526020600020908101928215613a18579160200282015b82811115613a18578251825591602001919060010190613aa1565b828054613ac890614734565b90600052602060002090601f016020900481019282613aea5760008555613a18565b82601f10613b0357805160ff1916838001178555613a18565b82800160010185558215613a185791820182811115613a18578251825591602001919060010190613aa1565b60405180610140016040528060006001600160a01b031681526020016000815260200160008152602001606081526020016060815260200160608152602001606081526020016060815260200160006004811115613b8f57613b8f61413f565b8152602001606081525090565b5b80821115613a245760008155600101613b9d565b80821115613a24576000613bc58282613bce565b50600101613bb1565b508054613bda90614734565b6000825580601f10613bea575050565b601f0160209004906000526020600020908101906138009190613b9c565b6020808252825182820181905260009190848201906040850190845b81811015613c4057835183529284019291840191600101613c24565b50909695505050505050565b80356001600160a01b0381168114613c6357600080fd5b919050565b600060208284031215613c7a57600080fd5b6132b482613c4c565b6000815180845260005b81811015613ca957602081850181015186830182015201613c8d565b81811115613cbb576000602083870101525b50601f01601f19169290920160200192915050565b6020815260006132b46020830184613c83565b6000806000806000806000806000806101408b8d031215613d0357600080fd5b505088359a60208a01359a5060408a013599606081013599506080810135985060a0810135975060c0810135965060e081013595506101008101359450610120013592509050565b60008060408385031215613d5e57600080fd5b82359150613d6e60208401613c4c565b90509250929050565b634e487b7160e01b600052604160045260246000fd5b601f8201601f191681016001600160401b0381118282101715613db257613db2613d77565b6040525050565b60006001600160401b03821115613dd257613dd2613d77565b5060051b60200190565b600082601f830112613ded57600080fd5b81356020613dfa82613db9565b604051613e078282613d8d565b83815260059390931b8501820192828101915086841115613e2757600080fd5b8286015b84811015613e4957613e3c81613c4c565b8352918301918301613e2b565b509695505050505050565b600082601f830112613e6557600080fd5b81356001600160401b03811115613e7e57613e7e613d77565b604051613e95601f8301601f191660200182613d8d565b818152846020838601011115613eaa57600080fd5b816020850160208301376000918101602001919091529392505050565b600082601f830112613ed857600080fd5b81356020613ee582613db9565b604051613ef28282613d8d565b83815260059390931b8501820192828101915086841115613f1257600080fd5b8286015b84811015613e495780356001600160401b03811115613f355760008081fd5b613f438986838b0101613e54565b845250918301918301613f16565b600082601f830112613f6257600080fd5b81356020613f6f82613db9565b604051613f7c8282613d8d565b83815260059390931b8501820192828101915086841115613f9c57600080fd5b8286015b84811015613e495780358352918301918301613fa0565b60008060008060008060c08789031215613fd057600080fd5b86356001600160401b0380821115613fe757600080fd5b613ff38a838b01613ddc565b9750602089013591508082111561400957600080fd5b6140158a838b01613ec7565b9650604089013591508082111561402b57600080fd5b6140378a838b01613f51565b955060608901359450608089013591508082111561405457600080fd5b6140608a838b01613e54565b935060a089013591508082111561407657600080fd5b5061408389828a01613e54565b9150509295509295509295565b6000806000606084860312156140a557600080fd5b505081359360208301359350604090920135919050565b600080600080600060a086880312156140d457600080fd5b8535945060208601359350604086013592506140f260608701613c4c565b915060808601356001600160401b0381111561410d57600080fd5b61411988828901613e54565b9150509295509295909350565b60006020828403121561413857600080fd5b5035919050565b634e487b7160e01b600052602160045260246000fd5b6005811061417357634e487b7160e01b600052602160045260246000fd5b9052565b60018060a01b038716815285602082015284604082015260c0606082015260006141a460c0830186613c83565b82810360808401526141b68186613c83565b9150506141c660a0830184614155565b979650505050505050565b600081518084526020808501945080840160005b8381101561420a5781516001600160a01b0316875295820195908201906001016141e5565b509495945050505050565b600081518084526020808501808196508360051b8101915082860160005b8581101561425d57828403895261424b848351613c83565b98850198935090840190600101614233565b5091979650505050505050565b600081518084526020808501945080840160005b8381101561420a5781518752958201959082019060010161427e565b602081526142b46020820183516001600160a01b03169052565b6020820151604082015260408201516060820152600060608301516101408060808501526142e66101608501836141d1565b91506080850151601f19808685030160a08701526143048483614215565b935060a08701519150808685030160c0870152614321848361426a565b935060c08701519150808685030160e087015261433e8483613c83565b935060e0870151915061010081878603018188015261435d8584613c83565b94508088015192505061012061437581880184614155565b87015186850390910183870152905061438e838261426a565b9695505050505050565b6000806000606084860312156143ad57600080fd5b83356001600160401b03808211156143c457600080fd5b6143d087838801613f51565b945060208601359150808211156143e657600080fd5b6143f287838801613f51565b9350604086013591508082111561440857600080fd5b5061441586828701613f51565b9150509250925092565b6020808252825182820181905260009190848201906040850190845b81811015613c4057835115158352928401929184019160010161443b565b600082601f83011261446a57600080fd5b8135602061447782613db9565b6040516144848282613d8d565b83815260059390931b85018201928281019150868411156144a457600080fd5b8286015b84811015613e495780356001600160401b038111156144c75760008081fd5b6144d58986838b0101613f51565b8452509183019183016144a8565b600080600080600080600080610100898b03121561450057600080fd5b88356001600160401b038082111561451757600080fd5b6145238c838d01613f51565b995060208b013591508082111561453957600080fd5b6145458c838d01613ddc565b985060408b013591508082111561455b57600080fd5b6145678c838d01613f51565b975060608b013591508082111561457d57600080fd5b6145898c838d01614459565b965060808b013591508082111561459f57600080fd5b6145ab8c838d01613f51565b955060a08b01359150808211156145c157600080fd5b6145cd8c838d01613f51565b945060c08b01359150808211156145e357600080fd5b6145ef8c838d01613f51565b935060e08b013591508082111561460557600080fd5b506146128b828c01613ec7565b9150509295985092959890939650565b6000806000806080858703121561463857600080fd5b61464185613c4c565b966020860135965060408601359560600135945092505050565b60008060006060848603121561467057600080fd5b833592506020840135915060408401356001600160401b0381111561469457600080fd5b61441586828701613f51565b600080600080600080600080610100898b0312156146bd57600080fd5b883597506146cd60208a01613c4c565b96506040890135955060608901356001600160401b03808211156146f057600080fd5b6146fc8c838d01613f51565b965060808b0135955060a08b0135945060c08b0135935060e08b013591508082111561472757600080fd5b506146128b828c01613e54565b600181811c9082168061474857607f821691505b6020821081141561476957634e487b7160e01b600052602260045260246000fd5b50919050565b6020808252602b908201527f45524332304775696c643a2050726f706f73616c20656e6465642c2063616e6e60408201526a1bdd081899481d9bdd195960aa1b606082015260800190565b60208082526026908201527f45524332304775696c643a20496e76616c696420766f74696e67506f77657220604082015265185b5bdd5b9d60d21b606082015260800190565b60208082526041908201527f45524332304775696c643a2043616e6e6f74206368616e6765206f7074696f6e60408201527f20766f7465642c206f6e6c7920696e63726561736520766f74696e67506f77656060820152603960f91b608082015260a00190565b634e487b7160e01b600052603260045260246000fd5b634e487b7160e01b600052601160045260246000fd5b60006000198214156148a7576148a761487d565b5060010190565b600060033d11156148c75760046000803e5060005160e01c5b90565b600060443d10156148d85790565b6040516003193d81016004833e81513d6001600160401b03816024840111818411171561490757505050505090565b828501915081518181111561491f5750505050505090565b843d87010160208285010111156149395750505050505090565b61494860208286010187613d8d565b509095945050505050565b600080835481600182811c91508083168061496f57607f831692505b602080841082141561498f57634e487b7160e01b86526022600452602486fd5b8180156149a357600181146149b4576149e1565b60ff198616895284890196506149e1565b60008a81526020902060005b868110156149d95781548b8201529085019083016149c0565b505084890196505b509498975050505050505050565b600060208284031215614a0157600080fd5b815180151581146132b457600080fd5b6000816000190483118215151615614a2b57614a2b61487d565b500290565b634e487b7160e01b600052601260045260246000fd5b600082614a5557614a55614a30565b500490565b600082614a6957614a69614a30565b500690565b60008219821115614a8157614a8161487d565b500190565b600082821015614a9857614a9861487d565b50039056fefee62a9eec0be50eb061c711990ef0f1e17b40ea131d9347b0468acdaf8bf243a264697066735822122006335674aa4c053ade848ae0f19e59f1d1d4b9869dcf5b32bd204e384a7dd2ef64736f6c63430008080033",
  "linkReferences": {},
  "deployedLinkReferences": {}
}