{
  "_format": "hh-sol-artifact-1",
  "contractName": "DXDGuild",
  "sourceName": "dxdao-contracts/contracts/erc20guild/implementations/DXDGuild.sol",
  "abi": [
    {
      "anonymous": false,
      "inputs": [
        {
          "indexed": true,
          "internalType": "address",
          "name": "previousOwner",
          "type": "address"
        },
        {
          "indexed": true,
          "internalType": "address",
          "name": "newOwner",
          "type": "address"
        }
      ],
      "name": "OwnershipTransferred",
      "type": "event"
    },
    {
      "anonymous": false,
      "inputs": [
        {
          "indexed": true,
          "internalType": "bytes32",
          "name": "proposalId",
          "type": "bytes32"
        },
        {
          "indexed": false,
          "internalType": "uint256",
          "name": "newState",
          "type": "uint256"
        }
      ],
      "name": "ProposalStateChanged",
      "type": "event"
    },
    {
      "anonymous": false,
      "inputs": [
        {
          "indexed": false,
          "internalType": "address",
          "name": "voter",
          "type": "address"
        },
        {
          "indexed": false,
          "internalType": "uint256",
          "name": "value",
          "type": "uint256"
        }
      ],
      "name": "TokensLocked",
      "type": "event"
    },
    {
      "anonymous": false,
      "inputs": [
        {
          "indexed": false,
          "internalType": "address",
          "name": "voter",
          "type": "address"
        },
        {
          "indexed": false,
          "internalType": "uint256",
          "name": "value",
          "type": "uint256"
        }
      ],
      "name": "TokensWithdrawn",
      "type": "event"
    },
    {
      "anonymous": false,
      "inputs": [
        {
          "indexed": true,
          "internalType": "bytes32",
          "name": "proposalId",
          "type": "bytes32"
        },
        {
          "indexed": true,
          "internalType": "uint256",
          "name": "option",
          "type": "uint256"
        },
        {
          "indexed": false,
          "internalType": "address",
          "name": "voter",
          "type": "address"
        },
        {
          "indexed": false,
          "internalType": "uint256",
          "name": "votingPower",
          "type": "uint256"
        }
      ],
      "name": "VoteAdded",
      "type": "event"
    },
    {
      "stateMutability": "payable",
      "type": "fallback"
    },
    {
      "inputs": [],
      "name": "MAX_OPTIONS_PER_PROPOSAL",
      "outputs": [
        {
          "internalType": "uint8",
          "name": "",
          "type": "uint8"
        }
      ],
      "stateMutability": "view",
      "type": "function"
    },
    {
      "inputs": [],
      "name": "activeProposalsNow",
      "outputs": [
        {
          "internalType": "uint256",
          "name": "",
          "type": "uint256"
        }
      ],
      "stateMutability": "view",
      "type": "function"
    },
    {
      "inputs": [
        {
          "internalType": "address[]",
          "name": "to",
          "type": "address[]"
        },
        {
          "internalType": "bytes[]",
          "name": "data",
          "type": "bytes[]"
        },
        {
          "internalType": "uint256[]",
          "name": "value",
          "type": "uint256[]"
        },
        {
          "internalType": "uint256",
          "name": "totalOptions",
          "type": "uint256"
        },
        {
          "internalType": "string",
          "name": "title",
          "type": "string"
        },
        {
          "internalType": "string",
          "name": "contentHash",
          "type": "string"
        }
      ],
      "name": "createProposal",
      "outputs": [
        {
          "internalType": "bytes32",
          "name": "",
          "type": "bytes32"
        }
      ],
      "stateMutability": "nonpayable",
      "type": "function"
    },
    {
      "inputs": [
        {
          "internalType": "bytes32",
          "name": "proposalId",
          "type": "bytes32"
        }
      ],
      "name": "endProposal",
      "outputs": [],
      "stateMutability": "nonpayable",
      "type": "function"
    },
    {
      "inputs": [
        {
          "internalType": "bytes32",
          "name": "root",
          "type": "bytes32"
        },
        {
          "internalType": "address",
          "name": "voter",
          "type": "address"
        },
        {
          "internalType": "bytes32",
          "name": "voteHash",
          "type": "bytes32"
        },
        {
          "internalType": "bytes32[]",
          "name": "proof",
          "type": "bytes32[]"
        },
        {
          "internalType": "bytes32",
          "name": "proposalId",
          "type": "bytes32"
        },
        {
          "internalType": "uint256",
          "name": "option",
          "type": "uint256"
        },
        {
          "internalType": "uint256",
          "name": "votingPower",
          "type": "uint256"
        }
      ],
      "name": "executeSignedVote",
      "outputs": [],
      "stateMutability": "nonpayable",
      "type": "function"
    },
    {
      "inputs": [
        {
          "internalType": "bytes32[]",
          "name": "proposalIds",
          "type": "bytes32[]"
        },
        {
          "internalType": "uint256[]",
          "name": "options",
          "type": "uint256[]"
        },
        {
          "internalType": "uint256[]",
          "name": "votingPowers",
          "type": "uint256[]"
        }
      ],
      "name": "executeVotes",
      "outputs": [
        {
          "internalType": "bool[]",
          "name": "",
          "type": "bool[]"
        }
      ],
      "stateMutability": "nonpayable",
      "type": "function"
    },
    {
      "inputs": [],
      "name": "getActiveProposalsNow",
      "outputs": [
        {
          "internalType": "uint256",
          "name": "",
          "type": "uint256"
        }
      ],
      "stateMutability": "view",
      "type": "function"
    },
    {
      "inputs": [],
      "name": "getLockTime",
      "outputs": [
        {
          "internalType": "uint256",
          "name": "",
          "type": "uint256"
        }
      ],
      "stateMutability": "view",
      "type": "function"
    },
    {
      "inputs": [],
      "name": "getMaxActiveProposals",
      "outputs": [
        {
          "internalType": "uint256",
          "name": "",
          "type": "uint256"
        }
      ],
      "stateMutability": "view",
      "type": "function"
    },
    {
      "inputs": [],
      "name": "getMaxGasPrice",
      "outputs": [
        {
          "internalType": "uint256",
          "name": "",
          "type": "uint256"
        }
      ],
      "stateMutability": "view",
      "type": "function"
    },
    {
      "inputs": [],
      "name": "getMinimumMembersForProposalCreation",
      "outputs": [
        {
          "internalType": "uint256",
          "name": "",
          "type": "uint256"
        }
      ],
      "stateMutability": "view",
      "type": "function"
    },
    {
      "inputs": [],
      "name": "getMinimumTokensLockedForProposalCreation",
      "outputs": [
        {
          "internalType": "uint256",
          "name": "",
          "type": "uint256"
        }
      ],
      "stateMutability": "view",
      "type": "function"
    },
    {
      "inputs": [],
      "name": "getName",
      "outputs": [
        {
          "internalType": "string",
          "name": "",
          "type": "string"
        }
      ],
      "stateMutability": "view",
      "type": "function"
    },
    {
      "inputs": [],
      "name": "getPermissionRegistry",
      "outputs": [
        {
          "internalType": "address",
          "name": "",
          "type": "address"
        }
      ],
      "stateMutability": "view",
      "type": "function"
    },
    {
      "inputs": [
        {
          "internalType": "bytes32",
          "name": "proposalId",
          "type": "bytes32"
        }
      ],
      "name": "getProposal",
      "outputs": [
        {
          "components": [
            {
              "internalType": "address",
              "name": "creator",
              "type": "address"
            },
            {
              "internalType": "uint256",
              "name": "startTime",
              "type": "uint256"
            },
            {
              "internalType": "uint256",
              "name": "endTime",
              "type": "uint256"
            },
            {
              "internalType": "address[]",
              "name": "to",
              "type": "address[]"
            },
            {
              "internalType": "bytes[]",
              "name": "data",
              "type": "bytes[]"
            },
            {
              "internalType": "uint256[]",
              "name": "value",
              "type": "uint256[]"
            },
            {
              "internalType": "string",
              "name": "title",
              "type": "string"
            },
            {
              "internalType": "string",
              "name": "contentHash",
              "type": "string"
            },
            {
              "internalType": "enum BaseERC20Guild.ProposalState",
              "name": "state",
              "type": "uint8"
            },
            {
              "internalType": "uint256[]",
              "name": "totalVotes",
              "type": "uint256[]"
            }
          ],
          "internalType": "struct BaseERC20Guild.Proposal",
          "name": "",
          "type": "tuple"
        }
      ],
      "stateMutability": "view",
      "type": "function"
    },
    {
      "inputs": [],
      "name": "getProposalTime",
      "outputs": [
        {
          "internalType": "uint256",
          "name": "",
          "type": "uint256"
        }
      ],
      "stateMutability": "view",
      "type": "function"
    },
    {
      "inputs": [
        {
          "internalType": "bytes32",
          "name": "proposalId",
          "type": "bytes32"
        },
        {
          "internalType": "address",
          "name": "voter",
          "type": "address"
        }
      ],
      "name": "getProposalVotesOfVoter",
      "outputs": [
        {
          "internalType": "uint256",
          "name": "option",
          "type": "uint256"
        },
        {
          "internalType": "uint256",
          "name": "votingPower",
          "type": "uint256"
        }
      ],
      "stateMutability": "view",
      "type": "function"
    },
    {
      "inputs": [],
      "name": "getProposalsIds",
      "outputs": [
        {
          "internalType": "bytes32[]",
          "name": "",
          "type": "bytes32[]"
        }
      ],
      "stateMutability": "view",
      "type": "function"
    },
    {
      "inputs": [],
      "name": "getProposalsIdsLength",
      "outputs": [
        {
          "internalType": "uint256",
          "name": "",
          "type": "uint256"
        }
      ],
      "stateMutability": "view",
      "type": "function"
    },
    {
      "inputs": [
        {
          "internalType": "bytes32",
          "name": "signedVoteHash",
          "type": "bytes32"
        }
      ],
      "name": "getSignedVote",
      "outputs": [
        {
          "internalType": "bool",
          "name": "",
          "type": "bool"
        }
      ],
      "stateMutability": "view",
      "type": "function"
    },
    {
      "inputs": [],
      "name": "getTimeForExecution",
      "outputs": [
        {
          "internalType": "uint256",
          "name": "",
          "type": "uint256"
        }
      ],
      "stateMutability": "view",
      "type": "function"
    },
    {
      "inputs": [],
      "name": "getToken",
      "outputs": [
        {
          "internalType": "address",
          "name": "",
          "type": "address"
        }
      ],
      "stateMutability": "view",
      "type": "function"
    },
    {
      "inputs": [],
      "name": "getTokenVault",
      "outputs": [
        {
          "internalType": "address",
          "name": "",
          "type": "address"
        }
      ],
      "stateMutability": "view",
      "type": "function"
    },
    {
      "inputs": [],
      "name": "getTotalLocked",
      "outputs": [
        {
          "internalType": "uint256",
          "name": "",
          "type": "uint256"
        }
      ],
      "stateMutability": "view",
      "type": "function"
    },
    {
      "inputs": [],
      "name": "getTotalMembers",
      "outputs": [
        {
          "internalType": "uint256",
          "name": "",
          "type": "uint256"
        }
      ],
      "stateMutability": "view",
      "type": "function"
    },
    {
      "inputs": [],
      "name": "getTotalProposals",
      "outputs": [
        {
          "internalType": "uint256",
          "name": "",
          "type": "uint256"
        }
      ],
      "stateMutability": "view",
      "type": "function"
    },
    {
      "inputs": [],
      "name": "getVoteGas",
      "outputs": [
        {
          "internalType": "uint256",
          "name": "",
          "type": "uint256"
        }
      ],
      "stateMutability": "view",
      "type": "function"
    },
    {
      "inputs": [
        {
          "internalType": "address",
          "name": "voter",
          "type": "address"
        }
      ],
      "name": "getVoterLockTimestamp",
      "outputs": [
        {
          "internalType": "uint256",
          "name": "",
          "type": "uint256"
        }
      ],
      "stateMutability": "view",
      "type": "function"
    },
    {
      "inputs": [],
      "name": "getVotingPowerForProposalCreation",
      "outputs": [
        {
          "internalType": "uint256",
          "name": "",
          "type": "uint256"
        }
      ],
      "stateMutability": "view",
      "type": "function"
    },
    {
      "inputs": [],
      "name": "getVotingPowerForProposalExecution",
      "outputs": [
        {
          "internalType": "uint256",
          "name": "",
          "type": "uint256"
        }
      ],
      "stateMutability": "view",
      "type": "function"
    },
    {
      "inputs": [
        {
          "internalType": "address",
          "name": "voter",
          "type": "address"
        },
        {
          "internalType": "bytes32",
          "name": "proposalId",
          "type": "bytes32"
        },
        {
          "internalType": "uint256",
          "name": "option",
          "type": "uint256"
        },
        {
          "internalType": "uint256",
          "name": "votingPower",
          "type": "uint256"
        }
      ],
      "name": "hashVote",
      "outputs": [
        {
          "internalType": "bytes32",
          "name": "",
          "type": "bytes32"
        }
      ],
      "stateMutability": "pure",
      "type": "function"
    },
    {
      "inputs": [
        {
          "internalType": "address",
          "name": "_token",
          "type": "address"
        },
        {
          "internalType": "uint256",
          "name": "_proposalTime",
          "type": "uint256"
        },
        {
          "internalType": "uint256",
          "name": "_timeForExecution",
          "type": "uint256"
        },
        {
          "internalType": "uint256",
          "name": "_votingPowerPercentageForProposalExecution",
          "type": "uint256"
        },
        {
          "internalType": "uint256",
          "name": "_votingPowerPercentageForProposalCreation",
          "type": "uint256"
        },
        {
          "internalType": "uint256",
          "name": "_voteGas",
          "type": "uint256"
        },
        {
          "internalType": "uint256",
          "name": "_maxGasPrice",
          "type": "uint256"
        },
        {
          "internalType": "uint256",
          "name": "_maxActiveProposals",
          "type": "uint256"
        },
        {
          "internalType": "uint256",
          "name": "_lockTime",
          "type": "uint256"
        },
        {
          "internalType": "address",
          "name": "_permissionRegistry",
          "type": "address"
        },
        {
          "internalType": "address",
          "name": "_votingMachine",
          "type": "address"
        }
      ],
      "name": "initialize",
      "outputs": [],
      "stateMutability": "nonpayable",
      "type": "function"
    },
    {
      "inputs": [
        {
          "internalType": "address",
          "name": "_token",
          "type": "address"
        },
        {
          "internalType": "uint256",
          "name": "_proposalTime",
          "type": "uint256"
        },
        {
          "internalType": "uint256",
          "name": "_timeForExecution",
          "type": "uint256"
        },
        {
          "internalType": "uint256",
          "name": "_votingPowerPercentageForProposalExecution",
          "type": "uint256"
        },
        {
          "internalType": "uint256",
          "name": "_votingPowerPercentageForProposalCreation",
          "type": "uint256"
        },
        {
          "internalType": "string",
          "name": "_name",
          "type": "string"
        },
        {
          "internalType": "uint256",
          "name": "_voteGas",
          "type": "uint256"
        },
        {
          "internalType": "uint256",
          "name": "_maxGasPrice",
          "type": "uint256"
        },
        {
          "internalType": "uint256",
          "name": "_maxActiveProposals",
          "type": "uint256"
        },
        {
          "internalType": "uint256",
          "name": "_lockTime",
          "type": "uint256"
        },
        {
          "internalType": "address",
          "name": "_permissionRegistry",
          "type": "address"
        }
      ],
      "name": "initialize",
      "outputs": [],
      "stateMutability": "nonpayable",
      "type": "function"
    },
    {
      "inputs": [],
      "name": "lockTime",
      "outputs": [
        {
          "internalType": "uint256",
          "name": "",
          "type": "uint256"
        }
      ],
      "stateMutability": "view",
      "type": "function"
    },
    {
      "inputs": [
        {
          "internalType": "uint256",
          "name": "tokenAmount",
          "type": "uint256"
        }
      ],
      "name": "lockTokens",
      "outputs": [],
      "stateMutability": "nonpayable",
      "type": "function"
    },
    {
      "inputs": [],
      "name": "maxActiveProposals",
      "outputs": [
        {
          "internalType": "uint256",
          "name": "",
          "type": "uint256"
        }
      ],
      "stateMutability": "view",
      "type": "function"
    },
    {
      "inputs": [],
      "name": "maxGasPrice",
      "outputs": [
        {
          "internalType": "uint256",
          "name": "",
          "type": "uint256"
        }
      ],
      "stateMutability": "view",
      "type": "function"
    },
    {
      "inputs": [],
      "name": "minimumMembersForProposalCreation",
      "outputs": [
        {
          "internalType": "uint256",
          "name": "",
          "type": "uint256"
        }
      ],
      "stateMutability": "view",
      "type": "function"
    },
    {
      "inputs": [],
      "name": "minimumTokensLockedForProposalCreation",
      "outputs": [
        {
          "internalType": "uint256",
          "name": "",
          "type": "uint256"
        }
      ],
      "stateMutability": "view",
      "type": "function"
    },
    {
      "inputs": [],
      "name": "name",
      "outputs": [
        {
          "internalType": "string",
          "name": "",
          "type": "string"
        }
      ],
      "stateMutability": "view",
      "type": "function"
    },
    {
      "inputs": [],
      "name": "owner",
      "outputs": [
        {
          "internalType": "address",
          "name": "",
          "type": "address"
        }
      ],
      "stateMutability": "view",
      "type": "function"
    },
    {
      "inputs": [],
      "name": "proposalTime",
      "outputs": [
        {
          "internalType": "uint256",
          "name": "",
          "type": "uint256"
        }
      ],
      "stateMutability": "view",
      "type": "function"
    },
    {
      "inputs": [
        {
          "internalType": "bytes32",
          "name": "",
          "type": "bytes32"
        },
        {
          "internalType": "address",
          "name": "",
          "type": "address"
        }
      ],
      "name": "proposalVotes",
      "outputs": [
        {
          "internalType": "uint256",
          "name": "option",
          "type": "uint256"
        },
        {
          "internalType": "uint256",
          "name": "votingPower",
          "type": "uint256"
        }
      ],
      "stateMutability": "view",
      "type": "function"
    },
    {
      "inputs": [
        {
          "internalType": "bytes32",
          "name": "",
          "type": "bytes32"
        }
      ],
      "name": "proposals",
      "outputs": [
        {
          "internalType": "address",
          "name": "creator",
          "type": "address"
        },
        {
          "internalType": "uint256",
          "name": "startTime",
          "type": "uint256"
        },
        {
          "internalType": "uint256",
          "name": "endTime",
          "type": "uint256"
        },
        {
          "internalType": "string",
          "name": "title",
          "type": "string"
        },
        {
          "internalType": "string",
          "name": "contentHash",
          "type": "string"
        },
        {
          "internalType": "enum BaseERC20Guild.ProposalState",
          "name": "state",
          "type": "uint8"
        }
      ],
      "stateMutability": "view",
      "type": "function"
    },
    {
      "inputs": [
        {
          "internalType": "uint256",
          "name": "",
          "type": "uint256"
        }
      ],
      "name": "proposalsIds",
      "outputs": [
        {
          "internalType": "bytes32",
          "name": "",
          "type": "bytes32"
        }
      ],
      "stateMutability": "view",
      "type": "function"
    },
    {
      "inputs": [],
      "name": "renounceOwnership",
      "outputs": [],
      "stateMutability": "nonpayable",
      "type": "function"
    },
    {
      "inputs": [
        {
          "internalType": "uint256",
          "name": "_proposalTime",
          "type": "uint256"
        },
        {
          "internalType": "uint256",
          "name": "_timeForExecution",
          "type": "uint256"
        },
        {
          "internalType": "uint256",
          "name": "_votingPowerPercentageForProposalExecution",
          "type": "uint256"
        },
        {
          "internalType": "uint256",
          "name": "_votingPowerPercentageForProposalCreation",
          "type": "uint256"
        },
        {
          "internalType": "uint256",
          "name": "_voteGas",
          "type": "uint256"
        },
        {
          "internalType": "uint256",
          "name": "_maxGasPrice",
          "type": "uint256"
        },
        {
          "internalType": "uint256",
          "name": "_maxActiveProposals",
          "type": "uint256"
        },
        {
          "internalType": "uint256",
          "name": "_lockTime",
          "type": "uint256"
        },
        {
          "internalType": "uint256",
          "name": "_minimumMembersForProposalCreation",
          "type": "uint256"
        },
        {
          "internalType": "uint256",
          "name": "_minimumTokensLockedForProposalCreation",
          "type": "uint256"
        }
      ],
      "name": "setConfig",
      "outputs": [],
      "stateMutability": "nonpayable",
      "type": "function"
    },
    {
      "inputs": [
        {
          "internalType": "bytes32",
          "name": "proposalId",
          "type": "bytes32"
        },
        {
          "internalType": "uint256",
          "name": "option",
          "type": "uint256"
        },
        {
          "internalType": "uint256",
          "name": "votingPower",
          "type": "uint256"
        },
        {
          "internalType": "address",
          "name": "voter",
          "type": "address"
        },
        {
          "internalType": "bytes",
          "name": "signature",
          "type": "bytes"
        }
      ],
      "name": "setSignedVote",
      "outputs": [],
      "stateMutability": "nonpayable",
      "type": "function"
    },
    {
      "inputs": [
        {
          "internalType": "bytes32",
          "name": "proposalId",
          "type": "bytes32"
        },
        {
          "internalType": "uint256",
          "name": "option",
          "type": "uint256"
        },
        {
          "internalType": "uint256",
          "name": "votingPower",
          "type": "uint256"
        }
      ],
      "name": "setVote",
      "outputs": [],
      "stateMutability": "nonpayable",
      "type": "function"
    },
    {
      "inputs": [
        {
          "internalType": "bytes32",
          "name": "",
          "type": "bytes32"
        }
      ],
      "name": "signedVotes",
      "outputs": [
        {
          "internalType": "bool",
          "name": "",
          "type": "bool"
        }
      ],
      "stateMutability": "view",
      "type": "function"
    },
    {
      "inputs": [],
      "name": "timeForExecution",
      "outputs": [
        {
          "internalType": "uint256",
          "name": "",
          "type": "uint256"
        }
      ],
      "stateMutability": "view",
      "type": "function"
    },
    {
      "inputs": [],
      "name": "token",
      "outputs": [
        {
          "internalType": "contract IERC20Upgradeable",
          "name": "",
          "type": "address"
        }
      ],
      "stateMutability": "view",
      "type": "function"
    },
    {
      "inputs": [],
      "name": "tokenVault",
      "outputs": [
        {
          "internalType": "contract TokenVault",
          "name": "",
          "type": "address"
        }
      ],
      "stateMutability": "view",
      "type": "function"
    },
    {
      "inputs": [
        {
          "internalType": "address",
          "name": "",
          "type": "address"
        }
      ],
      "name": "tokensLocked",
      "outputs": [
        {
          "internalType": "uint256",
          "name": "amount",
          "type": "uint256"
        },
        {
          "internalType": "uint256",
          "name": "timestamp",
          "type": "uint256"
        }
      ],
      "stateMutability": "view",
      "type": "function"
    },
    {
      "inputs": [],
      "name": "totalLocked",
      "outputs": [
        {
          "internalType": "uint256",
          "name": "",
          "type": "uint256"
        }
      ],
      "stateMutability": "view",
      "type": "function"
    },
    {
      "inputs": [],
      "name": "totalProposals",
      "outputs": [
        {
          "internalType": "uint256",
          "name": "",
          "type": "uint256"
        }
      ],
      "stateMutability": "view",
      "type": "function"
    },
    {
      "inputs": [
        {
          "internalType": "address",
          "name": "newOwner",
          "type": "address"
        }
      ],
      "name": "transferOwnership",
      "outputs": [],
      "stateMutability": "nonpayable",
      "type": "function"
    },
    {
      "inputs": [
        {
          "internalType": "bytes32",
          "name": "root",
          "type": "bytes32"
        },
        {
          "internalType": "bytes32",
          "name": "voteHash",
          "type": "bytes32"
        },
        {
          "internalType": "bytes32[]",
          "name": "proof",
          "type": "bytes32[]"
        }
      ],
      "name": "validateMerkleTreeLeaf",
      "outputs": [
        {
          "internalType": "bool",
          "name": "",
          "type": "bool"
        }
      ],
      "stateMutability": "nonpayable",
      "type": "function"
    },
    {
      "inputs": [],
      "name": "voteGas",
      "outputs": [
        {
          "internalType": "uint256",
          "name": "",
          "type": "uint256"
        }
      ],
      "stateMutability": "view",
      "type": "function"
    },
    {
      "inputs": [
        {
          "internalType": "address",
          "name": "account",
          "type": "address"
        }
      ],
      "name": "votingPowerOf",
      "outputs": [
        {
          "internalType": "uint256",
          "name": "",
          "type": "uint256"
        }
      ],
      "stateMutability": "view",
      "type": "function"
    },
    {
      "inputs": [],
      "name": "votingPowerPercentageForProposalCreation",
      "outputs": [
        {
          "internalType": "uint256",
          "name": "",
          "type": "uint256"
        }
      ],
      "stateMutability": "view",
      "type": "function"
    },
    {
      "inputs": [],
      "name": "votingPowerPercentageForProposalExecution",
      "outputs": [
        {
          "internalType": "uint256",
          "name": "",
          "type": "uint256"
        }
      ],
      "stateMutability": "view",
      "type": "function"
    },
    {
      "inputs": [
        {
          "internalType": "uint256",
          "name": "tokenAmount",
          "type": "uint256"
        }
      ],
      "name": "withdrawTokens",
      "outputs": [],
      "stateMutability": "nonpayable",
      "type": "function"
    }
  ],
  "bytecode": "0x608060405234801561001057600080fd5b50615beb80620000216000396000f3fe608060405260043610620003d95760003560e01c806364fe6ed21162000203578063ad6c1e341162000117578063e045035311620000a7578063f4732da61162000075578063f4732da61462000bd5578063f98606a71462000bec578063fc0c546a1462000c04578063fc4e703f1462000c2657005b8063e04503531462000b3d578063e158080a1462000b55578063f09951981462000b6d578063f2fde38b1462000bb057005b8063b7c15f8d11620000e5578063b7c15f8d1462000ad3578063bcc3f3bd1462000aea578063c0a4d64d1462000b0f578063c93e01e31462000b2657005b8063ad6c1e341462000a5a578063ae6192341462000a71578063b3929aaa1462000a89578063b3b470611462000aae57005b806389c98c061162000193578063a16fe3421162000161578063a16fe34214620009e5578063a78d80fc1462000a05578063a7aeb5571462000a1d578063ab6ea06b1462000a3557005b806389c98c0614620009725780638da5cb5b14620009895780638f18030514620009a957806392b7165414620009c057005b8063715018a611620001d1578063715018a614620008ea57806377027ff414620009025780638029eff1146200091957806386e27125146200094d57005b806364fe6ed21462000863578063671abed7146200087a5780636c8b72f614620008ae5780636e27d88914620008c557005b80632467ef9411620002fb5780633bf353fb116200028b57806354f2f7af116200025957806354f2f7af14620007f15780635689141214620008115780635bc789d914620008295780635e508c2c146200084b57005b80633bf353fb14620007755780633de39c11146200078d5780633f10cf1514620007a5578063430694cf14620007bd57005b80632fd99c0011620002c95780632fd99c0014620006ad578063315a095d14620006f257806332ed5b12146200071757806336f8f8d9146200075057005b80632467ef94146200060a57806325c069fc14620006215780632d5b17de146200064b5780632d757c3e146200067057005b806313108d7411620003775780631a5007dd11620003455780631a5007dd146200058357806321df0da7146200059a5780632229a0e214620005ce5780632457e39314620005e557005b806313108d74146200050957806316bbecde146200052e57806317d7de7c1462000553578063184a0ae9146200056b57005b80630a366a6311620003b55780630a366a6314620004805780630d66808714620004a7578063123f6d6714620004bf578063130485fe14620004e457005b80623a40d014620003db57806301a598a6146200040b57806306fdde031462000459575b005b348015620003e857600080fd5b50620003f362000c3e565b604051620004029190620043fe565b60405180910390f35b3480156200041857600080fd5b50620004436200042a36600462004461565b6012602052600090815260409020805460019091015482565b6040805192835260208301919091520162000402565b3480156200046657600080fd5b506200047162000c98565b604051620004029190620044cf565b3480156200048d57600080fd5b506200049862000d2e565b60405190815260200162000402565b348015620004b457600080fd5b5062000498600d5481565b348015620004cc57600080fd5b50620003d9620004de366004620044e4565b62000d5b565b348015620004f157600080fd5b5062000443620005033660046200454d565b62000ef4565b3480156200051657600080fd5b506200049862000528366004620047e6565b62000f26565b3480156200053b57600080fd5b50620003d96200054d366004620048cf565b6200150c565b3480156200056057600080fd5b506200047162001653565b3480156200057857600080fd5b506200049860035481565b3480156200059057600080fd5b50600a5462000498565b348015620005a757600080fd5b506000546001600160a01b03165b6040516001600160a01b03909116815260200162000402565b348015620005db57600080fd5b5060165462000498565b348015620005f257600080fd5b50620003d962000604366004620048fc565b620016e4565b3480156200061757600080fd5b50600c5462000498565b3480156200062e57600080fd5b5062000638600a81565b60405160ff909116815260200162000402565b3480156200065857600080fd5b50620003d96200066a36600462004997565b6200182d565b3480156200067d57600080fd5b50620004986200068f36600462004461565b6001600160a01b031660009081526012602052604090206001015490565b348015620006ba57600080fd5b50620006e1620006cc36600462004a07565b60136020526000908152604090205460ff1681565b604051901515815260200162000402565b348015620006ff57600080fd5b50620003d96200071136600462004a07565b62001af3565b3480156200072457600080fd5b506200073c6200073636600462004a07565b62001d4e565b604051620004029695949392919062004a5a565b3480156200075d57600080fd5b50620003d96200076f36600462004aba565b62001eb2565b3480156200078257600080fd5b5062000498600c5481565b3480156200079a57600080fd5b506200049860085481565b348015620007b257600080fd5b506200049860045481565b348015620007ca57600080fd5b50620007e2620007dc36600462004a07565b620020d8565b60405162000402919062004c2f565b348015620007fe57600080fd5b506011546001600160a01b0316620005b5565b3480156200081e57600080fd5b5062000498600e5481565b3480156200083657600080fd5b50601154620005b5906001600160a01b031681565b3480156200085857600080fd5b506200049860055481565b3480156200087057600080fd5b5060105462000498565b3480156200088757600080fd5b506200089f6200089936600462004d3c565b6200248b565b60405162000402919062004dcd565b348015620008bb57600080fd5b5060075462000498565b348015620008d257600080fd5b50620003d9620008e436600462004a07565b620028fc565b348015620008f757600080fd5b50620003d962002a8c565b3480156200090f57600080fd5b5060095462000498565b3480156200092657600080fd5b50620006e16200093836600462004a07565b60009081526013602052604090205460ff1690565b3480156200095a57600080fd5b50620003d96200096c36600462004e09565b62002af6565b3480156200097f57600080fd5b5060085462000498565b3480156200099657600080fd5b50604a546001600160a01b0316620005b5565b348015620009b657600080fd5b50600b5462000498565b348015620009cd57600080fd5b5062000498620009df36600462004e8a565b62002db5565b348015620009f257600080fd5b506001546001600160a01b0316620005b5565b34801562000a1257600080fd5b5062000498600a5481565b34801562000a2a57600080fd5b5062000498600f5481565b34801562000a4257600080fd5b50620006e162000a5436600462004ec6565b62002e0c565b34801562000a6757600080fd5b50600f5462000498565b34801562000a7e57600080fd5b506200049862002e23565b34801562000a9657600080fd5b506200049862000aa836600462004a07565b62002e3d565b34801562000abb57600080fd5b50620003d962000acd36600462004a07565b62002e5f565b34801562000ae057600080fd5b5060045462000498565b34801562000af757600080fd5b506200049862000b0936600462004461565b620037ac565b34801562000b1c57600080fd5b50600d5462000498565b34801562000b3357600080fd5b5060035462000498565b34801562000b4a57600080fd5b506200049860095481565b34801562000b6257600080fd5b506200049860105481565b34801562000b7a57600080fd5b506200044362000b8c3660046200454d565b60146020908152600092835260408084209091529082529020805460019091015482565b34801562000bbd57600080fd5b50620003d962000bcf36600462004461565b620037c7565b34801562000be257600080fd5b50600e5462000498565b34801562000bf957600080fd5b506200049860065481565b34801562000c1157600080fd5b50600054620005b5906001600160a01b031681565b34801562000c3357600080fd5b506200049860075481565b6060601680548060200260200160405190810160405280929190818152602001828054801562000c8e57602002820191906000526020600020905b81548152602001906001019080831162000c79575b5050505050905090565b6002805462000ca79062004f0f565b80601f016020809104026020016040519081016040528092919081815260200182805462000cd59062004f0f565b801562000d265780601f1062000cfa5761010080835404028352916020019162000d26565b820191906000526020600020905b81548152906001019060200180831162000d0857829003601f168201915b505050505081565b600062000d5661271062000d4f60065462000d48600e5490565b9062003898565b90620038ad565b905090565b33301462000de15760405162461bcd60e51b815260206004820152604260248201527f45524332304775696c643a204f6e6c792063616c6c61626c652062792045524360448201527f32306775696c6420697473656c66206f72207768656e20696e697469616c697a606482015261195960f21b608482015260a4015b60405180910390fd5b60008a1162000e045760405162461bcd60e51b815260040162000dd89062004f4c565b8983101562000e275760405162461bcd60e51b815260040162000dd89062004f9b565b6000881162000e4a5760405162461bcd60e51b815260040162000dd89062004ff8565b6201c90886111562000ec55760405162461bcd60e51b815260206004820152603960248201527f45524332304775696c643a20766f7465206761732068617320746f206265206560448201527f7175616c206f72206c6f776572207468616e2031313730303000000000000000606482015260840162000dd8565b600399909955600497909755600595909555600693909355600791909155600855600955600d55600f55601055565b60008281526014602090815260408083206001600160a01b0385168452909152902080546001909101545b9250929050565b6000601054600e54101562000fa45760405162461bcd60e51b815260206004820152603960248201527f45524332304775696c643a204e6f7420656e6f75676820746f6b656e73206c6f60448201527f636b656420746f2063726561746520612070726f706f73616c00000000000000606482015260840162000dd8565b600f54600b541015620010165760405162461bcd60e51b815260206004820152603360248201527f45524332304775696c643a204e6f7420656e6f756768206d656d6265727320746044820152721bc818dc99585d194818481c1c9bdc1bdcd85b606a1b606482015260840162000dd8565b600954600c54106200108a5760405162461bcd60e51b815260206004820152603660248201527f45524332304775696c643a204d6178696d756d20616d6f756e74206f662061636044820152751d1a5d99481c1c9bdc1bdcd85b1cc81c995858da195960521b606482015260840162000dd8565b6200109462000d2e565b6200109f33620037ac565b10156200110d5760405162461bcd60e51b815260206004820152603560248201527f45524332304775696c643a204e6f7420656e6f75676820766f74696e67506f77604482015274195c881d1bc818dc99585d19481c1c9bdc1bdcd85b605a1b606482015260840162000dd8565b8551875114801562001120575084518751145b6200118b5760405162461bcd60e51b815260206004820152603460248201527f45524332304775696c643a2057726f6e67206c656e677468206f6620746f2c2060448201527364617461206f722076616c75652061727261797360601b606482015260840162000dd8565b6000875111620011f85760405162461bcd60e51b815260206004820152603160248201527f45524332304775696c643a20746f2c20646174612076616c7565206172726179604482015270732063616e6e6f7420626520656d70747960781b606482015260840162000dd8565b865184111580156200121557508451620012139085620038bb565b155b620012895760405162461bcd60e51b815260206004820152603760248201527f45524332304775696c643a20496e76616c696420746f74616c4f7074696f6e7360448201527f206f72206f7074696f6e2063616c6c73206c656e677468000000000000000000606482015260840162000dd8565b600a841115620013025760405162461bcd60e51b815260206004820152603a60248201527f45524332304775696c643a204d6178696d756d20616d6f756e74206f66206f7060448201527f74696f6e73207065722070726f706f73616c2072656163686564000000000000606482015260840162000dd8565b600a546040516bffffffffffffffffffffffff193360601b1660208201524260348201526054810191909152600090607401604051602081830303815290604052805190602001209050620013646001600a54620038c990919063ffffffff16565b600a55600081815260156020526040902080546001600160a01b0319163317815542600182018190556003546200139c9190620038c9565b60028201558851620013b890600383019060208c019062004185565b508751620013d090600483019060208b0190620041ef565b508651620013e890600583019060208a01906200424f565b5084516200140090600683019060208801906200428d565b5083516200141890600783019060208701906200428d565b5062001426866001620038c9565b6001600160401b038111156200144057620014406200457c565b6040519080825280602002602001820160405280156200146a578160200160208202803683370190505b508051620014839160098401916020909101906200424f565b5060088101805460ff19166001908117909155600c54620014a491620038c9565b600c558160008051602062005b96833981519152600160405190815260200160405180910390a250601680546001810182556000919091527fd833147d7dc355ba459fc788f669e58cfaf9dc25ddcd0702e87d69c7b512428901819055979650505050505050565b60008381526015602052604090206002015442106200153f5760405162461bcd60e51b815260040162000dd89062005055565b806200154b33620037ac565b10158015620015755750600083815260146020908152604080832033845290915290206001015481115b620015945760405162461bcd60e51b815260040162000dd890620050a0565b6000838152601460209081526040808320338452909152902054158015620015d657506000838152601460209081526040808320338452909152902060010154155b80620016215750600083815260146020908152604080832033845290915290205482148015620016215750600083815260146020908152604080832033845290915290206001015481115b620016405760405162461bcd60e51b815260040162000dd890620050e6565b6200164e33848484620038d7565b505050565b606060028054620016649062004f0f565b80601f0160208091040260200160405190810160405280929190818152602001828054620016929062004f0f565b801562000c8e5780601f10620016b75761010080835404028352916020019162000c8e565b820191906000526020600020905b815481529060010190602001808311620016c557509395945050505050565b60175462010000900460ff1680620017045750601754610100900460ff16155b620017235760405162461bcd60e51b815260040162000dd8906200514d565b60175462010000900460ff1615801562001749576017805462ffff001916620101001790555b6200175362003b38565b620017888c8c8c8c8c6040518060400160405280600881526020016711161111dd5a5b1960c21b8152508d8d8d8d8d62001eb2565b60018054604051636cfe048960e01b81523060048201526001600160a01b03858116602483015263359afa4960e01b6044830152600060648301526084820193909352911690636cfe04899060a401600060405180830381600087803b158015620017f257600080fd5b505af115801562001807573d6000803e3d6000fd5b5050505080156200181f576017805462ff0000191690555b505050505050505050505050565b6000858152601560205260409020600201544210620018605760405162461bcd60e51b815260040162000dd89062005055565b6000620018708387878762002db5565b60008181526013602052604090205490915060ff1615620018d05760405162461bcd60e51b8152602060048201526019602482015278115490cc8c11dd5a5b190e88105b1c9958591e481d9bdd1959603a1b604482015260640162000dd8565b62001934826200192d836040517f19457468657265756d205369676e6564204d6573736167653a0a3332000000006020820152603c8101829052600090605c01604051602081830303815290604052805190602001209050919050565b9062003bc7565b6001600160a01b0316836001600160a01b031614620019965760405162461bcd60e51b815260206004820152601860248201527f45524332304775696c643a2057726f6e67207369676e65720000000000000000604482015260640162000dd8565b6000818152601360205260409020805460ff1916600117905583620019bb84620037ac565b10158015620019ee575060008681526014602090815260408083206001600160a01b038716845290915290206001015484115b62001a0d5760405162461bcd60e51b815260040162000dd890620050a0565b60008681526014602090815260408083206001600160a01b038716845290915290205415801562001a61575060008681526014602090815260408083206001600160a01b0387168452909152902060010154155b8062001abe575060008681526014602090815260408083206001600160a01b03871684529091529020548514801562001abe575060008681526014602090815260408083206001600160a01b038716845290915290206001015484115b62001add5760405162461bcd60e51b815260040162000dd890620050e6565b62001aeb83878787620038d7565b505050505050565b8062001aff33620037ac565b101562001b6e5760405162461bcd60e51b815260206004820152603660248201527f45524332304775696c643a20556e61626c6520746f207769746864726177206d6044820152751bdc99481d1bdad95b9cc81d1a185b881b1bd8dad95960521b606482015260840162000dd8565b33600090815260126020526040902060010154421162001bd15760405162461bcd60e51b815260206004820152601f60248201527f45524332304775696c643a20546f6b656e73207374696c6c206c6f636b656400604482015260640162000dd8565b6000811162001c495760405162461bcd60e51b815260206004820152603f60248201527f45524332304775696c643a20616d6f756e74206f6620746f6b656e7320746f2060448201527f7769746864726177206d7573742062652067726561746572207468616e203000606482015260840162000dd8565b3360009081526012602052604090205462001c65908262003bef565b33600090815260126020526040902055600e5462001c84908262003bef565b600e5560115460405163f3fef3a360e01b8152336004820152602481018390526001600160a01b039091169063f3fef3a390604401600060405180830381600087803b15801562001cd457600080fd5b505af115801562001ce9573d6000803e3d6000fd5b5050505062001cf833620037ac565b62001d1157600b5462001d0d90600162003bef565b600b555b60408051338152602081018390527f6352c5382c4a4578e712449ca65e83cdb392d045dfcf1cad9615189db2da244b91015b60405180910390a150565b60156020526000908152604090208054600182015460028301546006840180546001600160a01b0390941694929391929162001d8a9062004f0f565b80601f016020809104026020016040519081016040528092919081815260200182805462001db89062004f0f565b801562001e095780601f1062001ddd5761010080835404028352916020019162001e09565b820191906000526020600020905b81548152906001019060200180831162001deb57829003601f168201915b50505050509080600701805462001e209062004f0f565b80601f016020809104026020016040519081016040528092919081815260200182805462001e4e9062004f0f565b801562001e9f5780601f1062001e735761010080835404028352916020019162001e9f565b820191906000526020600020905b81548152906001019060200180831162001e8157829003601f168201915b5050506008909301549192505060ff1686565b60175462010000900460ff168062001ed25750601754610100900460ff16155b62001ef15760405162461bcd60e51b815260040162000dd8906200514d565b60175462010000900460ff1615801562001f17576017805462ffff001916620101001790555b6001600160a01b038c1662001f7e5760405162461bcd60e51b815260206004820152602660248201527f45524332304775696c643a20746f6b656e2063616e74206265207a65726f206160448201526564647265737360d01b606482015260840162000dd8565b60008b1162001fa15760405162461bcd60e51b815260040162000dd89062004f4c565b8a83101562001fc45760405162461bcd60e51b815260040162000dd89062004f9b565b6000891162001fe75760405162461bcd60e51b815260040162000dd89062004ff8565b865162001ffc9060029060208a01906200428d565b50600080546001600160a01b0319166001600160a01b038e1690811790915560405130906200202b9062004309565b6001600160a01b03928316815291166020820152604001604051809103906000f0801580156200205f573d6000803e3d6000fd5b50601180546001600160a01b03199081166001600160a01b039384161790915560038d905560048c905560058b905560068a9055600788905560088790556009869055600d8590556001805490911691841691909117905580156200181f576017805462ff000019169055505050505050505050505050565b620020e262004317565b60008281526015602090815260409182902082516101408101845281546001600160a01b0316815260018201548184015260028201548185015260038201805485518186028101860190965280865291949293606086019392908301828280156200217757602002820191906000526020600020905b81546001600160a01b0316815260019091019060200180831162002158575b5050505050815260200160048201805480602002602001604051908101604052809291908181526020016000905b828210156200225b578382906000526020600020018054620021c79062004f0f565b80601f0160208091040260200160405190810160405280929190818152602001828054620021f59062004f0f565b8015620022465780601f106200221a5761010080835404028352916020019162002246565b820191906000526020600020905b8154815290600101906020018083116200222857829003601f168201915b505050505081526020019060010190620021a5565b50505050815260200160058201805480602002602001604051908101604052809291908181526020018280548015620022b457602002820191906000526020600020905b8154815260200190600101908083116200229f575b50505050508152602001600682018054620022cf9062004f0f565b80601f0160208091040260200160405190810160405280929190818152602001828054620022fd9062004f0f565b80156200234e5780601f1062002322576101008083540402835291602001916200234e565b820191906000526020600020905b8154815290600101906020018083116200233057829003601f168201915b50505050508152602001600782018054620023699062004f0f565b80601f0160208091040260200160405190810160405280929190818152602001828054620023979062004f0f565b8015620023e85780601f10620023bc57610100808354040283529160200191620023e8565b820191906000526020600020905b815481529060010190602001808311620023ca57829003601f168201915b5050509183525050600882015460209091019060ff16600481111562002412576200241262004a21565b600481111562002426576200242662004a21565b8152602001600982018054806020026020016040519081016040528092919081815260200182805480156200247b57602002820191906000526020600020905b81548152602001906001019080831162002466575b5050505050815250509050919050565b606082518451148015620024a0575081518351145b620025145760405162461bcd60e51b815260206004820152603f60248201527f45524332304775696c643a20496e76616c69642070726f706f73616c4964732c60448201527f206f7074696f6e73206f7220766f74696e67506f77657273206c656e67746800606482015260840162000dd8565b60008085516001600160401b038111156200253357620025336200457c565b6040519080825280602002602001820160405280156200255d578160200160208202803683370190505b509050600091505b8551821015620028f35742601560008885815181106200258957620025896200519b565b60200260200101518152602001908152602001600020600201541015620025d7576000818381518110620025c157620025c16200519b565b91151560209283029190910190910152620028de565b838281518110620025ec57620025ec6200519b565b6020026020010151620025ff33620037ac565b10806200267c5750601460008784815181106200262057620026206200519b565b602002602001015181526020019081526020016000206000336001600160a01b03166001600160a01b03168152602001908152602001600020600101548483815181106200267257620026726200519b565b6020026020010151105b1562002699576000818381518110620025c157620025c16200519b565b60146000878481518110620026b257620026b26200519b565b6020908102919091018101518252818101929092526040908101600090812033825290925290205415806200273c575060146000878481518110620026fb57620026fb6200519b565b602002602001015181526020019081526020016000206000336001600160a01b03166001600160a01b03168152602001908152602001600020600101546000145b80156200283657508482815181106200275957620027596200519b565b6020026020010151601460008885815181106200277a576200277a6200519b565b602002602001015181526020019081526020016000206000336001600160a01b03166001600160a01b031681526020019081526020016000206000015414158015620028365750838281518110620027d657620027d66200519b565b602002602001015160146000888581518110620027f757620027f76200519b565b602002602001015181526020019081526020016000206000336001600160a01b03166001600160a01b0316815260200190815260200160002060010154115b1562002853576000818381518110620025c157620025c16200519b565b60018183815181106200286a576200286a6200519b565b602002602001019015159081151581525050620028de338784815181106200289657620028966200519b565b6020026020010151878581518110620028b357620028b36200519b565b6020026020010151878681518110620028d057620028d06200519b565b6020026020010151620038d7565b81620028ea81620051c7565b92505062002565565b95945050505050565b60008111620029695760405162461bcd60e51b815260206004820152603260248201527f45524332304775696c643a20546f6b656e7320746f206c6f636b2073686f756c60448201527106420626520686967686572207468616e20360741b606482015260840162000dd8565b6200297433620037ac565b6200298d57600b5462002989906001620038c9565b600b555b6011546040516311f9fbc960e21b8152336004820152602481018390526001600160a01b03909116906347e7ef2490604401600060405180830381600087803b158015620029da57600080fd5b505af1158015620029ef573d6000803e3d6000fd5b50503360009081526012602052604090205462002a109250905082620038c9565b33600090815260126020526040902055600d5462002a30904290620038c9565b33600090815260126020526040902060010155600e5462002a529082620038c9565b600e5560408051338152602081018390527fac87f20a77d28ee8bbb58ec87ea8fa968b3393efae1a368fd50b767c2847391c910162001d43565b604a546001600160a01b0316331462002ae85760405162461bcd60e51b815260206004820181905260248201527f4f776e61626c653a2063616c6c6572206973206e6f7420746865206f776e6572604482015260640162000dd8565b62002af4600062003bfd565b565b600062002b068785858562002db5565b905085811462002b595760405162461bcd60e51b815260206004820152601d60248201527f45524332304775696c643a20496e76616c696420766f74652068617368000000604482015260640162000dd8565b60008181526013602052604090205460ff161562002bb65760405162461bcd60e51b8152602060048201526019602482015278115490cc8c11dd5a5b190e88105b1c9958591e481d9bdd1959603a1b604482015260640162000dd8565b600062002bc589888862002e0c565b90508062002c225760405162461bcd60e51b8152602060048201526024808201527f45524332304775696c643a20496e76616c6964206d65726b6c652074726565206044820152633632b0b360e11b606482015260840162000dd8565b600085815260156020526040902060020154421062002c555760405162461bcd60e51b815260040162000dd89062005055565b8262002c6189620037ac565b1015801562002c94575060008581526014602090815260408083206001600160a01b038c16845290915290206001015483115b62002cb35760405162461bcd60e51b815260040162000dd890620050a0565b60008581526014602090815260408083206001600160a01b038c16845290915290205415801562002d07575060008581526014602090815260408083206001600160a01b038c168452909152902060010154155b8062002d64575060008581526014602090815260408083206001600160a01b038c1684529091529020548414801562002d64575060008581526014602090815260408083206001600160a01b038c16845290915290206001015483115b62002d835760405162461bcd60e51b815260040162000dd890620050e6565b6000828152601360205260409020805460ff1916600117905562002daa88868686620038d7565b505050505050505050565b6040516bffffffffffffffffffffffff19606086901b166020820152603481018490526054810183905260748101829052600090609401604051602081830303815290604052805190602001209050949350505050565b600062002e1b82858562003c4f565b949350505050565b600062000d5661271062000d4f60055462000d48600e5490565b6016818154811062002e4e57600080fd5b600091825260209091200154905081565b60175460ff161562002ec05760405162461bcd60e51b8152602060048201526024808201527f45524332304775696c643a2050726f706f73616c20756e6465722065786563756044820152633a34b7b760e11b606482015260840162000dd8565b600160008281526015602052604090206008015460ff16600481111562002eeb5762002eeb62004a21565b1462002f485760405162461bcd60e51b815260206004820152602560248201527f45524332304775696c643a2050726f706f73616c20616c72656164792065786560448201526418dd5d195960da1b606482015260840162000dd8565b600081815260156020526040902060020154421162002fb85760405162461bcd60e51b815260206004820152602560248201527f45524332304775696c643a2050726f706f73616c206861736e277420656e646560448201526419081e595d60da1b606482015260840162000dd8565b60008181526015602052604081206009018054829190829062002fdf5762002fdf6200519b565b600091825260209091200154905060015b6000848152601560205260409020600901548110156200311f576200301462002e23565b60008581526015602052604090206009018054839081106200303a576200303a6200519b565b90600052602060002001541015801562003086575060008481526015602052604090206009018054839190839081106200307857620030786200519b565b906000526020600020015410155b156200310a576000848152601560205260409020600901805483919083908110620030b557620030b56200519b565b90600052602060002001541415620030d157600092506200310a565b60008481526015602052604090206009018054919350839182908110620030fc57620030fc6200519b565b906000526020600020015491505b806200311681620051c7565b91505062002ff0565b826200316f576000848152601560205260409020600801805460ff19166002908117909155849060008051602062005b96833981519152905b60405190815260200160405180910390a262003793565b6004546000858152601560205260409020600201544291620031929190620038c9565b1015620031d1576000848152601560205260409020600801805460ff19166004908117909155849060008051602062005b968339815191529062003158565b600084815260156020526040812060088101805460ff19166003179055600901546200321d906200320490600162003bef565b60008781526015602052604090206003015490620038ad565b9050620032386200323085600162003bef565b829062003898565b91506000620032488383620038c9565b9050600160009054906101000a90046001600160a01b03166001600160a01b0316633e7a47b26040518163ffffffff1660e01b8152600401600060405180830381600087803b1580156200329b57600080fd5b505af1158015620032b0573d6000803e3d6000fd5b505050505b80831015620036ea576000868152601560205260408120600301805485908110620032e457620032e46200519b565b6000918252602090912001546001600160a01b03161480159062003344575060008681526015602052604081206004018054859081106200332957620033296200519b565b906000526020600020018054620033409062004f0f565b9050115b15620036d55760008681526015602052604081206004018054859081106200337057620033706200519b565b906000526020600020018054620033879062004f0f565b80601f0160208091040260200160405190810160405280929190818152602001828054620033b59062004f0f565b8015620034065780601f10620033da5761010080835404028352916020019162003406565b820191906000526020600020905b815481529060010190602001808311620033e857829003601f168201915b50505060208084015160015460008d815260159093526040909220600301805495965090946001600160a01b03909216935063eed4703392503091899081106200345457620034546200519b565b9060005260206000200160009054906101000a90046001600160a01b031684601560008e81526020019081526020016000206005018a815481106200349d576200349d6200519b565b60009182526020909120015460405160e086901b6001600160e01b031990811682526001600160a01b039586166004830152939094166024850152911660448301526064820152608401600060405180830381600087803b1580156200350257600080fd5b505af192505050801562003514575060015b620035705762003523620051e5565b806308c379a014156200356457506200353b62005202565b8062003548575062003566565b8060405162461bcd60e51b815260040162000dd89190620044cf565b505b3d6000803e3d6000fd5b6017805460ff191660011790556000888152601560205260408120600301805487908110620035a357620035a36200519b565b60009182526020808320909101548b83526015909152604090912060050180546001600160a01b039092169188908110620035e257620035e26200519b565b9060005260206000200154601560008c815260200190815260200160002060040188815481106200361757620036176200519b565b9060005260206000200160405162003630919062005291565b60006040518083038185875af1925050503d80600081146200366f576040519150601f19603f3d011682016040523d82523d6000602084013e62003674565b606091505b5050905080620036c75760405162461bcd60e51b815260206004820181905260248201527f45524332304775696c643a2050726f706f73616c2063616c6c206661696c6564604482015260640162000dd8565b50506017805460ff19169055505b82620036e181620051c7565b935050620032b5565b60015460405163fb0fde8560e01b81523060048201526001600160a01b039091169063fb0fde8590602401602060405180830381600087803b1580156200373057600080fd5b505af115801562003745573d6000803e3d6000fd5b505050506040513d601f19601f820116820180604052508101906200376b919062005335565b508560008051602062005b96833981519152600360405190815260200160405180910390a250505b600c54620037a390600162003bef565b600c5550505050565b6001600160a01b031660009081526012602052604090205490565b604a546001600160a01b03163314620038235760405162461bcd60e51b815260206004820181905260248201527f4f776e61626c653a2063616c6c6572206973206e6f7420746865206f776e6572604482015260640162000dd8565b6001600160a01b0381166200388a5760405162461bcd60e51b815260206004820152602660248201527f4f776e61626c653a206e6577206f776e657220697320746865207a65726f206160448201526564647265737360d01b606482015260840162000dd8565b620038958162003bfd565b50565b6000620038a6828462005359565b9392505050565b6000620038a6828462005391565b6000620038a68284620053a8565b6000620038a68284620053bf565b60008381526014602090815260408083206001600160a01b0388168452825280832060010154868452601590925290912060090180546200394d9284926200394692879081106200392c576200392c6200519b565b906000526020600020015462003bef90919063ffffffff16565b90620038c9565b60008481526015602052604090206009018054849081106200397357620039736200519b565b60009182526020808320909101929092558481526014825260408082206001600160a01b0388168352835280822085815560010184905585825260159092522060020154620039da856001600160a01b031660009081526012602052604090206001015490565b101562003a0f576000838152601560209081526040808320600201546001600160a01b03881684526012909252909120600101555b604080516001600160a01b038616815260208101839052839185917f583c62f152711bcb1ca6186c1065821ff17a7cbe226dcb559a1c889dcf0d769b910160405180910390a36007541562003b3257600062003a8562003a7b6008543a62003c6790919063ffffffff16565b6007549062003898565b905080471015801562003a975750333b155b1562003b3057604051600090339083908381818185875af1925050503d806000811462003ae1576040519150601f19603f3d011682016040523d82523d6000602084013e62003ae6565b606091505b505090508062001aeb5760405162461bcd60e51b81526020600482015260146024820152734661696c656420746f20726566756e642067617360601b604482015260640162000dd8565b505b50505050565b60175462010000900460ff168062003b585750601754610100900460ff16155b62003b775760405162461bcd60e51b815260040162000dd8906200514d565b60175462010000900460ff1615801562003b9d576017805462ffff001916620101001790555b62003ba762003c7f565b62003bb162003cf9565b801562003895576017805462ff00001916905550565b600080600062003bd8858562003d69565b9150915062003be78162003ddf565b509392505050565b6000620038a68284620053da565b604a80546001600160a01b038381166001600160a01b0319831681179093556040519116919082907f8be0079c531659141344cd1fd0a4f28419497f9722a3daafe3b4186f6b6457e090600090a35050565b60008262003c5e858462003fb2565b14949350505050565b600081831062003c785781620038a6565b5090919050565b60175462010000900460ff168062003c9f5750601754610100900460ff16155b62003cbe5760405162461bcd60e51b815260040162000dd8906200514d565b60175462010000900460ff1615801562003bb1576017805462ffff00191662010100179055801562003895576017805462ff00001916905550565b60175462010000900460ff168062003d195750601754610100900460ff16155b62003d385760405162461bcd60e51b815260040162000dd8906200514d565b60175462010000900460ff1615801562003d5e576017805462ffff001916620101001790555b62003bb13362003bfd565b60008082516041141562003da45760208301516040840151606085015160001a62003d97878285856200405f565b9450945050505062000f1f565b82516040141562003dd2576020830151604084015162003dc686838362004154565b93509350505062000f1f565b5060009050600262000f1f565b600081600481111562003df65762003df662004a21565b141562003e005750565b600181600481111562003e175762003e1762004a21565b141562003e675760405162461bcd60e51b815260206004820152601860248201527f45434453413a20696e76616c6964207369676e61747572650000000000000000604482015260640162000dd8565b600281600481111562003e7e5762003e7e62004a21565b141562003ece5760405162461bcd60e51b815260206004820152601f60248201527f45434453413a20696e76616c6964207369676e6174757265206c656e67746800604482015260640162000dd8565b600381600481111562003ee55762003ee562004a21565b141562003f405760405162461bcd60e51b815260206004820152602260248201527f45434453413a20696e76616c6964207369676e6174757265202773272076616c604482015261756560f01b606482015260840162000dd8565b600481600481111562003f575762003f5762004a21565b1415620038955760405162461bcd60e51b815260206004820152602260248201527f45434453413a20696e76616c6964207369676e6174757265202776272076616c604482015261756560f01b606482015260840162000dd8565b600081815b845181101562003be757600085828151811062003fd85762003fd86200519b565b602002602001015190508083116200401c57604080516020810185905290810182905260600160405160208183030381529060405280519060200120925062004049565b60408051602081018390529081018490526060016040516020818303038152906040528051906020012092505b50806200405681620051c7565b91505062003fb7565b6000807f7fffffffffffffffffffffffffffffff5d576e7357a4501ddfe92f46681b20a08311156200409857506000905060036200414b565b8460ff16601b14158015620040b157508460ff16601c14155b15620040c457506000905060046200414b565b6040805160008082526020820180845289905260ff881692820192909252606081018690526080810185905260019060a0016020604051602081039080840390855afa15801562004119573d6000803e3d6000fd5b5050604051601f1901519150506001600160a01b03811662004144576000600192509250506200414b565b9150600090505b94509492505050565b6000806001600160ff1b03831660ff84901c601b0162004177878288856200405f565b935093505050935093915050565b828054828255906000526020600020908101928215620041dd579160200282015b82811115620041dd57825182546001600160a01b0319166001600160a01b03909116178255602090920191600190910190620041a6565b50620041eb92915062004387565b5090565b82805482825590600052602060002090810192821562004241579160200282015b82811115620042415782518051620042309184916020909101906200428d565b509160200191906001019062004210565b50620041eb9291506200439e565b828054828255906000526020600020908101928215620041dd579160200282015b82811115620041dd57825182559160200191906001019062004270565b8280546200429b9062004f0f565b90600052602060002090601f016020900481019282620042bf5760008555620041dd565b82601f10620042da57805160ff1916838001178555620041dd565b82800160010185558215620041dd5791820182811115620041dd57825182559160200191906001019062004270565b6107a180620053f583390190565b60405180610140016040528060006001600160a01b0316815260200160008152602001600081526020016060815260200160608152602001606081526020016060815260200160608152602001600060048111156200437a576200437a62004a21565b8152602001606081525090565b5b80821115620041eb576000815560010162004388565b80821115620041eb576000620043b58282620043bf565b506001016200439e565b508054620043cd9062004f0f565b6000825580601f10620043de575050565b601f01602090049060005260206000209081019062003895919062004387565b6020808252825182820181905260009190848201906040850190845b8181101562004438578351835292840192918401916001016200441a565b50909695505050505050565b80356001600160a01b03811681146200445c57600080fd5b919050565b6000602082840312156200447457600080fd5b620038a68262004444565b6000815180845260005b81811015620044a75760208185018101518683018201520162004489565b81811115620044ba576000602083870101525b50601f01601f19169290920160200192915050565b602081526000620038a660208301846200447f565b6000806000806000806000806000806101408b8d0312156200450557600080fd5b505088359a60208a01359a5060408a013599606081013599506080810135985060a0810135975060c0810135965060e081013595506101008101359450610120013592509050565b600080604083850312156200456157600080fd5b82359150620045736020840162004444565b90509250929050565b634e487b7160e01b600052604160045260246000fd5b601f8201601f191681016001600160401b0381118282101715620045ba57620045ba6200457c565b6040525050565b60006001600160401b03821115620045dd57620045dd6200457c565b5060051b60200190565b600082601f830112620045f957600080fd5b813560206200460882620045c1565b60405162004617828262004592565b83815260059390931b85018201928281019150868411156200463857600080fd5b8286015b848110156200465e57620046508162004444565b83529183019183016200463c565b509695505050505050565b600082601f8301126200467b57600080fd5b81356001600160401b038111156200469757620046976200457c565b604051620046b0601f8301601f19166020018262004592565b818152846020838601011115620046c657600080fd5b816020850160208301376000918101602001919091529392505050565b600082601f830112620046f557600080fd5b813560206200470482620045c1565b60405162004713828262004592565b83815260059390931b85018201928281019150868411156200473457600080fd5b8286015b848110156200465e5780356001600160401b03811115620047595760008081fd5b620047698986838b010162004669565b84525091830191830162004738565b600082601f8301126200478a57600080fd5b813560206200479982620045c1565b604051620047a8828262004592565b83815260059390931b8501820192828101915086841115620047c957600080fd5b8286015b848110156200465e5780358352918301918301620047cd565b60008060008060008060c087890312156200480057600080fd5b86356001600160401b03808211156200481857600080fd5b620048268a838b01620045e7565b975060208901359150808211156200483d57600080fd5b6200484b8a838b01620046e3565b965060408901359150808211156200486257600080fd5b620048708a838b0162004778565b95506060890135945060808901359150808211156200488e57600080fd5b6200489c8a838b0162004669565b935060a0890135915080821115620048b357600080fd5b50620048c289828a0162004669565b9150509295509295509295565b600080600060608486031215620048e557600080fd5b505081359360208301359350604090920135919050565b60008060008060008060008060008060006101608c8e0312156200491f57600080fd5b6200492a8c62004444565b9a5060208c0135995060408c0135985060608c0135975060808c0135965060a08c0135955060c08c0135945060e08c013593506101008c01359250620049746101208d0162004444565b9150620049856101408d0162004444565b90509295989b509295989b9093969950565b600080600080600060a08688031215620049b057600080fd5b853594506020860135935060408601359250620049d06060870162004444565b915060808601356001600160401b03811115620049ec57600080fd5b620049fa8882890162004669565b9150509295509295909350565b60006020828403121562004a1a57600080fd5b5035919050565b634e487b7160e01b600052602160045260246000fd5b6005811062004a5657634e487b7160e01b600052602160045260246000fd5b9052565b60018060a01b038716815285602082015284604082015260c06060820152600062004a8960c08301866200447f565b828103608084015262004a9d81866200447f565b91505062004aaf60a083018462004a37565b979650505050505050565b60008060008060008060008060008060006101608c8e03121562004add57600080fd5b62004ae88c62004444565b9a5060208c0135995060408c0135985060608c0135975060808c0135965060a08c01356001600160401b0381111562004b2057600080fd5b62004b2e8e828f0162004669565b96505060c08c0135945060e08c013593506101008c013592506101208c01359150620049856101408d0162004444565b600081518084526020808501945080840160005b8381101562004b995781516001600160a01b03168752958201959082019060010162004b72565b509495945050505050565b600081518084526020808501808196508360051b8101915082860160005b8581101562004bf057828403895262004bdd8483516200447f565b9885019893509084019060010162004bc2565b5091979650505050505050565b600081518084526020808501945080840160005b8381101562004b995781518752958201959082019060010162004c11565b6020815262004c4a6020820183516001600160a01b03169052565b60208201516040820152604082015160608201526000606083015161014080608085015262004c7e61016085018362004b5e565b91506080850151601f19808685030160a087015262004c9e848362004ba4565b935060a08701519150808685030160c087015262004cbd848362004bfd565b935060c08701519150808685030160e087015262004cdc84836200447f565b935060e0870151915061010081878603018188015262004cfd85846200447f565b94508088015192505061012062004d178188018462004a37565b87015186850390910183870152905062004d32838262004bfd565b9695505050505050565b60008060006060848603121562004d5257600080fd5b83356001600160401b038082111562004d6a57600080fd5b62004d788783880162004778565b9450602086013591508082111562004d8f57600080fd5b62004d9d8783880162004778565b9350604086013591508082111562004db457600080fd5b5062004dc38682870162004778565b9150509250925092565b6020808252825182820181905260009190848201906040850190845b818110156200443857835115158352928401929184019160010162004de9565b600080600080600080600060e0888a03121562004e2557600080fd5b8735965062004e376020890162004444565b95506040880135945060608801356001600160401b0381111562004e5a57600080fd5b62004e688a828b0162004778565b979a969950949760808101359660a0820135965060c090910135945092505050565b6000806000806080858703121562004ea157600080fd5b62004eac8562004444565b966020860135965060408601359560600135945092505050565b60008060006060848603121562004edc57600080fd5b833592506020840135915060408401356001600160401b0381111562004f0157600080fd5b62004dc38682870162004778565b600181811c9082168062004f2457607f821691505b6020821081141562004f4657634e487b7160e01b600052602260045260246000fd5b50919050565b6020808252602f908201527f45524332304775696c643a2070726f706f73616c2074696d652068617320746f60408201526e0206265206d6f7265207468616e203608c1b606082015260800190565b6020808252603e908201527f45524332304775696c643a206c6f636b54696d652068617320746f206265206860408201527f6967686572206f7220657175616c20746f2070726f706f73616c54696d650000606082015260800190565b6020808252603c908201527f45524332304775696c643a20766f74696e6720706f77657220666f722065786560408201527f637574696f6e2068617320746f206265206d6f7265207468616e203000000000606082015260800190565b6020808252602b908201527f45524332304775696c643a2050726f706f73616c20656e6465642c2063616e6e60408201526a1bdd081899481d9bdd195960aa1b606082015260800190565b60208082526026908201527f45524332304775696c643a20496e76616c696420766f74696e67506f77657220604082015265185b5bdd5b9d60d21b606082015260800190565b60208082526041908201527f45524332304775696c643a2043616e6e6f74206368616e6765206f7074696f6e60408201527f20766f7465642c206f6e6c7920696e63726561736520766f74696e67506f77656060820152603960f91b608082015260a00190565b6020808252602e908201527f496e697469616c697a61626c653a20636f6e747261637420697320616c72656160408201526d191e481a5b9a5d1a585b1a5e995960921b606082015260800190565b634e487b7160e01b600052603260045260246000fd5b634e487b7160e01b600052601160045260246000fd5b6000600019821415620051de57620051de620051b1565b5060010190565b600060033d1115620051ff5760046000803e5060005160e01c5b90565b600060443d1015620052115790565b6040516003193d81016004833e81513d6001600160401b0381602484011181841117156200524157505050505090565b82850191508151818111156200525a5750505050505090565b843d8701016020828501011115620052755750505050505090565b620052866020828601018762004592565b509095945050505050565b600080835481600182811c915080831680620052ae57607f831692505b6020808410821415620052cf57634e487b7160e01b86526022600452602486fd5b818015620052e65760018114620052f85762005327565b60ff1986168952848901965062005327565b60008a81526020902060005b868110156200531f5781548b82015290850190830162005304565b505084890196505b509498975050505050505050565b6000602082840312156200534857600080fd5b81518015158114620038a657600080fd5b6000816000190483118215151615620053765762005376620051b1565b500290565b634e487b7160e01b600052601260045260246000fd5b600082620053a357620053a36200537b565b500490565b600082620053ba57620053ba6200537b565b500690565b60008219821115620053d557620053d5620051b1565b500190565b600082821015620053ef57620053ef620051b1565b50039056fe608060405234801561001057600080fd5b506040516107a13803806107a183398101604081905261002f9161007c565b600080546001600160a01b039384166001600160a01b031991821617909155600180549290931691161790556100af565b80516001600160a01b038116811461007757600080fd5b919050565b6000806040838503121561008f57600080fd5b61009883610060565b91506100a660208401610060565b90509250929050565b6106e3806100be6000396000f3fe608060405234801561001057600080fd5b506004361061007d5760003560e01c80636e9960c31161005b5780636e9960c3146100ef578063f3fef3a314610100578063f851a44014610113578063fc0c546a1461012657600080fd5b806321df0da71461008257806327e235e3146100ac57806347e7ef24146100da575b600080fd5b6000546001600160a01b03165b6040516001600160a01b0390911681526020015b60405180910390f35b6100cc6100ba366004610586565b60026020526000908152604090205481565b6040519081526020016100a3565b6100ed6100e83660046105a1565b610139565b005b6001546001600160a01b031661008f565b6100ed61010e3660046105a1565b61020a565b60015461008f906001600160a01b031681565b60005461008f906001600160a01b031681565b6001546001600160a01b031633146101af5760405162461bcd60e51b815260206004820152602e60248201527f546f6b656e5661756c743a204465706f736974206d7573742062652073656e7460448201526d103a343937bab3b41030b236b4b760911b60648201526084015b60405180910390fd5b6000546101c7906001600160a01b031683308461025b565b6001600160a01b0382166000908152600260205260409020546101ea90826102cc565b6001600160a01b0390921660009081526002602052604090209190915550565b6001546001600160a01b0316331461022157600080fd5b600054610238906001600160a01b031683836102df565b6001600160a01b0382166000908152600260205260409020546101ea9082610314565b6040516001600160a01b03808516602483015283166044820152606481018290526102c69085906323b872dd60e01b906084015b60408051601f198184030181529190526020810180516001600160e01b03166001600160e01b031990931692909217909152610320565b50505050565b60006102d882846105e1565b9392505050565b6040516001600160a01b03831660248201526044810182905261030f90849063a9059cbb60e01b9060640161028f565b505050565b60006102d882846105f9565b6000610375826040518060400160405280602081526020017f5361666545524332303a206c6f772d6c6576656c2063616c6c206661696c6564815250856001600160a01b03166103f29092919063ffffffff16565b80519091501561030f57808060200190518101906103939190610610565b61030f5760405162461bcd60e51b815260206004820152602a60248201527f5361666545524332303a204552433230206f7065726174696f6e20646964206e6044820152691bdd081cdd58d8d9595960b21b60648201526084016101a6565b60606104018484600085610409565b949350505050565b60608247101561046a5760405162461bcd60e51b815260206004820152602660248201527f416464726573733a20696e73756666696369656e742062616c616e636520666f6044820152651c8818d85b1b60d21b60648201526084016101a6565b843b6104b85760405162461bcd60e51b815260206004820152601d60248201527f416464726573733a2063616c6c20746f206e6f6e2d636f6e747261637400000060448201526064016101a6565b600080866001600160a01b031685876040516104d4919061065e565b60006040518083038185875af1925050503d8060008114610511576040519150601f19603f3d011682016040523d82523d6000602084013e610516565b606091505b5091509150610526828286610531565b979650505050505050565b606083156105405750816102d8565b8251156105505782518084602001fd5b8160405162461bcd60e51b81526004016101a6919061067a565b80356001600160a01b038116811461058157600080fd5b919050565b60006020828403121561059857600080fd5b6102d88261056a565b600080604083850312156105b457600080fd5b6105bd8361056a565b946020939093013593505050565b634e487b7160e01b600052601160045260246000fd5b600082198211156105f4576105f46105cb565b500190565b60008282101561060b5761060b6105cb565b500390565b60006020828403121561062257600080fd5b815180151581146102d857600080fd5b60005b8381101561064d578181015183820152602001610635565b838111156102c65750506000910152565b60008251610670818460208701610632565b9190910192915050565b6020815260008251806020840152610699816040850160208701610632565b601f01601f1916919091016040019291505056fea2646970667358221220f83df9be484204d29c000a118187aee7d3ca7efcb094476e4ad893327bb967b564736f6c63430008080033fee62a9eec0be50eb061c711990ef0f1e17b40ea131d9347b0468acdaf8bf243a264697066735822122004cb57416a8ec399cf46ebc53b83145051fc69bea0c78392921f33cb6c3bc48964736f6c63430008080033",
  "linkReferences": {},
  "deployedLinkReferences": {}
}