{
  "_format": "hh-sol-artifact-1",
  "contractName": "DXDGuild",
  "sourceName": "dxdao-contracts/contracts/erc20guild/implementations/DXDGuild.sol",
  "abi": [
    {
      "anonymous": false,
      "inputs": [
        {
          "indexed": true,
          "internalType": "address",
          "name": "previousOwner",
          "type": "address"
        },
        {
          "indexed": true,
          "internalType": "address",
          "name": "newOwner",
          "type": "address"
        }
      ],
      "name": "OwnershipTransferred",
      "type": "event"
    },
    {
      "anonymous": false,
      "inputs": [
        {
          "indexed": true,
          "internalType": "bytes32",
          "name": "proposalId",
          "type": "bytes32"
        },
        {
          "indexed": false,
          "internalType": "uint256",
          "name": "newState",
          "type": "uint256"
        }
      ],
      "name": "ProposalStateChanged",
      "type": "event"
    },
    {
      "anonymous": false,
      "inputs": [
        {
          "indexed": false,
          "internalType": "address",
          "name": "voter",
          "type": "address"
        },
        {
          "indexed": false,
          "internalType": "uint256",
          "name": "value",
          "type": "uint256"
        }
      ],
      "name": "TokensLocked",
      "type": "event"
    },
    {
      "anonymous": false,
      "inputs": [
        {
          "indexed": false,
          "internalType": "address",
          "name": "voter",
          "type": "address"
        },
        {
          "indexed": false,
          "internalType": "uint256",
          "name": "value",
          "type": "uint256"
        }
      ],
      "name": "TokensWithdrawn",
      "type": "event"
    },
    {
      "anonymous": false,
      "inputs": [
        {
          "indexed": true,
          "internalType": "bytes32",
          "name": "proposalId",
          "type": "bytes32"
        },
        {
          "indexed": true,
          "internalType": "uint256",
          "name": "option",
          "type": "uint256"
        },
        {
          "indexed": false,
          "internalType": "address",
          "name": "voter",
          "type": "address"
        },
        {
          "indexed": false,
          "internalType": "uint256",
          "name": "votingPower",
          "type": "uint256"
        }
      ],
      "name": "VoteAdded",
      "type": "event"
    },
    {
      "stateMutability": "payable",
      "type": "fallback"
    },
    {
      "inputs": [],
      "name": "MAX_OPTIONS_PER_PROPOSAL",
      "outputs": [
        {
          "internalType": "uint8",
          "name": "",
          "type": "uint8"
        }
      ],
      "stateMutability": "view",
      "type": "function"
    },
    {
      "inputs": [],
      "name": "activeProposalsNow",
      "outputs": [
        {
          "internalType": "uint256",
          "name": "",
          "type": "uint256"
        }
      ],
      "stateMutability": "view",
      "type": "function"
    },
    {
      "inputs": [
        {
          "internalType": "address[]",
          "name": "to",
          "type": "address[]"
        },
        {
          "internalType": "bytes[]",
          "name": "data",
          "type": "bytes[]"
        },
        {
          "internalType": "uint256[]",
          "name": "value",
          "type": "uint256[]"
        },
        {
          "internalType": "uint256",
          "name": "totalOptions",
          "type": "uint256"
        },
        {
          "internalType": "string",
          "name": "title",
          "type": "string"
        },
        {
          "internalType": "string",
          "name": "contentHash",
          "type": "string"
        }
      ],
      "name": "createProposal",
      "outputs": [
        {
          "internalType": "bytes32",
          "name": "",
          "type": "bytes32"
        }
      ],
      "stateMutability": "nonpayable",
      "type": "function"
    },
    {
      "inputs": [
        {
          "internalType": "bytes32",
          "name": "proposalId",
          "type": "bytes32"
        }
      ],
      "name": "endProposal",
      "outputs": [],
      "stateMutability": "nonpayable",
      "type": "function"
    },
    {
      "inputs": [
        {
          "internalType": "bytes32",
          "name": "root",
          "type": "bytes32"
        },
        {
          "internalType": "address",
          "name": "voter",
          "type": "address"
        },
        {
          "internalType": "bytes32",
          "name": "voteHash",
          "type": "bytes32"
        },
        {
          "internalType": "bytes32[]",
          "name": "proof",
          "type": "bytes32[]"
        },
        {
          "internalType": "bytes32",
          "name": "proposalId",
          "type": "bytes32"
        },
        {
          "internalType": "uint256",
          "name": "option",
          "type": "uint256"
        },
        {
          "internalType": "uint256",
          "name": "votingPower",
          "type": "uint256"
        }
      ],
      "name": "executeSignedVote",
      "outputs": [],
      "stateMutability": "nonpayable",
      "type": "function"
    },
    {
      "inputs": [
        {
          "internalType": "bytes32[]",
          "name": "roots",
          "type": "bytes32[]"
        },
        {
          "internalType": "address[]",
          "name": "voters",
          "type": "address[]"
        },
        {
          "internalType": "bytes32[]",
          "name": "votesHashes",
          "type": "bytes32[]"
        },
        {
          "internalType": "bytes32[][]",
          "name": "proofs",
          "type": "bytes32[][]"
        },
        {
          "internalType": "bytes32[]",
          "name": "proposalIds",
          "type": "bytes32[]"
        },
        {
          "internalType": "uint256[]",
          "name": "options",
          "type": "uint256[]"
        },
        {
          "internalType": "uint256[]",
          "name": "votingPowers",
          "type": "uint256[]"
        }
      ],
      "name": "executeSignedVotesBatches",
      "outputs": [],
      "stateMutability": "nonpayable",
      "type": "function"
    },
    {
      "inputs": [
        {
          "internalType": "bytes32[]",
          "name": "proposalIds",
          "type": "bytes32[]"
        },
        {
          "internalType": "uint256[]",
          "name": "options",
          "type": "uint256[]"
        },
        {
          "internalType": "uint256[]",
          "name": "votingPowers",
          "type": "uint256[]"
        }
      ],
      "name": "executeVotes",
      "outputs": [
        {
          "internalType": "bool[]",
          "name": "",
          "type": "bool[]"
        }
      ],
      "stateMutability": "nonpayable",
      "type": "function"
    },
    {
      "inputs": [],
      "name": "getActiveProposalsNow",
      "outputs": [
        {
          "internalType": "uint256",
          "name": "",
          "type": "uint256"
        }
      ],
      "stateMutability": "view",
      "type": "function"
    },
    {
      "inputs": [],
      "name": "getLockTime",
      "outputs": [
        {
          "internalType": "uint256",
          "name": "",
          "type": "uint256"
        }
      ],
      "stateMutability": "view",
      "type": "function"
    },
    {
      "inputs": [],
      "name": "getMaxActiveProposals",
      "outputs": [
        {
          "internalType": "uint256",
          "name": "",
          "type": "uint256"
        }
      ],
      "stateMutability": "view",
      "type": "function"
    },
    {
      "inputs": [],
      "name": "getMaxGasPrice",
      "outputs": [
        {
          "internalType": "uint256",
          "name": "",
          "type": "uint256"
        }
      ],
      "stateMutability": "view",
      "type": "function"
    },
    {
      "inputs": [],
      "name": "getMinimumMembersForProposalCreation",
      "outputs": [
        {
          "internalType": "uint256",
          "name": "",
          "type": "uint256"
        }
      ],
      "stateMutability": "view",
      "type": "function"
    },
    {
      "inputs": [],
      "name": "getMinimumTokensLockedForProposalCreation",
      "outputs": [
        {
          "internalType": "uint256",
          "name": "",
          "type": "uint256"
        }
      ],
      "stateMutability": "view",
      "type": "function"
    },
    {
      "inputs": [],
      "name": "getName",
      "outputs": [
        {
          "internalType": "string",
          "name": "",
          "type": "string"
        }
      ],
      "stateMutability": "view",
      "type": "function"
    },
    {
      "inputs": [],
      "name": "getPermissionRegistry",
      "outputs": [
        {
          "internalType": "address",
          "name": "",
          "type": "address"
        }
      ],
      "stateMutability": "view",
      "type": "function"
    },
    {
      "inputs": [
        {
          "internalType": "bytes32",
          "name": "proposalId",
          "type": "bytes32"
        }
      ],
      "name": "getProposal",
      "outputs": [
        {
          "components": [
            {
              "internalType": "address",
              "name": "creator",
              "type": "address"
            },
            {
              "internalType": "uint256",
              "name": "startTime",
              "type": "uint256"
            },
            {
              "internalType": "uint256",
              "name": "endTime",
              "type": "uint256"
            },
            {
              "internalType": "address[]",
              "name": "to",
              "type": "address[]"
            },
            {
              "internalType": "bytes[]",
              "name": "data",
              "type": "bytes[]"
            },
            {
              "internalType": "uint256[]",
              "name": "value",
              "type": "uint256[]"
            },
            {
              "internalType": "string",
              "name": "title",
              "type": "string"
            },
            {
              "internalType": "string",
              "name": "contentHash",
              "type": "string"
            },
            {
              "internalType": "enum BaseERC20Guild.ProposalState",
              "name": "state",
              "type": "uint8"
            },
            {
              "internalType": "uint256[]",
              "name": "totalVotes",
              "type": "uint256[]"
            }
          ],
          "internalType": "struct BaseERC20Guild.Proposal",
          "name": "",
          "type": "tuple"
        }
      ],
      "stateMutability": "view",
      "type": "function"
    },
    {
      "inputs": [],
      "name": "getProposalTime",
      "outputs": [
        {
          "internalType": "uint256",
          "name": "",
          "type": "uint256"
        }
      ],
      "stateMutability": "view",
      "type": "function"
    },
    {
      "inputs": [
        {
          "internalType": "bytes32",
          "name": "proposalId",
          "type": "bytes32"
        },
        {
          "internalType": "address",
          "name": "voter",
          "type": "address"
        }
      ],
      "name": "getProposalVotesOfVoter",
      "outputs": [
        {
          "internalType": "uint256",
          "name": "option",
          "type": "uint256"
        },
        {
          "internalType": "uint256",
          "name": "votingPower",
          "type": "uint256"
        }
      ],
      "stateMutability": "view",
      "type": "function"
    },
    {
      "inputs": [],
      "name": "getProposalsIds",
      "outputs": [
        {
          "internalType": "bytes32[]",
          "name": "",
          "type": "bytes32[]"
        }
      ],
      "stateMutability": "view",
      "type": "function"
    },
    {
      "inputs": [],
      "name": "getProposalsIdsLength",
      "outputs": [
        {
          "internalType": "uint256",
          "name": "",
          "type": "uint256"
        }
      ],
      "stateMutability": "view",
      "type": "function"
    },
    {
      "inputs": [
        {
          "internalType": "bytes32",
          "name": "signedVoteHash",
          "type": "bytes32"
        }
      ],
      "name": "getSignedVote",
      "outputs": [
        {
          "internalType": "bool",
          "name": "",
          "type": "bool"
        }
      ],
      "stateMutability": "view",
      "type": "function"
    },
    {
      "inputs": [],
      "name": "getTimeForExecution",
      "outputs": [
        {
          "internalType": "uint256",
          "name": "",
          "type": "uint256"
        }
      ],
      "stateMutability": "view",
      "type": "function"
    },
    {
      "inputs": [],
      "name": "getToken",
      "outputs": [
        {
          "internalType": "address",
          "name": "",
          "type": "address"
        }
      ],
      "stateMutability": "view",
      "type": "function"
    },
    {
      "inputs": [],
      "name": "getTokenVault",
      "outputs": [
        {
          "internalType": "address",
          "name": "",
          "type": "address"
        }
      ],
      "stateMutability": "view",
      "type": "function"
    },
    {
      "inputs": [],
      "name": "getTotalLocked",
      "outputs": [
        {
          "internalType": "uint256",
          "name": "",
          "type": "uint256"
        }
      ],
      "stateMutability": "view",
      "type": "function"
    },
    {
      "inputs": [],
      "name": "getTotalMembers",
      "outputs": [
        {
          "internalType": "uint256",
          "name": "",
          "type": "uint256"
        }
      ],
      "stateMutability": "view",
      "type": "function"
    },
    {
      "inputs": [],
      "name": "getTotalProposals",
      "outputs": [
        {
          "internalType": "uint256",
          "name": "",
          "type": "uint256"
        }
      ],
      "stateMutability": "view",
      "type": "function"
    },
    {
      "inputs": [],
      "name": "getVoteGas",
      "outputs": [
        {
          "internalType": "uint256",
          "name": "",
          "type": "uint256"
        }
      ],
      "stateMutability": "view",
      "type": "function"
    },
    {
      "inputs": [
        {
          "internalType": "address",
          "name": "voter",
          "type": "address"
        }
      ],
      "name": "getVoterLockTimestamp",
      "outputs": [
        {
          "internalType": "uint256",
          "name": "",
          "type": "uint256"
        }
      ],
      "stateMutability": "view",
      "type": "function"
    },
    {
      "inputs": [],
      "name": "getVotingPowerForProposalCreation",
      "outputs": [
        {
          "internalType": "uint256",
          "name": "",
          "type": "uint256"
        }
      ],
      "stateMutability": "view",
      "type": "function"
    },
    {
      "inputs": [],
      "name": "getVotingPowerForProposalExecution",
      "outputs": [
        {
          "internalType": "uint256",
          "name": "",
          "type": "uint256"
        }
      ],
      "stateMutability": "view",
      "type": "function"
    },
    {
      "inputs": [
        {
          "internalType": "address",
          "name": "voter",
          "type": "address"
        },
        {
          "internalType": "bytes32",
          "name": "proposalId",
          "type": "bytes32"
        },
        {
          "internalType": "uint256",
          "name": "option",
          "type": "uint256"
        },
        {
          "internalType": "uint256",
          "name": "votingPower",
          "type": "uint256"
        }
      ],
      "name": "hashVote",
      "outputs": [
        {
          "internalType": "bytes32",
          "name": "",
          "type": "bytes32"
        }
      ],
      "stateMutability": "pure",
      "type": "function"
    },
    {
      "inputs": [
        {
          "internalType": "address",
          "name": "_token",
          "type": "address"
        },
        {
          "internalType": "uint256",
          "name": "_proposalTime",
          "type": "uint256"
        },
        {
          "internalType": "uint256",
          "name": "_timeForExecution",
          "type": "uint256"
        },
        {
          "internalType": "uint256",
          "name": "_votingPowerPercentageForProposalExecution",
          "type": "uint256"
        },
        {
          "internalType": "uint256",
          "name": "_votingPowerPercentageForProposalCreation",
          "type": "uint256"
        },
        {
          "internalType": "uint256",
          "name": "_voteGas",
          "type": "uint256"
        },
        {
          "internalType": "uint256",
          "name": "_maxGasPrice",
          "type": "uint256"
        },
        {
          "internalType": "uint256",
          "name": "_maxActiveProposals",
          "type": "uint256"
        },
        {
          "internalType": "uint256",
          "name": "_lockTime",
          "type": "uint256"
        },
        {
          "internalType": "address",
          "name": "_permissionRegistry",
          "type": "address"
        },
        {
          "internalType": "address",
          "name": "_votingMachine",
          "type": "address"
        }
      ],
      "name": "initialize",
      "outputs": [],
      "stateMutability": "nonpayable",
      "type": "function"
    },
    {
      "inputs": [
        {
          "internalType": "address",
          "name": "_token",
          "type": "address"
        },
        {
          "internalType": "uint256",
          "name": "_proposalTime",
          "type": "uint256"
        },
        {
          "internalType": "uint256",
          "name": "_timeForExecution",
          "type": "uint256"
        },
        {
          "internalType": "uint256",
          "name": "_votingPowerPercentageForProposalExecution",
          "type": "uint256"
        },
        {
          "internalType": "uint256",
          "name": "_votingPowerPercentageForProposalCreation",
          "type": "uint256"
        },
        {
          "internalType": "string",
          "name": "_name",
          "type": "string"
        },
        {
          "internalType": "uint256",
          "name": "_voteGas",
          "type": "uint256"
        },
        {
          "internalType": "uint256",
          "name": "_maxGasPrice",
          "type": "uint256"
        },
        {
          "internalType": "uint256",
          "name": "_maxActiveProposals",
          "type": "uint256"
        },
        {
          "internalType": "uint256",
          "name": "_lockTime",
          "type": "uint256"
        },
        {
          "internalType": "address",
          "name": "_permissionRegistry",
          "type": "address"
        }
      ],
      "name": "initialize",
      "outputs": [],
      "stateMutability": "nonpayable",
      "type": "function"
    },
    {
      "inputs": [],
      "name": "lockTime",
      "outputs": [
        {
          "internalType": "uint256",
          "name": "",
          "type": "uint256"
        }
      ],
      "stateMutability": "view",
      "type": "function"
    },
    {
      "inputs": [
        {
          "internalType": "uint256",
          "name": "tokenAmount",
          "type": "uint256"
        }
      ],
      "name": "lockTokens",
      "outputs": [],
      "stateMutability": "nonpayable",
      "type": "function"
    },
    {
      "inputs": [],
      "name": "maxActiveProposals",
      "outputs": [
        {
          "internalType": "uint256",
          "name": "",
          "type": "uint256"
        }
      ],
      "stateMutability": "view",
      "type": "function"
    },
    {
      "inputs": [],
      "name": "maxGasPrice",
      "outputs": [
        {
          "internalType": "uint256",
          "name": "",
          "type": "uint256"
        }
      ],
      "stateMutability": "view",
      "type": "function"
    },
    {
      "inputs": [],
      "name": "minimumMembersForProposalCreation",
      "outputs": [
        {
          "internalType": "uint256",
          "name": "",
          "type": "uint256"
        }
      ],
      "stateMutability": "view",
      "type": "function"
    },
    {
      "inputs": [],
      "name": "minimumTokensLockedForProposalCreation",
      "outputs": [
        {
          "internalType": "uint256",
          "name": "",
          "type": "uint256"
        }
      ],
      "stateMutability": "view",
      "type": "function"
    },
    {
      "inputs": [],
      "name": "name",
      "outputs": [
        {
          "internalType": "string",
          "name": "",
          "type": "string"
        }
      ],
      "stateMutability": "view",
      "type": "function"
    },
    {
      "inputs": [],
      "name": "owner",
      "outputs": [
        {
          "internalType": "address",
          "name": "",
          "type": "address"
        }
      ],
      "stateMutability": "view",
      "type": "function"
    },
    {
      "inputs": [],
      "name": "proposalTime",
      "outputs": [
        {
          "internalType": "uint256",
          "name": "",
          "type": "uint256"
        }
      ],
      "stateMutability": "view",
      "type": "function"
    },
    {
      "inputs": [
        {
          "internalType": "bytes32",
          "name": "",
          "type": "bytes32"
        },
        {
          "internalType": "address",
          "name": "",
          "type": "address"
        }
      ],
      "name": "proposalVotes",
      "outputs": [
        {
          "internalType": "uint256",
          "name": "option",
          "type": "uint256"
        },
        {
          "internalType": "uint256",
          "name": "votingPower",
          "type": "uint256"
        }
      ],
      "stateMutability": "view",
      "type": "function"
    },
    {
      "inputs": [
        {
          "internalType": "bytes32",
          "name": "",
          "type": "bytes32"
        }
      ],
      "name": "proposals",
      "outputs": [
        {
          "internalType": "address",
          "name": "creator",
          "type": "address"
        },
        {
          "internalType": "uint256",
          "name": "startTime",
          "type": "uint256"
        },
        {
          "internalType": "uint256",
          "name": "endTime",
          "type": "uint256"
        },
        {
          "internalType": "string",
          "name": "title",
          "type": "string"
        },
        {
          "internalType": "string",
          "name": "contentHash",
          "type": "string"
        },
        {
          "internalType": "enum BaseERC20Guild.ProposalState",
          "name": "state",
          "type": "uint8"
        }
      ],
      "stateMutability": "view",
      "type": "function"
    },
    {
      "inputs": [
        {
          "internalType": "uint256",
          "name": "",
          "type": "uint256"
        }
      ],
      "name": "proposalsIds",
      "outputs": [
        {
          "internalType": "bytes32",
          "name": "",
          "type": "bytes32"
        }
      ],
      "stateMutability": "view",
      "type": "function"
    },
    {
      "inputs": [],
      "name": "renounceOwnership",
      "outputs": [],
      "stateMutability": "nonpayable",
      "type": "function"
    },
    {
      "inputs": [
        {
          "internalType": "uint256",
          "name": "_proposalTime",
          "type": "uint256"
        },
        {
          "internalType": "uint256",
          "name": "_timeForExecution",
          "type": "uint256"
        },
        {
          "internalType": "uint256",
          "name": "_votingPowerPercentageForProposalExecution",
          "type": "uint256"
        },
        {
          "internalType": "uint256",
          "name": "_votingPowerPercentageForProposalCreation",
          "type": "uint256"
        },
        {
          "internalType": "uint256",
          "name": "_voteGas",
          "type": "uint256"
        },
        {
          "internalType": "uint256",
          "name": "_maxGasPrice",
          "type": "uint256"
        },
        {
          "internalType": "uint256",
          "name": "_maxActiveProposals",
          "type": "uint256"
        },
        {
          "internalType": "uint256",
          "name": "_lockTime",
          "type": "uint256"
        },
        {
          "internalType": "uint256",
          "name": "_minimumMembersForProposalCreation",
          "type": "uint256"
        },
        {
          "internalType": "uint256",
          "name": "_minimumTokensLockedForProposalCreation",
          "type": "uint256"
        }
      ],
      "name": "setConfig",
      "outputs": [],
      "stateMutability": "nonpayable",
      "type": "function"
    },
    {
      "inputs": [
        {
          "internalType": "bytes32",
          "name": "proposalId",
          "type": "bytes32"
        },
        {
          "internalType": "uint256",
          "name": "option",
          "type": "uint256"
        },
        {
          "internalType": "uint256",
          "name": "votingPower",
          "type": "uint256"
        },
        {
          "internalType": "address",
          "name": "voter",
          "type": "address"
        },
        {
          "internalType": "bytes",
          "name": "signature",
          "type": "bytes"
        }
      ],
      "name": "setSignedVote",
      "outputs": [],
      "stateMutability": "nonpayable",
      "type": "function"
    },
    {
      "inputs": [
        {
          "internalType": "bytes32",
          "name": "proposalId",
          "type": "bytes32"
        },
        {
          "internalType": "uint256",
          "name": "option",
          "type": "uint256"
        },
        {
          "internalType": "uint256",
          "name": "votingPower",
          "type": "uint256"
        }
      ],
      "name": "setVote",
      "outputs": [],
      "stateMutability": "nonpayable",
      "type": "function"
    },
    {
      "inputs": [
        {
          "internalType": "bytes32",
          "name": "",
          "type": "bytes32"
        }
      ],
      "name": "signedVotes",
      "outputs": [
        {
          "internalType": "bool",
          "name": "",
          "type": "bool"
        }
      ],
      "stateMutability": "view",
      "type": "function"
    },
    {
      "inputs": [],
      "name": "timeForExecution",
      "outputs": [
        {
          "internalType": "uint256",
          "name": "",
          "type": "uint256"
        }
      ],
      "stateMutability": "view",
      "type": "function"
    },
    {
      "inputs": [],
      "name": "token",
      "outputs": [
        {
          "internalType": "contract IERC20Upgradeable",
          "name": "",
          "type": "address"
        }
      ],
      "stateMutability": "view",
      "type": "function"
    },
    {
      "inputs": [],
      "name": "tokenVault",
      "outputs": [
        {
          "internalType": "contract TokenVault",
          "name": "",
          "type": "address"
        }
      ],
      "stateMutability": "view",
      "type": "function"
    },
    {
      "inputs": [
        {
          "internalType": "address",
          "name": "",
          "type": "address"
        }
      ],
      "name": "tokensLocked",
      "outputs": [
        {
          "internalType": "uint256",
          "name": "amount",
          "type": "uint256"
        },
        {
          "internalType": "uint256",
          "name": "timestamp",
          "type": "uint256"
        }
      ],
      "stateMutability": "view",
      "type": "function"
    },
    {
      "inputs": [],
      "name": "totalLocked",
      "outputs": [
        {
          "internalType": "uint256",
          "name": "",
          "type": "uint256"
        }
      ],
      "stateMutability": "view",
      "type": "function"
    },
    {
      "inputs": [],
      "name": "totalProposals",
      "outputs": [
        {
          "internalType": "uint256",
          "name": "",
          "type": "uint256"
        }
      ],
      "stateMutability": "view",
      "type": "function"
    },
    {
      "inputs": [
        {
          "internalType": "address",
          "name": "newOwner",
          "type": "address"
        }
      ],
      "name": "transferOwnership",
      "outputs": [],
      "stateMutability": "nonpayable",
      "type": "function"
    },
    {
      "inputs": [
        {
          "internalType": "bytes32",
          "name": "root",
          "type": "bytes32"
        },
        {
          "internalType": "bytes32",
          "name": "voteHash",
          "type": "bytes32"
        },
        {
          "internalType": "bytes32[]",
          "name": "proof",
          "type": "bytes32[]"
        }
      ],
      "name": "validateMerkleTreeLeaf",
      "outputs": [
        {
          "internalType": "bool",
          "name": "",
          "type": "bool"
        }
      ],
      "stateMutability": "nonpayable",
      "type": "function"
    },
    {
      "inputs": [],
      "name": "voteGas",
      "outputs": [
        {
          "internalType": "uint256",
          "name": "",
          "type": "uint256"
        }
      ],
      "stateMutability": "view",
      "type": "function"
    },
    {
      "inputs": [
        {
          "internalType": "address",
          "name": "account",
          "type": "address"
        }
      ],
      "name": "votingPowerOf",
      "outputs": [
        {
          "internalType": "uint256",
          "name": "",
          "type": "uint256"
        }
      ],
      "stateMutability": "view",
      "type": "function"
    },
    {
      "inputs": [],
      "name": "votingPowerPercentageForProposalCreation",
      "outputs": [
        {
          "internalType": "uint256",
          "name": "",
          "type": "uint256"
        }
      ],
      "stateMutability": "view",
      "type": "function"
    },
    {
      "inputs": [],
      "name": "votingPowerPercentageForProposalExecution",
      "outputs": [
        {
          "internalType": "uint256",
          "name": "",
          "type": "uint256"
        }
      ],
      "stateMutability": "view",
      "type": "function"
    },
    {
      "inputs": [
        {
          "internalType": "uint256",
          "name": "tokenAmount",
          "type": "uint256"
        }
      ],
      "name": "withdrawTokens",
      "outputs": [],
      "stateMutability": "nonpayable",
      "type": "function"
    }
  ],
  "bytecode": "0x608060405234801561001057600080fd5b50615edf80620000216000396000f3fe608060405260043610620003e55760003560e01c8063671abed71162000203578063ad6c1e341162000117578063e045035311620000a7578063f4732da61162000075578063f4732da61462000c06578063f98606a71462000c1d578063fc0c546a1462000c35578063fc4e703f1462000c5757005b8063e04503531462000b6e578063e158080a1462000b86578063f09951981462000b9e578063f2fde38b1462000be157005b8063b7c15f8d11620000e5578063b7c15f8d1462000b04578063bcc3f3bd1462000b1b578063c0a4d64d1462000b40578063c93e01e31462000b5757005b8063ad6c1e341462000a8b578063ae6192341462000aa2578063b3929aaa1462000aba578063b3b470611462000adf57005b80638bb8591e1162000193578063a16fe3421162000161578063a16fe3421462000a16578063a78d80fc1462000a36578063a7aeb5571462000a4e578063ab6ea06b1462000a6657005b80638bb8591e14620009955780638da5cb5b14620009ba5780638f18030514620009da57806392b7165414620009f157005b806377027ff411620001d157806377027ff4146200090e5780638029eff1146200092557806386e27125146200095957806389c98c06146200097e57005b8063671abed714620008865780636c8b72f614620008ba5780636e27d88914620008d1578063715018a614620008f657005b806325c069fc11620002fb5780633de39c11116200028b57806356891412116200025957806356891412146200081d5780635bc789d914620008355780635e508c2c146200085757806364fe6ed2146200086f57005b80633de39c1114620007995780633f10cf1514620007b1578063430694cf14620007c957806354f2f7af14620007fd57005b8063315a095d11620002c9578063315a095d14620006fe57806332ed5b12146200072357806336f8f8d9146200075c5780633bf353fb146200078157005b806325c069fc146200062d5780632d5b17de14620006575780632d757c3e146200067c5780632fd99c0014620006b957005b806316bbecde116200037757806321df0da7116200034557806321df0da714620005a65780632229a0e214620005da5780632457e39314620005f15780632467ef94146200061657005b806316bbecde146200053a57806317d7de7c146200055f578063184a0ae914620005775780631a5007dd146200058f57005b80630d66808711620003b55780630d66808714620004b3578063123f6d6714620004cb578063130485fe14620004f057806313108d74146200051557005b80623a40d014620003e757806301a598a6146200041757806306fdde0314620004655780630a366a63146200048c575b005b348015620003f457600080fd5b50620003ff62000c6f565b6040516200040e919062004530565b60405180910390f35b3480156200042457600080fd5b506200044f6200043636600462004593565b6012602052600090815260409020805460019091015482565b604080519283526020830191909152016200040e565b3480156200047257600080fd5b506200047d62000cc9565b6040516200040e919062004601565b3480156200049957600080fd5b50620004a462000d5f565b6040519081526020016200040e565b348015620004c057600080fd5b50620004a4600d5481565b348015620004d857600080fd5b50620003e5620004ea36600462004616565b62000d8c565b348015620004fd57600080fd5b506200044f6200050f3660046200467f565b62000f25565b3480156200052257600080fd5b50620004a46200053436600462004918565b62000f57565b3480156200054757600080fd5b50620003e56200055936600462004a01565b6200153d565b3480156200056c57600080fd5b506200047d62001684565b3480156200058457600080fd5b50620004a460035481565b3480156200059c57600080fd5b50600a54620004a4565b348015620005b357600080fd5b506000546001600160a01b03165b6040516001600160a01b0390911681526020016200040e565b348015620005e757600080fd5b50601654620004a4565b348015620005fe57600080fd5b50620003e56200061036600462004a2e565b62001715565b3480156200062357600080fd5b50600c54620004a4565b3480156200063a57600080fd5b5062000644600a81565b60405160ff90911681526020016200040e565b3480156200066457600080fd5b50620003e56200067636600462004ac9565b6200185e565b3480156200068957600080fd5b50620004a46200069b36600462004593565b6001600160a01b031660009081526012602052604090206001015490565b348015620006c657600080fd5b50620006ed620006d836600462004b39565b60136020526000908152604090205460ff1681565b60405190151581526020016200040e565b3480156200070b57600080fd5b50620003e56200071d36600462004b39565b62001b24565b3480156200073057600080fd5b50620007486200074236600462004b39565b62001d7f565b6040516200040e9695949392919062004b8c565b3480156200076957600080fd5b50620003e56200077b36600462004bec565b62001ee3565b3480156200078e57600080fd5b50620004a4600c5481565b348015620007a657600080fd5b50620004a460085481565b348015620007be57600080fd5b50620004a460045481565b348015620007d657600080fd5b50620007ee620007e836600462004b39565b62002109565b6040516200040e919062004d5e565b3480156200080a57600080fd5b506011546001600160a01b0316620005c1565b3480156200082a57600080fd5b50620004a4600e5481565b3480156200084257600080fd5b50601154620005c1906001600160a01b031681565b3480156200086457600080fd5b50620004a460055481565b3480156200087c57600080fd5b50601054620004a4565b3480156200089357600080fd5b50620008ab620008a536600462004e6b565b620024bc565b6040516200040e919062004efc565b348015620008c757600080fd5b50600754620004a4565b348015620008de57600080fd5b50620003e5620008f036600462004b39565b6200292d565b3480156200090357600080fd5b50620003e562002abd565b3480156200091b57600080fd5b50600954620004a4565b3480156200093257600080fd5b50620006ed6200094436600462004b39565b60009081526013602052604090205460ff1690565b3480156200096657600080fd5b50620003e56200097836600462004f38565b62002b27565b3480156200098b57600080fd5b50600854620004a4565b348015620009a257600080fd5b50620003e5620009b43660046200504e565b62002de6565b348015620009c757600080fd5b50604a546001600160a01b0316620005c1565b348015620009e757600080fd5b50600b54620004a4565b348015620009fe57600080fd5b50620004a462000a103660046200517e565b62002ee7565b34801562000a2357600080fd5b506001546001600160a01b0316620005c1565b34801562000a4357600080fd5b50620004a4600a5481565b34801562000a5b57600080fd5b50620004a4600f5481565b34801562000a7357600080fd5b50620006ed62000a85366004620051ba565b62002f3e565b34801562000a9857600080fd5b50600f54620004a4565b34801562000aaf57600080fd5b50620004a462002f55565b34801562000ac757600080fd5b50620004a462000ad936600462004b39565b62002f6f565b34801562000aec57600080fd5b50620003e562000afe36600462004b39565b62002f91565b34801562000b1157600080fd5b50600454620004a4565b34801562000b2857600080fd5b50620004a462000b3a36600462004593565b620038de565b34801562000b4d57600080fd5b50600d54620004a4565b34801562000b6457600080fd5b50600354620004a4565b34801562000b7b57600080fd5b50620004a460095481565b34801562000b9357600080fd5b50620004a460105481565b34801562000bab57600080fd5b506200044f62000bbd3660046200467f565b60146020908152600092835260408084209091529082529020805460019091015482565b34801562000bee57600080fd5b50620003e562000c0036600462004593565b620038f9565b34801562000c1357600080fd5b50600e54620004a4565b34801562000c2a57600080fd5b50620004a460065481565b34801562000c4257600080fd5b50600054620005c1906001600160a01b031681565b34801562000c6457600080fd5b50620004a460075481565b6060601680548060200260200160405190810160405280929190818152602001828054801562000cbf57602002820191906000526020600020905b81548152602001906001019080831162000caa575b5050505050905090565b6002805462000cd89062005203565b80601f016020809104026020016040519081016040528092919081815260200182805462000d069062005203565b801562000d575780601f1062000d2b5761010080835404028352916020019162000d57565b820191906000526020600020905b81548152906001019060200180831162000d3957829003601f168201915b505050505081565b600062000d8761271062000d8060065462000d79600e5490565b90620039ca565b90620039df565b905090565b33301462000e125760405162461bcd60e51b815260206004820152604260248201527f45524332304775696c643a204f6e6c792063616c6c61626c652062792045524360448201527f32306775696c6420697473656c66206f72207768656e20696e697469616c697a606482015261195960f21b608482015260a4015b60405180910390fd5b60008a1162000e355760405162461bcd60e51b815260040162000e099062005240565b8983101562000e585760405162461bcd60e51b815260040162000e09906200528f565b6000881162000e7b5760405162461bcd60e51b815260040162000e0990620052ec565b6201c90886111562000ef65760405162461bcd60e51b815260206004820152603960248201527f45524332304775696c643a20766f7465206761732068617320746f206265206560448201527f7175616c206f72206c6f776572207468616e2031313730303000000000000000606482015260840162000e09565b600399909955600497909755600595909555600693909355600791909155600855600955600d55600f55601055565b60008281526014602090815260408083206001600160a01b0385168452909152902080546001909101545b9250929050565b6000601054600e54101562000fd55760405162461bcd60e51b815260206004820152603960248201527f45524332304775696c643a204e6f7420656e6f75676820746f6b656e73206c6f60448201527f636b656420746f2063726561746520612070726f706f73616c00000000000000606482015260840162000e09565b600f54600b541015620010475760405162461bcd60e51b815260206004820152603360248201527f45524332304775696c643a204e6f7420656e6f756768206d656d6265727320746044820152721bc818dc99585d194818481c1c9bdc1bdcd85b606a1b606482015260840162000e09565b600954600c5410620010bb5760405162461bcd60e51b815260206004820152603660248201527f45524332304775696c643a204d6178696d756d20616d6f756e74206f662061636044820152751d1a5d99481c1c9bdc1bdcd85b1cc81c995858da195960521b606482015260840162000e09565b620010c562000d5f565b620010d033620038de565b10156200113e5760405162461bcd60e51b815260206004820152603560248201527f45524332304775696c643a204e6f7420656e6f75676820766f74696e67506f77604482015274195c881d1bc818dc99585d19481c1c9bdc1bdcd85b605a1b606482015260840162000e09565b8551875114801562001151575084518751145b620011bc5760405162461bcd60e51b815260206004820152603460248201527f45524332304775696c643a2057726f6e67206c656e677468206f6620746f2c2060448201527364617461206f722076616c75652061727261797360601b606482015260840162000e09565b6000875111620012295760405162461bcd60e51b815260206004820152603160248201527f45524332304775696c643a20746f2c20646174612076616c7565206172726179604482015270732063616e6e6f7420626520656d70747960781b606482015260840162000e09565b865184111580156200124657508451620012449085620039ed565b155b620012ba5760405162461bcd60e51b815260206004820152603760248201527f45524332304775696c643a20496e76616c696420746f74616c4f7074696f6e7360448201527f206f72206f7074696f6e2063616c6c73206c656e677468000000000000000000606482015260840162000e09565b600a841115620013335760405162461bcd60e51b815260206004820152603a60248201527f45524332304775696c643a204d6178696d756d20616d6f756e74206f66206f7060448201527f74696f6e73207065722070726f706f73616c2072656163686564000000000000606482015260840162000e09565b600a546040516bffffffffffffffffffffffff193360601b1660208201524260348201526054810191909152600090607401604051602081830303815290604052805190602001209050620013956001600a54620039fb90919063ffffffff16565b600a55600081815260156020526040902080546001600160a01b031916331781554260018201819055600354620013cd9190620039fb565b60028201558851620013e990600383019060208c0190620042b7565b5087516200140190600483019060208b019062004321565b5086516200141990600583019060208a019062004381565b508451620014319060068301906020880190620043bf565b508351620014499060078301906020870190620043bf565b5062001457866001620039fb565b6001600160401b03811115620014715762001471620046ae565b6040519080825280602002602001820160405280156200149b578160200160208202803683370190505b508051620014b491600984019160209091019062004381565b5060088101805460ff19166001908117909155600c54620014d591620039fb565b600c558160008051602062005e8a833981519152600160405190815260200160405180910390a250601680546001810182556000919091527fd833147d7dc355ba459fc788f669e58cfaf9dc25ddcd0702e87d69c7b512428901819055979650505050505050565b6000838152601560205260409020600201544210620015705760405162461bcd60e51b815260040162000e099062005349565b806200157c33620038de565b10158015620015a65750600083815260146020908152604080832033845290915290206001015481115b620015c55760405162461bcd60e51b815260040162000e099062005394565b60008381526014602090815260408083203384529091529020541580156200160757506000838152601460209081526040808320338452909152902060010154155b80620016525750600083815260146020908152604080832033845290915290205482148015620016525750600083815260146020908152604080832033845290915290206001015481115b620016715760405162461bcd60e51b815260040162000e0990620053da565b6200167f3384848462003a09565b505050565b606060028054620016959062005203565b80601f0160208091040260200160405190810160405280929190818152602001828054620016c39062005203565b801562000cbf5780601f10620016e85761010080835404028352916020019162000cbf565b820191906000526020600020905b815481529060010190602001808311620016f657509395945050505050565b60175462010000900460ff1680620017355750601754610100900460ff16155b620017545760405162461bcd60e51b815260040162000e099062005441565b60175462010000900460ff161580156200177a576017805462ffff001916620101001790555b6200178462003c6a565b620017b98c8c8c8c8c6040518060400160405280600881526020016711161111dd5a5b1960c21b8152508d8d8d8d8d62001ee3565b60018054604051636cfe048960e01b81523060048201526001600160a01b03858116602483015263359afa4960e01b6044830152600060648301526084820193909352911690636cfe04899060a401600060405180830381600087803b1580156200182357600080fd5b505af115801562001838573d6000803e3d6000fd5b50505050801562001850576017805462ff0000191690555b505050505050505050505050565b6000858152601560205260409020600201544210620018915760405162461bcd60e51b815260040162000e099062005349565b6000620018a18387878762002ee7565b60008181526013602052604090205490915060ff1615620019015760405162461bcd60e51b8152602060048201526019602482015278115490cc8c11dd5a5b190e88105b1c9958591e481d9bdd1959603a1b604482015260640162000e09565b62001965826200195e836040517f19457468657265756d205369676e6564204d6573736167653a0a3332000000006020820152603c8101829052600090605c01604051602081830303815290604052805190602001209050919050565b9062003cf9565b6001600160a01b0316836001600160a01b031614620019c75760405162461bcd60e51b815260206004820152601860248201527f45524332304775696c643a2057726f6e67207369676e65720000000000000000604482015260640162000e09565b6000818152601360205260409020805460ff1916600117905583620019ec84620038de565b1015801562001a1f575060008681526014602090815260408083206001600160a01b038716845290915290206001015484115b62001a3e5760405162461bcd60e51b815260040162000e099062005394565b60008681526014602090815260408083206001600160a01b038716845290915290205415801562001a92575060008681526014602090815260408083206001600160a01b0387168452909152902060010154155b8062001aef575060008681526014602090815260408083206001600160a01b03871684529091529020548514801562001aef575060008681526014602090815260408083206001600160a01b038716845290915290206001015484115b62001b0e5760405162461bcd60e51b815260040162000e0990620053da565b62001b1c8387878762003a09565b505050505050565b8062001b3033620038de565b101562001b9f5760405162461bcd60e51b815260206004820152603660248201527f45524332304775696c643a20556e61626c6520746f207769746864726177206d6044820152751bdc99481d1bdad95b9cc81d1a185b881b1bd8dad95960521b606482015260840162000e09565b33600090815260126020526040902060010154421162001c025760405162461bcd60e51b815260206004820152601f60248201527f45524332304775696c643a20546f6b656e73207374696c6c206c6f636b656400604482015260640162000e09565b6000811162001c7a5760405162461bcd60e51b815260206004820152603f60248201527f45524332304775696c643a20616d6f756e74206f6620746f6b656e7320746f2060448201527f7769746864726177206d7573742062652067726561746572207468616e203000606482015260840162000e09565b3360009081526012602052604090205462001c96908262003d21565b33600090815260126020526040902055600e5462001cb5908262003d21565b600e5560115460405163f3fef3a360e01b8152336004820152602481018390526001600160a01b039091169063f3fef3a390604401600060405180830381600087803b15801562001d0557600080fd5b505af115801562001d1a573d6000803e3d6000fd5b5050505062001d2933620038de565b62001d4257600b5462001d3e90600162003d21565b600b555b60408051338152602081018390527f6352c5382c4a4578e712449ca65e83cdb392d045dfcf1cad9615189db2da244b91015b60405180910390a150565b60156020526000908152604090208054600182015460028301546006840180546001600160a01b0390941694929391929162001dbb9062005203565b80601f016020809104026020016040519081016040528092919081815260200182805462001de99062005203565b801562001e3a5780601f1062001e0e5761010080835404028352916020019162001e3a565b820191906000526020600020905b81548152906001019060200180831162001e1c57829003601f168201915b50505050509080600701805462001e519062005203565b80601f016020809104026020016040519081016040528092919081815260200182805462001e7f9062005203565b801562001ed05780601f1062001ea45761010080835404028352916020019162001ed0565b820191906000526020600020905b81548152906001019060200180831162001eb257829003601f168201915b5050506008909301549192505060ff1686565b60175462010000900460ff168062001f035750601754610100900460ff16155b62001f225760405162461bcd60e51b815260040162000e099062005441565b60175462010000900460ff1615801562001f48576017805462ffff001916620101001790555b6001600160a01b038c1662001faf5760405162461bcd60e51b815260206004820152602660248201527f45524332304775696c643a20746f6b656e2063616e74206265207a65726f206160448201526564647265737360d01b606482015260840162000e09565b60008b1162001fd25760405162461bcd60e51b815260040162000e099062005240565b8a83101562001ff55760405162461bcd60e51b815260040162000e09906200528f565b60008911620020185760405162461bcd60e51b815260040162000e0990620052ec565b86516200202d9060029060208a0190620043bf565b50600080546001600160a01b0319166001600160a01b038e1690811790915560405130906200205c906200443b565b6001600160a01b03928316815291166020820152604001604051809103906000f08015801562002090573d6000803e3d6000fd5b50601180546001600160a01b03199081166001600160a01b039384161790915560038d905560048c905560058b905560068a9055600788905560088790556009869055600d85905560018054909116918416919091179055801562001850576017805462ff000019169055505050505050505050505050565b6200211362004449565b60008281526015602090815260409182902082516101408101845281546001600160a01b031681526001820154818401526002820154818501526003820180548551818602810186019096528086529194929360608601939290830182828015620021a857602002820191906000526020600020905b81546001600160a01b0316815260019091019060200180831162002189575b5050505050815260200160048201805480602002602001604051908101604052809291908181526020016000905b828210156200228c578382906000526020600020018054620021f89062005203565b80601f0160208091040260200160405190810160405280929190818152602001828054620022269062005203565b8015620022775780601f106200224b5761010080835404028352916020019162002277565b820191906000526020600020905b8154815290600101906020018083116200225957829003601f168201915b505050505081526020019060010190620021d6565b50505050815260200160058201805480602002602001604051908101604052809291908181526020018280548015620022e557602002820191906000526020600020905b815481526020019060010190808311620022d0575b50505050508152602001600682018054620023009062005203565b80601f01602080910402602001604051908101604052809291908181526020018280546200232e9062005203565b80156200237f5780601f1062002353576101008083540402835291602001916200237f565b820191906000526020600020905b8154815290600101906020018083116200236157829003601f168201915b505050505081526020016007820180546200239a9062005203565b80601f0160208091040260200160405190810160405280929190818152602001828054620023c89062005203565b8015620024195780601f10620023ed5761010080835404028352916020019162002419565b820191906000526020600020905b815481529060010190602001808311620023fb57829003601f168201915b5050509183525050600882015460209091019060ff16600481111562002443576200244362004b53565b600481111562002457576200245762004b53565b815260200160098201805480602002602001604051908101604052809291908181526020018280548015620024ac57602002820191906000526020600020905b81548152602001906001019080831162002497575b5050505050815250509050919050565b606082518451148015620024d1575081518351145b620025455760405162461bcd60e51b815260206004820152603f60248201527f45524332304775696c643a20496e76616c69642070726f706f73616c4964732c60448201527f206f7074696f6e73206f7220766f74696e67506f77657273206c656e67746800606482015260840162000e09565b60008085516001600160401b03811115620025645762002564620046ae565b6040519080825280602002602001820160405280156200258e578160200160208202803683370190505b509050600091505b855182101562002924574260156000888581518110620025ba57620025ba6200548f565b6020026020010151815260200190815260200160002060020154101562002608576000818381518110620025f257620025f26200548f565b911515602092830291909101909101526200290f565b8382815181106200261d576200261d6200548f565b60200260200101516200263033620038de565b1080620026ad5750601460008784815181106200265157620026516200548f565b602002602001015181526020019081526020016000206000336001600160a01b03166001600160a01b0316815260200190815260200160002060010154848381518110620026a357620026a36200548f565b6020026020010151105b15620026ca576000818381518110620025f257620025f26200548f565b60146000878481518110620026e357620026e36200548f565b6020908102919091018101518252818101929092526040908101600090812033825290925290205415806200276d5750601460008784815181106200272c576200272c6200548f565b602002602001015181526020019081526020016000206000336001600160a01b03166001600160a01b03168152602001908152602001600020600101546000145b80156200286757508482815181106200278a576200278a6200548f565b602002602001015160146000888581518110620027ab57620027ab6200548f565b602002602001015181526020019081526020016000206000336001600160a01b03166001600160a01b0316815260200190815260200160002060000154141580156200286757508382815181106200280757620028076200548f565b6020026020010151601460008885815181106200282857620028286200548f565b602002602001015181526020019081526020016000206000336001600160a01b03166001600160a01b0316815260200190815260200160002060010154115b1562002884576000818381518110620025f257620025f26200548f565b60018183815181106200289b576200289b6200548f565b6020026020010190151590811515815250506200290f33878481518110620028c757620028c76200548f565b6020026020010151878581518110620028e457620028e46200548f565b60200260200101518786815181106200290157620029016200548f565b602002602001015162003a09565b816200291b81620054bb565b92505062002596565b95945050505050565b600081116200299a5760405162461bcd60e51b815260206004820152603260248201527f45524332304775696c643a20546f6b656e7320746f206c6f636b2073686f756c60448201527106420626520686967686572207468616e20360741b606482015260840162000e09565b620029a533620038de565b620029be57600b54620029ba906001620039fb565b600b555b6011546040516311f9fbc960e21b8152336004820152602481018390526001600160a01b03909116906347e7ef2490604401600060405180830381600087803b15801562002a0b57600080fd5b505af115801562002a20573d6000803e3d6000fd5b50503360009081526012602052604090205462002a419250905082620039fb565b33600090815260126020526040902055600d5462002a61904290620039fb565b33600090815260126020526040902060010155600e5462002a839082620039fb565b600e5560408051338152602081018390527fac87f20a77d28ee8bbb58ec87ea8fa968b3393efae1a368fd50b767c2847391c910162001d74565b604a546001600160a01b0316331462002b195760405162461bcd60e51b815260206004820181905260248201527f4f776e61626c653a2063616c6c6572206973206e6f7420746865206f776e6572604482015260640162000e09565b62002b25600062003d2f565b565b600062002b378785858562002ee7565b905085811462002b8a5760405162461bcd60e51b815260206004820152601d60248201527f45524332304775696c643a20496e76616c696420766f74652068617368000000604482015260640162000e09565b60008181526013602052604090205460ff161562002be75760405162461bcd60e51b8152602060048201526019602482015278115490cc8c11dd5a5b190e88105b1c9958591e481d9bdd1959603a1b604482015260640162000e09565b600062002bf689888862002f3e565b90508062002c535760405162461bcd60e51b8152602060048201526024808201527f45524332304775696c643a20496e76616c6964206d65726b6c652074726565206044820152633632b0b360e11b606482015260840162000e09565b600085815260156020526040902060020154421062002c865760405162461bcd60e51b815260040162000e099062005349565b8262002c9289620038de565b1015801562002cc5575060008581526014602090815260408083206001600160a01b038c16845290915290206001015483115b62002ce45760405162461bcd60e51b815260040162000e099062005394565b60008581526014602090815260408083206001600160a01b038c16845290915290205415801562002d38575060008581526014602090815260408083206001600160a01b038c168452909152902060010154155b8062002d95575060008581526014602090815260408083206001600160a01b038c1684529091529020548414801562002d95575060008581526014602090815260408083206001600160a01b038c16845290915290206001015483115b62002db45760405162461bcd60e51b815260040162000e0990620053da565b6000828152601360205260409020805460ff1916600117905562002ddb8886868662003a09565b505050505050505050565b60005b875181101562002edd5762002ec888828151811062002e0c5762002e0c6200548f565b602002602001015188838151811062002e295762002e296200548f565b602002602001015188848151811062002e465762002e466200548f565b602002602001015188858151811062002e635762002e636200548f565b602002602001015188868151811062002e805762002e806200548f565b602002602001015188878151811062002e9d5762002e9d6200548f565b602002602001015188888151811062002eba5762002eba6200548f565b602002602001015162002b27565b8062002ed481620054bb565b91505062002de9565b5050505050505050565b6040516bffffffffffffffffffffffff19606086901b166020820152603481018490526054810183905260748101829052600090609401604051602081830303815290604052805190602001209050949350505050565b600062002f4d82858562003d81565b949350505050565b600062000d8761271062000d8060055462000d79600e5490565b6016818154811062002f8057600080fd5b600091825260209091200154905081565b60175460ff161562002ff25760405162461bcd60e51b8152602060048201526024808201527f45524332304775696c643a2050726f706f73616c20756e6465722065786563756044820152633a34b7b760e11b606482015260840162000e09565b600160008281526015602052604090206008015460ff1660048111156200301d576200301d62004b53565b146200307a5760405162461bcd60e51b815260206004820152602560248201527f45524332304775696c643a2050726f706f73616c20616c72656164792065786560448201526418dd5d195960da1b606482015260840162000e09565b6000818152601560205260409020600201544211620030ea5760405162461bcd60e51b815260206004820152602560248201527f45524332304775696c643a2050726f706f73616c206861736e277420656e646560448201526419081e595d60da1b606482015260840162000e09565b6000818152601560205260408120600901805482919082906200311157620031116200548f565b600091825260209091200154905060015b60008481526015602052604090206009015481101562003251576200314662002f55565b60008581526015602052604090206009018054839081106200316c576200316c6200548f565b906000526020600020015410158015620031b857506000848152601560205260409020600901805483919083908110620031aa57620031aa6200548f565b906000526020600020015410155b156200323c576000848152601560205260409020600901805483919083908110620031e757620031e76200548f565b906000526020600020015414156200320357600092506200323c565b600084815260156020526040902060090180549193508391829081106200322e576200322e6200548f565b906000526020600020015491505b806200324881620054bb565b91505062003122565b82620032a1576000848152601560205260409020600801805460ff19166002908117909155849060008051602062005e8a833981519152905b60405190815260200160405180910390a2620038c5565b6004546000858152601560205260409020600201544291620032c49190620039fb565b101562003303576000848152601560205260409020600801805460ff19166004908117909155849060008051602062005e8a833981519152906200328a565b600084815260156020526040812060088101805460ff19166003179055600901546200334f906200333690600162003d21565b60008781526015602052604090206003015490620039df565b90506200336a6200336285600162003d21565b8290620039ca565b915060006200337a8383620039fb565b9050600160009054906101000a90046001600160a01b03166001600160a01b0316633e7a47b26040518163ffffffff1660e01b8152600401600060405180830381600087803b158015620033cd57600080fd5b505af1158015620033e2573d6000803e3d6000fd5b505050505b808310156200381c5760008681526015602052604081206003018054859081106200341657620034166200548f565b6000918252602090912001546001600160a01b03161480159062003476575060008681526015602052604081206004018054859081106200345b576200345b6200548f565b906000526020600020018054620034729062005203565b9050115b1562003807576000868152601560205260408120600401805485908110620034a257620034a26200548f565b906000526020600020018054620034b99062005203565b80601f0160208091040260200160405190810160405280929190818152602001828054620034e79062005203565b8015620035385780601f106200350c5761010080835404028352916020019162003538565b820191906000526020600020905b8154815290600101906020018083116200351a57829003601f168201915b50505060208084015160015460008d815260159093526040909220600301805495965090946001600160a01b03909216935063eed4703392503091899081106200358657620035866200548f565b9060005260206000200160009054906101000a90046001600160a01b031684601560008e81526020019081526020016000206005018a81548110620035cf57620035cf6200548f565b60009182526020909120015460405160e086901b6001600160e01b031990811682526001600160a01b039586166004830152939094166024850152911660448301526064820152608401600060405180830381600087803b1580156200363457600080fd5b505af192505050801562003646575060015b620036a25762003655620054d9565b806308c379a014156200369657506200366d620054f6565b806200367a575062003698565b8060405162461bcd60e51b815260040162000e09919062004601565b505b3d6000803e3d6000fd5b6017805460ff191660011790556000888152601560205260408120600301805487908110620036d557620036d56200548f565b60009182526020808320909101548b83526015909152604090912060050180546001600160a01b0390921691889081106200371457620037146200548f565b9060005260206000200154601560008c815260200190815260200160002060040188815481106200374957620037496200548f565b9060005260206000200160405162003762919062005585565b60006040518083038185875af1925050503d8060008114620037a1576040519150601f19603f3d011682016040523d82523d6000602084013e620037a6565b606091505b5050905080620037f95760405162461bcd60e51b815260206004820181905260248201527f45524332304775696c643a2050726f706f73616c2063616c6c206661696c6564604482015260640162000e09565b50506017805460ff19169055505b826200381381620054bb565b935050620033e7565b60015460405163fb0fde8560e01b81523060048201526001600160a01b039091169063fb0fde8590602401602060405180830381600087803b1580156200386257600080fd5b505af115801562003877573d6000803e3d6000fd5b505050506040513d601f19601f820116820180604052508101906200389d919062005629565b508560008051602062005e8a833981519152600360405190815260200160405180910390a250505b600c54620038d590600162003d21565b600c5550505050565b6001600160a01b031660009081526012602052604090205490565b604a546001600160a01b03163314620039555760405162461bcd60e51b815260206004820181905260248201527f4f776e61626c653a2063616c6c6572206973206e6f7420746865206f776e6572604482015260640162000e09565b6001600160a01b038116620039bc5760405162461bcd60e51b815260206004820152602660248201527f4f776e61626c653a206e6577206f776e657220697320746865207a65726f206160448201526564647265737360d01b606482015260840162000e09565b620039c78162003d2f565b50565b6000620039d882846200564d565b9392505050565b6000620039d8828462005685565b6000620039d882846200569c565b6000620039d88284620056b3565b60008381526014602090815260408083206001600160a01b03881684528252808320600101548684526015909252909120600901805462003a7f92849262003a78928790811062003a5e5762003a5e6200548f565b906000526020600020015462003d2190919063ffffffff16565b90620039fb565b600084815260156020526040902060090180548490811062003aa55762003aa56200548f565b60009182526020808320909101929092558481526014825260408082206001600160a01b038816835283528082208581556001018490558582526015909252206002015462003b0c856001600160a01b031660009081526012602052604090206001015490565b101562003b41576000838152601560209081526040808320600201546001600160a01b03881684526012909252909120600101555b604080516001600160a01b038616815260208101839052839185917f583c62f152711bcb1ca6186c1065821ff17a7cbe226dcb559a1c889dcf0d769b910160405180910390a36007541562003c6457600062003bb762003bad6008543a62003d9990919063ffffffff16565b60075490620039ca565b905080471015801562003bc95750333b155b1562003c6257604051600090339083908381818185875af1925050503d806000811462003c13576040519150601f19603f3d011682016040523d82523d6000602084013e62003c18565b606091505b505090508062001b1c5760405162461bcd60e51b81526020600482015260146024820152734661696c656420746f20726566756e642067617360601b604482015260640162000e09565b505b50505050565b60175462010000900460ff168062003c8a5750601754610100900460ff16155b62003ca95760405162461bcd60e51b815260040162000e099062005441565b60175462010000900460ff1615801562003ccf576017805462ffff001916620101001790555b62003cd962003db1565b62003ce362003e2b565b8015620039c7576017805462ff00001916905550565b600080600062003d0a858562003e9b565b9150915062003d198162003f11565b509392505050565b6000620039d88284620056ce565b604a80546001600160a01b038381166001600160a01b0319831681179093556040519116919082907f8be0079c531659141344cd1fd0a4f28419497f9722a3daafe3b4186f6b6457e090600090a35050565b60008262003d908584620040e4565b14949350505050565b600081831062003daa5781620039d8565b5090919050565b60175462010000900460ff168062003dd15750601754610100900460ff16155b62003df05760405162461bcd60e51b815260040162000e099062005441565b60175462010000900460ff1615801562003ce3576017805462ffff001916620101001790558015620039c7576017805462ff00001916905550565b60175462010000900460ff168062003e4b5750601754610100900460ff16155b62003e6a5760405162461bcd60e51b815260040162000e099062005441565b60175462010000900460ff1615801562003e90576017805462ffff001916620101001790555b62003ce33362003d2f565b60008082516041141562003ed65760208301516040840151606085015160001a62003ec98782858562004191565b9450945050505062000f50565b82516040141562003f04576020830151604084015162003ef886838362004286565b93509350505062000f50565b5060009050600262000f50565b600081600481111562003f285762003f2862004b53565b141562003f325750565b600181600481111562003f495762003f4962004b53565b141562003f995760405162461bcd60e51b815260206004820152601860248201527f45434453413a20696e76616c6964207369676e61747572650000000000000000604482015260640162000e09565b600281600481111562003fb05762003fb062004b53565b1415620040005760405162461bcd60e51b815260206004820152601f60248201527f45434453413a20696e76616c6964207369676e6174757265206c656e67746800604482015260640162000e09565b600381600481111562004017576200401762004b53565b1415620040725760405162461bcd60e51b815260206004820152602260248201527f45434453413a20696e76616c6964207369676e6174757265202773272076616c604482015261756560f01b606482015260840162000e09565b600481600481111562004089576200408962004b53565b1415620039c75760405162461bcd60e51b815260206004820152602260248201527f45434453413a20696e76616c6964207369676e6174757265202776272076616c604482015261756560f01b606482015260840162000e09565b600081815b845181101562003d195760008582815181106200410a576200410a6200548f565b602002602001015190508083116200414e5760408051602081018590529081018290526060016040516020818303038152906040528051906020012092506200417b565b60408051602081018390529081018490526060016040516020818303038152906040528051906020012092505b50806200418881620054bb565b915050620040e9565b6000807f7fffffffffffffffffffffffffffffff5d576e7357a4501ddfe92f46681b20a0831115620041ca57506000905060036200427d565b8460ff16601b14158015620041e357508460ff16601c14155b15620041f657506000905060046200427d565b6040805160008082526020820180845289905260ff881692820192909252606081018690526080810185905260019060a0016020604051602081039080840390855afa1580156200424b573d6000803e3d6000fd5b5050604051601f1901519150506001600160a01b03811662004276576000600192509250506200427d565b9150600090505b94509492505050565b6000806001600160ff1b03831660ff84901c601b01620042a98782888562004191565b935093505050935093915050565b8280548282559060005260206000209081019282156200430f579160200282015b828111156200430f57825182546001600160a01b0319166001600160a01b03909116178255602090920191600190910190620042d8565b506200431d929150620044b9565b5090565b82805482825590600052602060002090810192821562004373579160200282015b8281111562004373578251805162004362918491602090910190620043bf565b509160200191906001019062004342565b506200431d929150620044d0565b8280548282559060005260206000209081019282156200430f579160200282015b828111156200430f578251825591602001919060010190620043a2565b828054620043cd9062005203565b90600052602060002090601f016020900481019282620043f157600085556200430f565b82601f106200440c57805160ff19168380011785556200430f565b828001600101855582156200430f57918201828111156200430f578251825591602001919060010190620043a2565b6107a180620056e983390190565b60405180610140016040528060006001600160a01b031681526020016000815260200160008152602001606081526020016060815260200160608152602001606081526020016060815260200160006004811115620044ac57620044ac62004b53565b8152602001606081525090565b5b808211156200431d5760008155600101620044ba565b808211156200431d576000620044e78282620044f1565b50600101620044d0565b508054620044ff9062005203565b6000825580601f1062004510575050565b601f016020900490600052602060002090810190620039c79190620044b9565b6020808252825182820181905260009190848201906040850190845b818110156200456a578351835292840192918401916001016200454c565b50909695505050505050565b80356001600160a01b03811681146200458e57600080fd5b919050565b600060208284031215620045a657600080fd5b620039d88262004576565b6000815180845260005b81811015620045d957602081850181015186830182015201620045bb565b81811115620045ec576000602083870101525b50601f01601f19169290920160200192915050565b602081526000620039d86020830184620045b1565b6000806000806000806000806000806101408b8d0312156200463757600080fd5b505088359a60208a01359a5060408a013599606081013599506080810135985060a0810135975060c0810135965060e081013595506101008101359450610120013592509050565b600080604083850312156200469357600080fd5b82359150620046a56020840162004576565b90509250929050565b634e487b7160e01b600052604160045260246000fd5b601f8201601f191681016001600160401b0381118282101715620046ec57620046ec620046ae565b6040525050565b60006001600160401b038211156200470f576200470f620046ae565b5060051b60200190565b600082601f8301126200472b57600080fd5b813560206200473a82620046f3565b604051620047498282620046c4565b83815260059390931b85018201928281019150868411156200476a57600080fd5b8286015b848110156200479057620047828162004576565b83529183019183016200476e565b509695505050505050565b600082601f830112620047ad57600080fd5b81356001600160401b03811115620047c957620047c9620046ae565b604051620047e2601f8301601f191660200182620046c4565b818152846020838601011115620047f857600080fd5b816020850160208301376000918101602001919091529392505050565b600082601f8301126200482757600080fd5b813560206200483682620046f3565b604051620048458282620046c4565b83815260059390931b85018201928281019150868411156200486657600080fd5b8286015b84811015620047905780356001600160401b038111156200488b5760008081fd5b6200489b8986838b01016200479b565b8452509183019183016200486a565b600082601f830112620048bc57600080fd5b81356020620048cb82620046f3565b604051620048da8282620046c4565b83815260059390931b8501820192828101915086841115620048fb57600080fd5b8286015b84811015620047905780358352918301918301620048ff565b60008060008060008060c087890312156200493257600080fd5b86356001600160401b03808211156200494a57600080fd5b620049588a838b0162004719565b975060208901359150808211156200496f57600080fd5b6200497d8a838b0162004815565b965060408901359150808211156200499457600080fd5b620049a28a838b01620048aa565b9550606089013594506080890135915080821115620049c057600080fd5b620049ce8a838b016200479b565b935060a0890135915080821115620049e557600080fd5b50620049f489828a016200479b565b9150509295509295509295565b60008060006060848603121562004a1757600080fd5b505081359360208301359350604090920135919050565b60008060008060008060008060008060006101608c8e03121562004a5157600080fd5b62004a5c8c62004576565b9a5060208c0135995060408c0135985060608c0135975060808c0135965060a08c0135955060c08c0135945060e08c013593506101008c0135925062004aa66101208d0162004576565b915062004ab76101408d0162004576565b90509295989b509295989b9093969950565b600080600080600060a0868803121562004ae257600080fd5b85359450602086013593506040860135925062004b026060870162004576565b915060808601356001600160401b0381111562004b1e57600080fd5b62004b2c888289016200479b565b9150509295509295909350565b60006020828403121562004b4c57600080fd5b5035919050565b634e487b7160e01b600052602160045260246000fd5b6005811062004b8857634e487b7160e01b600052602160045260246000fd5b9052565b60018060a01b038716815285602082015284604082015260c06060820152600062004bbb60c0830186620045b1565b828103608084015262004bcf8186620045b1565b91505062004be160a083018462004b69565b979650505050505050565b60008060008060008060008060008060006101608c8e03121562004c0f57600080fd5b62004c1a8c62004576565b9a5060208c0135995060408c0135985060608c0135975060808c0135965060a08c01356001600160401b0381111562004c5257600080fd5b62004c608e828f016200479b565b96505060c08c0135945060e08c013593506101008c013592506101208c0135915062004ab76101408d0162004576565b600081518084526020808501945080840160005b8381101562004ccb5781516001600160a01b03168752958201959082019060010162004ca4565b509495945050505050565b6000815180845260208085019450848260051b860182860160005b8581101562004d1f57838303895262004d0c838351620045b1565b9885019892509084019060010162004cf1565b5090979650505050505050565b600081518084526020808501945080840160005b8381101562004ccb5781518752958201959082019060010162004d40565b6020815262004d796020820183516001600160a01b03169052565b60208201516040820152604082015160608201526000606083015161014080608085015262004dad61016085018362004c90565b91506080850151601f19808685030160a087015262004dcd848362004cd6565b935060a08701519150808685030160c087015262004dec848362004d2c565b935060c08701519150808685030160e087015262004e0b8483620045b1565b935060e0870151915061010081878603018188015262004e2c8584620045b1565b94508088015192505061012062004e468188018462004b69565b87015186850390910183870152905062004e61838262004d2c565b9695505050505050565b60008060006060848603121562004e8157600080fd5b83356001600160401b038082111562004e9957600080fd5b62004ea787838801620048aa565b9450602086013591508082111562004ebe57600080fd5b62004ecc87838801620048aa565b9350604086013591508082111562004ee357600080fd5b5062004ef286828701620048aa565b9150509250925092565b6020808252825182820181905260009190848201906040850190845b818110156200456a57835115158352928401929184019160010162004f18565b600080600080600080600060e0888a03121562004f5457600080fd5b8735965062004f666020890162004576565b95506040880135945060608801356001600160401b0381111562004f8957600080fd5b62004f978a828b01620048aa565b979a969950949760808101359660a0820135965060c090910135945092505050565b600082601f83011262004fcb57600080fd5b8135602062004fda82620046f3565b60405162004fe98282620046c4565b83815260059390931b85018201928281019150868411156200500a57600080fd5b8286015b84811015620047905780356001600160401b038111156200502f5760008081fd5b6200503f8986838b0101620048aa565b8452509183019183016200500e565b600080600080600080600060e0888a0312156200506a57600080fd5b87356001600160401b03808211156200508257600080fd5b620050908b838c01620048aa565b985060208a0135915080821115620050a757600080fd5b620050b58b838c0162004719565b975060408a0135915080821115620050cc57600080fd5b620050da8b838c01620048aa565b965060608a0135915080821115620050f157600080fd5b620050ff8b838c0162004fb9565b955060808a01359150808211156200511657600080fd5b620051248b838c01620048aa565b945060a08a01359150808211156200513b57600080fd5b620051498b838c01620048aa565b935060c08a01359150808211156200516057600080fd5b506200516f8a828b01620048aa565b91505092959891949750929550565b600080600080608085870312156200519557600080fd5b620051a08562004576565b966020860135965060408601359560600135945092505050565b600080600060608486031215620051d057600080fd5b833592506020840135915060408401356001600160401b03811115620051f557600080fd5b62004ef286828701620048aa565b600181811c908216806200521857607f821691505b602082108114156200523a57634e487b7160e01b600052602260045260246000fd5b50919050565b6020808252602f908201527f45524332304775696c643a2070726f706f73616c2074696d652068617320746f60408201526e0206265206d6f7265207468616e203608c1b606082015260800190565b6020808252603e908201527f45524332304775696c643a206c6f636b54696d652068617320746f206265206860408201527f6967686572206f7220657175616c20746f2070726f706f73616c54696d650000606082015260800190565b6020808252603c908201527f45524332304775696c643a20766f74696e6720706f77657220666f722065786560408201527f637574696f6e2068617320746f206265206d6f7265207468616e203000000000606082015260800190565b6020808252602b908201527f45524332304775696c643a2050726f706f73616c20656e6465642c2063616e6e60408201526a1bdd081899481d9bdd195960aa1b606082015260800190565b60208082526026908201527f45524332304775696c643a20496e76616c696420766f74696e67506f77657220604082015265185b5bdd5b9d60d21b606082015260800190565b60208082526041908201527f45524332304775696c643a2043616e6e6f74206368616e6765206f7074696f6e60408201527f20766f7465642c206f6e6c7920696e63726561736520766f74696e67506f77656060820152603960f91b608082015260a00190565b6020808252602e908201527f496e697469616c697a61626c653a20636f6e747261637420697320616c72656160408201526d191e481a5b9a5d1a585b1a5e995960921b606082015260800190565b634e487b7160e01b600052603260045260246000fd5b634e487b7160e01b600052601160045260246000fd5b6000600019821415620054d257620054d2620054a5565b5060010190565b600060033d1115620054f35760046000803e5060005160e01c5b90565b600060443d1015620055055790565b6040516003193d81016004833e81513d6001600160401b0381602484011181841117156200553557505050505090565b82850191508151818111156200554e5750505050505090565b843d8701016020828501011115620055695750505050505090565b6200557a60208286010187620046c4565b509095945050505050565b600080835481600182811c915080831680620055a257607f831692505b6020808410821415620055c357634e487b7160e01b86526022600452602486fd5b818015620055da5760018114620055ec576200561b565b60ff198616895284890196506200561b565b60008a81526020902060005b86811015620056135781548b820152908501908301620055f8565b505084890196505b509498975050505050505050565b6000602082840312156200563c57600080fd5b81518015158114620039d857600080fd5b60008160001904831182151516156200566a576200566a620054a5565b500290565b634e487b7160e01b600052601260045260246000fd5b6000826200569757620056976200566f565b500490565b600082620056ae57620056ae6200566f565b500690565b60008219821115620056c957620056c9620054a5565b500190565b600082821015620056e357620056e3620054a5565b50039056fe608060405234801561001057600080fd5b506040516107a13803806107a183398101604081905261002f9161007c565b600080546001600160a01b039384166001600160a01b031991821617909155600180549290931691161790556100af565b80516001600160a01b038116811461007757600080fd5b919050565b6000806040838503121561008f57600080fd5b61009883610060565b91506100a660208401610060565b90509250929050565b6106e3806100be6000396000f3fe608060405234801561001057600080fd5b506004361061007d5760003560e01c80636e9960c31161005b5780636e9960c3146100ef578063f3fef3a314610100578063f851a44014610113578063fc0c546a1461012657600080fd5b806321df0da71461008257806327e235e3146100ac57806347e7ef24146100da575b600080fd5b6000546001600160a01b03165b6040516001600160a01b0390911681526020015b60405180910390f35b6100cc6100ba366004610586565b60026020526000908152604090205481565b6040519081526020016100a3565b6100ed6100e83660046105a1565b610139565b005b6001546001600160a01b031661008f565b6100ed61010e3660046105a1565b61020a565b60015461008f906001600160a01b031681565b60005461008f906001600160a01b031681565b6001546001600160a01b031633146101af5760405162461bcd60e51b815260206004820152602e60248201527f546f6b656e5661756c743a204465706f736974206d7573742062652073656e7460448201526d103a343937bab3b41030b236b4b760911b60648201526084015b60405180910390fd5b6000546101c7906001600160a01b031683308461025b565b6001600160a01b0382166000908152600260205260409020546101ea90826102cc565b6001600160a01b0390921660009081526002602052604090209190915550565b6001546001600160a01b0316331461022157600080fd5b600054610238906001600160a01b031683836102df565b6001600160a01b0382166000908152600260205260409020546101ea9082610314565b6040516001600160a01b03808516602483015283166044820152606481018290526102c69085906323b872dd60e01b906084015b60408051601f198184030181529190526020810180516001600160e01b03166001600160e01b031990931692909217909152610320565b50505050565b60006102d882846105e1565b9392505050565b6040516001600160a01b03831660248201526044810182905261030f90849063a9059cbb60e01b9060640161028f565b505050565b60006102d882846105f9565b6000610375826040518060400160405280602081526020017f5361666545524332303a206c6f772d6c6576656c2063616c6c206661696c6564815250856001600160a01b03166103f29092919063ffffffff16565b80519091501561030f57808060200190518101906103939190610610565b61030f5760405162461bcd60e51b815260206004820152602a60248201527f5361666545524332303a204552433230206f7065726174696f6e20646964206e6044820152691bdd081cdd58d8d9595960b21b60648201526084016101a6565b60606104018484600085610409565b949350505050565b60608247101561046a5760405162461bcd60e51b815260206004820152602660248201527f416464726573733a20696e73756666696369656e742062616c616e636520666f6044820152651c8818d85b1b60d21b60648201526084016101a6565b843b6104b85760405162461bcd60e51b815260206004820152601d60248201527f416464726573733a2063616c6c20746f206e6f6e2d636f6e747261637400000060448201526064016101a6565b600080866001600160a01b031685876040516104d4919061065e565b60006040518083038185875af1925050503d8060008114610511576040519150601f19603f3d011682016040523d82523d6000602084013e610516565b606091505b5091509150610526828286610531565b979650505050505050565b606083156105405750816102d8565b8251156105505782518084602001fd5b8160405162461bcd60e51b81526004016101a6919061067a565b80356001600160a01b038116811461058157600080fd5b919050565b60006020828403121561059857600080fd5b6102d88261056a565b600080604083850312156105b457600080fd5b6105bd8361056a565b946020939093013593505050565b634e487b7160e01b600052601160045260246000fd5b600082198211156105f4576105f46105cb565b500190565b60008282101561060b5761060b6105cb565b500390565b60006020828403121561062257600080fd5b815180151581146102d857600080fd5b60005b8381101561064d578181015183820152602001610635565b838111156102c65750506000910152565b60008251610670818460208701610632565b9190910192915050565b6020815260008251806020840152610699816040850160208701610632565b601f01601f1916919091016040019291505056fea2646970667358221220f83df9be484204d29c000a118187aee7d3ca7efcb094476e4ad893327bb967b564736f6c63430008080033fee62a9eec0be50eb061c711990ef0f1e17b40ea131d9347b0468acdaf8bf243a2646970667358221220d357a5987765a0d8dce91d2ab127fa48dab8ddc5a2ca41baf46e9820167934f664736f6c63430008080033",
  "linkReferences": {},
  "deployedLinkReferences": {}
}