{
  "_format": "hh-sol-artifact-1",
  "contractName": "DXDGuild",
  "sourceName": "dxdao-contracts/contracts/erc20guild/implementations/DXDGuild.sol",
  "abi": [
    {
      "anonymous": false,
      "inputs": [
        {
          "indexed": true,
          "internalType": "address",
          "name": "previousOwner",
          "type": "address"
        },
        {
          "indexed": true,
          "internalType": "address",
          "name": "newOwner",
          "type": "address"
        }
      ],
      "name": "OwnershipTransferred",
      "type": "event"
    },
    {
      "anonymous": false,
      "inputs": [
        {
          "indexed": true,
          "internalType": "bytes32",
          "name": "proposalId",
          "type": "bytes32"
        },
        {
          "indexed": false,
          "internalType": "uint256",
          "name": "newState",
          "type": "uint256"
        }
      ],
      "name": "ProposalStateChanged",
      "type": "event"
    },
    {
      "anonymous": false,
      "inputs": [
        {
          "indexed": false,
          "internalType": "address",
          "name": "voter",
          "type": "address"
        },
        {
          "indexed": false,
          "internalType": "uint256",
          "name": "value",
          "type": "uint256"
        }
      ],
      "name": "TokensLocked",
      "type": "event"
    },
    {
      "anonymous": false,
      "inputs": [
        {
          "indexed": false,
          "internalType": "address",
          "name": "voter",
          "type": "address"
        },
        {
          "indexed": false,
          "internalType": "uint256",
          "name": "value",
          "type": "uint256"
        }
      ],
      "name": "TokensWithdrawn",
      "type": "event"
    },
    {
      "anonymous": false,
      "inputs": [
        {
          "indexed": true,
          "internalType": "bytes32",
          "name": "proposalId",
          "type": "bytes32"
        },
        {
          "indexed": true,
          "internalType": "uint256",
          "name": "option",
          "type": "uint256"
        },
        {
          "indexed": false,
          "internalType": "address",
          "name": "voter",
          "type": "address"
        },
        {
          "indexed": false,
          "internalType": "uint256",
          "name": "votingPower",
          "type": "uint256"
        }
      ],
      "name": "VoteAdded",
      "type": "event"
    },
    {
      "stateMutability": "payable",
      "type": "fallback"
    },
    {
      "inputs": [],
      "name": "MAX_OPTIONS_PER_PROPOSAL",
      "outputs": [
        {
          "internalType": "uint8",
          "name": "",
          "type": "uint8"
        }
      ],
      "stateMutability": "view",
      "type": "function"
    },
    {
      "inputs": [],
      "name": "activeProposalsNow",
      "outputs": [
        {
          "internalType": "uint256",
          "name": "",
          "type": "uint256"
        }
      ],
      "stateMutability": "view",
      "type": "function"
    },
    {
      "inputs": [
        {
          "internalType": "address[]",
          "name": "to",
          "type": "address[]"
        },
        {
          "internalType": "bytes[]",
          "name": "data",
          "type": "bytes[]"
        },
        {
          "internalType": "uint256[]",
          "name": "value",
          "type": "uint256[]"
        },
        {
          "internalType": "uint256",
          "name": "totalOptions",
          "type": "uint256"
        },
        {
          "internalType": "string",
          "name": "title",
          "type": "string"
        },
        {
          "internalType": "string",
          "name": "contentHash",
          "type": "string"
        }
      ],
      "name": "createProposal",
      "outputs": [
        {
          "internalType": "bytes32",
          "name": "",
          "type": "bytes32"
        }
      ],
      "stateMutability": "nonpayable",
      "type": "function"
    },
    {
      "inputs": [
        {
          "internalType": "bytes32",
          "name": "proposalId",
          "type": "bytes32"
        }
      ],
      "name": "endProposal",
      "outputs": [],
      "stateMutability": "nonpayable",
      "type": "function"
    },
    {
      "inputs": [
        {
          "internalType": "bytes32",
          "name": "root",
          "type": "bytes32"
        },
        {
          "internalType": "address",
          "name": "voter",
          "type": "address"
        },
        {
          "internalType": "bytes32",
          "name": "voteHash",
          "type": "bytes32"
        },
        {
          "internalType": "bytes32[]",
          "name": "proof",
          "type": "bytes32[]"
        },
        {
          "internalType": "bytes32",
          "name": "proposalId",
          "type": "bytes32"
        },
        {
          "internalType": "uint256",
          "name": "option",
          "type": "uint256"
        },
        {
          "internalType": "uint256",
          "name": "votingPower",
          "type": "uint256"
        },
        {
          "internalType": "bytes",
          "name": "signature",
          "type": "bytes"
        }
      ],
      "name": "executeSignedVote",
      "outputs": [],
      "stateMutability": "nonpayable",
      "type": "function"
    },
    {
      "inputs": [
        {
          "internalType": "bytes32[]",
          "name": "roots",
          "type": "bytes32[]"
        },
        {
          "internalType": "address[]",
          "name": "voters",
          "type": "address[]"
        },
        {
          "internalType": "bytes32[]",
          "name": "votesHashes",
          "type": "bytes32[]"
        },
        {
          "internalType": "bytes32[][]",
          "name": "proofs",
          "type": "bytes32[][]"
        },
        {
          "internalType": "bytes32[]",
          "name": "proposalIds",
          "type": "bytes32[]"
        },
        {
          "internalType": "uint256[]",
          "name": "options",
          "type": "uint256[]"
        },
        {
          "internalType": "uint256[]",
          "name": "votingPowers",
          "type": "uint256[]"
        },
        {
          "internalType": "bytes[]",
          "name": "signatures",
          "type": "bytes[]"
        }
      ],
      "name": "executeSignedVotesBatches",
      "outputs": [],
      "stateMutability": "nonpayable",
      "type": "function"
    },
    {
      "inputs": [
        {
          "internalType": "bytes32[]",
          "name": "proposalIds",
          "type": "bytes32[]"
        },
        {
          "internalType": "uint256[]",
          "name": "options",
          "type": "uint256[]"
        },
        {
          "internalType": "uint256[]",
          "name": "votingPowers",
          "type": "uint256[]"
        }
      ],
      "name": "executeVotes",
      "outputs": [
        {
          "internalType": "bool[]",
          "name": "",
          "type": "bool[]"
        }
      ],
      "stateMutability": "nonpayable",
      "type": "function"
    },
    {
      "inputs": [],
      "name": "getActiveProposalsNow",
      "outputs": [
        {
          "internalType": "uint256",
          "name": "",
          "type": "uint256"
        }
      ],
      "stateMutability": "view",
      "type": "function"
    },
    {
      "inputs": [],
      "name": "getLockTime",
      "outputs": [
        {
          "internalType": "uint256",
          "name": "",
          "type": "uint256"
        }
      ],
      "stateMutability": "view",
      "type": "function"
    },
    {
      "inputs": [],
      "name": "getMaxActiveProposals",
      "outputs": [
        {
          "internalType": "uint256",
          "name": "",
          "type": "uint256"
        }
      ],
      "stateMutability": "view",
      "type": "function"
    },
    {
      "inputs": [],
      "name": "getMaxGasPrice",
      "outputs": [
        {
          "internalType": "uint256",
          "name": "",
          "type": "uint256"
        }
      ],
      "stateMutability": "view",
      "type": "function"
    },
    {
      "inputs": [],
      "name": "getMinimumMembersForProposalCreation",
      "outputs": [
        {
          "internalType": "uint256",
          "name": "",
          "type": "uint256"
        }
      ],
      "stateMutability": "view",
      "type": "function"
    },
    {
      "inputs": [],
      "name": "getMinimumTokensLockedForProposalCreation",
      "outputs": [
        {
          "internalType": "uint256",
          "name": "",
          "type": "uint256"
        }
      ],
      "stateMutability": "view",
      "type": "function"
    },
    {
      "inputs": [],
      "name": "getName",
      "outputs": [
        {
          "internalType": "string",
          "name": "",
          "type": "string"
        }
      ],
      "stateMutability": "view",
      "type": "function"
    },
    {
      "inputs": [],
      "name": "getPermissionRegistry",
      "outputs": [
        {
          "internalType": "address",
          "name": "",
          "type": "address"
        }
      ],
      "stateMutability": "view",
      "type": "function"
    },
    {
      "inputs": [
        {
          "internalType": "bytes32",
          "name": "proposalId",
          "type": "bytes32"
        }
      ],
      "name": "getProposal",
      "outputs": [
        {
          "components": [
            {
              "internalType": "address",
              "name": "creator",
              "type": "address"
            },
            {
              "internalType": "uint256",
              "name": "startTime",
              "type": "uint256"
            },
            {
              "internalType": "uint256",
              "name": "endTime",
              "type": "uint256"
            },
            {
              "internalType": "address[]",
              "name": "to",
              "type": "address[]"
            },
            {
              "internalType": "bytes[]",
              "name": "data",
              "type": "bytes[]"
            },
            {
              "internalType": "uint256[]",
              "name": "value",
              "type": "uint256[]"
            },
            {
              "internalType": "string",
              "name": "title",
              "type": "string"
            },
            {
              "internalType": "string",
              "name": "contentHash",
              "type": "string"
            },
            {
              "internalType": "enum BaseERC20Guild.ProposalState",
              "name": "state",
              "type": "uint8"
            },
            {
              "internalType": "uint256[]",
              "name": "totalVotes",
              "type": "uint256[]"
            }
          ],
          "internalType": "struct BaseERC20Guild.Proposal",
          "name": "",
          "type": "tuple"
        }
      ],
      "stateMutability": "view",
      "type": "function"
    },
    {
      "inputs": [],
      "name": "getProposalTime",
      "outputs": [
        {
          "internalType": "uint256",
          "name": "",
          "type": "uint256"
        }
      ],
      "stateMutability": "view",
      "type": "function"
    },
    {
      "inputs": [
        {
          "internalType": "bytes32",
          "name": "proposalId",
          "type": "bytes32"
        },
        {
          "internalType": "address",
          "name": "voter",
          "type": "address"
        }
      ],
      "name": "getProposalVotesOfVoter",
      "outputs": [
        {
          "internalType": "uint256",
          "name": "option",
          "type": "uint256"
        },
        {
          "internalType": "uint256",
          "name": "votingPower",
          "type": "uint256"
        }
      ],
      "stateMutability": "view",
      "type": "function"
    },
    {
      "inputs": [],
      "name": "getProposalsIds",
      "outputs": [
        {
          "internalType": "bytes32[]",
          "name": "",
          "type": "bytes32[]"
        }
      ],
      "stateMutability": "view",
      "type": "function"
    },
    {
      "inputs": [],
      "name": "getProposalsIdsLength",
      "outputs": [
        {
          "internalType": "uint256",
          "name": "",
          "type": "uint256"
        }
      ],
      "stateMutability": "view",
      "type": "function"
    },
    {
      "inputs": [
        {
          "internalType": "bytes32",
          "name": "signedVoteHash",
          "type": "bytes32"
        }
      ],
      "name": "getSignedVote",
      "outputs": [
        {
          "internalType": "bool",
          "name": "",
          "type": "bool"
        }
      ],
      "stateMutability": "view",
      "type": "function"
    },
    {
      "inputs": [],
      "name": "getTimeForExecution",
      "outputs": [
        {
          "internalType": "uint256",
          "name": "",
          "type": "uint256"
        }
      ],
      "stateMutability": "view",
      "type": "function"
    },
    {
      "inputs": [],
      "name": "getToken",
      "outputs": [
        {
          "internalType": "address",
          "name": "",
          "type": "address"
        }
      ],
      "stateMutability": "view",
      "type": "function"
    },
    {
      "inputs": [],
      "name": "getTokenVault",
      "outputs": [
        {
          "internalType": "address",
          "name": "",
          "type": "address"
        }
      ],
      "stateMutability": "view",
      "type": "function"
    },
    {
      "inputs": [],
      "name": "getTotalLocked",
      "outputs": [
        {
          "internalType": "uint256",
          "name": "",
          "type": "uint256"
        }
      ],
      "stateMutability": "view",
      "type": "function"
    },
    {
      "inputs": [],
      "name": "getTotalMembers",
      "outputs": [
        {
          "internalType": "uint256",
          "name": "",
          "type": "uint256"
        }
      ],
      "stateMutability": "view",
      "type": "function"
    },
    {
      "inputs": [],
      "name": "getTotalProposals",
      "outputs": [
        {
          "internalType": "uint256",
          "name": "",
          "type": "uint256"
        }
      ],
      "stateMutability": "view",
      "type": "function"
    },
    {
      "inputs": [],
      "name": "getVoteGas",
      "outputs": [
        {
          "internalType": "uint256",
          "name": "",
          "type": "uint256"
        }
      ],
      "stateMutability": "view",
      "type": "function"
    },
    {
      "inputs": [
        {
          "internalType": "address",
          "name": "voter",
          "type": "address"
        }
      ],
      "name": "getVoterLockTimestamp",
      "outputs": [
        {
          "internalType": "uint256",
          "name": "",
          "type": "uint256"
        }
      ],
      "stateMutability": "view",
      "type": "function"
    },
    {
      "inputs": [],
      "name": "getVotingPowerForProposalCreation",
      "outputs": [
        {
          "internalType": "uint256",
          "name": "",
          "type": "uint256"
        }
      ],
      "stateMutability": "view",
      "type": "function"
    },
    {
      "inputs": [],
      "name": "getVotingPowerForProposalExecution",
      "outputs": [
        {
          "internalType": "uint256",
          "name": "",
          "type": "uint256"
        }
      ],
      "stateMutability": "view",
      "type": "function"
    },
    {
      "inputs": [
        {
          "internalType": "address",
          "name": "voter",
          "type": "address"
        },
        {
          "internalType": "bytes32",
          "name": "proposalId",
          "type": "bytes32"
        },
        {
          "internalType": "uint256",
          "name": "option",
          "type": "uint256"
        },
        {
          "internalType": "uint256",
          "name": "votingPower",
          "type": "uint256"
        }
      ],
      "name": "hashVote",
      "outputs": [
        {
          "internalType": "bytes32",
          "name": "",
          "type": "bytes32"
        }
      ],
      "stateMutability": "pure",
      "type": "function"
    },
    {
      "inputs": [
        {
          "internalType": "address",
          "name": "_token",
          "type": "address"
        },
        {
          "internalType": "uint256",
          "name": "_proposalTime",
          "type": "uint256"
        },
        {
          "internalType": "uint256",
          "name": "_timeForExecution",
          "type": "uint256"
        },
        {
          "internalType": "uint256",
          "name": "_votingPowerPercentageForProposalExecution",
          "type": "uint256"
        },
        {
          "internalType": "uint256",
          "name": "_votingPowerPercentageForProposalCreation",
          "type": "uint256"
        },
        {
          "internalType": "uint256",
          "name": "_voteGas",
          "type": "uint256"
        },
        {
          "internalType": "uint256",
          "name": "_maxGasPrice",
          "type": "uint256"
        },
        {
          "internalType": "uint256",
          "name": "_maxActiveProposals",
          "type": "uint256"
        },
        {
          "internalType": "uint256",
          "name": "_lockTime",
          "type": "uint256"
        },
        {
          "internalType": "address",
          "name": "_permissionRegistry",
          "type": "address"
        },
        {
          "internalType": "address",
          "name": "_votingMachine",
          "type": "address"
        }
      ],
      "name": "initialize",
      "outputs": [],
      "stateMutability": "nonpayable",
      "type": "function"
    },
    {
      "inputs": [
        {
          "internalType": "address",
          "name": "_token",
          "type": "address"
        },
        {
          "internalType": "uint256",
          "name": "_proposalTime",
          "type": "uint256"
        },
        {
          "internalType": "uint256",
          "name": "_timeForExecution",
          "type": "uint256"
        },
        {
          "internalType": "uint256",
          "name": "_votingPowerPercentageForProposalExecution",
          "type": "uint256"
        },
        {
          "internalType": "uint256",
          "name": "_votingPowerPercentageForProposalCreation",
          "type": "uint256"
        },
        {
          "internalType": "string",
          "name": "_name",
          "type": "string"
        },
        {
          "internalType": "uint256",
          "name": "_voteGas",
          "type": "uint256"
        },
        {
          "internalType": "uint256",
          "name": "_maxGasPrice",
          "type": "uint256"
        },
        {
          "internalType": "uint256",
          "name": "_maxActiveProposals",
          "type": "uint256"
        },
        {
          "internalType": "uint256",
          "name": "_lockTime",
          "type": "uint256"
        },
        {
          "internalType": "address",
          "name": "_permissionRegistry",
          "type": "address"
        }
      ],
      "name": "initialize",
      "outputs": [],
      "stateMutability": "nonpayable",
      "type": "function"
    },
    {
      "inputs": [],
      "name": "lockTime",
      "outputs": [
        {
          "internalType": "uint256",
          "name": "",
          "type": "uint256"
        }
      ],
      "stateMutability": "view",
      "type": "function"
    },
    {
      "inputs": [
        {
          "internalType": "uint256",
          "name": "tokenAmount",
          "type": "uint256"
        }
      ],
      "name": "lockTokens",
      "outputs": [],
      "stateMutability": "nonpayable",
      "type": "function"
    },
    {
      "inputs": [],
      "name": "maxActiveProposals",
      "outputs": [
        {
          "internalType": "uint256",
          "name": "",
          "type": "uint256"
        }
      ],
      "stateMutability": "view",
      "type": "function"
    },
    {
      "inputs": [],
      "name": "maxGasPrice",
      "outputs": [
        {
          "internalType": "uint256",
          "name": "",
          "type": "uint256"
        }
      ],
      "stateMutability": "view",
      "type": "function"
    },
    {
      "inputs": [],
      "name": "minimumMembersForProposalCreation",
      "outputs": [
        {
          "internalType": "uint256",
          "name": "",
          "type": "uint256"
        }
      ],
      "stateMutability": "view",
      "type": "function"
    },
    {
      "inputs": [],
      "name": "minimumTokensLockedForProposalCreation",
      "outputs": [
        {
          "internalType": "uint256",
          "name": "",
          "type": "uint256"
        }
      ],
      "stateMutability": "view",
      "type": "function"
    },
    {
      "inputs": [],
      "name": "name",
      "outputs": [
        {
          "internalType": "string",
          "name": "",
          "type": "string"
        }
      ],
      "stateMutability": "view",
      "type": "function"
    },
    {
      "inputs": [],
      "name": "owner",
      "outputs": [
        {
          "internalType": "address",
          "name": "",
          "type": "address"
        }
      ],
      "stateMutability": "view",
      "type": "function"
    },
    {
      "inputs": [],
      "name": "proposalTime",
      "outputs": [
        {
          "internalType": "uint256",
          "name": "",
          "type": "uint256"
        }
      ],
      "stateMutability": "view",
      "type": "function"
    },
    {
      "inputs": [
        {
          "internalType": "bytes32",
          "name": "",
          "type": "bytes32"
        },
        {
          "internalType": "address",
          "name": "",
          "type": "address"
        }
      ],
      "name": "proposalVotes",
      "outputs": [
        {
          "internalType": "uint256",
          "name": "option",
          "type": "uint256"
        },
        {
          "internalType": "uint256",
          "name": "votingPower",
          "type": "uint256"
        }
      ],
      "stateMutability": "view",
      "type": "function"
    },
    {
      "inputs": [
        {
          "internalType": "bytes32",
          "name": "",
          "type": "bytes32"
        }
      ],
      "name": "proposals",
      "outputs": [
        {
          "internalType": "address",
          "name": "creator",
          "type": "address"
        },
        {
          "internalType": "uint256",
          "name": "startTime",
          "type": "uint256"
        },
        {
          "internalType": "uint256",
          "name": "endTime",
          "type": "uint256"
        },
        {
          "internalType": "string",
          "name": "title",
          "type": "string"
        },
        {
          "internalType": "string",
          "name": "contentHash",
          "type": "string"
        },
        {
          "internalType": "enum BaseERC20Guild.ProposalState",
          "name": "state",
          "type": "uint8"
        }
      ],
      "stateMutability": "view",
      "type": "function"
    },
    {
      "inputs": [
        {
          "internalType": "uint256",
          "name": "",
          "type": "uint256"
        }
      ],
      "name": "proposalsIds",
      "outputs": [
        {
          "internalType": "bytes32",
          "name": "",
          "type": "bytes32"
        }
      ],
      "stateMutability": "view",
      "type": "function"
    },
    {
      "inputs": [],
      "name": "renounceOwnership",
      "outputs": [],
      "stateMutability": "nonpayable",
      "type": "function"
    },
    {
      "inputs": [
        {
          "internalType": "uint256",
          "name": "_proposalTime",
          "type": "uint256"
        },
        {
          "internalType": "uint256",
          "name": "_timeForExecution",
          "type": "uint256"
        },
        {
          "internalType": "uint256",
          "name": "_votingPowerPercentageForProposalExecution",
          "type": "uint256"
        },
        {
          "internalType": "uint256",
          "name": "_votingPowerPercentageForProposalCreation",
          "type": "uint256"
        },
        {
          "internalType": "uint256",
          "name": "_voteGas",
          "type": "uint256"
        },
        {
          "internalType": "uint256",
          "name": "_maxGasPrice",
          "type": "uint256"
        },
        {
          "internalType": "uint256",
          "name": "_maxActiveProposals",
          "type": "uint256"
        },
        {
          "internalType": "uint256",
          "name": "_lockTime",
          "type": "uint256"
        },
        {
          "internalType": "uint256",
          "name": "_minimumMembersForProposalCreation",
          "type": "uint256"
        },
        {
          "internalType": "uint256",
          "name": "_minimumTokensLockedForProposalCreation",
          "type": "uint256"
        }
      ],
      "name": "setConfig",
      "outputs": [],
      "stateMutability": "nonpayable",
      "type": "function"
    },
    {
      "inputs": [
        {
          "internalType": "bytes32",
          "name": "proposalId",
          "type": "bytes32"
        },
        {
          "internalType": "uint256",
          "name": "option",
          "type": "uint256"
        },
        {
          "internalType": "uint256",
          "name": "votingPower",
          "type": "uint256"
        },
        {
          "internalType": "address",
          "name": "voter",
          "type": "address"
        },
        {
          "internalType": "bytes",
          "name": "signature",
          "type": "bytes"
        }
      ],
      "name": "setSignedVote",
      "outputs": [],
      "stateMutability": "nonpayable",
      "type": "function"
    },
    {
      "inputs": [
        {
          "internalType": "bytes32",
          "name": "proposalId",
          "type": "bytes32"
        },
        {
          "internalType": "uint256",
          "name": "option",
          "type": "uint256"
        },
        {
          "internalType": "uint256",
          "name": "votingPower",
          "type": "uint256"
        }
      ],
      "name": "setVote",
      "outputs": [],
      "stateMutability": "nonpayable",
      "type": "function"
    },
    {
      "inputs": [
        {
          "internalType": "bytes32",
          "name": "",
          "type": "bytes32"
        }
      ],
      "name": "signedVotes",
      "outputs": [
        {
          "internalType": "bool",
          "name": "",
          "type": "bool"
        }
      ],
      "stateMutability": "view",
      "type": "function"
    },
    {
      "inputs": [],
      "name": "timeForExecution",
      "outputs": [
        {
          "internalType": "uint256",
          "name": "",
          "type": "uint256"
        }
      ],
      "stateMutability": "view",
      "type": "function"
    },
    {
      "inputs": [],
      "name": "token",
      "outputs": [
        {
          "internalType": "contract IERC20Upgradeable",
          "name": "",
          "type": "address"
        }
      ],
      "stateMutability": "view",
      "type": "function"
    },
    {
      "inputs": [],
      "name": "tokenVault",
      "outputs": [
        {
          "internalType": "contract TokenVault",
          "name": "",
          "type": "address"
        }
      ],
      "stateMutability": "view",
      "type": "function"
    },
    {
      "inputs": [
        {
          "internalType": "address",
          "name": "",
          "type": "address"
        }
      ],
      "name": "tokensLocked",
      "outputs": [
        {
          "internalType": "uint256",
          "name": "amount",
          "type": "uint256"
        },
        {
          "internalType": "uint256",
          "name": "timestamp",
          "type": "uint256"
        }
      ],
      "stateMutability": "view",
      "type": "function"
    },
    {
      "inputs": [],
      "name": "totalLocked",
      "outputs": [
        {
          "internalType": "uint256",
          "name": "",
          "type": "uint256"
        }
      ],
      "stateMutability": "view",
      "type": "function"
    },
    {
      "inputs": [],
      "name": "totalProposals",
      "outputs": [
        {
          "internalType": "uint256",
          "name": "",
          "type": "uint256"
        }
      ],
      "stateMutability": "view",
      "type": "function"
    },
    {
      "inputs": [
        {
          "internalType": "address",
          "name": "newOwner",
          "type": "address"
        }
      ],
      "name": "transferOwnership",
      "outputs": [],
      "stateMutability": "nonpayable",
      "type": "function"
    },
    {
      "inputs": [
        {
          "internalType": "bytes32",
          "name": "root",
          "type": "bytes32"
        },
        {
          "internalType": "bytes32",
          "name": "voteHash",
          "type": "bytes32"
        },
        {
          "internalType": "bytes32[]",
          "name": "proof",
          "type": "bytes32[]"
        }
      ],
      "name": "validateMerkleTreeLeaf",
      "outputs": [
        {
          "internalType": "bool",
          "name": "",
          "type": "bool"
        }
      ],
      "stateMutability": "nonpayable",
      "type": "function"
    },
    {
      "inputs": [],
      "name": "voteGas",
      "outputs": [
        {
          "internalType": "uint256",
          "name": "",
          "type": "uint256"
        }
      ],
      "stateMutability": "view",
      "type": "function"
    },
    {
      "inputs": [
        {
          "internalType": "address",
          "name": "account",
          "type": "address"
        }
      ],
      "name": "votingPowerOf",
      "outputs": [
        {
          "internalType": "uint256",
          "name": "",
          "type": "uint256"
        }
      ],
      "stateMutability": "view",
      "type": "function"
    },
    {
      "inputs": [],
      "name": "votingPowerPercentageForProposalCreation",
      "outputs": [
        {
          "internalType": "uint256",
          "name": "",
          "type": "uint256"
        }
      ],
      "stateMutability": "view",
      "type": "function"
    },
    {
      "inputs": [],
      "name": "votingPowerPercentageForProposalExecution",
      "outputs": [
        {
          "internalType": "uint256",
          "name": "",
          "type": "uint256"
        }
      ],
      "stateMutability": "view",
      "type": "function"
    },
    {
      "inputs": [
        {
          "internalType": "uint256",
          "name": "tokenAmount",
          "type": "uint256"
        }
      ],
      "name": "withdrawTokens",
      "outputs": [],
      "stateMutability": "nonpayable",
      "type": "function"
    }
  ],
  "bytecode": "0x608060405234801561001057600080fd5b50615fe280620000216000396000f3fe608060405260043610620003e55760003560e01c8063671abed71162000203578063ae6192341162000117578063e045035311620000a7578063f4732da61162000075578063f4732da61462000c06578063f98606a71462000c1d578063fc0c546a1462000c35578063fc4e703f1462000c5757005b8063e04503531462000b6e578063e158080a1462000b86578063f09951981462000b9e578063f2fde38b1462000be157005b8063b7c15f8d11620000e5578063b7c15f8d1462000b04578063bcc3f3bd1462000b1b578063c0a4d64d1462000b40578063c93e01e31462000b5757005b8063ae6192341462000a7d578063afd22c401462000a95578063b3929aaa1462000aba578063b3b470611462000adf57005b80638ddaae9e1162000193578063a78d80fc1162000161578063a78d80fc1462000a11578063a7aeb5571462000a29578063ab6ea06b1462000a41578063ad6c1e341462000a6657005b80638ddaae9e14620009905780638f18030514620009b557806392b7165414620009cc578063a16fe34214620009f157005b806377027ff411620001d157806377027ff4146200090e5780638029eff1146200092557806389c98c0614620009595780638da5cb5b146200097057005b8063671abed714620008865780636c8b72f614620008ba5780636e27d88914620008d1578063715018a614620008f657005b806325c069fc11620002fb5780633de39c11116200028b57806356891412116200025957806356891412146200081d5780635bc789d914620008355780635e508c2c146200085757806364fe6ed2146200086f57005b80633de39c1114620007995780633f10cf1514620007b1578063430694cf14620007c957806354f2f7af14620007fd57005b8063315a095d11620002c9578063315a095d14620006fe57806332ed5b12146200072357806336f8f8d9146200075c5780633bf353fb146200078157005b806325c069fc146200062d5780632d5b17de14620006575780632d757c3e146200067c5780632fd99c0014620006b957005b806316bbecde116200037757806321df0da7116200034557806321df0da714620005a65780632229a0e214620005da5780632457e39314620005f15780632467ef94146200061657005b806316bbecde146200053a57806317d7de7c146200055f578063184a0ae914620005775780631a5007dd146200058f57005b80630d66808711620003b55780630d66808714620004b3578063123f6d6714620004cb578063130485fe14620004f057806313108d74146200051557005b80623a40d014620003e757806301a598a6146200041757806306fdde0314620004655780630a366a63146200048c575b005b348015620003f457600080fd5b50620003ff62000c6f565b6040516200040e9190620045ec565b60405180910390f35b3480156200042457600080fd5b506200044f620004363660046200464f565b6012602052600090815260409020805460019091015482565b604080519283526020830191909152016200040e565b3480156200047257600080fd5b506200047d62000cc9565b6040516200040e9190620046bd565b3480156200049957600080fd5b50620004a462000d5f565b6040519081526020016200040e565b348015620004c057600080fd5b50620004a4600d5481565b348015620004d857600080fd5b50620003e5620004ea366004620046d2565b62000d8c565b348015620004fd57600080fd5b506200044f6200050f3660046200473b565b62000f25565b3480156200052257600080fd5b50620004a462000534366004620049d4565b62000f57565b3480156200054757600080fd5b50620003e56200055936600462004abd565b6200153d565b3480156200056c57600080fd5b506200047d62001684565b3480156200058457600080fd5b50620004a460035481565b3480156200059c57600080fd5b50600a54620004a4565b348015620005b357600080fd5b506000546001600160a01b03165b6040516001600160a01b0390911681526020016200040e565b348015620005e757600080fd5b50601654620004a4565b348015620005fe57600080fd5b50620003e56200061036600462004aea565b62001715565b3480156200062357600080fd5b50600c54620004a4565b3480156200063a57600080fd5b5062000644600a81565b60405160ff90911681526020016200040e565b3480156200066457600080fd5b50620003e56200067636600462004b85565b6200185e565b3480156200068957600080fd5b50620004a46200069b3660046200464f565b6001600160a01b031660009081526012602052604090206001015490565b348015620006c657600080fd5b50620006ed620006d836600462004bf5565b60136020526000908152604090205460ff1681565b60405190151581526020016200040e565b3480156200070b57600080fd5b50620003e56200071d36600462004bf5565b62001ad2565b3480156200073057600080fd5b50620007486200074236600462004bf5565b62001d2d565b6040516200040e9695949392919062004c48565b3480156200076957600080fd5b50620003e56200077b36600462004ca8565b62001e91565b3480156200078e57600080fd5b50620004a4600c5481565b348015620007a657600080fd5b50620004a460085481565b348015620007be57600080fd5b50620004a460045481565b348015620007d657600080fd5b50620007ee620007e836600462004bf5565b620020b7565b6040516200040e919062004e1d565b3480156200080a57600080fd5b506011546001600160a01b0316620005c1565b3480156200082a57600080fd5b50620004a4600e5481565b3480156200084257600080fd5b50601154620005c1906001600160a01b031681565b3480156200086457600080fd5b50620004a460055481565b3480156200087c57600080fd5b50601054620004a4565b3480156200089357600080fd5b50620008ab620008a536600462004f2a565b6200246a565b6040516200040e919062004fbb565b348015620008c757600080fd5b50600754620004a4565b348015620008de57600080fd5b50620003e5620008f036600462004bf5565b620028db565b3480156200090357600080fd5b50620003e562002a6b565b3480156200091b57600080fd5b50600954620004a4565b3480156200093257600080fd5b50620006ed6200094436600462004bf5565b60009081526013602052604090205460ff1690565b3480156200096657600080fd5b50600854620004a4565b3480156200097d57600080fd5b50604a546001600160a01b0316620005c1565b3480156200099d57600080fd5b50620003e5620009af3660046200508c565b62002ad5565b348015620009c257600080fd5b50600b54620004a4565b348015620009d957600080fd5b50620004a4620009eb366004620051e4565b62002bf4565b348015620009fe57600080fd5b506001546001600160a01b0316620005c1565b34801562000a1e57600080fd5b50620004a4600a5481565b34801562000a3657600080fd5b50620004a4600f5481565b34801562000a4e57600080fd5b50620006ed62000a6036600462005220565b62002c4b565b34801562000a7357600080fd5b50600f54620004a4565b34801562000a8a57600080fd5b50620004a462002c62565b34801562000aa257600080fd5b50620003e562000ab436600462005269565b62002c7c565b34801562000ac757600080fd5b50620004a462000ad936600462004bf5565b62002fd8565b34801562000aec57600080fd5b50620003e562000afe36600462004bf5565b62002ffa565b34801562000b1157600080fd5b50600454620004a4565b34801562000b2857600080fd5b50620004a462000b3a3660046200464f565b62003947565b34801562000b4d57600080fd5b50600d54620004a4565b34801562000b6457600080fd5b50600354620004a4565b34801562000b7b57600080fd5b50620004a460095481565b34801562000b9357600080fd5b50620004a460105481565b34801562000bab57600080fd5b506200044f62000bbd3660046200473b565b60146020908152600092835260408084209091529082529020805460019091015482565b34801562000bee57600080fd5b50620003e562000c003660046200464f565b62003962565b34801562000c1357600080fd5b50600e54620004a4565b34801562000c2a57600080fd5b50620004a460065481565b34801562000c4257600080fd5b50600054620005c1906001600160a01b031681565b34801562000c6457600080fd5b50620004a460075481565b6060601680548060200260200160405190810160405280929190818152602001828054801562000cbf57602002820191906000526020600020905b81548152602001906001019080831162000caa575b5050505050905090565b6002805462000cd89062005306565b80601f016020809104026020016040519081016040528092919081815260200182805462000d069062005306565b801562000d575780601f1062000d2b5761010080835404028352916020019162000d57565b820191906000526020600020905b81548152906001019060200180831162000d3957829003601f168201915b505050505081565b600062000d8761271062000d8060065462000d79600e5490565b9062003a33565b9062003a48565b905090565b33301462000e125760405162461bcd60e51b815260206004820152604260248201527f45524332304775696c643a204f6e6c792063616c6c61626c652062792045524360448201527f32306775696c6420697473656c66206f72207768656e20696e697469616c697a606482015261195960f21b608482015260a4015b60405180910390fd5b60008a1162000e355760405162461bcd60e51b815260040162000e099062005343565b8983101562000e585760405162461bcd60e51b815260040162000e099062005392565b6000881162000e7b5760405162461bcd60e51b815260040162000e0990620053ef565b6201c90886111562000ef65760405162461bcd60e51b815260206004820152603960248201527f45524332304775696c643a20766f7465206761732068617320746f206265206560448201527f7175616c206f72206c6f776572207468616e2031313730303000000000000000606482015260840162000e09565b600399909955600497909755600595909555600693909355600791909155600855600955600d55600f55601055565b60008281526014602090815260408083206001600160a01b0385168452909152902080546001909101545b9250929050565b6000601054600e54101562000fd55760405162461bcd60e51b815260206004820152603960248201527f45524332304775696c643a204e6f7420656e6f75676820746f6b656e73206c6f60448201527f636b656420746f2063726561746520612070726f706f73616c00000000000000606482015260840162000e09565b600f54600b541015620010475760405162461bcd60e51b815260206004820152603360248201527f45524332304775696c643a204e6f7420656e6f756768206d656d6265727320746044820152721bc818dc99585d194818481c1c9bdc1bdcd85b606a1b606482015260840162000e09565b600954600c5410620010bb5760405162461bcd60e51b815260206004820152603660248201527f45524332304775696c643a204d6178696d756d20616d6f756e74206f662061636044820152751d1a5d99481c1c9bdc1bdcd85b1cc81c995858da195960521b606482015260840162000e09565b620010c562000d5f565b620010d03362003947565b10156200113e5760405162461bcd60e51b815260206004820152603560248201527f45524332304775696c643a204e6f7420656e6f75676820766f74696e67506f77604482015274195c881d1bc818dc99585d19481c1c9bdc1bdcd85b605a1b606482015260840162000e09565b8551875114801562001151575084518751145b620011bc5760405162461bcd60e51b815260206004820152603460248201527f45524332304775696c643a2057726f6e67206c656e677468206f6620746f2c2060448201527364617461206f722076616c75652061727261797360601b606482015260840162000e09565b6000875111620012295760405162461bcd60e51b815260206004820152603160248201527f45524332304775696c643a20746f2c20646174612076616c7565206172726179604482015270732063616e6e6f7420626520656d70747960781b606482015260840162000e09565b86518411158015620012465750845162001244908562003a56565b155b620012ba5760405162461bcd60e51b815260206004820152603760248201527f45524332304775696c643a20496e76616c696420746f74616c4f7074696f6e7360448201527f206f72206f7074696f6e2063616c6c73206c656e677468000000000000000000606482015260840162000e09565b600a841115620013335760405162461bcd60e51b815260206004820152603a60248201527f45524332304775696c643a204d6178696d756d20616d6f756e74206f66206f7060448201527f74696f6e73207065722070726f706f73616c2072656163686564000000000000606482015260840162000e09565b600a546040516bffffffffffffffffffffffff193360601b1660208201524260348201526054810191909152600090607401604051602081830303815290604052805190602001209050620013956001600a5462003a6490919063ffffffff16565b600a55600081815260156020526040902080546001600160a01b031916331781554260018201819055600354620013cd919062003a64565b60028201558851620013e990600383019060208c019062004373565b5087516200140190600483019060208b0190620043dd565b5086516200141990600583019060208a01906200443d565b5084516200143190600683019060208801906200447b565b5083516200144990600783019060208701906200447b565b506200145786600162003a64565b6001600160401b038111156200147157620014716200476a565b6040519080825280602002602001820160405280156200149b578160200160208202803683370190505b508051620014b49160098401916020909101906200443d565b5060088101805460ff19166001908117909155600c54620014d59162003a64565b600c558160008051602062005f8d833981519152600160405190815260200160405180910390a250601680546001810182556000919091527fd833147d7dc355ba459fc788f669e58cfaf9dc25ddcd0702e87d69c7b512428901819055979650505050505050565b6000838152601560205260409020600201544210620015705760405162461bcd60e51b815260040162000e09906200544c565b806200157c3362003947565b10158015620015a65750600083815260146020908152604080832033845290915290206001015481115b620015c55760405162461bcd60e51b815260040162000e099062005497565b60008381526014602090815260408083203384529091529020541580156200160757506000838152601460209081526040808320338452909152902060010154155b80620016525750600083815260146020908152604080832033845290915290205482148015620016525750600083815260146020908152604080832033845290915290206001015481115b620016715760405162461bcd60e51b815260040162000e0990620054dd565b6200167f3384848462003a72565b505050565b606060028054620016959062005306565b80601f0160208091040260200160405190810160405280929190818152602001828054620016c39062005306565b801562000cbf5780601f10620016e85761010080835404028352916020019162000cbf565b820191906000526020600020905b815481529060010190602001808311620016f657509395945050505050565b60175462010000900460ff1680620017355750601754610100900460ff16155b620017545760405162461bcd60e51b815260040162000e099062005544565b60175462010000900460ff161580156200177a576017805462ffff001916620101001790555b6200178462003cd3565b620017b98c8c8c8c8c6040518060400160405280600881526020016711161111dd5a5b1960c21b8152508d8d8d8d8d62001e91565b60018054604051636cfe048960e01b81523060048201526001600160a01b03858116602483015263359afa4960e01b6044830152600060648301526084820193909352911690636cfe04899060a401600060405180830381600087803b1580156200182357600080fd5b505af115801562001838573d6000803e3d6000fd5b50505050801562001850576017805462ff0000191690555b505050505050505050505050565b6000858152601560205260409020600201544210620018915760405162461bcd60e51b815260040162000e09906200544c565b6000620018a18387878762002bf4565b60008181526013602052604090205490915060ff1615620019015760405162461bcd60e51b8152602060048201526019602482015278115490cc8c11dd5a5b190e88105b1c9958591e481d9bdd1959603a1b604482015260640162000e09565b6200191882620019118362003d62565b9062003db5565b6001600160a01b0316836001600160a01b031614620019755760405162461bcd60e51b815260206004820152601860248201527722a921991823bab4b6321d102bb937b7339039b4b3b732b960411b604482015260640162000e09565b6000818152601360205260409020805460ff19166001179055836200199a8462003947565b10158015620019cd575060008681526014602090815260408083206001600160a01b038716845290915290206001015484115b620019ec5760405162461bcd60e51b815260040162000e099062005497565b60008681526014602090815260408083206001600160a01b038716845290915290205415801562001a40575060008681526014602090815260408083206001600160a01b0387168452909152902060010154155b8062001a9d575060008681526014602090815260408083206001600160a01b03871684529091529020548514801562001a9d575060008681526014602090815260408083206001600160a01b038716845290915290206001015484115b62001abc5760405162461bcd60e51b815260040162000e0990620054dd565b62001aca8387878762003a72565b505050505050565b8062001ade3362003947565b101562001b4d5760405162461bcd60e51b815260206004820152603660248201527f45524332304775696c643a20556e61626c6520746f207769746864726177206d6044820152751bdc99481d1bdad95b9cc81d1a185b881b1bd8dad95960521b606482015260840162000e09565b33600090815260126020526040902060010154421162001bb05760405162461bcd60e51b815260206004820152601f60248201527f45524332304775696c643a20546f6b656e73207374696c6c206c6f636b656400604482015260640162000e09565b6000811162001c285760405162461bcd60e51b815260206004820152603f60248201527f45524332304775696c643a20616d6f756e74206f6620746f6b656e7320746f2060448201527f7769746864726177206d7573742062652067726561746572207468616e203000606482015260840162000e09565b3360009081526012602052604090205462001c44908262003ddd565b33600090815260126020526040902055600e5462001c63908262003ddd565b600e5560115460405163f3fef3a360e01b8152336004820152602481018390526001600160a01b039091169063f3fef3a390604401600060405180830381600087803b15801562001cb357600080fd5b505af115801562001cc8573d6000803e3d6000fd5b5050505062001cd73362003947565b62001cf057600b5462001cec90600162003ddd565b600b555b60408051338152602081018390527f6352c5382c4a4578e712449ca65e83cdb392d045dfcf1cad9615189db2da244b91015b60405180910390a150565b60156020526000908152604090208054600182015460028301546006840180546001600160a01b0390941694929391929162001d699062005306565b80601f016020809104026020016040519081016040528092919081815260200182805462001d979062005306565b801562001de85780601f1062001dbc5761010080835404028352916020019162001de8565b820191906000526020600020905b81548152906001019060200180831162001dca57829003601f168201915b50505050509080600701805462001dff9062005306565b80601f016020809104026020016040519081016040528092919081815260200182805462001e2d9062005306565b801562001e7e5780601f1062001e525761010080835404028352916020019162001e7e565b820191906000526020600020905b81548152906001019060200180831162001e6057829003601f168201915b5050506008909301549192505060ff1686565b60175462010000900460ff168062001eb15750601754610100900460ff16155b62001ed05760405162461bcd60e51b815260040162000e099062005544565b60175462010000900460ff1615801562001ef6576017805462ffff001916620101001790555b6001600160a01b038c1662001f5d5760405162461bcd60e51b815260206004820152602660248201527f45524332304775696c643a20746f6b656e2063616e74206265207a65726f206160448201526564647265737360d01b606482015260840162000e09565b60008b1162001f805760405162461bcd60e51b815260040162000e099062005343565b8a83101562001fa35760405162461bcd60e51b815260040162000e099062005392565b6000891162001fc65760405162461bcd60e51b815260040162000e0990620053ef565b865162001fdb9060029060208a01906200447b565b50600080546001600160a01b0319166001600160a01b038e1690811790915560405130906200200a90620044f7565b6001600160a01b03928316815291166020820152604001604051809103906000f0801580156200203e573d6000803e3d6000fd5b50601180546001600160a01b03199081166001600160a01b039384161790915560038d905560048c905560058b905560068a9055600788905560088790556009869055600d85905560018054909116918416919091179055801562001850576017805462ff000019169055505050505050505050505050565b620020c162004505565b60008281526015602090815260409182902082516101408101845281546001600160a01b0316815260018201548184015260028201548185015260038201805485518186028101860190965280865291949293606086019392908301828280156200215657602002820191906000526020600020905b81546001600160a01b0316815260019091019060200180831162002137575b5050505050815260200160048201805480602002602001604051908101604052809291908181526020016000905b828210156200223a578382906000526020600020018054620021a69062005306565b80601f0160208091040260200160405190810160405280929190818152602001828054620021d49062005306565b8015620022255780601f10620021f95761010080835404028352916020019162002225565b820191906000526020600020905b8154815290600101906020018083116200220757829003601f168201915b50505050508152602001906001019062002184565b505050508152602001600582018054806020026020016040519081016040528092919081815260200182805480156200229357602002820191906000526020600020905b8154815260200190600101908083116200227e575b50505050508152602001600682018054620022ae9062005306565b80601f0160208091040260200160405190810160405280929190818152602001828054620022dc9062005306565b80156200232d5780601f1062002301576101008083540402835291602001916200232d565b820191906000526020600020905b8154815290600101906020018083116200230f57829003601f168201915b50505050508152602001600782018054620023489062005306565b80601f0160208091040260200160405190810160405280929190818152602001828054620023769062005306565b8015620023c75780601f106200239b57610100808354040283529160200191620023c7565b820191906000526020600020905b815481529060010190602001808311620023a957829003601f168201915b5050509183525050600882015460209091019060ff166004811115620023f157620023f162004c0f565b600481111562002405576200240562004c0f565b8152602001600982018054806020026020016040519081016040528092919081815260200182805480156200245a57602002820191906000526020600020905b81548152602001906001019080831162002445575b5050505050815250509050919050565b6060825184511480156200247f575081518351145b620024f35760405162461bcd60e51b815260206004820152603f60248201527f45524332304775696c643a20496e76616c69642070726f706f73616c4964732c60448201527f206f7074696f6e73206f7220766f74696e67506f77657273206c656e67746800606482015260840162000e09565b60008085516001600160401b038111156200251257620025126200476a565b6040519080825280602002602001820160405280156200253c578160200160208202803683370190505b509050600091505b8551821015620028d257426015600088858151811062002568576200256862005592565b60200260200101518152602001908152602001600020600201541015620025b6576000818381518110620025a057620025a062005592565b91151560209283029190910190910152620028bd565b838281518110620025cb57620025cb62005592565b6020026020010151620025de3362003947565b10806200265b575060146000878481518110620025ff57620025ff62005592565b602002602001015181526020019081526020016000206000336001600160a01b03166001600160a01b031681526020019081526020016000206001015484838151811062002651576200265162005592565b6020026020010151105b1562002678576000818381518110620025a057620025a062005592565b6014600087848151811062002691576200269162005592565b6020908102919091018101518252818101929092526040908101600090812033825290925290205415806200271b575060146000878481518110620026da57620026da62005592565b602002602001015181526020019081526020016000206000336001600160a01b03166001600160a01b03168152602001908152602001600020600101546000145b801562002815575084828151811062002738576200273862005592565b60200260200101516014600088858151811062002759576200275962005592565b602002602001015181526020019081526020016000206000336001600160a01b03166001600160a01b031681526020019081526020016000206000015414158015620028155750838281518110620027b557620027b562005592565b602002602001015160146000888581518110620027d657620027d662005592565b602002602001015181526020019081526020016000206000336001600160a01b03166001600160a01b0316815260200190815260200160002060010154115b1562002832576000818381518110620025a057620025a062005592565b600181838151811062002849576200284962005592565b602002602001019015159081151581525050620028bd3387848151811062002875576200287562005592565b602002602001015187858151811062002892576200289262005592565b6020026020010151878681518110620028af57620028af62005592565b602002602001015162003a72565b81620028c981620055be565b92505062002544565b95945050505050565b60008111620029485760405162461bcd60e51b815260206004820152603260248201527f45524332304775696c643a20546f6b656e7320746f206c6f636b2073686f756c60448201527106420626520686967686572207468616e20360741b606482015260840162000e09565b620029533362003947565b6200296c57600b546200296890600162003a64565b600b555b6011546040516311f9fbc960e21b8152336004820152602481018390526001600160a01b03909116906347e7ef2490604401600060405180830381600087803b158015620029b957600080fd5b505af1158015620029ce573d6000803e3d6000fd5b505033600090815260126020526040902054620029ef925090508262003a64565b33600090815260126020526040902055600d5462002a0f90429062003a64565b33600090815260126020526040902060010155600e5462002a31908262003a64565b600e5560408051338152602081018390527fac87f20a77d28ee8bbb58ec87ea8fa968b3393efae1a368fd50b767c2847391c910162001d22565b604a546001600160a01b0316331462002ac75760405162461bcd60e51b815260206004820181905260248201527f4f776e61626c653a2063616c6c6572206973206e6f7420746865206f776e6572604482015260640162000e09565b62002ad3600062003deb565b565b60005b885181101562002be95762002bd489828151811062002afb5762002afb62005592565b602002602001015189838151811062002b185762002b1862005592565b602002602001015189848151811062002b355762002b3562005592565b602002602001015189858151811062002b525762002b5262005592565b602002602001015189868151811062002b6f5762002b6f62005592565b602002602001015189878151811062002b8c5762002b8c62005592565b602002602001015189888151811062002ba95762002ba962005592565b602002602001015189898151811062002bc65762002bc662005592565b602002602001015162002c7c565b8062002be081620055be565b91505062002ad8565b505050505050505050565b6040516bffffffffffffffffffffffff19606086901b166020820152603481018490526054810183905260748101829052600090609401604051602081830303815290604052805190602001209050949350505050565b600062002c5a82858562003e3d565b949350505050565b600062000d8761271062000d8060055462000d79600e5490565b600062002c8c8886868662002bf4565b905086811462002cdf5760405162461bcd60e51b815260206004820152601d60248201527f45524332304775696c643a20496e76616c696420766f74652068617368000000604482015260640162000e09565b60008181526013602052604090205460ff161562002d3c5760405162461bcd60e51b8152602060048201526019602482015278115490cc8c11dd5a5b190e88105b1c9958591e481d9bdd1959603a1b604482015260640162000e09565b60008960405160200162002d5291815260200190565b60405160208183030381529060405280519060200120905062002d7a83620019118362003d62565b6001600160a01b0316896001600160a01b03161462002dd75760405162461bcd60e51b815260206004820152601860248201527722a921991823bab4b6321d102bb937b7339039b4b3b732b960411b604482015260640162000e09565b600062002de68b8a8a62002c4b565b90508062002e435760405162461bcd60e51b8152602060048201526024808201527f45524332304775696c643a20496e76616c6964206d65726b6c652074726565206044820152633632b0b360e11b606482015260840162000e09565b600087815260156020526040902060020154421062002e765760405162461bcd60e51b815260040162000e09906200544c565b8462002e828b62003947565b1015801562002eb5575060008781526014602090815260408083206001600160a01b038e16845290915290206001015485115b62002ed45760405162461bcd60e51b815260040162000e099062005497565b60008781526014602090815260408083206001600160a01b038e16845290915290205415801562002f28575060008781526014602090815260408083206001600160a01b038e168452909152902060010154155b8062002f85575060008781526014602090815260408083206001600160a01b038e1684529091529020548614801562002f85575060008781526014602090815260408083206001600160a01b038e16845290915290206001015485115b62002fa45760405162461bcd60e51b815260040162000e0990620054dd565b6000838152601360205260409020805460ff1916600117905562002fcb8a88888862003a72565b5050505050505050505050565b6016818154811062002fe957600080fd5b600091825260209091200154905081565b60175460ff16156200305b5760405162461bcd60e51b8152602060048201526024808201527f45524332304775696c643a2050726f706f73616c20756e6465722065786563756044820152633a34b7b760e11b606482015260840162000e09565b600160008281526015602052604090206008015460ff16600481111562003086576200308662004c0f565b14620030e35760405162461bcd60e51b815260206004820152602560248201527f45524332304775696c643a2050726f706f73616c20616c72656164792065786560448201526418dd5d195960da1b606482015260840162000e09565b6000818152601560205260409020600201544211620031535760405162461bcd60e51b815260206004820152602560248201527f45524332304775696c643a2050726f706f73616c206861736e277420656e646560448201526419081e595d60da1b606482015260840162000e09565b6000818152601560205260408120600901805482919082906200317a576200317a62005592565b600091825260209091200154905060015b600084815260156020526040902060090154811015620032ba57620031af62002c62565b6000858152601560205260409020600901805483908110620031d557620031d562005592565b906000526020600020015410158015620032215750600084815260156020526040902060090180548391908390811062003213576200321362005592565b906000526020600020015410155b15620032a557600084815260156020526040902060090180548391908390811062003250576200325062005592565b906000526020600020015414156200326c5760009250620032a5565b6000848152601560205260409020600901805491935083918290811062003297576200329762005592565b906000526020600020015491505b80620032b181620055be565b9150506200318b565b826200330a576000848152601560205260409020600801805460ff19166002908117909155849060008051602062005f8d833981519152905b60405190815260200160405180910390a26200392e565b60045460008581526015602052604090206002015442916200332d919062003a64565b10156200336c576000848152601560205260409020600801805460ff19166004908117909155849060008051602062005f8d83398151915290620032f3565b600084815260156020526040812060088101805460ff1916600317905560090154620033b8906200339f90600162003ddd565b6000878152601560205260409020600301549062003a48565b9050620033d3620033cb85600162003ddd565b829062003a33565b91506000620033e3838362003a64565b9050600160009054906101000a90046001600160a01b03166001600160a01b0316633e7a47b26040518163ffffffff1660e01b8152600401600060405180830381600087803b1580156200343657600080fd5b505af11580156200344b573d6000803e3d6000fd5b505050505b80831015620038855760008681526015602052604081206003018054859081106200347f576200347f62005592565b6000918252602090912001546001600160a01b031614801590620034df57506000868152601560205260408120600401805485908110620034c457620034c462005592565b906000526020600020018054620034db9062005306565b9050115b15620038705760008681526015602052604081206004018054859081106200350b576200350b62005592565b906000526020600020018054620035229062005306565b80601f0160208091040260200160405190810160405280929190818152602001828054620035509062005306565b8015620035a15780601f106200357557610100808354040283529160200191620035a1565b820191906000526020600020905b8154815290600101906020018083116200358357829003601f168201915b50505060208084015160015460008d815260159093526040909220600301805495965090946001600160a01b03909216935063eed470339250309189908110620035ef57620035ef62005592565b9060005260206000200160009054906101000a90046001600160a01b031684601560008e81526020019081526020016000206005018a8154811062003638576200363862005592565b60009182526020909120015460405160e086901b6001600160e01b031990811682526001600160a01b039586166004830152939094166024850152911660448301526064820152608401600060405180830381600087803b1580156200369d57600080fd5b505af1925050508015620036af575060015b6200370b57620036be620055dc565b806308c379a01415620036ff5750620036d6620055f9565b80620036e3575062003701565b8060405162461bcd60e51b815260040162000e099190620046bd565b505b3d6000803e3d6000fd5b6017805460ff1916600117905560008881526015602052604081206003018054879081106200373e576200373e62005592565b60009182526020808320909101548b83526015909152604090912060050180546001600160a01b0390921691889081106200377d576200377d62005592565b9060005260206000200154601560008c81526020019081526020016000206004018881548110620037b257620037b262005592565b90600052602060002001604051620037cb919062005688565b60006040518083038185875af1925050503d80600081146200380a576040519150601f19603f3d011682016040523d82523d6000602084013e6200380f565b606091505b5050905080620038625760405162461bcd60e51b815260206004820181905260248201527f45524332304775696c643a2050726f706f73616c2063616c6c206661696c6564604482015260640162000e09565b50506017805460ff19169055505b826200387c81620055be565b93505062003450565b60015460405163fb0fde8560e01b81523060048201526001600160a01b039091169063fb0fde8590602401602060405180830381600087803b158015620038cb57600080fd5b505af1158015620038e0573d6000803e3d6000fd5b505050506040513d601f19601f820116820180604052508101906200390691906200572c565b508560008051602062005f8d833981519152600360405190815260200160405180910390a250505b600c546200393e90600162003ddd565b600c5550505050565b6001600160a01b031660009081526012602052604090205490565b604a546001600160a01b03163314620039be5760405162461bcd60e51b815260206004820181905260248201527f4f776e61626c653a2063616c6c6572206973206e6f7420746865206f776e6572604482015260640162000e09565b6001600160a01b03811662003a255760405162461bcd60e51b815260206004820152602660248201527f4f776e61626c653a206e6577206f776e657220697320746865207a65726f206160448201526564647265737360d01b606482015260840162000e09565b62003a308162003deb565b50565b600062003a41828462005750565b9392505050565b600062003a41828462005788565b600062003a4182846200579f565b600062003a418284620057b6565b60008381526014602090815260408083206001600160a01b03881684528252808320600101548684526015909252909120600901805462003ae892849262003ae1928790811062003ac75762003ac762005592565b906000526020600020015462003ddd90919063ffffffff16565b9062003a64565b600084815260156020526040902060090180548490811062003b0e5762003b0e62005592565b60009182526020808320909101929092558481526014825260408082206001600160a01b038816835283528082208581556001018490558582526015909252206002015462003b75856001600160a01b031660009081526012602052604090206001015490565b101562003baa576000838152601560209081526040808320600201546001600160a01b03881684526012909252909120600101555b604080516001600160a01b038616815260208101839052839185917f583c62f152711bcb1ca6186c1065821ff17a7cbe226dcb559a1c889dcf0d769b910160405180910390a36007541562003ccd57600062003c2062003c166008543a62003e5590919063ffffffff16565b6007549062003a33565b905080471015801562003c325750333b155b1562003ccb57604051600090339083908381818185875af1925050503d806000811462003c7c576040519150601f19603f3d011682016040523d82523d6000602084013e62003c81565b606091505b505090508062001aca5760405162461bcd60e51b81526020600482015260146024820152734661696c656420746f20726566756e642067617360601b604482015260640162000e09565b505b50505050565b60175462010000900460ff168062003cf35750601754610100900460ff16155b62003d125760405162461bcd60e51b815260040162000e099062005544565b60175462010000900460ff1615801562003d38576017805462ffff001916620101001790555b62003d4262003e6d565b62003d4c62003ee7565b801562003a30576017805462ff00001916905550565b6040517f19457468657265756d205369676e6564204d6573736167653a0a3332000000006020820152603c8101829052600090605c01604051602081830303815290604052805190602001209050919050565b600080600062003dc6858562003f57565b9150915062003dd58162003fcd565b509392505050565b600062003a418284620057d1565b604a80546001600160a01b038381166001600160a01b0319831681179093556040519116919082907f8be0079c531659141344cd1fd0a4f28419497f9722a3daafe3b4186f6b6457e090600090a35050565b60008262003e4c8584620041a0565b14949350505050565b600081831062003e66578162003a41565b5090919050565b60175462010000900460ff168062003e8d5750601754610100900460ff16155b62003eac5760405162461bcd60e51b815260040162000e099062005544565b60175462010000900460ff1615801562003d4c576017805462ffff00191662010100179055801562003a30576017805462ff00001916905550565b60175462010000900460ff168062003f075750601754610100900460ff16155b62003f265760405162461bcd60e51b815260040162000e099062005544565b60175462010000900460ff1615801562003f4c576017805462ffff001916620101001790555b62003d4c3362003deb565b60008082516041141562003f925760208301516040840151606085015160001a62003f85878285856200424d565b9450945050505062000f50565b82516040141562003fc0576020830151604084015162003fb486838362004342565b93509350505062000f50565b5060009050600262000f50565b600081600481111562003fe45762003fe462004c0f565b141562003fee5750565b600181600481111562004005576200400562004c0f565b1415620040555760405162461bcd60e51b815260206004820152601860248201527f45434453413a20696e76616c6964207369676e61747572650000000000000000604482015260640162000e09565b60028160048111156200406c576200406c62004c0f565b1415620040bc5760405162461bcd60e51b815260206004820152601f60248201527f45434453413a20696e76616c6964207369676e6174757265206c656e67746800604482015260640162000e09565b6003816004811115620040d357620040d362004c0f565b14156200412e5760405162461bcd60e51b815260206004820152602260248201527f45434453413a20696e76616c6964207369676e6174757265202773272076616c604482015261756560f01b606482015260840162000e09565b600481600481111562004145576200414562004c0f565b141562003a305760405162461bcd60e51b815260206004820152602260248201527f45434453413a20696e76616c6964207369676e6174757265202776272076616c604482015261756560f01b606482015260840162000e09565b600081815b845181101562003dd5576000858281518110620041c657620041c662005592565b602002602001015190508083116200420a57604080516020810185905290810182905260600160405160208183030381529060405280519060200120925062004237565b60408051602081018390529081018490526060016040516020818303038152906040528051906020012092505b50806200424481620055be565b915050620041a5565b6000807f7fffffffffffffffffffffffffffffff5d576e7357a4501ddfe92f46681b20a083111562004286575060009050600362004339565b8460ff16601b141580156200429f57508460ff16601c14155b15620042b2575060009050600462004339565b6040805160008082526020820180845289905260ff881692820192909252606081018690526080810185905260019060a0016020604051602081039080840390855afa15801562004307573d6000803e3d6000fd5b5050604051601f1901519150506001600160a01b038116620043325760006001925092505062004339565b9150600090505b94509492505050565b6000806001600160ff1b03831660ff84901c601b0162004365878288856200424d565b935093505050935093915050565b828054828255906000526020600020908101928215620043cb579160200282015b82811115620043cb57825182546001600160a01b0319166001600160a01b0390911617825560209092019160019091019062004394565b50620043d992915062004575565b5090565b8280548282559060005260206000209081019282156200442f579160200282015b828111156200442f57825180516200441e9184916020909101906200447b565b5091602001919060010190620043fe565b50620043d99291506200458c565b828054828255906000526020600020908101928215620043cb579160200282015b82811115620043cb5782518255916020019190600101906200445e565b828054620044899062005306565b90600052602060002090601f016020900481019282620044ad5760008555620043cb565b82601f10620044c857805160ff1916838001178555620043cb565b82800160010185558215620043cb5791820182811115620043cb5782518255916020019190600101906200445e565b6107a180620057ec83390190565b60405180610140016040528060006001600160a01b03168152602001600081526020016000815260200160608152602001606081526020016060815260200160608152602001606081526020016000600481111562004568576200456862004c0f565b8152602001606081525090565b5b80821115620043d9576000815560010162004576565b80821115620043d9576000620045a38282620045ad565b506001016200458c565b508054620045bb9062005306565b6000825580601f10620045cc575050565b601f01602090049060005260206000209081019062003a30919062004575565b6020808252825182820181905260009190848201906040850190845b81811015620046265783518352928401929184019160010162004608565b50909695505050505050565b80356001600160a01b03811681146200464a57600080fd5b919050565b6000602082840312156200466257600080fd5b62003a418262004632565b6000815180845260005b81811015620046955760208185018101518683018201520162004677565b81811115620046a8576000602083870101525b50601f01601f19169290920160200192915050565b60208152600062003a4160208301846200466d565b6000806000806000806000806000806101408b8d031215620046f357600080fd5b505088359a60208a01359a5060408a013599606081013599506080810135985060a0810135975060c0810135965060e081013595506101008101359450610120013592509050565b600080604083850312156200474f57600080fd5b82359150620047616020840162004632565b90509250929050565b634e487b7160e01b600052604160045260246000fd5b601f8201601f191681016001600160401b0381118282101715620047a857620047a86200476a565b6040525050565b60006001600160401b03821115620047cb57620047cb6200476a565b5060051b60200190565b600082601f830112620047e757600080fd5b81356020620047f682620047af565b60405162004805828262004780565b83815260059390931b85018201928281019150868411156200482657600080fd5b8286015b848110156200484c576200483e8162004632565b83529183019183016200482a565b509695505050505050565b600082601f8301126200486957600080fd5b81356001600160401b038111156200488557620048856200476a565b6040516200489e601f8301601f19166020018262004780565b818152846020838601011115620048b457600080fd5b816020850160208301376000918101602001919091529392505050565b600082601f830112620048e357600080fd5b81356020620048f282620047af565b60405162004901828262004780565b83815260059390931b85018201928281019150868411156200492257600080fd5b8286015b848110156200484c5780356001600160401b03811115620049475760008081fd5b620049578986838b010162004857565b84525091830191830162004926565b600082601f8301126200497857600080fd5b813560206200498782620047af565b60405162004996828262004780565b83815260059390931b8501820192828101915086841115620049b757600080fd5b8286015b848110156200484c5780358352918301918301620049bb565b60008060008060008060c08789031215620049ee57600080fd5b86356001600160401b038082111562004a0657600080fd5b62004a148a838b01620047d5565b9750602089013591508082111562004a2b57600080fd5b62004a398a838b01620048d1565b9650604089013591508082111562004a5057600080fd5b62004a5e8a838b0162004966565b955060608901359450608089013591508082111562004a7c57600080fd5b62004a8a8a838b0162004857565b935060a089013591508082111562004aa157600080fd5b5062004ab089828a0162004857565b9150509295509295509295565b60008060006060848603121562004ad357600080fd5b505081359360208301359350604090920135919050565b60008060008060008060008060008060006101608c8e03121562004b0d57600080fd5b62004b188c62004632565b9a5060208c0135995060408c0135985060608c0135975060808c0135965060a08c0135955060c08c0135945060e08c013593506101008c0135925062004b626101208d0162004632565b915062004b736101408d0162004632565b90509295989b509295989b9093969950565b600080600080600060a0868803121562004b9e57600080fd5b85359450602086013593506040860135925062004bbe6060870162004632565b915060808601356001600160401b0381111562004bda57600080fd5b62004be88882890162004857565b9150509295509295909350565b60006020828403121562004c0857600080fd5b5035919050565b634e487b7160e01b600052602160045260246000fd5b6005811062004c4457634e487b7160e01b600052602160045260246000fd5b9052565b60018060a01b038716815285602082015284604082015260c06060820152600062004c7760c08301866200466d565b828103608084015262004c8b81866200466d565b91505062004c9d60a083018462004c25565b979650505050505050565b60008060008060008060008060008060006101608c8e03121562004ccb57600080fd5b62004cd68c62004632565b9a5060208c0135995060408c0135985060608c0135975060808c0135965060a08c01356001600160401b0381111562004d0e57600080fd5b62004d1c8e828f0162004857565b96505060c08c0135945060e08c013593506101008c013592506101208c0135915062004b736101408d0162004632565b600081518084526020808501945080840160005b8381101562004d875781516001600160a01b03168752958201959082019060010162004d60565b509495945050505050565b600081518084526020808501808196508360051b8101915082860160005b8581101562004dde57828403895262004dcb8483516200466d565b9885019893509084019060010162004db0565b5091979650505050505050565b600081518084526020808501945080840160005b8381101562004d875781518752958201959082019060010162004dff565b6020815262004e386020820183516001600160a01b03169052565b60208201516040820152604082015160608201526000606083015161014080608085015262004e6c61016085018362004d4c565b91506080850151601f19808685030160a087015262004e8c848362004d92565b935060a08701519150808685030160c087015262004eab848362004deb565b935060c08701519150808685030160e087015262004eca84836200466d565b935060e0870151915061010081878603018188015262004eeb85846200466d565b94508088015192505061012062004f058188018462004c25565b87015186850390910183870152905062004f20838262004deb565b9695505050505050565b60008060006060848603121562004f4057600080fd5b83356001600160401b038082111562004f5857600080fd5b62004f668783880162004966565b9450602086013591508082111562004f7d57600080fd5b62004f8b8783880162004966565b9350604086013591508082111562004fa257600080fd5b5062004fb18682870162004966565b9150509250925092565b6020808252825182820181905260009190848201906040850190845b818110156200462657835115158352928401929184019160010162004fd7565b600082601f8301126200500957600080fd5b813560206200501882620047af565b60405162005027828262004780565b83815260059390931b85018201928281019150868411156200504857600080fd5b8286015b848110156200484c5780356001600160401b038111156200506d5760008081fd5b6200507d8986838b010162004966565b8452509183019183016200504c565b600080600080600080600080610100898b031215620050aa57600080fd5b88356001600160401b0380821115620050c257600080fd5b620050d08c838d0162004966565b995060208b0135915080821115620050e757600080fd5b620050f58c838d01620047d5565b985060408b01359150808211156200510c57600080fd5b6200511a8c838d0162004966565b975060608b01359150808211156200513157600080fd5b6200513f8c838d0162004ff7565b965060808b01359150808211156200515657600080fd5b620051648c838d0162004966565b955060a08b01359150808211156200517b57600080fd5b620051898c838d0162004966565b945060c08b0135915080821115620051a057600080fd5b620051ae8c838d0162004966565b935060e08b0135915080821115620051c557600080fd5b50620051d48b828c01620048d1565b9150509295985092959890939650565b60008060008060808587031215620051fb57600080fd5b620052068562004632565b966020860135965060408601359560600135945092505050565b6000806000606084860312156200523657600080fd5b833592506020840135915060408401356001600160401b038111156200525b57600080fd5b62004fb18682870162004966565b600080600080600080600080610100898b0312156200528757600080fd5b883597506200529960208a0162004632565b96506040890135955060608901356001600160401b0380821115620052bd57600080fd5b620052cb8c838d0162004966565b965060808b0135955060a08b0135945060c08b0135935060e08b0135915080821115620052f757600080fd5b50620051d48b828c0162004857565b600181811c908216806200531b57607f821691505b602082108114156200533d57634e487b7160e01b600052602260045260246000fd5b50919050565b6020808252602f908201527f45524332304775696c643a2070726f706f73616c2074696d652068617320746f60408201526e0206265206d6f7265207468616e203608c1b606082015260800190565b6020808252603e908201527f45524332304775696c643a206c6f636b54696d652068617320746f206265206860408201527f6967686572206f7220657175616c20746f2070726f706f73616c54696d650000606082015260800190565b6020808252603c908201527f45524332304775696c643a20766f74696e6720706f77657220666f722065786560408201527f637574696f6e2068617320746f206265206d6f7265207468616e203000000000606082015260800190565b6020808252602b908201527f45524332304775696c643a2050726f706f73616c20656e6465642c2063616e6e60408201526a1bdd081899481d9bdd195960aa1b606082015260800190565b60208082526026908201527f45524332304775696c643a20496e76616c696420766f74696e67506f77657220604082015265185b5bdd5b9d60d21b606082015260800190565b60208082526041908201527f45524332304775696c643a2043616e6e6f74206368616e6765206f7074696f6e60408201527f20766f7465642c206f6e6c7920696e63726561736520766f74696e67506f77656060820152603960f91b608082015260a00190565b6020808252602e908201527f496e697469616c697a61626c653a20636f6e747261637420697320616c72656160408201526d191e481a5b9a5d1a585b1a5e995960921b606082015260800190565b634e487b7160e01b600052603260045260246000fd5b634e487b7160e01b600052601160045260246000fd5b6000600019821415620055d557620055d5620055a8565b5060010190565b600060033d1115620055f65760046000803e5060005160e01c5b90565b600060443d1015620056085790565b6040516003193d81016004833e81513d6001600160401b0381602484011181841117156200563857505050505090565b8285019150815181811115620056515750505050505090565b843d87010160208285010111156200566c5750505050505090565b6200567d6020828601018762004780565b509095945050505050565b600080835481600182811c915080831680620056a557607f831692505b6020808410821415620056c657634e487b7160e01b86526022600452602486fd5b818015620056dd5760018114620056ef576200571e565b60ff198616895284890196506200571e565b60008a81526020902060005b86811015620057165781548b820152908501908301620056fb565b505084890196505b509498975050505050505050565b6000602082840312156200573f57600080fd5b8151801515811462003a4157600080fd5b60008160001904831182151516156200576d576200576d620055a8565b500290565b634e487b7160e01b600052601260045260246000fd5b6000826200579a576200579a62005772565b500490565b600082620057b157620057b162005772565b500690565b60008219821115620057cc57620057cc620055a8565b500190565b600082821015620057e657620057e6620055a8565b50039056fe608060405234801561001057600080fd5b506040516107a13803806107a183398101604081905261002f9161007c565b600080546001600160a01b039384166001600160a01b031991821617909155600180549290931691161790556100af565b80516001600160a01b038116811461007757600080fd5b919050565b6000806040838503121561008f57600080fd5b61009883610060565b91506100a660208401610060565b90509250929050565b6106e3806100be6000396000f3fe608060405234801561001057600080fd5b506004361061007d5760003560e01c80636e9960c31161005b5780636e9960c3146100ef578063f3fef3a314610100578063f851a44014610113578063fc0c546a1461012657600080fd5b806321df0da71461008257806327e235e3146100ac57806347e7ef24146100da575b600080fd5b6000546001600160a01b03165b6040516001600160a01b0390911681526020015b60405180910390f35b6100cc6100ba366004610586565b60026020526000908152604090205481565b6040519081526020016100a3565b6100ed6100e83660046105a1565b610139565b005b6001546001600160a01b031661008f565b6100ed61010e3660046105a1565b61020a565b60015461008f906001600160a01b031681565b60005461008f906001600160a01b031681565b6001546001600160a01b031633146101af5760405162461bcd60e51b815260206004820152602e60248201527f546f6b656e5661756c743a204465706f736974206d7573742062652073656e7460448201526d103a343937bab3b41030b236b4b760911b60648201526084015b60405180910390fd5b6000546101c7906001600160a01b031683308461025b565b6001600160a01b0382166000908152600260205260409020546101ea90826102cc565b6001600160a01b0390921660009081526002602052604090209190915550565b6001546001600160a01b0316331461022157600080fd5b600054610238906001600160a01b031683836102df565b6001600160a01b0382166000908152600260205260409020546101ea9082610314565b6040516001600160a01b03808516602483015283166044820152606481018290526102c69085906323b872dd60e01b906084015b60408051601f198184030181529190526020810180516001600160e01b03166001600160e01b031990931692909217909152610320565b50505050565b60006102d882846105e1565b9392505050565b6040516001600160a01b03831660248201526044810182905261030f90849063a9059cbb60e01b9060640161028f565b505050565b60006102d882846105f9565b6000610375826040518060400160405280602081526020017f5361666545524332303a206c6f772d6c6576656c2063616c6c206661696c6564815250856001600160a01b03166103f29092919063ffffffff16565b80519091501561030f57808060200190518101906103939190610610565b61030f5760405162461bcd60e51b815260206004820152602a60248201527f5361666545524332303a204552433230206f7065726174696f6e20646964206e6044820152691bdd081cdd58d8d9595960b21b60648201526084016101a6565b60606104018484600085610409565b949350505050565b60608247101561046a5760405162461bcd60e51b815260206004820152602660248201527f416464726573733a20696e73756666696369656e742062616c616e636520666f6044820152651c8818d85b1b60d21b60648201526084016101a6565b843b6104b85760405162461bcd60e51b815260206004820152601d60248201527f416464726573733a2063616c6c20746f206e6f6e2d636f6e747261637400000060448201526064016101a6565b600080866001600160a01b031685876040516104d4919061065e565b60006040518083038185875af1925050503d8060008114610511576040519150601f19603f3d011682016040523d82523d6000602084013e610516565b606091505b5091509150610526828286610531565b979650505050505050565b606083156105405750816102d8565b8251156105505782518084602001fd5b8160405162461bcd60e51b81526004016101a6919061067a565b80356001600160a01b038116811461058157600080fd5b919050565b60006020828403121561059857600080fd5b6102d88261056a565b600080604083850312156105b457600080fd5b6105bd8361056a565b946020939093013593505050565b634e487b7160e01b600052601160045260246000fd5b600082198211156105f4576105f46105cb565b500190565b60008282101561060b5761060b6105cb565b500390565b60006020828403121561062257600080fd5b815180151581146102d857600080fd5b60005b8381101561064d578181015183820152602001610635565b838111156102c65750506000910152565b60008251610670818460208701610632565b9190910192915050565b6020815260008251806020840152610699816040850160208701610632565b601f01601f1916919091016040019291505056fea2646970667358221220f83df9be484204d29c000a118187aee7d3ca7efcb094476e4ad893327bb967b564736f6c63430008080033fee62a9eec0be50eb061c711990ef0f1e17b40ea131d9347b0468acdaf8bf243a2646970667358221220721a1fe1952611eca0d2f8063c63a1c42c38541d5489e9c59ead9ba0a39d097c64736f6c63430008080033",
  "linkReferences": {},
  "deployedLinkReferences": {}
}