{
  "_format": "hh-sol-artifact-1",
  "contractName": "DXDVotingMachine",
  "sourceName": "dxdao-contracts/contracts/dxvote/DXDVotingMachine.sol",
  "abi": [
    {
      "inputs": [
        {
          "internalType": "contract IERC20",
          "name": "_stakingToken",
          "type": "address"
        }
      ],
      "payable": false,
      "stateMutability": "nonpayable",
      "type": "constructor"
    },
    {
      "anonymous": false,
      "inputs": [
        {
          "indexed": true,
          "internalType": "bytes32",
          "name": "_proposalId",
          "type": "bytes32"
        },
        {
          "indexed": true,
          "internalType": "address",
          "name": "_organization",
          "type": "address"
        }
      ],
      "name": "CancelProposal",
      "type": "event"
    },
    {
      "anonymous": false,
      "inputs": [
        {
          "indexed": true,
          "internalType": "bytes32",
          "name": "_proposalId",
          "type": "bytes32"
        },
        {
          "indexed": true,
          "internalType": "address",
          "name": "_organization",
          "type": "address"
        },
        {
          "indexed": true,
          "internalType": "address",
          "name": "_voter",
          "type": "address"
        }
      ],
      "name": "CancelVoting",
      "type": "event"
    },
    {
      "anonymous": false,
      "inputs": [
        {
          "indexed": true,
          "internalType": "bytes32",
          "name": "_proposalId",
          "type": "bytes32"
        },
        {
          "indexed": false,
          "internalType": "uint256",
          "name": "_confidenceThreshold",
          "type": "uint256"
        }
      ],
      "name": "ConfidenceLevelChange",
      "type": "event"
    },
    {
      "anonymous": false,
      "inputs": [
        {
          "indexed": true,
          "internalType": "bytes32",
          "name": "_proposalId",
          "type": "bytes32"
        },
        {
          "indexed": true,
          "internalType": "address",
          "name": "_organization",
          "type": "address"
        },
        {
          "indexed": false,
          "internalType": "uint256",
          "name": "_decision",
          "type": "uint256"
        },
        {
          "indexed": false,
          "internalType": "uint256",
          "name": "_totalReputation",
          "type": "uint256"
        }
      ],
      "name": "ExecuteProposal",
      "type": "event"
    },
    {
      "anonymous": false,
      "inputs": [
        {
          "indexed": true,
          "internalType": "bytes32",
          "name": "_proposalId",
          "type": "bytes32"
        },
        {
          "indexed": true,
          "internalType": "address",
          "name": "_beneficiary",
          "type": "address"
        },
        {
          "indexed": false,
          "internalType": "uint256",
          "name": "_amount",
          "type": "uint256"
        }
      ],
      "name": "ExpirationCallBounty",
      "type": "event"
    },
    {
      "anonymous": false,
      "inputs": [
        {
          "indexed": true,
          "internalType": "bytes32",
          "name": "_proposalId",
          "type": "bytes32"
        },
        {
          "indexed": false,
          "internalType": "enum GenesisProtocolLogic.ExecutionState",
          "name": "_executionState",
          "type": "uint8"
        }
      ],
      "name": "GPExecuteProposal",
      "type": "event"
    },
    {
      "anonymous": false,
      "inputs": [
        {
          "indexed": true,
          "internalType": "bytes32",
          "name": "_proposalId",
          "type": "bytes32"
        },
        {
          "indexed": true,
          "internalType": "address",
          "name": "_organization",
          "type": "address"
        },
        {
          "indexed": false,
          "internalType": "uint256",
          "name": "_numOfChoices",
          "type": "uint256"
        },
        {
          "indexed": false,
          "internalType": "address",
          "name": "_proposer",
          "type": "address"
        },
        {
          "indexed": false,
          "internalType": "bytes32",
          "name": "_paramsHash",
          "type": "bytes32"
        }
      ],
      "name": "NewProposal",
      "type": "event"
    },
    {
      "anonymous": false,
      "inputs": [
        {
          "indexed": true,
          "internalType": "bytes32",
          "name": "_proposalId",
          "type": "bytes32"
        },
        {
          "indexed": true,
          "internalType": "address",
          "name": "_organization",
          "type": "address"
        },
        {
          "indexed": true,
          "internalType": "address",
          "name": "_beneficiary",
          "type": "address"
        },
        {
          "indexed": false,
          "internalType": "uint256",
          "name": "_amount",
          "type": "uint256"
        }
      ],
      "name": "Redeem",
      "type": "event"
    },
    {
      "anonymous": false,
      "inputs": [
        {
          "indexed": true,
          "internalType": "bytes32",
          "name": "_proposalId",
          "type": "bytes32"
        },
        {
          "indexed": true,
          "internalType": "address",
          "name": "_organization",
          "type": "address"
        },
        {
          "indexed": true,
          "internalType": "address",
          "name": "_beneficiary",
          "type": "address"
        },
        {
          "indexed": false,
          "internalType": "uint256",
          "name": "_amount",
          "type": "uint256"
        }
      ],
      "name": "RedeemDaoBounty",
      "type": "event"
    },
    {
      "anonymous": false,
      "inputs": [
        {
          "indexed": true,
          "internalType": "bytes32",
          "name": "_proposalId",
          "type": "bytes32"
        },
        {
          "indexed": true,
          "internalType": "address",
          "name": "_organization",
          "type": "address"
        },
        {
          "indexed": true,
          "internalType": "address",
          "name": "_beneficiary",
          "type": "address"
        },
        {
          "indexed": false,
          "internalType": "uint256",
          "name": "_amount",
          "type": "uint256"
        }
      ],
      "name": "RedeemReputation",
      "type": "event"
    },
    {
      "anonymous": false,
      "inputs": [
        {
          "indexed": true,
          "internalType": "bytes32",
          "name": "_proposalId",
          "type": "bytes32"
        },
        {
          "indexed": true,
          "internalType": "address",
          "name": "_organization",
          "type": "address"
        },
        {
          "indexed": true,
          "internalType": "address",
          "name": "_staker",
          "type": "address"
        },
        {
          "indexed": false,
          "internalType": "uint256",
          "name": "_vote",
          "type": "uint256"
        },
        {
          "indexed": false,
          "internalType": "uint256",
          "name": "_amount",
          "type": "uint256"
        }
      ],
      "name": "Stake",
      "type": "event"
    },
    {
      "anonymous": false,
      "inputs": [
        {
          "indexed": true,
          "internalType": "bytes32",
          "name": "_proposalId",
          "type": "bytes32"
        },
        {
          "indexed": false,
          "internalType": "enum GenesisProtocolLogic.ProposalState",
          "name": "_proposalState",
          "type": "uint8"
        }
      ],
      "name": "StateChange",
      "type": "event"
    },
    {
      "anonymous": false,
      "inputs": [
        {
          "indexed": true,
          "internalType": "bytes32",
          "name": "_proposalId",
          "type": "bytes32"
        },
        {
          "indexed": true,
          "internalType": "address",
          "name": "_organization",
          "type": "address"
        },
        {
          "indexed": true,
          "internalType": "address",
          "name": "_voter",
          "type": "address"
        },
        {
          "indexed": false,
          "internalType": "uint256",
          "name": "_vote",
          "type": "uint256"
        },
        {
          "indexed": false,
          "internalType": "uint256",
          "name": "_reputation",
          "type": "uint256"
        }
      ],
      "name": "VoteProposal",
      "type": "event"
    },
    {
      "anonymous": false,
      "inputs": [
        {
          "indexed": false,
          "internalType": "bytes32",
          "name": "proposalId",
          "type": "bytes32"
        },
        {
          "indexed": false,
          "internalType": "address",
          "name": "voter",
          "type": "address"
        },
        {
          "indexed": false,
          "internalType": "uint256",
          "name": "voteDecision",
          "type": "uint256"
        },
        {
          "indexed": false,
          "internalType": "uint256",
          "name": "amount",
          "type": "uint256"
        }
      ],
      "name": "VoteSignaled",
      "type": "event"
    },
    {
      "anonymous": false,
      "inputs": [
        {
          "indexed": false,
          "internalType": "address",
          "name": "votingMachine",
          "type": "address"
        },
        {
          "indexed": false,
          "internalType": "bytes32",
          "name": "proposalId",
          "type": "bytes32"
        },
        {
          "indexed": false,
          "internalType": "address",
          "name": "voter",
          "type": "address"
        },
        {
          "indexed": false,
          "internalType": "uint256",
          "name": "voteDecision",
          "type": "uint256"
        },
        {
          "indexed": false,
          "internalType": "uint256",
          "name": "amount",
          "type": "uint256"
        },
        {
          "indexed": false,
          "internalType": "bytes",
          "name": "signature",
          "type": "bytes"
        }
      ],
      "name": "VoteSigned",
      "type": "event"
    },
    {
      "payable": true,
      "stateMutability": "payable",
      "type": "fallback"
    },
    {
      "constant": true,
      "inputs": [],
      "name": "DELEGATION_HASH_EIP712",
      "outputs": [
        {
          "internalType": "bytes32",
          "name": "",
          "type": "bytes32"
        }
      ],
      "payable": false,
      "stateMutability": "view",
      "type": "function"
    },
    {
      "constant": true,
      "inputs": [],
      "name": "NO",
      "outputs": [
        {
          "internalType": "uint256",
          "name": "",
          "type": "uint256"
        }
      ],
      "payable": false,
      "stateMutability": "view",
      "type": "function"
    },
    {
      "constant": true,
      "inputs": [],
      "name": "NUM_OF_CHOICES",
      "outputs": [
        {
          "internalType": "uint256",
          "name": "",
          "type": "uint256"
        }
      ],
      "payable": false,
      "stateMutability": "view",
      "type": "function"
    },
    {
      "constant": true,
      "inputs": [],
      "name": "YES",
      "outputs": [
        {
          "internalType": "uint256",
          "name": "",
          "type": "uint256"
        }
      ],
      "payable": false,
      "stateMutability": "view",
      "type": "function"
    },
    {
      "constant": true,
      "inputs": [
        {
          "internalType": "bytes32",
          "name": "",
          "type": "bytes32"
        }
      ],
      "name": "averagesDownstakesOfBoosted",
      "outputs": [
        {
          "internalType": "uint256",
          "name": "",
          "type": "uint256"
        }
      ],
      "payable": false,
      "stateMutability": "view",
      "type": "function"
    },
    {
      "constant": true,
      "inputs": [
        {
          "internalType": "bytes32",
          "name": "",
          "type": "bytes32"
        },
        {
          "internalType": "bytes32",
          "name": "",
          "type": "bytes32"
        }
      ],
      "name": "boostedVoteRequiredPercentage",
      "outputs": [
        {
          "internalType": "uint256",
          "name": "",
          "type": "uint256"
        }
      ],
      "payable": false,
      "stateMutability": "view",
      "type": "function"
    },
    {
      "constant": true,
      "inputs": [
        {
          "internalType": "bytes32",
          "name": "_proposalId",
          "type": "bytes32"
        }
      ],
      "name": "calcExecuteCallBounty",
      "outputs": [
        {
          "internalType": "uint256",
          "name": "",
          "type": "uint256"
        }
      ],
      "payable": false,
      "stateMutability": "view",
      "type": "function"
    },
    {
      "constant": false,
      "inputs": [
        {
          "internalType": "bytes32",
          "name": "_proposalId",
          "type": "bytes32"
        }
      ],
      "name": "cancelVote",
      "outputs": [],
      "payable": false,
      "stateMutability": "nonpayable",
      "type": "function"
    },
    {
      "constant": false,
      "inputs": [
        {
          "internalType": "bytes32",
          "name": "_proposalId",
          "type": "bytes32"
        }
      ],
      "name": "execute",
      "outputs": [
        {
          "internalType": "bool",
          "name": "",
          "type": "bool"
        }
      ],
      "payable": false,
      "stateMutability": "nonpayable",
      "type": "function"
    },
    {
      "constant": false,
      "inputs": [
        {
          "internalType": "bytes32",
          "name": "_proposalId",
          "type": "bytes32"
        }
      ],
      "name": "executeBoosted",
      "outputs": [
        {
          "internalType": "uint256",
          "name": "expirationCallBounty",
          "type": "uint256"
        }
      ],
      "payable": false,
      "stateMutability": "nonpayable",
      "type": "function"
    },
    {
      "constant": false,
      "inputs": [
        {
          "internalType": "bytes32",
          "name": "proposalId",
          "type": "bytes32"
        },
        {
          "internalType": "address",
          "name": "voter",
          "type": "address"
        }
      ],
      "name": "executeSignaledVote",
      "outputs": [],
      "payable": false,
      "stateMutability": "nonpayable",
      "type": "function"
    },
    {
      "constant": false,
      "inputs": [
        {
          "internalType": "address",
          "name": "votingMachine",
          "type": "address"
        },
        {
          "internalType": "bytes32",
          "name": "proposalId",
          "type": "bytes32"
        },
        {
          "internalType": "address",
          "name": "voter",
          "type": "address"
        },
        {
          "internalType": "uint256",
          "name": "voteDecision",
          "type": "uint256"
        },
        {
          "internalType": "uint256",
          "name": "amount",
          "type": "uint256"
        },
        {
          "internalType": "bytes",
          "name": "signature",
          "type": "bytes"
        }
      ],
      "name": "executeSignedVote",
      "outputs": [],
      "payable": false,
      "stateMutability": "nonpayable",
      "type": "function"
    },
    {
      "constant": true,
      "inputs": [],
      "name": "getAllowedRangeOfChoices",
      "outputs": [
        {
          "internalType": "uint256",
          "name": "min",
          "type": "uint256"
        },
        {
          "internalType": "uint256",
          "name": "max",
          "type": "uint256"
        }
      ],
      "payable": false,
      "stateMutability": "pure",
      "type": "function"
    },
    {
      "constant": true,
      "inputs": [
        {
          "internalType": "address",
          "name": "avatar",
          "type": "address"
        },
        {
          "internalType": "address",
          "name": "scheme",
          "type": "address"
        },
        {
          "internalType": "bytes32",
          "name": "paramsHash",
          "type": "bytes32"
        }
      ],
      "name": "getBoostedVoteRequiredPercentage",
      "outputs": [
        {
          "internalType": "uint256",
          "name": "",
          "type": "uint256"
        }
      ],
      "payable": false,
      "stateMutability": "view",
      "type": "function"
    },
    {
      "constant": true,
      "inputs": [
        {
          "internalType": "bytes32",
          "name": "_proposalId",
          "type": "bytes32"
        }
      ],
      "name": "getNumberOfChoices",
      "outputs": [
        {
          "internalType": "uint256",
          "name": "",
          "type": "uint256"
        }
      ],
      "payable": false,
      "stateMutability": "view",
      "type": "function"
    },
    {
      "constant": true,
      "inputs": [
        {
          "internalType": "uint256[11]",
          "name": "_params",
          "type": "uint256[11]"
        },
        {
          "internalType": "address",
          "name": "_voteOnBehalf",
          "type": "address"
        }
      ],
      "name": "getParametersHash",
      "outputs": [
        {
          "internalType": "bytes32",
          "name": "",
          "type": "bytes32"
        }
      ],
      "payable": false,
      "stateMutability": "pure",
      "type": "function"
    },
    {
      "constant": true,
      "inputs": [
        {
          "internalType": "bytes32",
          "name": "_proposalId",
          "type": "bytes32"
        }
      ],
      "name": "getProposalOrganization",
      "outputs": [
        {
          "internalType": "bytes32",
          "name": "",
          "type": "bytes32"
        }
      ],
      "payable": false,
      "stateMutability": "view",
      "type": "function"
    },
    {
      "constant": true,
      "inputs": [
        {
          "internalType": "bytes32",
          "name": "_proposalId",
          "type": "bytes32"
        }
      ],
      "name": "getProposalTimes",
      "outputs": [
        {
          "internalType": "uint256[3]",
          "name": "times",
          "type": "uint256[3]"
        }
      ],
      "payable": false,
      "stateMutability": "view",
      "type": "function"
    },
    {
      "constant": true,
      "inputs": [
        {
          "internalType": "bytes32",
          "name": "_proposalId",
          "type": "bytes32"
        },
        {
          "internalType": "address",
          "name": "_staker",
          "type": "address"
        }
      ],
      "name": "getStaker",
      "outputs": [
        {
          "internalType": "uint256",
          "name": "",
          "type": "uint256"
        },
        {
          "internalType": "uint256",
          "name": "",
          "type": "uint256"
        }
      ],
      "payable": false,
      "stateMutability": "view",
      "type": "function"
    },
    {
      "constant": true,
      "inputs": [
        {
          "internalType": "address",
          "name": "votingMachine",
          "type": "address"
        },
        {
          "internalType": "bytes32",
          "name": "proposalId",
          "type": "bytes32"
        },
        {
          "internalType": "address",
          "name": "voter",
          "type": "address"
        },
        {
          "internalType": "uint256",
          "name": "voteDecision",
          "type": "uint256"
        },
        {
          "internalType": "uint256",
          "name": "amount",
          "type": "uint256"
        }
      ],
      "name": "hashVote",
      "outputs": [
        {
          "internalType": "bytes32",
          "name": "",
          "type": "bytes32"
        }
      ],
      "payable": false,
      "stateMutability": "pure",
      "type": "function"
    },
    {
      "constant": true,
      "inputs": [],
      "name": "isAbstainAllow",
      "outputs": [
        {
          "internalType": "bool",
          "name": "",
          "type": "bool"
        }
      ],
      "payable": false,
      "stateMutability": "pure",
      "type": "function"
    },
    {
      "constant": true,
      "inputs": [
        {
          "internalType": "bytes32",
          "name": "_proposalId",
          "type": "bytes32"
        }
      ],
      "name": "isVotable",
      "outputs": [
        {
          "internalType": "bool",
          "name": "",
          "type": "bool"
        }
      ],
      "payable": false,
      "stateMutability": "view",
      "type": "function"
    },
    {
      "constant": true,
      "inputs": [
        {
          "internalType": "bytes32",
          "name": "",
          "type": "bytes32"
        }
      ],
      "name": "orgBoostedProposalsCnt",
      "outputs": [
        {
          "internalType": "uint256",
          "name": "",
          "type": "uint256"
        }
      ],
      "payable": false,
      "stateMutability": "view",
      "type": "function"
    },
    {
      "constant": true,
      "inputs": [
        {
          "internalType": "address",
          "name": "",
          "type": "address"
        }
      ],
      "name": "organizationRefunds",
      "outputs": [
        {
          "internalType": "uint256",
          "name": "balance",
          "type": "uint256"
        },
        {
          "internalType": "uint256",
          "name": "voteGas",
          "type": "uint256"
        },
        {
          "internalType": "uint256",
          "name": "maxGasPrice",
          "type": "uint256"
        }
      ],
      "payable": false,
      "stateMutability": "view",
      "type": "function"
    },
    {
      "constant": true,
      "inputs": [
        {
          "internalType": "bytes32",
          "name": "",
          "type": "bytes32"
        }
      ],
      "name": "organizations",
      "outputs": [
        {
          "internalType": "address",
          "name": "",
          "type": "address"
        }
      ],
      "payable": false,
      "stateMutability": "view",
      "type": "function"
    },
    {
      "constant": true,
      "inputs": [
        {
          "internalType": "bytes32",
          "name": "",
          "type": "bytes32"
        }
      ],
      "name": "parameters",
      "outputs": [
        {
          "internalType": "uint256",
          "name": "queuedVoteRequiredPercentage",
          "type": "uint256"
        },
        {
          "internalType": "uint256",
          "name": "queuedVotePeriodLimit",
          "type": "uint256"
        },
        {
          "internalType": "uint256",
          "name": "boostedVotePeriodLimit",
          "type": "uint256"
        },
        {
          "internalType": "uint256",
          "name": "preBoostedVotePeriodLimit",
          "type": "uint256"
        },
        {
          "internalType": "uint256",
          "name": "thresholdConst",
          "type": "uint256"
        },
        {
          "internalType": "uint256",
          "name": "limitExponentValue",
          "type": "uint256"
        },
        {
          "internalType": "uint256",
          "name": "quietEndingPeriod",
          "type": "uint256"
        },
        {
          "internalType": "uint256",
          "name": "proposingRepReward",
          "type": "uint256"
        },
        {
          "internalType": "uint256",
          "name": "votersReputationLossRatio",
          "type": "uint256"
        },
        {
          "internalType": "uint256",
          "name": "minimumDaoBounty",
          "type": "uint256"
        },
        {
          "internalType": "uint256",
          "name": "daoBountyConst",
          "type": "uint256"
        },
        {
          "internalType": "uint256",
          "name": "activationTime",
          "type": "uint256"
        },
        {
          "internalType": "address",
          "name": "voteOnBehalf",
          "type": "address"
        }
      ],
      "payable": false,
      "stateMutability": "view",
      "type": "function"
    },
    {
      "constant": true,
      "inputs": [
        {
          "internalType": "bytes32",
          "name": "_proposalId",
          "type": "bytes32"
        }
      ],
      "name": "proposalStatus",
      "outputs": [
        {
          "internalType": "uint256",
          "name": "",
          "type": "uint256"
        },
        {
          "internalType": "uint256",
          "name": "",
          "type": "uint256"
        },
        {
          "internalType": "uint256",
          "name": "",
          "type": "uint256"
        },
        {
          "internalType": "uint256",
          "name": "",
          "type": "uint256"
        }
      ],
      "payable": false,
      "stateMutability": "view",
      "type": "function"
    },
    {
      "constant": true,
      "inputs": [
        {
          "internalType": "bytes32",
          "name": "_proposalId",
          "type": "bytes32"
        }
      ],
      "name": "proposalStatusWithVotes",
      "outputs": [
        {
          "internalType": "uint256",
          "name": "",
          "type": "uint256"
        },
        {
          "internalType": "uint256",
          "name": "",
          "type": "uint256"
        },
        {
          "internalType": "uint256",
          "name": "",
          "type": "uint256"
        },
        {
          "internalType": "uint256",
          "name": "",
          "type": "uint256"
        },
        {
          "internalType": "uint256",
          "name": "",
          "type": "uint256"
        },
        {
          "internalType": "uint256",
          "name": "",
          "type": "uint256"
        }
      ],
      "payable": false,
      "stateMutability": "view",
      "type": "function"
    },
    {
      "constant": true,
      "inputs": [
        {
          "internalType": "bytes32",
          "name": "",
          "type": "bytes32"
        }
      ],
      "name": "proposals",
      "outputs": [
        {
          "internalType": "bytes32",
          "name": "organizationId",
          "type": "bytes32"
        },
        {
          "internalType": "address",
          "name": "callbacks",
          "type": "address"
        },
        {
          "internalType": "enum GenesisProtocolLogic.ProposalState",
          "name": "state",
          "type": "uint8"
        },
        {
          "internalType": "uint256",
          "name": "winningVote",
          "type": "uint256"
        },
        {
          "internalType": "address",
          "name": "proposer",
          "type": "address"
        },
        {
          "internalType": "uint256",
          "name": "currentBoostedVotePeriodLimit",
          "type": "uint256"
        },
        {
          "internalType": "bytes32",
          "name": "paramsHash",
          "type": "bytes32"
        },
        {
          "internalType": "uint256",
          "name": "daoBountyRemain",
          "type": "uint256"
        },
        {
          "internalType": "uint256",
          "name": "daoBounty",
          "type": "uint256"
        },
        {
          "internalType": "uint256",
          "name": "totalStakes",
          "type": "uint256"
        },
        {
          "internalType": "uint256",
          "name": "confidenceThreshold",
          "type": "uint256"
        },
        {
          "internalType": "uint256",
          "name": "secondsFromTimeOutTillExecuteBoosted",
          "type": "uint256"
        },
        {
          "internalType": "bool",
          "name": "daoRedeemItsWinnings",
          "type": "bool"
        }
      ],
      "payable": false,
      "stateMutability": "view",
      "type": "function"
    },
    {
      "constant": true,
      "inputs": [],
      "name": "proposalsCnt",
      "outputs": [
        {
          "internalType": "uint256",
          "name": "",
          "type": "uint256"
        }
      ],
      "payable": false,
      "stateMutability": "view",
      "type": "function"
    },
    {
      "constant": false,
      "inputs": [
        {
          "internalType": "uint256",
          "name": "",
          "type": "uint256"
        },
        {
          "internalType": "bytes32",
          "name": "_paramsHash",
          "type": "bytes32"
        },
        {
          "internalType": "address",
          "name": "_proposer",
          "type": "address"
        },
        {
          "internalType": "address",
          "name": "_organization",
          "type": "address"
        }
      ],
      "name": "propose",
      "outputs": [
        {
          "internalType": "bytes32",
          "name": "",
          "type": "bytes32"
        }
      ],
      "payable": false,
      "stateMutability": "nonpayable",
      "type": "function"
    },
    {
      "constant": false,
      "inputs": [
        {
          "internalType": "uint256",
          "name": "_choicesAmount",
          "type": "uint256"
        },
        {
          "internalType": "bytes32",
          "name": "_paramsHash",
          "type": "bytes32"
        },
        {
          "internalType": "address",
          "name": "_proposer",
          "type": "address"
        },
        {
          "internalType": "address",
          "name": "_organization",
          "type": "address"
        }
      ],
      "name": "proposeMultipleChoice",
      "outputs": [
        {
          "internalType": "bytes32",
          "name": "",
          "type": "bytes32"
        }
      ],
      "payable": false,
      "stateMutability": "nonpayable",
      "type": "function"
    },
    {
      "constant": false,
      "inputs": [
        {
          "internalType": "bytes32",
          "name": "_proposalId",
          "type": "bytes32"
        },
        {
          "internalType": "address",
          "name": "_beneficiary",
          "type": "address"
        }
      ],
      "name": "redeem",
      "outputs": [
        {
          "internalType": "uint256[3]",
          "name": "rewards",
          "type": "uint256[3]"
        }
      ],
      "payable": false,
      "stateMutability": "nonpayable",
      "type": "function"
    },
    {
      "constant": false,
      "inputs": [
        {
          "internalType": "bytes32",
          "name": "_proposalId",
          "type": "bytes32"
        },
        {
          "internalType": "address",
          "name": "_beneficiary",
          "type": "address"
        }
      ],
      "name": "redeemDaoBounty",
      "outputs": [
        {
          "internalType": "uint256",
          "name": "redeemedAmount",
          "type": "uint256"
        },
        {
          "internalType": "uint256",
          "name": "potentialAmount",
          "type": "uint256"
        }
      ],
      "payable": false,
      "stateMutability": "nonpayable",
      "type": "function"
    },
    {
      "constant": true,
      "inputs": [
        {
          "internalType": "bytes32",
          "name": "_proposalId",
          "type": "bytes32"
        }
      ],
      "name": "score",
      "outputs": [
        {
          "internalType": "uint256",
          "name": "",
          "type": "uint256"
        }
      ],
      "payable": false,
      "stateMutability": "view",
      "type": "function"
    },
    {
      "constant": false,
      "inputs": [
        {
          "internalType": "address",
          "name": "_scheme",
          "type": "address"
        },
        {
          "internalType": "bytes32",
          "name": "_paramsHash",
          "type": "bytes32"
        },
        {
          "internalType": "uint256",
          "name": "_boostedVotePeriodLimit",
          "type": "uint256"
        }
      ],
      "name": "setBoostedVoteRequiredPercentage",
      "outputs": [],
      "payable": false,
      "stateMutability": "nonpayable",
      "type": "function"
    },
    {
      "constant": false,
      "inputs": [
        {
          "internalType": "uint256",
          "name": "_voteGas",
          "type": "uint256"
        },
        {
          "internalType": "uint256",
          "name": "_maxGasPrice",
          "type": "uint256"
        }
      ],
      "name": "setOrganizationRefund",
      "outputs": [],
      "payable": false,
      "stateMutability": "nonpayable",
      "type": "function"
    },
    {
      "constant": false,
      "inputs": [
        {
          "internalType": "uint256[11]",
          "name": "_params",
          "type": "uint256[11]"
        },
        {
          "internalType": "address",
          "name": "_voteOnBehalf",
          "type": "address"
        }
      ],
      "name": "setParameters",
      "outputs": [
        {
          "internalType": "bytes32",
          "name": "",
          "type": "bytes32"
        }
      ],
      "payable": false,
      "stateMutability": "nonpayable",
      "type": "function"
    },
    {
      "constant": false,
      "inputs": [
        {
          "internalType": "address",
          "name": "votingMachine",
          "type": "address"
        },
        {
          "internalType": "bytes32",
          "name": "proposalId",
          "type": "bytes32"
        },
        {
          "internalType": "address",
          "name": "voter",
          "type": "address"
        },
        {
          "internalType": "uint256",
          "name": "voteDecision",
          "type": "uint256"
        },
        {
          "internalType": "uint256",
          "name": "amount",
          "type": "uint256"
        },
        {
          "internalType": "bytes",
          "name": "signature",
          "type": "bytes"
        }
      ],
      "name": "shareSignedVote",
      "outputs": [],
      "payable": false,
      "stateMutability": "nonpayable",
      "type": "function"
    },
    {
      "constant": true,
      "inputs": [
        {
          "internalType": "bytes32",
          "name": "_proposalId",
          "type": "bytes32"
        }
      ],
      "name": "shouldBoost",
      "outputs": [
        {
          "internalType": "bool",
          "name": "",
          "type": "bool"
        }
      ],
      "payable": false,
      "stateMutability": "view",
      "type": "function"
    },
    {
      "constant": false,
      "inputs": [
        {
          "internalType": "bytes32",
          "name": "proposalId",
          "type": "bytes32"
        },
        {
          "internalType": "uint256",
          "name": "voteDecision",
          "type": "uint256"
        },
        {
          "internalType": "uint256",
          "name": "amount",
          "type": "uint256"
        }
      ],
      "name": "signalVote",
      "outputs": [],
      "payable": false,
      "stateMutability": "nonpayable",
      "type": "function"
    },
    {
      "constant": false,
      "inputs": [
        {
          "internalType": "bytes32",
          "name": "_proposalId",
          "type": "bytes32"
        },
        {
          "internalType": "uint256",
          "name": "_vote",
          "type": "uint256"
        },
        {
          "internalType": "uint256",
          "name": "_amount",
          "type": "uint256"
        }
      ],
      "name": "stake",
      "outputs": [
        {
          "internalType": "bool",
          "name": "",
          "type": "bool"
        }
      ],
      "payable": false,
      "stateMutability": "nonpayable",
      "type": "function"
    },
    {
      "constant": false,
      "inputs": [
        {
          "internalType": "bytes32",
          "name": "_proposalId",
          "type": "bytes32"
        },
        {
          "internalType": "uint256",
          "name": "_vote",
          "type": "uint256"
        },
        {
          "internalType": "uint256",
          "name": "_amount",
          "type": "uint256"
        },
        {
          "internalType": "uint256",
          "name": "_nonce",
          "type": "uint256"
        },
        {
          "internalType": "uint256",
          "name": "_signatureType",
          "type": "uint256"
        },
        {
          "internalType": "bytes",
          "name": "_signature",
          "type": "bytes"
        }
      ],
      "name": "stakeWithSignature",
      "outputs": [
        {
          "internalType": "bool",
          "name": "",
          "type": "bool"
        }
      ],
      "payable": false,
      "stateMutability": "nonpayable",
      "type": "function"
    },
    {
      "constant": true,
      "inputs": [
        {
          "internalType": "address",
          "name": "",
          "type": "address"
        }
      ],
      "name": "stakesNonce",
      "outputs": [
        {
          "internalType": "uint256",
          "name": "",
          "type": "uint256"
        }
      ],
      "payable": false,
      "stateMutability": "view",
      "type": "function"
    },
    {
      "constant": true,
      "inputs": [],
      "name": "stakingToken",
      "outputs": [
        {
          "internalType": "contract IERC20",
          "name": "",
          "type": "address"
        }
      ],
      "payable": false,
      "stateMutability": "view",
      "type": "function"
    },
    {
      "constant": true,
      "inputs": [
        {
          "internalType": "bytes32",
          "name": "_proposalId",
          "type": "bytes32"
        }
      ],
      "name": "state",
      "outputs": [
        {
          "internalType": "enum GenesisProtocolLogic.ProposalState",
          "name": "",
          "type": "uint8"
        }
      ],
      "payable": false,
      "stateMutability": "view",
      "type": "function"
    },
    {
      "constant": true,
      "inputs": [
        {
          "internalType": "bytes32",
          "name": "_paramsHash",
          "type": "bytes32"
        },
        {
          "internalType": "bytes32",
          "name": "_organizationId",
          "type": "bytes32"
        }
      ],
      "name": "threshold",
      "outputs": [
        {
          "internalType": "uint256",
          "name": "",
          "type": "uint256"
        }
      ],
      "payable": false,
      "stateMutability": "view",
      "type": "function"
    },
    {
      "constant": false,
      "inputs": [
        {
          "internalType": "bytes32",
          "name": "_proposalId",
          "type": "bytes32"
        },
        {
          "internalType": "uint256",
          "name": "_vote",
          "type": "uint256"
        },
        {
          "internalType": "uint256",
          "name": "_amount",
          "type": "uint256"
        },
        {
          "internalType": "address",
          "name": "_voter",
          "type": "address"
        }
      ],
      "name": "vote",
      "outputs": [
        {
          "internalType": "bool",
          "name": "",
          "type": "bool"
        }
      ],
      "payable": false,
      "stateMutability": "nonpayable",
      "type": "function"
    },
    {
      "constant": true,
      "inputs": [
        {
          "internalType": "bytes32",
          "name": "_proposalId",
          "type": "bytes32"
        },
        {
          "internalType": "address",
          "name": "_voter",
          "type": "address"
        }
      ],
      "name": "voteInfo",
      "outputs": [
        {
          "internalType": "uint256",
          "name": "",
          "type": "uint256"
        },
        {
          "internalType": "uint256",
          "name": "",
          "type": "uint256"
        }
      ],
      "payable": false,
      "stateMutability": "view",
      "type": "function"
    },
    {
      "constant": true,
      "inputs": [
        {
          "internalType": "bytes32",
          "name": "_proposalId",
          "type": "bytes32"
        },
        {
          "internalType": "uint256",
          "name": "_vote",
          "type": "uint256"
        }
      ],
      "name": "voteStake",
      "outputs": [
        {
          "internalType": "uint256",
          "name": "",
          "type": "uint256"
        }
      ],
      "payable": false,
      "stateMutability": "view",
      "type": "function"
    },
    {
      "constant": true,
      "inputs": [
        {
          "internalType": "bytes32",
          "name": "_proposalId",
          "type": "bytes32"
        },
        {
          "internalType": "uint256",
          "name": "_choice",
          "type": "uint256"
        }
      ],
      "name": "voteStatus",
      "outputs": [
        {
          "internalType": "uint256",
          "name": "",
          "type": "uint256"
        }
      ],
      "payable": false,
      "stateMutability": "view",
      "type": "function"
    },
    {
      "constant": true,
      "inputs": [
        {
          "internalType": "bytes32",
          "name": "",
          "type": "bytes32"
        },
        {
          "internalType": "address",
          "name": "",
          "type": "address"
        }
      ],
      "name": "votesSignaled",
      "outputs": [
        {
          "internalType": "uint256",
          "name": "voteDecision",
          "type": "uint256"
        },
        {
          "internalType": "uint256",
          "name": "amount",
          "type": "uint256"
        }
      ],
      "payable": false,
      "stateMutability": "view",
      "type": "function"
    },
    {
      "constant": true,
      "inputs": [
        {
          "internalType": "bytes32",
          "name": "_proposalId",
          "type": "bytes32"
        }
      ],
      "name": "winningVote",
      "outputs": [
        {
          "internalType": "uint256",
          "name": "",
          "type": "uint256"
        }
      ],
      "payable": false,
      "stateMutability": "view",
      "type": "function"
    },
    {
      "constant": false,
      "inputs": [],
      "name": "withdrawRefundBalance",
      "outputs": [],
      "payable": false,
      "stateMutability": "nonpayable",
      "type": "function"
    }
  ],
  "bytecode": "0x60806040523480156200001157600080fd5b50604051620057f6380380620057f6833981810160405260208110156200003757600080fd5b505180806200006673543ff227f64aa17ea132bf9886cab5db55dcaddf62000138602090811b6200549617901c565b156200009857600680546001600160a01b03191673543ff227f64aa17ea132bf9886cab5db55dcaddf179055620000b4565b600680546001600160a01b0319166001600160a01b0383161790555b50506001600160a01b03811662000112576040805162461bcd60e51b815260206004820152601360248201527f77726f6e67205f7374616b696e67546f6b656e00000000000000000000000000604482015290519081900360640190fd5b600680546001600160a01b0319166001600160a01b039290921691909117905562000175565b6000813f7fc5d2460186f7233c927e7db2dcc703c0e500b653ca82273b7bfad8045d85a47081158015906200016d5750808214155b949350505050565b61567180620001856000396000f3fe6080604052600436106103355760003560e01c806377213844116101ab578063b2449d65116100f7578063c8f526e811610095578063e5af18c51161006f578063e5af18c514610fcd578063e751f27114610ff7578063fb6c0cbb14611021578063fe0d26181461104b57610335565b8063c8f526e814610ed5578063cc3bf9e914610f37578063e09a2c3014610f7057610335565b8063bb5a05ed116100d1578063bb5a05ed14610e27578063beda801514610e51578063c083510614610e7b578063c0ceec1e14610ea557610335565b8063b2449d6514610db8578063b451291314610dcd578063ba51b14e14610dfd57610335565b80639525c0cc11610164578063a003651d1161013e578063a003651d14610cf5578063a05ea6e414610d1f578063a30ccbe614610d52578063ae9f5cea14610d8857610335565b80639525c0cc14610c845780639afeffc114610cae5780639bc5689d146104e057610335565b80637721384414610afa57806379a1c1f614610b4757806380f5e0a114610b9757806381bd671d14610bc157806388737b5e14610c045780638894c41b14610c4b57610335565b8063359afa49116102855780635142bc1e116102235780636359036b116101fd5780636359036b14610a215780636e5b43ec14610a5a5780637074376814610a9957806372f702f314610ac957610335565b80635142bc1e146109a957806351d997b2146109be57806361d585da146109d357610335565b80633d6254c81161025f5780633d6254c8146108595780633fead6501461089257806340474873146108e3578063488c65fc1461090d57610335565b8063359afa49146107425780633a8b3bd2146107875780633c1338181461082f57610335565b80631702ef0c116102f25780632d598e58116102cc5780632d598e58146105f85780632daedd521461062857806330ca0a531461067257806332ed5b121461068757610335565b80631702ef0c1461058057806321b4b3dc146105aa5780632514e2bf146105bf57610335565b806302506804146103b557806307b4e1e31461044d578063089af68e146104c95780630d483442146104e0578063119ce91b146104f557806316db517214610547575b336000908152600960205260409020600101546103835760405162461bcd60e51b81526004018080602001828103825260408152602001806155ca6040913960400191505060405180910390fd5b336000908152600960205260409020546103a3903463ffffffff6110f316565b33600090815260096020526040902055005b3480156103c157600080fd5b506103df600480360360208110156103d857600080fd5b5035611156565b604080519d8e5260208e019c909c528c8c019a909a5260608c019890985260808b019690965260a08a019490945260c089019290925260e08801526101008701526101208601526101408501526101608401526001600160a01b031661018083015251908190036101a00190f35b34801561045957600080fd5b506104b7600480360361018081101561047157600080fd5b81019080806101600190600b806020026040519081016040528092919082600b602002808284376000920191909152509194505050356001600160a01b031690506111c6565b60408051918252519081900360200190f35b3480156104d557600080fd5b506104de6112d6565b005b3480156104ec57600080fd5b506104b76113b4565b34801561050157600080fd5b5061052e6004803603604081101561051857600080fd5b50803590602001356001600160a01b03166113b9565b6040805192835260208301919091528051918290030190f35b34801561055357600080fd5b5061052e6004803603604081101561056a57600080fd5b50803590602001356001600160a01b031661141c565b34801561058c57600080fd5b506104b7600480360360208110156105a357600080fd5b503561144d565b3480156105b657600080fd5b506104b761145f565b3480156105cb57600080fd5b5061052e600480360360408110156105e257600080fd5b50803590602001356001600160a01b0316611465565b34801561060457600080fd5b506104b76004803603604081101561061b57600080fd5b5080359060200135611489565b34801561063457600080fd5b5061065e6004803603606081101561064b57600080fd5b50803590602081013590604001356114d6565b604080519115158252519081900360200190f35b34801561067e57600080fd5b506104b76114ec565b34801561069357600080fd5b506106b1600480360360208110156106aa57600080fd5b5035611598565b604080518e81526001600160a01b038e1660208201529081018c60068111156106d657fe5b60ff168152602081019b909b52506001600160a01b039098166040808b019190915260608a0197909752608089019590955260a088019390935260c087019190915260e08601526101008501526101208401529015156101408301525190819003610160019350915050f35b34801561074e57600080fd5b5061065e6004803603608081101561076557600080fd5b50803590602081013590604081013590606001356001600160a01b0316611606565b34801561079357600080fd5b506104de600480360360c08110156107aa57600080fd5b6001600160a01b03823581169260208101359260408201359092169160608201359160808101359181019060c0810160a08201356401000000008111156107f057600080fd5b82018360208201111561080257600080fd5b8035906020019184600183028401116401000000008311171561082457600080fd5b50909250905061176e565b34801561083b57600080fd5b506104b76004803603602081101561085257600080fd5b503561193e565b34801561086557600080fd5b506104de6004803603604081101561087c57600080fd5b50803590602001356001600160a01b0316611953565b34801561089e57600080fd5b506108c5600480360360208110156108b557600080fd5b50356001600160a01b0316611a84565b60408051938452602084019290925282820152519081900360600190f35b3480156108ef57600080fd5b506104b76004803603602081101561090657600080fd5b5035611aa5565b34801561091957600080fd5b5061065e600480360360c081101561093057600080fd5b8135916020810135916040820135916060810135916080820135919081019060c0810160a082013564010000000081111561096a57600080fd5b82018360208201111561097c57600080fd5b8035906020019184600183028401116401000000008311171561099e57600080fd5b509092509050611b15565b3480156109b557600080fd5b5061052e611db1565b3480156109ca57600080fd5b5061065e611db9565b3480156109df57600080fd5b506109fd600480360360208110156109f657600080fd5b5035611dbf565b60405180826006811115610a0d57fe5b60ff16815260200191505060405180910390f35b348015610a2d57600080fd5b5061052e60048036036040811015610a4457600080fd5b50803590602001356001600160a01b0316611ddf565b348015610a6657600080fd5b506104de60048036036060811015610a7d57600080fd5b506001600160a01b03813516906020810135906040013561205a565b348015610aa557600080fd5b506104b760048036036040811015610abc57600080fd5b50803590602001356120af565b348015610ad557600080fd5b50610ade6120d0565b604080516001600160a01b039092168252519081900360200190f35b348015610b0657600080fd5b506104b7600480360360a0811015610b1d57600080fd5b506001600160a01b03813581169160208101359160408201351690606081013590608001356120df565b348015610b5357600080fd5b50610b7160048036036020811015610b6a57600080fd5b503561213a565b604080519485526020850193909352838301919091526060830152519081900360800190f35b348015610ba357600080fd5b5061065e60048036036020811015610bba57600080fd5b503561217d565b348015610bcd57600080fd5b506104b760048036036060811015610be457600080fd5b506001600160a01b038135811691602081013590911690604001356122ba565b348015610c1057600080fd5b506104b760048036036080811015610c2757600080fd5b508035906020810135906001600160a01b0360408201358116916060013516612314565b348015610c5757600080fd5b506104b76004803603610180811015610c6f57600080fd5b506001600160a01b0361016082013516612323565b348015610c9057600080fd5b506104de60048036036020811015610ca757600080fd5b5035612710565b348015610cba57600080fd5b506104b760048036036080811015610cd157600080fd5b508035906020810135906001600160a01b0360408201358116916060013516612723565b348015610d0157600080fd5b506104b760048036036020811015610d1857600080fd5b5035612731565b348015610d2b57600080fd5b506104b760048036036020811015610d4257600080fd5b50356001600160a01b0316612743565b348015610d5e57600080fd5b506104de60048036036060811015610d7557600080fd5b5080359060208101359060400135612755565b348015610d9457600080fd5b506104b760048036036040811015610dab57600080fd5b50803590602001356128d5565b348015610dc457600080fd5b506104b76128f2565b348015610dd957600080fd5b506104b760048036036040811015610df057600080fd5b50803590602001356128f7565b348015610e0957600080fd5b50610ade60048036036020811015610e2057600080fd5b5035612918565b348015610e3357600080fd5b506104b760048036036020811015610e4a57600080fd5b5035612933565b348015610e5d57600080fd5b506104b760048036036020811015610e7457600080fd5b5035612945565b348015610e8757600080fd5b5061065e60048036036020811015610e9e57600080fd5b5035612b8e565b348015610eb157600080fd5b506104de60048036036040811015610ec857600080fd5b5080359060200135612b99565b348015610ee157600080fd5b50610eff60048036036020811015610ef857600080fd5b5035612bb8565b6040518082606080838360005b83811015610f24578181015183820152602001610f0c565b5050505090500191505060405180910390f35b348015610f4357600080fd5b50610eff60048036036040811015610f5a57600080fd5b50803590602001356001600160a01b0316612c07565b348015610f7c57600080fd5b50610f9a60048036036020811015610f9357600080fd5b5035613378565b604080519687526020870195909552858501939093526060850191909152608084015260a0830152519081900360c00190f35b348015610fd957600080fd5b506104b760048036036020811015610ff057600080fd5b50356133d3565b34801561100357600080fd5b5061065e6004803603602081101561101a57600080fd5b50356133de565b34801561102d57600080fd5b506104b76004803603602081101561104457600080fd5b5035613403565b34801561105757600080fd5b506104de600480360360c081101561106e57600080fd5b6001600160a01b03823581169260208101359260408201359092169160608201359160808101359181019060c0810160a08201356401000000008111156110b457600080fd5b8201836020820111156110c657600080fd5b803590602001918460018302840111640100000000831117156110e857600080fd5b509092509050613415565b60008282018381101561114d576040805162461bcd60e51b815260206004820152601b60248201527f536166654d6174683a206164646974696f6e206f766572666c6f770000000000604482015290519081900360640190fd5b90505b92915050565b600060208190529081526040902080546001820154600283015460038401546004850154600586015460068701546007880154600889015460098a0154600a8b0154600b8c0154600c909c01549a9b999a989997989697959694959394929391929091906001600160a01b03168d565b60008281602002015183600160200201518460026020020151856003602002015186600460200201518760056020020151886006602002015189600760200201518a600860200201518b600960200201518c600a6020020151604051602001808c81526020018b81526020018a81526020018981526020018881526020018781526020018681526020018581526020018481526020018381526020018281526020019b505050505050505050505050604051602081830303815290604052805190602001208260405160200180838152602001826001600160a01b03166001600160a01b031660601b81526014019250505060405160208183030381529060405280519060200120905092915050565b336000908152600960205260409020600101546113245760405162461bcd60e51b81526004018080602001828103825260408152602001806155ca6040913960400191505060405180910390fd5b3360009081526009602052604090205461136f5760405162461bcd60e51b81526004018080602001828103825260358152602001806155956035913960400191505060405180910390fd5b33600081815260096020526040808220805490839055905190929183156108fc02918491818181858888f193505050501580156113b0573d6000803e3d6000fd5b5050565b600281565b6000806113c461530b565b50505060009182526001602081815260408085206001600160a01b039490941685526011909301815292829020825160608101845281548082529282015494810185905260029091015460ff16151592019190915291565b60009182526001602081815260408085206001600160a01b0394909416855260139093019052912080549101549091565b60009081526001602052604090205490565b60055481565b600a6020908152600092835260408084209091529082529020805460019091015482565b60008181526002602090815260408083205485845291839052822060058101548211156114b857806005015491505b60048101546114cd908363ffffffff61358c16565b95945050505050565b60006114e4848484336135d6565b949350505050565b604080517f616464726573732047656e6573697350726f746f636f6c41646472657373000060208083019190915271189e5d195ccccc88141c9bdc1bdcd85b125960721b603e8301526b75696e7432353620566f746560a01b60508301527475696e7432353620416d6f756e74546f5374616b6560581b605c8301526c75696e74323536204e6f6e636560981b60718301528251605e818403018152607e909201909252805191012081565b600160208190526000918252604090912080549181015460028201546003830154600484015460058501546006860154600787015460088801546009890154600a8a0154600e909a01546001600160a01b03808b169b60ff600160a01b909c048c169b99909116989091168d565b600084611612816139ee565b61161b57600080fd5b600086815260016020526040902061163161532e565b5060058082015460009081526020818152604080832081516101a0810183528154815260018201549381019390935260028101549183019190915260038101546060830152600481015460808301529283015460a0820152600683015460c0820152600783015460e082015260088301546101008201526009830154610120820152600a830154610140820152600b830154610160820152600c909201546001600160a01b0316610180830181905215611741578161018001516001600160a01b0316336001600160a01b03161461173a5760405162461bcd60e51b81526004018080602001828103825260258152602001806154ce6025913960400191505060405180910390fd5b5084611744565b50335b60006117528a838b8b613a61565b905061176184600001546140d5565b9998505050505050505050565b858461177982612731565b81111580156117885750600081115b6117d0576040805162461bcd60e51b815260206004820152601460248201527377726f6e67206465636973696f6e2076616c756560601b604482015290519081900360640190fd5b60006117df8a8a8a8a8a6120df565b905061183285858080601f01602080910402602001604051908101604052809392919081815260200183838082843760009201919091525061182692508591506141f69050565b9063ffffffff61424716565b6001600160a01b0316886001600160a01b031614611886576040805162461bcd60e51b815260206004820152600c60248201526b3bb937b7339039b4b3b732b960a11b604482015290519081900360640190fd5b7f46e3ceeda21faa4b362b93454c3125977acdd239013fd4f0ec651e88657e6cfb8a8a8a8a8a8a8a60405180886001600160a01b03166001600160a01b03168152602001878152602001866001600160a01b03166001600160a01b03168152602001858152602001848152602001806020018281038252848482818152602001925080828437600083820152604051601f909101601f19169092018290039a509098505050505050505050a150505050505050505050565b60009081526001602052604090206002015490565b61195c826139ee565b6119a4576040805162461bcd60e51b81526020600482015260146024820152731b9bdd081d9bdd18589b19481c1c9bdc1bdcd85b60621b604482015290519081900360640190fd5b6000828152600a602090815260408083206001600160a01b0385168452909152902054611a0c576040805162461bcd60e51b81526020600482015260116024820152701ddc9bdb99c81d9bdd19481cda185c9959607a1b604482015290519081900360640190fd5b6000828152600a602090815260408083206001600160a01b038516845290915290208054600190910154611a44918491849190613a61565b506000828152600a602090815260408083206001600160a01b0385168452825280832083815560019081018490558584529091529020546113b0906140d5565b60096020526000908152604090208054600182015460029092015490919083565b6000818152600160205260408120600a01546105dc908290611ace90839063ffffffff61433516565b6000858152600160208181526040808420928452601290920190529020549091506114e490600a840290611b0990849063ffffffff61434b16565b9063ffffffff6143a416565b6000808460021415611c385750604080517f616464726573732047656e6573697350726f746f636f6c41646472657373000060208083019190915271189e5d195ccccc88141c9bdc1bdcd85b125960721b603e8301526b75696e7432353620566f746560a01b60508301527475696e7432353620416d6f756e74546f5374616b6560581b605c8301526c75696e74323536204e6f6e636560981b60718301528251605e818403018152607e830184528051908201203060601b609e84015260b283018c905260d283018b905260f283018a90526101128084018a9052845180850390910181526101328401855280519083012061015284019190915261017280840191909152835180840390910181526101929092019092528051910120611c89565b604080513060601b602080830191909152603482018c9052605482018b9052607482018a905260948083018a90528351808403909101815260b49092019092528051910120611c86906141f6565b90505b6000611cd385858080601f016020809104026020016040519081016040528093929190818152602001838380828437600092019190915250869392505063ffffffff614247169050565b90506001600160a01b038116611d30576040805162461bcd60e51b815260206004820152601a60248201527f7374616b657220616464726573732063616e6e6f742062652030000000000000604482015290519081900360640190fd5b6001600160a01b0381166000908152600760205260409020548714611d5457600080fd5b6001600160a01b038116600090815260076020526040902054611d7e90600163ffffffff6110f316565b6001600160a01b038216600090815260076020526040902055611da38a8a8a846135d6565b9a9950505050505050505050565b600160029091565b60005b90565b60009081526001602081905260409091200154600160a01b900460ff1690565b6000828152600160205260408120819060026001820154600160a01b900460ff166006811115611e0b57fe5b14611e1557600080fd5b60028082015460009081526012830160209081526040808320546001600160a01b0389168452601386019092529091209182015490919015801590611e5e575060028301548154145b8015611e6e575060018360020154145b8015611e7957508115155b15611e955781836007015482600201540281611e9157fe5b0493505b8315801590611f2a5750600183015460065460408051636b8eb40360e01b81526001600160a01b039283166004820152602481018b9052905187939290921691636b8eb40391604480820192602092909190829003018186803b158015611efb57600080fd5b505afa158015611f0f573d6000803e3d6000fd5b505050506040513d6020811015611f2557600080fd5b505110155b1561205057600060028201556006830154611f4b908563ffffffff6143e616565b60068085019190915560018401549054604080516317d4ebe560e31b81526001600160a01b039283166004820152898316602482015260448101889052606481018b90529051919092169163bea75f289160848083019260209291908290030181600087803b158015611fbd57600080fd5b505af1158015611fd1573d6000803e3d6000fd5b505050506040513d6020811015611fe757600080fd5b5051611ff257600080fd5b8254600090815260036020908152604091829020548251878152925196975087966001600160a01b03808b16949216928b927fb4a37163ec93e05e09b62e52f7f2ea8cfde431802edede7dfebe53d2ad969dbb929081900390910190a45b5050509250929050565b604080516001600160601b0319606095861b166020808301919091523390951b603482015281516028818303018152604890910182528051908501206000908152600885528181209381529290935291902055565b60009182526001602090815260408084209284526012909201905290205490565b6006546001600160a01b031681565b604080516001600160601b0319606097881b811660208084019190915260348301979097529490961b909316605486015260688501919091526088808501919091528151808503909101815260a89093019052815191012090565b6000908152600160208181526040808420838552601081018352818520546002808752838720549587526012909201909352818520549085529320549093919291565b600061218761539f565b60008381526001602081815260409283902083516101c08101855281548152928101546001600160a01b038116928401929092529192830190600160a01b900460ff1660068111156121d557fe5b60068111156121e057fe5b8152600282015460208201526003808301546001600160a01b0316604080840191909152600484015460608085019190915260058501546080850152600685015460a0850152600785015460c0850152600885015460e08501526009850154610100850152600a8501546101208501528151908101918290526101409093019291600b85019182845b815481526020019060010190808311612269575050509183525050600e919091015460ff16151560209091015260c081015181519192506122a991611489565b6122b284614428565b119392505050565b604080516001600160601b0319606094851b81166020808401919091529590941b90931660348401528051602881850301815260489093018152825192840192909220600090815260088452828120918152925290205490565b60006114cd6002858585614469565b6000606483351180159061233957506032833510155b6123745760405162461bcd60e51b815260040180806020018281038252602981526020018061554b6029913960400191505060405180910390fd5b613e8060808401351180159061238f57506103e86080840135115b6123e0576040805162461bcd60e51b815260206004820152601e60248201527f31303030203c207468726573686f6c64436f6e7374203c3d2031363030300000604482015290519081900360640190fd5b606460e0840135111561243a576040805162461bcd60e51b815260206004820181905260248201527f766f7465727352657075746174696f6e4c6f7373526174696f203c3d20313030604482015290519081900360640190fd5b60a0830135604084013510156124815760405162461bcd60e51b815260040180806020018281038252602b815260200180615520602b913960400191505060405180910390fd5b6101008301356124d8576040805162461bcd60e51b815260206004820152601e60248201527f6d696e696d756d44616f426f756e74792073686f756c64206265203e20300000604482015290519081900360640190fd5b61012083013561252f576040805162461bcd60e51b815260206004820152601c60248201527f64616f426f756e7479436f6e73742073686f756c64206265203e203000000000604482015290519081900360640190fd5b600061256584600b806020026040519081016040528092919082600b602002808284376000920191909152508691506111c69050565b905060ac60026107d05b613e808110156125b757608087013581108015612593575060028102608088013511155b156125a9578183816125a157fe5b0492506125b7565b60019091019060020261256f565b50604080516101a0810182528735815260208089013590820152878201359181019190915260608088013590820152608080820190612604908901356001600160d81b03166103e8614836565b81526020810184905260a088810135604083015260c0808a0135606084015260e0808b013560808501526101008b0135928401929092526101208a0135908301520187600a6020908102919091013582526001600160a01b03978816918101919091526000858152808252604090819020835181559183015160018301558201516002820155606082015160038201556080820151600482015560a0820151600582015560c0820151600682015560e0820151600782015561010082015160088201556101208201516009820155610140820151600a820155610160820151600b82015561018090910151600c90910180546001600160a01b0319169190961617909455509392505050565b8061271a816139ee565b6113b057600080fd5b60006114cd85858585614469565b6000908152600b602052604090205490565b60076020526000908152604090205481565b828261276082612731565b811115801561276f5750600081115b6127b7576040805162461bcd60e51b815260206004820152601460248201527377726f6e67206465636973696f6e2076616c756560601b604482015290519081900360640190fd5b6127c0856139ee565b612808576040805162461bcd60e51b81526020600482015260146024820152731b9bdd081d9bdd18589b19481c1c9bdc1bdcd85b60621b604482015290519081900360640190fd5b6000858152600a6020908152604080832033845290915290205415612864576040805162461bcd60e51b815260206004820152600d60248201526c185b1c9958591e481d9bdd1959609a1b604482015290519081900360640190fd5b6000858152600a6020908152604080832033808552908352928190208781556001018690558051888152918201929092528082018690526060810185905290517f0aad680ea090e3d71ef3942023475bbf0e4092d03db1a09f00e9a8f2e046e2829181900360800190a15050505050565b600860209081526000928352604080842090915290825290205481565b600181565b6000918252600160209081526040808420928452600f909201905290205490565b6003602052600090815260409020546001600160a01b031681565b60046020526000908152604090205481565b600081815260016020526040812060056001820154600160a01b900460ff16600681111561296f57fe5b1480612994575060066001820154600160a01b900460ff16600681111561299257fe5b145b6129cf5760405162461bcd60e51b815260040180806020018281038252603381526020018061560a6033913960400191505060405180910390fd5b6129d883614859565b612a29576040805162461bcd60e51b815260206004820152601760248201527f70726f706f73616c206e65656420746f20657870697265000000000000000000604482015290519081900360640190fd5b612a55612a48600b83016001015460048401549063ffffffff6110f316565b429063ffffffff6143e616565b600a820155612a6383611aa5565b6008820154909250612a7b908363ffffffff6143e616565b60088201556006546040805163a9059cbb60e01b81523360048201526024810185905290516001600160a01b039092169163a9059cbb916044808201926020929091908290030181600087803b158015612ad457600080fd5b505af1158015612ae8573d6000803e3d6000fd5b505050506040513d6020811015612afe57600080fd5b5051612b51576040805162461bcd60e51b815260206004820152601d60248201527f7472616e7366657220746f206d73672e73656e646572206661696c6564000000604482015290519081900360640190fd5b604080518381529051339185917f7468017f6ff596af88244327e88fe691ac48cc1db88b033d11c335f2c7ccdd039181900360200190a350919050565b6000611150826139ee565b3360009081526009602052604090206001810192909255600290910155565b612bc0615420565b60008281526001602052604090819020815160608101909252600b0160038282826020028201915b815481526020019060010190808311612be85750505050509050919050565b612c0f615420565b600083815260016020526040902060026001820154600160a01b900460ff166006811115612c3957fe5b1480612c5d5750600180820154600160a01b900460ff166006811115612c5b57fe5b145b612c985760405162461bcd60e51b815260040180806020018281038252602d8152602001806154f3602d913960400191505060405180910390fd5b612ca061532e565b5060058082015460009081526020818152604080832081516101a081018352815481526001820154818501526002808301548285015260038301546060830152600483015460808301529582015460a0820152600682015460c0820152600782015460e082015260088201546101008201526009820154610120820152600a820154610140820152600b820154610160820152600c909101546001600160a01b039081166101808301528816845260138601835281842094860154845260128601909252822054909291612dac612d7689611aa5565b600160009081526012880160205260408082205460028352912054612da09163ffffffff6110f316565b9063ffffffff6143e616565b600184015490915015612e7757600180860154600160a01b900460ff166006811115612dd457fe5b1415612de65760018301548652612e6f565b600285015483541415612e6f57825460011415612e4d578085600701541015612e48576000612e228660070154836143e690919063ffffffff16565b905082612e3c82866001015461434b90919063ffffffff16565b81612e4357fe5b048752505b612e6f565b60018301548290612e64908363ffffffff61434b16565b81612e6b57fe5b0486525b600060018401555b600e85015460ff16158015612ea7575084546000908152600360205260409020546001600160a01b038881169116145b8015612ecc5750600180860154600160a01b900460ff166006811115612ec957fe5b14155b8015612edc575060028560020154145b15612f2d576007850154612f1b90612da084612efe838663ffffffff61434b16565b81612f0557fe5b048960005b60200201519063ffffffff6110f316565b8652600e8501805460ff191660011790555b6001600160a01b03871660009081526011860160205260409020600181015415801590612f5e5750600281015460ff165b1561309d57600180870154600160a01b900460ff166006811115612f7e57fe5b1415612fb4576064612fa2866101000151836001015461434b90919063ffffffff16565b81612fa957fe5b046020880152613095565b805460028701541415613095576000600187600201541415612fe9575060026000908152601087016020526040902054612ffe565b50600160009081526010870160205260409020545b60646130188761010001518361434b90919063ffffffff16565b8161301f57fe5b6002890154600090815260108a016020526040902054600185015492909104925061308e91613054908463ffffffff61434b16565b8161305b57fe5b04606461307a896101000151866001015461434b90919063ffffffff16565b8161308157fe5b049063ffffffff6110f316565b6020890152505b600060018201555b60038601546001600160a01b0389811691161480156130c0575060018660020154145b80156130d8575060038601546001600160a01b031615155b156130fa5760e085015160408801526003860180546001600160a01b03191690555b8651156132475786516008870154613111916143e6565b600887015560065487516040805163a9059cbb60e01b81526001600160a01b038c8116600483015260248201939093529051919092169163a9059cbb9160448083019260209291908290030181600087803b15801561316f57600080fd5b505af1158015613183573d6000803e3d6000fd5b505050506040513d602081101561319957600080fd5b50516131ec576040805162461bcd60e51b815260206004820152601e60248201527f7472616e7366657220746f2062656e6566696369617279206661696c65640000604482015290519081900360640190fd5b8554600090815260036020908152604091829020548951835190815292516001600160a01b038c8116949216928d927f6d26871c9f457d104b2122485f659f126f7a0cf6938cf20482c03f49794a2fbf929081900390910190a45b604087015161325890886001612f0a565b1561336c5760018601546001600160a01b031663d29b5d2f61328389600260200201518a6001612f0a565b8a8c6040518463ffffffff1660e01b815260040180848152602001836001600160a01b03166001600160a01b031681526020018281526020019350505050602060405180830381600087803b1580156132db57600080fd5b505af11580156132ef573d6000803e3d6000fd5b505050506040513d602081101561330557600080fd5b505085546000908152600360205260409020546001600160a01b03808a1691168a7f7419b736daacf66d5c1645948c956fca2b83be1e2e02d486d65713f289d683b861335a8b600260200201518c6001612f0a565b60408051918252519081900360200190a45b50505050505092915050565b6000908152600160208181526040808420838552600f81018352818520546002808752838720548688526010840186528488205482895285892054978952601290940190955283872054908752929095205494959294909392565b600061115082614428565b6000816133ea816139ee565b6133f357600080fd5b6133fc83614859565b9392505050565b60026020526000908152604090205481565b6001600160a01b0387163014613468576040805162461bcd60e51b815260206004820152601360248201527277726f6e6720766f74696e674d616368696e6560681b604482015290519081900360640190fd5b613471866139ee565b6134b9576040805162461bcd60e51b81526020600482015260146024820152731b9bdd081d9bdd18589b19481c1c9bdc1bdcd85b60621b604482015290519081900360640190fd5b61350a82828080601f016020809104026020016040519081016040528093929190818152602001838380828437600092019190915250611826925061350591508b90508a8a8a8a6120df565b6141f6565b6001600160a01b0316856001600160a01b03161461355e576040805162461bcd60e51b815260206004820152600c60248201526b3bb937b7339039b4b3b732b960a11b604482015290519081900360640190fd5b61356a86868686613a61565b50600086815260016020526040902054613583906140d5565b50505050505050565b60008282650100000000005b81156114cd5781600116600114156135b7576135b48184615180565b90505b60019190911c9081156135d1576135ce8384615180565b92505b613598565b600084846135e382612731565b81111580156135f25750600081115b61363a576040805162461bcd60e51b815260206004820152601460248201527377726f6e67206465636973696f6e2076616c756560601b604482015290519081900360640190fd5b6000851161368f576040805162461bcd60e51b815260206004820152601b60248201527f7374616b696e6720616d6f756e742073686f756c64206265203e300000000000604482015290519081900360640190fd5b61369887614859565b156136a657600192506139e4565b600087815260016020526040902060046001820154600160a01b900460ff1660068111156136d057fe5b141580156136f8575060036001820154600160a01b900460ff1660068111156136f557fe5b14155b156137075760009350506139e4565b6001600160a01b03851660009081526013820160205260409020600181015415801590613735575080548814155b15613745576000945050506139e4565b600654604080516323b872dd60e01b81526001600160a01b038981166004830152306024830152604482018b905291518a9392909216916323b872dd916064808201926020929091908290030181600087803b1580156137a457600080fd5b505af11580156137b8573d6000803e3d6000fd5b505050506040513d60208110156137ce57600080fd5b5051613821576040805162461bcd60e51b815260206004820152601960248201527f6661696c207472616e736665722066726f6d207374616b657200000000000000604482015290519081900360640190fd5b6008830154613836908263ffffffff6110f316565b60088401556001820154613850908263ffffffff6110f316565b60018301819055600160801b10156138af576040805162461bcd60e51b815260206004820152601a60248201527f7374616b696e6720616d6f756e7420697320746f6f2068696768000000000000604482015290519081900360640190fd5b60068301546138c990600160801b9063ffffffff6143e616565b83600801541115613921576040805162461bcd60e51b815260206004820152601860248201527f746f74616c207374616b657320697320746f6f20686967680000000000000000604482015290519081900360640190fd5b600189141561394557600282015461393f908263ffffffff6110f316565b60028301555b888255600089815260128401602052604090205461396a90829063ffffffff6110f316565b60008a81526012850160209081526040808320939093558554825260038152908290205482518c81529182018b905282516001600160a01b03808c16949216928e927fd0239d7d4acf51def4507fa173be466927de5d75d8b10d840cd6994d6e10231092918290030190a46139de8a614859565b95505050505b5050949350505050565b600081815260016020819052604082200154600160a01b900460ff166004816006811115613a1857fe5b1480613a2f57506005816006811115613a2d57fe5b145b80613a4557506006816006811115613a4357fe5b145b806133fc57506003816006811115613a5957fe5b149392505050565b60008483613a6e82612731565b8111158015613a7d5750600081115b613ac5576040805162461bcd60e51b815260206004820152601460248201527377726f6e67206465636973696f6e2076616c756560601b604482015290519081900360640190fd5b613ace87614859565b15613adc57600192506139e4565b613ae461532e565b506000878152600160208181526040808420600580820154865285845282862083516101a0810185528154815281870154818701526002820154818601526003820154606082015260048083015460808301529282015460a0820152600682015460c0820152600782015460e082015260088201546101008201526009820154610120820152600a820154610140820152600b820154610160820152600c909101546001600160a01b039081166101808301528e8852868652958301548451634ac41bc760e11b81528e881693810193909352602483018f905293519096929592949390921692639588378e92604480840193829003018186803b158015613beb57600080fd5b505afa158015613bff573d6000803e3d6000fd5b505050506040513d6020811015613c1557600080fd5b5051905080613c6b576040805162461bcd60e51b815260206004820152601b60248201527f5f766f746572206d75737420686176652072657075746174696f6e0000000000604482015290519081900360640190fd5b86811015613cb5576040805162461bcd60e51b8152602060048201526012602482015271072657075746174696f6e203e3d205f7265760741b604482015290519081900360640190fd5b8680613cbe5750805b6001600160a01b038a16600090815260118401602052604090206001015415613cee5760009650505050506139e4565b6000898152600f84016020526040902054613d1090829063ffffffff6110f316565b60008a8152600f8501602052604080822083905560028601548252812054908b90521080613d6857506002808401546000908152600f8501602052604080822054928252902054148015613d68575060018360020154145b15613e775760056001840154600160a01b900460ff166006811115613d8957fe5b148015613da9575060c0840151604085015103600b840160010154420310155b80613dcd575060066001840154600160a01b900460ff166006811115613dcb57fe5b145b15613e6f5760066001840154600160a01b900460ff166006811115613dee57fe5b14613e685760c0840151600484015560018301805460ff60a01b1916600360a11b17908190556040518c917f21aca7f0285ccddeca2935074d3e36b5ab8fea0327f84cbbf12cf1b6d1a749f991600160a01b90910460ff169080826006811115613e5457fe5b60ff16815260200191505060405180910390a25b42600c8401555b600283018990555b604080516060810182528a81526020810183905290810160046001860154600160a01b900460ff166006811115613eaa57fe5b1480613ecf575060036001860154600160a01b900460ff166006811115613ecd57fe5b145b151590526001600160a01b038b166000908152601185016020908152604091829020835181559083015160018201559101516002909101805460ff191691151591909117905560046001840154600160a01b900460ff166006811115613f3157fe5b1480613f56575060036001840154600160a01b900460ff166006811115613f5457fe5b145b15614061576000898152601084016020526040902054613f7d90829063ffffffff6110f316565b60008a8152601085016020526040812091909155610100850151606490613faa908463ffffffff61434b16565b81613fb157fe5b0490508360010160009054906101000a90046001600160a01b03166001600160a01b031663f81f8bf6828d8f6040518463ffffffff1660e01b815260040180848152602001836001600160a01b03166001600160a01b031681526020018281526020019350505050602060405180830381600087803b15801561403357600080fd5b505af1158015614047573d6000803e3d6000fd5b505050506040513d602081101561405d57600080fd5b5050505b82546000908152600360209081526040918290205482518c815291820184905282516001600160a01b03808f16949216928f927f066c061a3792cb3eb64a441a928655fcbafb4a54b49725fe9cd2951df5e7189e92918290030190a46140c68b614859565b9b9a5050505050505050505050565b6000818152600360209081526040808320546001600160a01b0316808452600990925290912060010154156113b0576001600160a01b03811660009081526009602052604081206002015461415d90614135903a9063ffffffff61433516565b6001600160a01b0384166000908152600960205260409020600101549063ffffffff61434b16565b6001600160a01b03831660009081526009602052604090205490915081116141f1576001600160a01b0382166000908152600960205260409020546141a8908263ffffffff6143e616565b6001600160a01b038316600090815260096020526040808220929092559051339183156108fc02918491818181858888f193505050501580156141ef573d6000803e3d6000fd5b505b505050565b604080517f19457468657265756d205369676e6564204d6573736167653a0a333200000000602080830191909152603c8083019490945282518083039094018452605c909101909152815191012090565b6000815160411461425a57506000611150565b60208201516040830151606084015160001a7f7fffffffffffffffffffffffffffffff5d576e7357a4501ddfe92f46681b20a08211156142a05760009350505050611150565b8060ff16601b141580156142b857508060ff16601c14155b156142c95760009350505050611150565b6040805160008152602080820180845289905260ff8416828401526060820186905260808201859052915160019260a0808401939192601f1981019281900390910190855afa158015614320573d6000803e3d6000fd5b5050604051601f190151979650505050505050565b6000818310614344578161114d565b5090919050565b60008261435a57506000611150565b8282028284828161436757fe5b041461114d5760405162461bcd60e51b81526004018080602001828103825260218152602001806155746021913960400191505060405180910390fd5b600061114d83836040518060400160405280601a81526020017f536166654d6174683a206469766973696f6e206279207a65726f0000000000008152506151e4565b600061114d83836040518060400160405280601e81526020017f536166654d6174683a207375627472616374696f6e206f766572666c6f770000815250615286565b600081815260016020818152604080842060028552601281019092528084205492845283205490916133fc916001600160d81b03169063ffffffff61483616565b6000600285101561447957600080fd5b6000848152602081905260409020600b015442116144cf576040805162461bcd60e51b815260206004820152600e60248201526d1b9bdd081858dd1a5d99481e595d60921b604482015290519081900360640190fd5b600084815260208190526040902054603211156144eb57600080fd5b600554604080513060601b602080830191909152603480830185905283518084039091018152605490920190925280519101209061453090600163ffffffff6110f316565b60055561453b61539f565b33602082810182905260408051606093841b818401526001600160601b031988851b16603482015281516028818303018152604890910182528051908301208452600381850181905261018085015142905260008a815280845282812060029081015460a08801526001600160a01b038b811660808901529587015260c086018b905285518152925290205416614629576001600160a01b0384166145ff578051600090815260036020526040902080546001600160a01b03191633179055614629565b8051600090815260036020526040902080546001600160a01b0319166001600160a01b0386161790555b8051600090815260046020908152604080832054898452918390528220600a015461466091606491611b099163ffffffff61434b16565b60008881526020819052604090206009015490915061468690829063ffffffff6152e016565b60e0830152600083815260016020818152604092839020855181559085015191810180546001600160a01b0319166001600160a01b03909316929092178083559285015185939192909160ff60a01b1916600160a01b8360068111156146e857fe5b0217905550606082015160028201556080820151600380830180546001600160a01b0319166001600160a01b039093169290921790915560a0830151600483015560c0830151600583015560e08301516006830155610100830151600783015561012083015160088301556101408301516009830155610160830151600a83015561018083015161477e91600b8401919061543e565b506101a09190910151600e909101805460ff191691151591909117905560e0820151600084815260016020908152604080832060028452601201825280832093909355858252600b81528282208b90558451825260038152908290205482518b81526001600160a01b038a8116938201939093528084018b9052925191169185917f75b4ff136cc5de5957574c797de3334eb1c141271922b825eb071e0487ba2c5c916060908290030190a350909695505050505050565b600061114d6001600160d81b0380851665010000000000908102918516026152f0565b600081614865816139ee565b61486e57600080fd5b600083815260016020526040902061488461532e565b506005808201546000908152602081815260409182902082516101a0810184528154815260018201549281019290925260028101549282019290925260038201546060820152600482015460808201529181015460a0830152600681015460c0830152600781015460e083015260088101546101008301526009810154610120830152600a810154610140830152600b810154610160830152600c01546001600160a01b031661018082015261493861539f565b604080516101c0810182528454815260018501546001600160a01b03811660208301529091859190830190600160a01b900460ff16600681111561497857fe5b600681111561498357fe5b8152600282015460208201526003808301546001600160a01b0316604080840191909152600484015460608085019190915260058501546080850152600685015460a0850152600785015460c0850152600885015460e08501526009850154610100850152600a8501546101208501528151908101918290526101409093019291600b85019182845b815481526020019060010190808311614a0c575050509183525050600e919091015460ff16151560209182015260018501546040805163b551c37360e01b8152600481018b905290519394506000936001600160a01b039092169263b551c37392602480840193829003018186803b158015614a8757600080fd5b505afa158015614a9b573d6000803e3d6000fd5b505050506040513d6020811015614ab157600080fd5b505183518554600090815260086020908152604080832060058a0154845282528083205460028a01548452600f8a01909252822054939450606485049092029261271085048302919081908190861015614b8257600360018b0154600160a01b900460ff166006811115614b2157fe5b1415614b305760019250614b60565b600460018b0154600160a01b900460ff166006811115614b4c57fe5b1415614b5b5760039250614b60565b600592505b60018a0180546002919060ff60a01b1916600160a01b835b0217905550614dd3565b600360018b0154600160a01b900460ff166006811115614b9e57fe5b1415614c20576020890151600b8b0154420310614bd95760018a01805460ff60a01b1916600160a01b1790556002808b018190559250614c20565b614beb8a600501548b60000154611489565b905080614bf78e614428565b1115614c205760018a01805460ff60a01b1916600160a21b17905542600d8b015560098a018190555b600460018b0154600160a01b900460ff166006811115614c3c57fe5b1415614dd357614c548a600501548b60000154611489565b60608a0151909150600b8b0160020154420310614d445780614c758e614428565b1115614d235789546000908152600260205260409020546110001115614d1e5760018a8101805460ff60a01b1916600560a01b17905560608a0151600d8c015401600c8c01558a54600090815260026020818152604080842080549095019094558d54835260048152838320548282528484205492845260128f0190915292909120549193509083900381614d0657fe5b8b546000908152600460205260409020919005830190555b614d3f565b60018a0180546003919060ff60a01b1916600160a01b83614b78565b614dd3565b6000614d4f8e614428565b60098c0154909150614d67908363ffffffff61433516565b8111614d875760018b01805460ff60a01b1916600360a01b179055614dd1565b808b600901541115614dd15760098b018290556040805183815290518f917fad767d61af51c7895fa3cc0497dde01afb610c74e55ee4d8a71fa5e3ee136d54919081900360200190a25b505b600560018b0154600160a01b900460ff166006811115614def57fe5b1480614e145750600660018b0154600160a01b900460ff166006811115614e1257fe5b145b15614e845760048a0154600c8b0154420310614e845760028a01546000908152600f8b0160205260409020548411614e645760018a01805460ff60a01b1916600160a11b17905560059250614e84565b60018a01805460ff60a01b1916600160a01b1790556002808b0155600492505b6000836005811115614e9257fe5b146150d8576004836005811115614ea557fe5b1480614ebc57506005836005811115614eba57fe5b145b15614f77578751600090815260026020526040902054614ee390600163ffffffff6143e616565b88516000908152600260205260408082209290925589518152205480614f19578a54600090815260046020526040812055614f75565b8a546000908152600460209081526040808320546002845260128f01909252909120549093508190614f5890612da0866001850163ffffffff61434b16565b81614f5f57fe5b8c54600090815260046020526040902091900490555b505b600360008b60000154815260200190815260200160002060009054906101000a90046001600160a01b03166001600160a01b03168d7f37471b9c9d295ffb1309ad070b8964700bfb7b555e8e8292d0b6cbc7dba35d108c600201548a604051808381526020018281526020019250505060405180910390a38c7f46a713b994c752c68fbefa9048bec9a0010cc7d933ad95a3c3dbb25931a167e7846040518082600581111561502257fe5b60ff16815260200191505060405180910390a289600601548a600701819055508960010160009054906101000a90046001600160a01b03166001600160a01b0316639d4c162d8e8c600201546040518363ffffffff1660e01b81526004018083815260200182815260200192505050602060405180830381600087803b1580156150ab57600080fd5b505af11580156150bf573d6000803e3d6000fd5b505050506040513d60208110156150d557600080fd5b50505b60018a0154600160a01b900460ff1660068111156150f257fe5b8860400151600681111561510257fe5b1461515f578c7f21aca7f0285ccddeca2935074d3e36b5ab8fea0327f84cbbf12cf1b6d1a749f98b60010160149054906101000a900460ff166040518082600681111561514b57fe5b60ff16815260200191505060405180910390a25b600083600581111561516d57fe5b14159d9c50505050505050505050505050565b60008282028284828161518f57fe5b04146151da576040805162461bcd60e51b81526020600482015260156024820152745265616c4d617468206d756c206f766572666c6f7760581b604482015290519081900360640190fd5b60281c9392505050565b600081836152705760405162461bcd60e51b81526004018080602001828103825283818151815260200191508051906020019080838360005b8381101561523557818101518382015260200161521d565b50505050905090810190601f1680156152625780820380516001836020036101000a031916815260200191505b509250505060405180910390fd5b50600083858161527c57fe5b0495945050505050565b600081848411156152d85760405162461bcd60e51b815260206004820181815283516024840152835190928392604490910191908501908083836000831561523557818101518382015260200161521d565b505050900390565b600081831015614344578161114d565b6000816501000000000084028161530357fe5b049392505050565b604051806060016040528060008152602001600081526020016000151581525090565b604051806101a0016040528060008152602001600081526020016000815260200160008152602001600081526020016000815260200160008152602001600081526020016000815260200160008152602001600081526020016000815260200160006001600160a01b031681525090565b604080516101c081018252600080825260208201819052909182019081526020016000815260200160006001600160a01b0316815260200160008152602001600080191681526020016000815260200160008152602001600081526020016000815260200160008152602001615413615420565b8152600060209091015290565b60405180606001604052806003906020820280388339509192915050565b826003810192821561546c579160200282015b8281111561546c578251825591602001919060010190615451565b5061547892915061547c565b5090565b611dbc91905b808211156154785760008155600101615482565b6000813f7fc5d2460186f7233c927e7db2dcc703c0e500b653ca82273b7bfad8045d85a47081158015906114e4575014159291505056fe61646472657373206e6f7420616c6c6f77656420746f20766f7465206f6e20626568616c6650726f706f73616c2073686f756c64206265204578656375746564206f722045787069726564496e5175657565626f6f73746564566f7465506572696f644c696d6974203e3d207175696574456e64696e67506572696f643530203c3d20717565756564566f7465526571756972656450657263656e74616765203c3d20313030536166654d6174683a206d756c7469706c69636174696f6e206f766572666c6f77445844566f74696e674d616368696e653a204f7267616e697a6174696f6e20726566756e642062616c616e6365206973207a65726f445844566f74696e674d616368696e653a2041646472657373206e6f74207265676973746572656420696e206f7267616e697a6174696f6e5265666f756e647370726f706f73616c20737461746520696e206e6f7420426f6f73746564206e6f72205175696574456e64696e67506572696f64a265627a7a7231582006612669ea7268cfed7348a0c384834d2f39d012fee2593da7118ffcb0691b4264736f6c63430005110032",
  "linkReferences": {},
  "deployedLinkReferences": {}
}