{
  "_format": "hh-sol-artifact-1",
  "contractName": "ERC20GuildUpgradeable",
  "sourceName": "dxdao-contracts/contracts/erc20guild/ERC20GuildUpgradeable.sol",
  "abi": [
    {
      "anonymous": false,
      "inputs": [
        {
          "indexed": true,
          "internalType": "bytes32",
          "name": "proposalId",
          "type": "bytes32"
        },
        {
          "indexed": false,
          "internalType": "uint256",
          "name": "newState",
          "type": "uint256"
        }
      ],
      "name": "ProposalStateChanged",
      "type": "event"
    },
    {
      "anonymous": false,
      "inputs": [
        {
          "indexed": false,
          "internalType": "address",
          "name": "voter",
          "type": "address"
        },
        {
          "indexed": false,
          "internalType": "uint256",
          "name": "value",
          "type": "uint256"
        }
      ],
      "name": "TokensLocked",
      "type": "event"
    },
    {
      "anonymous": false,
      "inputs": [
        {
          "indexed": false,
          "internalType": "address",
          "name": "voter",
          "type": "address"
        },
        {
          "indexed": false,
          "internalType": "uint256",
          "name": "value",
          "type": "uint256"
        }
      ],
      "name": "TokensWithdrawn",
      "type": "event"
    },
    {
      "anonymous": false,
      "inputs": [
        {
          "indexed": true,
          "internalType": "bytes32",
          "name": "proposalId",
          "type": "bytes32"
        },
        {
          "indexed": true,
          "internalType": "uint256",
          "name": "option",
          "type": "uint256"
        },
        {
          "indexed": false,
          "internalType": "address",
          "name": "voter",
          "type": "address"
        },
        {
          "indexed": false,
          "internalType": "uint256",
          "name": "votingPower",
          "type": "uint256"
        }
      ],
      "name": "VoteAdded",
      "type": "event"
    },
    {
      "stateMutability": "payable",
      "type": "fallback"
    },
    {
      "inputs": [],
      "name": "MAX_OPTIONS_PER_PROPOSAL",
      "outputs": [
        {
          "internalType": "uint8",
          "name": "",
          "type": "uint8"
        }
      ],
      "stateMutability": "view",
      "type": "function"
    },
    {
      "inputs": [],
      "name": "activeProposalsNow",
      "outputs": [
        {
          "internalType": "uint256",
          "name": "",
          "type": "uint256"
        }
      ],
      "stateMutability": "view",
      "type": "function"
    },
    {
      "inputs": [
        {
          "internalType": "address[]",
          "name": "to",
          "type": "address[]"
        },
        {
          "internalType": "bytes[]",
          "name": "data",
          "type": "bytes[]"
        },
        {
          "internalType": "uint256[]",
          "name": "value",
          "type": "uint256[]"
        },
        {
          "internalType": "uint256",
          "name": "totalOptions",
          "type": "uint256"
        },
        {
          "internalType": "string",
          "name": "title",
          "type": "string"
        },
        {
          "internalType": "string",
          "name": "contentHash",
          "type": "string"
        }
      ],
      "name": "createProposal",
      "outputs": [
        {
          "internalType": "bytes32",
          "name": "",
          "type": "bytes32"
        }
      ],
      "stateMutability": "nonpayable",
      "type": "function"
    },
    {
      "inputs": [
        {
          "internalType": "bytes32",
          "name": "proposalId",
          "type": "bytes32"
        }
      ],
      "name": "endProposal",
      "outputs": [],
      "stateMutability": "nonpayable",
      "type": "function"
    },
    {
      "inputs": [],
      "name": "getActiveProposalsNow",
      "outputs": [
        {
          "internalType": "uint256",
          "name": "",
          "type": "uint256"
        }
      ],
      "stateMutability": "view",
      "type": "function"
    },
    {
      "inputs": [],
      "name": "getLockTime",
      "outputs": [
        {
          "internalType": "uint256",
          "name": "",
          "type": "uint256"
        }
      ],
      "stateMutability": "view",
      "type": "function"
    },
    {
      "inputs": [],
      "name": "getMaxActiveProposals",
      "outputs": [
        {
          "internalType": "uint256",
          "name": "",
          "type": "uint256"
        }
      ],
      "stateMutability": "view",
      "type": "function"
    },
    {
      "inputs": [],
      "name": "getMaxGasPrice",
      "outputs": [
        {
          "internalType": "uint256",
          "name": "",
          "type": "uint256"
        }
      ],
      "stateMutability": "view",
      "type": "function"
    },
    {
      "inputs": [],
      "name": "getMinimumMembersForProposalCreation",
      "outputs": [
        {
          "internalType": "uint256",
          "name": "",
          "type": "uint256"
        }
      ],
      "stateMutability": "view",
      "type": "function"
    },
    {
      "inputs": [],
      "name": "getMinimumTokensLockedForProposalCreation",
      "outputs": [
        {
          "internalType": "uint256",
          "name": "",
          "type": "uint256"
        }
      ],
      "stateMutability": "view",
      "type": "function"
    },
    {
      "inputs": [],
      "name": "getName",
      "outputs": [
        {
          "internalType": "string",
          "name": "",
          "type": "string"
        }
      ],
      "stateMutability": "view",
      "type": "function"
    },
    {
      "inputs": [],
      "name": "getPermissionRegistry",
      "outputs": [
        {
          "internalType": "address",
          "name": "",
          "type": "address"
        }
      ],
      "stateMutability": "view",
      "type": "function"
    },
    {
      "inputs": [
        {
          "internalType": "bytes32",
          "name": "proposalId",
          "type": "bytes32"
        }
      ],
      "name": "getProposal",
      "outputs": [
        {
          "components": [
            {
              "internalType": "address",
              "name": "creator",
              "type": "address"
            },
            {
              "internalType": "uint256",
              "name": "startTime",
              "type": "uint256"
            },
            {
              "internalType": "uint256",
              "name": "endTime",
              "type": "uint256"
            },
            {
              "internalType": "address[]",
              "name": "to",
              "type": "address[]"
            },
            {
              "internalType": "bytes[]",
              "name": "data",
              "type": "bytes[]"
            },
            {
              "internalType": "uint256[]",
              "name": "value",
              "type": "uint256[]"
            },
            {
              "internalType": "string",
              "name": "title",
              "type": "string"
            },
            {
              "internalType": "string",
              "name": "contentHash",
              "type": "string"
            },
            {
              "internalType": "enum BaseERC20Guild.ProposalState",
              "name": "state",
              "type": "uint8"
            },
            {
              "internalType": "uint256[]",
              "name": "totalVotes",
              "type": "uint256[]"
            }
          ],
          "internalType": "struct BaseERC20Guild.Proposal",
          "name": "",
          "type": "tuple"
        }
      ],
      "stateMutability": "view",
      "type": "function"
    },
    {
      "inputs": [],
      "name": "getProposalTime",
      "outputs": [
        {
          "internalType": "uint256",
          "name": "",
          "type": "uint256"
        }
      ],
      "stateMutability": "view",
      "type": "function"
    },
    {
      "inputs": [
        {
          "internalType": "bytes32",
          "name": "proposalId",
          "type": "bytes32"
        },
        {
          "internalType": "address",
          "name": "voter",
          "type": "address"
        }
      ],
      "name": "getProposalVotesOfVoter",
      "outputs": [
        {
          "internalType": "uint256",
          "name": "option",
          "type": "uint256"
        },
        {
          "internalType": "uint256",
          "name": "votingPower",
          "type": "uint256"
        }
      ],
      "stateMutability": "view",
      "type": "function"
    },
    {
      "inputs": [],
      "name": "getProposalsIds",
      "outputs": [
        {
          "internalType": "bytes32[]",
          "name": "",
          "type": "bytes32[]"
        }
      ],
      "stateMutability": "view",
      "type": "function"
    },
    {
      "inputs": [],
      "name": "getProposalsIdsLength",
      "outputs": [
        {
          "internalType": "uint256",
          "name": "",
          "type": "uint256"
        }
      ],
      "stateMutability": "view",
      "type": "function"
    },
    {
      "inputs": [
        {
          "internalType": "bytes32",
          "name": "signedVoteHash",
          "type": "bytes32"
        }
      ],
      "name": "getSignedVote",
      "outputs": [
        {
          "internalType": "bool",
          "name": "",
          "type": "bool"
        }
      ],
      "stateMutability": "view",
      "type": "function"
    },
    {
      "inputs": [],
      "name": "getTimeForExecution",
      "outputs": [
        {
          "internalType": "uint256",
          "name": "",
          "type": "uint256"
        }
      ],
      "stateMutability": "view",
      "type": "function"
    },
    {
      "inputs": [],
      "name": "getToken",
      "outputs": [
        {
          "internalType": "address",
          "name": "",
          "type": "address"
        }
      ],
      "stateMutability": "view",
      "type": "function"
    },
    {
      "inputs": [],
      "name": "getTokenVault",
      "outputs": [
        {
          "internalType": "address",
          "name": "",
          "type": "address"
        }
      ],
      "stateMutability": "view",
      "type": "function"
    },
    {
      "inputs": [],
      "name": "getTotalLocked",
      "outputs": [
        {
          "internalType": "uint256",
          "name": "",
          "type": "uint256"
        }
      ],
      "stateMutability": "view",
      "type": "function"
    },
    {
      "inputs": [],
      "name": "getTotalMembers",
      "outputs": [
        {
          "internalType": "uint256",
          "name": "",
          "type": "uint256"
        }
      ],
      "stateMutability": "view",
      "type": "function"
    },
    {
      "inputs": [],
      "name": "getTotalProposals",
      "outputs": [
        {
          "internalType": "uint256",
          "name": "",
          "type": "uint256"
        }
      ],
      "stateMutability": "view",
      "type": "function"
    },
    {
      "inputs": [],
      "name": "getVoteGas",
      "outputs": [
        {
          "internalType": "uint256",
          "name": "",
          "type": "uint256"
        }
      ],
      "stateMutability": "view",
      "type": "function"
    },
    {
      "inputs": [
        {
          "internalType": "address",
          "name": "voter",
          "type": "address"
        }
      ],
      "name": "getVoterLockTimestamp",
      "outputs": [
        {
          "internalType": "uint256",
          "name": "",
          "type": "uint256"
        }
      ],
      "stateMutability": "view",
      "type": "function"
    },
    {
      "inputs": [],
      "name": "getVotingPowerForProposalCreation",
      "outputs": [
        {
          "internalType": "uint256",
          "name": "",
          "type": "uint256"
        }
      ],
      "stateMutability": "view",
      "type": "function"
    },
    {
      "inputs": [],
      "name": "getVotingPowerForProposalExecution",
      "outputs": [
        {
          "internalType": "uint256",
          "name": "",
          "type": "uint256"
        }
      ],
      "stateMutability": "view",
      "type": "function"
    },
    {
      "inputs": [
        {
          "internalType": "address",
          "name": "voter",
          "type": "address"
        },
        {
          "internalType": "bytes32",
          "name": "proposalId",
          "type": "bytes32"
        },
        {
          "internalType": "uint256",
          "name": "option",
          "type": "uint256"
        },
        {
          "internalType": "uint256",
          "name": "votingPower",
          "type": "uint256"
        }
      ],
      "name": "hashVote",
      "outputs": [
        {
          "internalType": "bytes32",
          "name": "",
          "type": "bytes32"
        }
      ],
      "stateMutability": "pure",
      "type": "function"
    },
    {
      "inputs": [
        {
          "internalType": "address",
          "name": "_token",
          "type": "address"
        },
        {
          "internalType": "uint256",
          "name": "_proposalTime",
          "type": "uint256"
        },
        {
          "internalType": "uint256",
          "name": "_timeForExecution",
          "type": "uint256"
        },
        {
          "internalType": "uint256",
          "name": "_votingPowerPercentageForProposalExecution",
          "type": "uint256"
        },
        {
          "internalType": "uint256",
          "name": "_votingPowerPercentageForProposalCreation",
          "type": "uint256"
        },
        {
          "internalType": "string",
          "name": "_name",
          "type": "string"
        },
        {
          "internalType": "uint256",
          "name": "_voteGas",
          "type": "uint256"
        },
        {
          "internalType": "uint256",
          "name": "_maxGasPrice",
          "type": "uint256"
        },
        {
          "internalType": "uint256",
          "name": "_maxActiveProposals",
          "type": "uint256"
        },
        {
          "internalType": "uint256",
          "name": "_lockTime",
          "type": "uint256"
        },
        {
          "internalType": "address",
          "name": "_permissionRegistry",
          "type": "address"
        }
      ],
      "name": "initialize",
      "outputs": [],
      "stateMutability": "nonpayable",
      "type": "function"
    },
    {
      "inputs": [],
      "name": "lockTime",
      "outputs": [
        {
          "internalType": "uint256",
          "name": "",
          "type": "uint256"
        }
      ],
      "stateMutability": "view",
      "type": "function"
    },
    {
      "inputs": [
        {
          "internalType": "uint256",
          "name": "tokenAmount",
          "type": "uint256"
        }
      ],
      "name": "lockTokens",
      "outputs": [],
      "stateMutability": "nonpayable",
      "type": "function"
    },
    {
      "inputs": [],
      "name": "maxActiveProposals",
      "outputs": [
        {
          "internalType": "uint256",
          "name": "",
          "type": "uint256"
        }
      ],
      "stateMutability": "view",
      "type": "function"
    },
    {
      "inputs": [],
      "name": "maxGasPrice",
      "outputs": [
        {
          "internalType": "uint256",
          "name": "",
          "type": "uint256"
        }
      ],
      "stateMutability": "view",
      "type": "function"
    },
    {
      "inputs": [],
      "name": "minimumMembersForProposalCreation",
      "outputs": [
        {
          "internalType": "uint256",
          "name": "",
          "type": "uint256"
        }
      ],
      "stateMutability": "view",
      "type": "function"
    },
    {
      "inputs": [],
      "name": "minimumTokensLockedForProposalCreation",
      "outputs": [
        {
          "internalType": "uint256",
          "name": "",
          "type": "uint256"
        }
      ],
      "stateMutability": "view",
      "type": "function"
    },
    {
      "inputs": [],
      "name": "name",
      "outputs": [
        {
          "internalType": "string",
          "name": "",
          "type": "string"
        }
      ],
      "stateMutability": "view",
      "type": "function"
    },
    {
      "inputs": [],
      "name": "proposalTime",
      "outputs": [
        {
          "internalType": "uint256",
          "name": "",
          "type": "uint256"
        }
      ],
      "stateMutability": "view",
      "type": "function"
    },
    {
      "inputs": [
        {
          "internalType": "bytes32",
          "name": "",
          "type": "bytes32"
        },
        {
          "internalType": "address",
          "name": "",
          "type": "address"
        }
      ],
      "name": "proposalVotes",
      "outputs": [
        {
          "internalType": "uint256",
          "name": "option",
          "type": "uint256"
        },
        {
          "internalType": "uint256",
          "name": "votingPower",
          "type": "uint256"
        }
      ],
      "stateMutability": "view",
      "type": "function"
    },
    {
      "inputs": [
        {
          "internalType": "bytes32",
          "name": "",
          "type": "bytes32"
        }
      ],
      "name": "proposals",
      "outputs": [
        {
          "internalType": "address",
          "name": "creator",
          "type": "address"
        },
        {
          "internalType": "uint256",
          "name": "startTime",
          "type": "uint256"
        },
        {
          "internalType": "uint256",
          "name": "endTime",
          "type": "uint256"
        },
        {
          "internalType": "string",
          "name": "title",
          "type": "string"
        },
        {
          "internalType": "string",
          "name": "contentHash",
          "type": "string"
        },
        {
          "internalType": "enum BaseERC20Guild.ProposalState",
          "name": "state",
          "type": "uint8"
        }
      ],
      "stateMutability": "view",
      "type": "function"
    },
    {
      "inputs": [
        {
          "internalType": "uint256",
          "name": "",
          "type": "uint256"
        }
      ],
      "name": "proposalsIds",
      "outputs": [
        {
          "internalType": "bytes32",
          "name": "",
          "type": "bytes32"
        }
      ],
      "stateMutability": "view",
      "type": "function"
    },
    {
      "inputs": [
        {
          "internalType": "uint256",
          "name": "_proposalTime",
          "type": "uint256"
        },
        {
          "internalType": "uint256",
          "name": "_timeForExecution",
          "type": "uint256"
        },
        {
          "internalType": "uint256",
          "name": "_votingPowerPercentageForProposalExecution",
          "type": "uint256"
        },
        {
          "internalType": "uint256",
          "name": "_votingPowerPercentageForProposalCreation",
          "type": "uint256"
        },
        {
          "internalType": "uint256",
          "name": "_voteGas",
          "type": "uint256"
        },
        {
          "internalType": "uint256",
          "name": "_maxGasPrice",
          "type": "uint256"
        },
        {
          "internalType": "uint256",
          "name": "_maxActiveProposals",
          "type": "uint256"
        },
        {
          "internalType": "uint256",
          "name": "_lockTime",
          "type": "uint256"
        },
        {
          "internalType": "uint256",
          "name": "_minimumMembersForProposalCreation",
          "type": "uint256"
        },
        {
          "internalType": "uint256",
          "name": "_minimumTokensLockedForProposalCreation",
          "type": "uint256"
        }
      ],
      "name": "setConfig",
      "outputs": [],
      "stateMutability": "nonpayable",
      "type": "function"
    },
    {
      "inputs": [
        {
          "internalType": "bytes32",
          "name": "proposalId",
          "type": "bytes32"
        },
        {
          "internalType": "uint256",
          "name": "option",
          "type": "uint256"
        },
        {
          "internalType": "uint256",
          "name": "votingPower",
          "type": "uint256"
        },
        {
          "internalType": "address",
          "name": "voter",
          "type": "address"
        },
        {
          "internalType": "bytes",
          "name": "signature",
          "type": "bytes"
        }
      ],
      "name": "setSignedVote",
      "outputs": [],
      "stateMutability": "nonpayable",
      "type": "function"
    },
    {
      "inputs": [
        {
          "internalType": "bytes32",
          "name": "proposalId",
          "type": "bytes32"
        },
        {
          "internalType": "uint256",
          "name": "option",
          "type": "uint256"
        },
        {
          "internalType": "uint256",
          "name": "votingPower",
          "type": "uint256"
        }
      ],
      "name": "setVote",
      "outputs": [],
      "stateMutability": "nonpayable",
      "type": "function"
    },
    {
      "inputs": [
        {
          "internalType": "bytes32",
          "name": "",
          "type": "bytes32"
        }
      ],
      "name": "signedVotes",
      "outputs": [
        {
          "internalType": "bool",
          "name": "",
          "type": "bool"
        }
      ],
      "stateMutability": "view",
      "type": "function"
    },
    {
      "inputs": [],
      "name": "timeForExecution",
      "outputs": [
        {
          "internalType": "uint256",
          "name": "",
          "type": "uint256"
        }
      ],
      "stateMutability": "view",
      "type": "function"
    },
    {
      "inputs": [],
      "name": "token",
      "outputs": [
        {
          "internalType": "contract IERC20Upgradeable",
          "name": "",
          "type": "address"
        }
      ],
      "stateMutability": "view",
      "type": "function"
    },
    {
      "inputs": [],
      "name": "tokenVault",
      "outputs": [
        {
          "internalType": "contract TokenVault",
          "name": "",
          "type": "address"
        }
      ],
      "stateMutability": "view",
      "type": "function"
    },
    {
      "inputs": [
        {
          "internalType": "address",
          "name": "",
          "type": "address"
        }
      ],
      "name": "tokensLocked",
      "outputs": [
        {
          "internalType": "uint256",
          "name": "amount",
          "type": "uint256"
        },
        {
          "internalType": "uint256",
          "name": "timestamp",
          "type": "uint256"
        }
      ],
      "stateMutability": "view",
      "type": "function"
    },
    {
      "inputs": [],
      "name": "totalLocked",
      "outputs": [
        {
          "internalType": "uint256",
          "name": "",
          "type": "uint256"
        }
      ],
      "stateMutability": "view",
      "type": "function"
    },
    {
      "inputs": [],
      "name": "totalProposals",
      "outputs": [
        {
          "internalType": "uint256",
          "name": "",
          "type": "uint256"
        }
      ],
      "stateMutability": "view",
      "type": "function"
    },
    {
      "inputs": [],
      "name": "voteGas",
      "outputs": [
        {
          "internalType": "uint256",
          "name": "",
          "type": "uint256"
        }
      ],
      "stateMutability": "view",
      "type": "function"
    },
    {
      "inputs": [
        {
          "internalType": "address",
          "name": "account",
          "type": "address"
        }
      ],
      "name": "votingPowerOf",
      "outputs": [
        {
          "internalType": "uint256",
          "name": "",
          "type": "uint256"
        }
      ],
      "stateMutability": "view",
      "type": "function"
    },
    {
      "inputs": [],
      "name": "votingPowerPercentageForProposalCreation",
      "outputs": [
        {
          "internalType": "uint256",
          "name": "",
          "type": "uint256"
        }
      ],
      "stateMutability": "view",
      "type": "function"
    },
    {
      "inputs": [],
      "name": "votingPowerPercentageForProposalExecution",
      "outputs": [
        {
          "internalType": "uint256",
          "name": "",
          "type": "uint256"
        }
      ],
      "stateMutability": "view",
      "type": "function"
    },
    {
      "inputs": [
        {
          "internalType": "uint256",
          "name": "tokenAmount",
          "type": "uint256"
        }
      ],
      "name": "withdrawTokens",
      "outputs": [],
      "stateMutability": "nonpayable",
      "type": "function"
    }
  ],
  "bytecode": "0x608060405234801561001057600080fd5b50614c25806100206000396000f3fe608060405260043610620003855760003560e01c80635bc789d911620001d3578063ae61923411620000ff578063e0450353116200009b578063f4732da61162000075578063f4732da61462000a81578063f98606a71462000a98578063fc0c546a1462000ab0578063fc4e703f1462000ad257005b8063e04503531462000a0e578063e158080a1462000a26578063f09951981462000a3e57005b8063b7c15f8d11620000d9578063b7c15f8d14620009a4578063bcc3f3bd14620009bb578063c0a4d64d14620009e0578063c93e01e314620009f757005b8063ae6192341462000942578063b3929aaa146200095a578063b3b47061146200097f57005b806389c98c06116200016f578063a16fe3421162000149578063a16fe34214620008db578063a78d80fc14620008fb578063a7aeb5571462000913578063ad6c1e34146200092b57005b806389c98c0614620008885780638f180305146200089f57806392b7165414620008b657005b80636c8b72f611620001ad5780636c8b72f614620008015780636e27d889146200081857806377027ff4146200083d5780638029eff1146200085457005b80635bc789d914620007b05780635e508c2c14620007d257806364fe6ed214620007ea57005b80632467ef9411620002b357806336f8f8d9116200024f5780633f10cf1511620002295780633f10cf15146200072c578063430694cf146200074457806354f2f7af146200077857806356891412146200079857005b806336f8f8d914620006d75780633bf353fb14620006fc5780633de39c11146200071457005b80632d757c3e116200028d5780632d757c3e14620005f75780632fd99c001462000634578063315a095d146200067957806332ed5b12146200069e57005b80632467ef94146200059157806325c069fc14620005a85780632d5b17de14620005d257005b806313108d741162000323578063184a0ae911620002fd578063184a0ae914620005175780631a5007dd146200052f57806321df0da714620005465780632229a0e2146200057a57005b806313108d7414620004b557806316bbecde14620004da57806317d7de7c14620004ff57005b80630a366a6311620003615780630a366a63146200042c5780630d6680871462000453578063123f6d67146200046b578063130485fe146200049057005b80623a40d0146200038757806301a598a614620003b757806306fdde031462000405575b005b3480156200039457600080fd5b506200039f62000aea565b604051620003ae91906200369e565b60405180910390f35b348015620003c457600080fd5b50620003ef620003d636600462003701565b6012602052600090815260409020805460019091015482565b60408051928352602083019190915201620003ae565b3480156200041257600080fd5b506200041d62000b44565b604051620003ae91906200376f565b3480156200043957600080fd5b506200044462000bda565b604051908152602001620003ae565b3480156200046057600080fd5b5062000444600d5481565b3480156200047857600080fd5b50620003856200048a36600462003784565b62000c07565b3480156200049d57600080fd5b50620003ef620004af366004620037ed565b62000da0565b348015620004c257600080fd5b5062000444620004d436600462003a8a565b62000dd2565b348015620004e757600080fd5b5062000385620004f936600462003b74565b620013b9565b3480156200050c57600080fd5b506200041d62001500565b3480156200052457600080fd5b506200044460035481565b3480156200053c57600080fd5b50600a5462000444565b3480156200055357600080fd5b506000546001600160a01b03165b6040516001600160a01b039091168152602001620003ae565b3480156200058757600080fd5b5060165462000444565b3480156200059e57600080fd5b50600c5462000444565b348015620005b557600080fd5b50620005bf600a81565b60405160ff9091168152602001620003ae565b348015620005df57600080fd5b5062000385620005f136600462003ba1565b62001591565b3480156200060457600080fd5b50620004446200061636600462003701565b6001600160a01b031660009081526012602052604090206001015490565b3480156200064157600080fd5b50620006686200065336600462003c12565b60136020526000908152604090205460ff1681565b6040519015158152602001620003ae565b3480156200068657600080fd5b50620003856200069836600462003c12565b6200185b565b348015620006ab57600080fd5b50620006c3620006bd36600462003c12565b62001ab6565b604051620003ae9695949392919062003c65565b348015620006e457600080fd5b5062000385620006f636600462003cc5565b62001c1a565b3480156200070957600080fd5b5062000444600c5481565b3480156200072157600080fd5b506200044460085481565b3480156200073957600080fd5b506200044460045481565b3480156200075157600080fd5b50620007696200076336600462003c12565b62001e87565b604051620003ae919062003e4d565b3480156200078557600080fd5b506011546001600160a01b031662000561565b348015620007a557600080fd5b5062000444600e5481565b348015620007bd57600080fd5b5060115462000561906001600160a01b031681565b348015620007df57600080fd5b506200044460055481565b348015620007f757600080fd5b5060105462000444565b3480156200080e57600080fd5b5060075462000444565b3480156200082557600080fd5b50620003856200083736600462003c12565b6200223a565b3480156200084a57600080fd5b5060095462000444565b3480156200086157600080fd5b50620006686200087336600462003c12565b60009081526013602052604090205460ff1690565b3480156200089557600080fd5b5060085462000444565b348015620008ac57600080fd5b50600b5462000444565b348015620008c357600080fd5b5062000444620008d536600462003f5a565b620023ca565b348015620008e857600080fd5b506001546001600160a01b031662000561565b3480156200090857600080fd5b5062000444600a5481565b3480156200092057600080fd5b5062000444600f5481565b3480156200093857600080fd5b50600f5462000444565b3480156200094f57600080fd5b506200044462002421565b3480156200096757600080fd5b50620004446200097936600462003c12565b6200243b565b3480156200098c57600080fd5b50620003856200099e36600462003c12565b6200245d565b348015620009b157600080fd5b5060045462000444565b348015620009c857600080fd5b5062000444620009da36600462003701565b62002daa565b348015620009ed57600080fd5b50600d5462000444565b34801562000a0457600080fd5b5060035462000444565b34801562000a1b57600080fd5b506200044460095481565b34801562000a3357600080fd5b506200044460105481565b34801562000a4b57600080fd5b50620003ef62000a5d366004620037ed565b60146020908152600092835260408084209091529082529020805460019091015482565b34801562000a8e57600080fd5b50600e5462000444565b34801562000aa557600080fd5b506200044460065481565b34801562000abd57600080fd5b5060005462000561906001600160a01b031681565b34801562000adf57600080fd5b506200044460075481565b6060601680548060200260200160405190810160405280929190818152602001828054801562000b3a57602002820191906000526020600020905b81548152602001906001019080831162000b25575b5050505050905090565b6002805462000b539062003f96565b80601f016020809104026020016040519081016040528092919081815260200182805462000b819062003f96565b801562000bd25780601f1062000ba65761010080835404028352916020019162000bd2565b820191906000526020600020905b81548152906001019060200180831162000bb457829003601f168201915b505050505081565b600062000c0261271062000bfb60065462000bf4600e5490565b9062002dc5565b9062002dda565b905090565b33301462000c8d5760405162461bcd60e51b815260206004820152604260248201527f45524332304775696c643a204f6e6c792063616c6c61626c652062792045524360448201527f32306775696c6420697473656c66206f72207768656e20696e697469616c697a606482015261195960f21b608482015260a4015b60405180910390fd5b60008a1162000cb05760405162461bcd60e51b815260040162000c849062003fd3565b8983101562000cd35760405162461bcd60e51b815260040162000c849062004022565b6000881162000cf65760405162461bcd60e51b815260040162000c84906200407f565b6201c90886111562000d715760405162461bcd60e51b815260206004820152603960248201527f45524332304775696c643a20766f7465206761732068617320746f206265206560448201527f7175616c206f72206c6f776572207468616e2031313730303000000000000000606482015260840162000c84565b600399909955600497909755600595909555600693909355600791909155600855600955600d55600f55601055565b60008281526014602090815260408083206001600160a01b0385168452909152902080546001909101545b9250929050565b6000601054600e54101562000e505760405162461bcd60e51b815260206004820152603960248201527f45524332304775696c643a204e6f7420656e6f75676820746f6b656e73206c6f60448201527f636b656420746f2063726561746520612070726f706f73616c00000000000000606482015260840162000c84565b600f54600b54101562000ec25760405162461bcd60e51b815260206004820152603360248201527f45524332304775696c643a204e6f7420656e6f756768206d656d6265727320746044820152721bc818dc99585d194818481c1c9bdc1bdcd85b606a1b606482015260840162000c84565b600954600c541062000f365760405162461bcd60e51b815260206004820152603660248201527f45524332304775696c643a204d6178696d756d20616d6f756e74206f662061636044820152751d1a5d99481c1c9bdc1bdcd85b1cc81c995858da195960521b606482015260840162000c84565b62000f4062000bda565b62000f4b3362002daa565b101562000fb95760405162461bcd60e51b815260206004820152603560248201527f45524332304775696c643a204e6f7420656e6f75676820766f74696e67506f77604482015274195c881d1bc818dc99585d19481c1c9bdc1bdcd85b605a1b606482015260840162000c84565b8551875114801562000fcc575084518751145b620010375760405162461bcd60e51b815260206004820152603460248201527f45524332304775696c643a2057726f6e67206c656e677468206f6620746f2c2060448201527364617461206f722076616c75652061727261797360601b606482015260840162000c84565b6000875111620010a45760405162461bcd60e51b815260206004820152603160248201527f45524332304775696c643a20746f2c20646174612076616c7565206172726179604482015270732063616e6e6f7420626520656d70747960781b606482015260840162000c84565b86518411158015620010c157508451620010bf908562002de8565b155b620011355760405162461bcd60e51b815260206004820152603760248201527f45524332304775696c643a20496e76616c696420746f74616c4f7074696f6e7360448201527f206f72206f7074696f6e2063616c6c73206c656e677468000000000000000000606482015260840162000c84565b600a841115620011ae5760405162461bcd60e51b815260206004820152603a60248201527f45524332304775696c643a204d6178696d756d20616d6f756e74206f66206f7060448201527f74696f6e73207065722070726f706f73616c2072656163686564000000000000606482015260840162000c84565b600a546040516bffffffffffffffffffffffff193360601b1660208201524260348201526054810191909152600090607401604051602081830303815290604052805190602001209050620012106001600a5462002df690919063ffffffff16565b600a55600081815260156020526040902080546001600160a01b03191633178155426001820181905560035462001248919062002df6565b600282015588516200126490600383019060208c019062003425565b5087516200127c90600483019060208b01906200348f565b5086516200129490600583019060208a0190620034ef565b508451620012ac90600683019060208801906200352d565b508351620012c490600783019060208701906200352d565b50620012d286600162002df6565b67ffffffffffffffff811115620012ed57620012ed6200381c565b60405190808252806020026020018201604052801562001317578160200160208202803683370190505b50805162001330916009840191602090910190620034ef565b5060088101805460ff19166001908117909155600c54620013519162002df6565b600c558160008051602062004bd0833981519152600160405190815260200160405180910390a250601680546001810182556000919091527fd833147d7dc355ba459fc788f669e58cfaf9dc25ddcd0702e87d69c7b512428901819055979650505050505050565b6000838152601560205260409020600201544210620013ec5760405162461bcd60e51b815260040162000c8490620040dc565b80620013f83362002daa565b10158015620014225750600083815260146020908152604080832033845290915290206001015481115b620014415760405162461bcd60e51b815260040162000c849062004127565b60008381526014602090815260408083203384529091529020541580156200148357506000838152601460209081526040808320338452909152902060010154155b80620014ce5750600083815260146020908152604080832033845290915290205482148015620014ce5750600083815260146020908152604080832033845290915290206001015481115b620014ed5760405162461bcd60e51b815260040162000c84906200416d565b620014fb3384848462002e04565b505050565b606060028054620015119062003f96565b80601f01602080910402602001604051908101604052809291908181526020018280546200153f9062003f96565b801562000b3a5780601f10620015645761010080835404028352916020019162000b3a565b820191906000526020600020905b8154815290600101906020018083116200157257509395945050505050565b6000858152601560205260409020600201544210620015c45760405162461bcd60e51b815260040162000c8490620040dc565b6000620015d483878787620023ca565b60008181526013602052604090205490915060ff1615620016385760405162461bcd60e51b815260206004820152601960248201527f45524332304775696c643a20416c726561647920766f74656400000000000000604482015260640162000c84565b6200169c8262001695836040517f19457468657265756d205369676e6564204d6573736167653a0a3332000000006020820152603c8101829052600090605c01604051602081830303815290604052805190602001209050919050565b9062003065565b6001600160a01b0316836001600160a01b031614620016fe5760405162461bcd60e51b815260206004820152601860248201527f45524332304775696c643a2057726f6e67207369676e65720000000000000000604482015260640162000c84565b6000818152601360205260409020805460ff1916600117905583620017238462002daa565b1015801562001756575060008681526014602090815260408083206001600160a01b038716845290915290206001015484115b620017755760405162461bcd60e51b815260040162000c849062004127565b60008681526014602090815260408083206001600160a01b0387168452909152902054158015620017c9575060008681526014602090815260408083206001600160a01b0387168452909152902060010154155b8062001826575060008681526014602090815260408083206001600160a01b03871684529091529020548514801562001826575060008681526014602090815260408083206001600160a01b038716845290915290206001015484115b620018455760405162461bcd60e51b815260040162000c84906200416d565b620018538387878762002e04565b505050505050565b80620018673362002daa565b1015620018d65760405162461bcd60e51b815260206004820152603660248201527f45524332304775696c643a20556e61626c6520746f207769746864726177206d6044820152751bdc99481d1bdad95b9cc81d1a185b881b1bd8dad95960521b606482015260840162000c84565b336000908152601260205260409020600101544211620019395760405162461bcd60e51b815260206004820152601f60248201527f45524332304775696c643a20546f6b656e73207374696c6c206c6f636b656400604482015260640162000c84565b60008111620019b15760405162461bcd60e51b815260206004820152603f60248201527f45524332304775696c643a20616d6f756e74206f6620746f6b656e7320746f2060448201527f7769746864726177206d7573742062652067726561746572207468616e203000606482015260840162000c84565b33600090815260126020526040902054620019cd90826200308d565b33600090815260126020526040902055600e54620019ec90826200308d565b600e5560115460405163f3fef3a360e01b8152336004820152602481018390526001600160a01b039091169063f3fef3a390604401600060405180830381600087803b15801562001a3c57600080fd5b505af115801562001a51573d6000803e3d6000fd5b5050505062001a603362002daa565b62001a7957600b5462001a759060016200308d565b600b555b60408051338152602081018390527f6352c5382c4a4578e712449ca65e83cdb392d045dfcf1cad9615189db2da244b91015b60405180910390a150565b60156020526000908152604090208054600182015460028301546006840180546001600160a01b0390941694929391929162001af29062003f96565b80601f016020809104026020016040519081016040528092919081815260200182805462001b209062003f96565b801562001b715780601f1062001b455761010080835404028352916020019162001b71565b820191906000526020600020905b81548152906001019060200180831162001b5357829003601f168201915b50505050509080600701805462001b889062003f96565b80601f016020809104026020016040519081016040528092919081815260200182805462001bb69062003f96565b801562001c075780601f1062001bdb5761010080835404028352916020019162001c07565b820191906000526020600020905b81548152906001019060200180831162001be957829003601f168201915b5050506008909301549192505060ff1686565b60175462010000900460ff168062001c3a5750601754610100900460ff16155b62001c9f5760405162461bcd60e51b815260206004820152602e60248201527f496e697469616c697a61626c653a20636f6e747261637420697320616c72656160448201526d191e481a5b9a5d1a585b1a5e995960921b606482015260840162000c84565b60175462010000900460ff1615801562001cc5576017805462ffff001916620101001790555b6001600160a01b038c1662001d2c5760405162461bcd60e51b815260206004820152602660248201527f45524332304775696c643a20746f6b656e2063616e74206265207a65726f206160448201526564647265737360d01b606482015260840162000c84565b60008b1162001d4f5760405162461bcd60e51b815260040162000c849062003fd3565b8a83101562001d725760405162461bcd60e51b815260040162000c849062004022565b6000891162001d955760405162461bcd60e51b815260040162000c84906200407f565b865162001daa9060029060208a01906200352d565b50600080546001600160a01b0319166001600160a01b038e16908117909155604051309062001dd990620035a9565b6001600160a01b03928316815291166020820152604001604051809103906000f08015801562001e0d573d6000803e3d6000fd5b50601180546001600160a01b03199081166001600160a01b039384161790915560038d905560048c905560058b905560068a9055600788905560088790556009869055600d85905560018054909116918416919091179055801562001e79576017805462ff0000191690555b505050505050505050505050565b62001e91620035b7565b60008281526015602090815260409182902082516101408101845281546001600160a01b03168152600182015481840152600282015481850152600382018054855181860281018601909652808652919492936060860193929083018282801562001f2657602002820191906000526020600020905b81546001600160a01b0316815260019091019060200180831162001f07575b5050505050815260200160048201805480602002602001604051908101604052809291908181526020016000905b828210156200200a57838290600052602060002001805462001f769062003f96565b80601f016020809104026020016040519081016040528092919081815260200182805462001fa49062003f96565b801562001ff55780601f1062001fc95761010080835404028352916020019162001ff5565b820191906000526020600020905b81548152906001019060200180831162001fd757829003601f168201915b50505050508152602001906001019062001f54565b505050508152602001600582018054806020026020016040519081016040528092919081815260200182805480156200206357602002820191906000526020600020905b8154815260200190600101908083116200204e575b505050505081526020016006820180546200207e9062003f96565b80601f0160208091040260200160405190810160405280929190818152602001828054620020ac9062003f96565b8015620020fd5780601f10620020d157610100808354040283529160200191620020fd565b820191906000526020600020905b815481529060010190602001808311620020df57829003601f168201915b50505050508152602001600782018054620021189062003f96565b80601f0160208091040260200160405190810160405280929190818152602001828054620021469062003f96565b8015620021975780601f106200216b5761010080835404028352916020019162002197565b820191906000526020600020905b8154815290600101906020018083116200217957829003601f168201915b5050509183525050600882015460209091019060ff166004811115620021c157620021c162003c2c565b6004811115620021d557620021d562003c2c565b8152602001600982018054806020026020016040519081016040528092919081815260200182805480156200222a57602002820191906000526020600020905b81548152602001906001019080831162002215575b5050505050815250509050919050565b60008111620022a75760405162461bcd60e51b815260206004820152603260248201527f45524332304775696c643a20546f6b656e7320746f206c6f636b2073686f756c60448201527106420626520686967686572207468616e20360741b606482015260840162000c84565b620022b23362002daa565b620022cb57600b54620022c790600162002df6565b600b555b6011546040516311f9fbc960e21b8152336004820152602481018390526001600160a01b03909116906347e7ef2490604401600060405180830381600087803b1580156200231857600080fd5b505af11580156200232d573d6000803e3d6000fd5b5050336000908152601260205260409020546200234e925090508262002df6565b33600090815260126020526040902055600d546200236e90429062002df6565b33600090815260126020526040902060010155600e5462002390908262002df6565b600e5560408051338152602081018390527fac87f20a77d28ee8bbb58ec87ea8fa968b3393efae1a368fd50b767c2847391c910162001aab565b6040516bffffffffffffffffffffffff19606086901b166020820152603481018490526054810183905260748101829052600090609401604051602081830303815290604052805190602001209050949350505050565b600062000c0261271062000bfb60055462000bf4600e5490565b601681815481106200244c57600080fd5b600091825260209091200154905081565b60175460ff1615620024be5760405162461bcd60e51b8152602060048201526024808201527f45524332304775696c643a2050726f706f73616c20756e6465722065786563756044820152633a34b7b760e11b606482015260840162000c84565b600160008281526015602052604090206008015460ff166004811115620024e957620024e962003c2c565b14620025465760405162461bcd60e51b815260206004820152602560248201527f45524332304775696c643a2050726f706f73616c20616c72656164792065786560448201526418dd5d195960da1b606482015260840162000c84565b6000818152601560205260409020600201544211620025b65760405162461bcd60e51b815260206004820152602560248201527f45524332304775696c643a2050726f706f73616c206861736e277420656e646560448201526419081e595d60da1b606482015260840162000c84565b600081815260156020526040812060090180548291908290620025dd57620025dd620041d4565b600091825260209091200154905060015b6000848152601560205260409020600901548110156200271d576200261262002421565b6000858152601560205260409020600901805483908110620026385762002638620041d4565b9060005260206000200154101580156200268457506000848152601560205260409020600901805483919083908110620026765762002676620041d4565b906000526020600020015410155b1562002708576000848152601560205260409020600901805483919083908110620026b357620026b3620041d4565b90600052602060002001541415620026cf576000925062002708565b60008481526015602052604090206009018054919350839182908110620026fa57620026fa620041d4565b906000526020600020015491505b80620027148162004200565b915050620025ee565b826200276d576000848152601560205260409020600801805460ff19166002908117909155849060008051602062004bd0833981519152905b60405190815260200160405180910390a262002d91565b600454600085815260156020526040902060020154429162002790919062002df6565b1015620027cf576000848152601560205260409020600801805460ff19166004908117909155849060008051602062004bd08339815191529062002756565b600084815260156020526040812060088101805460ff19166003179055600901546200281b90620028029060016200308d565b6000878152601560205260409020600301549062002dda565b9050620028366200282e8560016200308d565b829062002dc5565b9150600062002846838362002df6565b9050600160009054906101000a90046001600160a01b03166001600160a01b0316633e7a47b26040518163ffffffff1660e01b8152600401600060405180830381600087803b1580156200289957600080fd5b505af1158015620028ae573d6000803e3d6000fd5b505050505b8083101562002ce8576000868152601560205260408120600301805485908110620028e257620028e2620041d4565b6000918252602090912001546001600160a01b0316148015906200294257506000868152601560205260408120600401805485908110620029275762002927620041d4565b9060005260206000200180546200293e9062003f96565b9050115b1562002cd35760008681526015602052604081206004018054859081106200296e576200296e620041d4565b906000526020600020018054620029859062003f96565b80601f0160208091040260200160405190810160405280929190818152602001828054620029b39062003f96565b801562002a045780601f10620029d85761010080835404028352916020019162002a04565b820191906000526020600020905b815481529060010190602001808311620029e657829003601f168201915b50505060208084015160015460008d815260159093526040909220600301805495965090946001600160a01b03909216935063eed47033925030918990811062002a525762002a52620041d4565b9060005260206000200160009054906101000a90046001600160a01b031684601560008e81526020019081526020016000206005018a8154811062002a9b5762002a9b620041d4565b60009182526020909120015460405160e086901b6001600160e01b031990811682526001600160a01b039586166004830152939094166024850152911660448301526064820152608401600060405180830381600087803b15801562002b0057600080fd5b505af192505050801562002b12575060015b62002b6e5762002b216200421e565b806308c379a0141562002b62575062002b396200423b565b8062002b46575062002b64565b8060405162461bcd60e51b815260040162000c8491906200376f565b505b3d6000803e3d6000fd5b6017805460ff19166001179055600088815260156020526040812060030180548790811062002ba15762002ba1620041d4565b60009182526020808320909101548b83526015909152604090912060050180546001600160a01b03909216918890811062002be05762002be0620041d4565b9060005260206000200154601560008c8152602001908152602001600020600401888154811062002c155762002c15620041d4565b9060005260206000200160405162002c2e9190620042cb565b60006040518083038185875af1925050503d806000811462002c6d576040519150601f19603f3d011682016040523d82523d6000602084013e62002c72565b606091505b505090508062002cc55760405162461bcd60e51b815260206004820181905260248201527f45524332304775696c643a2050726f706f73616c2063616c6c206661696c6564604482015260640162000c84565b50506017805460ff19169055505b8262002cdf8162004200565b935050620028b3565b60015460405163fb0fde8560e01b81523060048201526001600160a01b039091169063fb0fde8590602401602060405180830381600087803b15801562002d2e57600080fd5b505af115801562002d43573d6000803e3d6000fd5b505050506040513d601f19601f8201168201806040525081019062002d6991906200436f565b508560008051602062004bd0833981519152600360405190815260200160405180910390a250505b600c5462002da19060016200308d565b600c5550505050565b6001600160a01b031660009081526012602052604090205490565b600062002dd3828462004393565b9392505050565b600062002dd38284620043cb565b600062002dd38284620043e2565b600062002dd38284620043f9565b60008381526014602090815260408083206001600160a01b03881684528252808320600101548684526015909252909120600901805462002e7a92849262002e73928790811062002e595762002e59620041d4565b90600052602060002001546200308d90919063ffffffff16565b9062002df6565b600084815260156020526040902060090180548490811062002ea05762002ea0620041d4565b60009182526020808320909101929092558481526014825260408082206001600160a01b038816835283528082208581556001018490558582526015909252206002015462002f07856001600160a01b031660009081526012602052604090206001015490565b101562002f3c576000838152601560209081526040808320600201546001600160a01b03881684526012909252909120600101555b604080516001600160a01b038616815260208101839052839185917f583c62f152711bcb1ca6186c1065821ff17a7cbe226dcb559a1c889dcf0d769b910160405180910390a3600754156200305f57600062002fb262002fa86008543a6200309b90919063ffffffff16565b6007549062002dc5565b905080471015801562002fc45750333b155b156200305d57604051600090339083908381818185875af1925050503d80600081146200300e576040519150601f19603f3d011682016040523d82523d6000602084013e62003013565b606091505b5050905080620018535760405162461bcd60e51b81526020600482015260146024820152734661696c656420746f20726566756e642067617360601b604482015260640162000c84565b505b50505050565b6000806000620030768585620030b3565b91509150620030858162003129565b509392505050565b600062002dd3828462004414565b6000818310620030ac578162002dd3565b5090919050565b600080825160411415620030ee5760208301516040840151606085015160001a620030e187828585620032ff565b9450945050505062000dcb565b8251604014156200311c576020830151604084015162003110868383620033f4565b93509350505062000dcb565b5060009050600262000dcb565b600081600481111562003140576200314062003c2c565b14156200314a5750565b600181600481111562003161576200316162003c2c565b1415620031b15760405162461bcd60e51b815260206004820152601860248201527f45434453413a20696e76616c6964207369676e61747572650000000000000000604482015260640162000c84565b6002816004811115620031c857620031c862003c2c565b1415620032185760405162461bcd60e51b815260206004820152601f60248201527f45434453413a20696e76616c6964207369676e6174757265206c656e67746800604482015260640162000c84565b60038160048111156200322f576200322f62003c2c565b14156200328a5760405162461bcd60e51b815260206004820152602260248201527f45434453413a20696e76616c6964207369676e6174757265202773272076616c604482015261756560f01b606482015260840162000c84565b6004816004811115620032a157620032a162003c2c565b1415620032fc5760405162461bcd60e51b815260206004820152602260248201527f45434453413a20696e76616c6964207369676e6174757265202776272076616c604482015261756560f01b606482015260840162000c84565b50565b6000807f7fffffffffffffffffffffffffffffff5d576e7357a4501ddfe92f46681b20a0831115620033385750600090506003620033eb565b8460ff16601b141580156200335157508460ff16601c14155b15620033645750600090506004620033eb565b6040805160008082526020820180845289905260ff881692820192909252606081018690526080810185905260019060a0016020604051602081039080840390855afa158015620033b9573d6000803e3d6000fd5b5050604051601f1901519150506001600160a01b038116620033e457600060019250925050620033eb565b9150600090505b94509492505050565b6000806001600160ff1b03831660ff84901c601b016200341787828885620032ff565b935093505050935093915050565b8280548282559060005260206000209081019282156200347d579160200282015b828111156200347d57825182546001600160a01b0319166001600160a01b0390911617825560209092019160019091019062003446565b506200348b92915062003627565b5090565b828054828255906000526020600020908101928215620034e1579160200282015b82811115620034e15782518051620034d09184916020909101906200352d565b5091602001919060010190620034b0565b506200348b9291506200363e565b8280548282559060005260206000209081019282156200347d579160200282015b828111156200347d57825182559160200191906001019062003510565b8280546200353b9062003f96565b90600052602060002090601f0160209004810192826200355f57600085556200347d565b82601f106200357a57805160ff19168380011785556200347d565b828001600101855582156200347d57918201828111156200347d57825182559160200191906001019062003510565b6107a1806200442f83390190565b60405180610140016040528060006001600160a01b0316815260200160008152602001600081526020016060815260200160608152602001606081526020016060815260200160608152602001600060048111156200361a576200361a62003c2c565b8152602001606081525090565b5b808211156200348b576000815560010162003628565b808211156200348b5760006200365582826200365f565b506001016200363e565b5080546200366d9062003f96565b6000825580601f106200367e575050565b601f016020900490600052602060002090810190620032fc919062003627565b6020808252825182820181905260009190848201906040850190845b81811015620036d857835183529284019291840191600101620036ba565b50909695505050505050565b80356001600160a01b0381168114620036fc57600080fd5b919050565b6000602082840312156200371457600080fd5b62002dd382620036e4565b6000815180845260005b81811015620037475760208185018101518683018201520162003729565b818111156200375a576000602083870101525b50601f01601f19169290920160200192915050565b60208152600062002dd360208301846200371f565b6000806000806000806000806000806101408b8d031215620037a557600080fd5b505088359a60208a01359a5060408a013599606081013599506080810135985060a0810135975060c0810135965060e081013595506101008101359450610120013592509050565b600080604083850312156200380157600080fd5b823591506200381360208401620036e4565b90509250929050565b634e487b7160e01b600052604160045260246000fd5b601f8201601f1916810167ffffffffffffffff811182821017156200385b576200385b6200381c565b6040525050565b600067ffffffffffffffff8211156200387f576200387f6200381c565b5060051b60200190565b600082601f8301126200389b57600080fd5b81356020620038aa8262003862565b604051620038b9828262003832565b83815260059390931b8501820192828101915086841115620038da57600080fd5b8286015b848110156200390057620038f281620036e4565b8352918301918301620038de565b509695505050505050565b600082601f8301126200391d57600080fd5b813567ffffffffffffffff8111156200393a576200393a6200381c565b60405162003953601f8301601f19166020018262003832565b8181528460208386010111156200396957600080fd5b816020850160208301376000918101602001919091529392505050565b600082601f8301126200399857600080fd5b81356020620039a78262003862565b604051620039b6828262003832565b83815260059390931b8501820192828101915086841115620039d757600080fd5b8286015b848110156200390057803567ffffffffffffffff811115620039fd5760008081fd5b62003a0d8986838b01016200390b565b845250918301918301620039db565b600082601f83011262003a2e57600080fd5b8135602062003a3d8262003862565b60405162003a4c828262003832565b83815260059390931b850182019282810191508684111562003a6d57600080fd5b8286015b8481101562003900578035835291830191830162003a71565b60008060008060008060c0878903121562003aa457600080fd5b863567ffffffffffffffff8082111562003abd57600080fd5b62003acb8a838b0162003889565b9750602089013591508082111562003ae257600080fd5b62003af08a838b0162003986565b9650604089013591508082111562003b0757600080fd5b62003b158a838b0162003a1c565b955060608901359450608089013591508082111562003b3357600080fd5b62003b418a838b016200390b565b935060a089013591508082111562003b5857600080fd5b5062003b6789828a016200390b565b9150509295509295509295565b60008060006060848603121562003b8a57600080fd5b505081359360208301359350604090920135919050565b600080600080600060a0868803121562003bba57600080fd5b85359450602086013593506040860135925062003bda60608701620036e4565b9150608086013567ffffffffffffffff81111562003bf757600080fd5b62003c05888289016200390b565b9150509295509295909350565b60006020828403121562003c2557600080fd5b5035919050565b634e487b7160e01b600052602160045260246000fd5b6005811062003c6157634e487b7160e01b600052602160045260246000fd5b9052565b60018060a01b038716815285602082015284604082015260c06060820152600062003c9460c08301866200371f565b828103608084015262003ca881866200371f565b91505062003cba60a083018462003c42565b979650505050505050565b60008060008060008060008060008060006101608c8e03121562003ce857600080fd5b62003cf38c620036e4565b9a5060208c0135995060408c0135985060608c0135975060808c0135965060a08c013567ffffffffffffffff81111562003d2c57600080fd5b62003d3a8e828f016200390b565b96505060c08c0135945060e08c013593506101008c013592506101208c0135915062003d6a6101408d01620036e4565b90509295989b509295989b9093969950565b600081518084526020808501945080840160005b8381101562003db75781516001600160a01b03168752958201959082019060010162003d90565b509495945050505050565b600081518084526020808501808196508360051b8101915082860160005b8581101562003e0e57828403895262003dfb8483516200371f565b9885019893509084019060010162003de0565b5091979650505050505050565b600081518084526020808501945080840160005b8381101562003db75781518752958201959082019060010162003e2f565b6020815262003e686020820183516001600160a01b03169052565b60208201516040820152604082015160608201526000606083015161014080608085015262003e9c61016085018362003d7c565b91506080850151601f19808685030160a087015262003ebc848362003dc2565b935060a08701519150808685030160c087015262003edb848362003e1b565b935060c08701519150808685030160e087015262003efa84836200371f565b935060e0870151915061010081878603018188015262003f1b85846200371f565b94508088015192505061012062003f358188018462003c42565b87015186850390910183870152905062003f50838262003e1b565b9695505050505050565b6000806000806080858703121562003f7157600080fd5b62003f7c85620036e4565b966020860135965060408601359560600135945092505050565b600181811c9082168062003fab57607f821691505b6020821081141562003fcd57634e487b7160e01b600052602260045260246000fd5b50919050565b6020808252602f908201527f45524332304775696c643a2070726f706f73616c2074696d652068617320746f60408201526e0206265206d6f7265207468616e203608c1b606082015260800190565b6020808252603e908201527f45524332304775696c643a206c6f636b54696d652068617320746f206265206860408201527f6967686572206f7220657175616c20746f2070726f706f73616c54696d650000606082015260800190565b6020808252603c908201527f45524332304775696c643a20766f74696e6720706f77657220666f722065786560408201527f637574696f6e2068617320746f206265206d6f7265207468616e203000000000606082015260800190565b6020808252602b908201527f45524332304775696c643a2050726f706f73616c20656e6465642c2063616e6e60408201526a1bdd081899481d9bdd195960aa1b606082015260800190565b60208082526026908201527f45524332304775696c643a20496e76616c696420766f74696e67506f77657220604082015265185b5bdd5b9d60d21b606082015260800190565b60208082526041908201527f45524332304775696c643a2043616e6e6f74206368616e6765206f7074696f6e60408201527f20766f7465642c206f6e6c7920696e63726561736520766f74696e67506f77656060820152603960f91b608082015260a00190565b634e487b7160e01b600052603260045260246000fd5b634e487b7160e01b600052601160045260246000fd5b6000600019821415620042175762004217620041ea565b5060010190565b600060033d1115620042385760046000803e5060005160e01c5b90565b600060443d10156200424a5790565b6040516003193d81016004833e81513d67ffffffffffffffff81602484011181841117156200427b57505050505090565b8285019150815181811115620042945750505050505090565b843d8701016020828501011115620042af5750505050505090565b620042c06020828601018762003832565b509095945050505050565b600080835481600182811c915080831680620042e857607f831692505b60208084108214156200430957634e487b7160e01b86526022600452602486fd5b818015620043205760018114620043325762004361565b60ff1986168952848901965062004361565b60008a81526020902060005b86811015620043595781548b8201529085019083016200433e565b505084890196505b509498975050505050505050565b6000602082840312156200438257600080fd5b8151801515811462002dd357600080fd5b6000816000190483118215151615620043b057620043b0620041ea565b500290565b634e487b7160e01b600052601260045260246000fd5b600082620043dd57620043dd620043b5565b500490565b600082620043f457620043f4620043b5565b500690565b600082198211156200440f576200440f620041ea565b500190565b600082821015620044295762004429620041ea565b50039056fe608060405234801561001057600080fd5b506040516107a13803806107a183398101604081905261002f9161007c565b600080546001600160a01b039384166001600160a01b031991821617909155600180549290931691161790556100af565b80516001600160a01b038116811461007757600080fd5b919050565b6000806040838503121561008f57600080fd5b61009883610060565b91506100a660208401610060565b90509250929050565b6106e3806100be6000396000f3fe608060405234801561001057600080fd5b506004361061007d5760003560e01c80636e9960c31161005b5780636e9960c3146100ef578063f3fef3a314610100578063f851a44014610113578063fc0c546a1461012657600080fd5b806321df0da71461008257806327e235e3146100ac57806347e7ef24146100da575b600080fd5b6000546001600160a01b03165b6040516001600160a01b0390911681526020015b60405180910390f35b6100cc6100ba366004610586565b60026020526000908152604090205481565b6040519081526020016100a3565b6100ed6100e83660046105a1565b610139565b005b6001546001600160a01b031661008f565b6100ed61010e3660046105a1565b61020a565b60015461008f906001600160a01b031681565b60005461008f906001600160a01b031681565b6001546001600160a01b031633146101af5760405162461bcd60e51b815260206004820152602e60248201527f546f6b656e5661756c743a204465706f736974206d7573742062652073656e7460448201526d103a343937bab3b41030b236b4b760911b60648201526084015b60405180910390fd5b6000546101c7906001600160a01b031683308461025b565b6001600160a01b0382166000908152600260205260409020546101ea90826102cc565b6001600160a01b0390921660009081526002602052604090209190915550565b6001546001600160a01b0316331461022157600080fd5b600054610238906001600160a01b031683836102df565b6001600160a01b0382166000908152600260205260409020546101ea9082610314565b6040516001600160a01b03808516602483015283166044820152606481018290526102c69085906323b872dd60e01b906084015b60408051601f198184030181529190526020810180516001600160e01b03166001600160e01b031990931692909217909152610320565b50505050565b60006102d882846105e1565b9392505050565b6040516001600160a01b03831660248201526044810182905261030f90849063a9059cbb60e01b9060640161028f565b505050565b60006102d882846105f9565b6000610375826040518060400160405280602081526020017f5361666545524332303a206c6f772d6c6576656c2063616c6c206661696c6564815250856001600160a01b03166103f29092919063ffffffff16565b80519091501561030f57808060200190518101906103939190610610565b61030f5760405162461bcd60e51b815260206004820152602a60248201527f5361666545524332303a204552433230206f7065726174696f6e20646964206e6044820152691bdd081cdd58d8d9595960b21b60648201526084016101a6565b60606104018484600085610409565b949350505050565b60608247101561046a5760405162461bcd60e51b815260206004820152602660248201527f416464726573733a20696e73756666696369656e742062616c616e636520666f6044820152651c8818d85b1b60d21b60648201526084016101a6565b843b6104b85760405162461bcd60e51b815260206004820152601d60248201527f416464726573733a2063616c6c20746f206e6f6e2d636f6e747261637400000060448201526064016101a6565b600080866001600160a01b031685876040516104d4919061065e565b60006040518083038185875af1925050503d8060008114610511576040519150601f19603f3d011682016040523d82523d6000602084013e610516565b606091505b5091509150610526828286610531565b979650505050505050565b606083156105405750816102d8565b8251156105505782518084602001fd5b8160405162461bcd60e51b81526004016101a6919061067a565b80356001600160a01b038116811461058157600080fd5b919050565b60006020828403121561059857600080fd5b6102d88261056a565b600080604083850312156105b457600080fd5b6105bd8361056a565b946020939093013593505050565b634e487b7160e01b600052601160045260246000fd5b600082198211156105f4576105f46105cb565b500190565b60008282101561060b5761060b6105cb565b500390565b60006020828403121561062257600080fd5b815180151581146102d857600080fd5b60005b8381101561064d578181015183820152602001610635565b838111156102c65750506000910152565b60008251610670818460208701610632565b9190910192915050565b6020815260008251806020840152610699816040850160208701610632565b601f01601f1916919091016040019291505056fea2646970667358221220f83df9be484204d29c000a118187aee7d3ca7efcb094476e4ad893327bb967b564736f6c63430008080033fee62a9eec0be50eb061c711990ef0f1e17b40ea131d9347b0468acdaf8bf243a26469706673582212205d55f88fc0a1a4fa11f8d4123739d62c609e7ed1646f53d1cafa7becb1aed98c64736f6c63430008080033",
  "linkReferences": {},
  "deployedLinkReferences": {}
}