{
  "_format": "hh-sol-artifact-1",
  "contractName": "ERC20GuildUpgradeable",
  "sourceName": "dxdao-contracts/contracts/erc20guild/ERC20GuildUpgradeable.sol",
  "abi": [
    {
      "anonymous": false,
      "inputs": [
        {
          "indexed": true,
          "internalType": "bytes32",
          "name": "proposalId",
          "type": "bytes32"
        },
        {
          "indexed": false,
          "internalType": "uint256",
          "name": "newState",
          "type": "uint256"
        }
      ],
      "name": "ProposalStateChanged",
      "type": "event"
    },
    {
      "anonymous": false,
      "inputs": [
        {
          "indexed": false,
          "internalType": "address",
          "name": "voter",
          "type": "address"
        },
        {
          "indexed": false,
          "internalType": "uint256",
          "name": "value",
          "type": "uint256"
        }
      ],
      "name": "TokensLocked",
      "type": "event"
    },
    {
      "anonymous": false,
      "inputs": [
        {
          "indexed": false,
          "internalType": "address",
          "name": "voter",
          "type": "address"
        },
        {
          "indexed": false,
          "internalType": "uint256",
          "name": "value",
          "type": "uint256"
        }
      ],
      "name": "TokensWithdrawn",
      "type": "event"
    },
    {
      "anonymous": false,
      "inputs": [
        {
          "indexed": true,
          "internalType": "bytes32",
          "name": "proposalId",
          "type": "bytes32"
        },
        {
          "indexed": true,
          "internalType": "uint256",
          "name": "option",
          "type": "uint256"
        },
        {
          "indexed": false,
          "internalType": "address",
          "name": "voter",
          "type": "address"
        },
        {
          "indexed": false,
          "internalType": "uint256",
          "name": "votingPower",
          "type": "uint256"
        }
      ],
      "name": "VoteAdded",
      "type": "event"
    },
    {
      "stateMutability": "payable",
      "type": "fallback"
    },
    {
      "inputs": [],
      "name": "MAX_OPTIONS_PER_PROPOSAL",
      "outputs": [
        {
          "internalType": "uint8",
          "name": "",
          "type": "uint8"
        }
      ],
      "stateMutability": "view",
      "type": "function"
    },
    {
      "inputs": [],
      "name": "activeProposalsNow",
      "outputs": [
        {
          "internalType": "uint256",
          "name": "",
          "type": "uint256"
        }
      ],
      "stateMutability": "view",
      "type": "function"
    },
    {
      "inputs": [
        {
          "internalType": "address[]",
          "name": "to",
          "type": "address[]"
        },
        {
          "internalType": "bytes[]",
          "name": "data",
          "type": "bytes[]"
        },
        {
          "internalType": "uint256[]",
          "name": "value",
          "type": "uint256[]"
        },
        {
          "internalType": "uint256",
          "name": "totalOptions",
          "type": "uint256"
        },
        {
          "internalType": "string",
          "name": "title",
          "type": "string"
        },
        {
          "internalType": "string",
          "name": "contentHash",
          "type": "string"
        }
      ],
      "name": "createProposal",
      "outputs": [
        {
          "internalType": "bytes32",
          "name": "",
          "type": "bytes32"
        }
      ],
      "stateMutability": "nonpayable",
      "type": "function"
    },
    {
      "inputs": [
        {
          "internalType": "bytes32",
          "name": "proposalId",
          "type": "bytes32"
        }
      ],
      "name": "endProposal",
      "outputs": [],
      "stateMutability": "nonpayable",
      "type": "function"
    },
    {
      "inputs": [
        {
          "internalType": "bytes32",
          "name": "root",
          "type": "bytes32"
        },
        {
          "internalType": "address",
          "name": "voter",
          "type": "address"
        },
        {
          "internalType": "bytes32",
          "name": "voteHash",
          "type": "bytes32"
        },
        {
          "internalType": "bytes32[]",
          "name": "proof",
          "type": "bytes32[]"
        },
        {
          "internalType": "bytes32",
          "name": "proposalId",
          "type": "bytes32"
        },
        {
          "internalType": "uint256",
          "name": "option",
          "type": "uint256"
        },
        {
          "internalType": "uint256",
          "name": "votingPower",
          "type": "uint256"
        }
      ],
      "name": "executeSignedVote",
      "outputs": [],
      "stateMutability": "nonpayable",
      "type": "function"
    },
    {
      "inputs": [
        {
          "internalType": "bytes32[]",
          "name": "proposalIds",
          "type": "bytes32[]"
        },
        {
          "internalType": "uint256[]",
          "name": "options",
          "type": "uint256[]"
        },
        {
          "internalType": "uint256[]",
          "name": "votingPowers",
          "type": "uint256[]"
        }
      ],
      "name": "executeVotes",
      "outputs": [
        {
          "internalType": "bool[]",
          "name": "",
          "type": "bool[]"
        }
      ],
      "stateMutability": "nonpayable",
      "type": "function"
    },
    {
      "inputs": [],
      "name": "getActiveProposalsNow",
      "outputs": [
        {
          "internalType": "uint256",
          "name": "",
          "type": "uint256"
        }
      ],
      "stateMutability": "view",
      "type": "function"
    },
    {
      "inputs": [],
      "name": "getLockTime",
      "outputs": [
        {
          "internalType": "uint256",
          "name": "",
          "type": "uint256"
        }
      ],
      "stateMutability": "view",
      "type": "function"
    },
    {
      "inputs": [],
      "name": "getMaxActiveProposals",
      "outputs": [
        {
          "internalType": "uint256",
          "name": "",
          "type": "uint256"
        }
      ],
      "stateMutability": "view",
      "type": "function"
    },
    {
      "inputs": [],
      "name": "getMaxGasPrice",
      "outputs": [
        {
          "internalType": "uint256",
          "name": "",
          "type": "uint256"
        }
      ],
      "stateMutability": "view",
      "type": "function"
    },
    {
      "inputs": [],
      "name": "getMinimumMembersForProposalCreation",
      "outputs": [
        {
          "internalType": "uint256",
          "name": "",
          "type": "uint256"
        }
      ],
      "stateMutability": "view",
      "type": "function"
    },
    {
      "inputs": [],
      "name": "getMinimumTokensLockedForProposalCreation",
      "outputs": [
        {
          "internalType": "uint256",
          "name": "",
          "type": "uint256"
        }
      ],
      "stateMutability": "view",
      "type": "function"
    },
    {
      "inputs": [],
      "name": "getName",
      "outputs": [
        {
          "internalType": "string",
          "name": "",
          "type": "string"
        }
      ],
      "stateMutability": "view",
      "type": "function"
    },
    {
      "inputs": [],
      "name": "getPermissionRegistry",
      "outputs": [
        {
          "internalType": "address",
          "name": "",
          "type": "address"
        }
      ],
      "stateMutability": "view",
      "type": "function"
    },
    {
      "inputs": [
        {
          "internalType": "bytes32",
          "name": "proposalId",
          "type": "bytes32"
        }
      ],
      "name": "getProposal",
      "outputs": [
        {
          "components": [
            {
              "internalType": "address",
              "name": "creator",
              "type": "address"
            },
            {
              "internalType": "uint256",
              "name": "startTime",
              "type": "uint256"
            },
            {
              "internalType": "uint256",
              "name": "endTime",
              "type": "uint256"
            },
            {
              "internalType": "address[]",
              "name": "to",
              "type": "address[]"
            },
            {
              "internalType": "bytes[]",
              "name": "data",
              "type": "bytes[]"
            },
            {
              "internalType": "uint256[]",
              "name": "value",
              "type": "uint256[]"
            },
            {
              "internalType": "string",
              "name": "title",
              "type": "string"
            },
            {
              "internalType": "string",
              "name": "contentHash",
              "type": "string"
            },
            {
              "internalType": "enum BaseERC20Guild.ProposalState",
              "name": "state",
              "type": "uint8"
            },
            {
              "internalType": "uint256[]",
              "name": "totalVotes",
              "type": "uint256[]"
            }
          ],
          "internalType": "struct BaseERC20Guild.Proposal",
          "name": "",
          "type": "tuple"
        }
      ],
      "stateMutability": "view",
      "type": "function"
    },
    {
      "inputs": [],
      "name": "getProposalTime",
      "outputs": [
        {
          "internalType": "uint256",
          "name": "",
          "type": "uint256"
        }
      ],
      "stateMutability": "view",
      "type": "function"
    },
    {
      "inputs": [
        {
          "internalType": "bytes32",
          "name": "proposalId",
          "type": "bytes32"
        },
        {
          "internalType": "address",
          "name": "voter",
          "type": "address"
        }
      ],
      "name": "getProposalVotesOfVoter",
      "outputs": [
        {
          "internalType": "uint256",
          "name": "option",
          "type": "uint256"
        },
        {
          "internalType": "uint256",
          "name": "votingPower",
          "type": "uint256"
        }
      ],
      "stateMutability": "view",
      "type": "function"
    },
    {
      "inputs": [],
      "name": "getProposalsIds",
      "outputs": [
        {
          "internalType": "bytes32[]",
          "name": "",
          "type": "bytes32[]"
        }
      ],
      "stateMutability": "view",
      "type": "function"
    },
    {
      "inputs": [],
      "name": "getProposalsIdsLength",
      "outputs": [
        {
          "internalType": "uint256",
          "name": "",
          "type": "uint256"
        }
      ],
      "stateMutability": "view",
      "type": "function"
    },
    {
      "inputs": [
        {
          "internalType": "bytes32",
          "name": "signedVoteHash",
          "type": "bytes32"
        }
      ],
      "name": "getSignedVote",
      "outputs": [
        {
          "internalType": "bool",
          "name": "",
          "type": "bool"
        }
      ],
      "stateMutability": "view",
      "type": "function"
    },
    {
      "inputs": [],
      "name": "getTimeForExecution",
      "outputs": [
        {
          "internalType": "uint256",
          "name": "",
          "type": "uint256"
        }
      ],
      "stateMutability": "view",
      "type": "function"
    },
    {
      "inputs": [],
      "name": "getToken",
      "outputs": [
        {
          "internalType": "address",
          "name": "",
          "type": "address"
        }
      ],
      "stateMutability": "view",
      "type": "function"
    },
    {
      "inputs": [],
      "name": "getTokenVault",
      "outputs": [
        {
          "internalType": "address",
          "name": "",
          "type": "address"
        }
      ],
      "stateMutability": "view",
      "type": "function"
    },
    {
      "inputs": [],
      "name": "getTotalLocked",
      "outputs": [
        {
          "internalType": "uint256",
          "name": "",
          "type": "uint256"
        }
      ],
      "stateMutability": "view",
      "type": "function"
    },
    {
      "inputs": [],
      "name": "getTotalMembers",
      "outputs": [
        {
          "internalType": "uint256",
          "name": "",
          "type": "uint256"
        }
      ],
      "stateMutability": "view",
      "type": "function"
    },
    {
      "inputs": [],
      "name": "getTotalProposals",
      "outputs": [
        {
          "internalType": "uint256",
          "name": "",
          "type": "uint256"
        }
      ],
      "stateMutability": "view",
      "type": "function"
    },
    {
      "inputs": [],
      "name": "getVoteGas",
      "outputs": [
        {
          "internalType": "uint256",
          "name": "",
          "type": "uint256"
        }
      ],
      "stateMutability": "view",
      "type": "function"
    },
    {
      "inputs": [
        {
          "internalType": "address",
          "name": "voter",
          "type": "address"
        }
      ],
      "name": "getVoterLockTimestamp",
      "outputs": [
        {
          "internalType": "uint256",
          "name": "",
          "type": "uint256"
        }
      ],
      "stateMutability": "view",
      "type": "function"
    },
    {
      "inputs": [],
      "name": "getVotingPowerForProposalCreation",
      "outputs": [
        {
          "internalType": "uint256",
          "name": "",
          "type": "uint256"
        }
      ],
      "stateMutability": "view",
      "type": "function"
    },
    {
      "inputs": [],
      "name": "getVotingPowerForProposalExecution",
      "outputs": [
        {
          "internalType": "uint256",
          "name": "",
          "type": "uint256"
        }
      ],
      "stateMutability": "view",
      "type": "function"
    },
    {
      "inputs": [
        {
          "internalType": "address",
          "name": "voter",
          "type": "address"
        },
        {
          "internalType": "bytes32",
          "name": "proposalId",
          "type": "bytes32"
        },
        {
          "internalType": "uint256",
          "name": "option",
          "type": "uint256"
        },
        {
          "internalType": "uint256",
          "name": "votingPower",
          "type": "uint256"
        }
      ],
      "name": "hashVote",
      "outputs": [
        {
          "internalType": "bytes32",
          "name": "",
          "type": "bytes32"
        }
      ],
      "stateMutability": "pure",
      "type": "function"
    },
    {
      "inputs": [
        {
          "internalType": "address",
          "name": "_token",
          "type": "address"
        },
        {
          "internalType": "uint256",
          "name": "_proposalTime",
          "type": "uint256"
        },
        {
          "internalType": "uint256",
          "name": "_timeForExecution",
          "type": "uint256"
        },
        {
          "internalType": "uint256",
          "name": "_votingPowerPercentageForProposalExecution",
          "type": "uint256"
        },
        {
          "internalType": "uint256",
          "name": "_votingPowerPercentageForProposalCreation",
          "type": "uint256"
        },
        {
          "internalType": "string",
          "name": "_name",
          "type": "string"
        },
        {
          "internalType": "uint256",
          "name": "_voteGas",
          "type": "uint256"
        },
        {
          "internalType": "uint256",
          "name": "_maxGasPrice",
          "type": "uint256"
        },
        {
          "internalType": "uint256",
          "name": "_maxActiveProposals",
          "type": "uint256"
        },
        {
          "internalType": "uint256",
          "name": "_lockTime",
          "type": "uint256"
        },
        {
          "internalType": "address",
          "name": "_permissionRegistry",
          "type": "address"
        }
      ],
      "name": "initialize",
      "outputs": [],
      "stateMutability": "nonpayable",
      "type": "function"
    },
    {
      "inputs": [],
      "name": "lockTime",
      "outputs": [
        {
          "internalType": "uint256",
          "name": "",
          "type": "uint256"
        }
      ],
      "stateMutability": "view",
      "type": "function"
    },
    {
      "inputs": [
        {
          "internalType": "uint256",
          "name": "tokenAmount",
          "type": "uint256"
        }
      ],
      "name": "lockTokens",
      "outputs": [],
      "stateMutability": "nonpayable",
      "type": "function"
    },
    {
      "inputs": [],
      "name": "maxActiveProposals",
      "outputs": [
        {
          "internalType": "uint256",
          "name": "",
          "type": "uint256"
        }
      ],
      "stateMutability": "view",
      "type": "function"
    },
    {
      "inputs": [],
      "name": "maxGasPrice",
      "outputs": [
        {
          "internalType": "uint256",
          "name": "",
          "type": "uint256"
        }
      ],
      "stateMutability": "view",
      "type": "function"
    },
    {
      "inputs": [],
      "name": "minimumMembersForProposalCreation",
      "outputs": [
        {
          "internalType": "uint256",
          "name": "",
          "type": "uint256"
        }
      ],
      "stateMutability": "view",
      "type": "function"
    },
    {
      "inputs": [],
      "name": "minimumTokensLockedForProposalCreation",
      "outputs": [
        {
          "internalType": "uint256",
          "name": "",
          "type": "uint256"
        }
      ],
      "stateMutability": "view",
      "type": "function"
    },
    {
      "inputs": [],
      "name": "name",
      "outputs": [
        {
          "internalType": "string",
          "name": "",
          "type": "string"
        }
      ],
      "stateMutability": "view",
      "type": "function"
    },
    {
      "inputs": [],
      "name": "proposalTime",
      "outputs": [
        {
          "internalType": "uint256",
          "name": "",
          "type": "uint256"
        }
      ],
      "stateMutability": "view",
      "type": "function"
    },
    {
      "inputs": [
        {
          "internalType": "bytes32",
          "name": "",
          "type": "bytes32"
        },
        {
          "internalType": "address",
          "name": "",
          "type": "address"
        }
      ],
      "name": "proposalVotes",
      "outputs": [
        {
          "internalType": "uint256",
          "name": "option",
          "type": "uint256"
        },
        {
          "internalType": "uint256",
          "name": "votingPower",
          "type": "uint256"
        }
      ],
      "stateMutability": "view",
      "type": "function"
    },
    {
      "inputs": [
        {
          "internalType": "bytes32",
          "name": "",
          "type": "bytes32"
        }
      ],
      "name": "proposals",
      "outputs": [
        {
          "internalType": "address",
          "name": "creator",
          "type": "address"
        },
        {
          "internalType": "uint256",
          "name": "startTime",
          "type": "uint256"
        },
        {
          "internalType": "uint256",
          "name": "endTime",
          "type": "uint256"
        },
        {
          "internalType": "string",
          "name": "title",
          "type": "string"
        },
        {
          "internalType": "string",
          "name": "contentHash",
          "type": "string"
        },
        {
          "internalType": "enum BaseERC20Guild.ProposalState",
          "name": "state",
          "type": "uint8"
        }
      ],
      "stateMutability": "view",
      "type": "function"
    },
    {
      "inputs": [
        {
          "internalType": "uint256",
          "name": "",
          "type": "uint256"
        }
      ],
      "name": "proposalsIds",
      "outputs": [
        {
          "internalType": "bytes32",
          "name": "",
          "type": "bytes32"
        }
      ],
      "stateMutability": "view",
      "type": "function"
    },
    {
      "inputs": [
        {
          "internalType": "uint256",
          "name": "_proposalTime",
          "type": "uint256"
        },
        {
          "internalType": "uint256",
          "name": "_timeForExecution",
          "type": "uint256"
        },
        {
          "internalType": "uint256",
          "name": "_votingPowerPercentageForProposalExecution",
          "type": "uint256"
        },
        {
          "internalType": "uint256",
          "name": "_votingPowerPercentageForProposalCreation",
          "type": "uint256"
        },
        {
          "internalType": "uint256",
          "name": "_voteGas",
          "type": "uint256"
        },
        {
          "internalType": "uint256",
          "name": "_maxGasPrice",
          "type": "uint256"
        },
        {
          "internalType": "uint256",
          "name": "_maxActiveProposals",
          "type": "uint256"
        },
        {
          "internalType": "uint256",
          "name": "_lockTime",
          "type": "uint256"
        },
        {
          "internalType": "uint256",
          "name": "_minimumMembersForProposalCreation",
          "type": "uint256"
        },
        {
          "internalType": "uint256",
          "name": "_minimumTokensLockedForProposalCreation",
          "type": "uint256"
        }
      ],
      "name": "setConfig",
      "outputs": [],
      "stateMutability": "nonpayable",
      "type": "function"
    },
    {
      "inputs": [
        {
          "internalType": "bytes32",
          "name": "proposalId",
          "type": "bytes32"
        },
        {
          "internalType": "uint256",
          "name": "option",
          "type": "uint256"
        },
        {
          "internalType": "uint256",
          "name": "votingPower",
          "type": "uint256"
        },
        {
          "internalType": "address",
          "name": "voter",
          "type": "address"
        },
        {
          "internalType": "bytes",
          "name": "signature",
          "type": "bytes"
        }
      ],
      "name": "setSignedVote",
      "outputs": [],
      "stateMutability": "nonpayable",
      "type": "function"
    },
    {
      "inputs": [
        {
          "internalType": "bytes32",
          "name": "proposalId",
          "type": "bytes32"
        },
        {
          "internalType": "uint256",
          "name": "option",
          "type": "uint256"
        },
        {
          "internalType": "uint256",
          "name": "votingPower",
          "type": "uint256"
        }
      ],
      "name": "setVote",
      "outputs": [],
      "stateMutability": "nonpayable",
      "type": "function"
    },
    {
      "inputs": [
        {
          "internalType": "bytes32",
          "name": "",
          "type": "bytes32"
        }
      ],
      "name": "signedVotes",
      "outputs": [
        {
          "internalType": "bool",
          "name": "",
          "type": "bool"
        }
      ],
      "stateMutability": "view",
      "type": "function"
    },
    {
      "inputs": [],
      "name": "timeForExecution",
      "outputs": [
        {
          "internalType": "uint256",
          "name": "",
          "type": "uint256"
        }
      ],
      "stateMutability": "view",
      "type": "function"
    },
    {
      "inputs": [],
      "name": "token",
      "outputs": [
        {
          "internalType": "contract IERC20Upgradeable",
          "name": "",
          "type": "address"
        }
      ],
      "stateMutability": "view",
      "type": "function"
    },
    {
      "inputs": [],
      "name": "tokenVault",
      "outputs": [
        {
          "internalType": "contract TokenVault",
          "name": "",
          "type": "address"
        }
      ],
      "stateMutability": "view",
      "type": "function"
    },
    {
      "inputs": [
        {
          "internalType": "address",
          "name": "",
          "type": "address"
        }
      ],
      "name": "tokensLocked",
      "outputs": [
        {
          "internalType": "uint256",
          "name": "amount",
          "type": "uint256"
        },
        {
          "internalType": "uint256",
          "name": "timestamp",
          "type": "uint256"
        }
      ],
      "stateMutability": "view",
      "type": "function"
    },
    {
      "inputs": [],
      "name": "totalLocked",
      "outputs": [
        {
          "internalType": "uint256",
          "name": "",
          "type": "uint256"
        }
      ],
      "stateMutability": "view",
      "type": "function"
    },
    {
      "inputs": [],
      "name": "totalProposals",
      "outputs": [
        {
          "internalType": "uint256",
          "name": "",
          "type": "uint256"
        }
      ],
      "stateMutability": "view",
      "type": "function"
    },
    {
      "inputs": [
        {
          "internalType": "bytes32",
          "name": "root",
          "type": "bytes32"
        },
        {
          "internalType": "bytes32",
          "name": "voteHash",
          "type": "bytes32"
        },
        {
          "internalType": "bytes32[]",
          "name": "proof",
          "type": "bytes32[]"
        }
      ],
      "name": "validateMerkleTreeLeaf",
      "outputs": [
        {
          "internalType": "bool",
          "name": "",
          "type": "bool"
        }
      ],
      "stateMutability": "nonpayable",
      "type": "function"
    },
    {
      "inputs": [],
      "name": "voteGas",
      "outputs": [
        {
          "internalType": "uint256",
          "name": "",
          "type": "uint256"
        }
      ],
      "stateMutability": "view",
      "type": "function"
    },
    {
      "inputs": [
        {
          "internalType": "address",
          "name": "account",
          "type": "address"
        }
      ],
      "name": "votingPowerOf",
      "outputs": [
        {
          "internalType": "uint256",
          "name": "",
          "type": "uint256"
        }
      ],
      "stateMutability": "view",
      "type": "function"
    },
    {
      "inputs": [],
      "name": "votingPowerPercentageForProposalCreation",
      "outputs": [
        {
          "internalType": "uint256",
          "name": "",
          "type": "uint256"
        }
      ],
      "stateMutability": "view",
      "type": "function"
    },
    {
      "inputs": [],
      "name": "votingPowerPercentageForProposalExecution",
      "outputs": [
        {
          "internalType": "uint256",
          "name": "",
          "type": "uint256"
        }
      ],
      "stateMutability": "view",
      "type": "function"
    },
    {
      "inputs": [
        {
          "internalType": "uint256",
          "name": "tokenAmount",
          "type": "uint256"
        }
      ],
      "name": "withdrawTokens",
      "outputs": [],
      "stateMutability": "nonpayable",
      "type": "function"
    }
  ],
  "bytecode": "0x608060405234801561001057600080fd5b5061565d806100206000396000f3fe608060405260043610620003a95760003560e01c80635e508c2c11620001eb578063ad6c1e34116200010b578063c93e01e311620000a7578063f4732da61162000075578063f4732da61462000b23578063f98606a71462000b3a578063fc0c546a1462000b52578063fc4e703f1462000b7457005b8063c93e01e31462000a99578063e04503531462000ab0578063e158080a1462000ac8578063f09951981462000ae057005b8063b3b4706111620000e5578063b3b470611462000a21578063b7c15f8d1462000a46578063bcc3f3bd1462000a5d578063c0a4d64d1462000a8257005b8063ad6c1e3414620009cd578063ae61923414620009e4578063b3929aaa14620009fc57005b806386e271251162000187578063a16fe3421162000155578063a16fe3421462000958578063a78d80fc1462000978578063a7aeb5571462000990578063ab6ea06b14620009a857005b806386e2712514620008e057806389c98c0614620009055780638f180305146200091c57806392b71654146200093357005b80636c8b72f611620001c55780636c8b72f614620008595780636e27d889146200087057806377027ff414620008955780638029eff114620008ac57005b80635e508c2c14620007f657806364fe6ed2146200080e578063671abed7146200082557005b80632467ef9411620002d757806336f8f8d91162000273578063430694cf1162000241578063430694cf146200076857806354f2f7af146200079c5780635689141214620007bc5780635bc789d914620007d457005b806336f8f8d914620006fb5780633bf353fb14620007205780633de39c1114620007385780633f10cf15146200075057005b80632d757c3e11620002b15780632d757c3e146200061b5780632fd99c001462000658578063315a095d146200069d57806332ed5b1214620006c257005b80632467ef9414620005b557806325c069fc14620005cc5780632d5b17de14620005f657005b806313108d741162000347578063184a0ae91162000321578063184a0ae9146200053b5780631a5007dd146200055357806321df0da7146200056a5780632229a0e2146200059e57005b806313108d7414620004d957806316bbecde14620004fe57806317d7de7c146200052357005b80630a366a6311620003855780630a366a6314620004505780630d6680871462000477578063123f6d67146200048f578063130485fe14620004b457005b80623a40d014620003ab57806301a598a614620003db57806306fdde031462000429575b005b348015620003b857600080fd5b50620003c362000b8c565b604051620003d2919062003f47565b60405180910390f35b348015620003e857600080fd5b5062000413620003fa36600462003faa565b6012602052600090815260409020805460019091015482565b60408051928352602083019190915201620003d2565b3480156200043657600080fd5b506200044162000be6565b604051620003d2919062004018565b3480156200045d57600080fd5b506200046862000c7c565b604051908152602001620003d2565b3480156200048457600080fd5b5062000468600d5481565b3480156200049c57600080fd5b50620003a9620004ae3660046200402d565b62000ca9565b348015620004c157600080fd5b5062000413620004d336600462004096565b62000e42565b348015620004e657600080fd5b5062000468620004f83660046200432f565b62000e74565b3480156200050b57600080fd5b50620003a96200051d36600462004418565b6200145a565b3480156200053057600080fd5b5062000441620015a1565b3480156200054857600080fd5b506200046860035481565b3480156200056057600080fd5b50600a5462000468565b3480156200057757600080fd5b506000546001600160a01b03165b6040516001600160a01b039091168152602001620003d2565b348015620005ab57600080fd5b5060165462000468565b348015620005c257600080fd5b50600c5462000468565b348015620005d957600080fd5b50620005e3600a81565b60405160ff9091168152602001620003d2565b3480156200060357600080fd5b50620003a96200061536600462004445565b62001632565b3480156200062857600080fd5b50620004686200063a36600462003faa565b6001600160a01b031660009081526012602052604090206001015490565b3480156200066557600080fd5b506200068c62000677366004620044b5565b60136020526000908152604090205460ff1681565b6040519015158152602001620003d2565b348015620006aa57600080fd5b50620003a9620006bc366004620044b5565b620018f8565b348015620006cf57600080fd5b50620006e7620006e1366004620044b5565b62001b53565b604051620003d29695949392919062004508565b3480156200070857600080fd5b50620003a96200071a36600462004568565b62001cb7565b3480156200072d57600080fd5b5062000468600c5481565b3480156200074557600080fd5b506200046860085481565b3480156200075d57600080fd5b506200046860045481565b3480156200077557600080fd5b506200078d62000787366004620044b5565b62001f24565b604051620003d29190620046ef565b348015620007a957600080fd5b506011546001600160a01b031662000585565b348015620007c957600080fd5b5062000468600e5481565b348015620007e157600080fd5b5060115462000585906001600160a01b031681565b3480156200080357600080fd5b506200046860055481565b3480156200081b57600080fd5b5060105462000468565b3480156200083257600080fd5b506200084a62000844366004620047fc565b620022d7565b604051620003d291906200488d565b3480156200086657600080fd5b5060075462000468565b3480156200087d57600080fd5b50620003a96200088f366004620044b5565b62002748565b348015620008a257600080fd5b5060095462000468565b348015620008b957600080fd5b506200068c620008cb366004620044b5565b60009081526013602052604090205460ff1690565b348015620008ed57600080fd5b50620003a9620008ff366004620048c9565b620028d8565b3480156200091257600080fd5b5060085462000468565b3480156200092957600080fd5b50600b5462000468565b3480156200094057600080fd5b5062000468620009523660046200494a565b62002b97565b3480156200096557600080fd5b506001546001600160a01b031662000585565b3480156200098557600080fd5b5062000468600a5481565b3480156200099d57600080fd5b5062000468600f5481565b348015620009b557600080fd5b506200068c620009c736600462004986565b62002bee565b348015620009da57600080fd5b50600f5462000468565b348015620009f157600080fd5b506200046862002c05565b34801562000a0957600080fd5b506200046862000a1b366004620044b5565b62002c1f565b34801562000a2e57600080fd5b50620003a962000a40366004620044b5565b62002c41565b34801562000a5357600080fd5b5060045462000468565b34801562000a6a57600080fd5b506200046862000a7c36600462003faa565b6200358e565b34801562000a8f57600080fd5b50600d5462000468565b34801562000aa657600080fd5b5060035462000468565b34801562000abd57600080fd5b506200046860095481565b34801562000ad557600080fd5b506200046860105481565b34801562000aed57600080fd5b506200041362000aff36600462004096565b60146020908152600092835260408084209091529082529020805460019091015482565b34801562000b3057600080fd5b50600e5462000468565b34801562000b4757600080fd5b506200046860065481565b34801562000b5f57600080fd5b5060005462000585906001600160a01b031681565b34801562000b8157600080fd5b506200046860075481565b6060601680548060200260200160405190810160405280929190818152602001828054801562000bdc57602002820191906000526020600020905b81548152602001906001019080831162000bc7575b5050505050905090565b6002805462000bf590620049cf565b80601f016020809104026020016040519081016040528092919081815260200182805462000c2390620049cf565b801562000c745780601f1062000c485761010080835404028352916020019162000c74565b820191906000526020600020905b81548152906001019060200180831162000c5657829003601f168201915b505050505081565b600062000ca461271062000c9d60065462000c96600e5490565b90620035a9565b90620035be565b905090565b33301462000d2f5760405162461bcd60e51b815260206004820152604260248201527f45524332304775696c643a204f6e6c792063616c6c61626c652062792045524360448201527f32306775696c6420697473656c66206f72207768656e20696e697469616c697a606482015261195960f21b608482015260a4015b60405180910390fd5b60008a1162000d525760405162461bcd60e51b815260040162000d269062004a0c565b8983101562000d755760405162461bcd60e51b815260040162000d269062004a5b565b6000881162000d985760405162461bcd60e51b815260040162000d269062004ab8565b6201c90886111562000e135760405162461bcd60e51b815260206004820152603960248201527f45524332304775696c643a20766f7465206761732068617320746f206265206560448201527f7175616c206f72206c6f776572207468616e2031313730303000000000000000606482015260840162000d26565b600399909955600497909755600595909555600693909355600791909155600855600955600d55600f55601055565b60008281526014602090815260408083206001600160a01b0385168452909152902080546001909101545b9250929050565b6000601054600e54101562000ef25760405162461bcd60e51b815260206004820152603960248201527f45524332304775696c643a204e6f7420656e6f75676820746f6b656e73206c6f60448201527f636b656420746f2063726561746520612070726f706f73616c00000000000000606482015260840162000d26565b600f54600b54101562000f645760405162461bcd60e51b815260206004820152603360248201527f45524332304775696c643a204e6f7420656e6f756768206d656d6265727320746044820152721bc818dc99585d194818481c1c9bdc1bdcd85b606a1b606482015260840162000d26565b600954600c541062000fd85760405162461bcd60e51b815260206004820152603660248201527f45524332304775696c643a204d6178696d756d20616d6f756e74206f662061636044820152751d1a5d99481c1c9bdc1bdcd85b1cc81c995858da195960521b606482015260840162000d26565b62000fe262000c7c565b62000fed336200358e565b10156200105b5760405162461bcd60e51b815260206004820152603560248201527f45524332304775696c643a204e6f7420656e6f75676820766f74696e67506f77604482015274195c881d1bc818dc99585d19481c1c9bdc1bdcd85b605a1b606482015260840162000d26565b855187511480156200106e575084518751145b620010d95760405162461bcd60e51b815260206004820152603460248201527f45524332304775696c643a2057726f6e67206c656e677468206f6620746f2c2060448201527364617461206f722076616c75652061727261797360601b606482015260840162000d26565b6000875111620011465760405162461bcd60e51b815260206004820152603160248201527f45524332304775696c643a20746f2c20646174612076616c7565206172726179604482015270732063616e6e6f7420626520656d70747960781b606482015260840162000d26565b865184111580156200116357508451620011619085620035cc565b155b620011d75760405162461bcd60e51b815260206004820152603760248201527f45524332304775696c643a20496e76616c696420746f74616c4f7074696f6e7360448201527f206f72206f7074696f6e2063616c6c73206c656e677468000000000000000000606482015260840162000d26565b600a841115620012505760405162461bcd60e51b815260206004820152603a60248201527f45524332304775696c643a204d6178696d756d20616d6f756e74206f66206f7060448201527f74696f6e73207065722070726f706f73616c2072656163686564000000000000606482015260840162000d26565b600a546040516bffffffffffffffffffffffff193360601b1660208201524260348201526054810191909152600090607401604051602081830303815290604052805190602001209050620012b26001600a54620035da90919063ffffffff16565b600a55600081815260156020526040902080546001600160a01b031916331781554260018201819055600354620012ea9190620035da565b600282015588516200130690600383019060208c019062003cce565b5087516200131e90600483019060208b019062003d38565b5086516200133690600583019060208a019062003d98565b5084516200134e906006830190602088019062003dd6565b50835162001366906007830190602087019062003dd6565b5062001374866001620035da565b6001600160401b038111156200138e576200138e620040c5565b604051908082528060200260200182016040528015620013b8578160200160208202803683370190505b508051620013d191600984019160209091019062003d98565b5060088101805460ff19166001908117909155600c54620013f291620035da565b600c558160008051602062005608833981519152600160405190815260200160405180910390a250601680546001810182556000919091527fd833147d7dc355ba459fc788f669e58cfaf9dc25ddcd0702e87d69c7b512428901819055979650505050505050565b60008381526015602052604090206002015442106200148d5760405162461bcd60e51b815260040162000d269062004b15565b8062001499336200358e565b10158015620014c35750600083815260146020908152604080832033845290915290206001015481115b620014e25760405162461bcd60e51b815260040162000d269062004b60565b60008381526014602090815260408083203384529091529020541580156200152457506000838152601460209081526040808320338452909152902060010154155b806200156f57506000838152601460209081526040808320338452909152902054821480156200156f5750600083815260146020908152604080832033845290915290206001015481115b6200158e5760405162461bcd60e51b815260040162000d269062004ba6565b6200159c33848484620035e8565b505050565b606060028054620015b290620049cf565b80601f0160208091040260200160405190810160405280929190818152602001828054620015e090620049cf565b801562000bdc5780601f10620016055761010080835404028352916020019162000bdc565b820191906000526020600020905b8154815290600101906020018083116200161357509395945050505050565b6000858152601560205260409020600201544210620016655760405162461bcd60e51b815260040162000d269062004b15565b6000620016758387878762002b97565b60008181526013602052604090205490915060ff1615620016d55760405162461bcd60e51b8152602060048201526019602482015278115490cc8c11dd5a5b190e88105b1c9958591e481d9bdd1959603a1b604482015260640162000d26565b620017398262001732836040517f19457468657265756d205369676e6564204d6573736167653a0a3332000000006020820152603c8101829052600090605c01604051602081830303815290604052805190602001209050919050565b9062003849565b6001600160a01b0316836001600160a01b0316146200179b5760405162461bcd60e51b815260206004820152601860248201527f45524332304775696c643a2057726f6e67207369676e65720000000000000000604482015260640162000d26565b6000818152601360205260409020805460ff1916600117905583620017c0846200358e565b10158015620017f3575060008681526014602090815260408083206001600160a01b038716845290915290206001015484115b620018125760405162461bcd60e51b815260040162000d269062004b60565b60008681526014602090815260408083206001600160a01b038716845290915290205415801562001866575060008681526014602090815260408083206001600160a01b0387168452909152902060010154155b80620018c3575060008681526014602090815260408083206001600160a01b038716845290915290205485148015620018c3575060008681526014602090815260408083206001600160a01b038716845290915290206001015484115b620018e25760405162461bcd60e51b815260040162000d269062004ba6565b620018f083878787620035e8565b505050505050565b8062001904336200358e565b1015620019735760405162461bcd60e51b815260206004820152603660248201527f45524332304775696c643a20556e61626c6520746f207769746864726177206d6044820152751bdc99481d1bdad95b9cc81d1a185b881b1bd8dad95960521b606482015260840162000d26565b336000908152601260205260409020600101544211620019d65760405162461bcd60e51b815260206004820152601f60248201527f45524332304775696c643a20546f6b656e73207374696c6c206c6f636b656400604482015260640162000d26565b6000811162001a4e5760405162461bcd60e51b815260206004820152603f60248201527f45524332304775696c643a20616d6f756e74206f6620746f6b656e7320746f2060448201527f7769746864726177206d7573742062652067726561746572207468616e203000606482015260840162000d26565b3360009081526012602052604090205462001a6a908262003871565b33600090815260126020526040902055600e5462001a89908262003871565b600e5560115460405163f3fef3a360e01b8152336004820152602481018390526001600160a01b039091169063f3fef3a390604401600060405180830381600087803b15801562001ad957600080fd5b505af115801562001aee573d6000803e3d6000fd5b5050505062001afd336200358e565b62001b1657600b5462001b1290600162003871565b600b555b60408051338152602081018390527f6352c5382c4a4578e712449ca65e83cdb392d045dfcf1cad9615189db2da244b91015b60405180910390a150565b60156020526000908152604090208054600182015460028301546006840180546001600160a01b0390941694929391929162001b8f90620049cf565b80601f016020809104026020016040519081016040528092919081815260200182805462001bbd90620049cf565b801562001c0e5780601f1062001be25761010080835404028352916020019162001c0e565b820191906000526020600020905b81548152906001019060200180831162001bf057829003601f168201915b50505050509080600701805462001c2590620049cf565b80601f016020809104026020016040519081016040528092919081815260200182805462001c5390620049cf565b801562001ca45780601f1062001c785761010080835404028352916020019162001ca4565b820191906000526020600020905b81548152906001019060200180831162001c8657829003601f168201915b5050506008909301549192505060ff1686565b60175462010000900460ff168062001cd75750601754610100900460ff16155b62001d3c5760405162461bcd60e51b815260206004820152602e60248201527f496e697469616c697a61626c653a20636f6e747261637420697320616c72656160448201526d191e481a5b9a5d1a585b1a5e995960921b606482015260840162000d26565b60175462010000900460ff1615801562001d62576017805462ffff001916620101001790555b6001600160a01b038c1662001dc95760405162461bcd60e51b815260206004820152602660248201527f45524332304775696c643a20746f6b656e2063616e74206265207a65726f206160448201526564647265737360d01b606482015260840162000d26565b60008b1162001dec5760405162461bcd60e51b815260040162000d269062004a0c565b8a83101562001e0f5760405162461bcd60e51b815260040162000d269062004a5b565b6000891162001e325760405162461bcd60e51b815260040162000d269062004ab8565b865162001e479060029060208a019062003dd6565b50600080546001600160a01b0319166001600160a01b038e16908117909155604051309062001e769062003e52565b6001600160a01b03928316815291166020820152604001604051809103906000f08015801562001eaa573d6000803e3d6000fd5b50601180546001600160a01b03199081166001600160a01b039384161790915560038d905560048c905560058b905560068a9055600788905560088790556009869055600d85905560018054909116918416919091179055801562001f16576017805462ff0000191690555b505050505050505050505050565b62001f2e62003e60565b60008281526015602090815260409182902082516101408101845281546001600160a01b03168152600182015481840152600282015481850152600382018054855181860281018601909652808652919492936060860193929083018282801562001fc357602002820191906000526020600020905b81546001600160a01b0316815260019091019060200180831162001fa4575b5050505050815260200160048201805480602002602001604051908101604052809291908181526020016000905b82821015620020a75783829060005260206000200180546200201390620049cf565b80601f01602080910402602001604051908101604052809291908181526020018280546200204190620049cf565b8015620020925780601f10620020665761010080835404028352916020019162002092565b820191906000526020600020905b8154815290600101906020018083116200207457829003601f168201915b50505050508152602001906001019062001ff1565b505050508152602001600582018054806020026020016040519081016040528092919081815260200182805480156200210057602002820191906000526020600020905b815481526020019060010190808311620020eb575b505050505081526020016006820180546200211b90620049cf565b80601f01602080910402602001604051908101604052809291908181526020018280546200214990620049cf565b80156200219a5780601f106200216e576101008083540402835291602001916200219a565b820191906000526020600020905b8154815290600101906020018083116200217c57829003601f168201915b50505050508152602001600782018054620021b590620049cf565b80601f0160208091040260200160405190810160405280929190818152602001828054620021e390620049cf565b8015620022345780601f10620022085761010080835404028352916020019162002234565b820191906000526020600020905b8154815290600101906020018083116200221657829003601f168201915b5050509183525050600882015460209091019060ff1660048111156200225e576200225e620044cf565b6004811115620022725762002272620044cf565b815260200160098201805480602002602001604051908101604052809291908181526020018280548015620022c757602002820191906000526020600020905b815481526020019060010190808311620022b2575b5050505050815250509050919050565b606082518451148015620022ec575081518351145b620023605760405162461bcd60e51b815260206004820152603f60248201527f45524332304775696c643a20496e76616c69642070726f706f73616c4964732c60448201527f206f7074696f6e73206f7220766f74696e67506f77657273206c656e67746800606482015260840162000d26565b60008085516001600160401b038111156200237f576200237f620040c5565b604051908082528060200260200182016040528015620023a9578160200160208202803683370190505b509050600091505b85518210156200273f574260156000888581518110620023d557620023d562004c0d565b60200260200101518152602001908152602001600020600201541015620024235760008183815181106200240d576200240d62004c0d565b911515602092830291909101909101526200272a565b83828151811062002438576200243862004c0d565b60200260200101516200244b336200358e565b1080620024c85750601460008784815181106200246c576200246c62004c0d565b602002602001015181526020019081526020016000206000336001600160a01b03166001600160a01b0316815260200190815260200160002060010154848381518110620024be57620024be62004c0d565b6020026020010151105b15620024e55760008183815181106200240d576200240d62004c0d565b60146000878481518110620024fe57620024fe62004c0d565b6020908102919091018101518252818101929092526040908101600090812033825290925290205415806200258857506014600087848151811062002547576200254762004c0d565b602002602001015181526020019081526020016000206000336001600160a01b03166001600160a01b03168152602001908152602001600020600101546000145b8015620026825750848281518110620025a557620025a562004c0d565b602002602001015160146000888581518110620025c657620025c662004c0d565b602002602001015181526020019081526020016000206000336001600160a01b03166001600160a01b03168152602001908152602001600020600001541415801562002682575083828151811062002622576200262262004c0d565b60200260200101516014600088858151811062002643576200264362004c0d565b602002602001015181526020019081526020016000206000336001600160a01b03166001600160a01b0316815260200190815260200160002060010154115b156200269f5760008183815181106200240d576200240d62004c0d565b6001818381518110620026b657620026b662004c0d565b6020026020010190151590811515815250506200272a33878481518110620026e257620026e262004c0d565b6020026020010151878581518110620026ff57620026ff62004c0d565b60200260200101518786815181106200271c576200271c62004c0d565b6020026020010151620035e8565b81620027368162004c39565b925050620023b1565b95945050505050565b60008111620027b55760405162461bcd60e51b815260206004820152603260248201527f45524332304775696c643a20546f6b656e7320746f206c6f636b2073686f756c60448201527106420626520686967686572207468616e20360741b606482015260840162000d26565b620027c0336200358e565b620027d957600b54620027d5906001620035da565b600b555b6011546040516311f9fbc960e21b8152336004820152602481018390526001600160a01b03909116906347e7ef2490604401600060405180830381600087803b1580156200282657600080fd5b505af11580156200283b573d6000803e3d6000fd5b5050336000908152601260205260409020546200285c9250905082620035da565b33600090815260126020526040902055600d546200287c904290620035da565b33600090815260126020526040902060010155600e546200289e9082620035da565b600e5560408051338152602081018390527fac87f20a77d28ee8bbb58ec87ea8fa968b3393efae1a368fd50b767c2847391c910162001b48565b6000620028e88785858562002b97565b90508581146200293b5760405162461bcd60e51b815260206004820152601d60248201527f45524332304775696c643a20496e76616c696420766f74652068617368000000604482015260640162000d26565b60008181526013602052604090205460ff1615620029985760405162461bcd60e51b8152602060048201526019602482015278115490cc8c11dd5a5b190e88105b1c9958591e481d9bdd1959603a1b604482015260640162000d26565b6000620029a789888862002bee565b90508062002a045760405162461bcd60e51b8152602060048201526024808201527f45524332304775696c643a20496e76616c6964206d65726b6c652074726565206044820152633632b0b360e11b606482015260840162000d26565b600085815260156020526040902060020154421062002a375760405162461bcd60e51b815260040162000d269062004b15565b8262002a43896200358e565b1015801562002a76575060008581526014602090815260408083206001600160a01b038c16845290915290206001015483115b62002a955760405162461bcd60e51b815260040162000d269062004b60565b60008581526014602090815260408083206001600160a01b038c16845290915290205415801562002ae9575060008581526014602090815260408083206001600160a01b038c168452909152902060010154155b8062002b46575060008581526014602090815260408083206001600160a01b038c1684529091529020548414801562002b46575060008581526014602090815260408083206001600160a01b038c16845290915290206001015483115b62002b655760405162461bcd60e51b815260040162000d269062004ba6565b6000828152601360205260409020805460ff1916600117905562002b8c88868686620035e8565b505050505050505050565b6040516bffffffffffffffffffffffff19606086901b166020820152603481018490526054810183905260748101829052600090609401604051602081830303815290604052805190602001209050949350505050565b600062002bfd8285856200387f565b949350505050565b600062000ca461271062000c9d60055462000c96600e5490565b6016818154811062002c3057600080fd5b600091825260209091200154905081565b60175460ff161562002ca25760405162461bcd60e51b8152602060048201526024808201527f45524332304775696c643a2050726f706f73616c20756e6465722065786563756044820152633a34b7b760e11b606482015260840162000d26565b600160008281526015602052604090206008015460ff16600481111562002ccd5762002ccd620044cf565b1462002d2a5760405162461bcd60e51b815260206004820152602560248201527f45524332304775696c643a2050726f706f73616c20616c72656164792065786560448201526418dd5d195960da1b606482015260840162000d26565b600081815260156020526040902060020154421162002d9a5760405162461bcd60e51b815260206004820152602560248201527f45524332304775696c643a2050726f706f73616c206861736e277420656e646560448201526419081e595d60da1b606482015260840162000d26565b60008181526015602052604081206009018054829190829062002dc15762002dc162004c0d565b600091825260209091200154905060015b60008481526015602052604090206009015481101562002f015762002df662002c05565b600085815260156020526040902060090180548390811062002e1c5762002e1c62004c0d565b90600052602060002001541015801562002e685750600084815260156020526040902060090180548391908390811062002e5a5762002e5a62004c0d565b906000526020600020015410155b1562002eec57600084815260156020526040902060090180548391908390811062002e975762002e9762004c0d565b9060005260206000200154141562002eb3576000925062002eec565b6000848152601560205260409020600901805491935083918290811062002ede5762002ede62004c0d565b906000526020600020015491505b8062002ef88162004c39565b91505062002dd2565b8262002f51576000848152601560205260409020600801805460ff19166002908117909155849060008051602062005608833981519152905b60405190815260200160405180910390a262003575565b600454600085815260156020526040902060020154429162002f749190620035da565b101562002fb3576000848152601560205260409020600801805460ff191660049081179091558490600080516020620056088339815191529062002f3a565b600084815260156020526040812060088101805460ff191660031790556009015462002fff9062002fe690600162003871565b60008781526015602052604090206003015490620035be565b90506200301a6200301285600162003871565b8290620035a9565b915060006200302a8383620035da565b9050600160009054906101000a90046001600160a01b03166001600160a01b0316633e7a47b26040518163ffffffff1660e01b8152600401600060405180830381600087803b1580156200307d57600080fd5b505af115801562003092573d6000803e3d6000fd5b505050505b80831015620034cc576000868152601560205260408120600301805485908110620030c657620030c662004c0d565b6000918252602090912001546001600160a01b03161480159062003126575060008681526015602052604081206004018054859081106200310b576200310b62004c0d565b9060005260206000200180546200312290620049cf565b9050115b15620034b757600086815260156020526040812060040180548590811062003152576200315262004c0d565b9060005260206000200180546200316990620049cf565b80601f01602080910402602001604051908101604052809291908181526020018280546200319790620049cf565b8015620031e85780601f10620031bc57610100808354040283529160200191620031e8565b820191906000526020600020905b815481529060010190602001808311620031ca57829003601f168201915b50505060208084015160015460008d815260159093526040909220600301805495965090946001600160a01b03909216935063eed47033925030918990811062003236576200323662004c0d565b9060005260206000200160009054906101000a90046001600160a01b031684601560008e81526020019081526020016000206005018a815481106200327f576200327f62004c0d565b60009182526020909120015460405160e086901b6001600160e01b031990811682526001600160a01b039586166004830152939094166024850152911660448301526064820152608401600060405180830381600087803b158015620032e457600080fd5b505af1925050508015620032f6575060015b62003352576200330562004c57565b806308c379a014156200334657506200331d62004c74565b806200332a575062003348565b8060405162461bcd60e51b815260040162000d26919062004018565b505b3d6000803e3d6000fd5b6017805460ff19166001179055600088815260156020526040812060030180548790811062003385576200338562004c0d565b60009182526020808320909101548b83526015909152604090912060050180546001600160a01b039092169188908110620033c457620033c462004c0d565b9060005260206000200154601560008c81526020019081526020016000206004018881548110620033f957620033f962004c0d565b9060005260206000200160405162003412919062004d03565b60006040518083038185875af1925050503d806000811462003451576040519150601f19603f3d011682016040523d82523d6000602084013e62003456565b606091505b5050905080620034a95760405162461bcd60e51b815260206004820181905260248201527f45524332304775696c643a2050726f706f73616c2063616c6c206661696c6564604482015260640162000d26565b50506017805460ff19169055505b82620034c38162004c39565b93505062003097565b60015460405163fb0fde8560e01b81523060048201526001600160a01b039091169063fb0fde8590602401602060405180830381600087803b1580156200351257600080fd5b505af115801562003527573d6000803e3d6000fd5b505050506040513d601f19601f820116820180604052508101906200354d919062004da7565b508560008051602062005608833981519152600360405190815260200160405180910390a250505b600c546200358590600162003871565b600c5550505050565b6001600160a01b031660009081526012602052604090205490565b6000620035b7828462004dcb565b9392505050565b6000620035b7828462004e03565b6000620035b7828462004e1a565b6000620035b7828462004e31565b60008381526014602090815260408083206001600160a01b0388168452825280832060010154868452601590925290912060090180546200365e9284926200365792879081106200363d576200363d62004c0d565b90600052602060002001546200387190919063ffffffff16565b90620035da565b600084815260156020526040902060090180548490811062003684576200368462004c0d565b60009182526020808320909101929092558481526014825260408082206001600160a01b0388168352835280822085815560010184905585825260159092522060020154620036eb856001600160a01b031660009081526012602052604090206001015490565b101562003720576000838152601560209081526040808320600201546001600160a01b03881684526012909252909120600101555b604080516001600160a01b038616815260208101839052839185917f583c62f152711bcb1ca6186c1065821ff17a7cbe226dcb559a1c889dcf0d769b910160405180910390a36007541562003843576000620037966200378c6008543a6200389790919063ffffffff16565b60075490620035a9565b9050804710158015620037a85750333b155b156200384157604051600090339083908381818185875af1925050503d8060008114620037f2576040519150601f19603f3d011682016040523d82523d6000602084013e620037f7565b606091505b5050905080620018f05760405162461bcd60e51b81526020600482015260146024820152734661696c656420746f20726566756e642067617360601b604482015260640162000d26565b505b50505050565b60008060006200385a8585620038af565b91509150620038698162003925565b509392505050565b6000620035b7828462004e4c565b6000826200388e858462003afb565b14949350505050565b6000818310620038a85781620035b7565b5090919050565b600080825160411415620038ea5760208301516040840151606085015160001a620038dd8782858562003ba8565b9450945050505062000e6d565b8251604014156200391857602083015160408401516200390c86838362003c9d565b93509350505062000e6d565b5060009050600262000e6d565b60008160048111156200393c576200393c620044cf565b1415620039465750565b60018160048111156200395d576200395d620044cf565b1415620039ad5760405162461bcd60e51b815260206004820152601860248201527f45434453413a20696e76616c6964207369676e61747572650000000000000000604482015260640162000d26565b6002816004811115620039c457620039c4620044cf565b141562003a145760405162461bcd60e51b815260206004820152601f60248201527f45434453413a20696e76616c6964207369676e6174757265206c656e67746800604482015260640162000d26565b600381600481111562003a2b5762003a2b620044cf565b141562003a865760405162461bcd60e51b815260206004820152602260248201527f45434453413a20696e76616c6964207369676e6174757265202773272076616c604482015261756560f01b606482015260840162000d26565b600481600481111562003a9d5762003a9d620044cf565b141562003af85760405162461bcd60e51b815260206004820152602260248201527f45434453413a20696e76616c6964207369676e6174757265202776272076616c604482015261756560f01b606482015260840162000d26565b50565b600081815b84518110156200386957600085828151811062003b215762003b2162004c0d565b6020026020010151905080831162003b6557604080516020810185905290810182905260600160405160208183030381529060405280519060200120925062003b92565b60408051602081018390529081018490526060016040516020818303038152906040528051906020012092505b508062003b9f8162004c39565b91505062003b00565b6000807f7fffffffffffffffffffffffffffffff5d576e7357a4501ddfe92f46681b20a083111562003be1575060009050600362003c94565b8460ff16601b1415801562003bfa57508460ff16601c14155b1562003c0d575060009050600462003c94565b6040805160008082526020820180845289905260ff881692820192909252606081018690526080810185905260019060a0016020604051602081039080840390855afa15801562003c62573d6000803e3d6000fd5b5050604051601f1901519150506001600160a01b03811662003c8d5760006001925092505062003c94565b9150600090505b94509492505050565b6000806001600160ff1b03831660ff84901c601b0162003cc08782888562003ba8565b935093505050935093915050565b82805482825590600052602060002090810192821562003d26579160200282015b8281111562003d2657825182546001600160a01b0319166001600160a01b0390911617825560209092019160019091019062003cef565b5062003d3492915062003ed0565b5090565b82805482825590600052602060002090810192821562003d8a579160200282015b8281111562003d8a578251805162003d7991849160209091019062003dd6565b509160200191906001019062003d59565b5062003d3492915062003ee7565b82805482825590600052602060002090810192821562003d26579160200282015b8281111562003d2657825182559160200191906001019062003db9565b82805462003de490620049cf565b90600052602060002090601f01602090048101928262003e08576000855562003d26565b82601f1062003e2357805160ff191683800117855562003d26565b8280016001018555821562003d26579182018281111562003d2657825182559160200191906001019062003db9565b6107a18062004e6783390190565b60405180610140016040528060006001600160a01b03168152602001600081526020016000815260200160608152602001606081526020016060815260200160608152602001606081526020016000600481111562003ec35762003ec3620044cf565b8152602001606081525090565b5b8082111562003d34576000815560010162003ed1565b8082111562003d3457600062003efe828262003f08565b5060010162003ee7565b50805462003f1690620049cf565b6000825580601f1062003f27575050565b601f01602090049060005260206000209081019062003af8919062003ed0565b6020808252825182820181905260009190848201906040850190845b8181101562003f815783518352928401929184019160010162003f63565b50909695505050505050565b80356001600160a01b038116811462003fa557600080fd5b919050565b60006020828403121562003fbd57600080fd5b620035b78262003f8d565b6000815180845260005b8181101562003ff05760208185018101518683018201520162003fd2565b8181111562004003576000602083870101525b50601f01601f19169290920160200192915050565b602081526000620035b7602083018462003fc8565b6000806000806000806000806000806101408b8d0312156200404e57600080fd5b505088359a60208a01359a5060408a013599606081013599506080810135985060a0810135975060c0810135965060e081013595506101008101359450610120013592509050565b60008060408385031215620040aa57600080fd5b82359150620040bc6020840162003f8d565b90509250929050565b634e487b7160e01b600052604160045260246000fd5b601f8201601f191681016001600160401b0381118282101715620041035762004103620040c5565b6040525050565b60006001600160401b03821115620041265762004126620040c5565b5060051b60200190565b600082601f8301126200414257600080fd5b8135602062004151826200410a565b604051620041608282620040db565b83815260059390931b85018201928281019150868411156200418157600080fd5b8286015b84811015620041a757620041998162003f8d565b835291830191830162004185565b509695505050505050565b600082601f830112620041c457600080fd5b81356001600160401b03811115620041e057620041e0620040c5565b604051620041f9601f8301601f191660200182620040db565b8181528460208386010111156200420f57600080fd5b816020850160208301376000918101602001919091529392505050565b600082601f8301126200423e57600080fd5b813560206200424d826200410a565b6040516200425c8282620040db565b83815260059390931b85018201928281019150868411156200427d57600080fd5b8286015b84811015620041a75780356001600160401b03811115620042a25760008081fd5b620042b28986838b0101620041b2565b84525091830191830162004281565b600082601f830112620042d357600080fd5b81356020620042e2826200410a565b604051620042f18282620040db565b83815260059390931b85018201928281019150868411156200431257600080fd5b8286015b84811015620041a7578035835291830191830162004316565b60008060008060008060c087890312156200434957600080fd5b86356001600160401b03808211156200436157600080fd5b6200436f8a838b0162004130565b975060208901359150808211156200438657600080fd5b620043948a838b016200422c565b96506040890135915080821115620043ab57600080fd5b620043b98a838b01620042c1565b9550606089013594506080890135915080821115620043d757600080fd5b620043e58a838b01620041b2565b935060a0890135915080821115620043fc57600080fd5b506200440b89828a01620041b2565b9150509295509295509295565b6000806000606084860312156200442e57600080fd5b505081359360208301359350604090920135919050565b600080600080600060a086880312156200445e57600080fd5b8535945060208601359350604086013592506200447e6060870162003f8d565b915060808601356001600160401b038111156200449a57600080fd5b620044a888828901620041b2565b9150509295509295909350565b600060208284031215620044c857600080fd5b5035919050565b634e487b7160e01b600052602160045260246000fd5b600581106200450457634e487b7160e01b600052602160045260246000fd5b9052565b60018060a01b038716815285602082015284604082015260c0606082015260006200453760c083018662003fc8565b82810360808401526200454b818662003fc8565b9150506200455d60a0830184620044e5565b979650505050505050565b60008060008060008060008060008060006101608c8e0312156200458b57600080fd5b620045968c62003f8d565b9a5060208c0135995060408c0135985060608c0135975060808c0135965060a08c01356001600160401b03811115620045ce57600080fd5b620045dc8e828f01620041b2565b96505060c08c0135945060e08c013593506101008c013592506101208c013591506200460c6101408d0162003f8d565b90509295989b509295989b9093969950565b600081518084526020808501945080840160005b83811015620046595781516001600160a01b03168752958201959082019060010162004632565b509495945050505050565b600081518084526020808501808196508360051b8101915082860160005b85811015620046b05782840389526200469d84835162003fc8565b9885019893509084019060010162004682565b5091979650505050505050565b600081518084526020808501945080840160005b838110156200465957815187529582019590820190600101620046d1565b602081526200470a6020820183516001600160a01b03169052565b6020820151604082015260408201516060820152600060608301516101408060808501526200473e6101608501836200461e565b91506080850151601f19808685030160a08701526200475e848362004664565b935060a08701519150808685030160c08701526200477d8483620046bd565b935060c08701519150808685030160e08701526200479c848362003fc8565b935060e08701519150610100818786030181880152620047bd858462003fc8565b945080880151925050610120620047d781880184620044e5565b870151868503909101838701529050620047f28382620046bd565b9695505050505050565b6000806000606084860312156200481257600080fd5b83356001600160401b03808211156200482a57600080fd5b6200483887838801620042c1565b945060208601359150808211156200484f57600080fd5b6200485d87838801620042c1565b935060408601359150808211156200487457600080fd5b506200488386828701620042c1565b9150509250925092565b6020808252825182820181905260009190848201906040850190845b8181101562003f81578351151583529284019291840191600101620048a9565b600080600080600080600060e0888a031215620048e557600080fd5b87359650620048f76020890162003f8d565b95506040880135945060608801356001600160401b038111156200491a57600080fd5b620049288a828b01620042c1565b979a969950949760808101359660a0820135965060c090910135945092505050565b600080600080608085870312156200496157600080fd5b6200496c8562003f8d565b966020860135965060408601359560600135945092505050565b6000806000606084860312156200499c57600080fd5b833592506020840135915060408401356001600160401b03811115620049c157600080fd5b6200488386828701620042c1565b600181811c90821680620049e457607f821691505b6020821081141562004a0657634e487b7160e01b600052602260045260246000fd5b50919050565b6020808252602f908201527f45524332304775696c643a2070726f706f73616c2074696d652068617320746f60408201526e0206265206d6f7265207468616e203608c1b606082015260800190565b6020808252603e908201527f45524332304775696c643a206c6f636b54696d652068617320746f206265206860408201527f6967686572206f7220657175616c20746f2070726f706f73616c54696d650000606082015260800190565b6020808252603c908201527f45524332304775696c643a20766f74696e6720706f77657220666f722065786560408201527f637574696f6e2068617320746f206265206d6f7265207468616e203000000000606082015260800190565b6020808252602b908201527f45524332304775696c643a2050726f706f73616c20656e6465642c2063616e6e60408201526a1bdd081899481d9bdd195960aa1b606082015260800190565b60208082526026908201527f45524332304775696c643a20496e76616c696420766f74696e67506f77657220604082015265185b5bdd5b9d60d21b606082015260800190565b60208082526041908201527f45524332304775696c643a2043616e6e6f74206368616e6765206f7074696f6e60408201527f20766f7465642c206f6e6c7920696e63726561736520766f74696e67506f77656060820152603960f91b608082015260a00190565b634e487b7160e01b600052603260045260246000fd5b634e487b7160e01b600052601160045260246000fd5b600060001982141562004c505762004c5062004c23565b5060010190565b600060033d111562004c715760046000803e5060005160e01c5b90565b600060443d101562004c835790565b6040516003193d81016004833e81513d6001600160401b03816024840111818411171562004cb357505050505090565b828501915081518181111562004ccc5750505050505090565b843d870101602082850101111562004ce75750505050505090565b62004cf860208286010187620040db565b509095945050505050565b600080835481600182811c91508083168062004d2057607f831692505b602080841082141562004d4157634e487b7160e01b86526022600452602486fd5b81801562004d58576001811462004d6a5762004d99565b60ff1986168952848901965062004d99565b60008a81526020902060005b8681101562004d915781548b82015290850190830162004d76565b505084890196505b509498975050505050505050565b60006020828403121562004dba57600080fd5b81518015158114620035b757600080fd5b600081600019048311821515161562004de85762004de862004c23565b500290565b634e487b7160e01b600052601260045260246000fd5b60008262004e155762004e1562004ded565b500490565b60008262004e2c5762004e2c62004ded565b500690565b6000821982111562004e475762004e4762004c23565b500190565b60008282101562004e615762004e6162004c23565b50039056fe608060405234801561001057600080fd5b506040516107a13803806107a183398101604081905261002f9161007c565b600080546001600160a01b039384166001600160a01b031991821617909155600180549290931691161790556100af565b80516001600160a01b038116811461007757600080fd5b919050565b6000806040838503121561008f57600080fd5b61009883610060565b91506100a660208401610060565b90509250929050565b6106e3806100be6000396000f3fe608060405234801561001057600080fd5b506004361061007d5760003560e01c80636e9960c31161005b5780636e9960c3146100ef578063f3fef3a314610100578063f851a44014610113578063fc0c546a1461012657600080fd5b806321df0da71461008257806327e235e3146100ac57806347e7ef24146100da575b600080fd5b6000546001600160a01b03165b6040516001600160a01b0390911681526020015b60405180910390f35b6100cc6100ba366004610586565b60026020526000908152604090205481565b6040519081526020016100a3565b6100ed6100e83660046105a1565b610139565b005b6001546001600160a01b031661008f565b6100ed61010e3660046105a1565b61020a565b60015461008f906001600160a01b031681565b60005461008f906001600160a01b031681565b6001546001600160a01b031633146101af5760405162461bcd60e51b815260206004820152602e60248201527f546f6b656e5661756c743a204465706f736974206d7573742062652073656e7460448201526d103a343937bab3b41030b236b4b760911b60648201526084015b60405180910390fd5b6000546101c7906001600160a01b031683308461025b565b6001600160a01b0382166000908152600260205260409020546101ea90826102cc565b6001600160a01b0390921660009081526002602052604090209190915550565b6001546001600160a01b0316331461022157600080fd5b600054610238906001600160a01b031683836102df565b6001600160a01b0382166000908152600260205260409020546101ea9082610314565b6040516001600160a01b03808516602483015283166044820152606481018290526102c69085906323b872dd60e01b906084015b60408051601f198184030181529190526020810180516001600160e01b03166001600160e01b031990931692909217909152610320565b50505050565b60006102d882846105e1565b9392505050565b6040516001600160a01b03831660248201526044810182905261030f90849063a9059cbb60e01b9060640161028f565b505050565b60006102d882846105f9565b6000610375826040518060400160405280602081526020017f5361666545524332303a206c6f772d6c6576656c2063616c6c206661696c6564815250856001600160a01b03166103f29092919063ffffffff16565b80519091501561030f57808060200190518101906103939190610610565b61030f5760405162461bcd60e51b815260206004820152602a60248201527f5361666545524332303a204552433230206f7065726174696f6e20646964206e6044820152691bdd081cdd58d8d9595960b21b60648201526084016101a6565b60606104018484600085610409565b949350505050565b60608247101561046a5760405162461bcd60e51b815260206004820152602660248201527f416464726573733a20696e73756666696369656e742062616c616e636520666f6044820152651c8818d85b1b60d21b60648201526084016101a6565b843b6104b85760405162461bcd60e51b815260206004820152601d60248201527f416464726573733a2063616c6c20746f206e6f6e2d636f6e747261637400000060448201526064016101a6565b600080866001600160a01b031685876040516104d4919061065e565b60006040518083038185875af1925050503d8060008114610511576040519150601f19603f3d011682016040523d82523d6000602084013e610516565b606091505b5091509150610526828286610531565b979650505050505050565b606083156105405750816102d8565b8251156105505782518084602001fd5b8160405162461bcd60e51b81526004016101a6919061067a565b80356001600160a01b038116811461058157600080fd5b919050565b60006020828403121561059857600080fd5b6102d88261056a565b600080604083850312156105b457600080fd5b6105bd8361056a565b946020939093013593505050565b634e487b7160e01b600052601160045260246000fd5b600082198211156105f4576105f46105cb565b500190565b60008282101561060b5761060b6105cb565b500390565b60006020828403121561062257600080fd5b815180151581146102d857600080fd5b60005b8381101561064d578181015183820152602001610635565b838111156102c65750506000910152565b60008251610670818460208701610632565b9190910192915050565b6020815260008251806020840152610699816040850160208701610632565b601f01601f1916919091016040019291505056fea2646970667358221220f83df9be484204d29c000a118187aee7d3ca7efcb094476e4ad893327bb967b564736f6c63430008080033fee62a9eec0be50eb061c711990ef0f1e17b40ea131d9347b0468acdaf8bf243a2646970667358221220adaa3cff332114d7959a8c875caf0d3dc35881dc406825affe1d97557efffa4e64736f6c63430008080033",
  "linkReferences": {},
  "deployedLinkReferences": {}
}