{
  "_format": "hh-sol-artifact-1",
  "contractName": "ERC20GuildUpgradeable",
  "sourceName": "dxdao-contracts/contracts/erc20guild/ERC20GuildUpgradeable.sol",
  "abi": [
    {
      "anonymous": false,
      "inputs": [
        {
          "indexed": true,
          "internalType": "bytes32",
          "name": "proposalId",
          "type": "bytes32"
        },
        {
          "indexed": false,
          "internalType": "uint256",
          "name": "newState",
          "type": "uint256"
        }
      ],
      "name": "ProposalStateChanged",
      "type": "event"
    },
    {
      "anonymous": false,
      "inputs": [
        {
          "indexed": false,
          "internalType": "address",
          "name": "voter",
          "type": "address"
        },
        {
          "indexed": false,
          "internalType": "uint256",
          "name": "value",
          "type": "uint256"
        }
      ],
      "name": "TokensLocked",
      "type": "event"
    },
    {
      "anonymous": false,
      "inputs": [
        {
          "indexed": false,
          "internalType": "address",
          "name": "voter",
          "type": "address"
        },
        {
          "indexed": false,
          "internalType": "uint256",
          "name": "value",
          "type": "uint256"
        }
      ],
      "name": "TokensWithdrawn",
      "type": "event"
    },
    {
      "anonymous": false,
      "inputs": [
        {
          "indexed": true,
          "internalType": "bytes32",
          "name": "proposalId",
          "type": "bytes32"
        },
        {
          "indexed": true,
          "internalType": "uint256",
          "name": "option",
          "type": "uint256"
        },
        {
          "indexed": false,
          "internalType": "address",
          "name": "voter",
          "type": "address"
        },
        {
          "indexed": false,
          "internalType": "uint256",
          "name": "votingPower",
          "type": "uint256"
        }
      ],
      "name": "VoteAdded",
      "type": "event"
    },
    {
      "stateMutability": "payable",
      "type": "fallback"
    },
    {
      "inputs": [],
      "name": "MAX_OPTIONS_PER_PROPOSAL",
      "outputs": [
        {
          "internalType": "uint8",
          "name": "",
          "type": "uint8"
        }
      ],
      "stateMutability": "view",
      "type": "function"
    },
    {
      "inputs": [],
      "name": "activeProposalsNow",
      "outputs": [
        {
          "internalType": "uint256",
          "name": "",
          "type": "uint256"
        }
      ],
      "stateMutability": "view",
      "type": "function"
    },
    {
      "inputs": [
        {
          "internalType": "address[]",
          "name": "to",
          "type": "address[]"
        },
        {
          "internalType": "bytes[]",
          "name": "data",
          "type": "bytes[]"
        },
        {
          "internalType": "uint256[]",
          "name": "value",
          "type": "uint256[]"
        },
        {
          "internalType": "uint256",
          "name": "totalOptions",
          "type": "uint256"
        },
        {
          "internalType": "string",
          "name": "title",
          "type": "string"
        },
        {
          "internalType": "string",
          "name": "contentHash",
          "type": "string"
        }
      ],
      "name": "createProposal",
      "outputs": [
        {
          "internalType": "bytes32",
          "name": "",
          "type": "bytes32"
        }
      ],
      "stateMutability": "nonpayable",
      "type": "function"
    },
    {
      "inputs": [
        {
          "internalType": "bytes32",
          "name": "proposalId",
          "type": "bytes32"
        }
      ],
      "name": "endProposal",
      "outputs": [],
      "stateMutability": "nonpayable",
      "type": "function"
    },
    {
      "inputs": [
        {
          "internalType": "bytes32",
          "name": "root",
          "type": "bytes32"
        },
        {
          "internalType": "address",
          "name": "voter",
          "type": "address"
        },
        {
          "internalType": "bytes32",
          "name": "voteHash",
          "type": "bytes32"
        },
        {
          "internalType": "bytes32[]",
          "name": "proof",
          "type": "bytes32[]"
        },
        {
          "internalType": "bytes32",
          "name": "proposalId",
          "type": "bytes32"
        },
        {
          "internalType": "uint256",
          "name": "option",
          "type": "uint256"
        },
        {
          "internalType": "uint256",
          "name": "votingPower",
          "type": "uint256"
        },
        {
          "internalType": "bytes",
          "name": "signature",
          "type": "bytes"
        }
      ],
      "name": "executeSignedVote",
      "outputs": [],
      "stateMutability": "nonpayable",
      "type": "function"
    },
    {
      "inputs": [
        {
          "internalType": "bytes32[]",
          "name": "roots",
          "type": "bytes32[]"
        },
        {
          "internalType": "address[]",
          "name": "voters",
          "type": "address[]"
        },
        {
          "internalType": "bytes32[]",
          "name": "votesHashes",
          "type": "bytes32[]"
        },
        {
          "internalType": "bytes32[][]",
          "name": "proofs",
          "type": "bytes32[][]"
        },
        {
          "internalType": "bytes32[]",
          "name": "proposalIds",
          "type": "bytes32[]"
        },
        {
          "internalType": "uint256[]",
          "name": "options",
          "type": "uint256[]"
        },
        {
          "internalType": "uint256[]",
          "name": "votingPowers",
          "type": "uint256[]"
        },
        {
          "internalType": "bytes[]",
          "name": "signatures",
          "type": "bytes[]"
        }
      ],
      "name": "executeSignedVotesBatches",
      "outputs": [],
      "stateMutability": "nonpayable",
      "type": "function"
    },
    {
      "inputs": [
        {
          "internalType": "bytes32[]",
          "name": "proposalIds",
          "type": "bytes32[]"
        },
        {
          "internalType": "uint256[]",
          "name": "options",
          "type": "uint256[]"
        },
        {
          "internalType": "uint256[]",
          "name": "votingPowers",
          "type": "uint256[]"
        }
      ],
      "name": "executeVotes",
      "outputs": [
        {
          "internalType": "bool[]",
          "name": "",
          "type": "bool[]"
        }
      ],
      "stateMutability": "nonpayable",
      "type": "function"
    },
    {
      "inputs": [],
      "name": "getActiveProposalsNow",
      "outputs": [
        {
          "internalType": "uint256",
          "name": "",
          "type": "uint256"
        }
      ],
      "stateMutability": "view",
      "type": "function"
    },
    {
      "inputs": [],
      "name": "getLockTime",
      "outputs": [
        {
          "internalType": "uint256",
          "name": "",
          "type": "uint256"
        }
      ],
      "stateMutability": "view",
      "type": "function"
    },
    {
      "inputs": [],
      "name": "getMaxActiveProposals",
      "outputs": [
        {
          "internalType": "uint256",
          "name": "",
          "type": "uint256"
        }
      ],
      "stateMutability": "view",
      "type": "function"
    },
    {
      "inputs": [],
      "name": "getMaxGasPrice",
      "outputs": [
        {
          "internalType": "uint256",
          "name": "",
          "type": "uint256"
        }
      ],
      "stateMutability": "view",
      "type": "function"
    },
    {
      "inputs": [],
      "name": "getMinimumMembersForProposalCreation",
      "outputs": [
        {
          "internalType": "uint256",
          "name": "",
          "type": "uint256"
        }
      ],
      "stateMutability": "view",
      "type": "function"
    },
    {
      "inputs": [],
      "name": "getMinimumTokensLockedForProposalCreation",
      "outputs": [
        {
          "internalType": "uint256",
          "name": "",
          "type": "uint256"
        }
      ],
      "stateMutability": "view",
      "type": "function"
    },
    {
      "inputs": [],
      "name": "getName",
      "outputs": [
        {
          "internalType": "string",
          "name": "",
          "type": "string"
        }
      ],
      "stateMutability": "view",
      "type": "function"
    },
    {
      "inputs": [],
      "name": "getPermissionRegistry",
      "outputs": [
        {
          "internalType": "address",
          "name": "",
          "type": "address"
        }
      ],
      "stateMutability": "view",
      "type": "function"
    },
    {
      "inputs": [
        {
          "internalType": "bytes32",
          "name": "proposalId",
          "type": "bytes32"
        }
      ],
      "name": "getProposal",
      "outputs": [
        {
          "components": [
            {
              "internalType": "address",
              "name": "creator",
              "type": "address"
            },
            {
              "internalType": "uint256",
              "name": "startTime",
              "type": "uint256"
            },
            {
              "internalType": "uint256",
              "name": "endTime",
              "type": "uint256"
            },
            {
              "internalType": "address[]",
              "name": "to",
              "type": "address[]"
            },
            {
              "internalType": "bytes[]",
              "name": "data",
              "type": "bytes[]"
            },
            {
              "internalType": "uint256[]",
              "name": "value",
              "type": "uint256[]"
            },
            {
              "internalType": "string",
              "name": "title",
              "type": "string"
            },
            {
              "internalType": "string",
              "name": "contentHash",
              "type": "string"
            },
            {
              "internalType": "enum BaseERC20Guild.ProposalState",
              "name": "state",
              "type": "uint8"
            },
            {
              "internalType": "uint256[]",
              "name": "totalVotes",
              "type": "uint256[]"
            }
          ],
          "internalType": "struct BaseERC20Guild.Proposal",
          "name": "",
          "type": "tuple"
        }
      ],
      "stateMutability": "view",
      "type": "function"
    },
    {
      "inputs": [],
      "name": "getProposalTime",
      "outputs": [
        {
          "internalType": "uint256",
          "name": "",
          "type": "uint256"
        }
      ],
      "stateMutability": "view",
      "type": "function"
    },
    {
      "inputs": [
        {
          "internalType": "bytes32",
          "name": "proposalId",
          "type": "bytes32"
        },
        {
          "internalType": "address",
          "name": "voter",
          "type": "address"
        }
      ],
      "name": "getProposalVotesOfVoter",
      "outputs": [
        {
          "internalType": "uint256",
          "name": "option",
          "type": "uint256"
        },
        {
          "internalType": "uint256",
          "name": "votingPower",
          "type": "uint256"
        }
      ],
      "stateMutability": "view",
      "type": "function"
    },
    {
      "inputs": [],
      "name": "getProposalsIds",
      "outputs": [
        {
          "internalType": "bytes32[]",
          "name": "",
          "type": "bytes32[]"
        }
      ],
      "stateMutability": "view",
      "type": "function"
    },
    {
      "inputs": [],
      "name": "getProposalsIdsLength",
      "outputs": [
        {
          "internalType": "uint256",
          "name": "",
          "type": "uint256"
        }
      ],
      "stateMutability": "view",
      "type": "function"
    },
    {
      "inputs": [
        {
          "internalType": "bytes32",
          "name": "signedVoteHash",
          "type": "bytes32"
        }
      ],
      "name": "getSignedVote",
      "outputs": [
        {
          "internalType": "bool",
          "name": "",
          "type": "bool"
        }
      ],
      "stateMutability": "view",
      "type": "function"
    },
    {
      "inputs": [],
      "name": "getTimeForExecution",
      "outputs": [
        {
          "internalType": "uint256",
          "name": "",
          "type": "uint256"
        }
      ],
      "stateMutability": "view",
      "type": "function"
    },
    {
      "inputs": [],
      "name": "getToken",
      "outputs": [
        {
          "internalType": "address",
          "name": "",
          "type": "address"
        }
      ],
      "stateMutability": "view",
      "type": "function"
    },
    {
      "inputs": [],
      "name": "getTokenVault",
      "outputs": [
        {
          "internalType": "address",
          "name": "",
          "type": "address"
        }
      ],
      "stateMutability": "view",
      "type": "function"
    },
    {
      "inputs": [],
      "name": "getTotalLocked",
      "outputs": [
        {
          "internalType": "uint256",
          "name": "",
          "type": "uint256"
        }
      ],
      "stateMutability": "view",
      "type": "function"
    },
    {
      "inputs": [],
      "name": "getTotalMembers",
      "outputs": [
        {
          "internalType": "uint256",
          "name": "",
          "type": "uint256"
        }
      ],
      "stateMutability": "view",
      "type": "function"
    },
    {
      "inputs": [],
      "name": "getTotalProposals",
      "outputs": [
        {
          "internalType": "uint256",
          "name": "",
          "type": "uint256"
        }
      ],
      "stateMutability": "view",
      "type": "function"
    },
    {
      "inputs": [],
      "name": "getVoteGas",
      "outputs": [
        {
          "internalType": "uint256",
          "name": "",
          "type": "uint256"
        }
      ],
      "stateMutability": "view",
      "type": "function"
    },
    {
      "inputs": [
        {
          "internalType": "address",
          "name": "voter",
          "type": "address"
        }
      ],
      "name": "getVoterLockTimestamp",
      "outputs": [
        {
          "internalType": "uint256",
          "name": "",
          "type": "uint256"
        }
      ],
      "stateMutability": "view",
      "type": "function"
    },
    {
      "inputs": [],
      "name": "getVotingPowerForProposalCreation",
      "outputs": [
        {
          "internalType": "uint256",
          "name": "",
          "type": "uint256"
        }
      ],
      "stateMutability": "view",
      "type": "function"
    },
    {
      "inputs": [],
      "name": "getVotingPowerForProposalExecution",
      "outputs": [
        {
          "internalType": "uint256",
          "name": "",
          "type": "uint256"
        }
      ],
      "stateMutability": "view",
      "type": "function"
    },
    {
      "inputs": [
        {
          "internalType": "address",
          "name": "voter",
          "type": "address"
        },
        {
          "internalType": "bytes32",
          "name": "proposalId",
          "type": "bytes32"
        },
        {
          "internalType": "uint256",
          "name": "option",
          "type": "uint256"
        },
        {
          "internalType": "uint256",
          "name": "votingPower",
          "type": "uint256"
        }
      ],
      "name": "hashVote",
      "outputs": [
        {
          "internalType": "bytes32",
          "name": "",
          "type": "bytes32"
        }
      ],
      "stateMutability": "pure",
      "type": "function"
    },
    {
      "inputs": [
        {
          "internalType": "address",
          "name": "_token",
          "type": "address"
        },
        {
          "internalType": "uint256",
          "name": "_proposalTime",
          "type": "uint256"
        },
        {
          "internalType": "uint256",
          "name": "_timeForExecution",
          "type": "uint256"
        },
        {
          "internalType": "uint256",
          "name": "_votingPowerPercentageForProposalExecution",
          "type": "uint256"
        },
        {
          "internalType": "uint256",
          "name": "_votingPowerPercentageForProposalCreation",
          "type": "uint256"
        },
        {
          "internalType": "string",
          "name": "_name",
          "type": "string"
        },
        {
          "internalType": "uint256",
          "name": "_voteGas",
          "type": "uint256"
        },
        {
          "internalType": "uint256",
          "name": "_maxGasPrice",
          "type": "uint256"
        },
        {
          "internalType": "uint256",
          "name": "_maxActiveProposals",
          "type": "uint256"
        },
        {
          "internalType": "uint256",
          "name": "_lockTime",
          "type": "uint256"
        },
        {
          "internalType": "address",
          "name": "_permissionRegistry",
          "type": "address"
        }
      ],
      "name": "initialize",
      "outputs": [],
      "stateMutability": "nonpayable",
      "type": "function"
    },
    {
      "inputs": [],
      "name": "lockTime",
      "outputs": [
        {
          "internalType": "uint256",
          "name": "",
          "type": "uint256"
        }
      ],
      "stateMutability": "view",
      "type": "function"
    },
    {
      "inputs": [
        {
          "internalType": "uint256",
          "name": "tokenAmount",
          "type": "uint256"
        }
      ],
      "name": "lockTokens",
      "outputs": [],
      "stateMutability": "nonpayable",
      "type": "function"
    },
    {
      "inputs": [],
      "name": "maxActiveProposals",
      "outputs": [
        {
          "internalType": "uint256",
          "name": "",
          "type": "uint256"
        }
      ],
      "stateMutability": "view",
      "type": "function"
    },
    {
      "inputs": [],
      "name": "maxGasPrice",
      "outputs": [
        {
          "internalType": "uint256",
          "name": "",
          "type": "uint256"
        }
      ],
      "stateMutability": "view",
      "type": "function"
    },
    {
      "inputs": [],
      "name": "minimumMembersForProposalCreation",
      "outputs": [
        {
          "internalType": "uint256",
          "name": "",
          "type": "uint256"
        }
      ],
      "stateMutability": "view",
      "type": "function"
    },
    {
      "inputs": [],
      "name": "minimumTokensLockedForProposalCreation",
      "outputs": [
        {
          "internalType": "uint256",
          "name": "",
          "type": "uint256"
        }
      ],
      "stateMutability": "view",
      "type": "function"
    },
    {
      "inputs": [],
      "name": "name",
      "outputs": [
        {
          "internalType": "string",
          "name": "",
          "type": "string"
        }
      ],
      "stateMutability": "view",
      "type": "function"
    },
    {
      "inputs": [],
      "name": "proposalTime",
      "outputs": [
        {
          "internalType": "uint256",
          "name": "",
          "type": "uint256"
        }
      ],
      "stateMutability": "view",
      "type": "function"
    },
    {
      "inputs": [
        {
          "internalType": "bytes32",
          "name": "",
          "type": "bytes32"
        },
        {
          "internalType": "address",
          "name": "",
          "type": "address"
        }
      ],
      "name": "proposalVotes",
      "outputs": [
        {
          "internalType": "uint256",
          "name": "option",
          "type": "uint256"
        },
        {
          "internalType": "uint256",
          "name": "votingPower",
          "type": "uint256"
        }
      ],
      "stateMutability": "view",
      "type": "function"
    },
    {
      "inputs": [
        {
          "internalType": "bytes32",
          "name": "",
          "type": "bytes32"
        }
      ],
      "name": "proposals",
      "outputs": [
        {
          "internalType": "address",
          "name": "creator",
          "type": "address"
        },
        {
          "internalType": "uint256",
          "name": "startTime",
          "type": "uint256"
        },
        {
          "internalType": "uint256",
          "name": "endTime",
          "type": "uint256"
        },
        {
          "internalType": "string",
          "name": "title",
          "type": "string"
        },
        {
          "internalType": "string",
          "name": "contentHash",
          "type": "string"
        },
        {
          "internalType": "enum BaseERC20Guild.ProposalState",
          "name": "state",
          "type": "uint8"
        }
      ],
      "stateMutability": "view",
      "type": "function"
    },
    {
      "inputs": [
        {
          "internalType": "uint256",
          "name": "",
          "type": "uint256"
        }
      ],
      "name": "proposalsIds",
      "outputs": [
        {
          "internalType": "bytes32",
          "name": "",
          "type": "bytes32"
        }
      ],
      "stateMutability": "view",
      "type": "function"
    },
    {
      "inputs": [
        {
          "internalType": "uint256",
          "name": "_proposalTime",
          "type": "uint256"
        },
        {
          "internalType": "uint256",
          "name": "_timeForExecution",
          "type": "uint256"
        },
        {
          "internalType": "uint256",
          "name": "_votingPowerPercentageForProposalExecution",
          "type": "uint256"
        },
        {
          "internalType": "uint256",
          "name": "_votingPowerPercentageForProposalCreation",
          "type": "uint256"
        },
        {
          "internalType": "uint256",
          "name": "_voteGas",
          "type": "uint256"
        },
        {
          "internalType": "uint256",
          "name": "_maxGasPrice",
          "type": "uint256"
        },
        {
          "internalType": "uint256",
          "name": "_maxActiveProposals",
          "type": "uint256"
        },
        {
          "internalType": "uint256",
          "name": "_lockTime",
          "type": "uint256"
        },
        {
          "internalType": "uint256",
          "name": "_minimumMembersForProposalCreation",
          "type": "uint256"
        },
        {
          "internalType": "uint256",
          "name": "_minimumTokensLockedForProposalCreation",
          "type": "uint256"
        }
      ],
      "name": "setConfig",
      "outputs": [],
      "stateMutability": "nonpayable",
      "type": "function"
    },
    {
      "inputs": [
        {
          "internalType": "bytes32",
          "name": "proposalId",
          "type": "bytes32"
        },
        {
          "internalType": "uint256",
          "name": "option",
          "type": "uint256"
        },
        {
          "internalType": "uint256",
          "name": "votingPower",
          "type": "uint256"
        },
        {
          "internalType": "address",
          "name": "voter",
          "type": "address"
        },
        {
          "internalType": "bytes",
          "name": "signature",
          "type": "bytes"
        }
      ],
      "name": "setSignedVote",
      "outputs": [],
      "stateMutability": "nonpayable",
      "type": "function"
    },
    {
      "inputs": [
        {
          "internalType": "bytes32",
          "name": "proposalId",
          "type": "bytes32"
        },
        {
          "internalType": "uint256",
          "name": "option",
          "type": "uint256"
        },
        {
          "internalType": "uint256",
          "name": "votingPower",
          "type": "uint256"
        }
      ],
      "name": "setVote",
      "outputs": [],
      "stateMutability": "nonpayable",
      "type": "function"
    },
    {
      "inputs": [
        {
          "internalType": "bytes32",
          "name": "",
          "type": "bytes32"
        }
      ],
      "name": "signedVotes",
      "outputs": [
        {
          "internalType": "bool",
          "name": "",
          "type": "bool"
        }
      ],
      "stateMutability": "view",
      "type": "function"
    },
    {
      "inputs": [],
      "name": "timeForExecution",
      "outputs": [
        {
          "internalType": "uint256",
          "name": "",
          "type": "uint256"
        }
      ],
      "stateMutability": "view",
      "type": "function"
    },
    {
      "inputs": [],
      "name": "token",
      "outputs": [
        {
          "internalType": "contract IERC20Upgradeable",
          "name": "",
          "type": "address"
        }
      ],
      "stateMutability": "view",
      "type": "function"
    },
    {
      "inputs": [],
      "name": "tokenVault",
      "outputs": [
        {
          "internalType": "contract TokenVault",
          "name": "",
          "type": "address"
        }
      ],
      "stateMutability": "view",
      "type": "function"
    },
    {
      "inputs": [
        {
          "internalType": "address",
          "name": "",
          "type": "address"
        }
      ],
      "name": "tokensLocked",
      "outputs": [
        {
          "internalType": "uint256",
          "name": "amount",
          "type": "uint256"
        },
        {
          "internalType": "uint256",
          "name": "timestamp",
          "type": "uint256"
        }
      ],
      "stateMutability": "view",
      "type": "function"
    },
    {
      "inputs": [],
      "name": "totalLocked",
      "outputs": [
        {
          "internalType": "uint256",
          "name": "",
          "type": "uint256"
        }
      ],
      "stateMutability": "view",
      "type": "function"
    },
    {
      "inputs": [],
      "name": "totalProposals",
      "outputs": [
        {
          "internalType": "uint256",
          "name": "",
          "type": "uint256"
        }
      ],
      "stateMutability": "view",
      "type": "function"
    },
    {
      "inputs": [
        {
          "internalType": "bytes32",
          "name": "root",
          "type": "bytes32"
        },
        {
          "internalType": "bytes32",
          "name": "voteHash",
          "type": "bytes32"
        },
        {
          "internalType": "bytes32[]",
          "name": "proof",
          "type": "bytes32[]"
        }
      ],
      "name": "validateMerkleTreeLeaf",
      "outputs": [
        {
          "internalType": "bool",
          "name": "",
          "type": "bool"
        }
      ],
      "stateMutability": "nonpayable",
      "type": "function"
    },
    {
      "inputs": [],
      "name": "voteGas",
      "outputs": [
        {
          "internalType": "uint256",
          "name": "",
          "type": "uint256"
        }
      ],
      "stateMutability": "view",
      "type": "function"
    },
    {
      "inputs": [
        {
          "internalType": "address",
          "name": "account",
          "type": "address"
        }
      ],
      "name": "votingPowerOf",
      "outputs": [
        {
          "internalType": "uint256",
          "name": "",
          "type": "uint256"
        }
      ],
      "stateMutability": "view",
      "type": "function"
    },
    {
      "inputs": [],
      "name": "votingPowerPercentageForProposalCreation",
      "outputs": [
        {
          "internalType": "uint256",
          "name": "",
          "type": "uint256"
        }
      ],
      "stateMutability": "view",
      "type": "function"
    },
    {
      "inputs": [],
      "name": "votingPowerPercentageForProposalExecution",
      "outputs": [
        {
          "internalType": "uint256",
          "name": "",
          "type": "uint256"
        }
      ],
      "stateMutability": "view",
      "type": "function"
    },
    {
      "inputs": [
        {
          "internalType": "uint256",
          "name": "tokenAmount",
          "type": "uint256"
        }
      ],
      "name": "withdrawTokens",
      "outputs": [],
      "stateMutability": "nonpayable",
      "type": "function"
    }
  ],
  "bytecode": "0x608060405234801561001057600080fd5b50615a54806100206000396000f3fe608060405260043610620003b55760003560e01c806364fe6ed211620001eb578063ae619234116200010b578063c93e01e311620000a7578063f4732da61162000075578063f4732da61462000b54578063f98606a71462000b6b578063fc0c546a1462000b83578063fc4e703f1462000ba557005b8063c93e01e31462000aca578063e04503531462000ae1578063e158080a1462000af9578063f09951981462000b1157005b8063b3b4706111620000e5578063b3b470611462000a52578063b7c15f8d1462000a77578063bcc3f3bd1462000a8e578063c0a4d64d1462000ab357005b8063ae61923414620009f0578063afd22c401462000a08578063b3929aaa1462000a2d57005b80638ddaae9e1162000187578063a78d80fc1162000155578063a78d80fc1462000984578063a7aeb557146200099c578063ab6ea06b14620009b4578063ad6c1e3414620009d957005b80638ddaae9e14620009035780638f180305146200092857806392b71654146200093f578063a16fe342146200096457005b80636e27d88911620001c55780636e27d889146200087c57806377027ff414620008a15780638029eff114620008b857806389c98c0614620008ec57005b806364fe6ed2146200081a578063671abed714620008315780636c8b72f6146200086557005b806325c069fc11620002d75780633bf353fb116200027357806354f2f7af116200024157806354f2f7af14620007a85780635689141214620007c85780635bc789d914620007e05780635e508c2c146200080257005b80633bf353fb146200072c5780633de39c1114620007445780633f10cf15146200075c578063430694cf146200077457005b80632fd99c0011620002b15780632fd99c001462000664578063315a095d14620006a957806332ed5b1214620006ce57806336f8f8d9146200070757005b806325c069fc14620005d85780632d5b17de14620006025780632d757c3e146200062757005b806313108d7411620003535780631a5007dd11620003215780631a5007dd146200055f57806321df0da714620005765780632229a0e214620005aa5780632467ef9414620005c157005b806313108d7414620004e557806316bbecde146200050a57806317d7de7c146200052f578063184a0ae9146200054757005b80630a366a6311620003915780630a366a63146200045c5780630d6680871462000483578063123f6d67146200049b578063130485fe14620004c057005b80623a40d014620003b757806301a598a614620003e757806306fdde031462000435575b005b348015620003c457600080fd5b50620003cf62000bbd565b604051620003de919062004135565b60405180910390f35b348015620003f457600080fd5b506200041f6200040636600462004198565b6012602052600090815260409020805460019091015482565b60408051928352602083019190915201620003de565b3480156200044257600080fd5b506200044d62000c17565b604051620003de919062004206565b3480156200046957600080fd5b506200047462000cad565b604051908152602001620003de565b3480156200049057600080fd5b5062000474600d5481565b348015620004a857600080fd5b50620003b5620004ba3660046200421b565b62000cda565b348015620004cd57600080fd5b506200041f620004df36600462004284565b62000e73565b348015620004f257600080fd5b5062000474620005043660046200451d565b62000ea5565b3480156200051757600080fd5b50620003b56200052936600462004606565b6200148b565b3480156200053c57600080fd5b506200044d620015d2565b3480156200055457600080fd5b506200047460035481565b3480156200056c57600080fd5b50600a5462000474565b3480156200058357600080fd5b506000546001600160a01b03165b6040516001600160a01b039091168152602001620003de565b348015620005b757600080fd5b5060165462000474565b348015620005ce57600080fd5b50600c5462000474565b348015620005e557600080fd5b50620005ef600a81565b60405160ff9091168152602001620003de565b3480156200060f57600080fd5b50620003b56200062136600462004633565b62001663565b3480156200063457600080fd5b50620004746200064636600462004198565b6001600160a01b031660009081526012602052604090206001015490565b3480156200067157600080fd5b506200069862000683366004620046a3565b60136020526000908152604090205460ff1681565b6040519015158152602001620003de565b348015620006b657600080fd5b50620003b5620006c8366004620046a3565b620018d7565b348015620006db57600080fd5b50620006f3620006ed366004620046a3565b62001b32565b604051620003de96959493929190620046f6565b3480156200071457600080fd5b50620003b56200072636600462004756565b62001c96565b3480156200073957600080fd5b5062000474600c5481565b3480156200075157600080fd5b506200047460085481565b3480156200076957600080fd5b506200047460045481565b3480156200078157600080fd5b506200079962000793366004620046a3565b62001f03565b604051620003de9190620048dd565b348015620007b557600080fd5b506011546001600160a01b031662000591565b348015620007d557600080fd5b5062000474600e5481565b348015620007ed57600080fd5b5060115462000591906001600160a01b031681565b3480156200080f57600080fd5b506200047460055481565b3480156200082757600080fd5b5060105462000474565b3480156200083e57600080fd5b506200085662000850366004620049ea565b620022b6565b604051620003de919062004a7b565b3480156200087257600080fd5b5060075462000474565b3480156200088957600080fd5b50620003b56200089b366004620046a3565b62002727565b348015620008ae57600080fd5b5060095462000474565b348015620008c557600080fd5b5062000698620008d7366004620046a3565b60009081526013602052604090205460ff1690565b348015620008f957600080fd5b5060085462000474565b3480156200091057600080fd5b50620003b56200092236600462004b4c565b620028b7565b3480156200093557600080fd5b50600b5462000474565b3480156200094c57600080fd5b50620004746200095e36600462004ca4565b620029d6565b3480156200097157600080fd5b506001546001600160a01b031662000591565b3480156200099157600080fd5b5062000474600a5481565b348015620009a957600080fd5b5062000474600f5481565b348015620009c157600080fd5b5062000698620009d336600462004ce0565b62002a2d565b348015620009e657600080fd5b50600f5462000474565b348015620009fd57600080fd5b506200047462002a44565b34801562000a1557600080fd5b50620003b562000a2736600462004d29565b62002a5e565b34801562000a3a57600080fd5b506200047462000a4c366004620046a3565b62002dba565b34801562000a5f57600080fd5b50620003b562000a71366004620046a3565b62002ddc565b34801562000a8457600080fd5b5060045462000474565b34801562000a9b57600080fd5b506200047462000aad36600462004198565b62003729565b34801562000ac057600080fd5b50600d5462000474565b34801562000ad757600080fd5b5060035462000474565b34801562000aee57600080fd5b506200047460095481565b34801562000b0657600080fd5b506200047460105481565b34801562000b1e57600080fd5b506200041f62000b3036600462004284565b60146020908152600092835260408084209091529082529020805460019091015482565b34801562000b6157600080fd5b50600e5462000474565b34801562000b7857600080fd5b506200047460065481565b34801562000b9057600080fd5b5060005462000591906001600160a01b031681565b34801562000bb257600080fd5b506200047460075481565b6060601680548060200260200160405190810160405280929190818152602001828054801562000c0d57602002820191906000526020600020905b81548152602001906001019080831162000bf8575b5050505050905090565b6002805462000c269062004dc6565b80601f016020809104026020016040519081016040528092919081815260200182805462000c549062004dc6565b801562000ca55780601f1062000c795761010080835404028352916020019162000ca5565b820191906000526020600020905b81548152906001019060200180831162000c8757829003601f168201915b505050505081565b600062000cd561271062000cce60065462000cc7600e5490565b9062003744565b9062003759565b905090565b33301462000d605760405162461bcd60e51b815260206004820152604260248201527f45524332304775696c643a204f6e6c792063616c6c61626c652062792045524360448201527f32306775696c6420697473656c66206f72207768656e20696e697469616c697a606482015261195960f21b608482015260a4015b60405180910390fd5b60008a1162000d835760405162461bcd60e51b815260040162000d579062004e03565b8983101562000da65760405162461bcd60e51b815260040162000d579062004e52565b6000881162000dc95760405162461bcd60e51b815260040162000d579062004eaf565b6201c90886111562000e445760405162461bcd60e51b815260206004820152603960248201527f45524332304775696c643a20766f7465206761732068617320746f206265206560448201527f7175616c206f72206c6f776572207468616e2031313730303000000000000000606482015260840162000d57565b600399909955600497909755600595909555600693909355600791909155600855600955600d55600f55601055565b60008281526014602090815260408083206001600160a01b0385168452909152902080546001909101545b9250929050565b6000601054600e54101562000f235760405162461bcd60e51b815260206004820152603960248201527f45524332304775696c643a204e6f7420656e6f75676820746f6b656e73206c6f60448201527f636b656420746f2063726561746520612070726f706f73616c00000000000000606482015260840162000d57565b600f54600b54101562000f955760405162461bcd60e51b815260206004820152603360248201527f45524332304775696c643a204e6f7420656e6f756768206d656d6265727320746044820152721bc818dc99585d194818481c1c9bdc1bdcd85b606a1b606482015260840162000d57565b600954600c5410620010095760405162461bcd60e51b815260206004820152603660248201527f45524332304775696c643a204d6178696d756d20616d6f756e74206f662061636044820152751d1a5d99481c1c9bdc1bdcd85b1cc81c995858da195960521b606482015260840162000d57565b6200101362000cad565b6200101e3362003729565b10156200108c5760405162461bcd60e51b815260206004820152603560248201527f45524332304775696c643a204e6f7420656e6f75676820766f74696e67506f77604482015274195c881d1bc818dc99585d19481c1c9bdc1bdcd85b605a1b606482015260840162000d57565b855187511480156200109f575084518751145b6200110a5760405162461bcd60e51b815260206004820152603460248201527f45524332304775696c643a2057726f6e67206c656e677468206f6620746f2c2060448201527364617461206f722076616c75652061727261797360601b606482015260840162000d57565b6000875111620011775760405162461bcd60e51b815260206004820152603160248201527f45524332304775696c643a20746f2c20646174612076616c7565206172726179604482015270732063616e6e6f7420626520656d70747960781b606482015260840162000d57565b86518411158015620011945750845162001192908562003767565b155b620012085760405162461bcd60e51b815260206004820152603760248201527f45524332304775696c643a20496e76616c696420746f74616c4f7074696f6e7360448201527f206f72206f7074696f6e2063616c6c73206c656e677468000000000000000000606482015260840162000d57565b600a841115620012815760405162461bcd60e51b815260206004820152603a60248201527f45524332304775696c643a204d6178696d756d20616d6f756e74206f66206f7060448201527f74696f6e73207065722070726f706f73616c2072656163686564000000000000606482015260840162000d57565b600a546040516bffffffffffffffffffffffff193360601b1660208201524260348201526054810191909152600090607401604051602081830303815290604052805190602001209050620012e36001600a546200377590919063ffffffff16565b600a55600081815260156020526040902080546001600160a01b0319163317815542600182018190556003546200131b919062003775565b600282015588516200133790600383019060208c019062003ebc565b5087516200134f90600483019060208b019062003f26565b5086516200136790600583019060208a019062003f86565b5084516200137f906006830190602088019062003fc4565b50835162001397906007830190602087019062003fc4565b50620013a586600162003775565b6001600160401b03811115620013bf57620013bf620042b3565b604051908082528060200260200182016040528015620013e9578160200160208202803683370190505b5080516200140291600984019160209091019062003f86565b5060088101805460ff19166001908117909155600c54620014239162003775565b600c5581600080516020620059ff833981519152600160405190815260200160405180910390a250601680546001810182556000919091527fd833147d7dc355ba459fc788f669e58cfaf9dc25ddcd0702e87d69c7b512428901819055979650505050505050565b6000838152601560205260409020600201544210620014be5760405162461bcd60e51b815260040162000d579062004f0c565b80620014ca3362003729565b10158015620014f45750600083815260146020908152604080832033845290915290206001015481115b620015135760405162461bcd60e51b815260040162000d579062004f57565b60008381526014602090815260408083203384529091529020541580156200155557506000838152601460209081526040808320338452909152902060010154155b80620015a05750600083815260146020908152604080832033845290915290205482148015620015a05750600083815260146020908152604080832033845290915290206001015481115b620015bf5760405162461bcd60e51b815260040162000d579062004f9d565b620015cd3384848462003783565b505050565b606060028054620015e39062004dc6565b80601f0160208091040260200160405190810160405280929190818152602001828054620016119062004dc6565b801562000c0d5780601f10620016365761010080835404028352916020019162000c0d565b820191906000526020600020905b8154815290600101906020018083116200164457509395945050505050565b6000858152601560205260409020600201544210620016965760405162461bcd60e51b815260040162000d579062004f0c565b6000620016a683878787620029d6565b60008181526013602052604090205490915060ff1615620017065760405162461bcd60e51b8152602060048201526019602482015278115490cc8c11dd5a5b190e88105b1c9958591e481d9bdd1959603a1b604482015260640162000d57565b6200171d826200171683620039e4565b9062003a37565b6001600160a01b0316836001600160a01b0316146200177a5760405162461bcd60e51b815260206004820152601860248201527722a921991823bab4b6321d102bb937b7339039b4b3b732b960411b604482015260640162000d57565b6000818152601360205260409020805460ff19166001179055836200179f8462003729565b10158015620017d2575060008681526014602090815260408083206001600160a01b038716845290915290206001015484115b620017f15760405162461bcd60e51b815260040162000d579062004f57565b60008681526014602090815260408083206001600160a01b038716845290915290205415801562001845575060008681526014602090815260408083206001600160a01b0387168452909152902060010154155b80620018a2575060008681526014602090815260408083206001600160a01b038716845290915290205485148015620018a2575060008681526014602090815260408083206001600160a01b038716845290915290206001015484115b620018c15760405162461bcd60e51b815260040162000d579062004f9d565b620018cf8387878762003783565b505050505050565b80620018e33362003729565b1015620019525760405162461bcd60e51b815260206004820152603660248201527f45524332304775696c643a20556e61626c6520746f207769746864726177206d6044820152751bdc99481d1bdad95b9cc81d1a185b881b1bd8dad95960521b606482015260840162000d57565b336000908152601260205260409020600101544211620019b55760405162461bcd60e51b815260206004820152601f60248201527f45524332304775696c643a20546f6b656e73207374696c6c206c6f636b656400604482015260640162000d57565b6000811162001a2d5760405162461bcd60e51b815260206004820152603f60248201527f45524332304775696c643a20616d6f756e74206f6620746f6b656e7320746f2060448201527f7769746864726177206d7573742062652067726561746572207468616e203000606482015260840162000d57565b3360009081526012602052604090205462001a49908262003a5f565b33600090815260126020526040902055600e5462001a68908262003a5f565b600e5560115460405163f3fef3a360e01b8152336004820152602481018390526001600160a01b039091169063f3fef3a390604401600060405180830381600087803b15801562001ab857600080fd5b505af115801562001acd573d6000803e3d6000fd5b5050505062001adc3362003729565b62001af557600b5462001af190600162003a5f565b600b555b60408051338152602081018390527f6352c5382c4a4578e712449ca65e83cdb392d045dfcf1cad9615189db2da244b91015b60405180910390a150565b60156020526000908152604090208054600182015460028301546006840180546001600160a01b0390941694929391929162001b6e9062004dc6565b80601f016020809104026020016040519081016040528092919081815260200182805462001b9c9062004dc6565b801562001bed5780601f1062001bc15761010080835404028352916020019162001bed565b820191906000526020600020905b81548152906001019060200180831162001bcf57829003601f168201915b50505050509080600701805462001c049062004dc6565b80601f016020809104026020016040519081016040528092919081815260200182805462001c329062004dc6565b801562001c835780601f1062001c575761010080835404028352916020019162001c83565b820191906000526020600020905b81548152906001019060200180831162001c6557829003601f168201915b5050506008909301549192505060ff1686565b60175462010000900460ff168062001cb65750601754610100900460ff16155b62001d1b5760405162461bcd60e51b815260206004820152602e60248201527f496e697469616c697a61626c653a20636f6e747261637420697320616c72656160448201526d191e481a5b9a5d1a585b1a5e995960921b606482015260840162000d57565b60175462010000900460ff1615801562001d41576017805462ffff001916620101001790555b6001600160a01b038c1662001da85760405162461bcd60e51b815260206004820152602660248201527f45524332304775696c643a20746f6b656e2063616e74206265207a65726f206160448201526564647265737360d01b606482015260840162000d57565b60008b1162001dcb5760405162461bcd60e51b815260040162000d579062004e03565b8a83101562001dee5760405162461bcd60e51b815260040162000d579062004e52565b6000891162001e115760405162461bcd60e51b815260040162000d579062004eaf565b865162001e269060029060208a019062003fc4565b50600080546001600160a01b0319166001600160a01b038e16908117909155604051309062001e559062004040565b6001600160a01b03928316815291166020820152604001604051809103906000f08015801562001e89573d6000803e3d6000fd5b50601180546001600160a01b03199081166001600160a01b039384161790915560038d905560048c905560058b905560068a9055600788905560088790556009869055600d85905560018054909116918416919091179055801562001ef5576017805462ff0000191690555b505050505050505050505050565b62001f0d6200404e565b60008281526015602090815260409182902082516101408101845281546001600160a01b03168152600182015481840152600282015481850152600382018054855181860281018601909652808652919492936060860193929083018282801562001fa257602002820191906000526020600020905b81546001600160a01b0316815260019091019060200180831162001f83575b5050505050815260200160048201805480602002602001604051908101604052809291908181526020016000905b828210156200208657838290600052602060002001805462001ff29062004dc6565b80601f0160208091040260200160405190810160405280929190818152602001828054620020209062004dc6565b8015620020715780601f10620020455761010080835404028352916020019162002071565b820191906000526020600020905b8154815290600101906020018083116200205357829003601f168201915b50505050508152602001906001019062001fd0565b50505050815260200160058201805480602002602001604051908101604052809291908181526020018280548015620020df57602002820191906000526020600020905b815481526020019060010190808311620020ca575b50505050508152602001600682018054620020fa9062004dc6565b80601f0160208091040260200160405190810160405280929190818152602001828054620021289062004dc6565b8015620021795780601f106200214d5761010080835404028352916020019162002179565b820191906000526020600020905b8154815290600101906020018083116200215b57829003601f168201915b50505050508152602001600782018054620021949062004dc6565b80601f0160208091040260200160405190810160405280929190818152602001828054620021c29062004dc6565b8015620022135780601f10620021e75761010080835404028352916020019162002213565b820191906000526020600020905b815481529060010190602001808311620021f557829003601f168201915b5050509183525050600882015460209091019060ff1660048111156200223d576200223d620046bd565b6004811115620022515762002251620046bd565b815260200160098201805480602002602001604051908101604052809291908181526020018280548015620022a657602002820191906000526020600020905b81548152602001906001019080831162002291575b5050505050815250509050919050565b606082518451148015620022cb575081518351145b6200233f5760405162461bcd60e51b815260206004820152603f60248201527f45524332304775696c643a20496e76616c69642070726f706f73616c4964732c60448201527f206f7074696f6e73206f7220766f74696e67506f77657273206c656e67746800606482015260840162000d57565b60008085516001600160401b038111156200235e576200235e620042b3565b60405190808252806020026020018201604052801562002388578160200160208202803683370190505b509050600091505b85518210156200271e574260156000888581518110620023b457620023b462005004565b6020026020010151815260200190815260200160002060020154101562002402576000818381518110620023ec57620023ec62005004565b9115156020928302919091019091015262002709565b83828151811062002417576200241762005004565b60200260200101516200242a3362003729565b1080620024a75750601460008784815181106200244b576200244b62005004565b602002602001015181526020019081526020016000206000336001600160a01b03166001600160a01b03168152602001908152602001600020600101548483815181106200249d576200249d62005004565b6020026020010151105b15620024c4576000818381518110620023ec57620023ec62005004565b60146000878481518110620024dd57620024dd62005004565b6020908102919091018101518252818101929092526040908101600090812033825290925290205415806200256757506014600087848151811062002526576200252662005004565b602002602001015181526020019081526020016000206000336001600160a01b03166001600160a01b03168152602001908152602001600020600101546000145b801562002661575084828151811062002584576200258462005004565b602002602001015160146000888581518110620025a557620025a562005004565b602002602001015181526020019081526020016000206000336001600160a01b03166001600160a01b03168152602001908152602001600020600001541415801562002661575083828151811062002601576200260162005004565b60200260200101516014600088858151811062002622576200262262005004565b602002602001015181526020019081526020016000206000336001600160a01b03166001600160a01b0316815260200190815260200160002060010154115b156200267e576000818381518110620023ec57620023ec62005004565b600181838151811062002695576200269562005004565b6020026020010190151590811515815250506200270933878481518110620026c157620026c162005004565b6020026020010151878581518110620026de57620026de62005004565b6020026020010151878681518110620026fb57620026fb62005004565b602002602001015162003783565b81620027158162005030565b92505062002390565b95945050505050565b60008111620027945760405162461bcd60e51b815260206004820152603260248201527f45524332304775696c643a20546f6b656e7320746f206c6f636b2073686f756c60448201527106420626520686967686572207468616e20360741b606482015260840162000d57565b6200279f3362003729565b620027b857600b54620027b490600162003775565b600b555b6011546040516311f9fbc960e21b8152336004820152602481018390526001600160a01b03909116906347e7ef2490604401600060405180830381600087803b1580156200280557600080fd5b505af11580156200281a573d6000803e3d6000fd5b5050336000908152601260205260409020546200283b925090508262003775565b33600090815260126020526040902055600d546200285b90429062003775565b33600090815260126020526040902060010155600e546200287d908262003775565b600e5560408051338152602081018390527fac87f20a77d28ee8bbb58ec87ea8fa968b3393efae1a368fd50b767c2847391c910162001b27565b60005b8851811015620029cb57620029b6898281518110620028dd57620028dd62005004565b6020026020010151898381518110620028fa57620028fa62005004565b602002602001015189848151811062002917576200291762005004565b602002602001015189858151811062002934576200293462005004565b602002602001015189868151811062002951576200295162005004565b60200260200101518987815181106200296e576200296e62005004565b60200260200101518988815181106200298b576200298b62005004565b6020026020010151898981518110620029a857620029a862005004565b602002602001015162002a5e565b80620029c28162005030565b915050620028ba565b505050505050505050565b6040516bffffffffffffffffffffffff19606086901b166020820152603481018490526054810183905260748101829052600090609401604051602081830303815290604052805190602001209050949350505050565b600062002a3c82858562003a6d565b949350505050565b600062000cd561271062000cce60055462000cc7600e5490565b600062002a6e88868686620029d6565b905086811462002ac15760405162461bcd60e51b815260206004820152601d60248201527f45524332304775696c643a20496e76616c696420766f74652068617368000000604482015260640162000d57565b60008181526013602052604090205460ff161562002b1e5760405162461bcd60e51b8152602060048201526019602482015278115490cc8c11dd5a5b190e88105b1c9958591e481d9bdd1959603a1b604482015260640162000d57565b60008960405160200162002b3491815260200190565b60405160208183030381529060405280519060200120905062002b5c836200171683620039e4565b6001600160a01b0316896001600160a01b03161462002bb95760405162461bcd60e51b815260206004820152601860248201527722a921991823bab4b6321d102bb937b7339039b4b3b732b960411b604482015260640162000d57565b600062002bc88b8a8a62002a2d565b90508062002c255760405162461bcd60e51b8152602060048201526024808201527f45524332304775696c643a20496e76616c6964206d65726b6c652074726565206044820152633632b0b360e11b606482015260840162000d57565b600087815260156020526040902060020154421062002c585760405162461bcd60e51b815260040162000d579062004f0c565b8462002c648b62003729565b1015801562002c97575060008781526014602090815260408083206001600160a01b038e16845290915290206001015485115b62002cb65760405162461bcd60e51b815260040162000d579062004f57565b60008781526014602090815260408083206001600160a01b038e16845290915290205415801562002d0a575060008781526014602090815260408083206001600160a01b038e168452909152902060010154155b8062002d67575060008781526014602090815260408083206001600160a01b038e1684529091529020548614801562002d67575060008781526014602090815260408083206001600160a01b038e16845290915290206001015485115b62002d865760405162461bcd60e51b815260040162000d579062004f9d565b6000838152601360205260409020805460ff1916600117905562002dad8a88888862003783565b5050505050505050505050565b6016818154811062002dcb57600080fd5b600091825260209091200154905081565b60175460ff161562002e3d5760405162461bcd60e51b8152602060048201526024808201527f45524332304775696c643a2050726f706f73616c20756e6465722065786563756044820152633a34b7b760e11b606482015260840162000d57565b600160008281526015602052604090206008015460ff16600481111562002e685762002e68620046bd565b1462002ec55760405162461bcd60e51b815260206004820152602560248201527f45524332304775696c643a2050726f706f73616c20616c72656164792065786560448201526418dd5d195960da1b606482015260840162000d57565b600081815260156020526040902060020154421162002f355760405162461bcd60e51b815260206004820152602560248201527f45524332304775696c643a2050726f706f73616c206861736e277420656e646560448201526419081e595d60da1b606482015260840162000d57565b60008181526015602052604081206009018054829190829062002f5c5762002f5c62005004565b600091825260209091200154905060015b6000848152601560205260409020600901548110156200309c5762002f9162002a44565b600085815260156020526040902060090180548390811062002fb75762002fb762005004565b906000526020600020015410158015620030035750600084815260156020526040902060090180548391908390811062002ff55762002ff562005004565b906000526020600020015410155b156200308757600084815260156020526040902060090180548391908390811062003032576200303262005004565b906000526020600020015414156200304e576000925062003087565b6000848152601560205260409020600901805491935083918290811062003079576200307962005004565b906000526020600020015491505b80620030938162005030565b91505062002f6d565b82620030ec576000848152601560205260409020600801805460ff191660029081179091558490600080516020620059ff833981519152905b60405190815260200160405180910390a262003710565b60045460008581526015602052604090206002015442916200310f919062003775565b10156200314e576000848152601560205260409020600801805460ff191660049081179091558490600080516020620059ff83398151915290620030d5565b600084815260156020526040812060088101805460ff19166003179055600901546200319a906200318190600162003a5f565b6000878152601560205260409020600301549062003759565b9050620031b5620031ad85600162003a5f565b829062003744565b91506000620031c5838362003775565b9050600160009054906101000a90046001600160a01b03166001600160a01b0316633e7a47b26040518163ffffffff1660e01b8152600401600060405180830381600087803b1580156200321857600080fd5b505af11580156200322d573d6000803e3d6000fd5b505050505b808310156200366757600086815260156020526040812060030180548590811062003261576200326162005004565b6000918252602090912001546001600160a01b031614801590620032c157506000868152601560205260408120600401805485908110620032a657620032a662005004565b906000526020600020018054620032bd9062004dc6565b9050115b1562003652576000868152601560205260408120600401805485908110620032ed57620032ed62005004565b906000526020600020018054620033049062004dc6565b80601f0160208091040260200160405190810160405280929190818152602001828054620033329062004dc6565b8015620033835780601f10620033575761010080835404028352916020019162003383565b820191906000526020600020905b8154815290600101906020018083116200336557829003601f168201915b50505060208084015160015460008d815260159093526040909220600301805495965090946001600160a01b03909216935063eed470339250309189908110620033d157620033d162005004565b9060005260206000200160009054906101000a90046001600160a01b031684601560008e81526020019081526020016000206005018a815481106200341a576200341a62005004565b60009182526020909120015460405160e086901b6001600160e01b031990811682526001600160a01b039586166004830152939094166024850152911660448301526064820152608401600060405180830381600087803b1580156200347f57600080fd5b505af192505050801562003491575060015b620034ed57620034a06200504e565b806308c379a01415620034e15750620034b86200506b565b80620034c55750620034e3565b8060405162461bcd60e51b815260040162000d57919062004206565b505b3d6000803e3d6000fd5b6017805460ff19166001179055600088815260156020526040812060030180548790811062003520576200352062005004565b60009182526020808320909101548b83526015909152604090912060050180546001600160a01b0390921691889081106200355f576200355f62005004565b9060005260206000200154601560008c8152602001908152602001600020600401888154811062003594576200359462005004565b90600052602060002001604051620035ad9190620050fa565b60006040518083038185875af1925050503d8060008114620035ec576040519150601f19603f3d011682016040523d82523d6000602084013e620035f1565b606091505b5050905080620036445760405162461bcd60e51b815260206004820181905260248201527f45524332304775696c643a2050726f706f73616c2063616c6c206661696c6564604482015260640162000d57565b50506017805460ff19169055505b826200365e8162005030565b93505062003232565b60015460405163fb0fde8560e01b81523060048201526001600160a01b039091169063fb0fde8590602401602060405180830381600087803b158015620036ad57600080fd5b505af1158015620036c2573d6000803e3d6000fd5b505050506040513d601f19601f82011682018060405250810190620036e891906200519e565b5085600080516020620059ff833981519152600360405190815260200160405180910390a250505b600c546200372090600162003a5f565b600c5550505050565b6001600160a01b031660009081526012602052604090205490565b6000620037528284620051c2565b9392505050565b6000620037528284620051fa565b600062003752828462005211565b600062003752828462005228565b60008381526014602090815260408083206001600160a01b038816845282528083206001015486845260159092529091206009018054620037f9928492620037f29287908110620037d857620037d862005004565b906000526020600020015462003a5f90919063ffffffff16565b9062003775565b60008481526015602052604090206009018054849081106200381f576200381f62005004565b60009182526020808320909101929092558481526014825260408082206001600160a01b038816835283528082208581556001018490558582526015909252206002015462003886856001600160a01b031660009081526012602052604090206001015490565b1015620038bb576000838152601560209081526040808320600201546001600160a01b03881684526012909252909120600101555b604080516001600160a01b038616815260208101839052839185917f583c62f152711bcb1ca6186c1065821ff17a7cbe226dcb559a1c889dcf0d769b910160405180910390a360075415620039de57600062003931620039276008543a62003a8590919063ffffffff16565b6007549062003744565b9050804710158015620039435750333b155b15620039dc57604051600090339083908381818185875af1925050503d80600081146200398d576040519150601f19603f3d011682016040523d82523d6000602084013e62003992565b606091505b5050905080620018cf5760405162461bcd60e51b81526020600482015260146024820152734661696c656420746f20726566756e642067617360601b604482015260640162000d57565b505b50505050565b6040517f19457468657265756d205369676e6564204d6573736167653a0a3332000000006020820152603c8101829052600090605c01604051602081830303815290604052805190602001209050919050565b600080600062003a48858562003a9d565b9150915062003a578162003b13565b509392505050565b600062003752828462005243565b60008262003a7c858462003ce9565b14949350505050565b600081831062003a96578162003752565b5090919050565b60008082516041141562003ad85760208301516040840151606085015160001a62003acb8782858562003d96565b9450945050505062000e9e565b82516040141562003b06576020830151604084015162003afa86838362003e8b565b93509350505062000e9e565b5060009050600262000e9e565b600081600481111562003b2a5762003b2a620046bd565b141562003b345750565b600181600481111562003b4b5762003b4b620046bd565b141562003b9b5760405162461bcd60e51b815260206004820152601860248201527f45434453413a20696e76616c6964207369676e61747572650000000000000000604482015260640162000d57565b600281600481111562003bb25762003bb2620046bd565b141562003c025760405162461bcd60e51b815260206004820152601f60248201527f45434453413a20696e76616c6964207369676e6174757265206c656e67746800604482015260640162000d57565b600381600481111562003c195762003c19620046bd565b141562003c745760405162461bcd60e51b815260206004820152602260248201527f45434453413a20696e76616c6964207369676e6174757265202773272076616c604482015261756560f01b606482015260840162000d57565b600481600481111562003c8b5762003c8b620046bd565b141562003ce65760405162461bcd60e51b815260206004820152602260248201527f45434453413a20696e76616c6964207369676e6174757265202776272076616c604482015261756560f01b606482015260840162000d57565b50565b600081815b845181101562003a5757600085828151811062003d0f5762003d0f62005004565b6020026020010151905080831162003d5357604080516020810185905290810182905260600160405160208183030381529060405280519060200120925062003d80565b60408051602081018390529081018490526060016040516020818303038152906040528051906020012092505b508062003d8d8162005030565b91505062003cee565b6000807f7fffffffffffffffffffffffffffffff5d576e7357a4501ddfe92f46681b20a083111562003dcf575060009050600362003e82565b8460ff16601b1415801562003de857508460ff16601c14155b1562003dfb575060009050600462003e82565b6040805160008082526020820180845289905260ff881692820192909252606081018690526080810185905260019060a0016020604051602081039080840390855afa15801562003e50573d6000803e3d6000fd5b5050604051601f1901519150506001600160a01b03811662003e7b5760006001925092505062003e82565b9150600090505b94509492505050565b6000806001600160ff1b03831660ff84901c601b0162003eae8782888562003d96565b935093505050935093915050565b82805482825590600052602060002090810192821562003f14579160200282015b8281111562003f1457825182546001600160a01b0319166001600160a01b0390911617825560209092019160019091019062003edd565b5062003f22929150620040be565b5090565b82805482825590600052602060002090810192821562003f78579160200282015b8281111562003f78578251805162003f6791849160209091019062003fc4565b509160200191906001019062003f47565b5062003f22929150620040d5565b82805482825590600052602060002090810192821562003f14579160200282015b8281111562003f1457825182559160200191906001019062003fa7565b82805462003fd29062004dc6565b90600052602060002090601f01602090048101928262003ff6576000855562003f14565b82601f106200401157805160ff191683800117855562003f14565b8280016001018555821562003f14579182018281111562003f1457825182559160200191906001019062003fa7565b6107a1806200525e83390190565b60405180610140016040528060006001600160a01b031681526020016000815260200160008152602001606081526020016060815260200160608152602001606081526020016060815260200160006004811115620040b157620040b1620046bd565b8152602001606081525090565b5b8082111562003f225760008155600101620040bf565b8082111562003f22576000620040ec8282620040f6565b50600101620040d5565b508054620041049062004dc6565b6000825580601f1062004115575050565b601f01602090049060005260206000209081019062003ce69190620040be565b6020808252825182820181905260009190848201906040850190845b818110156200416f5783518352928401929184019160010162004151565b50909695505050505050565b80356001600160a01b03811681146200419357600080fd5b919050565b600060208284031215620041ab57600080fd5b62003752826200417b565b6000815180845260005b81811015620041de57602081850181015186830182015201620041c0565b81811115620041f1576000602083870101525b50601f01601f19169290920160200192915050565b602081526000620037526020830184620041b6565b6000806000806000806000806000806101408b8d0312156200423c57600080fd5b505088359a60208a01359a5060408a013599606081013599506080810135985060a0810135975060c0810135965060e081013595506101008101359450610120013592509050565b600080604083850312156200429857600080fd5b82359150620042aa602084016200417b565b90509250929050565b634e487b7160e01b600052604160045260246000fd5b601f8201601f191681016001600160401b0381118282101715620042f157620042f1620042b3565b6040525050565b60006001600160401b03821115620043145762004314620042b3565b5060051b60200190565b600082601f8301126200433057600080fd5b813560206200433f82620042f8565b6040516200434e8282620042c9565b83815260059390931b85018201928281019150868411156200436f57600080fd5b8286015b84811015620043955762004387816200417b565b835291830191830162004373565b509695505050505050565b600082601f830112620043b257600080fd5b81356001600160401b03811115620043ce57620043ce620042b3565b604051620043e7601f8301601f191660200182620042c9565b818152846020838601011115620043fd57600080fd5b816020850160208301376000918101602001919091529392505050565b600082601f8301126200442c57600080fd5b813560206200443b82620042f8565b6040516200444a8282620042c9565b83815260059390931b85018201928281019150868411156200446b57600080fd5b8286015b84811015620043955780356001600160401b03811115620044905760008081fd5b620044a08986838b0101620043a0565b8452509183019183016200446f565b600082601f830112620044c157600080fd5b81356020620044d082620042f8565b604051620044df8282620042c9565b83815260059390931b85018201928281019150868411156200450057600080fd5b8286015b8481101562004395578035835291830191830162004504565b60008060008060008060c087890312156200453757600080fd5b86356001600160401b03808211156200454f57600080fd5b6200455d8a838b016200431e565b975060208901359150808211156200457457600080fd5b620045828a838b016200441a565b965060408901359150808211156200459957600080fd5b620045a78a838b01620044af565b9550606089013594506080890135915080821115620045c557600080fd5b620045d38a838b01620043a0565b935060a0890135915080821115620045ea57600080fd5b50620045f989828a01620043a0565b9150509295509295509295565b6000806000606084860312156200461c57600080fd5b505081359360208301359350604090920135919050565b600080600080600060a086880312156200464c57600080fd5b8535945060208601359350604086013592506200466c606087016200417b565b915060808601356001600160401b038111156200468857600080fd5b6200469688828901620043a0565b9150509295509295909350565b600060208284031215620046b657600080fd5b5035919050565b634e487b7160e01b600052602160045260246000fd5b60058110620046f257634e487b7160e01b600052602160045260246000fd5b9052565b60018060a01b038716815285602082015284604082015260c0606082015260006200472560c0830186620041b6565b8281036080840152620047398186620041b6565b9150506200474b60a0830184620046d3565b979650505050505050565b60008060008060008060008060008060006101608c8e0312156200477957600080fd5b620047848c6200417b565b9a5060208c0135995060408c0135985060608c0135975060808c0135965060a08c01356001600160401b03811115620047bc57600080fd5b620047ca8e828f01620043a0565b96505060c08c0135945060e08c013593506101008c013592506101208c01359150620047fa6101408d016200417b565b90509295989b509295989b9093969950565b600081518084526020808501945080840160005b83811015620048475781516001600160a01b03168752958201959082019060010162004820565b509495945050505050565b600081518084526020808501808196508360051b8101915082860160005b858110156200489e5782840389526200488b848351620041b6565b9885019893509084019060010162004870565b5091979650505050505050565b600081518084526020808501945080840160005b838110156200484757815187529582019590820190600101620048bf565b60208152620048f86020820183516001600160a01b03169052565b6020820151604082015260408201516060820152600060608301516101408060808501526200492c6101608501836200480c565b91506080850151601f19808685030160a08701526200494c848362004852565b935060a08701519150808685030160c08701526200496b8483620048ab565b935060c08701519150808685030160e08701526200498a8483620041b6565b935060e08701519150610100818786030181880152620049ab8584620041b6565b945080880151925050610120620049c581880184620046d3565b870151868503909101838701529050620049e08382620048ab565b9695505050505050565b60008060006060848603121562004a0057600080fd5b83356001600160401b038082111562004a1857600080fd5b62004a2687838801620044af565b9450602086013591508082111562004a3d57600080fd5b62004a4b87838801620044af565b9350604086013591508082111562004a6257600080fd5b5062004a7186828701620044af565b9150509250925092565b6020808252825182820181905260009190848201906040850190845b818110156200416f57835115158352928401929184019160010162004a97565b600082601f83011262004ac957600080fd5b8135602062004ad882620042f8565b60405162004ae78282620042c9565b83815260059390931b850182019282810191508684111562004b0857600080fd5b8286015b84811015620043955780356001600160401b0381111562004b2d5760008081fd5b62004b3d8986838b0101620044af565b84525091830191830162004b0c565b600080600080600080600080610100898b03121562004b6a57600080fd5b88356001600160401b038082111562004b8257600080fd5b62004b908c838d01620044af565b995060208b013591508082111562004ba757600080fd5b62004bb58c838d016200431e565b985060408b013591508082111562004bcc57600080fd5b62004bda8c838d01620044af565b975060608b013591508082111562004bf157600080fd5b62004bff8c838d0162004ab7565b965060808b013591508082111562004c1657600080fd5b62004c248c838d01620044af565b955060a08b013591508082111562004c3b57600080fd5b62004c498c838d01620044af565b945060c08b013591508082111562004c6057600080fd5b62004c6e8c838d01620044af565b935060e08b013591508082111562004c8557600080fd5b5062004c948b828c016200441a565b9150509295985092959890939650565b6000806000806080858703121562004cbb57600080fd5b62004cc6856200417b565b966020860135965060408601359560600135945092505050565b60008060006060848603121562004cf657600080fd5b833592506020840135915060408401356001600160401b0381111562004d1b57600080fd5b62004a7186828701620044af565b600080600080600080600080610100898b03121562004d4757600080fd5b8835975062004d5960208a016200417b565b96506040890135955060608901356001600160401b038082111562004d7d57600080fd5b62004d8b8c838d01620044af565b965060808b0135955060a08b0135945060c08b0135935060e08b013591508082111562004db757600080fd5b5062004c948b828c01620043a0565b600181811c9082168062004ddb57607f821691505b6020821081141562004dfd57634e487b7160e01b600052602260045260246000fd5b50919050565b6020808252602f908201527f45524332304775696c643a2070726f706f73616c2074696d652068617320746f60408201526e0206265206d6f7265207468616e203608c1b606082015260800190565b6020808252603e908201527f45524332304775696c643a206c6f636b54696d652068617320746f206265206860408201527f6967686572206f7220657175616c20746f2070726f706f73616c54696d650000606082015260800190565b6020808252603c908201527f45524332304775696c643a20766f74696e6720706f77657220666f722065786560408201527f637574696f6e2068617320746f206265206d6f7265207468616e203000000000606082015260800190565b6020808252602b908201527f45524332304775696c643a2050726f706f73616c20656e6465642c2063616e6e60408201526a1bdd081899481d9bdd195960aa1b606082015260800190565b60208082526026908201527f45524332304775696c643a20496e76616c696420766f74696e67506f77657220604082015265185b5bdd5b9d60d21b606082015260800190565b60208082526041908201527f45524332304775696c643a2043616e6e6f74206368616e6765206f7074696f6e60408201527f20766f7465642c206f6e6c7920696e63726561736520766f74696e67506f77656060820152603960f91b608082015260a00190565b634e487b7160e01b600052603260045260246000fd5b634e487b7160e01b600052601160045260246000fd5b60006000198214156200504757620050476200501a565b5060010190565b600060033d1115620050685760046000803e5060005160e01c5b90565b600060443d10156200507a5790565b6040516003193d81016004833e81513d6001600160401b038160248401118184111715620050aa57505050505090565b8285019150815181811115620050c35750505050505090565b843d8701016020828501011115620050de5750505050505090565b620050ef60208286010187620042c9565b509095945050505050565b600080835481600182811c9150808316806200511757607f831692505b60208084108214156200513857634e487b7160e01b86526022600452602486fd5b8180156200514f5760018114620051615762005190565b60ff1986168952848901965062005190565b60008a81526020902060005b86811015620051885781548b8201529085019083016200516d565b505084890196505b509498975050505050505050565b600060208284031215620051b157600080fd5b815180151581146200375257600080fd5b6000816000190483118215151615620051df57620051df6200501a565b500290565b634e487b7160e01b600052601260045260246000fd5b6000826200520c576200520c620051e4565b500490565b600082620052235762005223620051e4565b500690565b600082198211156200523e576200523e6200501a565b500190565b6000828210156200525857620052586200501a565b50039056fe608060405234801561001057600080fd5b506040516107a13803806107a183398101604081905261002f9161007c565b600080546001600160a01b039384166001600160a01b031991821617909155600180549290931691161790556100af565b80516001600160a01b038116811461007757600080fd5b919050565b6000806040838503121561008f57600080fd5b61009883610060565b91506100a660208401610060565b90509250929050565b6106e3806100be6000396000f3fe608060405234801561001057600080fd5b506004361061007d5760003560e01c80636e9960c31161005b5780636e9960c3146100ef578063f3fef3a314610100578063f851a44014610113578063fc0c546a1461012657600080fd5b806321df0da71461008257806327e235e3146100ac57806347e7ef24146100da575b600080fd5b6000546001600160a01b03165b6040516001600160a01b0390911681526020015b60405180910390f35b6100cc6100ba366004610586565b60026020526000908152604090205481565b6040519081526020016100a3565b6100ed6100e83660046105a1565b610139565b005b6001546001600160a01b031661008f565b6100ed61010e3660046105a1565b61020a565b60015461008f906001600160a01b031681565b60005461008f906001600160a01b031681565b6001546001600160a01b031633146101af5760405162461bcd60e51b815260206004820152602e60248201527f546f6b656e5661756c743a204465706f736974206d7573742062652073656e7460448201526d103a343937bab3b41030b236b4b760911b60648201526084015b60405180910390fd5b6000546101c7906001600160a01b031683308461025b565b6001600160a01b0382166000908152600260205260409020546101ea90826102cc565b6001600160a01b0390921660009081526002602052604090209190915550565b6001546001600160a01b0316331461022157600080fd5b600054610238906001600160a01b031683836102df565b6001600160a01b0382166000908152600260205260409020546101ea9082610314565b6040516001600160a01b03808516602483015283166044820152606481018290526102c69085906323b872dd60e01b906084015b60408051601f198184030181529190526020810180516001600160e01b03166001600160e01b031990931692909217909152610320565b50505050565b60006102d882846105e1565b9392505050565b6040516001600160a01b03831660248201526044810182905261030f90849063a9059cbb60e01b9060640161028f565b505050565b60006102d882846105f9565b6000610375826040518060400160405280602081526020017f5361666545524332303a206c6f772d6c6576656c2063616c6c206661696c6564815250856001600160a01b03166103f29092919063ffffffff16565b80519091501561030f57808060200190518101906103939190610610565b61030f5760405162461bcd60e51b815260206004820152602a60248201527f5361666545524332303a204552433230206f7065726174696f6e20646964206e6044820152691bdd081cdd58d8d9595960b21b60648201526084016101a6565b60606104018484600085610409565b949350505050565b60608247101561046a5760405162461bcd60e51b815260206004820152602660248201527f416464726573733a20696e73756666696369656e742062616c616e636520666f6044820152651c8818d85b1b60d21b60648201526084016101a6565b843b6104b85760405162461bcd60e51b815260206004820152601d60248201527f416464726573733a2063616c6c20746f206e6f6e2d636f6e747261637400000060448201526064016101a6565b600080866001600160a01b031685876040516104d4919061065e565b60006040518083038185875af1925050503d8060008114610511576040519150601f19603f3d011682016040523d82523d6000602084013e610516565b606091505b5091509150610526828286610531565b979650505050505050565b606083156105405750816102d8565b8251156105505782518084602001fd5b8160405162461bcd60e51b81526004016101a6919061067a565b80356001600160a01b038116811461058157600080fd5b919050565b60006020828403121561059857600080fd5b6102d88261056a565b600080604083850312156105b457600080fd5b6105bd8361056a565b946020939093013593505050565b634e487b7160e01b600052601160045260246000fd5b600082198211156105f4576105f46105cb565b500190565b60008282101561060b5761060b6105cb565b500390565b60006020828403121561062257600080fd5b815180151581146102d857600080fd5b60005b8381101561064d578181015183820152602001610635565b838111156102c65750506000910152565b60008251610670818460208701610632565b9190910192915050565b6020815260008251806020840152610699816040850160208701610632565b601f01601f1916919091016040019291505056fea2646970667358221220f83df9be484204d29c000a118187aee7d3ca7efcb094476e4ad893327bb967b564736f6c63430008080033fee62a9eec0be50eb061c711990ef0f1e17b40ea131d9347b0468acdaf8bf243a26469706673582212205cef5ce7a71a0bba07fdec8fa17c68b2f8a25b951161b3f6d84b392f75b0bdcf64736f6c63430008080033",
  "linkReferences": {},
  "deployedLinkReferences": {}
}