{
  "_format": "hh-sol-artifact-1",
  "contractName": "ERC20GuildUpgradeable",
  "sourceName": "dxdao-contracts/contracts/erc20guild/ERC20GuildUpgradeable.sol",
  "abi": [
    {
      "anonymous": false,
      "inputs": [
        {
          "indexed": true,
          "internalType": "bytes32",
          "name": "proposalId",
          "type": "bytes32"
        },
        {
          "indexed": false,
          "internalType": "uint256",
          "name": "newState",
          "type": "uint256"
        }
      ],
      "name": "ProposalStateChanged",
      "type": "event"
    },
    {
      "anonymous": false,
      "inputs": [
        {
          "indexed": false,
          "internalType": "address",
          "name": "voter",
          "type": "address"
        },
        {
          "indexed": false,
          "internalType": "uint256",
          "name": "value",
          "type": "uint256"
        }
      ],
      "name": "TokensLocked",
      "type": "event"
    },
    {
      "anonymous": false,
      "inputs": [
        {
          "indexed": false,
          "internalType": "address",
          "name": "voter",
          "type": "address"
        },
        {
          "indexed": false,
          "internalType": "uint256",
          "name": "value",
          "type": "uint256"
        }
      ],
      "name": "TokensWithdrawn",
      "type": "event"
    },
    {
      "anonymous": false,
      "inputs": [
        {
          "indexed": true,
          "internalType": "bytes32",
          "name": "proposalId",
          "type": "bytes32"
        },
        {
          "indexed": true,
          "internalType": "uint256",
          "name": "option",
          "type": "uint256"
        },
        {
          "indexed": false,
          "internalType": "address",
          "name": "voter",
          "type": "address"
        },
        {
          "indexed": false,
          "internalType": "uint256",
          "name": "votingPower",
          "type": "uint256"
        }
      ],
      "name": "VoteAdded",
      "type": "event"
    },
    {
      "stateMutability": "payable",
      "type": "fallback"
    },
    {
      "inputs": [],
      "name": "MAX_OPTIONS_PER_PROPOSAL",
      "outputs": [
        {
          "internalType": "uint8",
          "name": "",
          "type": "uint8"
        }
      ],
      "stateMutability": "view",
      "type": "function"
    },
    {
      "inputs": [],
      "name": "activeProposalsNow",
      "outputs": [
        {
          "internalType": "uint256",
          "name": "",
          "type": "uint256"
        }
      ],
      "stateMutability": "view",
      "type": "function"
    },
    {
      "inputs": [
        {
          "internalType": "address[]",
          "name": "to",
          "type": "address[]"
        },
        {
          "internalType": "bytes[]",
          "name": "data",
          "type": "bytes[]"
        },
        {
          "internalType": "uint256[]",
          "name": "value",
          "type": "uint256[]"
        },
        {
          "internalType": "uint256",
          "name": "totalOptions",
          "type": "uint256"
        },
        {
          "internalType": "string",
          "name": "title",
          "type": "string"
        },
        {
          "internalType": "string",
          "name": "contentHash",
          "type": "string"
        }
      ],
      "name": "createProposal",
      "outputs": [
        {
          "internalType": "bytes32",
          "name": "",
          "type": "bytes32"
        }
      ],
      "stateMutability": "nonpayable",
      "type": "function"
    },
    {
      "inputs": [
        {
          "internalType": "bytes32",
          "name": "proposalId",
          "type": "bytes32"
        }
      ],
      "name": "endProposal",
      "outputs": [],
      "stateMutability": "nonpayable",
      "type": "function"
    },
    {
      "inputs": [
        {
          "internalType": "bytes32",
          "name": "root",
          "type": "bytes32"
        },
        {
          "internalType": "address",
          "name": "voter",
          "type": "address"
        },
        {
          "internalType": "bytes32",
          "name": "voteHash",
          "type": "bytes32"
        },
        {
          "internalType": "bytes32[]",
          "name": "proof",
          "type": "bytes32[]"
        },
        {
          "internalType": "bytes32",
          "name": "proposalId",
          "type": "bytes32"
        },
        {
          "internalType": "uint256",
          "name": "option",
          "type": "uint256"
        },
        {
          "internalType": "uint256",
          "name": "votingPower",
          "type": "uint256"
        }
      ],
      "name": "executeSignedVote",
      "outputs": [],
      "stateMutability": "nonpayable",
      "type": "function"
    },
    {
      "inputs": [
        {
          "internalType": "bytes32[]",
          "name": "roots",
          "type": "bytes32[]"
        },
        {
          "internalType": "address[]",
          "name": "voters",
          "type": "address[]"
        },
        {
          "internalType": "bytes32[]",
          "name": "votesHashes",
          "type": "bytes32[]"
        },
        {
          "internalType": "bytes32[][]",
          "name": "proofs",
          "type": "bytes32[][]"
        },
        {
          "internalType": "bytes32[]",
          "name": "proposalIds",
          "type": "bytes32[]"
        },
        {
          "internalType": "uint256[]",
          "name": "options",
          "type": "uint256[]"
        },
        {
          "internalType": "uint256[]",
          "name": "votingPowers",
          "type": "uint256[]"
        }
      ],
      "name": "executeSignedVotesBatches",
      "outputs": [],
      "stateMutability": "nonpayable",
      "type": "function"
    },
    {
      "inputs": [
        {
          "internalType": "bytes32[]",
          "name": "proposalIds",
          "type": "bytes32[]"
        },
        {
          "internalType": "uint256[]",
          "name": "options",
          "type": "uint256[]"
        },
        {
          "internalType": "uint256[]",
          "name": "votingPowers",
          "type": "uint256[]"
        }
      ],
      "name": "executeVotes",
      "outputs": [
        {
          "internalType": "bool[]",
          "name": "",
          "type": "bool[]"
        }
      ],
      "stateMutability": "nonpayable",
      "type": "function"
    },
    {
      "inputs": [],
      "name": "getActiveProposalsNow",
      "outputs": [
        {
          "internalType": "uint256",
          "name": "",
          "type": "uint256"
        }
      ],
      "stateMutability": "view",
      "type": "function"
    },
    {
      "inputs": [],
      "name": "getLockTime",
      "outputs": [
        {
          "internalType": "uint256",
          "name": "",
          "type": "uint256"
        }
      ],
      "stateMutability": "view",
      "type": "function"
    },
    {
      "inputs": [],
      "name": "getMaxActiveProposals",
      "outputs": [
        {
          "internalType": "uint256",
          "name": "",
          "type": "uint256"
        }
      ],
      "stateMutability": "view",
      "type": "function"
    },
    {
      "inputs": [],
      "name": "getMaxGasPrice",
      "outputs": [
        {
          "internalType": "uint256",
          "name": "",
          "type": "uint256"
        }
      ],
      "stateMutability": "view",
      "type": "function"
    },
    {
      "inputs": [],
      "name": "getMinimumMembersForProposalCreation",
      "outputs": [
        {
          "internalType": "uint256",
          "name": "",
          "type": "uint256"
        }
      ],
      "stateMutability": "view",
      "type": "function"
    },
    {
      "inputs": [],
      "name": "getMinimumTokensLockedForProposalCreation",
      "outputs": [
        {
          "internalType": "uint256",
          "name": "",
          "type": "uint256"
        }
      ],
      "stateMutability": "view",
      "type": "function"
    },
    {
      "inputs": [],
      "name": "getName",
      "outputs": [
        {
          "internalType": "string",
          "name": "",
          "type": "string"
        }
      ],
      "stateMutability": "view",
      "type": "function"
    },
    {
      "inputs": [],
      "name": "getPermissionRegistry",
      "outputs": [
        {
          "internalType": "address",
          "name": "",
          "type": "address"
        }
      ],
      "stateMutability": "view",
      "type": "function"
    },
    {
      "inputs": [
        {
          "internalType": "bytes32",
          "name": "proposalId",
          "type": "bytes32"
        }
      ],
      "name": "getProposal",
      "outputs": [
        {
          "components": [
            {
              "internalType": "address",
              "name": "creator",
              "type": "address"
            },
            {
              "internalType": "uint256",
              "name": "startTime",
              "type": "uint256"
            },
            {
              "internalType": "uint256",
              "name": "endTime",
              "type": "uint256"
            },
            {
              "internalType": "address[]",
              "name": "to",
              "type": "address[]"
            },
            {
              "internalType": "bytes[]",
              "name": "data",
              "type": "bytes[]"
            },
            {
              "internalType": "uint256[]",
              "name": "value",
              "type": "uint256[]"
            },
            {
              "internalType": "string",
              "name": "title",
              "type": "string"
            },
            {
              "internalType": "string",
              "name": "contentHash",
              "type": "string"
            },
            {
              "internalType": "enum BaseERC20Guild.ProposalState",
              "name": "state",
              "type": "uint8"
            },
            {
              "internalType": "uint256[]",
              "name": "totalVotes",
              "type": "uint256[]"
            }
          ],
          "internalType": "struct BaseERC20Guild.Proposal",
          "name": "",
          "type": "tuple"
        }
      ],
      "stateMutability": "view",
      "type": "function"
    },
    {
      "inputs": [],
      "name": "getProposalTime",
      "outputs": [
        {
          "internalType": "uint256",
          "name": "",
          "type": "uint256"
        }
      ],
      "stateMutability": "view",
      "type": "function"
    },
    {
      "inputs": [
        {
          "internalType": "bytes32",
          "name": "proposalId",
          "type": "bytes32"
        },
        {
          "internalType": "address",
          "name": "voter",
          "type": "address"
        }
      ],
      "name": "getProposalVotesOfVoter",
      "outputs": [
        {
          "internalType": "uint256",
          "name": "option",
          "type": "uint256"
        },
        {
          "internalType": "uint256",
          "name": "votingPower",
          "type": "uint256"
        }
      ],
      "stateMutability": "view",
      "type": "function"
    },
    {
      "inputs": [],
      "name": "getProposalsIds",
      "outputs": [
        {
          "internalType": "bytes32[]",
          "name": "",
          "type": "bytes32[]"
        }
      ],
      "stateMutability": "view",
      "type": "function"
    },
    {
      "inputs": [],
      "name": "getProposalsIdsLength",
      "outputs": [
        {
          "internalType": "uint256",
          "name": "",
          "type": "uint256"
        }
      ],
      "stateMutability": "view",
      "type": "function"
    },
    {
      "inputs": [
        {
          "internalType": "bytes32",
          "name": "signedVoteHash",
          "type": "bytes32"
        }
      ],
      "name": "getSignedVote",
      "outputs": [
        {
          "internalType": "bool",
          "name": "",
          "type": "bool"
        }
      ],
      "stateMutability": "view",
      "type": "function"
    },
    {
      "inputs": [],
      "name": "getTimeForExecution",
      "outputs": [
        {
          "internalType": "uint256",
          "name": "",
          "type": "uint256"
        }
      ],
      "stateMutability": "view",
      "type": "function"
    },
    {
      "inputs": [],
      "name": "getToken",
      "outputs": [
        {
          "internalType": "address",
          "name": "",
          "type": "address"
        }
      ],
      "stateMutability": "view",
      "type": "function"
    },
    {
      "inputs": [],
      "name": "getTokenVault",
      "outputs": [
        {
          "internalType": "address",
          "name": "",
          "type": "address"
        }
      ],
      "stateMutability": "view",
      "type": "function"
    },
    {
      "inputs": [],
      "name": "getTotalLocked",
      "outputs": [
        {
          "internalType": "uint256",
          "name": "",
          "type": "uint256"
        }
      ],
      "stateMutability": "view",
      "type": "function"
    },
    {
      "inputs": [],
      "name": "getTotalMembers",
      "outputs": [
        {
          "internalType": "uint256",
          "name": "",
          "type": "uint256"
        }
      ],
      "stateMutability": "view",
      "type": "function"
    },
    {
      "inputs": [],
      "name": "getTotalProposals",
      "outputs": [
        {
          "internalType": "uint256",
          "name": "",
          "type": "uint256"
        }
      ],
      "stateMutability": "view",
      "type": "function"
    },
    {
      "inputs": [],
      "name": "getVoteGas",
      "outputs": [
        {
          "internalType": "uint256",
          "name": "",
          "type": "uint256"
        }
      ],
      "stateMutability": "view",
      "type": "function"
    },
    {
      "inputs": [
        {
          "internalType": "address",
          "name": "voter",
          "type": "address"
        }
      ],
      "name": "getVoterLockTimestamp",
      "outputs": [
        {
          "internalType": "uint256",
          "name": "",
          "type": "uint256"
        }
      ],
      "stateMutability": "view",
      "type": "function"
    },
    {
      "inputs": [],
      "name": "getVotingPowerForProposalCreation",
      "outputs": [
        {
          "internalType": "uint256",
          "name": "",
          "type": "uint256"
        }
      ],
      "stateMutability": "view",
      "type": "function"
    },
    {
      "inputs": [],
      "name": "getVotingPowerForProposalExecution",
      "outputs": [
        {
          "internalType": "uint256",
          "name": "",
          "type": "uint256"
        }
      ],
      "stateMutability": "view",
      "type": "function"
    },
    {
      "inputs": [
        {
          "internalType": "address",
          "name": "voter",
          "type": "address"
        },
        {
          "internalType": "bytes32",
          "name": "proposalId",
          "type": "bytes32"
        },
        {
          "internalType": "uint256",
          "name": "option",
          "type": "uint256"
        },
        {
          "internalType": "uint256",
          "name": "votingPower",
          "type": "uint256"
        }
      ],
      "name": "hashVote",
      "outputs": [
        {
          "internalType": "bytes32",
          "name": "",
          "type": "bytes32"
        }
      ],
      "stateMutability": "pure",
      "type": "function"
    },
    {
      "inputs": [
        {
          "internalType": "address",
          "name": "_token",
          "type": "address"
        },
        {
          "internalType": "uint256",
          "name": "_proposalTime",
          "type": "uint256"
        },
        {
          "internalType": "uint256",
          "name": "_timeForExecution",
          "type": "uint256"
        },
        {
          "internalType": "uint256",
          "name": "_votingPowerPercentageForProposalExecution",
          "type": "uint256"
        },
        {
          "internalType": "uint256",
          "name": "_votingPowerPercentageForProposalCreation",
          "type": "uint256"
        },
        {
          "internalType": "string",
          "name": "_name",
          "type": "string"
        },
        {
          "internalType": "uint256",
          "name": "_voteGas",
          "type": "uint256"
        },
        {
          "internalType": "uint256",
          "name": "_maxGasPrice",
          "type": "uint256"
        },
        {
          "internalType": "uint256",
          "name": "_maxActiveProposals",
          "type": "uint256"
        },
        {
          "internalType": "uint256",
          "name": "_lockTime",
          "type": "uint256"
        },
        {
          "internalType": "address",
          "name": "_permissionRegistry",
          "type": "address"
        }
      ],
      "name": "initialize",
      "outputs": [],
      "stateMutability": "nonpayable",
      "type": "function"
    },
    {
      "inputs": [],
      "name": "lockTime",
      "outputs": [
        {
          "internalType": "uint256",
          "name": "",
          "type": "uint256"
        }
      ],
      "stateMutability": "view",
      "type": "function"
    },
    {
      "inputs": [
        {
          "internalType": "uint256",
          "name": "tokenAmount",
          "type": "uint256"
        }
      ],
      "name": "lockTokens",
      "outputs": [],
      "stateMutability": "nonpayable",
      "type": "function"
    },
    {
      "inputs": [],
      "name": "maxActiveProposals",
      "outputs": [
        {
          "internalType": "uint256",
          "name": "",
          "type": "uint256"
        }
      ],
      "stateMutability": "view",
      "type": "function"
    },
    {
      "inputs": [],
      "name": "maxGasPrice",
      "outputs": [
        {
          "internalType": "uint256",
          "name": "",
          "type": "uint256"
        }
      ],
      "stateMutability": "view",
      "type": "function"
    },
    {
      "inputs": [],
      "name": "minimumMembersForProposalCreation",
      "outputs": [
        {
          "internalType": "uint256",
          "name": "",
          "type": "uint256"
        }
      ],
      "stateMutability": "view",
      "type": "function"
    },
    {
      "inputs": [],
      "name": "minimumTokensLockedForProposalCreation",
      "outputs": [
        {
          "internalType": "uint256",
          "name": "",
          "type": "uint256"
        }
      ],
      "stateMutability": "view",
      "type": "function"
    },
    {
      "inputs": [],
      "name": "name",
      "outputs": [
        {
          "internalType": "string",
          "name": "",
          "type": "string"
        }
      ],
      "stateMutability": "view",
      "type": "function"
    },
    {
      "inputs": [],
      "name": "proposalTime",
      "outputs": [
        {
          "internalType": "uint256",
          "name": "",
          "type": "uint256"
        }
      ],
      "stateMutability": "view",
      "type": "function"
    },
    {
      "inputs": [
        {
          "internalType": "bytes32",
          "name": "",
          "type": "bytes32"
        },
        {
          "internalType": "address",
          "name": "",
          "type": "address"
        }
      ],
      "name": "proposalVotes",
      "outputs": [
        {
          "internalType": "uint256",
          "name": "option",
          "type": "uint256"
        },
        {
          "internalType": "uint256",
          "name": "votingPower",
          "type": "uint256"
        }
      ],
      "stateMutability": "view",
      "type": "function"
    },
    {
      "inputs": [
        {
          "internalType": "bytes32",
          "name": "",
          "type": "bytes32"
        }
      ],
      "name": "proposals",
      "outputs": [
        {
          "internalType": "address",
          "name": "creator",
          "type": "address"
        },
        {
          "internalType": "uint256",
          "name": "startTime",
          "type": "uint256"
        },
        {
          "internalType": "uint256",
          "name": "endTime",
          "type": "uint256"
        },
        {
          "internalType": "string",
          "name": "title",
          "type": "string"
        },
        {
          "internalType": "string",
          "name": "contentHash",
          "type": "string"
        },
        {
          "internalType": "enum BaseERC20Guild.ProposalState",
          "name": "state",
          "type": "uint8"
        }
      ],
      "stateMutability": "view",
      "type": "function"
    },
    {
      "inputs": [
        {
          "internalType": "uint256",
          "name": "",
          "type": "uint256"
        }
      ],
      "name": "proposalsIds",
      "outputs": [
        {
          "internalType": "bytes32",
          "name": "",
          "type": "bytes32"
        }
      ],
      "stateMutability": "view",
      "type": "function"
    },
    {
      "inputs": [
        {
          "internalType": "uint256",
          "name": "_proposalTime",
          "type": "uint256"
        },
        {
          "internalType": "uint256",
          "name": "_timeForExecution",
          "type": "uint256"
        },
        {
          "internalType": "uint256",
          "name": "_votingPowerPercentageForProposalExecution",
          "type": "uint256"
        },
        {
          "internalType": "uint256",
          "name": "_votingPowerPercentageForProposalCreation",
          "type": "uint256"
        },
        {
          "internalType": "uint256",
          "name": "_voteGas",
          "type": "uint256"
        },
        {
          "internalType": "uint256",
          "name": "_maxGasPrice",
          "type": "uint256"
        },
        {
          "internalType": "uint256",
          "name": "_maxActiveProposals",
          "type": "uint256"
        },
        {
          "internalType": "uint256",
          "name": "_lockTime",
          "type": "uint256"
        },
        {
          "internalType": "uint256",
          "name": "_minimumMembersForProposalCreation",
          "type": "uint256"
        },
        {
          "internalType": "uint256",
          "name": "_minimumTokensLockedForProposalCreation",
          "type": "uint256"
        }
      ],
      "name": "setConfig",
      "outputs": [],
      "stateMutability": "nonpayable",
      "type": "function"
    },
    {
      "inputs": [
        {
          "internalType": "bytes32",
          "name": "proposalId",
          "type": "bytes32"
        },
        {
          "internalType": "uint256",
          "name": "option",
          "type": "uint256"
        },
        {
          "internalType": "uint256",
          "name": "votingPower",
          "type": "uint256"
        },
        {
          "internalType": "address",
          "name": "voter",
          "type": "address"
        },
        {
          "internalType": "bytes",
          "name": "signature",
          "type": "bytes"
        }
      ],
      "name": "setSignedVote",
      "outputs": [],
      "stateMutability": "nonpayable",
      "type": "function"
    },
    {
      "inputs": [
        {
          "internalType": "bytes32",
          "name": "proposalId",
          "type": "bytes32"
        },
        {
          "internalType": "uint256",
          "name": "option",
          "type": "uint256"
        },
        {
          "internalType": "uint256",
          "name": "votingPower",
          "type": "uint256"
        }
      ],
      "name": "setVote",
      "outputs": [],
      "stateMutability": "nonpayable",
      "type": "function"
    },
    {
      "inputs": [
        {
          "internalType": "bytes32",
          "name": "",
          "type": "bytes32"
        }
      ],
      "name": "signedVotes",
      "outputs": [
        {
          "internalType": "bool",
          "name": "",
          "type": "bool"
        }
      ],
      "stateMutability": "view",
      "type": "function"
    },
    {
      "inputs": [],
      "name": "timeForExecution",
      "outputs": [
        {
          "internalType": "uint256",
          "name": "",
          "type": "uint256"
        }
      ],
      "stateMutability": "view",
      "type": "function"
    },
    {
      "inputs": [],
      "name": "token",
      "outputs": [
        {
          "internalType": "contract IERC20Upgradeable",
          "name": "",
          "type": "address"
        }
      ],
      "stateMutability": "view",
      "type": "function"
    },
    {
      "inputs": [],
      "name": "tokenVault",
      "outputs": [
        {
          "internalType": "contract TokenVault",
          "name": "",
          "type": "address"
        }
      ],
      "stateMutability": "view",
      "type": "function"
    },
    {
      "inputs": [
        {
          "internalType": "address",
          "name": "",
          "type": "address"
        }
      ],
      "name": "tokensLocked",
      "outputs": [
        {
          "internalType": "uint256",
          "name": "amount",
          "type": "uint256"
        },
        {
          "internalType": "uint256",
          "name": "timestamp",
          "type": "uint256"
        }
      ],
      "stateMutability": "view",
      "type": "function"
    },
    {
      "inputs": [],
      "name": "totalLocked",
      "outputs": [
        {
          "internalType": "uint256",
          "name": "",
          "type": "uint256"
        }
      ],
      "stateMutability": "view",
      "type": "function"
    },
    {
      "inputs": [],
      "name": "totalProposals",
      "outputs": [
        {
          "internalType": "uint256",
          "name": "",
          "type": "uint256"
        }
      ],
      "stateMutability": "view",
      "type": "function"
    },
    {
      "inputs": [
        {
          "internalType": "bytes32",
          "name": "root",
          "type": "bytes32"
        },
        {
          "internalType": "bytes32",
          "name": "voteHash",
          "type": "bytes32"
        },
        {
          "internalType": "bytes32[]",
          "name": "proof",
          "type": "bytes32[]"
        }
      ],
      "name": "validateMerkleTreeLeaf",
      "outputs": [
        {
          "internalType": "bool",
          "name": "",
          "type": "bool"
        }
      ],
      "stateMutability": "nonpayable",
      "type": "function"
    },
    {
      "inputs": [],
      "name": "voteGas",
      "outputs": [
        {
          "internalType": "uint256",
          "name": "",
          "type": "uint256"
        }
      ],
      "stateMutability": "view",
      "type": "function"
    },
    {
      "inputs": [
        {
          "internalType": "address",
          "name": "account",
          "type": "address"
        }
      ],
      "name": "votingPowerOf",
      "outputs": [
        {
          "internalType": "uint256",
          "name": "",
          "type": "uint256"
        }
      ],
      "stateMutability": "view",
      "type": "function"
    },
    {
      "inputs": [],
      "name": "votingPowerPercentageForProposalCreation",
      "outputs": [
        {
          "internalType": "uint256",
          "name": "",
          "type": "uint256"
        }
      ],
      "stateMutability": "view",
      "type": "function"
    },
    {
      "inputs": [],
      "name": "votingPowerPercentageForProposalExecution",
      "outputs": [
        {
          "internalType": "uint256",
          "name": "",
          "type": "uint256"
        }
      ],
      "stateMutability": "view",
      "type": "function"
    },
    {
      "inputs": [
        {
          "internalType": "uint256",
          "name": "tokenAmount",
          "type": "uint256"
        }
      ],
      "name": "withdrawTokens",
      "outputs": [],
      "stateMutability": "nonpayable",
      "type": "function"
    }
  ],
  "bytecode": "0x608060405234801561001057600080fd5b50615954806100206000396000f3fe608060405260043610620003b55760003560e01c806364fe6ed211620001eb578063ad6c1e34116200010b578063c93e01e311620000a7578063f4732da61162000075578063f4732da61462000b54578063f98606a71462000b6b578063fc0c546a1462000b83578063fc4e703f1462000ba557005b8063c93e01e31462000aca578063e04503531462000ae1578063e158080a1462000af9578063f09951981462000b1157005b8063b3b4706111620000e5578063b3b470611462000a52578063b7c15f8d1462000a77578063bcc3f3bd1462000a8e578063c0a4d64d1462000ab357005b8063ad6c1e3414620009fe578063ae6192341462000a15578063b3929aaa1462000a2d57005b806389c98c061162000187578063a16fe3421162000155578063a16fe3421462000989578063a78d80fc14620009a9578063a7aeb55714620009c1578063ab6ea06b14620009d957005b806389c98c0614620009115780638bb8591e14620009285780638f180305146200094d57806392b71654146200096457005b80636e27d88911620001c55780636e27d889146200087c57806377027ff414620008a15780638029eff114620008b857806386e2712514620008ec57005b806364fe6ed2146200081a578063671abed714620008315780636c8b72f6146200086557005b806325c069fc11620002d75780633bf353fb116200027357806354f2f7af116200024157806354f2f7af14620007a85780635689141214620007c85780635bc789d914620007e05780635e508c2c146200080257005b80633bf353fb146200072c5780633de39c1114620007445780633f10cf15146200075c578063430694cf146200077457005b80632fd99c0011620002b15780632fd99c001462000664578063315a095d14620006a957806332ed5b1214620006ce57806336f8f8d9146200070757005b806325c069fc14620005d85780632d5b17de14620006025780632d757c3e146200062757005b806313108d7411620003535780631a5007dd11620003215780631a5007dd146200055f57806321df0da714620005765780632229a0e214620005aa5780632467ef9414620005c157005b806313108d7414620004e557806316bbecde146200050a57806317d7de7c146200052f578063184a0ae9146200054757005b80630a366a6311620003915780630a366a63146200045c5780630d6680871462000483578063123f6d67146200049b578063130485fe14620004c057005b80623a40d014620003b757806301a598a614620003e757806306fdde031462000435575b005b348015620003c457600080fd5b50620003cf62000bbd565b604051620003de919062004079565b60405180910390f35b348015620003f457600080fd5b506200041f62000406366004620040dc565b6012602052600090815260409020805460019091015482565b60408051928352602083019190915201620003de565b3480156200044257600080fd5b506200044d62000c17565b604051620003de91906200414a565b3480156200046957600080fd5b506200047462000cad565b604051908152602001620003de565b3480156200049057600080fd5b5062000474600d5481565b348015620004a857600080fd5b50620003b5620004ba3660046200415f565b62000cda565b348015620004cd57600080fd5b506200041f620004df366004620041c8565b62000e73565b348015620004f257600080fd5b50620004746200050436600462004461565b62000ea5565b3480156200051757600080fd5b50620003b5620005293660046200454a565b6200148b565b3480156200053c57600080fd5b506200044d620015d2565b3480156200055457600080fd5b506200047460035481565b3480156200056c57600080fd5b50600a5462000474565b3480156200058357600080fd5b506000546001600160a01b03165b6040516001600160a01b039091168152602001620003de565b348015620005b757600080fd5b5060165462000474565b348015620005ce57600080fd5b50600c5462000474565b348015620005e557600080fd5b50620005ef600a81565b60405160ff9091168152602001620003de565b3480156200060f57600080fd5b50620003b56200062136600462004577565b62001663565b3480156200063457600080fd5b506200047462000646366004620040dc565b6001600160a01b031660009081526012602052604090206001015490565b3480156200067157600080fd5b506200069862000683366004620045e7565b60136020526000908152604090205460ff1681565b6040519015158152602001620003de565b348015620006b657600080fd5b50620003b5620006c8366004620045e7565b62001929565b348015620006db57600080fd5b50620006f3620006ed366004620045e7565b62001b84565b604051620003de969594939291906200463a565b3480156200071457600080fd5b50620003b5620007263660046200469a565b62001ce8565b3480156200073957600080fd5b5062000474600c5481565b3480156200075157600080fd5b506200047460085481565b3480156200076957600080fd5b506200047460045481565b3480156200078157600080fd5b506200079962000793366004620045e7565b62001f55565b604051620003de919062004821565b348015620007b557600080fd5b506011546001600160a01b031662000591565b348015620007d557600080fd5b5062000474600e5481565b348015620007ed57600080fd5b5060115462000591906001600160a01b031681565b3480156200080f57600080fd5b506200047460055481565b3480156200082757600080fd5b5060105462000474565b3480156200083e57600080fd5b5062000856620008503660046200492e565b62002308565b604051620003de9190620049bf565b3480156200087257600080fd5b5060075462000474565b3480156200088957600080fd5b50620003b56200089b366004620045e7565b62002779565b348015620008ae57600080fd5b5060095462000474565b348015620008c557600080fd5b5062000698620008d7366004620045e7565b60009081526013602052604090205460ff1690565b348015620008f957600080fd5b50620003b56200090b366004620049fb565b62002909565b3480156200091e57600080fd5b5060085462000474565b3480156200093557600080fd5b50620003b56200094736600462004b11565b62002bc8565b3480156200095a57600080fd5b50600b5462000474565b3480156200097157600080fd5b50620004746200098336600462004c41565b62002cc9565b3480156200099657600080fd5b506001546001600160a01b031662000591565b348015620009b657600080fd5b5062000474600a5481565b348015620009ce57600080fd5b5062000474600f5481565b348015620009e657600080fd5b5062000698620009f836600462004c7d565b62002d20565b34801562000a0b57600080fd5b50600f5462000474565b34801562000a2257600080fd5b506200047462002d37565b34801562000a3a57600080fd5b506200047462000a4c366004620045e7565b62002d51565b34801562000a5f57600080fd5b50620003b562000a71366004620045e7565b62002d73565b34801562000a8457600080fd5b5060045462000474565b34801562000a9b57600080fd5b506200047462000aad366004620040dc565b620036c0565b34801562000ac057600080fd5b50600d5462000474565b34801562000ad757600080fd5b5060035462000474565b34801562000aee57600080fd5b506200047460095481565b34801562000b0657600080fd5b506200047460105481565b34801562000b1e57600080fd5b506200041f62000b30366004620041c8565b60146020908152600092835260408084209091529082529020805460019091015482565b34801562000b6157600080fd5b50600e5462000474565b34801562000b7857600080fd5b506200047460065481565b34801562000b9057600080fd5b5060005462000591906001600160a01b031681565b34801562000bb257600080fd5b506200047460075481565b6060601680548060200260200160405190810160405280929190818152602001828054801562000c0d57602002820191906000526020600020905b81548152602001906001019080831162000bf8575b5050505050905090565b6002805462000c269062004cc6565b80601f016020809104026020016040519081016040528092919081815260200182805462000c549062004cc6565b801562000ca55780601f1062000c795761010080835404028352916020019162000ca5565b820191906000526020600020905b81548152906001019060200180831162000c8757829003601f168201915b505050505081565b600062000cd561271062000cce60065462000cc7600e5490565b90620036db565b90620036f0565b905090565b33301462000d605760405162461bcd60e51b815260206004820152604260248201527f45524332304775696c643a204f6e6c792063616c6c61626c652062792045524360448201527f32306775696c6420697473656c66206f72207768656e20696e697469616c697a606482015261195960f21b608482015260a4015b60405180910390fd5b60008a1162000d835760405162461bcd60e51b815260040162000d579062004d03565b8983101562000da65760405162461bcd60e51b815260040162000d579062004d52565b6000881162000dc95760405162461bcd60e51b815260040162000d579062004daf565b6201c90886111562000e445760405162461bcd60e51b815260206004820152603960248201527f45524332304775696c643a20766f7465206761732068617320746f206265206560448201527f7175616c206f72206c6f776572207468616e2031313730303000000000000000606482015260840162000d57565b600399909955600497909755600595909555600693909355600791909155600855600955600d55600f55601055565b60008281526014602090815260408083206001600160a01b0385168452909152902080546001909101545b9250929050565b6000601054600e54101562000f235760405162461bcd60e51b815260206004820152603960248201527f45524332304775696c643a204e6f7420656e6f75676820746f6b656e73206c6f60448201527f636b656420746f2063726561746520612070726f706f73616c00000000000000606482015260840162000d57565b600f54600b54101562000f955760405162461bcd60e51b815260206004820152603360248201527f45524332304775696c643a204e6f7420656e6f756768206d656d6265727320746044820152721bc818dc99585d194818481c1c9bdc1bdcd85b606a1b606482015260840162000d57565b600954600c5410620010095760405162461bcd60e51b815260206004820152603660248201527f45524332304775696c643a204d6178696d756d20616d6f756e74206f662061636044820152751d1a5d99481c1c9bdc1bdcd85b1cc81c995858da195960521b606482015260840162000d57565b6200101362000cad565b6200101e33620036c0565b10156200108c5760405162461bcd60e51b815260206004820152603560248201527f45524332304775696c643a204e6f7420656e6f75676820766f74696e67506f77604482015274195c881d1bc818dc99585d19481c1c9bdc1bdcd85b605a1b606482015260840162000d57565b855187511480156200109f575084518751145b6200110a5760405162461bcd60e51b815260206004820152603460248201527f45524332304775696c643a2057726f6e67206c656e677468206f6620746f2c2060448201527364617461206f722076616c75652061727261797360601b606482015260840162000d57565b6000875111620011775760405162461bcd60e51b815260206004820152603160248201527f45524332304775696c643a20746f2c20646174612076616c7565206172726179604482015270732063616e6e6f7420626520656d70747960781b606482015260840162000d57565b865184111580156200119457508451620011929085620036fe565b155b620012085760405162461bcd60e51b815260206004820152603760248201527f45524332304775696c643a20496e76616c696420746f74616c4f7074696f6e7360448201527f206f72206f7074696f6e2063616c6c73206c656e677468000000000000000000606482015260840162000d57565b600a841115620012815760405162461bcd60e51b815260206004820152603a60248201527f45524332304775696c643a204d6178696d756d20616d6f756e74206f66206f7060448201527f74696f6e73207065722070726f706f73616c2072656163686564000000000000606482015260840162000d57565b600a546040516bffffffffffffffffffffffff193360601b1660208201524260348201526054810191909152600090607401604051602081830303815290604052805190602001209050620012e36001600a546200370c90919063ffffffff16565b600a55600081815260156020526040902080546001600160a01b0319163317815542600182018190556003546200131b91906200370c565b600282015588516200133790600383019060208c019062003e00565b5087516200134f90600483019060208b019062003e6a565b5086516200136790600583019060208a019062003eca565b5084516200137f906006830190602088019062003f08565b50835162001397906007830190602087019062003f08565b50620013a58660016200370c565b6001600160401b03811115620013bf57620013bf620041f7565b604051908082528060200260200182016040528015620013e9578160200160208202803683370190505b5080516200140291600984019160209091019062003eca565b5060088101805460ff19166001908117909155600c5462001423916200370c565b600c5581600080516020620058ff833981519152600160405190815260200160405180910390a250601680546001810182556000919091527fd833147d7dc355ba459fc788f669e58cfaf9dc25ddcd0702e87d69c7b512428901819055979650505050505050565b6000838152601560205260409020600201544210620014be5760405162461bcd60e51b815260040162000d579062004e0c565b80620014ca33620036c0565b10158015620014f45750600083815260146020908152604080832033845290915290206001015481115b620015135760405162461bcd60e51b815260040162000d579062004e57565b60008381526014602090815260408083203384529091529020541580156200155557506000838152601460209081526040808320338452909152902060010154155b80620015a05750600083815260146020908152604080832033845290915290205482148015620015a05750600083815260146020908152604080832033845290915290206001015481115b620015bf5760405162461bcd60e51b815260040162000d579062004e9d565b620015cd338484846200371a565b505050565b606060028054620015e39062004cc6565b80601f0160208091040260200160405190810160405280929190818152602001828054620016119062004cc6565b801562000c0d5780601f10620016365761010080835404028352916020019162000c0d565b820191906000526020600020905b8154815290600101906020018083116200164457509395945050505050565b6000858152601560205260409020600201544210620016965760405162461bcd60e51b815260040162000d579062004e0c565b6000620016a68387878762002cc9565b60008181526013602052604090205490915060ff1615620017065760405162461bcd60e51b8152602060048201526019602482015278115490cc8c11dd5a5b190e88105b1c9958591e481d9bdd1959603a1b604482015260640162000d57565b6200176a8262001763836040517f19457468657265756d205369676e6564204d6573736167653a0a3332000000006020820152603c8101829052600090605c01604051602081830303815290604052805190602001209050919050565b906200397b565b6001600160a01b0316836001600160a01b031614620017cc5760405162461bcd60e51b815260206004820152601860248201527f45524332304775696c643a2057726f6e67207369676e65720000000000000000604482015260640162000d57565b6000818152601360205260409020805460ff1916600117905583620017f184620036c0565b1015801562001824575060008681526014602090815260408083206001600160a01b038716845290915290206001015484115b620018435760405162461bcd60e51b815260040162000d579062004e57565b60008681526014602090815260408083206001600160a01b038716845290915290205415801562001897575060008681526014602090815260408083206001600160a01b0387168452909152902060010154155b80620018f4575060008681526014602090815260408083206001600160a01b038716845290915290205485148015620018f4575060008681526014602090815260408083206001600160a01b038716845290915290206001015484115b620019135760405162461bcd60e51b815260040162000d579062004e9d565b62001921838787876200371a565b505050505050565b806200193533620036c0565b1015620019a45760405162461bcd60e51b815260206004820152603660248201527f45524332304775696c643a20556e61626c6520746f207769746864726177206d6044820152751bdc99481d1bdad95b9cc81d1a185b881b1bd8dad95960521b606482015260840162000d57565b33600090815260126020526040902060010154421162001a075760405162461bcd60e51b815260206004820152601f60248201527f45524332304775696c643a20546f6b656e73207374696c6c206c6f636b656400604482015260640162000d57565b6000811162001a7f5760405162461bcd60e51b815260206004820152603f60248201527f45524332304775696c643a20616d6f756e74206f6620746f6b656e7320746f2060448201527f7769746864726177206d7573742062652067726561746572207468616e203000606482015260840162000d57565b3360009081526012602052604090205462001a9b9082620039a3565b33600090815260126020526040902055600e5462001aba9082620039a3565b600e5560115460405163f3fef3a360e01b8152336004820152602481018390526001600160a01b039091169063f3fef3a390604401600060405180830381600087803b15801562001b0a57600080fd5b505af115801562001b1f573d6000803e3d6000fd5b5050505062001b2e33620036c0565b62001b4757600b5462001b43906001620039a3565b600b555b60408051338152602081018390527f6352c5382c4a4578e712449ca65e83cdb392d045dfcf1cad9615189db2da244b91015b60405180910390a150565b60156020526000908152604090208054600182015460028301546006840180546001600160a01b0390941694929391929162001bc09062004cc6565b80601f016020809104026020016040519081016040528092919081815260200182805462001bee9062004cc6565b801562001c3f5780601f1062001c135761010080835404028352916020019162001c3f565b820191906000526020600020905b81548152906001019060200180831162001c2157829003601f168201915b50505050509080600701805462001c569062004cc6565b80601f016020809104026020016040519081016040528092919081815260200182805462001c849062004cc6565b801562001cd55780601f1062001ca95761010080835404028352916020019162001cd5565b820191906000526020600020905b81548152906001019060200180831162001cb757829003601f168201915b5050506008909301549192505060ff1686565b60175462010000900460ff168062001d085750601754610100900460ff16155b62001d6d5760405162461bcd60e51b815260206004820152602e60248201527f496e697469616c697a61626c653a20636f6e747261637420697320616c72656160448201526d191e481a5b9a5d1a585b1a5e995960921b606482015260840162000d57565b60175462010000900460ff1615801562001d93576017805462ffff001916620101001790555b6001600160a01b038c1662001dfa5760405162461bcd60e51b815260206004820152602660248201527f45524332304775696c643a20746f6b656e2063616e74206265207a65726f206160448201526564647265737360d01b606482015260840162000d57565b60008b1162001e1d5760405162461bcd60e51b815260040162000d579062004d03565b8a83101562001e405760405162461bcd60e51b815260040162000d579062004d52565b6000891162001e635760405162461bcd60e51b815260040162000d579062004daf565b865162001e789060029060208a019062003f08565b50600080546001600160a01b0319166001600160a01b038e16908117909155604051309062001ea79062003f84565b6001600160a01b03928316815291166020820152604001604051809103906000f08015801562001edb573d6000803e3d6000fd5b50601180546001600160a01b03199081166001600160a01b039384161790915560038d905560048c905560058b905560068a9055600788905560088790556009869055600d85905560018054909116918416919091179055801562001f47576017805462ff0000191690555b505050505050505050505050565b62001f5f62003f92565b60008281526015602090815260409182902082516101408101845281546001600160a01b03168152600182015481840152600282015481850152600382018054855181860281018601909652808652919492936060860193929083018282801562001ff457602002820191906000526020600020905b81546001600160a01b0316815260019091019060200180831162001fd5575b5050505050815260200160048201805480602002602001604051908101604052809291908181526020016000905b82821015620020d8578382906000526020600020018054620020449062004cc6565b80601f0160208091040260200160405190810160405280929190818152602001828054620020729062004cc6565b8015620020c35780601f106200209757610100808354040283529160200191620020c3565b820191906000526020600020905b815481529060010190602001808311620020a557829003601f168201915b50505050508152602001906001019062002022565b505050508152602001600582018054806020026020016040519081016040528092919081815260200182805480156200213157602002820191906000526020600020905b8154815260200190600101908083116200211c575b505050505081526020016006820180546200214c9062004cc6565b80601f01602080910402602001604051908101604052809291908181526020018280546200217a9062004cc6565b8015620021cb5780601f106200219f57610100808354040283529160200191620021cb565b820191906000526020600020905b815481529060010190602001808311620021ad57829003601f168201915b50505050508152602001600782018054620021e69062004cc6565b80601f0160208091040260200160405190810160405280929190818152602001828054620022149062004cc6565b8015620022655780601f10620022395761010080835404028352916020019162002265565b820191906000526020600020905b8154815290600101906020018083116200224757829003601f168201915b5050509183525050600882015460209091019060ff1660048111156200228f576200228f62004601565b6004811115620022a357620022a362004601565b815260200160098201805480602002602001604051908101604052809291908181526020018280548015620022f857602002820191906000526020600020905b815481526020019060010190808311620022e3575b5050505050815250509050919050565b6060825184511480156200231d575081518351145b620023915760405162461bcd60e51b815260206004820152603f60248201527f45524332304775696c643a20496e76616c69642070726f706f73616c4964732c60448201527f206f7074696f6e73206f7220766f74696e67506f77657273206c656e67746800606482015260840162000d57565b60008085516001600160401b03811115620023b057620023b0620041f7565b604051908082528060200260200182016040528015620023da578160200160208202803683370190505b509050600091505b85518210156200277057426015600088858151811062002406576200240662004f04565b60200260200101518152602001908152602001600020600201541015620024545760008183815181106200243e576200243e62004f04565b911515602092830291909101909101526200275b565b83828151811062002469576200246962004f04565b60200260200101516200247c33620036c0565b1080620024f95750601460008784815181106200249d576200249d62004f04565b602002602001015181526020019081526020016000206000336001600160a01b03166001600160a01b0316815260200190815260200160002060010154848381518110620024ef57620024ef62004f04565b6020026020010151105b15620025165760008183815181106200243e576200243e62004f04565b601460008784815181106200252f576200252f62004f04565b602090810291909101810151825281810192909252604090810160009081203382529092529020541580620025b957506014600087848151811062002578576200257862004f04565b602002602001015181526020019081526020016000206000336001600160a01b03166001600160a01b03168152602001908152602001600020600101546000145b8015620026b35750848281518110620025d657620025d662004f04565b602002602001015160146000888581518110620025f757620025f762004f04565b602002602001015181526020019081526020016000206000336001600160a01b03166001600160a01b031681526020019081526020016000206000015414158015620026b3575083828151811062002653576200265362004f04565b60200260200101516014600088858151811062002674576200267462004f04565b602002602001015181526020019081526020016000206000336001600160a01b03166001600160a01b0316815260200190815260200160002060010154115b15620026d05760008183815181106200243e576200243e62004f04565b6001818381518110620026e757620026e762004f04565b6020026020010190151590811515815250506200275b3387848151811062002713576200271362004f04565b602002602001015187858151811062002730576200273062004f04565b60200260200101518786815181106200274d576200274d62004f04565b60200260200101516200371a565b81620027678162004f30565b925050620023e2565b95945050505050565b60008111620027e65760405162461bcd60e51b815260206004820152603260248201527f45524332304775696c643a20546f6b656e7320746f206c6f636b2073686f756c60448201527106420626520686967686572207468616e20360741b606482015260840162000d57565b620027f133620036c0565b6200280a57600b54620028069060016200370c565b600b555b6011546040516311f9fbc960e21b8152336004820152602481018390526001600160a01b03909116906347e7ef2490604401600060405180830381600087803b1580156200285757600080fd5b505af11580156200286c573d6000803e3d6000fd5b5050336000908152601260205260409020546200288d92509050826200370c565b33600090815260126020526040902055600d54620028ad9042906200370c565b33600090815260126020526040902060010155600e54620028cf90826200370c565b600e5560408051338152602081018390527fac87f20a77d28ee8bbb58ec87ea8fa968b3393efae1a368fd50b767c2847391c910162001b79565b6000620029198785858562002cc9565b90508581146200296c5760405162461bcd60e51b815260206004820152601d60248201527f45524332304775696c643a20496e76616c696420766f74652068617368000000604482015260640162000d57565b60008181526013602052604090205460ff1615620029c95760405162461bcd60e51b8152602060048201526019602482015278115490cc8c11dd5a5b190e88105b1c9958591e481d9bdd1959603a1b604482015260640162000d57565b6000620029d889888862002d20565b90508062002a355760405162461bcd60e51b8152602060048201526024808201527f45524332304775696c643a20496e76616c6964206d65726b6c652074726565206044820152633632b0b360e11b606482015260840162000d57565b600085815260156020526040902060020154421062002a685760405162461bcd60e51b815260040162000d579062004e0c565b8262002a7489620036c0565b1015801562002aa7575060008581526014602090815260408083206001600160a01b038c16845290915290206001015483115b62002ac65760405162461bcd60e51b815260040162000d579062004e57565b60008581526014602090815260408083206001600160a01b038c16845290915290205415801562002b1a575060008581526014602090815260408083206001600160a01b038c168452909152902060010154155b8062002b77575060008581526014602090815260408083206001600160a01b038c1684529091529020548414801562002b77575060008581526014602090815260408083206001600160a01b038c16845290915290206001015483115b62002b965760405162461bcd60e51b815260040162000d579062004e9d565b6000828152601360205260409020805460ff1916600117905562002bbd888686866200371a565b505050505050505050565b60005b875181101562002cbf5762002caa88828151811062002bee5762002bee62004f04565b602002602001015188838151811062002c0b5762002c0b62004f04565b602002602001015188848151811062002c285762002c2862004f04565b602002602001015188858151811062002c455762002c4562004f04565b602002602001015188868151811062002c625762002c6262004f04565b602002602001015188878151811062002c7f5762002c7f62004f04565b602002602001015188888151811062002c9c5762002c9c62004f04565b602002602001015162002909565b8062002cb68162004f30565b91505062002bcb565b5050505050505050565b6040516bffffffffffffffffffffffff19606086901b166020820152603481018490526054810183905260748101829052600090609401604051602081830303815290604052805190602001209050949350505050565b600062002d2f828585620039b1565b949350505050565b600062000cd561271062000cce60055462000cc7600e5490565b6016818154811062002d6257600080fd5b600091825260209091200154905081565b60175460ff161562002dd45760405162461bcd60e51b8152602060048201526024808201527f45524332304775696c643a2050726f706f73616c20756e6465722065786563756044820152633a34b7b760e11b606482015260840162000d57565b600160008281526015602052604090206008015460ff16600481111562002dff5762002dff62004601565b1462002e5c5760405162461bcd60e51b815260206004820152602560248201527f45524332304775696c643a2050726f706f73616c20616c72656164792065786560448201526418dd5d195960da1b606482015260840162000d57565b600081815260156020526040902060020154421162002ecc5760405162461bcd60e51b815260206004820152602560248201527f45524332304775696c643a2050726f706f73616c206861736e277420656e646560448201526419081e595d60da1b606482015260840162000d57565b60008181526015602052604081206009018054829190829062002ef35762002ef362004f04565b600091825260209091200154905060015b600084815260156020526040902060090154811015620030335762002f2862002d37565b600085815260156020526040902060090180548390811062002f4e5762002f4e62004f04565b90600052602060002001541015801562002f9a5750600084815260156020526040902060090180548391908390811062002f8c5762002f8c62004f04565b906000526020600020015410155b156200301e57600084815260156020526040902060090180548391908390811062002fc95762002fc962004f04565b9060005260206000200154141562002fe557600092506200301e565b6000848152601560205260409020600901805491935083918290811062003010576200301062004f04565b906000526020600020015491505b806200302a8162004f30565b91505062002f04565b8262003083576000848152601560205260409020600801805460ff191660029081179091558490600080516020620058ff833981519152905b60405190815260200160405180910390a2620036a7565b6004546000858152601560205260409020600201544291620030a691906200370c565b1015620030e5576000848152601560205260409020600801805460ff191660049081179091558490600080516020620058ff833981519152906200306c565b600084815260156020526040812060088101805460ff1916600317905560090154620031319062003118906001620039a3565b60008781526015602052604090206003015490620036f0565b90506200314c62003144856001620039a3565b8290620036db565b915060006200315c83836200370c565b9050600160009054906101000a90046001600160a01b03166001600160a01b0316633e7a47b26040518163ffffffff1660e01b8152600401600060405180830381600087803b158015620031af57600080fd5b505af1158015620031c4573d6000803e3d6000fd5b505050505b80831015620035fe576000868152601560205260408120600301805485908110620031f857620031f862004f04565b6000918252602090912001546001600160a01b03161480159062003258575060008681526015602052604081206004018054859081106200323d576200323d62004f04565b906000526020600020018054620032549062004cc6565b9050115b15620035e957600086815260156020526040812060040180548590811062003284576200328462004f04565b9060005260206000200180546200329b9062004cc6565b80601f0160208091040260200160405190810160405280929190818152602001828054620032c99062004cc6565b80156200331a5780601f10620032ee576101008083540402835291602001916200331a565b820191906000526020600020905b815481529060010190602001808311620032fc57829003601f168201915b50505060208084015160015460008d815260159093526040909220600301805495965090946001600160a01b03909216935063eed47033925030918990811062003368576200336862004f04565b9060005260206000200160009054906101000a90046001600160a01b031684601560008e81526020019081526020016000206005018a81548110620033b157620033b162004f04565b60009182526020909120015460405160e086901b6001600160e01b031990811682526001600160a01b039586166004830152939094166024850152911660448301526064820152608401600060405180830381600087803b1580156200341657600080fd5b505af192505050801562003428575060015b62003484576200343762004f4e565b806308c379a014156200347857506200344f62004f6b565b806200345c57506200347a565b8060405162461bcd60e51b815260040162000d5791906200414a565b505b3d6000803e3d6000fd5b6017805460ff191660011790556000888152601560205260408120600301805487908110620034b757620034b762004f04565b60009182526020808320909101548b83526015909152604090912060050180546001600160a01b039092169188908110620034f657620034f662004f04565b9060005260206000200154601560008c815260200190815260200160002060040188815481106200352b576200352b62004f04565b9060005260206000200160405162003544919062004ffa565b60006040518083038185875af1925050503d806000811462003583576040519150601f19603f3d011682016040523d82523d6000602084013e62003588565b606091505b5050905080620035db5760405162461bcd60e51b815260206004820181905260248201527f45524332304775696c643a2050726f706f73616c2063616c6c206661696c6564604482015260640162000d57565b50506017805460ff19169055505b82620035f58162004f30565b935050620031c9565b60015460405163fb0fde8560e01b81523060048201526001600160a01b039091169063fb0fde8590602401602060405180830381600087803b1580156200364457600080fd5b505af115801562003659573d6000803e3d6000fd5b505050506040513d601f19601f820116820180604052508101906200367f91906200509e565b5085600080516020620058ff833981519152600360405190815260200160405180910390a250505b600c54620036b7906001620039a3565b600c5550505050565b6001600160a01b031660009081526012602052604090205490565b6000620036e98284620050c2565b9392505050565b6000620036e98284620050fa565b6000620036e9828462005111565b6000620036e9828462005128565b60008381526014602090815260408083206001600160a01b038816845282528083206001015486845260159092529091206009018054620037909284926200378992879081106200376f576200376f62004f04565b9060005260206000200154620039a390919063ffffffff16565b906200370c565b6000848152601560205260409020600901805484908110620037b657620037b662004f04565b60009182526020808320909101929092558481526014825260408082206001600160a01b03881683528352808220858155600101849055858252601590925220600201546200381d856001600160a01b031660009081526012602052604090206001015490565b101562003852576000838152601560209081526040808320600201546001600160a01b03881684526012909252909120600101555b604080516001600160a01b038616815260208101839052839185917f583c62f152711bcb1ca6186c1065821ff17a7cbe226dcb559a1c889dcf0d769b910160405180910390a36007541562003975576000620038c8620038be6008543a620039c990919063ffffffff16565b60075490620036db565b9050804710158015620038da5750333b155b156200397357604051600090339083908381818185875af1925050503d806000811462003924576040519150601f19603f3d011682016040523d82523d6000602084013e62003929565b606091505b5050905080620019215760405162461bcd60e51b81526020600482015260146024820152734661696c656420746f20726566756e642067617360601b604482015260640162000d57565b505b50505050565b60008060006200398c8585620039e1565b915091506200399b8162003a57565b509392505050565b6000620036e9828462005143565b600082620039c0858462003c2d565b14949350505050565b6000818310620039da5781620036e9565b5090919050565b60008082516041141562003a1c5760208301516040840151606085015160001a62003a0f8782858562003cda565b9450945050505062000e9e565b82516040141562003a4a576020830151604084015162003a3e86838362003dcf565b93509350505062000e9e565b5060009050600262000e9e565b600081600481111562003a6e5762003a6e62004601565b141562003a785750565b600181600481111562003a8f5762003a8f62004601565b141562003adf5760405162461bcd60e51b815260206004820152601860248201527f45434453413a20696e76616c6964207369676e61747572650000000000000000604482015260640162000d57565b600281600481111562003af65762003af662004601565b141562003b465760405162461bcd60e51b815260206004820152601f60248201527f45434453413a20696e76616c6964207369676e6174757265206c656e67746800604482015260640162000d57565b600381600481111562003b5d5762003b5d62004601565b141562003bb85760405162461bcd60e51b815260206004820152602260248201527f45434453413a20696e76616c6964207369676e6174757265202773272076616c604482015261756560f01b606482015260840162000d57565b600481600481111562003bcf5762003bcf62004601565b141562003c2a5760405162461bcd60e51b815260206004820152602260248201527f45434453413a20696e76616c6964207369676e6174757265202776272076616c604482015261756560f01b606482015260840162000d57565b50565b600081815b84518110156200399b57600085828151811062003c535762003c5362004f04565b6020026020010151905080831162003c9757604080516020810185905290810182905260600160405160208183030381529060405280519060200120925062003cc4565b60408051602081018390529081018490526060016040516020818303038152906040528051906020012092505b508062003cd18162004f30565b91505062003c32565b6000807f7fffffffffffffffffffffffffffffff5d576e7357a4501ddfe92f46681b20a083111562003d13575060009050600362003dc6565b8460ff16601b1415801562003d2c57508460ff16601c14155b1562003d3f575060009050600462003dc6565b6040805160008082526020820180845289905260ff881692820192909252606081018690526080810185905260019060a0016020604051602081039080840390855afa15801562003d94573d6000803e3d6000fd5b5050604051601f1901519150506001600160a01b03811662003dbf5760006001925092505062003dc6565b9150600090505b94509492505050565b6000806001600160ff1b03831660ff84901c601b0162003df28782888562003cda565b935093505050935093915050565b82805482825590600052602060002090810192821562003e58579160200282015b8281111562003e5857825182546001600160a01b0319166001600160a01b0390911617825560209092019160019091019062003e21565b5062003e6692915062004002565b5090565b82805482825590600052602060002090810192821562003ebc579160200282015b8281111562003ebc578251805162003eab91849160209091019062003f08565b509160200191906001019062003e8b565b5062003e6692915062004019565b82805482825590600052602060002090810192821562003e58579160200282015b8281111562003e5857825182559160200191906001019062003eeb565b82805462003f169062004cc6565b90600052602060002090601f01602090048101928262003f3a576000855562003e58565b82601f1062003f5557805160ff191683800117855562003e58565b8280016001018555821562003e58579182018281111562003e5857825182559160200191906001019062003eeb565b6107a1806200515e83390190565b60405180610140016040528060006001600160a01b03168152602001600081526020016000815260200160608152602001606081526020016060815260200160608152602001606081526020016000600481111562003ff55762003ff562004601565b8152602001606081525090565b5b8082111562003e66576000815560010162004003565b8082111562003e665760006200403082826200403a565b5060010162004019565b508054620040489062004cc6565b6000825580601f1062004059575050565b601f01602090049060005260206000209081019062003c2a919062004002565b6020808252825182820181905260009190848201906040850190845b81811015620040b35783518352928401929184019160010162004095565b50909695505050505050565b80356001600160a01b0381168114620040d757600080fd5b919050565b600060208284031215620040ef57600080fd5b620036e982620040bf565b6000815180845260005b81811015620041225760208185018101518683018201520162004104565b8181111562004135576000602083870101525b50601f01601f19169290920160200192915050565b602081526000620036e96020830184620040fa565b6000806000806000806000806000806101408b8d0312156200418057600080fd5b505088359a60208a01359a5060408a013599606081013599506080810135985060a0810135975060c0810135965060e081013595506101008101359450610120013592509050565b60008060408385031215620041dc57600080fd5b82359150620041ee60208401620040bf565b90509250929050565b634e487b7160e01b600052604160045260246000fd5b601f8201601f191681016001600160401b0381118282101715620042355762004235620041f7565b6040525050565b60006001600160401b03821115620042585762004258620041f7565b5060051b60200190565b600082601f8301126200427457600080fd5b8135602062004283826200423c565b6040516200429282826200420d565b83815260059390931b8501820192828101915086841115620042b357600080fd5b8286015b84811015620042d957620042cb81620040bf565b8352918301918301620042b7565b509695505050505050565b600082601f830112620042f657600080fd5b81356001600160401b03811115620043125762004312620041f7565b6040516200432b601f8301601f1916602001826200420d565b8181528460208386010111156200434157600080fd5b816020850160208301376000918101602001919091529392505050565b600082601f8301126200437057600080fd5b813560206200437f826200423c565b6040516200438e82826200420d565b83815260059390931b8501820192828101915086841115620043af57600080fd5b8286015b84811015620042d95780356001600160401b03811115620043d45760008081fd5b620043e48986838b0101620042e4565b845250918301918301620043b3565b600082601f8301126200440557600080fd5b8135602062004414826200423c565b6040516200442382826200420d565b83815260059390931b85018201928281019150868411156200444457600080fd5b8286015b84811015620042d9578035835291830191830162004448565b60008060008060008060c087890312156200447b57600080fd5b86356001600160401b03808211156200449357600080fd5b620044a18a838b0162004262565b97506020890135915080821115620044b857600080fd5b620044c68a838b016200435e565b96506040890135915080821115620044dd57600080fd5b620044eb8a838b01620043f3565b95506060890135945060808901359150808211156200450957600080fd5b620045178a838b01620042e4565b935060a08901359150808211156200452e57600080fd5b506200453d89828a01620042e4565b9150509295509295509295565b6000806000606084860312156200456057600080fd5b505081359360208301359350604090920135919050565b600080600080600060a086880312156200459057600080fd5b853594506020860135935060408601359250620045b060608701620040bf565b915060808601356001600160401b03811115620045cc57600080fd5b620045da88828901620042e4565b9150509295509295909350565b600060208284031215620045fa57600080fd5b5035919050565b634e487b7160e01b600052602160045260246000fd5b600581106200463657634e487b7160e01b600052602160045260246000fd5b9052565b60018060a01b038716815285602082015284604082015260c0606082015260006200466960c0830186620040fa565b82810360808401526200467d8186620040fa565b9150506200468f60a083018462004617565b979650505050505050565b60008060008060008060008060008060006101608c8e031215620046bd57600080fd5b620046c88c620040bf565b9a5060208c0135995060408c0135985060608c0135975060808c0135965060a08c01356001600160401b038111156200470057600080fd5b6200470e8e828f01620042e4565b96505060c08c0135945060e08c013593506101008c013592506101208c013591506200473e6101408d01620040bf565b90509295989b509295989b9093969950565b600081518084526020808501945080840160005b838110156200478b5781516001600160a01b03168752958201959082019060010162004764565b509495945050505050565b600081518084526020808501808196508360051b8101915082860160005b85811015620047e2578284038952620047cf848351620040fa565b98850198935090840190600101620047b4565b5091979650505050505050565b600081518084526020808501945080840160005b838110156200478b5781518752958201959082019060010162004803565b602081526200483c6020820183516001600160a01b03169052565b6020820151604082015260408201516060820152600060608301516101408060808501526200487061016085018362004750565b91506080850151601f19808685030160a087015262004890848362004796565b935060a08701519150808685030160c0870152620048af8483620047ef565b935060c08701519150808685030160e0870152620048ce8483620040fa565b935060e08701519150610100818786030181880152620048ef8584620040fa565b945080880151925050610120620049098188018462004617565b870151868503909101838701529050620049248382620047ef565b9695505050505050565b6000806000606084860312156200494457600080fd5b83356001600160401b03808211156200495c57600080fd5b6200496a87838801620043f3565b945060208601359150808211156200498157600080fd5b6200498f87838801620043f3565b93506040860135915080821115620049a657600080fd5b50620049b586828701620043f3565b9150509250925092565b6020808252825182820181905260009190848201906040850190845b81811015620040b3578351151583529284019291840191600101620049db565b600080600080600080600060e0888a03121562004a1757600080fd5b8735965062004a2960208901620040bf565b95506040880135945060608801356001600160401b0381111562004a4c57600080fd5b62004a5a8a828b01620043f3565b979a969950949760808101359660a0820135965060c090910135945092505050565b600082601f83011262004a8e57600080fd5b8135602062004a9d826200423c565b60405162004aac82826200420d565b83815260059390931b850182019282810191508684111562004acd57600080fd5b8286015b84811015620042d95780356001600160401b0381111562004af25760008081fd5b62004b028986838b0101620043f3565b84525091830191830162004ad1565b600080600080600080600060e0888a03121562004b2d57600080fd5b87356001600160401b038082111562004b4557600080fd5b62004b538b838c01620043f3565b985060208a013591508082111562004b6a57600080fd5b62004b788b838c0162004262565b975060408a013591508082111562004b8f57600080fd5b62004b9d8b838c01620043f3565b965060608a013591508082111562004bb457600080fd5b62004bc28b838c0162004a7c565b955060808a013591508082111562004bd957600080fd5b62004be78b838c01620043f3565b945060a08a013591508082111562004bfe57600080fd5b62004c0c8b838c01620043f3565b935060c08a013591508082111562004c2357600080fd5b5062004c328a828b01620043f3565b91505092959891949750929550565b6000806000806080858703121562004c5857600080fd5b62004c6385620040bf565b966020860135965060408601359560600135945092505050565b60008060006060848603121562004c9357600080fd5b833592506020840135915060408401356001600160401b0381111562004cb857600080fd5b620049b586828701620043f3565b600181811c9082168062004cdb57607f821691505b6020821081141562004cfd57634e487b7160e01b600052602260045260246000fd5b50919050565b6020808252602f908201527f45524332304775696c643a2070726f706f73616c2074696d652068617320746f60408201526e0206265206d6f7265207468616e203608c1b606082015260800190565b6020808252603e908201527f45524332304775696c643a206c6f636b54696d652068617320746f206265206860408201527f6967686572206f7220657175616c20746f2070726f706f73616c54696d650000606082015260800190565b6020808252603c908201527f45524332304775696c643a20766f74696e6720706f77657220666f722065786560408201527f637574696f6e2068617320746f206265206d6f7265207468616e203000000000606082015260800190565b6020808252602b908201527f45524332304775696c643a2050726f706f73616c20656e6465642c2063616e6e60408201526a1bdd081899481d9bdd195960aa1b606082015260800190565b60208082526026908201527f45524332304775696c643a20496e76616c696420766f74696e67506f77657220604082015265185b5bdd5b9d60d21b606082015260800190565b60208082526041908201527f45524332304775696c643a2043616e6e6f74206368616e6765206f7074696f6e60408201527f20766f7465642c206f6e6c7920696e63726561736520766f74696e67506f77656060820152603960f91b608082015260a00190565b634e487b7160e01b600052603260045260246000fd5b634e487b7160e01b600052601160045260246000fd5b600060001982141562004f475762004f4762004f1a565b5060010190565b600060033d111562004f685760046000803e5060005160e01c5b90565b600060443d101562004f7a5790565b6040516003193d81016004833e81513d6001600160401b03816024840111818411171562004faa57505050505090565b828501915081518181111562004fc35750505050505090565b843d870101602082850101111562004fde5750505050505090565b62004fef602082860101876200420d565b509095945050505050565b600080835481600182811c9150808316806200501757607f831692505b60208084108214156200503857634e487b7160e01b86526022600452602486fd5b8180156200504f5760018114620050615762005090565b60ff1986168952848901965062005090565b60008a81526020902060005b86811015620050885781548b8201529085019083016200506d565b505084890196505b509498975050505050505050565b600060208284031215620050b157600080fd5b81518015158114620036e957600080fd5b6000816000190483118215151615620050df57620050df62004f1a565b500290565b634e487b7160e01b600052601260045260246000fd5b6000826200510c576200510c620050e4565b500490565b600082620051235762005123620050e4565b500690565b600082198211156200513e576200513e62004f1a565b500190565b60008282101562005158576200515862004f1a565b50039056fe608060405234801561001057600080fd5b506040516107a13803806107a183398101604081905261002f9161007c565b600080546001600160a01b039384166001600160a01b031991821617909155600180549290931691161790556100af565b80516001600160a01b038116811461007757600080fd5b919050565b6000806040838503121561008f57600080fd5b61009883610060565b91506100a660208401610060565b90509250929050565b6106e3806100be6000396000f3fe608060405234801561001057600080fd5b506004361061007d5760003560e01c80636e9960c31161005b5780636e9960c3146100ef578063f3fef3a314610100578063f851a44014610113578063fc0c546a1461012657600080fd5b806321df0da71461008257806327e235e3146100ac57806347e7ef24146100da575b600080fd5b6000546001600160a01b03165b6040516001600160a01b0390911681526020015b60405180910390f35b6100cc6100ba366004610586565b60026020526000908152604090205481565b6040519081526020016100a3565b6100ed6100e83660046105a1565b610139565b005b6001546001600160a01b031661008f565b6100ed61010e3660046105a1565b61020a565b60015461008f906001600160a01b031681565b60005461008f906001600160a01b031681565b6001546001600160a01b031633146101af5760405162461bcd60e51b815260206004820152602e60248201527f546f6b656e5661756c743a204465706f736974206d7573742062652073656e7460448201526d103a343937bab3b41030b236b4b760911b60648201526084015b60405180910390fd5b6000546101c7906001600160a01b031683308461025b565b6001600160a01b0382166000908152600260205260409020546101ea90826102cc565b6001600160a01b0390921660009081526002602052604090209190915550565b6001546001600160a01b0316331461022157600080fd5b600054610238906001600160a01b031683836102df565b6001600160a01b0382166000908152600260205260409020546101ea9082610314565b6040516001600160a01b03808516602483015283166044820152606481018290526102c69085906323b872dd60e01b906084015b60408051601f198184030181529190526020810180516001600160e01b03166001600160e01b031990931692909217909152610320565b50505050565b60006102d882846105e1565b9392505050565b6040516001600160a01b03831660248201526044810182905261030f90849063a9059cbb60e01b9060640161028f565b505050565b60006102d882846105f9565b6000610375826040518060400160405280602081526020017f5361666545524332303a206c6f772d6c6576656c2063616c6c206661696c6564815250856001600160a01b03166103f29092919063ffffffff16565b80519091501561030f57808060200190518101906103939190610610565b61030f5760405162461bcd60e51b815260206004820152602a60248201527f5361666545524332303a204552433230206f7065726174696f6e20646964206e6044820152691bdd081cdd58d8d9595960b21b60648201526084016101a6565b60606104018484600085610409565b949350505050565b60608247101561046a5760405162461bcd60e51b815260206004820152602660248201527f416464726573733a20696e73756666696369656e742062616c616e636520666f6044820152651c8818d85b1b60d21b60648201526084016101a6565b843b6104b85760405162461bcd60e51b815260206004820152601d60248201527f416464726573733a2063616c6c20746f206e6f6e2d636f6e747261637400000060448201526064016101a6565b600080866001600160a01b031685876040516104d4919061065e565b60006040518083038185875af1925050503d8060008114610511576040519150601f19603f3d011682016040523d82523d6000602084013e610516565b606091505b5091509150610526828286610531565b979650505050505050565b606083156105405750816102d8565b8251156105505782518084602001fd5b8160405162461bcd60e51b81526004016101a6919061067a565b80356001600160a01b038116811461058157600080fd5b919050565b60006020828403121561059857600080fd5b6102d88261056a565b600080604083850312156105b457600080fd5b6105bd8361056a565b946020939093013593505050565b634e487b7160e01b600052601160045260246000fd5b600082198211156105f4576105f46105cb565b500190565b60008282101561060b5761060b6105cb565b500390565b60006020828403121561062257600080fd5b815180151581146102d857600080fd5b60005b8381101561064d578181015183820152602001610635565b838111156102c65750506000910152565b60008251610670818460208701610632565b9190910192915050565b6020815260008251806020840152610699816040850160208701610632565b601f01601f1916919091016040019291505056fea2646970667358221220f83df9be484204d29c000a118187aee7d3ca7efcb094476e4ad893327bb967b564736f6c63430008080033fee62a9eec0be50eb061c711990ef0f1e17b40ea131d9347b0468acdaf8bf243a2646970667358221220195bac2ded020048afbbc8dcc00be9fa4ee6f03475f19e293e27b0781c5a522764736f6c63430008080033",
  "linkReferences": {},
  "deployedLinkReferences": {}
}