{
  "_format": "hh-sol-artifact-1",
  "contractName": "Multicall",
  "sourceName": "contracts/utils/Multicall.sol",
  "abi": [
    {
      "inputs": [
        {
          "components": [
            {
              "internalType": "address",
              "name": "target",
              "type": "address"
            },
            {
              "internalType": "bytes",
              "name": "callData",
              "type": "bytes"
            }
          ],
          "internalType": "struct Multicall.Call[]",
          "name": "calls",
          "type": "tuple[]"
        }
      ],
      "name": "aggregate",
      "outputs": [
        {
          "internalType": "uint256",
          "name": "blockNumber",
          "type": "uint256"
        },
        {
          "internalType": "bytes[]",
          "name": "returnData",
          "type": "bytes[]"
        }
      ],
      "stateMutability": "nonpayable",
      "type": "function"
    },
    {
      "inputs": [
        {
          "internalType": "uint256",
          "name": "blockNumber",
          "type": "uint256"
        }
      ],
      "name": "getBlockHash",
      "outputs": [
        {
          "internalType": "bytes32",
          "name": "blockHash",
          "type": "bytes32"
        }
      ],
      "stateMutability": "view",
      "type": "function"
    },
    {
      "inputs": [],
      "name": "getCurrentBlockCoinbase",
      "outputs": [
        {
          "internalType": "address",
          "name": "coinbase",
          "type": "address"
        }
      ],
      "stateMutability": "view",
      "type": "function"
    },
    {
      "inputs": [],
      "name": "getCurrentBlockDifficulty",
      "outputs": [
        {
          "internalType": "uint256",
          "name": "difficulty",
          "type": "uint256"
        }
      ],
      "stateMutability": "view",
      "type": "function"
    },
    {
      "inputs": [],
      "name": "getCurrentBlockGasLimit",
      "outputs": [
        {
          "internalType": "uint256",
          "name": "gaslimit",
          "type": "uint256"
        }
      ],
      "stateMutability": "view",
      "type": "function"
    },
    {
      "inputs": [],
      "name": "getCurrentBlockTimestamp",
      "outputs": [
        {
          "internalType": "uint256",
          "name": "timestamp",
          "type": "uint256"
        }
      ],
      "stateMutability": "view",
      "type": "function"
    },
    {
      "inputs": [
        {
          "internalType": "address",
          "name": "addr",
          "type": "address"
        }
      ],
      "name": "getEthBalance",
      "outputs": [
        {
          "internalType": "uint256",
          "name": "balance",
          "type": "uint256"
        }
      ],
      "stateMutability": "view",
      "type": "function"
    },
    {
      "inputs": [],
      "name": "getLastBlockHash",
      "outputs": [
        {
          "internalType": "bytes32",
          "name": "blockHash",
          "type": "bytes32"
        }
      ],
      "stateMutability": "view",
      "type": "function"
    },
    {
      "inputs": [
        {
          "internalType": "bytes[]",
          "name": "data",
          "type": "bytes[]"
        }
      ],
      "name": "multicall",
      "outputs": [
        {
          "internalType": "bytes[]",
          "name": "results",
          "type": "bytes[]"
        }
      ],
      "stateMutability": "payable",
      "type": "function"
    }
  ],
  "bytecode": "0x608060405234801561001057600080fd5b50610976806100206000396000f3fe6080604052600436106100865760003560e01c806372425d9d1161005957806372425d9d1461011857806386d516e81461012b578063a8b0574e1461013e578063ac9650d814610159578063ee82ac5e1461017957600080fd5b80630f28c97d1461008b578063252dba42146100ad57806327e86d6e146100db5780634d2301cc146100f0575b600080fd5b34801561009757600080fd5b50425b6040519081526020015b60405180910390f35b3480156100b957600080fd5b506100cd6100c8366004610500565b610198565b6040516100a49291906106fa565b3480156100e757600080fd5b5061009a6102d8565b3480156100fc57600080fd5b5061009a61010b36600461071b565b6001600160a01b03163190565b34801561012457600080fd5b504461009a565b34801561013757600080fd5b504561009a565b34801561014a57600080fd5b506040514181526020016100a4565b61016c61016736600461073d565b6102eb565b6040516100a491906107b2565b34801561018557600080fd5b5061009a6101943660046107c5565b4090565b8051439060609067ffffffffffffffff8111156101b7576101b761044c565b6040519080825280602002602001820160405280156101ea57816020015b60608152602001906001900390816101d55790505b50905060005b83518110156102d25760008085838151811061020e5761020e6107de565b6020026020010151600001516001600160a01b0316868481518110610235576102356107de565b60200260200101516020015160405161024e91906107f4565b6000604051808303816000865af19150503d806000811461028b576040519150601f19603f3d011682016040523d82523d6000602084013e610290565b606091505b50915091508161029f57600080fd5b808484815181106102b2576102b26107de565b6020026020010181905250505080806102ca90610826565b9150506101f0565b50915091565b60006102e5600143610841565b40905090565b60608167ffffffffffffffff8111156103065761030661044c565b60405190808252806020026020018201604052801561033957816020015b60608152602001906001900390816103245790505b50905060005b82811015610445576000803086868581811061035d5761035d6107de565b905060200281019061036f9190610858565b60405161037d9291906108a6565b600060405180830381855af49150503d80600081146103b8576040519150601f19603f3d011682016040523d82523d6000602084013e6103bd565b606091505b509150915081610412576044815110156103d657600080fd5b600481019050808060200190518101906103f091906108b6565b60405162461bcd60e51b8152600401610409919061092d565b60405180910390fd5b80848481518110610425576104256107de565b60200260200101819052505050808061043d90610826565b91505061033f565b5092915050565b634e487b7160e01b600052604160045260246000fd5b6040805190810167ffffffffffffffff811182821017156104855761048561044c565b60405290565b604051601f8201601f1916810167ffffffffffffffff811182821017156104b4576104b461044c565b604052919050565b80356001600160a01b03811681146104d357600080fd5b919050565b600067ffffffffffffffff8211156104f2576104f261044c565b50601f01601f191660200190565b6000602080838503121561051357600080fd5b823567ffffffffffffffff8082111561052b57600080fd5b818501915085601f83011261053f57600080fd5b8135818111156105515761055161044c565b8060051b61056085820161048b565b918252838101850191858101908984111561057a57600080fd5b86860192505b8383101561063f578235858111156105985760008081fd5b86016040818c03601f19018113156105b05760008081fd5b6105b8610462565b6105c38a84016104bc565b815281830135888111156105d75760008081fd5b8084019350508c603f8401126105ed5760008081fd5b898301356106026105fd826104d8565b61048b565b8181528e848387010111156106175760008081fd5b818486018d83013760009181018c0191909152818b0152845250509186019190860190610580565b9998505050505050505050565b60005b8381101561066757818101518382015260200161064f565b83811115610676576000848401525b50505050565b6000815180845261069481602086016020860161064c565b601f01601f19169290920160200192915050565b6000815180845260208085019450848260051b860182860160005b858110156106ed5783830389526106db83835161067c565b988501989250908401906001016106c3565b5090979650505050505050565b82815260406020820152600061071360408301846106a8565b949350505050565b60006020828403121561072d57600080fd5b610736826104bc565b9392505050565b6000806020838503121561075057600080fd5b823567ffffffffffffffff8082111561076857600080fd5b818501915085601f83011261077c57600080fd5b81358181111561078b57600080fd5b8660208260051b85010111156107a057600080fd5b60209290920196919550909350505050565b60208152600061073660208301846106a8565b6000602082840312156107d757600080fd5b5035919050565b634e487b7160e01b600052603260045260246000fd5b6000825161080681846020870161064c565b9190910192915050565b634e487b7160e01b600052601160045260246000fd5b600060001982141561083a5761083a610810565b5060010190565b60008282101561085357610853610810565b500390565b6000808335601e1984360301811261086f57600080fd5b83018035915067ffffffffffffffff82111561088a57600080fd5b60200191503681900382131561089f57600080fd5b9250929050565b8183823760009101908152919050565b6000602082840312156108c857600080fd5b815167ffffffffffffffff8111156108df57600080fd5b8201601f810184136108f057600080fd5b80516108fe6105fd826104d8565b81815285602083850101111561091357600080fd5b61092482602083016020860161064c565b95945050505050565b602081526000610736602083018461067c56fea26469706673582212203a06454be0df4d7f64bf1469fa5ef4fafd65639c6aa431a4b0755c2ef2bbe07464736f6c63430008080033",
  "linkReferences": {},
  "deployedLinkReferences": {}
}