{
  "_format": "hh-sol-artifact-1",
  "contractName": "PermissionRegistry",
  "sourceName": "contracts/utils/PermissionRegistry.sol",
  "abi": [
    {
      "anonymous": false,
      "inputs": [
        {
          "indexed": true,
          "internalType": "address",
          "name": "previousOwner",
          "type": "address"
        },
        {
          "indexed": true,
          "internalType": "address",
          "name": "newOwner",
          "type": "address"
        }
      ],
      "name": "OwnershipTransferred",
      "type": "event"
    },
    {
      "anonymous": false,
      "inputs": [
        {
          "indexed": false,
          "internalType": "address",
          "name": "from",
          "type": "address"
        },
        {
          "indexed": false,
          "internalType": "address",
          "name": "to",
          "type": "address"
        },
        {
          "indexed": false,
          "internalType": "bytes4",
          "name": "functionSignature",
          "type": "bytes4"
        },
        {
          "indexed": false,
          "internalType": "uint256",
          "name": "fromTime",
          "type": "uint256"
        },
        {
          "indexed": false,
          "internalType": "uint256",
          "name": "value",
          "type": "uint256"
        }
      ],
      "name": "PermissionSet",
      "type": "event"
    },
    {
      "inputs": [
        {
          "internalType": "address",
          "name": "from",
          "type": "address"
        },
        {
          "internalType": "address",
          "name": "token",
          "type": "address"
        },
        {
          "internalType": "uint256",
          "name": "valueAllowed",
          "type": "uint256"
        },
        {
          "internalType": "uint256",
          "name": "index",
          "type": "uint256"
        }
      ],
      "name": "addERC20Limit",
      "outputs": [],
      "stateMutability": "nonpayable",
      "type": "function"
    },
    {
      "inputs": [
        {
          "internalType": "address",
          "name": "from",
          "type": "address"
        }
      ],
      "name": "checkERC20Limits",
      "outputs": [
        {
          "internalType": "bool",
          "name": "",
          "type": "bool"
        }
      ],
      "stateMutability": "nonpayable",
      "type": "function"
    },
    {
      "inputs": [
        {
          "internalType": "address",
          "name": "",
          "type": "address"
        },
        {
          "internalType": "address",
          "name": "",
          "type": "address"
        },
        {
          "internalType": "bytes4",
          "name": "",
          "type": "bytes4"
        }
      ],
      "name": "ethPermissions",
      "outputs": [
        {
          "internalType": "uint256",
          "name": "valueTransferred",
          "type": "uint256"
        },
        {
          "internalType": "uint256",
          "name": "valueTransferedOnBlock",
          "type": "uint256"
        },
        {
          "internalType": "uint256",
          "name": "valueAllowed",
          "type": "uint256"
        },
        {
          "internalType": "uint256",
          "name": "fromTime",
          "type": "uint256"
        }
      ],
      "stateMutability": "view",
      "type": "function"
    },
    {
      "inputs": [
        {
          "internalType": "address",
          "name": "from",
          "type": "address"
        },
        {
          "internalType": "uint256",
          "name": "index",
          "type": "uint256"
        }
      ],
      "name": "executeRemoveERC20Limit",
      "outputs": [],
      "stateMutability": "nonpayable",
      "type": "function"
    },
    {
      "inputs": [
        {
          "internalType": "address",
          "name": "from",
          "type": "address"
        },
        {
          "internalType": "address",
          "name": "token",
          "type": "address"
        }
      ],
      "name": "getERC20Limit",
      "outputs": [
        {
          "internalType": "uint256",
          "name": "",
          "type": "uint256"
        }
      ],
      "stateMutability": "view",
      "type": "function"
    },
    {
      "inputs": [
        {
          "internalType": "address",
          "name": "from",
          "type": "address"
        },
        {
          "internalType": "address",
          "name": "to",
          "type": "address"
        },
        {
          "internalType": "bytes4",
          "name": "functionSignature",
          "type": "bytes4"
        }
      ],
      "name": "getETHPermission",
      "outputs": [
        {
          "internalType": "uint256",
          "name": "valueAllowed",
          "type": "uint256"
        },
        {
          "internalType": "uint256",
          "name": "fromTime",
          "type": "uint256"
        }
      ],
      "stateMutability": "view",
      "type": "function"
    },
    {
      "inputs": [
        {
          "internalType": "address",
          "name": "from",
          "type": "address"
        }
      ],
      "name": "getETHPermissionDelay",
      "outputs": [
        {
          "internalType": "uint256",
          "name": "",
          "type": "uint256"
        }
      ],
      "stateMutability": "view",
      "type": "function"
    },
    {
      "inputs": [],
      "name": "initialize",
      "outputs": [],
      "stateMutability": "nonpayable",
      "type": "function"
    },
    {
      "inputs": [],
      "name": "owner",
      "outputs": [
        {
          "internalType": "address",
          "name": "",
          "type": "address"
        }
      ],
      "stateMutability": "view",
      "type": "function"
    },
    {
      "inputs": [
        {
          "internalType": "address",
          "name": "",
          "type": "address"
        }
      ],
      "name": "permissionDelay",
      "outputs": [
        {
          "internalType": "uint256",
          "name": "",
          "type": "uint256"
        }
      ],
      "stateMutability": "view",
      "type": "function"
    },
    {
      "inputs": [
        {
          "internalType": "address",
          "name": "from",
          "type": "address"
        },
        {
          "internalType": "uint256",
          "name": "index",
          "type": "uint256"
        }
      ],
      "name": "removeERC20Limit",
      "outputs": [],
      "stateMutability": "nonpayable",
      "type": "function"
    },
    {
      "inputs": [],
      "name": "renounceOwnership",
      "outputs": [],
      "stateMutability": "nonpayable",
      "type": "function"
    },
    {
      "inputs": [],
      "name": "setERC20Balances",
      "outputs": [],
      "stateMutability": "nonpayable",
      "type": "function"
    },
    {
      "inputs": [
        {
          "internalType": "address",
          "name": "from",
          "type": "address"
        },
        {
          "internalType": "address",
          "name": "to",
          "type": "address"
        },
        {
          "internalType": "bytes4",
          "name": "functionSignature",
          "type": "bytes4"
        },
        {
          "internalType": "uint256",
          "name": "valueAllowed",
          "type": "uint256"
        },
        {
          "internalType": "bool",
          "name": "allowed",
          "type": "bool"
        }
      ],
      "name": "setETHPermission",
      "outputs": [],
      "stateMutability": "nonpayable",
      "type": "function"
    },
    {
      "inputs": [
        {
          "internalType": "address",
          "name": "from",
          "type": "address"
        },
        {
          "internalType": "uint256",
          "name": "_timeDelay",
          "type": "uint256"
        }
      ],
      "name": "setETHPermissionDelay",
      "outputs": [],
      "stateMutability": "nonpayable",
      "type": "function"
    },
    {
      "inputs": [
        {
          "internalType": "address",
          "name": "from",
          "type": "address"
        },
        {
          "internalType": "address",
          "name": "to",
          "type": "address"
        },
        {
          "internalType": "bytes4",
          "name": "functionSignature",
          "type": "bytes4"
        },
        {
          "internalType": "uint256",
          "name": "valueTransferred",
          "type": "uint256"
        }
      ],
      "name": "setETHPermissionUsed",
      "outputs": [],
      "stateMutability": "nonpayable",
      "type": "function"
    },
    {
      "inputs": [
        {
          "internalType": "address",
          "name": "newOwner",
          "type": "address"
        }
      ],
      "name": "transferOwnership",
      "outputs": [],
      "stateMutability": "nonpayable",
      "type": "function"
    }
  ],
  "bytecode": "0x608060405234801561001057600080fd5b506119c7806100206000396000f3fe608060405234801561001057600080fd5b506004361061010b5760003560e01c80638d2b9eff116100a2578063e926b6b511610071578063e926b6b514610250578063ea41790414610279578063eed47033146102a1578063f2fde38b146102b4578063fb0fde85146102c757600080fd5b80638d2b9eff1461019c5780638da5cb5b146101bc5780639692010c146101d7578063bcbe6d7b146101ea57600080fd5b806348ec8bb6116100de57806348ec8bb6146101665780636cfe048914610179578063715018a61461018c5780638129fc1c1461019457600080fd5b8063108764761461011057806331952632146101255780633e7a47b214610138578063443f863f14610140575b600080fd5b61012361011e36600461160a565b6102ea565b005b610123610133366004611634565b610349565b610123610813565b61015361014e366004611676565b610949565b6040519081526020015b60405180910390f35b61012361017436600461160a565b610a1e565b6101236101873660046116c1565b610af6565b610123610d10565b610123610d74565b6101536101aa366004611728565b60656020526000908152604090205481565b6033546040516001600160a01b03909116815260200161015d565b6101236101e536600461160a565b610de7565b6102306101f8366004611743565b606660209081526000938452604080852082529284528284209052825290208054600182015460028301546003909301549192909184565b60408051948552602085019390935291830152606082015260800161015d565b61015361025e366004611728565b6001600160a01b031660009081526065602052604090205490565b61028c610287366004611743565b610f2b565b6040805192835260208301919091520161015d565b6101236102af366004611786565b610fb4565b6101236102c2366004611728565b61110c565b6102da6102d5366004611728565b6111d4565b604051901515815260200161015d565b6033546001600160a01b0316331461032d576001600160a01b038216331461032d5760405162461bcd60e51b8152600401610324906117d1565b60405180910390fd5b6001600160a01b03909116600090815260656020526040902055565b6033546001600160a01b03163314610383576001600160a01b03841633146103835760405162461bcd60e51b8152600401610324906117d1565b6001600160a01b0384166000908152606760205260409020548111156103bb5760405162461bcd60e51b815260040161032490611826565b6001600160a01b0383166104295760405162461bcd60e51b815260206004820152602f60248201527f5065726d697373696f6e52656769737472793a20546f6b656e2061646472657360448201526e0732063616e6e6f742062652030783608c1b6064820152608401610324565b6040516370a0823160e01b81523360048201526000906001600160a01b038516906370a082319060240160206040518083038186803b15801561046b57600080fd5b505afa15801561047f573d6000803e3d6000fd5b505050506040513d601f19601f820116820180604052508101906104a3919061186d565b6001600160a01b0386166000908152606760205260409020549091508214156106305760005b6001600160a01b0386166000908152606760205260409020548110156105ab576001600160a01b0386811660009081526067602052604090208054918716918390811061051857610518611886565b60009182526020909120600490910201546001600160a01b031614156105995760405162461bcd60e51b815260206004820152603060248201527f5065726d697373696f6e52656769737472793a204c696d6974206f6e20746f6b60448201526f195b88185b1c9958591e48185919195960821b6064820152608401610324565b806105a3816118b2565b9150506104c9565b506001600160a01b0385811660009081526067602090815260408083208151608081018352898616815280840187815292810189815260608201868152835460018082018655948852959096209151600490950290910180546001600160a01b031916949096169390931785559051908401555160028301555160039091015561080c565b6001600160a01b038516600090815260676020526040812080548490811061065a5761065a611886565b60009182526020909120600490910201546001600160a01b0316146106e05760405162461bcd60e51b815260206004820152603660248201527f5065726d697373696f6e52656769737472793a2043616e74206f7665727269646044820152751948195e1a5cdd195b9d08115490cc8c081b1a5b5a5d60521b6064820152608401610324565b6001600160a01b038516600090815260676020526040902080548591908490811061070d5761070d611886565b6000918252602080832060049290920290910180546001600160a01b0319166001600160a01b03948516179055918716815260679091526040902080548291908490811061075d5761075d611886565b9060005260206000209060040201600101819055508260676000876001600160a01b03166001600160a01b0316815260200190815260200160002083815481106107a9576107a9611886565b906000526020600020906004020160020181905550600060676000876001600160a01b03166001600160a01b0316815260200190815260200160002083815481106107f6576107f6611886565b9060005260206000209060040201600301819055505b5050505050565b33600090815260686020526040902054431115610947573360009081526068602052604081204390555b336000908152606760205260409020548110156109455733600090815260676020526040902080548290811061087557610875611886565b60009182526020909120600491820201546040516370a0823160e01b815233928101929092526001600160a01b0316906370a082319060240160206040518083038186803b1580156108c657600080fd5b505afa1580156108da573d6000803e3d6000fd5b505050506040513d601f19601f820116820180604052508101906108fe919061186d565b33600090815260676020526040902080548390811061091f5761091f611886565b60009182526020909120600160049092020101558061093d816118b2565b91505061083d565b505b565b6000805b6001600160a01b038416600090815260676020526040902054811015610a12576001600160a01b0384811660009081526067602052604090208054918516918390811061099c5761099c611886565b60009182526020909120600490910201546001600160a01b03161415610a00576001600160a01b03841660009081526067602052604090208054829081106109e6576109e6611886565b906000526020600020906004020160020154915050610a18565b80610a0a816118b2565b91505061094d565b50600090505b92915050565b6033546001600160a01b03163314610a58576001600160a01b0382163314610a585760405162461bcd60e51b8152600401610324906117d1565b6001600160a01b0382166000908152606760205260409020548110610a8f5760405162461bcd60e51b815260040161032490611826565b6001600160a01b038216600090815260656020526040902054610ab39042906113fa565b6001600160a01b0383166000908152606760205260409020805483908110610add57610add611886565b9060005260206000209060040201600301819055505050565b6033546001600160a01b03163314610b30576001600160a01b0385163314610b305760405162461bcd60e51b8152600401610324906117d1565b6001600160a01b038416301415610bb95760405162461bcd60e51b815260206004820152604160248201527f5065726d697373696f6e52656769737472793a2043616e74207365742065746860448201527f5065726d697373696f6e7320746f205065726d697373696f6e526567697374726064820152607960f81b608482015260a401610324565b8015610c2d576001600160a01b038516600090815260656020526040902054610be39042906113fa565b6001600160a01b03868116600090815260666020908152604080832093891683529281528282206001600160e01b0319881683529052206003810191909155600201829055610c72565b6001600160a01b03858116600090815260666020908152604080832093881683529281528282206001600160e01b031987168352905290812060038101829055600201555b6001600160a01b0385811660008181526066602090815260408083209489168084529482528083206001600160e01b03198916808552908352928190206003810154600290910154825195865292850195909552830191909152606082019290925260808101919091527fa8d1883748320f844ad63c0685f3f5372c0932122cbbdd9fd172781458d768cc9060a00160405180910390a15050505050565b6033546001600160a01b03163314610d6a5760405162461bcd60e51b815260206004820181905260248201527f4f776e61626c653a2063616c6c6572206973206e6f7420746865206f776e65726044820152606401610324565b610947600061140d565b600054610100900460ff1680610d8d575060005460ff16155b610da95760405162461bcd60e51b8152600401610324906118cd565b600054610100900460ff16158015610dcb576000805461ffff19166101011790555b610dd361145f565b8015610945576000805461ff001916905550565b6001600160a01b0382166000908152606760205260409020805482908110610e1157610e11611886565b9060005260206000209060040201600301544210610e8d5760405162461bcd60e51b815260206004820152603360248201527f5065726d697373696f6e52656769737472793a2043616e742065786563757465604482015272081c195c9b5a5cdcda5bdb881c995b5bdd985b606a1b6064820152608401610324565b6040805160808101825260008082526020808301829052828401829052606083018290526001600160a01b03861682526067905291909120805483908110610ed757610ed7611886565b600091825260209182902083516004929092020180546001600160a01b0319166001600160a01b03909216919091178155908201516001820155604082015160028201556060909101516003909101555050565b600080836001600160a01b0316856001600160a01b03161480610f5657506001600160a01b03841630145b15610f675750600090506001610fac565b50506001600160a01b03838116600090815260666020908152604080832093861683529281528282206001600160e01b03198516835290522060028101546003909101545b935093915050565b8015610fec576001600160a01b038416600090815260666020908152604080832083805282528083209091529020610fec90826114c6565b6000610ff9858585610f2b565b91505080156110a8574281106110625760405162461bcd60e51b815260206004820152602860248201527f5065726d697373696f6e52656769737472793a2043616c6c206e6f7420616c6c6044820152671bddd959081e595d60c21b6064820152608401610324565b6001600160a01b03808616600090815260666020908152604080832093881683529281528282206001600160e01b0319871683529052206110a390836114c6565b61080c565b6001600160e01b031983161561080c5760405162461bcd60e51b8152602060048201526024808201527f5065726d697373696f6e52656769737472793a2043616c6c206e6f7420616c6c6044820152631bddd95960e21b6064820152608401610324565b6033546001600160a01b031633146111665760405162461bcd60e51b815260206004820181905260248201527f4f776e61626c653a2063616c6c6572206973206e6f7420746865206f776e65726044820152606401610324565b6001600160a01b0381166111cb5760405162461bcd60e51b815260206004820152602660248201527f4f776e61626c653a206e6577206f776e657220697320746865207a65726f206160448201526564647265737360d01b6064820152608401610324565b6109458161140d565b6001600160a01b03811660009081526068602052604081205443146112535760405162461bcd60e51b815260206004820152602f60248201527f5065726d697373696f6e52656769737472793a20455243323020696e6974696160448201526e1b15985b1d595cc81b9bdd081cd95d608a1b6064820152608401610324565b60005b6001600160a01b0383166000908152606760205260409020548110156113f1576001600160a01b03831660009081526067602052604090208054829081106112a0576112a0611886565b9060005260206000209060040201600201546113c160676000866001600160a01b03166001600160a01b0316815260200190815260200160002083815481106112eb576112eb611886565b60009182526020909120600491820201546040516370a0823160e01b81526001600160a01b03888116938201939093529116906370a082319060240160206040518083038186803b15801561133f57600080fd5b505afa158015611353573d6000803e3d6000fd5b505050506040513d601f19601f82011682018060405250810190611377919061186d565b6001600160a01b03861660009081526067602052604090208054859081106113a1576113a1611886565b90600052602060002090600402016001015461151890919063ffffffff16565b11156113df5760405162461bcd60e51b81526004016103249061191b565b806113e9816118b2565b915050611256565b50600192915050565b60006114068284611962565b9392505050565b603380546001600160a01b038381166001600160a01b0319831681179093556040519116919082907f8be0079c531659141344cd1fd0a4f28419497f9722a3daafe3b4186f6b6457e090600090a35050565b600054610100900460ff1680611478575060005460ff16155b6114945760405162461bcd60e51b8152600401610324906118cd565b600054610100900460ff161580156114b6576000805461ffff19166101011790555b6114be611524565b610dd361158e565b43826001015410156114e0574360018301558082556114ef565b81546114ec90826113fa565b82555b6002820154825411156115145760405162461bcd60e51b81526004016103249061191b565b5050565b6000611406828461197a565b600054610100900460ff168061153d575060005460ff16155b6115595760405162461bcd60e51b8152600401610324906118cd565b600054610100900460ff16158015610dd3576000805461ffff19166101011790558015610945576000805461ff001916905550565b600054610100900460ff16806115a7575060005460ff16155b6115c35760405162461bcd60e51b8152600401610324906118cd565b600054610100900460ff161580156115e5576000805461ffff19166101011790555b610dd33361140d565b80356001600160a01b038116811461160557600080fd5b919050565b6000806040838503121561161d57600080fd5b611626836115ee565b946020939093013593505050565b6000806000806080858703121561164a57600080fd5b611653856115ee565b9350611661602086016115ee565b93969395505050506040820135916060013590565b6000806040838503121561168957600080fd5b611692836115ee565b91506116a0602084016115ee565b90509250929050565b80356001600160e01b03198116811461160557600080fd5b600080600080600060a086880312156116d957600080fd5b6116e2866115ee565b94506116f0602087016115ee565b93506116fe604087016116a9565b9250606086013591506080860135801515811461171a57600080fd5b809150509295509295909350565b60006020828403121561173a57600080fd5b611406826115ee565b60008060006060848603121561175857600080fd5b611761846115ee565b925061176f602085016115ee565b915061177d604085016116a9565b90509250925092565b6000806000806080858703121561179c57600080fd5b6117a5856115ee565b93506117b3602086016115ee565b92506117c1604086016116a9565b9396929550929360600135925050565b60208082526035908201527f5065726d697373696f6e52656769737472793a204f6e6c79206f776e65722063604082015274616e20737065636966792066726f6d2076616c756560581b606082015260800190565b60208082526027908201527f5065726d697373696f6e52656769737472793a20496e646578206f7574206f6660408201526620626f756e647360c81b606082015260800190565b60006020828403121561187f57600080fd5b5051919050565b634e487b7160e01b600052603260045260246000fd5b634e487b7160e01b600052601160045260246000fd5b60006000198214156118c6576118c661189c565b5060010190565b6020808252602e908201527f496e697469616c697a61626c653a20636f6e747261637420697320616c72656160408201526d191e481a5b9a5d1a585b1a5e995960921b606082015260800190565b60208082526027908201527f5065726d697373696f6e52656769737472793a2056616c7565206c696d6974206040820152661c995858da195960ca1b606082015260800190565b600082198211156119755761197561189c565b500190565b60008282101561198c5761198c61189c565b50039056fea2646970667358221220a76320a35e38550417ebd81633d6ab3ee7a112e08e2641c86710cacc9ae162b464736f6c63430008080033",
  "linkReferences": {},
  "deployedLinkReferences": {}
}