{
  "_format": "hh-sol-artifact-1",
  "contractName": "SnapshotRepERC20Guild",
  "sourceName": "dxdao-contracts/contracts/erc20guild/implementations/SnapshotRepERC20Guild.sol",
  "abi": [
    {
      "anonymous": false,
      "inputs": [
        {
          "indexed": true,
          "internalType": "address",
          "name": "previousOwner",
          "type": "address"
        },
        {
          "indexed": true,
          "internalType": "address",
          "name": "newOwner",
          "type": "address"
        }
      ],
      "name": "OwnershipTransferred",
      "type": "event"
    },
    {
      "anonymous": false,
      "inputs": [
        {
          "indexed": true,
          "internalType": "bytes32",
          "name": "proposalId",
          "type": "bytes32"
        },
        {
          "indexed": false,
          "internalType": "uint256",
          "name": "newState",
          "type": "uint256"
        }
      ],
      "name": "ProposalStateChanged",
      "type": "event"
    },
    {
      "anonymous": false,
      "inputs": [
        {
          "indexed": false,
          "internalType": "address",
          "name": "voter",
          "type": "address"
        },
        {
          "indexed": false,
          "internalType": "uint256",
          "name": "value",
          "type": "uint256"
        }
      ],
      "name": "TokensLocked",
      "type": "event"
    },
    {
      "anonymous": false,
      "inputs": [
        {
          "indexed": false,
          "internalType": "address",
          "name": "voter",
          "type": "address"
        },
        {
          "indexed": false,
          "internalType": "uint256",
          "name": "value",
          "type": "uint256"
        }
      ],
      "name": "TokensWithdrawn",
      "type": "event"
    },
    {
      "anonymous": false,
      "inputs": [
        {
          "indexed": true,
          "internalType": "bytes32",
          "name": "proposalId",
          "type": "bytes32"
        },
        {
          "indexed": true,
          "internalType": "uint256",
          "name": "option",
          "type": "uint256"
        },
        {
          "indexed": false,
          "internalType": "address",
          "name": "voter",
          "type": "address"
        },
        {
          "indexed": false,
          "internalType": "uint256",
          "name": "votingPower",
          "type": "uint256"
        }
      ],
      "name": "VoteAdded",
      "type": "event"
    },
    {
      "stateMutability": "payable",
      "type": "fallback"
    },
    {
      "inputs": [],
      "name": "MAX_OPTIONS_PER_PROPOSAL",
      "outputs": [
        {
          "internalType": "uint8",
          "name": "",
          "type": "uint8"
        }
      ],
      "stateMutability": "view",
      "type": "function"
    },
    {
      "inputs": [],
      "name": "activeProposalsNow",
      "outputs": [
        {
          "internalType": "uint256",
          "name": "",
          "type": "uint256"
        }
      ],
      "stateMutability": "view",
      "type": "function"
    },
    {
      "inputs": [
        {
          "internalType": "address[]",
          "name": "to",
          "type": "address[]"
        },
        {
          "internalType": "bytes[]",
          "name": "data",
          "type": "bytes[]"
        },
        {
          "internalType": "uint256[]",
          "name": "value",
          "type": "uint256[]"
        },
        {
          "internalType": "uint256",
          "name": "totalOptions",
          "type": "uint256"
        },
        {
          "internalType": "string",
          "name": "title",
          "type": "string"
        },
        {
          "internalType": "string",
          "name": "contentHash",
          "type": "string"
        }
      ],
      "name": "createProposal",
      "outputs": [
        {
          "internalType": "bytes32",
          "name": "",
          "type": "bytes32"
        }
      ],
      "stateMutability": "nonpayable",
      "type": "function"
    },
    {
      "inputs": [
        {
          "internalType": "bytes32",
          "name": "proposalId",
          "type": "bytes32"
        }
      ],
      "name": "endProposal",
      "outputs": [],
      "stateMutability": "nonpayable",
      "type": "function"
    },
    {
      "inputs": [
        {
          "internalType": "bytes32",
          "name": "root",
          "type": "bytes32"
        },
        {
          "internalType": "address",
          "name": "voter",
          "type": "address"
        },
        {
          "internalType": "bytes32",
          "name": "voteHash",
          "type": "bytes32"
        },
        {
          "internalType": "bytes32[]",
          "name": "proof",
          "type": "bytes32[]"
        },
        {
          "internalType": "bytes32",
          "name": "proposalId",
          "type": "bytes32"
        },
        {
          "internalType": "uint256",
          "name": "option",
          "type": "uint256"
        },
        {
          "internalType": "uint256",
          "name": "votingPower",
          "type": "uint256"
        },
        {
          "internalType": "bytes",
          "name": "signature",
          "type": "bytes"
        }
      ],
      "name": "executeSignedVote",
      "outputs": [],
      "stateMutability": "nonpayable",
      "type": "function"
    },
    {
      "inputs": [
        {
          "internalType": "bytes32[]",
          "name": "roots",
          "type": "bytes32[]"
        },
        {
          "internalType": "address[]",
          "name": "voters",
          "type": "address[]"
        },
        {
          "internalType": "bytes32[]",
          "name": "votesHashes",
          "type": "bytes32[]"
        },
        {
          "internalType": "bytes32[][]",
          "name": "proofs",
          "type": "bytes32[][]"
        },
        {
          "internalType": "bytes32[]",
          "name": "proposalIds",
          "type": "bytes32[]"
        },
        {
          "internalType": "uint256[]",
          "name": "options",
          "type": "uint256[]"
        },
        {
          "internalType": "uint256[]",
          "name": "votingPowers",
          "type": "uint256[]"
        },
        {
          "internalType": "bytes[]",
          "name": "signatures",
          "type": "bytes[]"
        }
      ],
      "name": "executeSignedVotesBatches",
      "outputs": [],
      "stateMutability": "nonpayable",
      "type": "function"
    },
    {
      "inputs": [
        {
          "internalType": "bytes32[]",
          "name": "proposalIds",
          "type": "bytes32[]"
        },
        {
          "internalType": "uint256[]",
          "name": "options",
          "type": "uint256[]"
        },
        {
          "internalType": "uint256[]",
          "name": "votingPowers",
          "type": "uint256[]"
        }
      ],
      "name": "executeVotes",
      "outputs": [
        {
          "internalType": "bool[]",
          "name": "",
          "type": "bool[]"
        }
      ],
      "stateMutability": "nonpayable",
      "type": "function"
    },
    {
      "inputs": [],
      "name": "getActiveProposalsNow",
      "outputs": [
        {
          "internalType": "uint256",
          "name": "",
          "type": "uint256"
        }
      ],
      "stateMutability": "view",
      "type": "function"
    },
    {
      "inputs": [],
      "name": "getLockTime",
      "outputs": [
        {
          "internalType": "uint256",
          "name": "",
          "type": "uint256"
        }
      ],
      "stateMutability": "view",
      "type": "function"
    },
    {
      "inputs": [],
      "name": "getMaxActiveProposals",
      "outputs": [
        {
          "internalType": "uint256",
          "name": "",
          "type": "uint256"
        }
      ],
      "stateMutability": "view",
      "type": "function"
    },
    {
      "inputs": [],
      "name": "getMaxGasPrice",
      "outputs": [
        {
          "internalType": "uint256",
          "name": "",
          "type": "uint256"
        }
      ],
      "stateMutability": "view",
      "type": "function"
    },
    {
      "inputs": [],
      "name": "getMinimumMembersForProposalCreation",
      "outputs": [
        {
          "internalType": "uint256",
          "name": "",
          "type": "uint256"
        }
      ],
      "stateMutability": "view",
      "type": "function"
    },
    {
      "inputs": [],
      "name": "getMinimumTokensLockedForProposalCreation",
      "outputs": [
        {
          "internalType": "uint256",
          "name": "",
          "type": "uint256"
        }
      ],
      "stateMutability": "view",
      "type": "function"
    },
    {
      "inputs": [],
      "name": "getName",
      "outputs": [
        {
          "internalType": "string",
          "name": "",
          "type": "string"
        }
      ],
      "stateMutability": "view",
      "type": "function"
    },
    {
      "inputs": [],
      "name": "getPermissionRegistry",
      "outputs": [
        {
          "internalType": "address",
          "name": "",
          "type": "address"
        }
      ],
      "stateMutability": "view",
      "type": "function"
    },
    {
      "inputs": [
        {
          "internalType": "bytes32",
          "name": "proposalId",
          "type": "bytes32"
        }
      ],
      "name": "getProposal",
      "outputs": [
        {
          "components": [
            {
              "internalType": "address",
              "name": "creator",
              "type": "address"
            },
            {
              "internalType": "uint256",
              "name": "startTime",
              "type": "uint256"
            },
            {
              "internalType": "uint256",
              "name": "endTime",
              "type": "uint256"
            },
            {
              "internalType": "address[]",
              "name": "to",
              "type": "address[]"
            },
            {
              "internalType": "bytes[]",
              "name": "data",
              "type": "bytes[]"
            },
            {
              "internalType": "uint256[]",
              "name": "value",
              "type": "uint256[]"
            },
            {
              "internalType": "string",
              "name": "title",
              "type": "string"
            },
            {
              "internalType": "string",
              "name": "contentHash",
              "type": "string"
            },
            {
              "internalType": "enum BaseERC20Guild.ProposalState",
              "name": "state",
              "type": "uint8"
            },
            {
              "internalType": "uint256[]",
              "name": "totalVotes",
              "type": "uint256[]"
            }
          ],
          "internalType": "struct BaseERC20Guild.Proposal",
          "name": "",
          "type": "tuple"
        }
      ],
      "stateMutability": "view",
      "type": "function"
    },
    {
      "inputs": [
        {
          "internalType": "bytes32",
          "name": "proposalId",
          "type": "bytes32"
        }
      ],
      "name": "getProposalSnapshotId",
      "outputs": [
        {
          "internalType": "uint256",
          "name": "",
          "type": "uint256"
        }
      ],
      "stateMutability": "view",
      "type": "function"
    },
    {
      "inputs": [],
      "name": "getProposalTime",
      "outputs": [
        {
          "internalType": "uint256",
          "name": "",
          "type": "uint256"
        }
      ],
      "stateMutability": "view",
      "type": "function"
    },
    {
      "inputs": [
        {
          "internalType": "bytes32",
          "name": "proposalId",
          "type": "bytes32"
        },
        {
          "internalType": "address",
          "name": "voter",
          "type": "address"
        }
      ],
      "name": "getProposalVotesOfVoter",
      "outputs": [
        {
          "internalType": "uint256",
          "name": "option",
          "type": "uint256"
        },
        {
          "internalType": "uint256",
          "name": "votingPower",
          "type": "uint256"
        }
      ],
      "stateMutability": "view",
      "type": "function"
    },
    {
      "inputs": [],
      "name": "getProposalsIds",
      "outputs": [
        {
          "internalType": "bytes32[]",
          "name": "",
          "type": "bytes32[]"
        }
      ],
      "stateMutability": "view",
      "type": "function"
    },
    {
      "inputs": [],
      "name": "getProposalsIdsLength",
      "outputs": [
        {
          "internalType": "uint256",
          "name": "",
          "type": "uint256"
        }
      ],
      "stateMutability": "view",
      "type": "function"
    },
    {
      "inputs": [
        {
          "internalType": "bytes32",
          "name": "signedVoteHash",
          "type": "bytes32"
        }
      ],
      "name": "getSignedVote",
      "outputs": [
        {
          "internalType": "bool",
          "name": "",
          "type": "bool"
        }
      ],
      "stateMutability": "view",
      "type": "function"
    },
    {
      "inputs": [
        {
          "internalType": "bytes32",
          "name": "proposalId",
          "type": "bytes32"
        }
      ],
      "name": "getSnapshotVotingPowerForProposalExecution",
      "outputs": [
        {
          "internalType": "uint256",
          "name": "",
          "type": "uint256"
        }
      ],
      "stateMutability": "view",
      "type": "function"
    },
    {
      "inputs": [],
      "name": "getTimeForExecution",
      "outputs": [
        {
          "internalType": "uint256",
          "name": "",
          "type": "uint256"
        }
      ],
      "stateMutability": "view",
      "type": "function"
    },
    {
      "inputs": [],
      "name": "getToken",
      "outputs": [
        {
          "internalType": "address",
          "name": "",
          "type": "address"
        }
      ],
      "stateMutability": "view",
      "type": "function"
    },
    {
      "inputs": [],
      "name": "getTokenVault",
      "outputs": [
        {
          "internalType": "address",
          "name": "",
          "type": "address"
        }
      ],
      "stateMutability": "view",
      "type": "function"
    },
    {
      "inputs": [],
      "name": "getTotalLocked",
      "outputs": [
        {
          "internalType": "uint256",
          "name": "",
          "type": "uint256"
        }
      ],
      "stateMutability": "view",
      "type": "function"
    },
    {
      "inputs": [],
      "name": "getTotalMembers",
      "outputs": [
        {
          "internalType": "uint256",
          "name": "",
          "type": "uint256"
        }
      ],
      "stateMutability": "view",
      "type": "function"
    },
    {
      "inputs": [],
      "name": "getTotalProposals",
      "outputs": [
        {
          "internalType": "uint256",
          "name": "",
          "type": "uint256"
        }
      ],
      "stateMutability": "view",
      "type": "function"
    },
    {
      "inputs": [],
      "name": "getVoteGas",
      "outputs": [
        {
          "internalType": "uint256",
          "name": "",
          "type": "uint256"
        }
      ],
      "stateMutability": "view",
      "type": "function"
    },
    {
      "inputs": [
        {
          "internalType": "address",
          "name": "voter",
          "type": "address"
        }
      ],
      "name": "getVoterLockTimestamp",
      "outputs": [
        {
          "internalType": "uint256",
          "name": "",
          "type": "uint256"
        }
      ],
      "stateMutability": "view",
      "type": "function"
    },
    {
      "inputs": [],
      "name": "getVotingPowerForProposalCreation",
      "outputs": [
        {
          "internalType": "uint256",
          "name": "",
          "type": "uint256"
        }
      ],
      "stateMutability": "view",
      "type": "function"
    },
    {
      "inputs": [],
      "name": "getVotingPowerForProposalExecution",
      "outputs": [
        {
          "internalType": "uint256",
          "name": "",
          "type": "uint256"
        }
      ],
      "stateMutability": "view",
      "type": "function"
    },
    {
      "inputs": [
        {
          "internalType": "address",
          "name": "voter",
          "type": "address"
        },
        {
          "internalType": "bytes32",
          "name": "proposalId",
          "type": "bytes32"
        },
        {
          "internalType": "uint256",
          "name": "option",
          "type": "uint256"
        },
        {
          "internalType": "uint256",
          "name": "votingPower",
          "type": "uint256"
        }
      ],
      "name": "hashVote",
      "outputs": [
        {
          "internalType": "bytes32",
          "name": "",
          "type": "bytes32"
        }
      ],
      "stateMutability": "pure",
      "type": "function"
    },
    {
      "inputs": [
        {
          "internalType": "address",
          "name": "_token",
          "type": "address"
        },
        {
          "internalType": "uint256",
          "name": "_proposalTime",
          "type": "uint256"
        },
        {
          "internalType": "uint256",
          "name": "_timeForExecution",
          "type": "uint256"
        },
        {
          "internalType": "uint256",
          "name": "_votingPowerPercentageForProposalExecution",
          "type": "uint256"
        },
        {
          "internalType": "uint256",
          "name": "_votingPowerPercentageForProposalCreation",
          "type": "uint256"
        },
        {
          "internalType": "string",
          "name": "_name",
          "type": "string"
        },
        {
          "internalType": "uint256",
          "name": "_voteGas",
          "type": "uint256"
        },
        {
          "internalType": "uint256",
          "name": "_maxGasPrice",
          "type": "uint256"
        },
        {
          "internalType": "uint256",
          "name": "_maxActiveProposals",
          "type": "uint256"
        },
        {
          "internalType": "uint256",
          "name": "_lockTime",
          "type": "uint256"
        },
        {
          "internalType": "address",
          "name": "_permissionRegistry",
          "type": "address"
        }
      ],
      "name": "initialize",
      "outputs": [],
      "stateMutability": "nonpayable",
      "type": "function"
    },
    {
      "inputs": [],
      "name": "lockTime",
      "outputs": [
        {
          "internalType": "uint256",
          "name": "",
          "type": "uint256"
        }
      ],
      "stateMutability": "view",
      "type": "function"
    },
    {
      "inputs": [
        {
          "internalType": "uint256",
          "name": "",
          "type": "uint256"
        }
      ],
      "name": "lockTokens",
      "outputs": [],
      "stateMutability": "nonpayable",
      "type": "function"
    },
    {
      "inputs": [],
      "name": "maxActiveProposals",
      "outputs": [
        {
          "internalType": "uint256",
          "name": "",
          "type": "uint256"
        }
      ],
      "stateMutability": "view",
      "type": "function"
    },
    {
      "inputs": [],
      "name": "maxGasPrice",
      "outputs": [
        {
          "internalType": "uint256",
          "name": "",
          "type": "uint256"
        }
      ],
      "stateMutability": "view",
      "type": "function"
    },
    {
      "inputs": [],
      "name": "minimumMembersForProposalCreation",
      "outputs": [
        {
          "internalType": "uint256",
          "name": "",
          "type": "uint256"
        }
      ],
      "stateMutability": "view",
      "type": "function"
    },
    {
      "inputs": [],
      "name": "minimumTokensLockedForProposalCreation",
      "outputs": [
        {
          "internalType": "uint256",
          "name": "",
          "type": "uint256"
        }
      ],
      "stateMutability": "view",
      "type": "function"
    },
    {
      "inputs": [],
      "name": "name",
      "outputs": [
        {
          "internalType": "string",
          "name": "",
          "type": "string"
        }
      ],
      "stateMutability": "view",
      "type": "function"
    },
    {
      "inputs": [],
      "name": "owner",
      "outputs": [
        {
          "internalType": "address",
          "name": "",
          "type": "address"
        }
      ],
      "stateMutability": "view",
      "type": "function"
    },
    {
      "inputs": [],
      "name": "proposalTime",
      "outputs": [
        {
          "internalType": "uint256",
          "name": "",
          "type": "uint256"
        }
      ],
      "stateMutability": "view",
      "type": "function"
    },
    {
      "inputs": [
        {
          "internalType": "bytes32",
          "name": "",
          "type": "bytes32"
        },
        {
          "internalType": "address",
          "name": "",
          "type": "address"
        }
      ],
      "name": "proposalVotes",
      "outputs": [
        {
          "internalType": "uint256",
          "name": "option",
          "type": "uint256"
        },
        {
          "internalType": "uint256",
          "name": "votingPower",
          "type": "uint256"
        }
      ],
      "stateMutability": "view",
      "type": "function"
    },
    {
      "inputs": [
        {
          "internalType": "bytes32",
          "name": "",
          "type": "bytes32"
        }
      ],
      "name": "proposals",
      "outputs": [
        {
          "internalType": "address",
          "name": "creator",
          "type": "address"
        },
        {
          "internalType": "uint256",
          "name": "startTime",
          "type": "uint256"
        },
        {
          "internalType": "uint256",
          "name": "endTime",
          "type": "uint256"
        },
        {
          "internalType": "string",
          "name": "title",
          "type": "string"
        },
        {
          "internalType": "string",
          "name": "contentHash",
          "type": "string"
        },
        {
          "internalType": "enum BaseERC20Guild.ProposalState",
          "name": "state",
          "type": "uint8"
        }
      ],
      "stateMutability": "view",
      "type": "function"
    },
    {
      "inputs": [
        {
          "internalType": "uint256",
          "name": "",
          "type": "uint256"
        }
      ],
      "name": "proposalsIds",
      "outputs": [
        {
          "internalType": "bytes32",
          "name": "",
          "type": "bytes32"
        }
      ],
      "stateMutability": "view",
      "type": "function"
    },
    {
      "inputs": [
        {
          "internalType": "bytes32",
          "name": "",
          "type": "bytes32"
        }
      ],
      "name": "proposalsSnapshots",
      "outputs": [
        {
          "internalType": "uint256",
          "name": "",
          "type": "uint256"
        }
      ],
      "stateMutability": "view",
      "type": "function"
    },
    {
      "inputs": [],
      "name": "renounceOwnership",
      "outputs": [],
      "stateMutability": "nonpayable",
      "type": "function"
    },
    {
      "inputs": [
        {
          "internalType": "uint256",
          "name": "_proposalTime",
          "type": "uint256"
        },
        {
          "internalType": "uint256",
          "name": "_timeForExecution",
          "type": "uint256"
        },
        {
          "internalType": "uint256",
          "name": "_votingPowerPercentageForProposalExecution",
          "type": "uint256"
        },
        {
          "internalType": "uint256",
          "name": "_votingPowerPercentageForProposalCreation",
          "type": "uint256"
        },
        {
          "internalType": "uint256",
          "name": "_voteGas",
          "type": "uint256"
        },
        {
          "internalType": "uint256",
          "name": "_maxGasPrice",
          "type": "uint256"
        },
        {
          "internalType": "uint256",
          "name": "_maxActiveProposals",
          "type": "uint256"
        },
        {
          "internalType": "uint256",
          "name": "_lockTime",
          "type": "uint256"
        },
        {
          "internalType": "uint256",
          "name": "_minimumMembersForProposalCreation",
          "type": "uint256"
        },
        {
          "internalType": "uint256",
          "name": "_minimumTokensLockedForProposalCreation",
          "type": "uint256"
        }
      ],
      "name": "setConfig",
      "outputs": [],
      "stateMutability": "nonpayable",
      "type": "function"
    },
    {
      "inputs": [
        {
          "internalType": "bytes32",
          "name": "proposalId",
          "type": "bytes32"
        },
        {
          "internalType": "uint256",
          "name": "option",
          "type": "uint256"
        },
        {
          "internalType": "uint256",
          "name": "votingPower",
          "type": "uint256"
        },
        {
          "internalType": "address",
          "name": "voter",
          "type": "address"
        },
        {
          "internalType": "bytes",
          "name": "signature",
          "type": "bytes"
        }
      ],
      "name": "setSignedVote",
      "outputs": [],
      "stateMutability": "nonpayable",
      "type": "function"
    },
    {
      "inputs": [
        {
          "internalType": "bytes32",
          "name": "proposalId",
          "type": "bytes32"
        },
        {
          "internalType": "uint256",
          "name": "option",
          "type": "uint256"
        },
        {
          "internalType": "uint256",
          "name": "votingPower",
          "type": "uint256"
        }
      ],
      "name": "setVote",
      "outputs": [],
      "stateMutability": "nonpayable",
      "type": "function"
    },
    {
      "inputs": [
        {
          "internalType": "bytes32",
          "name": "",
          "type": "bytes32"
        }
      ],
      "name": "signedVotes",
      "outputs": [
        {
          "internalType": "bool",
          "name": "",
          "type": "bool"
        }
      ],
      "stateMutability": "view",
      "type": "function"
    },
    {
      "inputs": [],
      "name": "timeForExecution",
      "outputs": [
        {
          "internalType": "uint256",
          "name": "",
          "type": "uint256"
        }
      ],
      "stateMutability": "view",
      "type": "function"
    },
    {
      "inputs": [],
      "name": "token",
      "outputs": [
        {
          "internalType": "contract IERC20Upgradeable",
          "name": "",
          "type": "address"
        }
      ],
      "stateMutability": "view",
      "type": "function"
    },
    {
      "inputs": [],
      "name": "tokenVault",
      "outputs": [
        {
          "internalType": "contract TokenVault",
          "name": "",
          "type": "address"
        }
      ],
      "stateMutability": "view",
      "type": "function"
    },
    {
      "inputs": [
        {
          "internalType": "address",
          "name": "",
          "type": "address"
        }
      ],
      "name": "tokensLocked",
      "outputs": [
        {
          "internalType": "uint256",
          "name": "amount",
          "type": "uint256"
        },
        {
          "internalType": "uint256",
          "name": "timestamp",
          "type": "uint256"
        }
      ],
      "stateMutability": "view",
      "type": "function"
    },
    {
      "inputs": [],
      "name": "totalLocked",
      "outputs": [
        {
          "internalType": "uint256",
          "name": "",
          "type": "uint256"
        }
      ],
      "stateMutability": "view",
      "type": "function"
    },
    {
      "inputs": [],
      "name": "totalProposals",
      "outputs": [
        {
          "internalType": "uint256",
          "name": "",
          "type": "uint256"
        }
      ],
      "stateMutability": "view",
      "type": "function"
    },
    {
      "inputs": [
        {
          "internalType": "address",
          "name": "newOwner",
          "type": "address"
        }
      ],
      "name": "transferOwnership",
      "outputs": [],
      "stateMutability": "nonpayable",
      "type": "function"
    },
    {
      "inputs": [
        {
          "internalType": "bytes32",
          "name": "root",
          "type": "bytes32"
        },
        {
          "internalType": "bytes32",
          "name": "voteHash",
          "type": "bytes32"
        },
        {
          "internalType": "bytes32[]",
          "name": "proof",
          "type": "bytes32[]"
        }
      ],
      "name": "validateMerkleTreeLeaf",
      "outputs": [
        {
          "internalType": "bool",
          "name": "",
          "type": "bool"
        }
      ],
      "stateMutability": "nonpayable",
      "type": "function"
    },
    {
      "inputs": [],
      "name": "voteGas",
      "outputs": [
        {
          "internalType": "uint256",
          "name": "",
          "type": "uint256"
        }
      ],
      "stateMutability": "view",
      "type": "function"
    },
    {
      "inputs": [
        {
          "internalType": "address",
          "name": "account",
          "type": "address"
        }
      ],
      "name": "votingPowerOf",
      "outputs": [
        {
          "internalType": "uint256",
          "name": "",
          "type": "uint256"
        }
      ],
      "stateMutability": "view",
      "type": "function"
    },
    {
      "inputs": [
        {
          "internalType": "address",
          "name": "account",
          "type": "address"
        },
        {
          "internalType": "uint256",
          "name": "snapshotId",
          "type": "uint256"
        }
      ],
      "name": "votingPowerOfAt",
      "outputs": [
        {
          "internalType": "uint256",
          "name": "",
          "type": "uint256"
        }
      ],
      "stateMutability": "view",
      "type": "function"
    },
    {
      "inputs": [
        {
          "internalType": "address[]",
          "name": "accounts",
          "type": "address[]"
        },
        {
          "internalType": "uint256[]",
          "name": "snapshotIds",
          "type": "uint256[]"
        }
      ],
      "name": "votingPowerOfMultipleAt",
      "outputs": [
        {
          "internalType": "uint256[]",
          "name": "",
          "type": "uint256[]"
        }
      ],
      "stateMutability": "view",
      "type": "function"
    },
    {
      "inputs": [],
      "name": "votingPowerPercentageForProposalCreation",
      "outputs": [
        {
          "internalType": "uint256",
          "name": "",
          "type": "uint256"
        }
      ],
      "stateMutability": "view",
      "type": "function"
    },
    {
      "inputs": [],
      "name": "votingPowerPercentageForProposalExecution",
      "outputs": [
        {
          "internalType": "uint256",
          "name": "",
          "type": "uint256"
        }
      ],
      "stateMutability": "view",
      "type": "function"
    },
    {
      "inputs": [
        {
          "internalType": "uint256",
          "name": "",
          "type": "uint256"
        }
      ],
      "name": "withdrawTokens",
      "outputs": [],
      "stateMutability": "nonpayable",
      "type": "function"
    }
  ],
  "bytecode": "0x608060405234801561001057600080fd5b5061633580620000216000396000f3fe608060405260043610620004155760003560e01c80636e27d889116200021b578063afd22c401162000123578063e045035311620000b3578063f4732da61162000081578063f4732da61462000ca7578063f98606a71462000cbf578063f9a92d821462000cd7578063fc0c546a1462000cfc578063fc4e703f1462000d1e57005b8063e04503531462000c0f578063e158080a1462000c27578063f09951981462000c3f578063f2fde38b1462000c8257005b8063bcc3f3bd11620000f1578063bcc3f3bd1462000b97578063c0a4d64d1462000bbc578063c93e01e31462000bd3578063d8c6a6d11462000bea57005b8063afd22c401462000b11578063b3929aaa1462000b36578063b3b470611462000b5b578063b7c15f8d1462000b8057005b80638f18030511620001ab578063a7aeb5571162000179578063a7aeb5571462000a71578063ab6ea06b1462000a89578063ad6c1e341462000aae578063adf2c7b61462000ac5578063ae6192341462000af957005b80638f18030514620009fd57806392b716541462000a14578063a16fe3421462000a39578063a78d80fc1462000a5957005b80638029eff111620001e95780638029eff1146200096d57806389c98c0614620009a15780638da5cb5b14620009b85780638ddaae9e14620009d857005b80636e27d889146200073a578063715018a6146200090d57806371893546146200092557806377027ff4146200095657005b80632d5b17de116200031f5780633f10cf1511620002af5780635bc789d9116200027d5780635bc789d914620008715780635e508c2c146200089357806364fe6ed214620008ab578063671abed714620008c25780636c8b72f614620008f657005b80633f10cf1514620007ed578063430694cf146200080557806354f2f7af146200083957806356891412146200085957005b806332ed5b1211620002ed57806332ed5b12146200075f57806336f8f8d914620007985780633bf353fb14620007bd5780633de39c1114620007d557005b80632d5b17de14620006935780632d757c3e14620006b85780632fd99c0014620006f5578063315a095d146200073a57005b806316bbecde11620003a757806321df0da7116200037557806321df0da714620005d65780632229a0e2146200060a57806322bafdff14620006215780632467ef94146200065257806325c069fc146200066957005b806316bbecde146200056a57806317d7de7c146200058f578063184a0ae914620005a75780631a5007dd14620005bf57005b80630d66808711620003e55780630d66808714620004e3578063123f6d6714620004fb578063130485fe146200052057806313108d74146200054557005b80623a40d0146200041757806301a598a6146200044757806306fdde0314620004955780630a366a6314620004bc575b005b3480156200042457600080fd5b506200042f62000d36565b6040516200043e9190620048a6565b60405180910390f35b3480156200045457600080fd5b506200047f6200046636600462004909565b6012602052600090815260409020805460019091015482565b604080519283526020830191909152016200043e565b348015620004a257600080fd5b50620004ad62000d90565b6040516200043e919062004977565b348015620004c957600080fd5b50620004d462000e26565b6040519081526020016200043e565b348015620004f057600080fd5b50620004d4600d5481565b3480156200050857600080fd5b50620004156200051a3660046200498c565b62000e53565b3480156200052d57600080fd5b506200047f6200053f366004620049f5565b62000fec565b3480156200055257600080fd5b50620004d46200056436600462004c8e565b6200101e565b3480156200057757600080fd5b50620004156200058936600462004d77565b620010d5565b3480156200059c57600080fd5b50620004ad62001206565b348015620005b457600080fd5b50620004d460035481565b348015620005cc57600080fd5b50600a54620004d4565b348015620005e357600080fd5b506000546001600160a01b03165b6040516001600160a01b0390911681526020016200043e565b3480156200061757600080fd5b50601654620004d4565b3480156200062e57600080fd5b50620004d46200064036600462004da4565b6000908152607c602052604090205490565b3480156200065f57600080fd5b50600c54620004d4565b3480156200067657600080fd5b5062000680600a81565b60405160ff90911681526020016200043e565b348015620006a057600080fd5b5062000415620006b236600462004dbe565b62001297565b348015620006c557600080fd5b50620004d4620006d736600462004909565b6001600160a01b031660009081526012602052604090206001015490565b3480156200070257600080fd5b50620007296200071436600462004da4565b60136020526000908152604090205460ff1681565b60405190151581526020016200043e565b3480156200074757600080fd5b50620004156200075936600462004da4565b6200153d565b3480156200076c57600080fd5b50620007846200077e36600462004da4565b6200159a565b6040516200043e9695949392919062004e67565b348015620007a557600080fd5b5062000415620007b736600462004ec7565b620016fe565b348015620007ca57600080fd5b50620004d4600c5481565b348015620007e257600080fd5b50620004d460085481565b348015620007fa57600080fd5b50620004d460045481565b3480156200081257600080fd5b506200082a6200082436600462004da4565b620018e6565b6040516200043e91906200504e565b3480156200084657600080fd5b506011546001600160a01b0316620005f1565b3480156200086657600080fd5b50620004d4600e5481565b3480156200087e57600080fd5b50601154620005f1906001600160a01b031681565b348015620008a057600080fd5b50620004d460055481565b348015620008b857600080fd5b50601054620004d4565b348015620008cf57600080fd5b50620008e7620008e13660046200515b565b62001c99565b6040516200043e9190620051ec565b3480156200090357600080fd5b50600754620004d4565b3480156200091a57600080fd5b50620004156200210a565b3480156200093257600080fd5b50620004d46200094436600462004da4565b607c6020526000908152604090205481565b3480156200096357600080fd5b50600954620004d4565b3480156200097a57600080fd5b50620007296200098c36600462004da4565b60009081526013602052604090205460ff1690565b348015620009ae57600080fd5b50600854620004d4565b348015620009c557600080fd5b50604a546001600160a01b0316620005f1565b348015620009e557600080fd5b5062000415620009f7366004620052bd565b62002174565b34801562000a0a57600080fd5b50600b54620004d4565b34801562000a2157600080fd5b50620004d462000a3336600462005415565b62002293565b34801562000a4657600080fd5b506001546001600160a01b0316620005f1565b34801562000a6657600080fd5b50620004d4600a5481565b34801562000a7e57600080fd5b50620004d4600f5481565b34801562000a9657600080fd5b506200072962000aa836600462005451565b620022ea565b34801562000abb57600080fd5b50600f54620004d4565b34801562000ad257600080fd5b5062000aea62000ae43660046200549a565b62002301565b6040516200043e919062005504565b34801562000b0657600080fd5b50620004d4620023dc565b34801562000b1e57600080fd5b506200041562000b3036600462005519565b620023f6565b34801562000b4357600080fd5b50620004d462000b5536600462004da4565b6200283b565b34801562000b6857600080fd5b506200041562000b7a36600462004da4565b6200285d565b34801562000b8d57600080fd5b50600454620004d4565b34801562000ba457600080fd5b50620004d462000bb636600462004909565b620031cd565b34801562000bc957600080fd5b50600d54620004d4565b34801562000be057600080fd5b50600354620004d4565b34801562000bf757600080fd5b50620004d462000c0936600462004da4565b62003255565b34801562000c1c57600080fd5b50620004d460095481565b34801562000c3457600080fd5b50620004d460105481565b34801562000c4c57600080fd5b506200047f62000c5e366004620049f5565b60146020908152600092835260408084209091529082529020805460019091015482565b34801562000c8f57600080fd5b506200041562000ca136600462004909565b62003304565b34801562000cb457600080fd5b50620004d4620033d5565b34801562000ccc57600080fd5b50620004d460065481565b34801562000ce457600080fd5b50620004d462000cf6366004620055b6565b62003460565b34801562000d0957600080fd5b50600054620005f1906001600160a01b031681565b34801562000d2b57600080fd5b50620004d460075481565b6060601680548060200260200160405190810160405280929190818152602001828054801562000d8657602002820191906000526020600020905b81548152602001906001019080831162000d71575b5050505050905090565b6002805462000d9f90620055e3565b80601f016020809104026020016040519081016040528092919081815260200182805462000dcd90620055e3565b801562000e1e5780601f1062000df25761010080835404028352916020019162000e1e565b820191906000526020600020905b81548152906001019060200180831162000e0057829003601f168201915b505050505081565b600062000e4e61271062000e4760065462000e40620033d5565b90620034f0565b90620034fe565b905090565b33301462000ed95760405162461bcd60e51b815260206004820152604260248201527f45524332304775696c643a204f6e6c792063616c6c61626c652062792045524360448201527f32306775696c6420697473656c66206f72207768656e20696e697469616c697a606482015261195960f21b608482015260a4015b60405180910390fd5b60008a1162000efc5760405162461bcd60e51b815260040162000ed09062005620565b8983101562000f1f5760405162461bcd60e51b815260040162000ed0906200566f565b6000881162000f425760405162461bcd60e51b815260040162000ed090620056cc565b6201c90886111562000fbd5760405162461bcd60e51b815260206004820152603960248201527f45524332304775696c643a20766f7465206761732068617320746f206265206560448201527f7175616c206f72206c6f776572207468616e2031313730303000000000000000606482015260840162000ed0565b600399909955600497909755600595909555600693909355600791909155600855600955600d55600f55601055565b60008281526014602090815260408083206001600160a01b0385168452909152902080546001909101545b9250929050565b600080620010318888888888886200350c565b905060008054906101000a90046001600160a01b03166001600160a01b0316635439ad866040518163ffffffff1660e01b815260040160206040518083038186803b1580156200108057600080fd5b505afa15801562001095573d6000803e3d6000fd5b505050506040513d601f19601f82011682018060405250810190620010bb919062005729565b6000828152607c6020526040902055979650505050505050565b6000838152601560205260409020600201544210620011085760405162461bcd60e51b815260040162000ed09062005743565b6000838152607c602052604090205481906200112690339062003460565b1015620011475760405162461bcd60e51b815260040162000ed09062005799565b60008381526014602090815260408083203384529091529020541580156200118957506000838152601460209081526040808320338452909152902060010154155b80620011d45750600083815260146020908152604080832033845290915290205482148015620011d45750600083815260146020908152604080832033845290915290206001015481115b620011f35760405162461bcd60e51b815260040162000ed090620057ea565b620012013384848462003af2565b505050565b6060600280546200121790620055e3565b80601f01602080910402602001604051908101604052809291908181526020018280546200124590620055e3565b801562000d865780601f106200126a5761010080835404028352916020019162000d86565b820191906000526020600020905b8154815290600101906020018083116200127857509395945050505050565b6000858152601560205260409020600201544210620012ca5760405162461bcd60e51b815260040162000ed09062005743565b6000620012da8387878762002293565b60008181526013602052604090205490915060ff16156200134a5760405162461bcd60e51b8152602060048201526024808201527f536e617073686f7452657045524332304775696c643a20416c726561647920766044820152631bdd195960e21b606482015260840162000ed0565b62001361826200135a8362003d53565b9062003da6565b6001600160a01b0316836001600160a01b031614620013cf5760405162461bcd60e51b815260206004820152602360248201527f536e617073686f7452657045524332304775696c643a2057726f6e67207369676044820152623732b960e91b606482015260840162000ed0565b6000818152601360209081526040808320805460ff19166001179055888352607c90915290205484906200140590859062003460565b1015801562001438575060008681526014602090815260408083206001600160a01b038716845290915290206001015484115b620014575760405162461bcd60e51b815260040162000ed09062005799565b60008681526014602090815260408083206001600160a01b0387168452909152902054158015620014ab575060008681526014602090815260408083206001600160a01b0387168452909152902060010154155b8062001508575060008681526014602090815260408083206001600160a01b03871684529091529020548514801562001508575060008681526014602090815260408083206001600160a01b038716845290915290206001015484115b620015275760405162461bcd60e51b815260040162000ed090620057ea565b620015358387878762003af2565b505050505050565b60405162461bcd60e51b815260206004820152602b60248201527f536e617073686f7452657045524332304775696c643a20746f6b656e2076617560448201526a1b1d08191a5cd8589b195960aa1b606482015260840162000ed0565b60156020526000908152604090208054600182015460028301546006840180546001600160a01b03909416949293919291620015d690620055e3565b80601f01602080910402602001604051908101604052809291908181526020018280546200160490620055e3565b8015620016555780601f10620016295761010080835404028352916020019162001655565b820191906000526020600020905b8154815290600101906020018083116200163757829003601f168201915b5050505050908060070180546200166c90620055e3565b80601f01602080910402602001604051908101604052809291908181526020018280546200169a90620055e3565b8015620016eb5780601f10620016bf57610100808354040283529160200191620016eb565b820191906000526020600020905b815481529060010190602001808311620016cd57829003601f168201915b5050506008909301549192505060ff1686565b60175462010000900460ff16806200171e5750601754610100900460ff16155b6200173d5760405162461bcd60e51b815260040162000ed0906200585c565b60175462010000900460ff1615801562001763576017805462ffff001916620101001790555b6200176d62003dc6565b620017828c8c8c8c8c8c8c8c8c8c8c62003e55565b600160009054906101000a90046001600160a01b03166001600160a01b0316636cfe0489308e7f40c10f19c047ae7dfa66d6312b683d2ea3dfbcb4159e96b967c5f4b0a86f2842600060016040518663ffffffff1660e01b8152600401620017ef959493929190620058aa565b600060405180830381600087803b1580156200180a57600080fd5b505af11580156200181f573d6000803e3d6000fd5b50505050600160009054906101000a90046001600160a01b03166001600160a01b0316636cfe0489308e7f9dc29fac0ba6d4fc521c69c2b0c636d612e3343bc39ed934429b8876b0d12cba600060016040518663ffffffff1660e01b815260040162001890959493929190620058aa565b600060405180830381600087803b158015620018ab57600080fd5b505af1158015620018c0573d6000803e3d6000fd5b505050508015620018d8576017805462ff0000191690555b505050505050505050505050565b620018f06200462d565b60008281526015602090815260409182902082516101408101845281546001600160a01b0316815260018201548184015260028201548185015260038201805485518186028101860190965280865291949293606086019392908301828280156200198557602002820191906000526020600020905b81546001600160a01b0316815260019091019060200180831162001966575b5050505050815260200160048201805480602002602001604051908101604052809291908181526020016000905b8282101562001a69578382906000526020600020018054620019d590620055e3565b80601f016020809104026020016040519081016040528092919081815260200182805462001a0390620055e3565b801562001a545780601f1062001a285761010080835404028352916020019162001a54565b820191906000526020600020905b81548152906001019060200180831162001a3657829003601f168201915b505050505081526020019060010190620019b3565b5050505081526020016005820180548060200260200160405190810160405280929190818152602001828054801562001ac257602002820191906000526020600020905b81548152602001906001019080831162001aad575b5050505050815260200160068201805462001add90620055e3565b80601f016020809104026020016040519081016040528092919081815260200182805462001b0b90620055e3565b801562001b5c5780601f1062001b305761010080835404028352916020019162001b5c565b820191906000526020600020905b81548152906001019060200180831162001b3e57829003601f168201915b5050505050815260200160078201805462001b7790620055e3565b80601f016020809104026020016040519081016040528092919081815260200182805462001ba590620055e3565b801562001bf65780601f1062001bca5761010080835404028352916020019162001bf6565b820191906000526020600020905b81548152906001019060200180831162001bd857829003601f168201915b5050509183525050600882015460209091019060ff16600481111562001c205762001c2062004e2e565b600481111562001c345762001c3462004e2e565b81526020016009820180548060200260200160405190810160405280929190818152602001828054801562001c8957602002820191906000526020600020905b81548152602001906001019080831162001c74575b5050505050815250509050919050565b60608251845114801562001cae575081518351145b62001d225760405162461bcd60e51b815260206004820152603f60248201527f45524332304775696c643a20496e76616c69642070726f706f73616c4964732c60448201527f206f7074696f6e73206f7220766f74696e67506f77657273206c656e67746800606482015260840162000ed0565b60008085516001600160401b0381111562001d415762001d4162004a24565b60405190808252806020026020018201604052801562001d6b578160200160208202803683370190505b509050600091505b85518210156200210157426015600088858151811062001d975762001d97620058e5565b6020026020010151815260200190815260200160002060020154101562001de557600081838151811062001dcf5762001dcf620058e5565b91151560209283029190910190910152620020ec565b83828151811062001dfa5762001dfa620058e5565b602002602001015162001e0d33620031cd565b108062001e8a57506014600087848151811062001e2e5762001e2e620058e5565b602002602001015181526020019081526020016000206000336001600160a01b03166001600160a01b031681526020019081526020016000206001015484838151811062001e805762001e80620058e5565b6020026020010151105b1562001ea757600081838151811062001dcf5762001dcf620058e5565b6014600087848151811062001ec05762001ec0620058e5565b60209081029190910181015182528181019290925260409081016000908120338252909252902054158062001f4a57506014600087848151811062001f095762001f09620058e5565b602002602001015181526020019081526020016000206000336001600160a01b03166001600160a01b03168152602001908152602001600020600101546000145b801562002044575084828151811062001f675762001f67620058e5565b60200260200101516014600088858151811062001f885762001f88620058e5565b602002602001015181526020019081526020016000206000336001600160a01b03166001600160a01b03168152602001908152602001600020600001541415801562002044575083828151811062001fe45762001fe4620058e5565b602002602001015160146000888581518110620020055762002005620058e5565b602002602001015181526020019081526020016000206000336001600160a01b03166001600160a01b0316815260200190815260200160002060010154115b156200206157600081838151811062001dcf5762001dcf620058e5565b6001818381518110620020785762002078620058e5565b602002602001019015159081151581525050620020ec33878481518110620020a457620020a4620058e5565b6020026020010151878581518110620020c157620020c1620058e5565b6020026020010151878681518110620020de57620020de620058e5565b602002602001015162003af2565b81620020f88162005911565b92505062001d73565b95945050505050565b604a546001600160a01b03163314620021665760405162461bcd60e51b815260206004820181905260248201527f4f776e61626c653a2063616c6c6572206973206e6f7420746865206f776e6572604482015260640162000ed0565b6200217260006200407b565b565b60005b88518110156200228857620022738982815181106200219a576200219a620058e5565b6020026020010151898381518110620021b757620021b7620058e5565b6020026020010151898481518110620021d457620021d4620058e5565b6020026020010151898581518110620021f157620021f1620058e5565b60200260200101518986815181106200220e576200220e620058e5565b60200260200101518987815181106200222b576200222b620058e5565b6020026020010151898881518110620022485762002248620058e5565b6020026020010151898981518110620022655762002265620058e5565b6020026020010151620023f6565b806200227f8162005911565b91505062002177565b505050505050505050565b6040516bffffffffffffffffffffffff19606086901b166020820152603481018490526054810183905260748101829052600090609401604051602081830303815290604052805190602001209050949350505050565b6000620022f9828585620040cd565b949350505050565b6060600083516001600160401b0381111562002321576200232162004a24565b6040519080825280602002602001820160405280156200234b578160200160208202803683370190505b50905060005b8451811015620023d4576200239f858281518110620023745762002374620058e5565b6020026020010151858381518110620023915762002391620058e5565b602002602001015162003460565b828281518110620023b457620023b4620058e5565b602090810291909101015280620023cb8162005911565b91505062002351565b509392505050565b600062000e4e61271062000e4760055462000e40620033d5565b6000620024068886868662002293565b9050868114620024595760405162461bcd60e51b815260206004820152601d60248201527f45524332304775696c643a20496e76616c696420766f74652068617368000000604482015260640162000ed0565b60008181526013602052604090205460ff1615620024ba5760405162461bcd60e51b815260206004820152601960248201527f45524332304775696c643a20416c726561647920766f74656400000000000000604482015260640162000ed0565b600089604051602001620024d091815260200190565b604051602081830303815290604052805190602001209050620024f8836200135a8362003d53565b6001600160a01b0316896001600160a01b0316146200255a5760405162461bcd60e51b815260206004820152601860248201527f45524332304775696c643a2057726f6e67207369676e65720000000000000000604482015260640162000ed0565b6000620025698b8a8a620022ea565b905080620025c65760405162461bcd60e51b8152602060048201526024808201527f45524332304775696c643a20496e76616c6964206d65726b6c652074726565206044820152633632b0b360e11b606482015260840162000ed0565b60008781526015602052604090206002015442106200263c5760405162461bcd60e51b815260206004820152602b60248201527f45524332304775696c643a2050726f706f73616c20656e6465642c2063616e6e60448201526a1bdd081899481d9bdd195960aa1b606482015260840162000ed0565b84620026488b620031cd565b101580156200267b575060008781526014602090815260408083206001600160a01b038e16845290915290206001015485115b620026d85760405162461bcd60e51b815260206004820152602660248201527f45524332304775696c643a20496e76616c696420766f74696e67506f77657220604482015265185b5bdd5b9d60d21b606482015260840162000ed0565b60008781526014602090815260408083206001600160a01b038e1684529091529020541580156200272c575060008781526014602090815260408083206001600160a01b038e168452909152902060010154155b8062002789575060008781526014602090815260408083206001600160a01b038e1684529091529020548614801562002789575060008781526014602090815260408083206001600160a01b038e16845290915290206001015485115b620028075760405162461bcd60e51b815260206004820152604160248201527f45524332304775696c643a2043616e6e6f74206368616e6765206f7074696f6e60448201527f20766f7465642c206f6e6c7920696e63726561736520766f74696e67506f77656064820152603960f91b608482015260a40162000ed0565b6000838152601360205260409020805460ff191660011790556200282e8a88888862003af2565b5050505050505050505050565b601681815481106200284c57600080fd5b600091825260209091200154905081565b60175460ff1615620028c55760405162461bcd60e51b815260206004820152602a60248201527f4552433230536e617073686f745265703a2050726f706f73616c20756e6465726044820152691032bc32b1baba34b7b760b11b606482015260840162000ed0565b600160008281526015602052604090206008015460ff166004811115620028f057620028f062004e2e565b14620029535760405162461bcd60e51b815260206004820152602b60248201527f4552433230536e617073686f745265703a2050726f706f73616c20616c72656160448201526a191e48195e1958dd5d195960aa1b606482015260840162000ed0565b6000818152601560205260409020600201544211620029c95760405162461bcd60e51b815260206004820152602b60248201527f4552433230536e617073686f745265703a2050726f706f73616c206861736e2760448201526a1d08195b991959081e595d60aa1b606482015260840162000ed0565b600081815260156020526040812060090180548291908290620029f057620029f0620058e5565b600091825260209091200154905060015b60008481526015602052604090206009015481101562002b315762002a268462003255565b600085815260156020526040902060090180548390811062002a4c5762002a4c620058e5565b90600052602060002001541015801562002a985750600084815260156020526040902060090180548391908390811062002a8a5762002a8a620058e5565b906000526020600020015410155b1562002b1c57600084815260156020526040902060090180548391908390811062002ac75762002ac7620058e5565b9060005260206000200154141562002ae3576000925062002b1c565b6000848152601560205260409020600901805491935083918290811062002b0e5762002b0e620058e5565b906000526020600020015491505b8062002b288162005911565b91505062002a01565b8262002b81576000848152601560205260409020600801805460ff191660029081179091558490600080516020620062e0833981519152905b60405190815260200160405180910390a2620031b4565b600454600085815260156020526040902060020154429162002ba49190620040e5565b101562002be3576000848152601560205260409020600801805460ff191660049081179091558490600080516020620062e08339815191529062002b6a565b600084815260156020526040812060088101805460ff191660031790556009015462002c2f9062002c16906001620040f3565b60008781526015602052604090206003015490620034fe565b905062002c4a62002c42856001620040f3565b8290620034f0565b9150600062002c5a8383620040e5565b9050600160009054906101000a90046001600160a01b03166001600160a01b0316633e7a47b26040518163ffffffff1660e01b8152600401600060405180830381600087803b15801562002cad57600080fd5b505af115801562002cc2573d6000803e3d6000fd5b505050505b808310156200310b57600086815260156020526040812060030180548590811062002cf65762002cf6620058e5565b6000918252602090912001546001600160a01b03161480159062002d565750600086815260156020526040812060040180548590811062002d3b5762002d3b620058e5565b90600052602060002001805462002d5290620055e3565b9050115b15620030f657600086815260156020526040812060040180548590811062002d825762002d82620058e5565b90600052602060002001805462002d9990620055e3565b80601f016020809104026020016040519081016040528092919081815260200182805462002dc790620055e3565b801562002e185780601f1062002dec5761010080835404028352916020019162002e18565b820191906000526020600020905b81548152906001019060200180831162002dfa57829003601f168201915b50505060208084015160015460008d815260159093526040909220600301805495965090946001600160a01b03909216935063eed47033925030918990811062002e665762002e66620058e5565b9060005260206000200160009054906101000a90046001600160a01b031684601560008e81526020019081526020016000206005018a8154811062002eaf5762002eaf620058e5565b60009182526020909120015460405160e086901b6001600160e01b031990811682526001600160a01b039586166004830152939094166024850152911660448301526064820152608401600060405180830381600087803b15801562002f1457600080fd5b505af192505050801562002f26575060015b62002f825762002f356200592f565b806308c379a0141562002f76575062002f4d6200594c565b8062002f5a575062002f78565b8060405162461bcd60e51b815260040162000ed0919062004977565b505b3d6000803e3d6000fd5b6017805460ff19166001179055600088815260156020526040812060030180548790811062002fb55762002fb5620058e5565b60009182526020808320909101548b83526015909152604090912060050180546001600160a01b03909216918890811062002ff45762002ff4620058e5565b9060005260206000200154601560008c81526020019081526020016000206004018881548110620030295762003029620058e5565b90600052602060002001604051620030429190620059db565b60006040518083038185875af1925050503d806000811462003081576040519150601f19603f3d011682016040523d82523d6000602084013e62003086565b606091505b5050905080620030e85760405162461bcd60e51b815260206004820152602660248201527f4552433230536e617073686f745265703a2050726f706f73616c2063616c6c2060448201526519985a5b195960d21b606482015260840162000ed0565b50506017805460ff19169055505b82620031028162005911565b93505062002cc7565b60015460405163fb0fde8560e01b81523060048201526001600160a01b039091169063fb0fde8590602401602060405180830381600087803b1580156200315157600080fd5b505af115801562003166573d6000803e3d6000fd5b505050506040513d601f19601f820116820180604052508101906200318c919062005a7f565b5085600080516020620062e0833981519152600360405190815260200160405180910390a250505b600c54620031c4906001620040f3565b600c5550505050565b600080546040516370a0823160e01b81526001600160a01b038481166004830152909116906370a082319060240160206040518083038186803b1580156200321457600080fd5b505afa15801562003229573d6000803e3d6000fd5b505050506040513d601f19601f820116820180604052508101906200324f919062005729565b92915050565b6005546000805490916200324f916127109162000e47916001600160a01b031663981b24d062003291886000908152607c602052604090205490565b6040518263ffffffff1660e01b8152600401620032b091815260200190565b60206040518083038186803b158015620032c957600080fd5b505afa158015620032de573d6000803e3d6000fd5b505050506040513d601f19601f8201168201806040525081019062000e40919062005729565b604a546001600160a01b03163314620033605760405162461bcd60e51b815260206004820181905260248201527f4f776e61626c653a2063616c6c6572206973206e6f7420746865206f776e6572604482015260640162000ed0565b6001600160a01b038116620033c75760405162461bcd60e51b815260206004820152602660248201527f4f776e61626c653a206e6577206f776e657220697320746865207a65726f206160448201526564647265737360d01b606482015260840162000ed0565b620033d2816200407b565b50565b60008060009054906101000a90046001600160a01b03166001600160a01b03166318160ddd6040518163ffffffff1660e01b815260040160206040518083038186803b1580156200342557600080fd5b505afa1580156200343a573d6000803e3d6000fd5b505050506040513d601f19601f8201168201806040525081019062000e4e919062005729565b6000805460405163277166bf60e11b81526001600160a01b0385811660048301526024820185905290911690634ee2cd7e9060440160206040518083038186803b158015620034ae57600080fd5b505afa158015620034c3573d6000803e3d6000fd5b505050506040513d601f19601f82011682018060405250810190620034e9919062005729565b9392505050565b6000620034e9828462005aa3565b6000620034e9828462005adb565b6000601054600e5410156200358a5760405162461bcd60e51b815260206004820152603960248201527f45524332304775696c643a204e6f7420656e6f75676820746f6b656e73206c6f60448201527f636b656420746f2063726561746520612070726f706f73616c00000000000000606482015260840162000ed0565b600f54600b541015620035fc5760405162461bcd60e51b815260206004820152603360248201527f45524332304775696c643a204e6f7420656e6f756768206d656d6265727320746044820152721bc818dc99585d194818481c1c9bdc1bdcd85b606a1b606482015260840162000ed0565b600954600c5410620036705760405162461bcd60e51b815260206004820152603660248201527f45524332304775696c643a204d6178696d756d20616d6f756e74206f662061636044820152751d1a5d99481c1c9bdc1bdcd85b1cc81c995858da195960521b606482015260840162000ed0565b6200367a62000e26565b6200368533620031cd565b1015620036f35760405162461bcd60e51b815260206004820152603560248201527f45524332304775696c643a204e6f7420656e6f75676820766f74696e67506f77604482015274195c881d1bc818dc99585d19481c1c9bdc1bdcd85b605a1b606482015260840162000ed0565b8551875114801562003706575084518751145b620037715760405162461bcd60e51b815260206004820152603460248201527f45524332304775696c643a2057726f6e67206c656e677468206f6620746f2c2060448201527364617461206f722076616c75652061727261797360601b606482015260840162000ed0565b6000875111620037de5760405162461bcd60e51b815260206004820152603160248201527f45524332304775696c643a20746f2c20646174612076616c7565206172726179604482015270732063616e6e6f7420626520656d70747960781b606482015260840162000ed0565b86518411158015620037fb57508451620037f9908562004101565b155b6200386f5760405162461bcd60e51b815260206004820152603760248201527f45524332304775696c643a20496e76616c696420746f74616c4f7074696f6e7360448201527f206f72206f7074696f6e2063616c6c73206c656e677468000000000000000000606482015260840162000ed0565b600a841115620038e85760405162461bcd60e51b815260206004820152603a60248201527f45524332304775696c643a204d6178696d756d20616d6f756e74206f66206f7060448201527f74696f6e73207065722070726f706f73616c2072656163686564000000000000606482015260840162000ed0565b600a546040516bffffffffffffffffffffffff193360601b16602082015242603482015260548101919091526000906074016040516020818303038152906040528051906020012090506200394a6001600a54620040e590919063ffffffff16565b600a55600081815260156020526040902080546001600160a01b031916331781554260018201819055600354620039829190620040e5565b600282015588516200399e90600383019060208c01906200469d565b508751620039b690600483019060208b019062004707565b508651620039ce90600583019060208a019062004767565b508451620039e69060068301906020880190620047a5565b508351620039fe9060078301906020870190620047a5565b5062003a0c866001620040e5565b6001600160401b0381111562003a265762003a2662004a24565b60405190808252806020026020018201604052801562003a50578160200160208202803683370190505b50805162003a6991600984019160209091019062004767565b5060088101805460ff19166001908117909155600c5462003a8a91620040e5565b600c5581600080516020620062e0833981519152600160405190815260200160405180910390a250601680546001810182556000919091527fd833147d7dc355ba459fc788f669e58cfaf9dc25ddcd0702e87d69c7b512428901819055979650505050505050565b60008381526014602090815260408083206001600160a01b03881684528252808320600101548684526015909252909120600901805462003b6892849262003b61928790811062003b475762003b47620058e5565b9060005260206000200154620040f390919063ffffffff16565b90620040e5565b600084815260156020526040902060090180548490811062003b8e5762003b8e620058e5565b60009182526020808320909101929092558481526014825260408082206001600160a01b038816835283528082208581556001018490558582526015909252206002015462003bf5856001600160a01b031660009081526012602052604090206001015490565b101562003c2a576000838152601560209081526040808320600201546001600160a01b03881684526012909252909120600101555b604080516001600160a01b038616815260208101839052839185917f583c62f152711bcb1ca6186c1065821ff17a7cbe226dcb559a1c889dcf0d769b910160405180910390a36007541562003d4d57600062003ca062003c966008543a6200410f90919063ffffffff16565b60075490620034f0565b905080471015801562003cb25750333b155b1562003d4b57604051600090339083908381818185875af1925050503d806000811462003cfc576040519150601f19603f3d011682016040523d82523d6000602084013e62003d01565b606091505b5050905080620015355760405162461bcd60e51b81526020600482015260146024820152734661696c656420746f20726566756e642067617360601b604482015260640162000ed0565b505b50505050565b6040517f19457468657265756d205369676e6564204d6573736167653a0a3332000000006020820152603c8101829052600090605c01604051602081830303815290604052805190602001209050919050565b600080600062003db7858562004127565b91509150620023d4816200419d565b60175462010000900460ff168062003de65750601754610100900460ff16155b62003e055760405162461bcd60e51b815260040162000ed0906200585c565b60175462010000900460ff1615801562003e2b576017805462ffff001916620101001790555b62003e3562004370565b62003e3f620043ea565b8015620033d2576017805462ff00001916905550565b60175462010000900460ff168062003e755750601754610100900460ff16155b62003e945760405162461bcd60e51b815260040162000ed0906200585c565b60175462010000900460ff1615801562003eba576017805462ffff001916620101001790555b6001600160a01b038c1662003f215760405162461bcd60e51b815260206004820152602660248201527f45524332304775696c643a20746f6b656e2063616e74206265207a65726f206160448201526564647265737360d01b606482015260840162000ed0565b60008b1162003f445760405162461bcd60e51b815260040162000ed09062005620565b8a83101562003f675760405162461bcd60e51b815260040162000ed0906200566f565b6000891162003f8a5760405162461bcd60e51b815260040162000ed090620056cc565b865162003f9f9060029060208a0190620047a5565b50600080546001600160a01b0319166001600160a01b038e16908117909155604051309062003fce9062004821565b6001600160a01b03928316815291166020820152604001604051809103906000f08015801562004002573d6000803e3d6000fd5b50601180546001600160a01b03199081166001600160a01b039384161790915560038d905560048c905560058b905560068a9055600788905560088790556009869055600d859055600180549091169184169190911790558015620018d8576017805462ff000019169055505050505050505050505050565b604a80546001600160a01b038381166001600160a01b0319831681179093556040519116919082907f8be0079c531659141344cd1fd0a4f28419497f9722a3daafe3b4186f6b6457e090600090a35050565b600082620040dc85846200445a565b14949350505050565b6000620034e9828462005af2565b6000620034e9828462005b0d565b6000620034e9828462005b27565b6000818310620041205781620034e9565b5090919050565b600080825160411415620041625760208301516040840151606085015160001a620041558782858562004507565b9450945050505062001017565b82516040141562004190576020830151604084015162004184868383620045fc565b93509350505062001017565b5060009050600262001017565b6000816004811115620041b457620041b462004e2e565b1415620041be5750565b6001816004811115620041d557620041d562004e2e565b1415620042255760405162461bcd60e51b815260206004820152601860248201527f45434453413a20696e76616c6964207369676e61747572650000000000000000604482015260640162000ed0565b60028160048111156200423c576200423c62004e2e565b14156200428c5760405162461bcd60e51b815260206004820152601f60248201527f45434453413a20696e76616c6964207369676e6174757265206c656e67746800604482015260640162000ed0565b6003816004811115620042a357620042a362004e2e565b1415620042fe5760405162461bcd60e51b815260206004820152602260248201527f45434453413a20696e76616c6964207369676e6174757265202773272076616c604482015261756560f01b606482015260840162000ed0565b600481600481111562004315576200431562004e2e565b1415620033d25760405162461bcd60e51b815260206004820152602260248201527f45434453413a20696e76616c6964207369676e6174757265202776272076616c604482015261756560f01b606482015260840162000ed0565b60175462010000900460ff1680620043905750601754610100900460ff16155b620043af5760405162461bcd60e51b815260040162000ed0906200585c565b60175462010000900460ff1615801562003e3f576017805462ffff001916620101001790558015620033d2576017805462ff00001916905550565b60175462010000900460ff16806200440a5750601754610100900460ff16155b620044295760405162461bcd60e51b815260040162000ed0906200585c565b60175462010000900460ff161580156200444f576017805462ffff001916620101001790555b62003e3f336200407b565b600081815b8451811015620023d4576000858281518110620044805762004480620058e5565b60200260200101519050808311620044c4576040805160208101859052908101829052606001604051602081830303815290604052805190602001209250620044f1565b60408051602081018390529081018490526060016040516020818303038152906040528051906020012092505b5080620044fe8162005911565b9150506200445f565b6000807f7fffffffffffffffffffffffffffffff5d576e7357a4501ddfe92f46681b20a0831115620045405750600090506003620045f3565b8460ff16601b141580156200455957508460ff16601c14155b156200456c5750600090506004620045f3565b6040805160008082526020820180845289905260ff881692820192909252606081018690526080810185905260019060a0016020604051602081039080840390855afa158015620045c1573d6000803e3d6000fd5b5050604051601f1901519150506001600160a01b038116620045ec57600060019250925050620045f3565b9150600090505b94509492505050565b6000806001600160ff1b03831660ff84901c601b016200461f8782888562004507565b935093505050935093915050565b60405180610140016040528060006001600160a01b03168152602001600081526020016000815260200160608152602001606081526020016060815260200160608152602001606081526020016000600481111562004690576200469062004e2e565b8152602001606081525090565b828054828255906000526020600020908101928215620046f5579160200282015b82811115620046f557825182546001600160a01b0319166001600160a01b03909116178255602090920191600190910190620046be565b50620047039291506200482f565b5090565b82805482825590600052602060002090810192821562004759579160200282015b8281111562004759578251805162004748918491602090910190620047a5565b509160200191906001019062004728565b506200470392915062004846565b828054828255906000526020600020908101928215620046f5579160200282015b82811115620046f557825182559160200191906001019062004788565b828054620047b390620055e3565b90600052602060002090601f016020900481019282620047d75760008555620046f5565b82601f10620047f257805160ff1916838001178555620046f5565b82800160010185558215620046f55791820182811115620046f557825182559160200191906001019062004788565b6107a18062005b3f83390190565b5b8082111562004703576000815560010162004830565b80821115620047035760006200485d828262004867565b5060010162004846565b5080546200487590620055e3565b6000825580601f1062004886575050565b601f016020900490600052602060002090810190620033d291906200482f565b6020808252825182820181905260009190848201906040850190845b81811015620048e057835183529284019291840191600101620048c2565b50909695505050505050565b80356001600160a01b03811681146200490457600080fd5b919050565b6000602082840312156200491c57600080fd5b620034e982620048ec565b6000815180845260005b818110156200494f5760208185018101518683018201520162004931565b8181111562004962576000602083870101525b50601f01601f19169290920160200192915050565b602081526000620034e9602083018462004927565b6000806000806000806000806000806101408b8d031215620049ad57600080fd5b505088359a60208a01359a5060408a013599606081013599506080810135985060a0810135975060c0810135965060e081013595506101008101359450610120013592509050565b6000806040838503121562004a0957600080fd5b8235915062004a1b60208401620048ec565b90509250929050565b634e487b7160e01b600052604160045260246000fd5b601f8201601f191681016001600160401b038111828210171562004a625762004a6262004a24565b6040525050565b60006001600160401b0382111562004a855762004a8562004a24565b5060051b60200190565b600082601f83011262004aa157600080fd5b8135602062004ab08262004a69565b60405162004abf828262004a3a565b83815260059390931b850182019282810191508684111562004ae057600080fd5b8286015b8481101562004b065762004af881620048ec565b835291830191830162004ae4565b509695505050505050565b600082601f83011262004b2357600080fd5b81356001600160401b0381111562004b3f5762004b3f62004a24565b60405162004b58601f8301601f19166020018262004a3a565b81815284602083860101111562004b6e57600080fd5b816020850160208301376000918101602001919091529392505050565b600082601f83011262004b9d57600080fd5b8135602062004bac8262004a69565b60405162004bbb828262004a3a565b83815260059390931b850182019282810191508684111562004bdc57600080fd5b8286015b8481101562004b065780356001600160401b0381111562004c015760008081fd5b62004c118986838b010162004b11565b84525091830191830162004be0565b600082601f83011262004c3257600080fd5b8135602062004c418262004a69565b60405162004c50828262004a3a565b83815260059390931b850182019282810191508684111562004c7157600080fd5b8286015b8481101562004b06578035835291830191830162004c75565b60008060008060008060c0878903121562004ca857600080fd5b86356001600160401b038082111562004cc057600080fd5b62004cce8a838b0162004a8f565b9750602089013591508082111562004ce557600080fd5b62004cf38a838b0162004b8b565b9650604089013591508082111562004d0a57600080fd5b62004d188a838b0162004c20565b955060608901359450608089013591508082111562004d3657600080fd5b62004d448a838b0162004b11565b935060a089013591508082111562004d5b57600080fd5b5062004d6a89828a0162004b11565b9150509295509295509295565b60008060006060848603121562004d8d57600080fd5b505081359360208301359350604090920135919050565b60006020828403121562004db757600080fd5b5035919050565b600080600080600060a0868803121562004dd757600080fd5b85359450602086013593506040860135925062004df760608701620048ec565b915060808601356001600160401b0381111562004e1357600080fd5b62004e218882890162004b11565b9150509295509295909350565b634e487b7160e01b600052602160045260246000fd5b6005811062004e6357634e487b7160e01b600052602160045260246000fd5b9052565b60018060a01b038716815285602082015284604082015260c06060820152600062004e9660c083018662004927565b828103608084015262004eaa818662004927565b91505062004ebc60a083018462004e44565b979650505050505050565b60008060008060008060008060008060006101608c8e03121562004eea57600080fd5b62004ef58c620048ec565b9a5060208c0135995060408c0135985060608c0135975060808c0135965060a08c01356001600160401b0381111562004f2d57600080fd5b62004f3b8e828f0162004b11565b96505060c08c0135945060e08c013593506101008c013592506101208c0135915062004f6b6101408d01620048ec565b90509295989b509295989b9093969950565b600081518084526020808501945080840160005b8381101562004fb85781516001600160a01b03168752958201959082019060010162004f91565b509495945050505050565b600081518084526020808501808196508360051b8101915082860160005b858110156200500f57828403895262004ffc84835162004927565b9885019893509084019060010162004fe1565b5091979650505050505050565b600081518084526020808501945080840160005b8381101562004fb85781518752958201959082019060010162005030565b60208152620050696020820183516001600160a01b03169052565b6020820151604082015260408201516060820152600060608301516101408060808501526200509d61016085018362004f7d565b91506080850151601f19808685030160a0870152620050bd848362004fc3565b935060a08701519150808685030160c0870152620050dc84836200501c565b935060c08701519150808685030160e0870152620050fb848362004927565b935060e087015191506101008187860301818801526200511c858462004927565b945080880151925050610120620051368188018462004e44565b8701518685039091018387015290506200515183826200501c565b9695505050505050565b6000806000606084860312156200517157600080fd5b83356001600160401b03808211156200518957600080fd5b620051978783880162004c20565b94506020860135915080821115620051ae57600080fd5b620051bc8783880162004c20565b93506040860135915080821115620051d357600080fd5b50620051e28682870162004c20565b9150509250925092565b6020808252825182820181905260009190848201906040850190845b81811015620048e057835115158352928401929184019160010162005208565b600082601f8301126200523a57600080fd5b81356020620052498262004a69565b60405162005258828262004a3a565b83815260059390931b85018201928281019150868411156200527957600080fd5b8286015b8481101562004b065780356001600160401b038111156200529e5760008081fd5b620052ae8986838b010162004c20565b8452509183019183016200527d565b600080600080600080600080610100898b031215620052db57600080fd5b88356001600160401b0380821115620052f357600080fd5b620053018c838d0162004c20565b995060208b01359150808211156200531857600080fd5b620053268c838d0162004a8f565b985060408b01359150808211156200533d57600080fd5b6200534b8c838d0162004c20565b975060608b01359150808211156200536257600080fd5b620053708c838d0162005228565b965060808b01359150808211156200538757600080fd5b620053958c838d0162004c20565b955060a08b0135915080821115620053ac57600080fd5b620053ba8c838d0162004c20565b945060c08b0135915080821115620053d157600080fd5b620053df8c838d0162004c20565b935060e08b0135915080821115620053f657600080fd5b50620054058b828c0162004b8b565b9150509295985092959890939650565b600080600080608085870312156200542c57600080fd5b6200543785620048ec565b966020860135965060408601359560600135945092505050565b6000806000606084860312156200546757600080fd5b833592506020840135915060408401356001600160401b038111156200548c57600080fd5b620051e28682870162004c20565b60008060408385031215620054ae57600080fd5b82356001600160401b0380821115620054c657600080fd5b620054d48683870162004a8f565b93506020850135915080821115620054eb57600080fd5b50620054fa8582860162004c20565b9150509250929050565b602081526000620034e960208301846200501c565b600080600080600080600080610100898b0312156200553757600080fd5b883597506200554960208a01620048ec565b96506040890135955060608901356001600160401b03808211156200556d57600080fd5b6200557b8c838d0162004c20565b965060808b0135955060a08b0135945060c08b0135935060e08b0135915080821115620055a757600080fd5b50620054058b828c0162004b11565b60008060408385031215620055ca57600080fd5b620055d583620048ec565b946020939093013593505050565b600181811c90821680620055f857607f821691505b602082108114156200561a57634e487b7160e01b600052602260045260246000fd5b50919050565b6020808252602f908201527f45524332304775696c643a2070726f706f73616c2074696d652068617320746f60408201526e0206265206d6f7265207468616e203608c1b606082015260800190565b6020808252603e908201527f45524332304775696c643a206c6f636b54696d652068617320746f206265206860408201527f6967686572206f7220657175616c20746f2070726f706f73616c54696d650000606082015260800190565b6020808252603c908201527f45524332304775696c643a20766f74696e6720706f77657220666f722065786560408201527f637574696f6e2068617320746f206265206d6f7265207468616e203000000000606082015260800190565b6000602082840312156200573c57600080fd5b5051919050565b60208082526036908201527f536e617073686f7452657045524332304775696c643a2050726f706f73616c20604082015275195b9919590b0818d85b9b9bdd081899481d9bdd195960521b606082015260800190565b60208082526031908201527f536e617073686f7452657045524332304775696c643a20496e76616c696420766040820152701bdd1a5b99d41bddd95c88185b5bdd5b9d607a1b606082015260800190565b6020808252604c908201527f536e617073686f7452657045524332304775696c643a2043616e6e6f7420636860408201527f616e6765206f7074696f6e20766f7465642c206f6e6c7920696e63726561736560608201526b103b37ba34b733a837bbb2b960a11b608082015260a00190565b6020808252602e908201527f496e697469616c697a61626c653a20636f6e747261637420697320616c72656160408201526d191e481a5b9a5d1a585b1a5e995960921b606082015260800190565b6001600160a01b0395861681529390941660208401526001600160e01b03199190911660408301526060820152901515608082015260a00190565b634e487b7160e01b600052603260045260246000fd5b634e487b7160e01b600052601160045260246000fd5b6000600019821415620059285762005928620058fb565b5060010190565b600060033d1115620059495760046000803e5060005160e01c5b90565b600060443d10156200595b5790565b6040516003193d81016004833e81513d6001600160401b0381602484011181841117156200598b57505050505090565b8285019150815181811115620059a45750505050505090565b843d8701016020828501011115620059bf5750505050505090565b620059d06020828601018762004a3a565b509095945050505050565b600080835481600182811c915080831680620059f857607f831692505b602080841082141562005a1957634e487b7160e01b86526022600452602486fd5b81801562005a30576001811462005a425762005a71565b60ff1986168952848901965062005a71565b60008a81526020902060005b8681101562005a695781548b82015290850190830162005a4e565b505084890196505b509498975050505050505050565b60006020828403121562005a9257600080fd5b81518015158114620034e957600080fd5b600081600019048311821515161562005ac05762005ac0620058fb565b500290565b634e487b7160e01b600052601260045260246000fd5b60008262005aed5762005aed62005ac5565b500490565b6000821982111562005b085762005b08620058fb565b500190565b60008282101562005b225762005b22620058fb565b500390565b60008262005b395762005b3962005ac5565b50069056fe608060405234801561001057600080fd5b506040516107a13803806107a183398101604081905261002f9161007c565b600080546001600160a01b039384166001600160a01b031991821617909155600180549290931691161790556100af565b80516001600160a01b038116811461007757600080fd5b919050565b6000806040838503121561008f57600080fd5b61009883610060565b91506100a660208401610060565b90509250929050565b6106e3806100be6000396000f3fe608060405234801561001057600080fd5b506004361061007d5760003560e01c80636e9960c31161005b5780636e9960c3146100ef578063f3fef3a314610100578063f851a44014610113578063fc0c546a1461012657600080fd5b806321df0da71461008257806327e235e3146100ac57806347e7ef24146100da575b600080fd5b6000546001600160a01b03165b6040516001600160a01b0390911681526020015b60405180910390f35b6100cc6100ba366004610586565b60026020526000908152604090205481565b6040519081526020016100a3565b6100ed6100e83660046105a1565b610139565b005b6001546001600160a01b031661008f565b6100ed61010e3660046105a1565b61020a565b60015461008f906001600160a01b031681565b60005461008f906001600160a01b031681565b6001546001600160a01b031633146101af5760405162461bcd60e51b815260206004820152602e60248201527f546f6b656e5661756c743a204465706f736974206d7573742062652073656e7460448201526d103a343937bab3b41030b236b4b760911b60648201526084015b60405180910390fd5b6000546101c7906001600160a01b031683308461025b565b6001600160a01b0382166000908152600260205260409020546101ea90826102cc565b6001600160a01b0390921660009081526002602052604090209190915550565b6001546001600160a01b0316331461022157600080fd5b600054610238906001600160a01b031683836102df565b6001600160a01b0382166000908152600260205260409020546101ea9082610314565b6040516001600160a01b03808516602483015283166044820152606481018290526102c69085906323b872dd60e01b906084015b60408051601f198184030181529190526020810180516001600160e01b03166001600160e01b031990931692909217909152610320565b50505050565b60006102d882846105e1565b9392505050565b6040516001600160a01b03831660248201526044810182905261030f90849063a9059cbb60e01b9060640161028f565b505050565b60006102d882846105f9565b6000610375826040518060400160405280602081526020017f5361666545524332303a206c6f772d6c6576656c2063616c6c206661696c6564815250856001600160a01b03166103f29092919063ffffffff16565b80519091501561030f57808060200190518101906103939190610610565b61030f5760405162461bcd60e51b815260206004820152602a60248201527f5361666545524332303a204552433230206f7065726174696f6e20646964206e6044820152691bdd081cdd58d8d9595960b21b60648201526084016101a6565b60606104018484600085610409565b949350505050565b60608247101561046a5760405162461bcd60e51b815260206004820152602660248201527f416464726573733a20696e73756666696369656e742062616c616e636520666f6044820152651c8818d85b1b60d21b60648201526084016101a6565b843b6104b85760405162461bcd60e51b815260206004820152601d60248201527f416464726573733a2063616c6c20746f206e6f6e2d636f6e747261637400000060448201526064016101a6565b600080866001600160a01b031685876040516104d4919061065e565b60006040518083038185875af1925050503d8060008114610511576040519150601f19603f3d011682016040523d82523d6000602084013e610516565b606091505b5091509150610526828286610531565b979650505050505050565b606083156105405750816102d8565b8251156105505782518084602001fd5b8160405162461bcd60e51b81526004016101a6919061067a565b80356001600160a01b038116811461058157600080fd5b919050565b60006020828403121561059857600080fd5b6102d88261056a565b600080604083850312156105b457600080fd5b6105bd8361056a565b946020939093013593505050565b634e487b7160e01b600052601160045260246000fd5b600082198211156105f4576105f46105cb565b500190565b60008282101561060b5761060b6105cb565b500390565b60006020828403121561062257600080fd5b815180151581146102d857600080fd5b60005b8381101561064d578181015183820152602001610635565b838111156102c65750506000910152565b60008251610670818460208701610632565b9190910192915050565b6020815260008251806020840152610699816040850160208701610632565b601f01601f1916919091016040019291505056fea2646970667358221220f83df9be484204d29c000a118187aee7d3ca7efcb094476e4ad893327bb967b564736f6c63430008080033fee62a9eec0be50eb061c711990ef0f1e17b40ea131d9347b0468acdaf8bf243a2646970667358221220208ee0283c4dbe89ff07203988f831dc0efecb6f2c1bf1ccae02d384ba96e2e064736f6c63430008080033",
  "linkReferences": {},
  "deployedLinkReferences": {}
}