{
  "_format": "hh-sol-artifact-1",
  "contractName": "SnapshotERC20Guild",
  "sourceName": "contracts/erc20guild/implementations/SnapshotERC20Guild.sol",
  "abi": [
    {
      "anonymous": false,
      "inputs": [
        {
          "indexed": true,
          "internalType": "bytes32",
          "name": "proposalId",
          "type": "bytes32"
        },
        {
          "indexed": false,
          "internalType": "uint256",
          "name": "newState",
          "type": "uint256"
        }
      ],
      "name": "ProposalStateChanged",
      "type": "event"
    },
    {
      "anonymous": false,
      "inputs": [
        {
          "indexed": false,
          "internalType": "address",
          "name": "voter",
          "type": "address"
        },
        {
          "indexed": false,
          "internalType": "uint256",
          "name": "value",
          "type": "uint256"
        }
      ],
      "name": "TokensLocked",
      "type": "event"
    },
    {
      "anonymous": false,
      "inputs": [
        {
          "indexed": false,
          "internalType": "address",
          "name": "voter",
          "type": "address"
        },
        {
          "indexed": false,
          "internalType": "uint256",
          "name": "value",
          "type": "uint256"
        }
      ],
      "name": "TokensWithdrawn",
      "type": "event"
    },
    {
      "anonymous": false,
      "inputs": [
        {
          "indexed": true,
          "internalType": "bytes32",
          "name": "proposalId",
          "type": "bytes32"
        },
        {
          "indexed": true,
          "internalType": "uint256",
          "name": "action",
          "type": "uint256"
        },
        {
          "indexed": false,
          "internalType": "address",
          "name": "voter",
          "type": "address"
        },
        {
          "indexed": false,
          "internalType": "uint256",
          "name": "votingPower",
          "type": "uint256"
        }
      ],
      "name": "VoteAdded",
      "type": "event"
    },
    {
      "stateMutability": "payable",
      "type": "fallback"
    },
    {
      "inputs": [],
      "name": "MAX_ACTIONS_PER_PROPOSAL",
      "outputs": [
        {
          "internalType": "uint8",
          "name": "",
          "type": "uint8"
        }
      ],
      "stateMutability": "view",
      "type": "function"
    },
    {
      "inputs": [],
      "name": "activeProposalsNow",
      "outputs": [
        {
          "internalType": "uint256",
          "name": "",
          "type": "uint256"
        }
      ],
      "stateMutability": "view",
      "type": "function"
    },
    {
      "inputs": [
        {
          "internalType": "address[]",
          "name": "to",
          "type": "address[]"
        },
        {
          "internalType": "bytes[]",
          "name": "data",
          "type": "bytes[]"
        },
        {
          "internalType": "uint256[]",
          "name": "value",
          "type": "uint256[]"
        },
        {
          "internalType": "uint256",
          "name": "totalActions",
          "type": "uint256"
        },
        {
          "internalType": "string",
          "name": "title",
          "type": "string"
        },
        {
          "internalType": "string",
          "name": "contentHash",
          "type": "string"
        }
      ],
      "name": "createProposal",
      "outputs": [
        {
          "internalType": "bytes32",
          "name": "",
          "type": "bytes32"
        }
      ],
      "stateMutability": "nonpayable",
      "type": "function"
    },
    {
      "inputs": [
        {
          "internalType": "bytes32",
          "name": "proposalId",
          "type": "bytes32"
        }
      ],
      "name": "endProposal",
      "outputs": [],
      "stateMutability": "nonpayable",
      "type": "function"
    },
    {
      "inputs": [],
      "name": "getActiveProposalsNow",
      "outputs": [
        {
          "internalType": "uint256",
          "name": "",
          "type": "uint256"
        }
      ],
      "stateMutability": "view",
      "type": "function"
    },
    {
      "inputs": [],
      "name": "getCurrentSnapshotId",
      "outputs": [
        {
          "internalType": "uint256",
          "name": "",
          "type": "uint256"
        }
      ],
      "stateMutability": "view",
      "type": "function"
    },
    {
      "inputs": [],
      "name": "getLockTime",
      "outputs": [
        {
          "internalType": "uint256",
          "name": "",
          "type": "uint256"
        }
      ],
      "stateMutability": "view",
      "type": "function"
    },
    {
      "inputs": [],
      "name": "getMaxActiveProposals",
      "outputs": [
        {
          "internalType": "uint256",
          "name": "",
          "type": "uint256"
        }
      ],
      "stateMutability": "view",
      "type": "function"
    },
    {
      "inputs": [],
      "name": "getMaxGasPrice",
      "outputs": [
        {
          "internalType": "uint256",
          "name": "",
          "type": "uint256"
        }
      ],
      "stateMutability": "view",
      "type": "function"
    },
    {
      "inputs": [],
      "name": "getMinimumMembersForProposalCreation",
      "outputs": [
        {
          "internalType": "uint256",
          "name": "",
          "type": "uint256"
        }
      ],
      "stateMutability": "view",
      "type": "function"
    },
    {
      "inputs": [],
      "name": "getMinimumTokensLockedForProposalCreation",
      "outputs": [
        {
          "internalType": "uint256",
          "name": "",
          "type": "uint256"
        }
      ],
      "stateMutability": "view",
      "type": "function"
    },
    {
      "inputs": [],
      "name": "getName",
      "outputs": [
        {
          "internalType": "string",
          "name": "",
          "type": "string"
        }
      ],
      "stateMutability": "view",
      "type": "function"
    },
    {
      "inputs": [],
      "name": "getPermissionRegistry",
      "outputs": [
        {
          "internalType": "address",
          "name": "",
          "type": "address"
        }
      ],
      "stateMutability": "view",
      "type": "function"
    },
    {
      "inputs": [
        {
          "internalType": "bytes32",
          "name": "proposalId",
          "type": "bytes32"
        }
      ],
      "name": "getProposal",
      "outputs": [
        {
          "components": [
            {
              "internalType": "address",
              "name": "creator",
              "type": "address"
            },
            {
              "internalType": "uint256",
              "name": "startTime",
              "type": "uint256"
            },
            {
              "internalType": "uint256",
              "name": "endTime",
              "type": "uint256"
            },
            {
              "internalType": "address[]",
              "name": "to",
              "type": "address[]"
            },
            {
              "internalType": "bytes[]",
              "name": "data",
              "type": "bytes[]"
            },
            {
              "internalType": "uint256[]",
              "name": "value",
              "type": "uint256[]"
            },
            {
              "internalType": "string",
              "name": "title",
              "type": "string"
            },
            {
              "internalType": "string",
              "name": "contentHash",
              "type": "string"
            },
            {
              "internalType": "enum BaseERC20Guild.ProposalState",
              "name": "state",
              "type": "uint8"
            },
            {
              "internalType": "uint256[]",
              "name": "totalVotes",
              "type": "uint256[]"
            }
          ],
          "internalType": "struct BaseERC20Guild.Proposal",
          "name": "",
          "type": "tuple"
        }
      ],
      "stateMutability": "view",
      "type": "function"
    },
    {
      "inputs": [
        {
          "internalType": "bytes32",
          "name": "proposalId",
          "type": "bytes32"
        }
      ],
      "name": "getProposalSnapshotId",
      "outputs": [
        {
          "internalType": "uint256",
          "name": "",
          "type": "uint256"
        }
      ],
      "stateMutability": "view",
      "type": "function"
    },
    {
      "inputs": [],
      "name": "getProposalTime",
      "outputs": [
        {
          "internalType": "uint256",
          "name": "",
          "type": "uint256"
        }
      ],
      "stateMutability": "view",
      "type": "function"
    },
    {
      "inputs": [
        {
          "internalType": "bytes32",
          "name": "proposalId",
          "type": "bytes32"
        },
        {
          "internalType": "address",
          "name": "voter",
          "type": "address"
        }
      ],
      "name": "getProposalVotesOfVoter",
      "outputs": [
        {
          "internalType": "uint256",
          "name": "action",
          "type": "uint256"
        },
        {
          "internalType": "uint256",
          "name": "votingPower",
          "type": "uint256"
        }
      ],
      "stateMutability": "view",
      "type": "function"
    },
    {
      "inputs": [],
      "name": "getProposalsIds",
      "outputs": [
        {
          "internalType": "bytes32[]",
          "name": "",
          "type": "bytes32[]"
        }
      ],
      "stateMutability": "view",
      "type": "function"
    },
    {
      "inputs": [],
      "name": "getProposalsIdsLength",
      "outputs": [
        {
          "internalType": "uint256",
          "name": "",
          "type": "uint256"
        }
      ],
      "stateMutability": "view",
      "type": "function"
    },
    {
      "inputs": [
        {
          "internalType": "bytes32",
          "name": "signedVoteHash",
          "type": "bytes32"
        }
      ],
      "name": "getSignedVote",
      "outputs": [
        {
          "internalType": "bool",
          "name": "",
          "type": "bool"
        }
      ],
      "stateMutability": "view",
      "type": "function"
    },
    {
      "inputs": [],
      "name": "getTimeForExecution",
      "outputs": [
        {
          "internalType": "uint256",
          "name": "",
          "type": "uint256"
        }
      ],
      "stateMutability": "view",
      "type": "function"
    },
    {
      "inputs": [],
      "name": "getToken",
      "outputs": [
        {
          "internalType": "address",
          "name": "",
          "type": "address"
        }
      ],
      "stateMutability": "view",
      "type": "function"
    },
    {
      "inputs": [],
      "name": "getTokenVault",
      "outputs": [
        {
          "internalType": "address",
          "name": "",
          "type": "address"
        }
      ],
      "stateMutability": "view",
      "type": "function"
    },
    {
      "inputs": [],
      "name": "getTotalLocked",
      "outputs": [
        {
          "internalType": "uint256",
          "name": "",
          "type": "uint256"
        }
      ],
      "stateMutability": "view",
      "type": "function"
    },
    {
      "inputs": [],
      "name": "getTotalMembers",
      "outputs": [
        {
          "internalType": "uint256",
          "name": "",
          "type": "uint256"
        }
      ],
      "stateMutability": "view",
      "type": "function"
    },
    {
      "inputs": [],
      "name": "getTotalProposals",
      "outputs": [
        {
          "internalType": "uint256",
          "name": "",
          "type": "uint256"
        }
      ],
      "stateMutability": "view",
      "type": "function"
    },
    {
      "inputs": [],
      "name": "getVoteGas",
      "outputs": [
        {
          "internalType": "uint256",
          "name": "",
          "type": "uint256"
        }
      ],
      "stateMutability": "view",
      "type": "function"
    },
    {
      "inputs": [
        {
          "internalType": "address",
          "name": "voter",
          "type": "address"
        }
      ],
      "name": "getVoterLockTimestamp",
      "outputs": [
        {
          "internalType": "uint256",
          "name": "",
          "type": "uint256"
        }
      ],
      "stateMutability": "view",
      "type": "function"
    },
    {
      "inputs": [],
      "name": "getVotingPowerForProposalCreation",
      "outputs": [
        {
          "internalType": "uint256",
          "name": "",
          "type": "uint256"
        }
      ],
      "stateMutability": "view",
      "type": "function"
    },
    {
      "inputs": [],
      "name": "getVotingPowerForProposalExecution",
      "outputs": [
        {
          "internalType": "uint256",
          "name": "",
          "type": "uint256"
        }
      ],
      "stateMutability": "view",
      "type": "function"
    },
    {
      "inputs": [
        {
          "internalType": "uint256",
          "name": "snapshotId",
          "type": "uint256"
        }
      ],
      "name": "getVotingPowerForProposalExecution",
      "outputs": [
        {
          "internalType": "uint256",
          "name": "",
          "type": "uint256"
        }
      ],
      "stateMutability": "view",
      "type": "function"
    },
    {
      "inputs": [
        {
          "internalType": "address",
          "name": "voter",
          "type": "address"
        },
        {
          "internalType": "bytes32",
          "name": "proposalId",
          "type": "bytes32"
        },
        {
          "internalType": "uint256",
          "name": "action",
          "type": "uint256"
        },
        {
          "internalType": "uint256",
          "name": "votingPower",
          "type": "uint256"
        }
      ],
      "name": "hashVote",
      "outputs": [
        {
          "internalType": "bytes32",
          "name": "",
          "type": "bytes32"
        }
      ],
      "stateMutability": "pure",
      "type": "function"
    },
    {
      "inputs": [
        {
          "internalType": "address",
          "name": "_token",
          "type": "address"
        },
        {
          "internalType": "uint256",
          "name": "_proposalTime",
          "type": "uint256"
        },
        {
          "internalType": "uint256",
          "name": "_timeForExecution",
          "type": "uint256"
        },
        {
          "internalType": "uint256",
          "name": "_votingPowerForProposalExecution",
          "type": "uint256"
        },
        {
          "internalType": "uint256",
          "name": "_votingPowerForProposalCreation",
          "type": "uint256"
        },
        {
          "internalType": "string",
          "name": "_name",
          "type": "string"
        },
        {
          "internalType": "uint256",
          "name": "_voteGas",
          "type": "uint256"
        },
        {
          "internalType": "uint256",
          "name": "_maxGasPrice",
          "type": "uint256"
        },
        {
          "internalType": "uint256",
          "name": "_maxActiveProposals",
          "type": "uint256"
        },
        {
          "internalType": "uint256",
          "name": "_lockTime",
          "type": "uint256"
        },
        {
          "internalType": "address",
          "name": "_permissionRegistry",
          "type": "address"
        }
      ],
      "name": "initialize",
      "outputs": [],
      "stateMutability": "nonpayable",
      "type": "function"
    },
    {
      "inputs": [],
      "name": "lockTime",
      "outputs": [
        {
          "internalType": "uint256",
          "name": "",
          "type": "uint256"
        }
      ],
      "stateMutability": "view",
      "type": "function"
    },
    {
      "inputs": [
        {
          "internalType": "uint256",
          "name": "tokenAmount",
          "type": "uint256"
        }
      ],
      "name": "lockTokens",
      "outputs": [],
      "stateMutability": "nonpayable",
      "type": "function"
    },
    {
      "inputs": [],
      "name": "maxActiveProposals",
      "outputs": [
        {
          "internalType": "uint256",
          "name": "",
          "type": "uint256"
        }
      ],
      "stateMutability": "view",
      "type": "function"
    },
    {
      "inputs": [],
      "name": "maxGasPrice",
      "outputs": [
        {
          "internalType": "uint256",
          "name": "",
          "type": "uint256"
        }
      ],
      "stateMutability": "view",
      "type": "function"
    },
    {
      "inputs": [],
      "name": "minimumMembersForProposalCreation",
      "outputs": [
        {
          "internalType": "uint256",
          "name": "",
          "type": "uint256"
        }
      ],
      "stateMutability": "view",
      "type": "function"
    },
    {
      "inputs": [],
      "name": "minimumTokensLockedForProposalCreation",
      "outputs": [
        {
          "internalType": "uint256",
          "name": "",
          "type": "uint256"
        }
      ],
      "stateMutability": "view",
      "type": "function"
    },
    {
      "inputs": [],
      "name": "name",
      "outputs": [
        {
          "internalType": "string",
          "name": "",
          "type": "string"
        }
      ],
      "stateMutability": "view",
      "type": "function"
    },
    {
      "inputs": [],
      "name": "proposalTime",
      "outputs": [
        {
          "internalType": "uint256",
          "name": "",
          "type": "uint256"
        }
      ],
      "stateMutability": "view",
      "type": "function"
    },
    {
      "inputs": [
        {
          "internalType": "bytes32",
          "name": "",
          "type": "bytes32"
        },
        {
          "internalType": "address",
          "name": "",
          "type": "address"
        }
      ],
      "name": "proposalVotes",
      "outputs": [
        {
          "internalType": "uint256",
          "name": "action",
          "type": "uint256"
        },
        {
          "internalType": "uint256",
          "name": "votingPower",
          "type": "uint256"
        }
      ],
      "stateMutability": "view",
      "type": "function"
    },
    {
      "inputs": [
        {
          "internalType": "bytes32",
          "name": "",
          "type": "bytes32"
        }
      ],
      "name": "proposals",
      "outputs": [
        {
          "internalType": "address",
          "name": "creator",
          "type": "address"
        },
        {
          "internalType": "uint256",
          "name": "startTime",
          "type": "uint256"
        },
        {
          "internalType": "uint256",
          "name": "endTime",
          "type": "uint256"
        },
        {
          "internalType": "string",
          "name": "title",
          "type": "string"
        },
        {
          "internalType": "string",
          "name": "contentHash",
          "type": "string"
        },
        {
          "internalType": "enum BaseERC20Guild.ProposalState",
          "name": "state",
          "type": "uint8"
        }
      ],
      "stateMutability": "view",
      "type": "function"
    },
    {
      "inputs": [
        {
          "internalType": "uint256",
          "name": "",
          "type": "uint256"
        }
      ],
      "name": "proposalsIds",
      "outputs": [
        {
          "internalType": "bytes32",
          "name": "",
          "type": "bytes32"
        }
      ],
      "stateMutability": "view",
      "type": "function"
    },
    {
      "inputs": [
        {
          "internalType": "bytes32",
          "name": "",
          "type": "bytes32"
        }
      ],
      "name": "proposalsSnapshots",
      "outputs": [
        {
          "internalType": "uint256",
          "name": "",
          "type": "uint256"
        }
      ],
      "stateMutability": "view",
      "type": "function"
    },
    {
      "inputs": [
        {
          "internalType": "uint256",
          "name": "_proposalTime",
          "type": "uint256"
        },
        {
          "internalType": "uint256",
          "name": "_timeForExecution",
          "type": "uint256"
        },
        {
          "internalType": "uint256",
          "name": "_votingPowerForProposalExecution",
          "type": "uint256"
        },
        {
          "internalType": "uint256",
          "name": "_votingPowerForProposalCreation",
          "type": "uint256"
        },
        {
          "internalType": "uint256",
          "name": "_voteGas",
          "type": "uint256"
        },
        {
          "internalType": "uint256",
          "name": "_maxGasPrice",
          "type": "uint256"
        },
        {
          "internalType": "uint256",
          "name": "_maxActiveProposals",
          "type": "uint256"
        },
        {
          "internalType": "uint256",
          "name": "_lockTime",
          "type": "uint256"
        },
        {
          "internalType": "uint256",
          "name": "_minimumMembersForProposalCreation",
          "type": "uint256"
        },
        {
          "internalType": "uint256",
          "name": "_minimumTokensLockedForProposalCreation",
          "type": "uint256"
        }
      ],
      "name": "setConfig",
      "outputs": [],
      "stateMutability": "nonpayable",
      "type": "function"
    },
    {
      "inputs": [
        {
          "internalType": "bytes32",
          "name": "proposalId",
          "type": "bytes32"
        },
        {
          "internalType": "uint256",
          "name": "action",
          "type": "uint256"
        },
        {
          "internalType": "uint256",
          "name": "votingPower",
          "type": "uint256"
        },
        {
          "internalType": "address",
          "name": "voter",
          "type": "address"
        },
        {
          "internalType": "bytes",
          "name": "signature",
          "type": "bytes"
        }
      ],
      "name": "setSignedVote",
      "outputs": [],
      "stateMutability": "nonpayable",
      "type": "function"
    },
    {
      "inputs": [
        {
          "internalType": "bytes32",
          "name": "proposalId",
          "type": "bytes32"
        },
        {
          "internalType": "uint256",
          "name": "action",
          "type": "uint256"
        },
        {
          "internalType": "uint256",
          "name": "votingPower",
          "type": "uint256"
        }
      ],
      "name": "setVote",
      "outputs": [],
      "stateMutability": "nonpayable",
      "type": "function"
    },
    {
      "inputs": [
        {
          "internalType": "bytes32",
          "name": "",
          "type": "bytes32"
        }
      ],
      "name": "signedVotes",
      "outputs": [
        {
          "internalType": "bool",
          "name": "",
          "type": "bool"
        }
      ],
      "stateMutability": "view",
      "type": "function"
    },
    {
      "inputs": [],
      "name": "timeForExecution",
      "outputs": [
        {
          "internalType": "uint256",
          "name": "",
          "type": "uint256"
        }
      ],
      "stateMutability": "view",
      "type": "function"
    },
    {
      "inputs": [],
      "name": "token",
      "outputs": [
        {
          "internalType": "contract IERC20Upgradeable",
          "name": "",
          "type": "address"
        }
      ],
      "stateMutability": "view",
      "type": "function"
    },
    {
      "inputs": [],
      "name": "tokenVault",
      "outputs": [
        {
          "internalType": "contract TokenVault",
          "name": "",
          "type": "address"
        }
      ],
      "stateMutability": "view",
      "type": "function"
    },
    {
      "inputs": [
        {
          "internalType": "address",
          "name": "",
          "type": "address"
        }
      ],
      "name": "tokensLocked",
      "outputs": [
        {
          "internalType": "uint256",
          "name": "amount",
          "type": "uint256"
        },
        {
          "internalType": "uint256",
          "name": "timestamp",
          "type": "uint256"
        }
      ],
      "stateMutability": "view",
      "type": "function"
    },
    {
      "inputs": [],
      "name": "totalLocked",
      "outputs": [
        {
          "internalType": "uint256",
          "name": "",
          "type": "uint256"
        }
      ],
      "stateMutability": "view",
      "type": "function"
    },
    {
      "inputs": [
        {
          "internalType": "uint256",
          "name": "snapshotId",
          "type": "uint256"
        }
      ],
      "name": "totalLockedAt",
      "outputs": [
        {
          "internalType": "uint256",
          "name": "",
          "type": "uint256"
        }
      ],
      "stateMutability": "view",
      "type": "function"
    },
    {
      "inputs": [],
      "name": "totalProposals",
      "outputs": [
        {
          "internalType": "uint256",
          "name": "",
          "type": "uint256"
        }
      ],
      "stateMutability": "view",
      "type": "function"
    },
    {
      "inputs": [],
      "name": "voteGas",
      "outputs": [
        {
          "internalType": "uint256",
          "name": "",
          "type": "uint256"
        }
      ],
      "stateMutability": "view",
      "type": "function"
    },
    {
      "inputs": [],
      "name": "votingPowerForProposalCreation",
      "outputs": [
        {
          "internalType": "uint256",
          "name": "",
          "type": "uint256"
        }
      ],
      "stateMutability": "view",
      "type": "function"
    },
    {
      "inputs": [],
      "name": "votingPowerForProposalExecution",
      "outputs": [
        {
          "internalType": "uint256",
          "name": "",
          "type": "uint256"
        }
      ],
      "stateMutability": "view",
      "type": "function"
    },
    {
      "inputs": [
        {
          "internalType": "address",
          "name": "account",
          "type": "address"
        }
      ],
      "name": "votingPowerOf",
      "outputs": [
        {
          "internalType": "uint256",
          "name": "",
          "type": "uint256"
        }
      ],
      "stateMutability": "view",
      "type": "function"
    },
    {
      "inputs": [
        {
          "internalType": "address",
          "name": "account",
          "type": "address"
        },
        {
          "internalType": "uint256",
          "name": "snapshotId",
          "type": "uint256"
        }
      ],
      "name": "votingPowerOfAt",
      "outputs": [
        {
          "internalType": "uint256",
          "name": "",
          "type": "uint256"
        }
      ],
      "stateMutability": "view",
      "type": "function"
    },
    {
      "inputs": [
        {
          "internalType": "address[]",
          "name": "accounts",
          "type": "address[]"
        },
        {
          "internalType": "uint256[]",
          "name": "snapshotIds",
          "type": "uint256[]"
        }
      ],
      "name": "votingPowerOfMultipleAt",
      "outputs": [
        {
          "internalType": "uint256[]",
          "name": "",
          "type": "uint256[]"
        }
      ],
      "stateMutability": "view",
      "type": "function"
    },
    {
      "inputs": [
        {
          "internalType": "uint256",
          "name": "tokenAmount",
          "type": "uint256"
        }
      ],
      "name": "withdrawTokens",
      "outputs": [],
      "stateMutability": "nonpayable",
      "type": "function"
    }
  ],
  "bytecode": "0x60806040526001601c5534801561001557600080fd5b506153c4806100256000396000f3fe608060405260043610620003d95760003560e01c806364fe6ed21162000203578063b3b470611162000117578063e045035311620000a7578063f4732da61162000075578063f4732da61462000bf9578063f9a92d821462000c10578063fc0c546a1462000c35578063fc4e703f1462000c5757005b8063e04503531462000b61578063e158080a1462000b79578063ed996f5e1462000b91578063f09951981462000bb657005b8063bcc3f3bd11620000e5578063bcc3f3bd1462000ae1578063c0a4d64d1462000b1b578063c93e01e31462000b32578063d54d299e1462000b4957005b8063b3b470611462000a68578063b50e868f1462000a8d578063b7c15f8d1462000aa5578063bba363a01462000abc57005b806392b716541162000193578063ad6c1e341162000161578063ad6c1e3414620009e0578063adf2c7b614620009f7578063ae6192341462000a2b578063b3929aaa1462000a4357005b806392b71654146200096b578063a16fe3421462000990578063a78d80fc14620009b0578063a7aeb55714620009c857005b806377027ff411620001d157806377027ff414620008f25780638029eff1146200090957806389c98c06146200093d5780638f180305146200095457005b806364fe6ed2146200086e5780636c8b72f614620008855780636e27d889146200089c5780637189354614620008c157005b806322bafdff11620002fb5780633bf353fb116200028b5780635439ad8611620002595780635439ad8614620007fd57806354f2f7af14620008145780635689141214620008345780635bc789d9146200084c57005b80633bf353fb14620007815780633de39c1114620007995780633f10cf1514620007b1578063430694cf14620007c957005b80632fd99c0011620002c95780632fd99c0014620006b9578063315a095d14620006fe57806332ed5b12146200072357806336f8f8d9146200075c57005b806322bafdff146200060f5780632467ef9414620006405780632d5b17de14620006575780632d757c3e146200067c57005b806313108d7411620003775780631a5007dd11620003455780631a5007dd146200058357806321070e8d146200059a57806321df0da714620005c45780632229a0e214620005f857005b806313108d74146200050957806316bbecde146200052e57806317d7de7c1462000553578063184a0ae9146200056b57005b80630a366a6311620003b55780630a366a6314620004805780630d66808714620004a7578063123f6d6714620004bf578063130485fe14620004e457005b80623a40d014620003db57806301a598a6146200040b57806306fdde031462000459575b005b348015620003e857600080fd5b50620003f362000c6f565b60405162000402919062003d7d565b60405180910390f35b3480156200041857600080fd5b50620004436200042a36600462003ddb565b6012602052600090815260409020805460019091015482565b6040805192835260208301919091520162000402565b3480156200046657600080fd5b506200047162000cc9565b60405162000402919062003e49565b3480156200048d57600080fd5b506200049862000d5f565b60405190815260200162000402565b348015620004b457600080fd5b5062000498600d5481565b348015620004cc57600080fd5b50620003d9620004de36600462003e5e565b62000d8c565b348015620004f157600080fd5b50620004436200050336600462003ec7565b62000f25565b3480156200051657600080fd5b50620004986200052836600462004164565b62000f57565b3480156200053b57600080fd5b50620003d96200054d3660046200424e565b62000f9c565b3480156200056057600080fd5b5062000471620010cd565b3480156200057857600080fd5b506200049860035481565b3480156200059057600080fd5b50600a5462000498565b348015620005a757600080fd5b50620005b1600a81565b60405160ff909116815260200162000402565b348015620005d157600080fd5b506000546001600160a01b03165b6040516001600160a01b03909116815260200162000402565b3480156200060557600080fd5b5060165462000498565b3480156200061c57600080fd5b50620004986200062e3660046200427b565b60009081526018602052604090205490565b3480156200064d57600080fd5b50600c5462000498565b3480156200066457600080fd5b50620003d96200067636600462004295565b6200115e565b3480156200068957600080fd5b50620004986200069b36600462003ddb565b6001600160a01b031660009081526012602052604090206001015490565b348015620006c657600080fd5b50620006ed620006d83660046200427b565b60136020526000908152604090205460ff1681565b604051901515815260200162000402565b3480156200070b57600080fd5b50620003d96200071d3660046200427b565b62001443565b3480156200073057600080fd5b5062000748620007423660046200427b565b620016e8565b60405162000402969594939291906200433f565b3480156200076957600080fd5b50620003d96200077b3660046200439f565b6200184c565b3480156200078e57600080fd5b5062000498600c5481565b348015620007a657600080fd5b506200049860085481565b348015620007be57600080fd5b506200049860045481565b348015620007d657600080fd5b50620007ee620007e83660046200427b565b62001ab9565b60405162000402919062004527565b3480156200080a57600080fd5b50601c5462000498565b3480156200082157600080fd5b506011546001600160a01b0316620005df565b3480156200084157600080fd5b5062000498600e5481565b3480156200085957600080fd5b50601154620005df906001600160a01b031681565b3480156200087b57600080fd5b5060105462000498565b3480156200089257600080fd5b5060075462000498565b348015620008a957600080fd5b50620003d9620008bb3660046200427b565b62001e6c565b348015620008ce57600080fd5b5062000498620008e03660046200427b565b60186020526000908152604090205481565b348015620008ff57600080fd5b5060095462000498565b3480156200091657600080fd5b50620006ed620009283660046200427b565b60009081526013602052604090205460ff1690565b3480156200094a57600080fd5b5060085462000498565b3480156200096157600080fd5b50600b5462000498565b3480156200097857600080fd5b50620004986200098a36600462004634565b62002021565b3480156200099d57600080fd5b506001546001600160a01b0316620005df565b348015620009bd57600080fd5b5062000498600a5481565b348015620009d557600080fd5b5062000498600f5481565b348015620009ed57600080fd5b50600f5462000498565b34801562000a0457600080fd5b5062000a1c62000a1636600462004670565b62002078565b604051620004029190620046db565b34801562000a3857600080fd5b5062000498620021de565b34801562000a5057600080fd5b506200049862000a623660046200427b565b620021f8565b34801562000a7557600080fd5b50620003d962000a873660046200427b565b6200221a565b34801562000a9a57600080fd5b506200049860065481565b34801562000ab257600080fd5b5060045462000498565b34801562000ac957600080fd5b506200049862000adb3660046200427b565b62002b12565b34801562000aee57600080fd5b506200049862000b0036600462003ddb565b6001600160a01b031660009081526012602052604090205490565b34801562000b2857600080fd5b50600d5462000498565b34801562000b3f57600080fd5b5060035462000498565b34801562000b5657600080fd5b506200049860055481565b34801562000b6e57600080fd5b506200049860095481565b34801562000b8657600080fd5b506200049860105481565b34801562000b9e57600080fd5b506200049862000bb03660046200427b565b62002b28565b34801562000bc357600080fd5b506200044362000bd536600462003ec7565b60146020908152600092835260408084209091529082529020805460019091015482565b34801562000c0657600080fd5b50600e5462000498565b34801562000c1d57600080fd5b506200049862000c2f366004620046f0565b62002b57565b34801562000c4257600080fd5b50600054620005df906001600160a01b031681565b34801562000c6457600080fd5b506200049860075481565b6060601680548060200260200160405190810160405280929190818152602001828054801562000cbf57602002820191906000526020600020905b81548152602001906001019080831162000caa575b5050505050905090565b6002805462000cd8906200471d565b80601f016020809104026020016040519081016040528092919081815260200182805462000d06906200471d565b801562000d575780601f1062000d2b5761010080835404028352916020019162000d57565b820191906000526020600020905b81548152906001019060200180831162000d3957829003601f168201915b505050505081565b600062000d8761271062000d8060065462000d79600e5490565b9062002bb9565b9062002bce565b905090565b33301462000e125760405162461bcd60e51b815260206004820152604260248201527f45524332304775696c643a204f6e6c792063616c6c61626c652062792045524360448201527f32306775696c6420697473656c66206f72207768656e20696e697469616c697a606482015261195960f21b608482015260a4015b60405180910390fd5b60008a1162000e355760405162461bcd60e51b815260040162000e09906200475a565b8983101562000e585760405162461bcd60e51b815260040162000e0990620047a9565b6000881162000e7b5760405162461bcd60e51b815260040162000e099062004806565b6201c90886111562000ef65760405162461bcd60e51b815260206004820152603960248201527f45524332304775696c643a20766f7465206761732068617320746f206265206560448201527f7175616c206f72206c6f776572207468616e2031313730303000000000000000606482015260840162000e09565b600399909955600497909755600595909555600693909355600791909155600855600955600d55600f55601055565b60008281526014602090815260408083206001600160a01b0385168452909152902080546001909101545b9250929050565b60008062000f6a88888888888862002bdc565b601c5490915062000f7d906001620031c8565b601c819055600082815260186020526040902055979650505050505050565b600083815260156020526040902060020154421062000fcf5760405162461bcd60e51b815260040162000e099062004863565b600083815260186020526040902054819062000fed90339062002b57565b10156200100e5760405162461bcd60e51b815260040162000e0990620048b6565b60008381526014602090815260408083203384529091529020541580156200105057506000838152601460209081526040808320338452909152902060010154155b806200109b57506000838152601460209081526040808320338452909152902054821480156200109b5750600083815260146020908152604080832033845290915290206001015481115b620010ba5760405162461bcd60e51b815260040162000e099062004904565b620010c833848484620031d6565b505050565b606060028054620010de906200471d565b80601f01602080910402602001604051908101604052809291908181526020018280546200110c906200471d565b801562000cbf5780601f10620011315761010080835404028352916020019162000cbf565b820191906000526020600020905b8154815290600101906020018083116200113f57509395945050505050565b6000858152601560205260409020600201544210620011915760405162461bcd60e51b815260040162000e099062004863565b6000620011a18387878762002021565b60008181526013602052604090205490915060ff16156200120f5760405162461bcd60e51b815260206004820152602160248201527f536e617073686f7445524332304775696c643a20416c726561647920766f74656044820152601960fa1b606482015260840162000e09565b62001273826200126c836040517f19457468657265756d205369676e6564204d6573736167653a0a3332000000006020820152603c8101829052600090605c01604051602081830303815290604052805190602001209050919050565b9062003437565b6001600160a01b0316836001600160a01b031614620012d55760405162461bcd60e51b815260206004820181905260248201527f536e617073686f7445524332304775696c643a2057726f6e67207369676e6572604482015260640162000e09565b6000818152601360209081526040808320805460ff19166001179055888352601890915290205484906200130b90859062002b57565b101580156200133e575060008681526014602090815260408083206001600160a01b038716845290915290206001015484115b6200135d5760405162461bcd60e51b815260040162000e0990620048b6565b60008681526014602090815260408083206001600160a01b0387168452909152902054158015620013b1575060008681526014602090815260408083206001600160a01b0387168452909152902060010154155b806200140e575060008681526014602090815260408083206001600160a01b0387168452909152902054851480156200140e575060008681526014602090815260408083206001600160a01b038716845290915290206001015484115b6200142d5760405162461bcd60e51b815260040162000e099062004904565b6200143b83878787620031d6565b505050505050565b33600090815260126020526040902054811115620014ca5760405162461bcd60e51b815260206004820152603e60248201527f536e617073686f7445524332304775696c643a20556e61626c6520746f20776960448201527f746864726177206d6f726520746f6b656e73207468616e206c6f636b65640000606482015260840162000e09565b3360009081526012602052604090206001015442116200153d5760405162461bcd60e51b815260206004820152602760248201527f536e617073686f7445524332304775696c643a20546f6b656e73207374696c6c604482015266081b1bd8dad95960ca1b606482015260840162000e09565b60008111620015c55760405162461bcd60e51b815260206004820152604760248201527f536e617073686f7445524332304775696c643a20616d6f756e74206f6620746f60448201527f6b656e7320746f207769746864726177206d75737420626520677265617465726064820152660207468616e20360cc1b608482015260a40162000e09565b620015d03362003457565b620015da6200348a565b33600090815260126020526040902054620015f690826200349b565b33600090815260126020526040902055600e546200161590826200349b565b600e5560115460405163f3fef3a360e01b8152336004820152602481018390526001600160a01b039091169063f3fef3a390604401600060405180830381600087803b1580156200166557600080fd5b505af11580156200167a573d6000803e3d6000fd5b50503360009081526012602052604090205415159150620016ab905057600b54620016a79060016200349b565b600b555b60408051338152602081018390527f6352c5382c4a4578e712449ca65e83cdb392d045dfcf1cad9615189db2da244b91015b60405180910390a150565b60156020526000908152604090208054600182015460028301546006840180546001600160a01b0390941694929391929162001724906200471d565b80601f016020809104026020016040519081016040528092919081815260200182805462001752906200471d565b8015620017a35780601f106200177757610100808354040283529160200191620017a3565b820191906000526020600020905b8154815290600101906020018083116200178557829003601f168201915b505050505090806007018054620017ba906200471d565b80601f0160208091040260200160405190810160405280929190818152602001828054620017e8906200471d565b8015620018395780601f106200180d5761010080835404028352916020019162001839565b820191906000526020600020905b8154815290600101906020018083116200181b57829003601f168201915b5050506008909301549192505060ff1686565b60175462010000900460ff16806200186c5750601754610100900460ff16155b620018d15760405162461bcd60e51b815260206004820152602e60248201527f496e697469616c697a61626c653a20636f6e747261637420697320616c72656160448201526d191e481a5b9a5d1a585b1a5e995960921b606482015260840162000e09565b60175462010000900460ff16158015620018f7576017805462ffff001916620101001790555b6001600160a01b038c166200195e5760405162461bcd60e51b815260206004820152602660248201527f45524332304775696c643a20746f6b656e2063616e74206265207a65726f206160448201526564647265737360d01b606482015260840162000e09565b60008b11620019815760405162461bcd60e51b815260040162000e09906200475a565b8a831015620019a45760405162461bcd60e51b815260040162000e0990620047a9565b60008911620019c75760405162461bcd60e51b815260040162000e099062004806565b8651620019dc9060029060208a019062003b04565b50600080546001600160a01b0319166001600160a01b038e16908117909155604051309062001a0b9062003b93565b6001600160a01b03928316815291166020820152604001604051809103906000f08015801562001a3f573d6000803e3d6000fd5b50601180546001600160a01b03199081166001600160a01b039384161790915560038d905560048c905560058b905560068a9055600788905560088790556009869055600d85905560018054909116918416919091179055801562001aab576017805462ff0000191690555b505050505050505050505050565b62001ac362003ba1565b60008281526015602090815260409182902082516101408101845281546001600160a01b03168152600182015481840152600282015481850152600382018054855181860281018601909652808652919492936060860193929083018282801562001b5857602002820191906000526020600020905b81546001600160a01b0316815260019091019060200180831162001b39575b5050505050815260200160048201805480602002602001604051908101604052809291908181526020016000905b8282101562001c3c57838290600052602060002001805462001ba8906200471d565b80601f016020809104026020016040519081016040528092919081815260200182805462001bd6906200471d565b801562001c275780601f1062001bfb5761010080835404028352916020019162001c27565b820191906000526020600020905b81548152906001019060200180831162001c0957829003601f168201915b50505050508152602001906001019062001b86565b5050505081526020016005820180548060200260200160405190810160405280929190818152602001828054801562001c9557602002820191906000526020600020905b81548152602001906001019080831162001c80575b5050505050815260200160068201805462001cb0906200471d565b80601f016020809104026020016040519081016040528092919081815260200182805462001cde906200471d565b801562001d2f5780601f1062001d035761010080835404028352916020019162001d2f565b820191906000526020600020905b81548152906001019060200180831162001d1157829003601f168201915b5050505050815260200160078201805462001d4a906200471d565b80601f016020809104026020016040519081016040528092919081815260200182805462001d78906200471d565b801562001dc95780601f1062001d9d5761010080835404028352916020019162001dc9565b820191906000526020600020905b81548152906001019060200180831162001dab57829003601f168201915b5050509183525050600882015460209091019060ff16600481111562001df35762001df362004306565b600481111562001e075762001e0762004306565b81526020016009820180548060200260200160405190810160405280929190818152602001828054801562001e5c57602002820191906000526020600020905b81548152602001906001019080831162001e47575b5050505050815250509050919050565b6000811162001ee45760405162461bcd60e51b815260206004820152603a60248201527f536e617073686f7445524332304775696c643a20546f6b656e7320746f206c6f60448201527f636b2073686f756c6420626520686967686572207468616e2030000000000000606482015260840162000e09565b3360009081526012602052604090205462001f0d57600b5462001f09906001620031c8565b600b555b62001f183362003457565b62001f226200348a565b6011546040516311f9fbc960e21b8152336004820152602481018390526001600160a01b03909116906347e7ef2490604401600060405180830381600087803b15801562001f6f57600080fd5b505af115801562001f84573d6000803e3d6000fd5b50503360009081526012602052604090205462001fa59250905082620031c8565b33600090815260126020526040902055600d5462001fc5904290620031c8565b33600090815260126020526040902060010155600e5462001fe79082620031c8565b600e5560408051338152602081018390527fac87f20a77d28ee8bbb58ec87ea8fa968b3393efae1a368fd50b767c2847391c9101620016dd565b6040516bffffffffffffffffffffffff19606086901b166020820152603481018490526054810183905260748101829052600090609401604051602081830303815290604052805190602001209050949350505050565b60608151835114620021025760405162461bcd60e51b815260206004820152604660248201527f536e617073686f7445524332304775696c643a20536e617073686f744964732060448201527f616e64206163636f756e7473206d7573742068617665207468652073616d65206064820152650d8cadccee8d60d31b608482015260a40162000e09565b6000835167ffffffffffffffff81111562002121576200212162003ef6565b6040519080825280602002602001820160405280156200214b578160200160208202803683370190505b50905060005b8451811015620021d4576200219f85828151811062002174576200217462004973565b602002602001015185838151811062002191576200219162004973565b602002602001015162002b57565b828281518110620021b457620021b462004973565b602090810291909101015280620021cb816200499f565b91505062002151565b5090505b92915050565b600062000d8761271062000d8060055462000d79600e5490565b601681815481106200220957600080fd5b600091825260209091200154905081565b60175460ff1615620022845760405162461bcd60e51b815260206004820152602c60248201527f536e617073686f7445524332304775696c643a2050726f706f73616c20756e6460448201526b32b91032bc32b1baba34b7b760a11b606482015260840162000e09565b600160008281526015602052604090206008015460ff166004811115620022af57620022af62004306565b14620023145760405162461bcd60e51b815260206004820152602d60248201527f536e617073686f7445524332304775696c643a2050726f706f73616c20616c7260448201526c1958591e48195e1958dd5d1959609a1b606482015260840162000e09565b60008181526015602052604090206002015442116200238c5760405162461bcd60e51b815260206004820152602d60248201527f536e617073686f7445524332304775696c643a2050726f706f73616c2068617360448201526c1b89dd08195b991959081e595d609a1b606482015260840162000e09565b6000805b6000838152601560205260409020600901548110156200248657600083815260186020526040902054620023c49062002b12565b6000848152601560205260409020600901805483908110620023ea57620023ea62004973565b906000526020600020015410158015620024675750600083815260156020526040902060090180548390811062002425576200242562004973565b90600052602060002001546015600085815260200190815260200160002060090182815481106200245a576200245a62004973565b9060005260206000200154115b1562002471578091505b806200247d816200499f565b91505062002390565b81620024d6576000838152601560205260409020600801805460ff1916600290811790915583906000805160206200536f833981519152905b60405190815260200160405180910390a262002afa565b6004546000848152601560205260409020600201544291620024f99190620031c8565b101562002538576000838152601560205260409020600801805460ff1916600490811790915583906000805160206200536f83398151915290620024bf565b600083815260156020526040812060088101805460ff191660031790556009015462002584906200256b9060016200349b565b6000868152601560205260409020600301549062002bce565b90506200259f620025978460016200349b565b829062002bb9565b91506000620025af8383620031c8565b9050600160009054906101000a90046001600160a01b03166001600160a01b0316633e7a47b26040518163ffffffff1660e01b8152600401600060405180830381600087803b1580156200260257600080fd5b505af115801562002617573d6000803e3d6000fd5b505050505b8083101562002a515760008581526015602052604081206003018054859081106200264b576200264b62004973565b6000918252602090912001546001600160a01b031614801590620026ab5750600085815260156020526040812060040180548590811062002690576200269062004973565b906000526020600020018054620026a7906200471d565b9050115b1562002a3c576000858152601560205260408120600401805485908110620026d757620026d762004973565b906000526020600020018054620026ee906200471d565b80601f01602080910402602001604051908101604052809291908181526020018280546200271c906200471d565b80156200276d5780601f1062002741576101008083540402835291602001916200276d565b820191906000526020600020905b8154815290600101906020018083116200274f57829003601f168201915b50505060208084015160015460008c815260159093526040909220600301805495965090946001600160a01b03909216935063eed470339250309189908110620027bb57620027bb62004973565b9060005260206000200160009054906101000a90046001600160a01b031684601560008d81526020019081526020016000206005018a8154811062002804576200280462004973565b60009182526020909120015460405160e086901b6001600160e01b031990811682526001600160a01b039586166004830152939094166024850152911660448301526064820152608401600060405180830381600087803b1580156200286957600080fd5b505af19250505080156200287b575060015b620028d7576200288a620049bd565b806308c379a01415620028cb5750620028a2620049da565b80620028af5750620028cd565b8060405162461bcd60e51b815260040162000e09919062003e49565b505b3d6000803e3d6000fd5b6017805460ff1916600117905560008781526015602052604081206003018054879081106200290a576200290a62004973565b60009182526020808320909101548a83526015909152604090912060050180546001600160a01b03909216918890811062002949576200294962004973565b9060005260206000200154601560008b815260200190815260200160002060040188815481106200297e576200297e62004973565b9060005260206000200160405162002997919062004a6a565b60006040518083038185875af1925050503d8060008114620029d6576040519150601f19603f3d011682016040523d82523d6000602084013e620029db565b606091505b505090508062002a2e5760405162461bcd60e51b815260206004820181905260248201527f45524332304775696c643a2050726f706f73616c2063616c6c206661696c6564604482015260640162000e09565b50506017805460ff19169055505b8262002a48816200499f565b9350506200261c565b60015460405163fb0fde8560e01b81523060048201526001600160a01b039091169063fb0fde8590602401602060405180830381600087803b15801562002a9757600080fd5b505af115801562002aac573d6000803e3d6000fd5b505050506040513d601f19601f8201168201806040525081019062002ad2919062004b0e565b50846000805160206200536f833981519152600360405190815260200160405180910390a250505b600c5462002b0a9060016200349b565b600c55505050565b6000620021d861271062000d8060055462000d79865b600080600062002b3a84601a620034a9565b91509150811562002b4c579392505050565b5050600e5492915050565b6001600160a01b03821660009081526019602052604081208190819062002b80908590620034a9565b91509150811562002b95579150620021d89050565b6001600160a01b0385166000908152601260205260409020545b92505050620021d8565b600062002bc7828462004b32565b9392505050565b600062002bc7828462004b6a565b6000601054600e54101562002c5a5760405162461bcd60e51b815260206004820152603960248201527f45524332304775696c643a204e6f7420656e6f75676820746f6b656e73206c6f60448201527f636b656420746f2063726561746520612070726f706f73616c00000000000000606482015260840162000e09565b600f54600b54101562002ccc5760405162461bcd60e51b815260206004820152603360248201527f45524332304775696c643a204e6f7420656e6f756768206d656d6265727320746044820152721bc818dc99585d194818481c1c9bdc1bdcd85b606a1b606482015260840162000e09565b600954600c541062002d405760405162461bcd60e51b815260206004820152603660248201527f45524332304775696c643a204d6178696d756d20616d6f756e74206f662061636044820152751d1a5d99481c1c9bdc1bdcd85b1cc81c995858da195960521b606482015260840162000e09565b62002d4a62000d5f565b33600090815260126020526040902054101562002dc85760405162461bcd60e51b815260206004820152603560248201527f45524332304775696c643a204e6f7420656e6f75676820766f74696e67506f77604482015274195c881d1bc818dc99585d19481c1c9bdc1bdcd85b605a1b606482015260840162000e09565b8551875114801562002ddb575084518751145b62002e465760405162461bcd60e51b815260206004820152603460248201527f45524332304775696c643a2057726f6e67206c656e677468206f6620746f2c2060448201527364617461206f722076616c75652061727261797360601b606482015260840162000e09565b600087511162002eb35760405162461bcd60e51b815260206004820152603160248201527f45524332304775696c643a20746f2c20646174612076616c7565206172726179604482015270732063616e6e6f7420626520656d70747960781b606482015260840162000e09565b8651841115801562002ed05750845162002ece9085620035b6565b155b62002f445760405162461bcd60e51b815260206004820152603760248201527f45524332304775696c643a20496e76616c696420746f74616c416374696f6e7360448201527f206f7220616374696f6e2063616c6c73206c656e677468000000000000000000606482015260840162000e09565b600a84111562002fbd5760405162461bcd60e51b815260206004820152603a60248201527f45524332304775696c643a204d6178696d756d20616d6f756e74206f6620616360448201527f74696f6e73207065722070726f706f73616c2072656163686564000000000000606482015260840162000e09565b600a546040516bffffffffffffffffffffffff193360601b16602082015242603482015260548101919091526000906074016040516020818303038152906040528051906020012090506200301f6001600a54620031c890919063ffffffff16565b600a55600081815260156020526040902080546001600160a01b031916331781554260018201819055600354620030579190620031c8565b600282015588516200307390600383019060208c019062003c11565b5087516200308b90600483019060208b019062003c69565b508651620030a390600583019060208a019062003cc9565b508451620030bb906006830190602088019062003b04565b508351620030d3906007830190602087019062003b04565b50620030e1866001620031c8565b67ffffffffffffffff811115620030fc57620030fc62003ef6565b60405190808252806020026020018201604052801562003126578160200160208202803683370190505b5080516200313f91600984019160209091019062003cc9565b5060088101805460ff19166001908117909155600c546200316091620031c8565b600c55816000805160206200536f833981519152600160405190815260200160405180910390a250601680546001810182556000919091527fd833147d7dc355ba459fc788f669e58cfaf9dc25ddcd0702e87d69c7b512428901819055979650505050505050565b600062002bc7828462004b81565b60008381526014602090815260408083206001600160a01b0388168452825280832060010154868452601590925290912060090180546200324c9284926200324592879081106200322b576200322b62004973565b90600052602060002001546200349b90919063ffffffff16565b90620031c8565b600084815260156020526040902060090180548490811062003272576200327262004973565b60009182526020808320909101929092558481526014825260408082206001600160a01b0388168352835280822085815560010184905585825260159092522060020154620032d9856001600160a01b031660009081526012602052604090206001015490565b10156200330e576000838152601560209081526040808320600201546001600160a01b03881684526012909252909120600101555b604080516001600160a01b038616815260208101839052839185917f583c62f152711bcb1ca6186c1065821ff17a7cbe226dcb559a1c889dcf0d769b910160405180910390a36007541562003431576000620033846200337a6008543a620035c490919063ffffffff16565b6007549062002bb9565b9050804710158015620033965750333b155b156200342f57604051600090339083908381818185875af1925050503d8060008114620033e0576040519150601f19603f3d011682016040523d82523d6000602084013e620033e5565b606091505b50509050806200143b5760405162461bcd60e51b81526020600482015260146024820152734661696c656420746f20726566756e642067617360601b604482015260640162000e09565b505b50505050565b6000806000620034488585620035dc565b91509150620021d48162003652565b6001600160a01b038116600090815260196020908152604080832060129092529091205462003487919062003825565b50565b62003499601a600e5462003825565b565b600062002bc7828462004b9c565b60008060008411620034fe5760405162461bcd60e51b815260206004820152601b60248201527f536e617073686f7445524332304775696c643a20696420697320300000000000604482015260640162000e09565b601c548411156200355d5760405162461bcd60e51b815260206004820152602260248201527f536e617073686f7445524332304775696c643a206e6f6e6578697374656e74206044820152611a5960f21b606482015260840162000e09565b60006200356b848662003869565b84549091508114156200358657600080925092505062000f50565b6001846001018281548110620035a057620035a062004973565b9060005260206000200154925092505062000f50565b600062002bc7828462004bb6565b6000818310620035d5578162002bc7565b5090919050565b600080825160411415620036175760208301516040840151606085015160001a6200360a8782858562003929565b9450945050505062000f50565b8251604014156200364557602083015160408401516200363986838362003a1e565b93509350505062000f50565b5060009050600262000f50565b600081600481111562003669576200366962004306565b1415620036735750565b60018160048111156200368a576200368a62004306565b1415620036da5760405162461bcd60e51b815260206004820152601860248201527f45434453413a20696e76616c6964207369676e61747572650000000000000000604482015260640162000e09565b6002816004811115620036f157620036f162004306565b1415620037415760405162461bcd60e51b815260206004820152601f60248201527f45434453413a20696e76616c6964207369676e6174757265206c656e67746800604482015260640162000e09565b600381600481111562003758576200375862004306565b1415620037b35760405162461bcd60e51b815260206004820152602260248201527f45434453413a20696e76616c6964207369676e6174757265202773272076616c604482015261756560f01b606482015260840162000e09565b6004816004811115620037ca57620037ca62004306565b1415620034875760405162461bcd60e51b815260206004820152602260248201527f45434453413a20696e76616c6964207369676e6174757265202776272076616c604482015261756560f01b606482015260840162000e09565b601c5480620038348462003a4f565b1015620010c8578254600180820185556000858152602080822090930193909355938401805494850181558252902090910155565b815460009081905b80821015620038d257600062003888838362003a9d565b905084868281548110620038a057620038a062004973565b90600052602060002001541115620038bb57809150620038cb565b620038c881600162004b81565b92505b5062003871565b6000821180156200390d57508385620038ed60018562004b9c565b8154811062003900576200390062004973565b9060005260206000200154145b15620039205762002baf60018362004b9c565b509050620021d8565b6000807f7fffffffffffffffffffffffffffffff5d576e7357a4501ddfe92f46681b20a083111562003962575060009050600362003a15565b8460ff16601b141580156200397b57508460ff16601c14155b156200398e575060009050600462003a15565b6040805160008082526020820180845289905260ff881692820192909252606081018690526080810185905260019060a0016020604051602081039080840390855afa158015620039e3573d6000803e3d6000fd5b5050604051601f1901519150506001600160a01b03811662003a0e5760006001925092505062003a15565b9150600090505b94509492505050565b6000806001600160ff1b03831660ff84901c601b0162003a418782888562003929565b935093505050935093915050565b805460009062003a6157506000919050565b8154829062003a739060019062004b9c565b8154811062003a865762003a8662004973565b90600052602060002001549050919050565b919050565b6000600262003aad818462004bb6565b62003aba60028662004bb6565b62003ac6919062004b81565b62003ad2919062004b6a565b62003adf60028462004b6a565b62003aec60028662004b6a565b62003af8919062004b81565b62002bc7919062004b81565b82805462003b12906200471d565b90600052602060002090601f01602090048101928262003b36576000855562003b81565b82601f1062003b5157805160ff191683800117855562003b81565b8280016001018555821562003b81579182015b8281111562003b8157825182559160200191906001019062003b64565b5062003b8f92915062003d06565b5090565b6107a18062004bce83390190565b60405180610140016040528060006001600160a01b03168152602001600081526020016000815260200160608152602001606081526020016060815260200160608152602001606081526020016000600481111562003c045762003c0462004306565b8152602001606081525090565b82805482825590600052602060002090810192821562003b81579160200282015b8281111562003b8157825182546001600160a01b0319166001600160a01b0390911617825560209092019160019091019062003c32565b82805482825590600052602060002090810192821562003cbb579160200282015b8281111562003cbb578251805162003caa91849160209091019062003b04565b509160200191906001019062003c8a565b5062003b8f92915062003d1d565b82805482825590600052602060002090810192821562003b81579160200282018281111562003b8157825182559160200191906001019062003b64565b5b8082111562003b8f576000815560010162003d07565b8082111562003b8f57600062003d34828262003d3e565b5060010162003d1d565b50805462003d4c906200471d565b6000825580601f1062003d5d575050565b601f01602090049060005260206000209081019062003487919062003d06565b6020808252825182820181905260009190848201906040850190845b8181101562003db75783518352928401929184019160010162003d99565b50909695505050505050565b80356001600160a01b038116811462003a9857600080fd5b60006020828403121562003dee57600080fd5b62002bc78262003dc3565b6000815180845260005b8181101562003e215760208185018101518683018201520162003e03565b8181111562003e34576000602083870101525b50601f01601f19169290920160200192915050565b60208152600062002bc7602083018462003df9565b6000806000806000806000806000806101408b8d03121562003e7f57600080fd5b505088359a60208a01359a5060408a013599606081013599506080810135985060a0810135975060c0810135965060e081013595506101008101359450610120013592509050565b6000806040838503121562003edb57600080fd5b8235915062003eed6020840162003dc3565b90509250929050565b634e487b7160e01b600052604160045260246000fd5b601f8201601f1916810167ffffffffffffffff8111828210171562003f355762003f3562003ef6565b6040525050565b600067ffffffffffffffff82111562003f595762003f5962003ef6565b5060051b60200190565b600082601f83011262003f7557600080fd5b8135602062003f848262003f3c565b60405162003f93828262003f0c565b83815260059390931b850182019282810191508684111562003fb457600080fd5b8286015b8481101562003fda5762003fcc8162003dc3565b835291830191830162003fb8565b509695505050505050565b600082601f83011262003ff757600080fd5b813567ffffffffffffffff81111562004014576200401462003ef6565b6040516200402d601f8301601f19166020018262003f0c565b8181528460208386010111156200404357600080fd5b816020850160208301376000918101602001919091529392505050565b600082601f8301126200407257600080fd5b81356020620040818262003f3c565b60405162004090828262003f0c565b83815260059390931b8501820192828101915086841115620040b157600080fd5b8286015b8481101562003fda57803567ffffffffffffffff811115620040d75760008081fd5b620040e78986838b010162003fe5565b845250918301918301620040b5565b600082601f8301126200410857600080fd5b81356020620041178262003f3c565b60405162004126828262003f0c565b83815260059390931b85018201928281019150868411156200414757600080fd5b8286015b8481101562003fda57803583529183019183016200414b565b60008060008060008060c087890312156200417e57600080fd5b863567ffffffffffffffff808211156200419757600080fd5b620041a58a838b0162003f63565b97506020890135915080821115620041bc57600080fd5b620041ca8a838b0162004060565b96506040890135915080821115620041e157600080fd5b620041ef8a838b01620040f6565b95506060890135945060808901359150808211156200420d57600080fd5b6200421b8a838b0162003fe5565b935060a08901359150808211156200423257600080fd5b506200424189828a0162003fe5565b9150509295509295509295565b6000806000606084860312156200426457600080fd5b505081359360208301359350604090920135919050565b6000602082840312156200428e57600080fd5b5035919050565b600080600080600060a08688031215620042ae57600080fd5b853594506020860135935060408601359250620042ce6060870162003dc3565b9150608086013567ffffffffffffffff811115620042eb57600080fd5b620042f98882890162003fe5565b9150509295509295909350565b634e487b7160e01b600052602160045260246000fd5b600581106200433b57634e487b7160e01b600052602160045260246000fd5b9052565b60018060a01b038716815285602082015284604082015260c0606082015260006200436e60c083018662003df9565b828103608084015262004382818662003df9565b9150506200439460a08301846200431c565b979650505050505050565b60008060008060008060008060008060006101608c8e031215620043c257600080fd5b620043cd8c62003dc3565b9a5060208c0135995060408c0135985060608c0135975060808c0135965060a08c013567ffffffffffffffff8111156200440657600080fd5b620044148e828f0162003fe5565b96505060c08c0135945060e08c013593506101008c013592506101208c01359150620044446101408d0162003dc3565b90509295989b509295989b9093969950565b600081518084526020808501945080840160005b83811015620044915781516001600160a01b0316875295820195908201906001016200446a565b509495945050505050565b600081518084526020808501808196508360051b8101915082860160005b85811015620044e8578284038952620044d584835162003df9565b98850198935090840190600101620044ba565b5091979650505050505050565b600081518084526020808501945080840160005b83811015620044915781518752958201959082019060010162004509565b60208152620045426020820183516001600160a01b03169052565b6020820151604082015260408201516060820152600060608301516101408060808501526200457661016085018362004456565b91506080850151601f19808685030160a08701526200459684836200449c565b935060a08701519150808685030160c0870152620045b58483620044f5565b935060c08701519150808685030160e0870152620045d4848362003df9565b935060e08701519150610100818786030181880152620045f5858462003df9565b9450808801519250506101206200460f818801846200431c565b8701518685039091018387015290506200462a8382620044f5565b9695505050505050565b600080600080608085870312156200464b57600080fd5b620046568562003dc3565b966020860135965060408601359560600135945092505050565b600080604083850312156200468457600080fd5b823567ffffffffffffffff808211156200469d57600080fd5b620046ab8683870162003f63565b93506020850135915080821115620046c257600080fd5b50620046d185828601620040f6565b9150509250929050565b60208152600062002bc76020830184620044f5565b600080604083850312156200470457600080fd5b6200470f8362003dc3565b946020939093013593505050565b600181811c908216806200473257607f821691505b602082108114156200475457634e487b7160e01b600052602260045260246000fd5b50919050565b6020808252602f908201527f45524332304775696c643a2070726f706f73616c2074696d652068617320746f60408201526e0206265206d6f7265207468616e203608c1b606082015260800190565b6020808252603e908201527f45524332304775696c643a206c6f636b54696d652068617320746f206265206860408201527f6967686572206f7220657175616c20746f2070726f706f73616c54696d650000606082015260800190565b6020808252603c908201527f45524332304775696c643a20766f74696e6720706f77657220666f722065786560408201527f637574696f6e2068617320746f206265206d6f7265207468616e203000000000606082015260800190565b60208082526033908201527f536e617073686f7445524332304775696c643a2050726f706f73616c20656e6460408201527219590b0818d85b9b9bdd081899481d9bdd1959606a1b606082015260800190565b6020808252602e908201527f536e617073686f7445524332304775696c643a20496e76616c696420766f746960408201526d1b99d41bddd95c88185b5bdd5b9d60921b606082015260800190565b60208082526049908201527f536e617073686f7445524332304775696c643a2043616e6e6f74206368616e6760408201527f6520616374696f6e20766f7465642c206f6e6c7920696e63726561736520766f6060820152683a34b733a837bbb2b960b91b608082015260a00190565b634e487b7160e01b600052603260045260246000fd5b634e487b7160e01b600052601160045260246000fd5b6000600019821415620049b657620049b662004989565b5060010190565b600060033d1115620049d75760046000803e5060005160e01c5b90565b600060443d1015620049e95790565b6040516003193d81016004833e81513d67ffffffffffffffff816024840111818411171562004a1a57505050505090565b828501915081518181111562004a335750505050505090565b843d870101602082850101111562004a4e5750505050505090565b62004a5f6020828601018762003f0c565b509095945050505050565b600080835481600182811c91508083168062004a8757607f831692505b602080841082141562004aa857634e487b7160e01b86526022600452602486fd5b81801562004abf576001811462004ad15762004b00565b60ff1986168952848901965062004b00565b60008a81526020902060005b8681101562004af85781548b82015290850190830162004add565b505084890196505b509498975050505050505050565b60006020828403121562004b2157600080fd5b8151801515811462002bc757600080fd5b600081600019048311821515161562004b4f5762004b4f62004989565b500290565b634e487b7160e01b600052601260045260246000fd5b60008262004b7c5762004b7c62004b54565b500490565b6000821982111562004b975762004b9762004989565b500190565b60008282101562004bb15762004bb162004989565b500390565b60008262004bc85762004bc862004b54565b50069056fe608060405234801561001057600080fd5b506040516107a13803806107a183398101604081905261002f9161007c565b600080546001600160a01b039384166001600160a01b031991821617909155600180549290931691161790556100af565b80516001600160a01b038116811461007757600080fd5b919050565b6000806040838503121561008f57600080fd5b61009883610060565b91506100a660208401610060565b90509250929050565b6106e3806100be6000396000f3fe608060405234801561001057600080fd5b506004361061007d5760003560e01c80636e9960c31161005b5780636e9960c3146100ef578063f3fef3a314610100578063f851a44014610113578063fc0c546a1461012657600080fd5b806321df0da71461008257806327e235e3146100ac57806347e7ef24146100da575b600080fd5b6000546001600160a01b03165b6040516001600160a01b0390911681526020015b60405180910390f35b6100cc6100ba366004610586565b60026020526000908152604090205481565b6040519081526020016100a3565b6100ed6100e83660046105a1565b610139565b005b6001546001600160a01b031661008f565b6100ed61010e3660046105a1565b61020a565b60015461008f906001600160a01b031681565b60005461008f906001600160a01b031681565b6001546001600160a01b031633146101af5760405162461bcd60e51b815260206004820152602e60248201527f546f6b656e5661756c743a204465706f736974206d7573742062652073656e7460448201526d103a343937bab3b41030b236b4b760911b60648201526084015b60405180910390fd5b6000546101c7906001600160a01b031683308461025b565b6001600160a01b0382166000908152600260205260409020546101ea90826102cc565b6001600160a01b0390921660009081526002602052604090209190915550565b6001546001600160a01b0316331461022157600080fd5b600054610238906001600160a01b031683836102df565b6001600160a01b0382166000908152600260205260409020546101ea9082610314565b6040516001600160a01b03808516602483015283166044820152606481018290526102c69085906323b872dd60e01b906084015b60408051601f198184030181529190526020810180516001600160e01b03166001600160e01b031990931692909217909152610320565b50505050565b60006102d882846105e1565b9392505050565b6040516001600160a01b03831660248201526044810182905261030f90849063a9059cbb60e01b9060640161028f565b505050565b60006102d882846105f9565b6000610375826040518060400160405280602081526020017f5361666545524332303a206c6f772d6c6576656c2063616c6c206661696c6564815250856001600160a01b03166103f29092919063ffffffff16565b80519091501561030f57808060200190518101906103939190610610565b61030f5760405162461bcd60e51b815260206004820152602a60248201527f5361666545524332303a204552433230206f7065726174696f6e20646964206e6044820152691bdd081cdd58d8d9595960b21b60648201526084016101a6565b60606104018484600085610409565b949350505050565b60608247101561046a5760405162461bcd60e51b815260206004820152602660248201527f416464726573733a20696e73756666696369656e742062616c616e636520666f6044820152651c8818d85b1b60d21b60648201526084016101a6565b843b6104b85760405162461bcd60e51b815260206004820152601d60248201527f416464726573733a2063616c6c20746f206e6f6e2d636f6e747261637400000060448201526064016101a6565b600080866001600160a01b031685876040516104d4919061065e565b60006040518083038185875af1925050503d8060008114610511576040519150601f19603f3d011682016040523d82523d6000602084013e610516565b606091505b5091509150610526828286610531565b979650505050505050565b606083156105405750816102d8565b8251156105505782518084602001fd5b8160405162461bcd60e51b81526004016101a6919061067a565b80356001600160a01b038116811461058157600080fd5b919050565b60006020828403121561059857600080fd5b6102d88261056a565b600080604083850312156105b457600080fd5b6105bd8361056a565b946020939093013593505050565b634e487b7160e01b600052601160045260246000fd5b600082198211156105f4576105f46105cb565b500190565b60008282101561060b5761060b6105cb565b500390565b60006020828403121561062257600080fd5b815180151581146102d857600080fd5b60005b8381101561064d578181015183820152602001610635565b838111156102c65750506000910152565b60008251610670818460208701610632565b9190910192915050565b6020815260008251806020840152610699816040850160208701610632565b601f01601f1916919091016040019291505056fea264697066735822122070d7bd3315a923c1c3063e344035e27aa3aa9ce2514187485fe754f833a60f6d64736f6c63430008080033fee62a9eec0be50eb061c711990ef0f1e17b40ea131d9347b0468acdaf8bf243a2646970667358221220cb0ba8f47c2fc8c0919440df6d3a640bd7a1f3f779838fe3e5e93a39e258265c64736f6c63430008080033",
  "linkReferences": {},
  "deployedLinkReferences": {}
}