{
  "_format": "hh-sol-artifact-1",
  "contractName": "SnapshotERC20Guild",
  "sourceName": "dxdao-contracts/contracts/erc20guild/implementations/SnapshotERC20Guild.sol",
  "abi": [
    {
      "anonymous": false,
      "inputs": [
        {
          "indexed": true,
          "internalType": "bytes32",
          "name": "proposalId",
          "type": "bytes32"
        },
        {
          "indexed": false,
          "internalType": "uint256",
          "name": "newState",
          "type": "uint256"
        }
      ],
      "name": "ProposalStateChanged",
      "type": "event"
    },
    {
      "anonymous": false,
      "inputs": [
        {
          "indexed": false,
          "internalType": "address",
          "name": "voter",
          "type": "address"
        },
        {
          "indexed": false,
          "internalType": "uint256",
          "name": "value",
          "type": "uint256"
        }
      ],
      "name": "TokensLocked",
      "type": "event"
    },
    {
      "anonymous": false,
      "inputs": [
        {
          "indexed": false,
          "internalType": "address",
          "name": "voter",
          "type": "address"
        },
        {
          "indexed": false,
          "internalType": "uint256",
          "name": "value",
          "type": "uint256"
        }
      ],
      "name": "TokensWithdrawn",
      "type": "event"
    },
    {
      "anonymous": false,
      "inputs": [
        {
          "indexed": true,
          "internalType": "bytes32",
          "name": "proposalId",
          "type": "bytes32"
        },
        {
          "indexed": true,
          "internalType": "uint256",
          "name": "option",
          "type": "uint256"
        },
        {
          "indexed": false,
          "internalType": "address",
          "name": "voter",
          "type": "address"
        },
        {
          "indexed": false,
          "internalType": "uint256",
          "name": "votingPower",
          "type": "uint256"
        }
      ],
      "name": "VoteAdded",
      "type": "event"
    },
    {
      "stateMutability": "payable",
      "type": "fallback"
    },
    {
      "inputs": [],
      "name": "MAX_OPTIONS_PER_PROPOSAL",
      "outputs": [
        {
          "internalType": "uint8",
          "name": "",
          "type": "uint8"
        }
      ],
      "stateMutability": "view",
      "type": "function"
    },
    {
      "inputs": [],
      "name": "activeProposalsNow",
      "outputs": [
        {
          "internalType": "uint256",
          "name": "",
          "type": "uint256"
        }
      ],
      "stateMutability": "view",
      "type": "function"
    },
    {
      "inputs": [
        {
          "internalType": "address[]",
          "name": "to",
          "type": "address[]"
        },
        {
          "internalType": "bytes[]",
          "name": "data",
          "type": "bytes[]"
        },
        {
          "internalType": "uint256[]",
          "name": "value",
          "type": "uint256[]"
        },
        {
          "internalType": "uint256",
          "name": "totalOptions",
          "type": "uint256"
        },
        {
          "internalType": "string",
          "name": "title",
          "type": "string"
        },
        {
          "internalType": "string",
          "name": "contentHash",
          "type": "string"
        }
      ],
      "name": "createProposal",
      "outputs": [
        {
          "internalType": "bytes32",
          "name": "",
          "type": "bytes32"
        }
      ],
      "stateMutability": "nonpayable",
      "type": "function"
    },
    {
      "inputs": [
        {
          "internalType": "bytes32",
          "name": "proposalId",
          "type": "bytes32"
        }
      ],
      "name": "endProposal",
      "outputs": [],
      "stateMutability": "nonpayable",
      "type": "function"
    },
    {
      "inputs": [
        {
          "internalType": "bytes32",
          "name": "root",
          "type": "bytes32"
        },
        {
          "internalType": "address",
          "name": "voter",
          "type": "address"
        },
        {
          "internalType": "bytes32",
          "name": "voteHash",
          "type": "bytes32"
        },
        {
          "internalType": "bytes32[]",
          "name": "proof",
          "type": "bytes32[]"
        },
        {
          "internalType": "bytes32",
          "name": "proposalId",
          "type": "bytes32"
        },
        {
          "internalType": "uint256",
          "name": "option",
          "type": "uint256"
        },
        {
          "internalType": "uint256",
          "name": "votingPower",
          "type": "uint256"
        }
      ],
      "name": "executeSignedVote",
      "outputs": [],
      "stateMutability": "nonpayable",
      "type": "function"
    },
    {
      "inputs": [
        {
          "internalType": "bytes32[]",
          "name": "proposalIds",
          "type": "bytes32[]"
        },
        {
          "internalType": "uint256[]",
          "name": "options",
          "type": "uint256[]"
        },
        {
          "internalType": "uint256[]",
          "name": "votingPowers",
          "type": "uint256[]"
        }
      ],
      "name": "executeVotes",
      "outputs": [
        {
          "internalType": "bool[]",
          "name": "",
          "type": "bool[]"
        }
      ],
      "stateMutability": "nonpayable",
      "type": "function"
    },
    {
      "inputs": [],
      "name": "getActiveProposalsNow",
      "outputs": [
        {
          "internalType": "uint256",
          "name": "",
          "type": "uint256"
        }
      ],
      "stateMutability": "view",
      "type": "function"
    },
    {
      "inputs": [],
      "name": "getCurrentSnapshotId",
      "outputs": [
        {
          "internalType": "uint256",
          "name": "",
          "type": "uint256"
        }
      ],
      "stateMutability": "view",
      "type": "function"
    },
    {
      "inputs": [],
      "name": "getLockTime",
      "outputs": [
        {
          "internalType": "uint256",
          "name": "",
          "type": "uint256"
        }
      ],
      "stateMutability": "view",
      "type": "function"
    },
    {
      "inputs": [],
      "name": "getMaxActiveProposals",
      "outputs": [
        {
          "internalType": "uint256",
          "name": "",
          "type": "uint256"
        }
      ],
      "stateMutability": "view",
      "type": "function"
    },
    {
      "inputs": [],
      "name": "getMaxGasPrice",
      "outputs": [
        {
          "internalType": "uint256",
          "name": "",
          "type": "uint256"
        }
      ],
      "stateMutability": "view",
      "type": "function"
    },
    {
      "inputs": [],
      "name": "getMinimumMembersForProposalCreation",
      "outputs": [
        {
          "internalType": "uint256",
          "name": "",
          "type": "uint256"
        }
      ],
      "stateMutability": "view",
      "type": "function"
    },
    {
      "inputs": [],
      "name": "getMinimumTokensLockedForProposalCreation",
      "outputs": [
        {
          "internalType": "uint256",
          "name": "",
          "type": "uint256"
        }
      ],
      "stateMutability": "view",
      "type": "function"
    },
    {
      "inputs": [],
      "name": "getName",
      "outputs": [
        {
          "internalType": "string",
          "name": "",
          "type": "string"
        }
      ],
      "stateMutability": "view",
      "type": "function"
    },
    {
      "inputs": [],
      "name": "getPermissionRegistry",
      "outputs": [
        {
          "internalType": "address",
          "name": "",
          "type": "address"
        }
      ],
      "stateMutability": "view",
      "type": "function"
    },
    {
      "inputs": [
        {
          "internalType": "bytes32",
          "name": "proposalId",
          "type": "bytes32"
        }
      ],
      "name": "getProposal",
      "outputs": [
        {
          "components": [
            {
              "internalType": "address",
              "name": "creator",
              "type": "address"
            },
            {
              "internalType": "uint256",
              "name": "startTime",
              "type": "uint256"
            },
            {
              "internalType": "uint256",
              "name": "endTime",
              "type": "uint256"
            },
            {
              "internalType": "address[]",
              "name": "to",
              "type": "address[]"
            },
            {
              "internalType": "bytes[]",
              "name": "data",
              "type": "bytes[]"
            },
            {
              "internalType": "uint256[]",
              "name": "value",
              "type": "uint256[]"
            },
            {
              "internalType": "string",
              "name": "title",
              "type": "string"
            },
            {
              "internalType": "string",
              "name": "contentHash",
              "type": "string"
            },
            {
              "internalType": "enum BaseERC20Guild.ProposalState",
              "name": "state",
              "type": "uint8"
            },
            {
              "internalType": "uint256[]",
              "name": "totalVotes",
              "type": "uint256[]"
            }
          ],
          "internalType": "struct BaseERC20Guild.Proposal",
          "name": "",
          "type": "tuple"
        }
      ],
      "stateMutability": "view",
      "type": "function"
    },
    {
      "inputs": [
        {
          "internalType": "bytes32",
          "name": "proposalId",
          "type": "bytes32"
        }
      ],
      "name": "getProposalSnapshotId",
      "outputs": [
        {
          "internalType": "uint256",
          "name": "",
          "type": "uint256"
        }
      ],
      "stateMutability": "view",
      "type": "function"
    },
    {
      "inputs": [],
      "name": "getProposalTime",
      "outputs": [
        {
          "internalType": "uint256",
          "name": "",
          "type": "uint256"
        }
      ],
      "stateMutability": "view",
      "type": "function"
    },
    {
      "inputs": [
        {
          "internalType": "bytes32",
          "name": "proposalId",
          "type": "bytes32"
        },
        {
          "internalType": "address",
          "name": "voter",
          "type": "address"
        }
      ],
      "name": "getProposalVotesOfVoter",
      "outputs": [
        {
          "internalType": "uint256",
          "name": "option",
          "type": "uint256"
        },
        {
          "internalType": "uint256",
          "name": "votingPower",
          "type": "uint256"
        }
      ],
      "stateMutability": "view",
      "type": "function"
    },
    {
      "inputs": [],
      "name": "getProposalsIds",
      "outputs": [
        {
          "internalType": "bytes32[]",
          "name": "",
          "type": "bytes32[]"
        }
      ],
      "stateMutability": "view",
      "type": "function"
    },
    {
      "inputs": [],
      "name": "getProposalsIdsLength",
      "outputs": [
        {
          "internalType": "uint256",
          "name": "",
          "type": "uint256"
        }
      ],
      "stateMutability": "view",
      "type": "function"
    },
    {
      "inputs": [
        {
          "internalType": "bytes32",
          "name": "signedVoteHash",
          "type": "bytes32"
        }
      ],
      "name": "getSignedVote",
      "outputs": [
        {
          "internalType": "bool",
          "name": "",
          "type": "bool"
        }
      ],
      "stateMutability": "view",
      "type": "function"
    },
    {
      "inputs": [],
      "name": "getTimeForExecution",
      "outputs": [
        {
          "internalType": "uint256",
          "name": "",
          "type": "uint256"
        }
      ],
      "stateMutability": "view",
      "type": "function"
    },
    {
      "inputs": [],
      "name": "getToken",
      "outputs": [
        {
          "internalType": "address",
          "name": "",
          "type": "address"
        }
      ],
      "stateMutability": "view",
      "type": "function"
    },
    {
      "inputs": [],
      "name": "getTokenVault",
      "outputs": [
        {
          "internalType": "address",
          "name": "",
          "type": "address"
        }
      ],
      "stateMutability": "view",
      "type": "function"
    },
    {
      "inputs": [],
      "name": "getTotalLocked",
      "outputs": [
        {
          "internalType": "uint256",
          "name": "",
          "type": "uint256"
        }
      ],
      "stateMutability": "view",
      "type": "function"
    },
    {
      "inputs": [],
      "name": "getTotalMembers",
      "outputs": [
        {
          "internalType": "uint256",
          "name": "",
          "type": "uint256"
        }
      ],
      "stateMutability": "view",
      "type": "function"
    },
    {
      "inputs": [],
      "name": "getTotalProposals",
      "outputs": [
        {
          "internalType": "uint256",
          "name": "",
          "type": "uint256"
        }
      ],
      "stateMutability": "view",
      "type": "function"
    },
    {
      "inputs": [],
      "name": "getVoteGas",
      "outputs": [
        {
          "internalType": "uint256",
          "name": "",
          "type": "uint256"
        }
      ],
      "stateMutability": "view",
      "type": "function"
    },
    {
      "inputs": [
        {
          "internalType": "address",
          "name": "voter",
          "type": "address"
        }
      ],
      "name": "getVoterLockTimestamp",
      "outputs": [
        {
          "internalType": "uint256",
          "name": "",
          "type": "uint256"
        }
      ],
      "stateMutability": "view",
      "type": "function"
    },
    {
      "inputs": [],
      "name": "getVotingPowerForProposalCreation",
      "outputs": [
        {
          "internalType": "uint256",
          "name": "",
          "type": "uint256"
        }
      ],
      "stateMutability": "view",
      "type": "function"
    },
    {
      "inputs": [],
      "name": "getVotingPowerForProposalExecution",
      "outputs": [
        {
          "internalType": "uint256",
          "name": "",
          "type": "uint256"
        }
      ],
      "stateMutability": "view",
      "type": "function"
    },
    {
      "inputs": [
        {
          "internalType": "uint256",
          "name": "snapshotId",
          "type": "uint256"
        }
      ],
      "name": "getVotingPowerForProposalExecution",
      "outputs": [
        {
          "internalType": "uint256",
          "name": "",
          "type": "uint256"
        }
      ],
      "stateMutability": "view",
      "type": "function"
    },
    {
      "inputs": [
        {
          "internalType": "address",
          "name": "voter",
          "type": "address"
        },
        {
          "internalType": "bytes32",
          "name": "proposalId",
          "type": "bytes32"
        },
        {
          "internalType": "uint256",
          "name": "option",
          "type": "uint256"
        },
        {
          "internalType": "uint256",
          "name": "votingPower",
          "type": "uint256"
        }
      ],
      "name": "hashVote",
      "outputs": [
        {
          "internalType": "bytes32",
          "name": "",
          "type": "bytes32"
        }
      ],
      "stateMutability": "pure",
      "type": "function"
    },
    {
      "inputs": [
        {
          "internalType": "address",
          "name": "_token",
          "type": "address"
        },
        {
          "internalType": "uint256",
          "name": "_proposalTime",
          "type": "uint256"
        },
        {
          "internalType": "uint256",
          "name": "_timeForExecution",
          "type": "uint256"
        },
        {
          "internalType": "uint256",
          "name": "_votingPowerPercentageForProposalExecution",
          "type": "uint256"
        },
        {
          "internalType": "uint256",
          "name": "_votingPowerPercentageForProposalCreation",
          "type": "uint256"
        },
        {
          "internalType": "string",
          "name": "_name",
          "type": "string"
        },
        {
          "internalType": "uint256",
          "name": "_voteGas",
          "type": "uint256"
        },
        {
          "internalType": "uint256",
          "name": "_maxGasPrice",
          "type": "uint256"
        },
        {
          "internalType": "uint256",
          "name": "_maxActiveProposals",
          "type": "uint256"
        },
        {
          "internalType": "uint256",
          "name": "_lockTime",
          "type": "uint256"
        },
        {
          "internalType": "address",
          "name": "_permissionRegistry",
          "type": "address"
        }
      ],
      "name": "initialize",
      "outputs": [],
      "stateMutability": "nonpayable",
      "type": "function"
    },
    {
      "inputs": [],
      "name": "lockTime",
      "outputs": [
        {
          "internalType": "uint256",
          "name": "",
          "type": "uint256"
        }
      ],
      "stateMutability": "view",
      "type": "function"
    },
    {
      "inputs": [
        {
          "internalType": "uint256",
          "name": "tokenAmount",
          "type": "uint256"
        }
      ],
      "name": "lockTokens",
      "outputs": [],
      "stateMutability": "nonpayable",
      "type": "function"
    },
    {
      "inputs": [],
      "name": "maxActiveProposals",
      "outputs": [
        {
          "internalType": "uint256",
          "name": "",
          "type": "uint256"
        }
      ],
      "stateMutability": "view",
      "type": "function"
    },
    {
      "inputs": [],
      "name": "maxGasPrice",
      "outputs": [
        {
          "internalType": "uint256",
          "name": "",
          "type": "uint256"
        }
      ],
      "stateMutability": "view",
      "type": "function"
    },
    {
      "inputs": [],
      "name": "minimumMembersForProposalCreation",
      "outputs": [
        {
          "internalType": "uint256",
          "name": "",
          "type": "uint256"
        }
      ],
      "stateMutability": "view",
      "type": "function"
    },
    {
      "inputs": [],
      "name": "minimumTokensLockedForProposalCreation",
      "outputs": [
        {
          "internalType": "uint256",
          "name": "",
          "type": "uint256"
        }
      ],
      "stateMutability": "view",
      "type": "function"
    },
    {
      "inputs": [],
      "name": "name",
      "outputs": [
        {
          "internalType": "string",
          "name": "",
          "type": "string"
        }
      ],
      "stateMutability": "view",
      "type": "function"
    },
    {
      "inputs": [],
      "name": "proposalTime",
      "outputs": [
        {
          "internalType": "uint256",
          "name": "",
          "type": "uint256"
        }
      ],
      "stateMutability": "view",
      "type": "function"
    },
    {
      "inputs": [
        {
          "internalType": "bytes32",
          "name": "",
          "type": "bytes32"
        },
        {
          "internalType": "address",
          "name": "",
          "type": "address"
        }
      ],
      "name": "proposalVotes",
      "outputs": [
        {
          "internalType": "uint256",
          "name": "option",
          "type": "uint256"
        },
        {
          "internalType": "uint256",
          "name": "votingPower",
          "type": "uint256"
        }
      ],
      "stateMutability": "view",
      "type": "function"
    },
    {
      "inputs": [
        {
          "internalType": "bytes32",
          "name": "",
          "type": "bytes32"
        }
      ],
      "name": "proposals",
      "outputs": [
        {
          "internalType": "address",
          "name": "creator",
          "type": "address"
        },
        {
          "internalType": "uint256",
          "name": "startTime",
          "type": "uint256"
        },
        {
          "internalType": "uint256",
          "name": "endTime",
          "type": "uint256"
        },
        {
          "internalType": "string",
          "name": "title",
          "type": "string"
        },
        {
          "internalType": "string",
          "name": "contentHash",
          "type": "string"
        },
        {
          "internalType": "enum BaseERC20Guild.ProposalState",
          "name": "state",
          "type": "uint8"
        }
      ],
      "stateMutability": "view",
      "type": "function"
    },
    {
      "inputs": [
        {
          "internalType": "uint256",
          "name": "",
          "type": "uint256"
        }
      ],
      "name": "proposalsIds",
      "outputs": [
        {
          "internalType": "bytes32",
          "name": "",
          "type": "bytes32"
        }
      ],
      "stateMutability": "view",
      "type": "function"
    },
    {
      "inputs": [
        {
          "internalType": "bytes32",
          "name": "",
          "type": "bytes32"
        }
      ],
      "name": "proposalsSnapshots",
      "outputs": [
        {
          "internalType": "uint256",
          "name": "",
          "type": "uint256"
        }
      ],
      "stateMutability": "view",
      "type": "function"
    },
    {
      "inputs": [
        {
          "internalType": "uint256",
          "name": "_proposalTime",
          "type": "uint256"
        },
        {
          "internalType": "uint256",
          "name": "_timeForExecution",
          "type": "uint256"
        },
        {
          "internalType": "uint256",
          "name": "_votingPowerPercentageForProposalExecution",
          "type": "uint256"
        },
        {
          "internalType": "uint256",
          "name": "_votingPowerPercentageForProposalCreation",
          "type": "uint256"
        },
        {
          "internalType": "uint256",
          "name": "_voteGas",
          "type": "uint256"
        },
        {
          "internalType": "uint256",
          "name": "_maxGasPrice",
          "type": "uint256"
        },
        {
          "internalType": "uint256",
          "name": "_maxActiveProposals",
          "type": "uint256"
        },
        {
          "internalType": "uint256",
          "name": "_lockTime",
          "type": "uint256"
        },
        {
          "internalType": "uint256",
          "name": "_minimumMembersForProposalCreation",
          "type": "uint256"
        },
        {
          "internalType": "uint256",
          "name": "_minimumTokensLockedForProposalCreation",
          "type": "uint256"
        }
      ],
      "name": "setConfig",
      "outputs": [],
      "stateMutability": "nonpayable",
      "type": "function"
    },
    {
      "inputs": [
        {
          "internalType": "bytes32",
          "name": "proposalId",
          "type": "bytes32"
        },
        {
          "internalType": "uint256",
          "name": "option",
          "type": "uint256"
        },
        {
          "internalType": "uint256",
          "name": "votingPower",
          "type": "uint256"
        },
        {
          "internalType": "address",
          "name": "voter",
          "type": "address"
        },
        {
          "internalType": "bytes",
          "name": "signature",
          "type": "bytes"
        }
      ],
      "name": "setSignedVote",
      "outputs": [],
      "stateMutability": "nonpayable",
      "type": "function"
    },
    {
      "inputs": [
        {
          "internalType": "bytes32",
          "name": "proposalId",
          "type": "bytes32"
        },
        {
          "internalType": "uint256",
          "name": "option",
          "type": "uint256"
        },
        {
          "internalType": "uint256",
          "name": "votingPower",
          "type": "uint256"
        }
      ],
      "name": "setVote",
      "outputs": [],
      "stateMutability": "nonpayable",
      "type": "function"
    },
    {
      "inputs": [
        {
          "internalType": "bytes32",
          "name": "",
          "type": "bytes32"
        }
      ],
      "name": "signedVotes",
      "outputs": [
        {
          "internalType": "bool",
          "name": "",
          "type": "bool"
        }
      ],
      "stateMutability": "view",
      "type": "function"
    },
    {
      "inputs": [],
      "name": "timeForExecution",
      "outputs": [
        {
          "internalType": "uint256",
          "name": "",
          "type": "uint256"
        }
      ],
      "stateMutability": "view",
      "type": "function"
    },
    {
      "inputs": [],
      "name": "token",
      "outputs": [
        {
          "internalType": "contract IERC20Upgradeable",
          "name": "",
          "type": "address"
        }
      ],
      "stateMutability": "view",
      "type": "function"
    },
    {
      "inputs": [],
      "name": "tokenVault",
      "outputs": [
        {
          "internalType": "contract TokenVault",
          "name": "",
          "type": "address"
        }
      ],
      "stateMutability": "view",
      "type": "function"
    },
    {
      "inputs": [
        {
          "internalType": "address",
          "name": "",
          "type": "address"
        }
      ],
      "name": "tokensLocked",
      "outputs": [
        {
          "internalType": "uint256",
          "name": "amount",
          "type": "uint256"
        },
        {
          "internalType": "uint256",
          "name": "timestamp",
          "type": "uint256"
        }
      ],
      "stateMutability": "view",
      "type": "function"
    },
    {
      "inputs": [],
      "name": "totalLocked",
      "outputs": [
        {
          "internalType": "uint256",
          "name": "",
          "type": "uint256"
        }
      ],
      "stateMutability": "view",
      "type": "function"
    },
    {
      "inputs": [
        {
          "internalType": "uint256",
          "name": "snapshotId",
          "type": "uint256"
        }
      ],
      "name": "totalLockedAt",
      "outputs": [
        {
          "internalType": "uint256",
          "name": "",
          "type": "uint256"
        }
      ],
      "stateMutability": "view",
      "type": "function"
    },
    {
      "inputs": [],
      "name": "totalProposals",
      "outputs": [
        {
          "internalType": "uint256",
          "name": "",
          "type": "uint256"
        }
      ],
      "stateMutability": "view",
      "type": "function"
    },
    {
      "inputs": [
        {
          "internalType": "bytes32",
          "name": "root",
          "type": "bytes32"
        },
        {
          "internalType": "bytes32",
          "name": "voteHash",
          "type": "bytes32"
        },
        {
          "internalType": "bytes32[]",
          "name": "proof",
          "type": "bytes32[]"
        }
      ],
      "name": "validateMerkleTreeLeaf",
      "outputs": [
        {
          "internalType": "bool",
          "name": "",
          "type": "bool"
        }
      ],
      "stateMutability": "nonpayable",
      "type": "function"
    },
    {
      "inputs": [],
      "name": "voteGas",
      "outputs": [
        {
          "internalType": "uint256",
          "name": "",
          "type": "uint256"
        }
      ],
      "stateMutability": "view",
      "type": "function"
    },
    {
      "inputs": [
        {
          "internalType": "address",
          "name": "account",
          "type": "address"
        }
      ],
      "name": "votingPowerOf",
      "outputs": [
        {
          "internalType": "uint256",
          "name": "",
          "type": "uint256"
        }
      ],
      "stateMutability": "view",
      "type": "function"
    },
    {
      "inputs": [
        {
          "internalType": "address",
          "name": "account",
          "type": "address"
        },
        {
          "internalType": "uint256",
          "name": "snapshotId",
          "type": "uint256"
        }
      ],
      "name": "votingPowerOfAt",
      "outputs": [
        {
          "internalType": "uint256",
          "name": "",
          "type": "uint256"
        }
      ],
      "stateMutability": "view",
      "type": "function"
    },
    {
      "inputs": [
        {
          "internalType": "address[]",
          "name": "accounts",
          "type": "address[]"
        },
        {
          "internalType": "uint256[]",
          "name": "snapshotIds",
          "type": "uint256[]"
        }
      ],
      "name": "votingPowerOfMultipleAt",
      "outputs": [
        {
          "internalType": "uint256[]",
          "name": "",
          "type": "uint256[]"
        }
      ],
      "stateMutability": "view",
      "type": "function"
    },
    {
      "inputs": [],
      "name": "votingPowerPercentageForProposalCreation",
      "outputs": [
        {
          "internalType": "uint256",
          "name": "",
          "type": "uint256"
        }
      ],
      "stateMutability": "view",
      "type": "function"
    },
    {
      "inputs": [],
      "name": "votingPowerPercentageForProposalExecution",
      "outputs": [
        {
          "internalType": "uint256",
          "name": "",
          "type": "uint256"
        }
      ],
      "stateMutability": "view",
      "type": "function"
    },
    {
      "inputs": [
        {
          "internalType": "uint256",
          "name": "tokenAmount",
          "type": "uint256"
        }
      ],
      "name": "withdrawTokens",
      "outputs": [],
      "stateMutability": "nonpayable",
      "type": "function"
    }
  ],
  "bytecode": "0x60806040526001601c5534801561001557600080fd5b50615ecf80620000266000396000f3fe608060405260043610620003fd5760003560e01c8063671abed7116200020f578063ae6192341162000123578063e045035311620000b3578063f4732da61162000081578063f4732da61462000c6e578063f98606a71462000c85578063f9a92d821462000c9d578063fc0c546a1462000cc2578063fc4e703f1462000ce457005b8063e04503531462000bd6578063e158080a1462000bee578063ed996f5e1462000c06578063f09951981462000c2b57005b8063bba363a011620000f1578063bba363a01462000b5e578063bcc3f3bd1462000b83578063c0a4d64d1462000ba8578063c93e01e31462000bbf57005b8063ae6192341462000ae5578063b3929aaa1462000afd578063b3b470611462000b22578063b7c15f8d1462000b4757005b80638f180305116200019f578063a7aeb557116200016d578063a7aeb5571462000a5d578063ab6ea06b1462000a75578063ad6c1e341462000a9a578063adf2c7b61462000ab157005b80638f18030514620009e957806392b716541462000a00578063a16fe3421462000a25578063a78d80fc1462000a4557005b806377027ff411620001dd57806377027ff414620009625780638029eff1146200097957806386e2712514620009ad57806389c98c0614620009d257005b8063671abed714620008c15780636c8b72f614620008f55780636e27d889146200090c57806371893546146200093157005b806325c069fc11620003135780633de39c1111620002a357806354f2f7af116200027157806354f2f7af14620008385780635689141214620008585780635bc789d914620008705780635e508c2c146200089257806364fe6ed214620008aa57005b80633de39c1114620007bd5780633f10cf1514620007d5578063430694cf14620007ed5780635439ad86146200082157005b8063315a095d11620002e1578063315a095d146200072257806332ed5b12146200074757806336f8f8d914620007805780633bf353fb14620007a557005b806325c069fc14620006515780632d5b17de146200067b5780632d757c3e14620006a05780632fd99c0014620006dd57005b806316bbecde116200038f57806321df0da7116200035d57806321df0da714620005be5780632229a0e214620005f257806322bafdff14620006095780632467ef94146200063a57005b806316bbecde146200055257806317d7de7c1462000577578063184a0ae9146200058f5780631a5007dd14620005a757005b80630d66808711620003cd5780630d66808714620004cb578063123f6d6714620004e3578063130485fe146200050857806313108d74146200052d57005b80623a40d014620003ff57806301a598a6146200042f57806306fdde03146200047d5780630a366a6314620004a4575b005b3480156200040c57600080fd5b506200041762000cfc565b604051620004269190620046fd565b60405180910390f35b3480156200043c57600080fd5b50620004676200044e3660046200475b565b6012602052600090815260409020805460019091015482565b6040805192835260208301919091520162000426565b3480156200048a57600080fd5b506200049562000d56565b604051620004269190620047c9565b348015620004b157600080fd5b50620004bc62000dec565b60405190815260200162000426565b348015620004d857600080fd5b50620004bc600d5481565b348015620004f057600080fd5b50620003fd62000502366004620047de565b62000e19565b3480156200051557600080fd5b50620004676200052736600462004847565b62000fb2565b3480156200053a57600080fd5b50620004bc6200054c36600462004ae0565b62000fe4565b3480156200055f57600080fd5b50620003fd6200057136600462004bc9565b62001029565b3480156200058457600080fd5b50620004956200115a565b3480156200059c57600080fd5b50620004bc60035481565b348015620005b457600080fd5b50600a54620004bc565b348015620005cb57600080fd5b506000546001600160a01b03165b6040516001600160a01b03909116815260200162000426565b348015620005ff57600080fd5b50601654620004bc565b3480156200061657600080fd5b50620004bc6200062836600462004bf6565b60009081526018602052604090205490565b3480156200064757600080fd5b50600c54620004bc565b3480156200065e57600080fd5b5062000668600a81565b60405160ff909116815260200162000426565b3480156200068857600080fd5b50620003fd6200069a36600462004c10565b620011eb565b348015620006ad57600080fd5b50620004bc620006bf3660046200475b565b6001600160a01b031660009081526012602052604090206001015490565b348015620006ea57600080fd5b5062000711620006fc36600462004bf6565b60136020526000908152604090205460ff1681565b604051901515815260200162000426565b3480156200072f57600080fd5b50620003fd6200074136600462004bf6565b620014d0565b3480156200075457600080fd5b506200076c6200076636600462004bf6565b62001770565b604051620004269695949392919062004cb9565b3480156200078d57600080fd5b50620003fd6200079f36600462004d19565b620018d4565b348015620007b257600080fd5b50620004bc600c5481565b348015620007ca57600080fd5b50620004bc60085481565b348015620007e257600080fd5b50620004bc60045481565b348015620007fa57600080fd5b50620008126200080c36600462004bf6565b62001b41565b60405162000426919062004e9d565b3480156200082e57600080fd5b50601c54620004bc565b3480156200084557600080fd5b506011546001600160a01b0316620005d9565b3480156200086557600080fd5b50620004bc600e5481565b3480156200087d57600080fd5b50601154620005d9906001600160a01b031681565b3480156200089f57600080fd5b50620004bc60055481565b348015620008b757600080fd5b50601054620004bc565b348015620008ce57600080fd5b50620008e6620008e036600462004faa565b62001ef4565b6040516200042691906200503b565b3480156200090257600080fd5b50600754620004bc565b3480156200091957600080fd5b50620003fd6200092b36600462004bf6565b62002365565b3480156200093e57600080fd5b50620004bc6200095036600462004bf6565b60186020526000908152604090205481565b3480156200096f57600080fd5b50600954620004bc565b3480156200098657600080fd5b50620007116200099836600462004bf6565b60009081526013602052604090205460ff1690565b348015620009ba57600080fd5b50620003fd620009cc36600462005077565b6200251a565b348015620009df57600080fd5b50600854620004bc565b348015620009f657600080fd5b50600b54620004bc565b34801562000a0d57600080fd5b50620004bc62000a1f366004620050f8565b620028bd565b34801562000a3257600080fd5b506001546001600160a01b0316620005d9565b34801562000a5257600080fd5b50620004bc600a5481565b34801562000a6a57600080fd5b50620004bc600f5481565b34801562000a8257600080fd5b506200071162000a9436600462005134565b62002914565b34801562000aa757600080fd5b50600f54620004bc565b34801562000abe57600080fd5b5062000ad662000ad03660046200517d565b6200292b565b604051620004269190620051e7565b34801562000af257600080fd5b50620004bc62002a90565b34801562000b0a57600080fd5b50620004bc62000b1c36600462004bf6565b62002aaa565b34801562000b2f57600080fd5b50620003fd62000b4136600462004bf6565b62002acc565b34801562000b5457600080fd5b50600454620004bc565b34801562000b6b57600080fd5b50620004bc62000b7d36600462004bf6565b620033c4565b34801562000b9057600080fd5b50620004bc62000ba23660046200475b565b620033df565b34801562000bb557600080fd5b50600d54620004bc565b34801562000bcc57600080fd5b50600354620004bc565b34801562000be357600080fd5b50620004bc60095481565b34801562000bfb57600080fd5b50620004bc60105481565b34801562000c1357600080fd5b50620004bc62000c2536600462004bf6565b620033fa565b34801562000c3857600080fd5b506200046762000c4a36600462004847565b60146020908152600092835260408084209091529082529020805460019091015482565b34801562000c7b57600080fd5b50600e54620004bc565b34801562000c9257600080fd5b50620004bc60065481565b34801562000caa57600080fd5b50620004bc62000cbc366004620051fc565b62003429565b34801562000ccf57600080fd5b50600054620005d9906001600160a01b031681565b34801562000cf157600080fd5b50620004bc60075481565b6060601680548060200260200160405190810160405280929190818152602001828054801562000d4c57602002820191906000526020600020905b81548152602001906001019080831162000d37575b5050505050905090565b6002805462000d659062005229565b80601f016020809104026020016040519081016040528092919081815260200182805462000d939062005229565b801562000de45780601f1062000db85761010080835404028352916020019162000de4565b820191906000526020600020905b81548152906001019060200180831162000dc657829003601f168201915b505050505081565b600062000e1461271062000e0d60065462000e06600e5490565b906200347c565b9062003491565b905090565b33301462000e9f5760405162461bcd60e51b815260206004820152604260248201527f45524332304775696c643a204f6e6c792063616c6c61626c652062792045524360448201527f32306775696c6420697473656c66206f72207768656e20696e697469616c697a606482015261195960f21b608482015260a4015b60405180910390fd5b60008a1162000ec25760405162461bcd60e51b815260040162000e969062005266565b8983101562000ee55760405162461bcd60e51b815260040162000e9690620052b5565b6000881162000f085760405162461bcd60e51b815260040162000e969062005312565b6201c90886111562000f835760405162461bcd60e51b815260206004820152603960248201527f45524332304775696c643a20766f7465206761732068617320746f206265206560448201527f7175616c206f72206c6f776572207468616e2031313730303000000000000000606482015260840162000e96565b600399909955600497909755600595909555600693909355600791909155600855600955600d55600f55601055565b60008281526014602090815260408083206001600160a01b0385168452909152902080546001909101545b9250929050565b60008062000ff78888888888886200349f565b601c549091506200100a90600162003a85565b601c819055600082815260186020526040902055979650505050505050565b60008381526015602052604090206002015442106200105c5760405162461bcd60e51b815260040162000e96906200536f565b60008381526018602052604090205481906200107a90339062003429565b10156200109b5760405162461bcd60e51b815260040162000e9690620053c2565b6000838152601460209081526040808320338452909152902054158015620010dd57506000838152601460209081526040808320338452909152902060010154155b80620011285750600083815260146020908152604080832033845290915290205482148015620011285750600083815260146020908152604080832033845290915290206001015481115b620011475760405162461bcd60e51b815260040162000e969062005410565b620011553384848462003a93565b505050565b6060600280546200116b9062005229565b80601f0160208091040260200160405190810160405280929190818152602001828054620011999062005229565b801562000d4c5780601f10620011be5761010080835404028352916020019162000d4c565b820191906000526020600020905b815481529060010190602001808311620011cc57509395945050505050565b60008581526015602052604090206002015442106200121e5760405162461bcd60e51b815260040162000e96906200536f565b60006200122e83878787620028bd565b60008181526013602052604090205490915060ff16156200129c5760405162461bcd60e51b815260206004820152602160248201527f536e617073686f7445524332304775696c643a20416c726561647920766f74656044820152601960fa1b606482015260840162000e96565b6200130082620012f9836040517f19457468657265756d205369676e6564204d6573736167653a0a3332000000006020820152603c8101829052600090605c01604051602081830303815290604052805190602001209050919050565b9062003cf4565b6001600160a01b0316836001600160a01b031614620013625760405162461bcd60e51b815260206004820181905260248201527f536e617073686f7445524332304775696c643a2057726f6e67207369676e6572604482015260640162000e96565b6000818152601360209081526040808320805460ff19166001179055888352601890915290205484906200139890859062003429565b10158015620013cb575060008681526014602090815260408083206001600160a01b038716845290915290206001015484115b620013ea5760405162461bcd60e51b815260040162000e9690620053c2565b60008681526014602090815260408083206001600160a01b03871684529091529020541580156200143e575060008681526014602090815260408083206001600160a01b0387168452909152902060010154155b806200149b575060008681526014602090815260408083206001600160a01b0387168452909152902054851480156200149b575060008681526014602090815260408083206001600160a01b038716845290915290206001015484115b620014ba5760405162461bcd60e51b815260040162000e969062005410565b620014c88387878762003a93565b505050505050565b80620014dc33620033df565b1015620015525760405162461bcd60e51b815260206004820152603e60248201527f536e617073686f7445524332304775696c643a20556e61626c6520746f20776960448201527f746864726177206d6f726520746f6b656e73207468616e206c6f636b65640000606482015260840162000e96565b336000908152601260205260409020600101544211620015c55760405162461bcd60e51b815260206004820152602760248201527f536e617073686f7445524332304775696c643a20546f6b656e73207374696c6c604482015266081b1bd8dad95960ca1b606482015260840162000e96565b600081116200164d5760405162461bcd60e51b815260206004820152604760248201527f536e617073686f7445524332304775696c643a20616d6f756e74206f6620746f60448201527f6b656e7320746f207769746864726177206d75737420626520677265617465726064820152660207468616e20360cc1b608482015260a40162000e96565b620016583362003d14565b6200166262003d45565b336000908152601260205260409020546200167e908262003d56565b33600090815260126020526040902055600e546200169d908262003d56565b600e5560115460405163f3fef3a360e01b8152336004820152602481018390526001600160a01b039091169063f3fef3a390604401600060405180830381600087803b158015620016ed57600080fd5b505af115801562001702573d6000803e3d6000fd5b5050336000908152601260205260409020541515915062001733905057600b546200172f90600162003d56565b600b555b60408051338152602081018390527f6352c5382c4a4578e712449ca65e83cdb392d045dfcf1cad9615189db2da244b91015b60405180910390a150565b60156020526000908152604090208054600182015460028301546006840180546001600160a01b03909416949293919291620017ac9062005229565b80601f0160208091040260200160405190810160405280929190818152602001828054620017da9062005229565b80156200182b5780601f10620017ff576101008083540402835291602001916200182b565b820191906000526020600020905b8154815290600101906020018083116200180d57829003601f168201915b505050505090806007018054620018429062005229565b80601f0160208091040260200160405190810160405280929190818152602001828054620018709062005229565b8015620018c15780601f106200189557610100808354040283529160200191620018c1565b820191906000526020600020905b815481529060010190602001808311620018a357829003601f168201915b5050506008909301549192505060ff1686565b60175462010000900460ff1680620018f45750601754610100900460ff16155b620019595760405162461bcd60e51b815260206004820152602e60248201527f496e697469616c697a61626c653a20636f6e747261637420697320616c72656160448201526d191e481a5b9a5d1a585b1a5e995960921b606482015260840162000e96565b60175462010000900460ff161580156200197f576017805462ffff001916620101001790555b6001600160a01b038c16620019e65760405162461bcd60e51b815260206004820152602660248201527f45524332304775696c643a20746f6b656e2063616e74206265207a65726f206160448201526564647265737360d01b606482015260840162000e96565b60008b1162001a095760405162461bcd60e51b815260040162000e969062005266565b8a83101562001a2c5760405162461bcd60e51b815260040162000e9690620052b5565b6000891162001a4f5760405162461bcd60e51b815260040162000e969062005312565b865162001a649060029060208a019062004484565b50600080546001600160a01b0319166001600160a01b038e16908117909155604051309062001a939062004513565b6001600160a01b03928316815291166020820152604001604051809103906000f08015801562001ac7573d6000803e3d6000fd5b50601180546001600160a01b03199081166001600160a01b039384161790915560038d905560048c905560058b905560068a9055600788905560088790556009869055600d85905560018054909116918416919091179055801562001b33576017805462ff0000191690555b505050505050505050505050565b62001b4b62004521565b60008281526015602090815260409182902082516101408101845281546001600160a01b03168152600182015481840152600282015481850152600382018054855181860281018601909652808652919492936060860193929083018282801562001be057602002820191906000526020600020905b81546001600160a01b0316815260019091019060200180831162001bc1575b5050505050815260200160048201805480602002602001604051908101604052809291908181526020016000905b8282101562001cc457838290600052602060002001805462001c309062005229565b80601f016020809104026020016040519081016040528092919081815260200182805462001c5e9062005229565b801562001caf5780601f1062001c835761010080835404028352916020019162001caf565b820191906000526020600020905b81548152906001019060200180831162001c9157829003601f168201915b50505050508152602001906001019062001c0e565b5050505081526020016005820180548060200260200160405190810160405280929190818152602001828054801562001d1d57602002820191906000526020600020905b81548152602001906001019080831162001d08575b5050505050815260200160068201805462001d389062005229565b80601f016020809104026020016040519081016040528092919081815260200182805462001d669062005229565b801562001db75780601f1062001d8b5761010080835404028352916020019162001db7565b820191906000526020600020905b81548152906001019060200180831162001d9957829003601f168201915b5050505050815260200160078201805462001dd29062005229565b80601f016020809104026020016040519081016040528092919081815260200182805462001e009062005229565b801562001e515780601f1062001e255761010080835404028352916020019162001e51565b820191906000526020600020905b81548152906001019060200180831162001e3357829003601f168201915b5050509183525050600882015460209091019060ff16600481111562001e7b5762001e7b62004c80565b600481111562001e8f5762001e8f62004c80565b81526020016009820180548060200260200160405190810160405280929190818152602001828054801562001ee457602002820191906000526020600020905b81548152602001906001019080831162001ecf575b5050505050815250509050919050565b60608251845114801562001f09575081518351145b62001f7d5760405162461bcd60e51b815260206004820152603f60248201527f45524332304775696c643a20496e76616c69642070726f706f73616c4964732c60448201527f206f7074696f6e73206f7220766f74696e67506f77657273206c656e67746800606482015260840162000e96565b60008085516001600160401b0381111562001f9c5762001f9c62004876565b60405190808252806020026020018201604052801562001fc6578160200160208202803683370190505b509050600091505b85518210156200235c57426015600088858151811062001ff25762001ff26200547f565b60200260200101518152602001908152602001600020600201541015620020405760008183815181106200202a576200202a6200547f565b9115156020928302919091019091015262002347565b8382815181106200205557620020556200547f565b60200260200101516200206833620033df565b1080620020e55750601460008784815181106200208957620020896200547f565b602002602001015181526020019081526020016000206000336001600160a01b03166001600160a01b0316815260200190815260200160002060010154848381518110620020db57620020db6200547f565b6020026020010151105b15620021025760008183815181106200202a576200202a6200547f565b601460008784815181106200211b576200211b6200547f565b602090810291909101810151825281810192909252604090810160009081203382529092529020541580620021a55750601460008784815181106200216457620021646200547f565b602002602001015181526020019081526020016000206000336001600160a01b03166001600160a01b03168152602001908152602001600020600101546000145b80156200229f5750848281518110620021c257620021c26200547f565b602002602001015160146000888581518110620021e357620021e36200547f565b602002602001015181526020019081526020016000206000336001600160a01b03166001600160a01b0316815260200190815260200160002060000154141580156200229f57508382815181106200223f576200223f6200547f565b6020026020010151601460008885815181106200226057620022606200547f565b602002602001015181526020019081526020016000206000336001600160a01b03166001600160a01b0316815260200190815260200160002060010154115b15620022bc5760008183815181106200202a576200202a6200547f565b6001818381518110620022d357620022d36200547f565b6020026020010190151590811515815250506200234733878481518110620022ff57620022ff6200547f565b60200260200101518785815181106200231c576200231c6200547f565b60200260200101518786815181106200233957620023396200547f565b602002602001015162003a93565b816200235381620054ab565b92505062001fce565b95945050505050565b60008111620023dd5760405162461bcd60e51b815260206004820152603a60248201527f536e617073686f7445524332304775696c643a20546f6b656e7320746f206c6f60448201527f636b2073686f756c6420626520686967686572207468616e2030000000000000606482015260840162000e96565b336000908152601260205260409020546200240657600b546200240290600162003a85565b600b555b620024113362003d14565b6200241b62003d45565b6011546040516311f9fbc960e21b8152336004820152602481018390526001600160a01b03909116906347e7ef2490604401600060405180830381600087803b1580156200246857600080fd5b505af11580156200247d573d6000803e3d6000fd5b5050336000908152601260205260409020546200249e925090508262003a85565b33600090815260126020526040902055600d54620024be90429062003a85565b33600090815260126020526040902060010155600e54620024e0908262003a85565b600e5560408051338152602081018390527fac87f20a77d28ee8bbb58ec87ea8fa968b3393efae1a368fd50b767c2847391c910162001765565b60006200252a87858585620028bd565b90508581146200257d5760405162461bcd60e51b815260206004820152601d60248201527f45524332304775696c643a20496e76616c696420766f74652068617368000000604482015260640162000e96565b60008181526013602052604090205460ff1615620025de5760405162461bcd60e51b815260206004820152601960248201527f45524332304775696c643a20416c726561647920766f74656400000000000000604482015260640162000e96565b6000620025ed89888862002914565b9050806200264a5760405162461bcd60e51b8152602060048201526024808201527f45524332304775696c643a20496e76616c6964206d65726b6c652074726565206044820152633632b0b360e11b606482015260840162000e96565b6000858152601560205260409020600201544210620026c05760405162461bcd60e51b815260206004820152602b60248201527f45524332304775696c643a2050726f706f73616c20656e6465642c2063616e6e60448201526a1bdd081899481d9bdd195960aa1b606482015260840162000e96565b82620026cc89620033df565b10158015620026ff575060008581526014602090815260408083206001600160a01b038c16845290915290206001015483115b6200275c5760405162461bcd60e51b815260206004820152602660248201527f45524332304775696c643a20496e76616c696420766f74696e67506f77657220604482015265185b5bdd5b9d60d21b606482015260840162000e96565b60008581526014602090815260408083206001600160a01b038c168452909152902054158015620027b0575060008581526014602090815260408083206001600160a01b038c168452909152902060010154155b806200280d575060008581526014602090815260408083206001600160a01b038c168452909152902054841480156200280d575060008581526014602090815260408083206001600160a01b038c16845290915290206001015483115b6200288b5760405162461bcd60e51b815260206004820152604160248201527f45524332304775696c643a2043616e6e6f74206368616e6765206f7074696f6e60448201527f20766f7465642c206f6e6c7920696e63726561736520766f74696e67506f77656064820152603960f91b608482015260a40162000e96565b6000828152601360205260409020805460ff19166001179055620028b28886868662003a93565b505050505050505050565b6040516bffffffffffffffffffffffff19606086901b166020820152603481018490526054810183905260748101829052600090609401604051602081830303815290604052805190602001209050949350505050565b60006200292382858562003d64565b949350505050565b60608151835114620029b55760405162461bcd60e51b815260206004820152604660248201527f536e617073686f7445524332304775696c643a20536e617073686f744964732060448201527f616e64206163636f756e7473206d7573742068617665207468652073616d65206064820152650d8cadccee8d60d31b608482015260a40162000e96565b600083516001600160401b03811115620029d357620029d362004876565b604051908082528060200260200182016040528015620029fd578160200160208202803683370190505b50905060005b845181101562002a865762002a5185828151811062002a265762002a266200547f565b602002602001015185838151811062002a435762002a436200547f565b602002602001015162003429565b82828151811062002a665762002a666200547f565b60209081029190910101528062002a7d81620054ab565b91505062002a03565b5090505b92915050565b600062000e1461271062000e0d60055462000e06600e5490565b6016818154811062002abb57600080fd5b600091825260209091200154905081565b60175460ff161562002b365760405162461bcd60e51b815260206004820152602c60248201527f536e617073686f7445524332304775696c643a2050726f706f73616c20756e6460448201526b32b91032bc32b1baba34b7b760a11b606482015260840162000e96565b600160008281526015602052604090206008015460ff16600481111562002b615762002b6162004c80565b1462002bc65760405162461bcd60e51b815260206004820152602d60248201527f536e617073686f7445524332304775696c643a2050726f706f73616c20616c7260448201526c1958591e48195e1958dd5d1959609a1b606482015260840162000e96565b600081815260156020526040902060020154421162002c3e5760405162461bcd60e51b815260206004820152602d60248201527f536e617073686f7445524332304775696c643a2050726f706f73616c2068617360448201526c1b89dd08195b991959081e595d609a1b606482015260840162000e96565b6000805b60008381526015602052604090206009015481101562002d385760008381526018602052604090205462002c7690620033c4565b600084815260156020526040902060090180548390811062002c9c5762002c9c6200547f565b90600052602060002001541015801562002d195750600083815260156020526040902060090180548390811062002cd75762002cd76200547f565b906000526020600020015460156000858152602001908152602001600020600901828154811062002d0c5762002d0c6200547f565b9060005260206000200154115b1562002d23578091505b8062002d2f81620054ab565b91505062002c42565b8162002d88576000838152601560205260409020600801805460ff19166002908117909155839060008051602062005e7a833981519152905b60405190815260200160405180910390a2620033ac565b600454600084815260156020526040902060020154429162002dab919062003a85565b101562002dea576000838152601560205260409020600801805460ff19166004908117909155839060008051602062005e7a8339815191529062002d71565b600083815260156020526040812060088101805460ff191660031790556009015462002e369062002e1d90600162003d56565b6000868152601560205260409020600301549062003491565b905062002e5162002e4984600162003d56565b82906200347c565b9150600062002e61838362003a85565b9050600160009054906101000a90046001600160a01b03166001600160a01b0316633e7a47b26040518163ffffffff1660e01b8152600401600060405180830381600087803b15801562002eb457600080fd5b505af115801562002ec9573d6000803e3d6000fd5b505050505b808310156200330357600085815260156020526040812060030180548590811062002efd5762002efd6200547f565b6000918252602090912001546001600160a01b03161480159062002f5d5750600085815260156020526040812060040180548590811062002f425762002f426200547f565b90600052602060002001805462002f599062005229565b9050115b15620032ee57600085815260156020526040812060040180548590811062002f895762002f896200547f565b90600052602060002001805462002fa09062005229565b80601f016020809104026020016040519081016040528092919081815260200182805462002fce9062005229565b80156200301f5780601f1062002ff3576101008083540402835291602001916200301f565b820191906000526020600020905b8154815290600101906020018083116200300157829003601f168201915b50505060208084015160015460008c815260159093526040909220600301805495965090946001600160a01b03909216935063eed4703392503091899081106200306d576200306d6200547f565b9060005260206000200160009054906101000a90046001600160a01b031684601560008d81526020019081526020016000206005018a81548110620030b657620030b66200547f565b60009182526020909120015460405160e086901b6001600160e01b031990811682526001600160a01b039586166004830152939094166024850152911660448301526064820152608401600060405180830381600087803b1580156200311b57600080fd5b505af19250505080156200312d575060015b62003189576200313c620054c9565b806308c379a014156200317d575062003154620054e6565b806200316157506200317f565b8060405162461bcd60e51b815260040162000e969190620047c9565b505b3d6000803e3d6000fd5b6017805460ff191660011790556000878152601560205260408120600301805487908110620031bc57620031bc6200547f565b60009182526020808320909101548a83526015909152604090912060050180546001600160a01b039092169188908110620031fb57620031fb6200547f565b9060005260206000200154601560008b815260200190815260200160002060040188815481106200323057620032306200547f565b9060005260206000200160405162003249919062005575565b60006040518083038185875af1925050503d806000811462003288576040519150601f19603f3d011682016040523d82523d6000602084013e6200328d565b606091505b5050905080620032e05760405162461bcd60e51b815260206004820181905260248201527f45524332304775696c643a2050726f706f73616c2063616c6c206661696c6564604482015260640162000e96565b50506017805460ff19169055505b82620032fa81620054ab565b93505062002ece565b60015460405163fb0fde8560e01b81523060048201526001600160a01b039091169063fb0fde8590602401602060405180830381600087803b1580156200334957600080fd5b505af11580156200335e573d6000803e3d6000fd5b505050506040513d601f19601f8201168201806040525081019062003384919062005619565b508460008051602062005e7a833981519152600360405190815260200160405180910390a250505b600c54620033bc90600162003d56565b600c55505050565b600062002a8a61271062000e0d60055462000e0686620033fa565b6001600160a01b031660009081526012602052604090205490565b60008060006200340c84601a62003d7c565b9150915081156200341e579392505050565b5050600e5492915050565b6001600160a01b0382166000908152601960205260408120819081906200345290859062003d7c565b9150915081156200346757915062002a8a9050565b6200347285620033df565b9250505062002a8a565b60006200348a82846200563d565b9392505050565b60006200348a828462005675565b6000601054600e5410156200351d5760405162461bcd60e51b815260206004820152603960248201527f45524332304775696c643a204e6f7420656e6f75676820746f6b656e73206c6f60448201527f636b656420746f2063726561746520612070726f706f73616c00000000000000606482015260840162000e96565b600f54600b5410156200358f5760405162461bcd60e51b815260206004820152603360248201527f45524332304775696c643a204e6f7420656e6f756768206d656d6265727320746044820152721bc818dc99585d194818481c1c9bdc1bdcd85b606a1b606482015260840162000e96565b600954600c5410620036035760405162461bcd60e51b815260206004820152603660248201527f45524332304775696c643a204d6178696d756d20616d6f756e74206f662061636044820152751d1a5d99481c1c9bdc1bdcd85b1cc81c995858da195960521b606482015260840162000e96565b6200360d62000dec565b6200361833620033df565b1015620036865760405162461bcd60e51b815260206004820152603560248201527f45524332304775696c643a204e6f7420656e6f75676820766f74696e67506f77604482015274195c881d1bc818dc99585d19481c1c9bdc1bdcd85b605a1b606482015260840162000e96565b8551875114801562003699575084518751145b620037045760405162461bcd60e51b815260206004820152603460248201527f45524332304775696c643a2057726f6e67206c656e677468206f6620746f2c2060448201527364617461206f722076616c75652061727261797360601b606482015260840162000e96565b6000875111620037715760405162461bcd60e51b815260206004820152603160248201527f45524332304775696c643a20746f2c20646174612076616c7565206172726179604482015270732063616e6e6f7420626520656d70747960781b606482015260840162000e96565b865184111580156200378e575084516200378c908562003e89565b155b620038025760405162461bcd60e51b815260206004820152603760248201527f45524332304775696c643a20496e76616c696420746f74616c4f7074696f6e7360448201527f206f72206f7074696f6e2063616c6c73206c656e677468000000000000000000606482015260840162000e96565b600a8411156200387b5760405162461bcd60e51b815260206004820152603a60248201527f45524332304775696c643a204d6178696d756d20616d6f756e74206f66206f7060448201527f74696f6e73207065722070726f706f73616c2072656163686564000000000000606482015260840162000e96565b600a546040516bffffffffffffffffffffffff193360601b1660208201524260348201526054810191909152600090607401604051602081830303815290604052805190602001209050620038dd6001600a5462003a8590919063ffffffff16565b600a55600081815260156020526040902080546001600160a01b03191633178155426001820181905560035462003915919062003a85565b600282015588516200393190600383019060208c019062004591565b5087516200394990600483019060208b0190620045e9565b5086516200396190600583019060208a019062004649565b50845162003979906006830190602088019062004484565b50835162003991906007830190602087019062004484565b506200399f86600162003a85565b6001600160401b03811115620039b957620039b962004876565b604051908082528060200260200182016040528015620039e3578160200160208202803683370190505b508051620039fc91600984019160209091019062004649565b5060088101805460ff19166001908117909155600c5462003a1d9162003a85565b600c558160008051602062005e7a833981519152600160405190815260200160405180910390a250601680546001810182556000919091527fd833147d7dc355ba459fc788f669e58cfaf9dc25ddcd0702e87d69c7b512428901819055979650505050505050565b60006200348a82846200568c565b60008381526014602090815260408083206001600160a01b03881684528252808320600101548684526015909252909120600901805462003b0992849262003b02928790811062003ae85762003ae86200547f565b906000526020600020015462003d5690919063ffffffff16565b9062003a85565b600084815260156020526040902060090180548490811062003b2f5762003b2f6200547f565b60009182526020808320909101929092558481526014825260408082206001600160a01b038816835283528082208581556001018490558582526015909252206002015462003b96856001600160a01b031660009081526012602052604090206001015490565b101562003bcb576000838152601560209081526040808320600201546001600160a01b03881684526012909252909120600101555b604080516001600160a01b038616815260208101839052839185917f583c62f152711bcb1ca6186c1065821ff17a7cbe226dcb559a1c889dcf0d769b910160405180910390a36007541562003cee57600062003c4162003c376008543a62003e9790919063ffffffff16565b600754906200347c565b905080471015801562003c535750333b155b1562003cec57604051600090339083908381818185875af1925050503d806000811462003c9d576040519150601f19603f3d011682016040523d82523d6000602084013e62003ca2565b606091505b5050905080620014c85760405162461bcd60e51b81526020600482015260146024820152734661696c656420746f20726566756e642067617360601b604482015260640162000e96565b505b50505050565b600080600062003d05858562003eaf565b9150915062002a868162003f25565b6001600160a01b038116600090815260196020526040902062003d429062003d3c83620033df565b620040f8565b50565b62003d54601a600e54620040f8565b565b60006200348a8284620056a7565b60008262003d7385846200413c565b14949350505050565b6000806000841162003dd15760405162461bcd60e51b815260206004820152601b60248201527f536e617073686f7445524332304775696c643a20696420697320300000000000604482015260640162000e96565b601c5484111562003e305760405162461bcd60e51b815260206004820152602260248201527f536e617073686f7445524332304775696c643a206e6f6e6578697374656e74206044820152611a5960f21b606482015260840162000e96565b600062003e3e8486620041e9565b845490915081141562003e5957600080925092505062000fdd565b600184600101828154811062003e735762003e736200547f565b9060005260206000200154925092505062000fdd565b60006200348a8284620056c1565b600081831062003ea857816200348a565b5090919050565b60008082516041141562003eea5760208301516040840151606085015160001a62003edd87828585620042a9565b9450945050505062000fdd565b82516040141562003f18576020830151604084015162003f0c8683836200439e565b93509350505062000fdd565b5060009050600262000fdd565b600081600481111562003f3c5762003f3c62004c80565b141562003f465750565b600181600481111562003f5d5762003f5d62004c80565b141562003fad5760405162461bcd60e51b815260206004820152601860248201527f45434453413a20696e76616c6964207369676e61747572650000000000000000604482015260640162000e96565b600281600481111562003fc45762003fc462004c80565b1415620040145760405162461bcd60e51b815260206004820152601f60248201527f45434453413a20696e76616c6964207369676e6174757265206c656e67746800604482015260640162000e96565b60038160048111156200402b576200402b62004c80565b1415620040865760405162461bcd60e51b815260206004820152602260248201527f45434453413a20696e76616c6964207369676e6174757265202773272076616c604482015261756560f01b606482015260840162000e96565b60048160048111156200409d576200409d62004c80565b141562003d425760405162461bcd60e51b815260206004820152602260248201527f45434453413a20696e76616c6964207369676e6174757265202776272076616c604482015261756560f01b606482015260840162000e96565b601c54806200410784620043cf565b101562001155578254600180820185556000858152602080822090930193909355938401805494850181558252902090910155565b600081815b845181101562002a865760008582815181106200416257620041626200547f565b60200260200101519050808311620041a6576040805160208101859052908101829052606001604051602081830303815290604052805190602001209250620041d3565b60408051602081018390529081018490526060016040516020818303038152906040528051906020012092505b5080620041e081620054ab565b91505062004141565b815460009081905b80821015620042525760006200420883836200441d565b9050848682815481106200422057620042206200547f565b906000526020600020015411156200423b578091506200424b565b620042488160016200568c565b92505b50620041f1565b6000821180156200428d575083856200426d600185620056a7565b815481106200428057620042806200547f565b9060005260206000200154145b15620042a05762003472600183620056a7565b50905062002a8a565b6000807f7fffffffffffffffffffffffffffffff5d576e7357a4501ddfe92f46681b20a0831115620042e2575060009050600362004395565b8460ff16601b14158015620042fb57508460ff16601c14155b156200430e575060009050600462004395565b6040805160008082526020820180845289905260ff881692820192909252606081018690526080810185905260019060a0016020604051602081039080840390855afa15801562004363573d6000803e3d6000fd5b5050604051601f1901519150506001600160a01b0381166200438e5760006001925092505062004395565b9150600090505b94509492505050565b6000806001600160ff1b03831660ff84901c601b01620043c187828885620042a9565b935093505050935093915050565b8054600090620043e157506000919050565b81548290620043f390600190620056a7565b815481106200440657620044066200547f565b90600052602060002001549050919050565b919050565b600060026200442d8184620056c1565b6200443a600286620056c1565b6200444691906200568c565b62004452919062005675565b6200445f60028462005675565b6200446c60028662005675565b6200447891906200568c565b6200348a91906200568c565b828054620044929062005229565b90600052602060002090601f016020900481019282620044b6576000855562004501565b82601f10620044d157805160ff191683800117855562004501565b8280016001018555821562004501579182015b8281111562004501578251825591602001919060010190620044e4565b506200450f92915062004686565b5090565b6107a180620056d983390190565b60405180610140016040528060006001600160a01b03168152602001600081526020016000815260200160608152602001606081526020016060815260200160608152602001606081526020016000600481111562004584576200458462004c80565b8152602001606081525090565b82805482825590600052602060002090810192821562004501579160200282015b828111156200450157825182546001600160a01b0319166001600160a01b03909116178255602090920191600190910190620045b2565b8280548282559060005260206000209081019282156200463b579160200282015b828111156200463b57825180516200462a91849160209091019062004484565b50916020019190600101906200460a565b506200450f9291506200469d565b82805482825590600052602060002090810192821562004501579160200282018281111562004501578251825591602001919060010190620044e4565b5b808211156200450f576000815560010162004687565b808211156200450f576000620046b48282620046be565b506001016200469d565b508054620046cc9062005229565b6000825580601f10620046dd575050565b601f01602090049060005260206000209081019062003d42919062004686565b6020808252825182820181905260009190848201906040850190845b81811015620047375783518352928401929184019160010162004719565b50909695505050505050565b80356001600160a01b03811681146200441857600080fd5b6000602082840312156200476e57600080fd5b6200348a8262004743565b6000815180845260005b81811015620047a15760208185018101518683018201520162004783565b81811115620047b4576000602083870101525b50601f01601f19169290920160200192915050565b6020815260006200348a602083018462004779565b6000806000806000806000806000806101408b8d031215620047ff57600080fd5b505088359a60208a01359a5060408a013599606081013599506080810135985060a0810135975060c0810135965060e081013595506101008101359450610120013592509050565b600080604083850312156200485b57600080fd5b823591506200486d6020840162004743565b90509250929050565b634e487b7160e01b600052604160045260246000fd5b601f8201601f191681016001600160401b0381118282101715620048b457620048b462004876565b6040525050565b60006001600160401b03821115620048d757620048d762004876565b5060051b60200190565b600082601f830112620048f357600080fd5b813560206200490282620048bb565b6040516200491182826200488c565b83815260059390931b85018201928281019150868411156200493257600080fd5b8286015b8481101562004958576200494a8162004743565b835291830191830162004936565b509695505050505050565b600082601f8301126200497557600080fd5b81356001600160401b0381111562004991576200499162004876565b604051620049aa601f8301601f1916602001826200488c565b818152846020838601011115620049c057600080fd5b816020850160208301376000918101602001919091529392505050565b600082601f830112620049ef57600080fd5b81356020620049fe82620048bb565b60405162004a0d82826200488c565b83815260059390931b850182019282810191508684111562004a2e57600080fd5b8286015b84811015620049585780356001600160401b0381111562004a535760008081fd5b62004a638986838b010162004963565b84525091830191830162004a32565b600082601f83011262004a8457600080fd5b8135602062004a9382620048bb565b60405162004aa282826200488c565b83815260059390931b850182019282810191508684111562004ac357600080fd5b8286015b8481101562004958578035835291830191830162004ac7565b60008060008060008060c0878903121562004afa57600080fd5b86356001600160401b038082111562004b1257600080fd5b62004b208a838b01620048e1565b9750602089013591508082111562004b3757600080fd5b62004b458a838b01620049dd565b9650604089013591508082111562004b5c57600080fd5b62004b6a8a838b0162004a72565b955060608901359450608089013591508082111562004b8857600080fd5b62004b968a838b0162004963565b935060a089013591508082111562004bad57600080fd5b5062004bbc89828a0162004963565b9150509295509295509295565b60008060006060848603121562004bdf57600080fd5b505081359360208301359350604090920135919050565b60006020828403121562004c0957600080fd5b5035919050565b600080600080600060a0868803121562004c2957600080fd5b85359450602086013593506040860135925062004c496060870162004743565b915060808601356001600160401b0381111562004c6557600080fd5b62004c738882890162004963565b9150509295509295909350565b634e487b7160e01b600052602160045260246000fd5b6005811062004cb557634e487b7160e01b600052602160045260246000fd5b9052565b60018060a01b038716815285602082015284604082015260c06060820152600062004ce860c083018662004779565b828103608084015262004cfc818662004779565b91505062004d0e60a083018462004c96565b979650505050505050565b60008060008060008060008060008060006101608c8e03121562004d3c57600080fd5b62004d478c62004743565b9a5060208c0135995060408c0135985060608c0135975060808c0135965060a08c01356001600160401b0381111562004d7f57600080fd5b62004d8d8e828f0162004963565b96505060c08c0135945060e08c013593506101008c013592506101208c0135915062004dbd6101408d0162004743565b90509295989b509295989b9093969950565b600081518084526020808501945080840160005b8381101562004e0a5781516001600160a01b03168752958201959082019060010162004de3565b509495945050505050565b6000815180845260208085019450848260051b860182860160005b8581101562004e5e57838303895262004e4b83835162004779565b9885019892509084019060010162004e30565b5090979650505050505050565b600081518084526020808501945080840160005b8381101562004e0a5781518752958201959082019060010162004e7f565b6020815262004eb86020820183516001600160a01b03169052565b60208201516040820152604082015160608201526000606083015161014080608085015262004eec61016085018362004dcf565b91506080850151601f19808685030160a087015262004f0c848362004e15565b935060a08701519150808685030160c087015262004f2b848362004e6b565b935060c08701519150808685030160e087015262004f4a848362004779565b935060e0870151915061010081878603018188015262004f6b858462004779565b94508088015192505061012062004f858188018462004c96565b87015186850390910183870152905062004fa0838262004e6b565b9695505050505050565b60008060006060848603121562004fc057600080fd5b83356001600160401b038082111562004fd857600080fd5b62004fe68783880162004a72565b9450602086013591508082111562004ffd57600080fd5b6200500b8783880162004a72565b935060408601359150808211156200502257600080fd5b50620050318682870162004a72565b9150509250925092565b6020808252825182820181905260009190848201906040850190845b818110156200473757835115158352928401929184019160010162005057565b600080600080600080600060e0888a0312156200509357600080fd5b87359650620050a56020890162004743565b95506040880135945060608801356001600160401b03811115620050c857600080fd5b620050d68a828b0162004a72565b979a969950949760808101359660a0820135965060c090910135945092505050565b600080600080608085870312156200510f57600080fd5b6200511a8562004743565b966020860135965060408601359560600135945092505050565b6000806000606084860312156200514a57600080fd5b833592506020840135915060408401356001600160401b038111156200516f57600080fd5b620050318682870162004a72565b600080604083850312156200519157600080fd5b82356001600160401b0380821115620051a957600080fd5b620051b786838701620048e1565b93506020850135915080821115620051ce57600080fd5b50620051dd8582860162004a72565b9150509250929050565b6020815260006200348a602083018462004e6b565b600080604083850312156200521057600080fd5b6200521b8362004743565b946020939093013593505050565b600181811c908216806200523e57607f821691505b602082108114156200526057634e487b7160e01b600052602260045260246000fd5b50919050565b6020808252602f908201527f45524332304775696c643a2070726f706f73616c2074696d652068617320746f60408201526e0206265206d6f7265207468616e203608c1b606082015260800190565b6020808252603e908201527f45524332304775696c643a206c6f636b54696d652068617320746f206265206860408201527f6967686572206f7220657175616c20746f2070726f706f73616c54696d650000606082015260800190565b6020808252603c908201527f45524332304775696c643a20766f74696e6720706f77657220666f722065786560408201527f637574696f6e2068617320746f206265206d6f7265207468616e203000000000606082015260800190565b60208082526033908201527f536e617073686f7445524332304775696c643a2050726f706f73616c20656e6460408201527219590b0818d85b9b9bdd081899481d9bdd1959606a1b606082015260800190565b6020808252602e908201527f536e617073686f7445524332304775696c643a20496e76616c696420766f746960408201526d1b99d41bddd95c88185b5bdd5b9d60921b606082015260800190565b60208082526049908201527f536e617073686f7445524332304775696c643a2043616e6e6f74206368616e6760408201527f65206f7074696f6e20766f7465642c206f6e6c7920696e63726561736520766f6060820152683a34b733a837bbb2b960b91b608082015260a00190565b634e487b7160e01b600052603260045260246000fd5b634e487b7160e01b600052601160045260246000fd5b6000600019821415620054c257620054c262005495565b5060010190565b600060033d1115620054e35760046000803e5060005160e01c5b90565b600060443d1015620054f55790565b6040516003193d81016004833e81513d6001600160401b0381602484011181841117156200552557505050505090565b82850191508151818111156200553e5750505050505090565b843d8701016020828501011115620055595750505050505090565b6200556a602082860101876200488c565b509095945050505050565b600080835481600182811c9150808316806200559257607f831692505b6020808410821415620055b357634e487b7160e01b86526022600452602486fd5b818015620055ca5760018114620055dc576200560b565b60ff198616895284890196506200560b565b60008a81526020902060005b86811015620056035781548b820152908501908301620055e8565b505084890196505b509498975050505050505050565b6000602082840312156200562c57600080fd5b815180151581146200348a57600080fd5b60008160001904831182151516156200565a576200565a62005495565b500290565b634e487b7160e01b600052601260045260246000fd5b6000826200568757620056876200565f565b500490565b60008219821115620056a257620056a262005495565b500190565b600082821015620056bc57620056bc62005495565b500390565b600082620056d357620056d36200565f565b50069056fe608060405234801561001057600080fd5b506040516107a13803806107a183398101604081905261002f9161007c565b600080546001600160a01b039384166001600160a01b031991821617909155600180549290931691161790556100af565b80516001600160a01b038116811461007757600080fd5b919050565b6000806040838503121561008f57600080fd5b61009883610060565b91506100a660208401610060565b90509250929050565b6106e3806100be6000396000f3fe608060405234801561001057600080fd5b506004361061007d5760003560e01c80636e9960c31161005b5780636e9960c3146100ef578063f3fef3a314610100578063f851a44014610113578063fc0c546a1461012657600080fd5b806321df0da71461008257806327e235e3146100ac57806347e7ef24146100da575b600080fd5b6000546001600160a01b03165b6040516001600160a01b0390911681526020015b60405180910390f35b6100cc6100ba366004610586565b60026020526000908152604090205481565b6040519081526020016100a3565b6100ed6100e83660046105a1565b610139565b005b6001546001600160a01b031661008f565b6100ed61010e3660046105a1565b61020a565b60015461008f906001600160a01b031681565b60005461008f906001600160a01b031681565b6001546001600160a01b031633146101af5760405162461bcd60e51b815260206004820152602e60248201527f546f6b656e5661756c743a204465706f736974206d7573742062652073656e7460448201526d103a343937bab3b41030b236b4b760911b60648201526084015b60405180910390fd5b6000546101c7906001600160a01b031683308461025b565b6001600160a01b0382166000908152600260205260409020546101ea90826102cc565b6001600160a01b0390921660009081526002602052604090209190915550565b6001546001600160a01b0316331461022157600080fd5b600054610238906001600160a01b031683836102df565b6001600160a01b0382166000908152600260205260409020546101ea9082610314565b6040516001600160a01b03808516602483015283166044820152606481018290526102c69085906323b872dd60e01b906084015b60408051601f198184030181529190526020810180516001600160e01b03166001600160e01b031990931692909217909152610320565b50505050565b60006102d882846105e1565b9392505050565b6040516001600160a01b03831660248201526044810182905261030f90849063a9059cbb60e01b9060640161028f565b505050565b60006102d882846105f9565b6000610375826040518060400160405280602081526020017f5361666545524332303a206c6f772d6c6576656c2063616c6c206661696c6564815250856001600160a01b03166103f29092919063ffffffff16565b80519091501561030f57808060200190518101906103939190610610565b61030f5760405162461bcd60e51b815260206004820152602a60248201527f5361666545524332303a204552433230206f7065726174696f6e20646964206e6044820152691bdd081cdd58d8d9595960b21b60648201526084016101a6565b60606104018484600085610409565b949350505050565b60608247101561046a5760405162461bcd60e51b815260206004820152602660248201527f416464726573733a20696e73756666696369656e742062616c616e636520666f6044820152651c8818d85b1b60d21b60648201526084016101a6565b843b6104b85760405162461bcd60e51b815260206004820152601d60248201527f416464726573733a2063616c6c20746f206e6f6e2d636f6e747261637400000060448201526064016101a6565b600080866001600160a01b031685876040516104d4919061065e565b60006040518083038185875af1925050503d8060008114610511576040519150601f19603f3d011682016040523d82523d6000602084013e610516565b606091505b5091509150610526828286610531565b979650505050505050565b606083156105405750816102d8565b8251156105505782518084602001fd5b8160405162461bcd60e51b81526004016101a6919061067a565b80356001600160a01b038116811461058157600080fd5b919050565b60006020828403121561059857600080fd5b6102d88261056a565b600080604083850312156105b457600080fd5b6105bd8361056a565b946020939093013593505050565b634e487b7160e01b600052601160045260246000fd5b600082198211156105f4576105f46105cb565b500190565b60008282101561060b5761060b6105cb565b500390565b60006020828403121561062257600080fd5b815180151581146102d857600080fd5b60005b8381101561064d578181015183820152602001610635565b838111156102c65750506000910152565b60008251610670818460208701610632565b9190910192915050565b6020815260008251806020840152610699816040850160208701610632565b601f01601f1916919091016040019291505056fea2646970667358221220f83df9be484204d29c000a118187aee7d3ca7efcb094476e4ad893327bb967b564736f6c63430008080033fee62a9eec0be50eb061c711990ef0f1e17b40ea131d9347b0468acdaf8bf243a26469706673582212204ec8a6cf018ccee0bb2d4edc555428a74ee018d332e6362b99541daba6e5c1cf64736f6c63430008080033",
  "linkReferences": {},
  "deployedLinkReferences": {}
}