{
  "_format": "hh-sol-artifact-1",
  "contractName": "SnapshotERC20Guild",
  "sourceName": "dxdao-contracts/contracts/erc20guild/implementations/SnapshotERC20Guild.sol",
  "abi": [
    {
      "anonymous": false,
      "inputs": [
        {
          "indexed": true,
          "internalType": "bytes32",
          "name": "proposalId",
          "type": "bytes32"
        },
        {
          "indexed": false,
          "internalType": "uint256",
          "name": "newState",
          "type": "uint256"
        }
      ],
      "name": "ProposalStateChanged",
      "type": "event"
    },
    {
      "anonymous": false,
      "inputs": [
        {
          "indexed": false,
          "internalType": "address",
          "name": "voter",
          "type": "address"
        },
        {
          "indexed": false,
          "internalType": "uint256",
          "name": "value",
          "type": "uint256"
        }
      ],
      "name": "TokensLocked",
      "type": "event"
    },
    {
      "anonymous": false,
      "inputs": [
        {
          "indexed": false,
          "internalType": "address",
          "name": "voter",
          "type": "address"
        },
        {
          "indexed": false,
          "internalType": "uint256",
          "name": "value",
          "type": "uint256"
        }
      ],
      "name": "TokensWithdrawn",
      "type": "event"
    },
    {
      "anonymous": false,
      "inputs": [
        {
          "indexed": true,
          "internalType": "bytes32",
          "name": "proposalId",
          "type": "bytes32"
        },
        {
          "indexed": true,
          "internalType": "uint256",
          "name": "option",
          "type": "uint256"
        },
        {
          "indexed": false,
          "internalType": "address",
          "name": "voter",
          "type": "address"
        },
        {
          "indexed": false,
          "internalType": "uint256",
          "name": "votingPower",
          "type": "uint256"
        }
      ],
      "name": "VoteAdded",
      "type": "event"
    },
    {
      "stateMutability": "payable",
      "type": "fallback"
    },
    {
      "inputs": [],
      "name": "MAX_OPTIONS_PER_PROPOSAL",
      "outputs": [
        {
          "internalType": "uint8",
          "name": "",
          "type": "uint8"
        }
      ],
      "stateMutability": "view",
      "type": "function"
    },
    {
      "inputs": [],
      "name": "activeProposalsNow",
      "outputs": [
        {
          "internalType": "uint256",
          "name": "",
          "type": "uint256"
        }
      ],
      "stateMutability": "view",
      "type": "function"
    },
    {
      "inputs": [
        {
          "internalType": "address[]",
          "name": "to",
          "type": "address[]"
        },
        {
          "internalType": "bytes[]",
          "name": "data",
          "type": "bytes[]"
        },
        {
          "internalType": "uint256[]",
          "name": "value",
          "type": "uint256[]"
        },
        {
          "internalType": "uint256",
          "name": "totalOptions",
          "type": "uint256"
        },
        {
          "internalType": "string",
          "name": "title",
          "type": "string"
        },
        {
          "internalType": "string",
          "name": "contentHash",
          "type": "string"
        }
      ],
      "name": "createProposal",
      "outputs": [
        {
          "internalType": "bytes32",
          "name": "",
          "type": "bytes32"
        }
      ],
      "stateMutability": "nonpayable",
      "type": "function"
    },
    {
      "inputs": [
        {
          "internalType": "bytes32",
          "name": "proposalId",
          "type": "bytes32"
        }
      ],
      "name": "endProposal",
      "outputs": [],
      "stateMutability": "nonpayable",
      "type": "function"
    },
    {
      "inputs": [
        {
          "internalType": "bytes32",
          "name": "root",
          "type": "bytes32"
        },
        {
          "internalType": "address",
          "name": "voter",
          "type": "address"
        },
        {
          "internalType": "bytes32",
          "name": "voteHash",
          "type": "bytes32"
        },
        {
          "internalType": "bytes32[]",
          "name": "proof",
          "type": "bytes32[]"
        },
        {
          "internalType": "bytes32",
          "name": "proposalId",
          "type": "bytes32"
        },
        {
          "internalType": "uint256",
          "name": "option",
          "type": "uint256"
        },
        {
          "internalType": "uint256",
          "name": "votingPower",
          "type": "uint256"
        },
        {
          "internalType": "bytes",
          "name": "signature",
          "type": "bytes"
        }
      ],
      "name": "executeSignedVote",
      "outputs": [],
      "stateMutability": "nonpayable",
      "type": "function"
    },
    {
      "inputs": [
        {
          "internalType": "bytes32[]",
          "name": "roots",
          "type": "bytes32[]"
        },
        {
          "internalType": "address[]",
          "name": "voters",
          "type": "address[]"
        },
        {
          "internalType": "bytes32[]",
          "name": "votesHashes",
          "type": "bytes32[]"
        },
        {
          "internalType": "bytes32[][]",
          "name": "proofs",
          "type": "bytes32[][]"
        },
        {
          "internalType": "bytes32[]",
          "name": "proposalIds",
          "type": "bytes32[]"
        },
        {
          "internalType": "uint256[]",
          "name": "options",
          "type": "uint256[]"
        },
        {
          "internalType": "uint256[]",
          "name": "votingPowers",
          "type": "uint256[]"
        },
        {
          "internalType": "bytes[]",
          "name": "signatures",
          "type": "bytes[]"
        }
      ],
      "name": "executeSignedVotesBatches",
      "outputs": [],
      "stateMutability": "nonpayable",
      "type": "function"
    },
    {
      "inputs": [
        {
          "internalType": "bytes32[]",
          "name": "proposalIds",
          "type": "bytes32[]"
        },
        {
          "internalType": "uint256[]",
          "name": "options",
          "type": "uint256[]"
        },
        {
          "internalType": "uint256[]",
          "name": "votingPowers",
          "type": "uint256[]"
        }
      ],
      "name": "executeVotes",
      "outputs": [
        {
          "internalType": "bool[]",
          "name": "",
          "type": "bool[]"
        }
      ],
      "stateMutability": "nonpayable",
      "type": "function"
    },
    {
      "inputs": [],
      "name": "getActiveProposalsNow",
      "outputs": [
        {
          "internalType": "uint256",
          "name": "",
          "type": "uint256"
        }
      ],
      "stateMutability": "view",
      "type": "function"
    },
    {
      "inputs": [],
      "name": "getCurrentSnapshotId",
      "outputs": [
        {
          "internalType": "uint256",
          "name": "",
          "type": "uint256"
        }
      ],
      "stateMutability": "view",
      "type": "function"
    },
    {
      "inputs": [],
      "name": "getLockTime",
      "outputs": [
        {
          "internalType": "uint256",
          "name": "",
          "type": "uint256"
        }
      ],
      "stateMutability": "view",
      "type": "function"
    },
    {
      "inputs": [],
      "name": "getMaxActiveProposals",
      "outputs": [
        {
          "internalType": "uint256",
          "name": "",
          "type": "uint256"
        }
      ],
      "stateMutability": "view",
      "type": "function"
    },
    {
      "inputs": [],
      "name": "getMaxGasPrice",
      "outputs": [
        {
          "internalType": "uint256",
          "name": "",
          "type": "uint256"
        }
      ],
      "stateMutability": "view",
      "type": "function"
    },
    {
      "inputs": [],
      "name": "getMinimumMembersForProposalCreation",
      "outputs": [
        {
          "internalType": "uint256",
          "name": "",
          "type": "uint256"
        }
      ],
      "stateMutability": "view",
      "type": "function"
    },
    {
      "inputs": [],
      "name": "getMinimumTokensLockedForProposalCreation",
      "outputs": [
        {
          "internalType": "uint256",
          "name": "",
          "type": "uint256"
        }
      ],
      "stateMutability": "view",
      "type": "function"
    },
    {
      "inputs": [],
      "name": "getName",
      "outputs": [
        {
          "internalType": "string",
          "name": "",
          "type": "string"
        }
      ],
      "stateMutability": "view",
      "type": "function"
    },
    {
      "inputs": [],
      "name": "getPermissionRegistry",
      "outputs": [
        {
          "internalType": "address",
          "name": "",
          "type": "address"
        }
      ],
      "stateMutability": "view",
      "type": "function"
    },
    {
      "inputs": [
        {
          "internalType": "bytes32",
          "name": "proposalId",
          "type": "bytes32"
        }
      ],
      "name": "getProposal",
      "outputs": [
        {
          "components": [
            {
              "internalType": "address",
              "name": "creator",
              "type": "address"
            },
            {
              "internalType": "uint256",
              "name": "startTime",
              "type": "uint256"
            },
            {
              "internalType": "uint256",
              "name": "endTime",
              "type": "uint256"
            },
            {
              "internalType": "address[]",
              "name": "to",
              "type": "address[]"
            },
            {
              "internalType": "bytes[]",
              "name": "data",
              "type": "bytes[]"
            },
            {
              "internalType": "uint256[]",
              "name": "value",
              "type": "uint256[]"
            },
            {
              "internalType": "string",
              "name": "title",
              "type": "string"
            },
            {
              "internalType": "string",
              "name": "contentHash",
              "type": "string"
            },
            {
              "internalType": "enum BaseERC20Guild.ProposalState",
              "name": "state",
              "type": "uint8"
            },
            {
              "internalType": "uint256[]",
              "name": "totalVotes",
              "type": "uint256[]"
            }
          ],
          "internalType": "struct BaseERC20Guild.Proposal",
          "name": "",
          "type": "tuple"
        }
      ],
      "stateMutability": "view",
      "type": "function"
    },
    {
      "inputs": [
        {
          "internalType": "bytes32",
          "name": "proposalId",
          "type": "bytes32"
        }
      ],
      "name": "getProposalSnapshotId",
      "outputs": [
        {
          "internalType": "uint256",
          "name": "",
          "type": "uint256"
        }
      ],
      "stateMutability": "view",
      "type": "function"
    },
    {
      "inputs": [],
      "name": "getProposalTime",
      "outputs": [
        {
          "internalType": "uint256",
          "name": "",
          "type": "uint256"
        }
      ],
      "stateMutability": "view",
      "type": "function"
    },
    {
      "inputs": [
        {
          "internalType": "bytes32",
          "name": "proposalId",
          "type": "bytes32"
        },
        {
          "internalType": "address",
          "name": "voter",
          "type": "address"
        }
      ],
      "name": "getProposalVotesOfVoter",
      "outputs": [
        {
          "internalType": "uint256",
          "name": "option",
          "type": "uint256"
        },
        {
          "internalType": "uint256",
          "name": "votingPower",
          "type": "uint256"
        }
      ],
      "stateMutability": "view",
      "type": "function"
    },
    {
      "inputs": [],
      "name": "getProposalsIds",
      "outputs": [
        {
          "internalType": "bytes32[]",
          "name": "",
          "type": "bytes32[]"
        }
      ],
      "stateMutability": "view",
      "type": "function"
    },
    {
      "inputs": [],
      "name": "getProposalsIdsLength",
      "outputs": [
        {
          "internalType": "uint256",
          "name": "",
          "type": "uint256"
        }
      ],
      "stateMutability": "view",
      "type": "function"
    },
    {
      "inputs": [
        {
          "internalType": "bytes32",
          "name": "signedVoteHash",
          "type": "bytes32"
        }
      ],
      "name": "getSignedVote",
      "outputs": [
        {
          "internalType": "bool",
          "name": "",
          "type": "bool"
        }
      ],
      "stateMutability": "view",
      "type": "function"
    },
    {
      "inputs": [],
      "name": "getTimeForExecution",
      "outputs": [
        {
          "internalType": "uint256",
          "name": "",
          "type": "uint256"
        }
      ],
      "stateMutability": "view",
      "type": "function"
    },
    {
      "inputs": [],
      "name": "getToken",
      "outputs": [
        {
          "internalType": "address",
          "name": "",
          "type": "address"
        }
      ],
      "stateMutability": "view",
      "type": "function"
    },
    {
      "inputs": [],
      "name": "getTokenVault",
      "outputs": [
        {
          "internalType": "address",
          "name": "",
          "type": "address"
        }
      ],
      "stateMutability": "view",
      "type": "function"
    },
    {
      "inputs": [],
      "name": "getTotalLocked",
      "outputs": [
        {
          "internalType": "uint256",
          "name": "",
          "type": "uint256"
        }
      ],
      "stateMutability": "view",
      "type": "function"
    },
    {
      "inputs": [],
      "name": "getTotalMembers",
      "outputs": [
        {
          "internalType": "uint256",
          "name": "",
          "type": "uint256"
        }
      ],
      "stateMutability": "view",
      "type": "function"
    },
    {
      "inputs": [],
      "name": "getTotalProposals",
      "outputs": [
        {
          "internalType": "uint256",
          "name": "",
          "type": "uint256"
        }
      ],
      "stateMutability": "view",
      "type": "function"
    },
    {
      "inputs": [],
      "name": "getVoteGas",
      "outputs": [
        {
          "internalType": "uint256",
          "name": "",
          "type": "uint256"
        }
      ],
      "stateMutability": "view",
      "type": "function"
    },
    {
      "inputs": [
        {
          "internalType": "address",
          "name": "voter",
          "type": "address"
        }
      ],
      "name": "getVoterLockTimestamp",
      "outputs": [
        {
          "internalType": "uint256",
          "name": "",
          "type": "uint256"
        }
      ],
      "stateMutability": "view",
      "type": "function"
    },
    {
      "inputs": [],
      "name": "getVotingPowerForProposalCreation",
      "outputs": [
        {
          "internalType": "uint256",
          "name": "",
          "type": "uint256"
        }
      ],
      "stateMutability": "view",
      "type": "function"
    },
    {
      "inputs": [],
      "name": "getVotingPowerForProposalExecution",
      "outputs": [
        {
          "internalType": "uint256",
          "name": "",
          "type": "uint256"
        }
      ],
      "stateMutability": "view",
      "type": "function"
    },
    {
      "inputs": [
        {
          "internalType": "uint256",
          "name": "snapshotId",
          "type": "uint256"
        }
      ],
      "name": "getVotingPowerForProposalExecution",
      "outputs": [
        {
          "internalType": "uint256",
          "name": "",
          "type": "uint256"
        }
      ],
      "stateMutability": "view",
      "type": "function"
    },
    {
      "inputs": [
        {
          "internalType": "address",
          "name": "voter",
          "type": "address"
        },
        {
          "internalType": "bytes32",
          "name": "proposalId",
          "type": "bytes32"
        },
        {
          "internalType": "uint256",
          "name": "option",
          "type": "uint256"
        },
        {
          "internalType": "uint256",
          "name": "votingPower",
          "type": "uint256"
        }
      ],
      "name": "hashVote",
      "outputs": [
        {
          "internalType": "bytes32",
          "name": "",
          "type": "bytes32"
        }
      ],
      "stateMutability": "pure",
      "type": "function"
    },
    {
      "inputs": [
        {
          "internalType": "address",
          "name": "_token",
          "type": "address"
        },
        {
          "internalType": "uint256",
          "name": "_proposalTime",
          "type": "uint256"
        },
        {
          "internalType": "uint256",
          "name": "_timeForExecution",
          "type": "uint256"
        },
        {
          "internalType": "uint256",
          "name": "_votingPowerPercentageForProposalExecution",
          "type": "uint256"
        },
        {
          "internalType": "uint256",
          "name": "_votingPowerPercentageForProposalCreation",
          "type": "uint256"
        },
        {
          "internalType": "string",
          "name": "_name",
          "type": "string"
        },
        {
          "internalType": "uint256",
          "name": "_voteGas",
          "type": "uint256"
        },
        {
          "internalType": "uint256",
          "name": "_maxGasPrice",
          "type": "uint256"
        },
        {
          "internalType": "uint256",
          "name": "_maxActiveProposals",
          "type": "uint256"
        },
        {
          "internalType": "uint256",
          "name": "_lockTime",
          "type": "uint256"
        },
        {
          "internalType": "address",
          "name": "_permissionRegistry",
          "type": "address"
        }
      ],
      "name": "initialize",
      "outputs": [],
      "stateMutability": "nonpayable",
      "type": "function"
    },
    {
      "inputs": [],
      "name": "lockTime",
      "outputs": [
        {
          "internalType": "uint256",
          "name": "",
          "type": "uint256"
        }
      ],
      "stateMutability": "view",
      "type": "function"
    },
    {
      "inputs": [
        {
          "internalType": "uint256",
          "name": "tokenAmount",
          "type": "uint256"
        }
      ],
      "name": "lockTokens",
      "outputs": [],
      "stateMutability": "nonpayable",
      "type": "function"
    },
    {
      "inputs": [],
      "name": "maxActiveProposals",
      "outputs": [
        {
          "internalType": "uint256",
          "name": "",
          "type": "uint256"
        }
      ],
      "stateMutability": "view",
      "type": "function"
    },
    {
      "inputs": [],
      "name": "maxGasPrice",
      "outputs": [
        {
          "internalType": "uint256",
          "name": "",
          "type": "uint256"
        }
      ],
      "stateMutability": "view",
      "type": "function"
    },
    {
      "inputs": [],
      "name": "minimumMembersForProposalCreation",
      "outputs": [
        {
          "internalType": "uint256",
          "name": "",
          "type": "uint256"
        }
      ],
      "stateMutability": "view",
      "type": "function"
    },
    {
      "inputs": [],
      "name": "minimumTokensLockedForProposalCreation",
      "outputs": [
        {
          "internalType": "uint256",
          "name": "",
          "type": "uint256"
        }
      ],
      "stateMutability": "view",
      "type": "function"
    },
    {
      "inputs": [],
      "name": "name",
      "outputs": [
        {
          "internalType": "string",
          "name": "",
          "type": "string"
        }
      ],
      "stateMutability": "view",
      "type": "function"
    },
    {
      "inputs": [],
      "name": "proposalTime",
      "outputs": [
        {
          "internalType": "uint256",
          "name": "",
          "type": "uint256"
        }
      ],
      "stateMutability": "view",
      "type": "function"
    },
    {
      "inputs": [
        {
          "internalType": "bytes32",
          "name": "",
          "type": "bytes32"
        },
        {
          "internalType": "address",
          "name": "",
          "type": "address"
        }
      ],
      "name": "proposalVotes",
      "outputs": [
        {
          "internalType": "uint256",
          "name": "option",
          "type": "uint256"
        },
        {
          "internalType": "uint256",
          "name": "votingPower",
          "type": "uint256"
        }
      ],
      "stateMutability": "view",
      "type": "function"
    },
    {
      "inputs": [
        {
          "internalType": "bytes32",
          "name": "",
          "type": "bytes32"
        }
      ],
      "name": "proposals",
      "outputs": [
        {
          "internalType": "address",
          "name": "creator",
          "type": "address"
        },
        {
          "internalType": "uint256",
          "name": "startTime",
          "type": "uint256"
        },
        {
          "internalType": "uint256",
          "name": "endTime",
          "type": "uint256"
        },
        {
          "internalType": "string",
          "name": "title",
          "type": "string"
        },
        {
          "internalType": "string",
          "name": "contentHash",
          "type": "string"
        },
        {
          "internalType": "enum BaseERC20Guild.ProposalState",
          "name": "state",
          "type": "uint8"
        }
      ],
      "stateMutability": "view",
      "type": "function"
    },
    {
      "inputs": [
        {
          "internalType": "uint256",
          "name": "",
          "type": "uint256"
        }
      ],
      "name": "proposalsIds",
      "outputs": [
        {
          "internalType": "bytes32",
          "name": "",
          "type": "bytes32"
        }
      ],
      "stateMutability": "view",
      "type": "function"
    },
    {
      "inputs": [
        {
          "internalType": "bytes32",
          "name": "",
          "type": "bytes32"
        }
      ],
      "name": "proposalsSnapshots",
      "outputs": [
        {
          "internalType": "uint256",
          "name": "",
          "type": "uint256"
        }
      ],
      "stateMutability": "view",
      "type": "function"
    },
    {
      "inputs": [
        {
          "internalType": "uint256",
          "name": "_proposalTime",
          "type": "uint256"
        },
        {
          "internalType": "uint256",
          "name": "_timeForExecution",
          "type": "uint256"
        },
        {
          "internalType": "uint256",
          "name": "_votingPowerPercentageForProposalExecution",
          "type": "uint256"
        },
        {
          "internalType": "uint256",
          "name": "_votingPowerPercentageForProposalCreation",
          "type": "uint256"
        },
        {
          "internalType": "uint256",
          "name": "_voteGas",
          "type": "uint256"
        },
        {
          "internalType": "uint256",
          "name": "_maxGasPrice",
          "type": "uint256"
        },
        {
          "internalType": "uint256",
          "name": "_maxActiveProposals",
          "type": "uint256"
        },
        {
          "internalType": "uint256",
          "name": "_lockTime",
          "type": "uint256"
        },
        {
          "internalType": "uint256",
          "name": "_minimumMembersForProposalCreation",
          "type": "uint256"
        },
        {
          "internalType": "uint256",
          "name": "_minimumTokensLockedForProposalCreation",
          "type": "uint256"
        }
      ],
      "name": "setConfig",
      "outputs": [],
      "stateMutability": "nonpayable",
      "type": "function"
    },
    {
      "inputs": [
        {
          "internalType": "bytes32",
          "name": "proposalId",
          "type": "bytes32"
        },
        {
          "internalType": "uint256",
          "name": "option",
          "type": "uint256"
        },
        {
          "internalType": "uint256",
          "name": "votingPower",
          "type": "uint256"
        },
        {
          "internalType": "address",
          "name": "voter",
          "type": "address"
        },
        {
          "internalType": "bytes",
          "name": "signature",
          "type": "bytes"
        }
      ],
      "name": "setSignedVote",
      "outputs": [],
      "stateMutability": "nonpayable",
      "type": "function"
    },
    {
      "inputs": [
        {
          "internalType": "bytes32",
          "name": "proposalId",
          "type": "bytes32"
        },
        {
          "internalType": "uint256",
          "name": "option",
          "type": "uint256"
        },
        {
          "internalType": "uint256",
          "name": "votingPower",
          "type": "uint256"
        }
      ],
      "name": "setVote",
      "outputs": [],
      "stateMutability": "nonpayable",
      "type": "function"
    },
    {
      "inputs": [
        {
          "internalType": "bytes32",
          "name": "",
          "type": "bytes32"
        }
      ],
      "name": "signedVotes",
      "outputs": [
        {
          "internalType": "bool",
          "name": "",
          "type": "bool"
        }
      ],
      "stateMutability": "view",
      "type": "function"
    },
    {
      "inputs": [],
      "name": "timeForExecution",
      "outputs": [
        {
          "internalType": "uint256",
          "name": "",
          "type": "uint256"
        }
      ],
      "stateMutability": "view",
      "type": "function"
    },
    {
      "inputs": [],
      "name": "token",
      "outputs": [
        {
          "internalType": "contract IERC20Upgradeable",
          "name": "",
          "type": "address"
        }
      ],
      "stateMutability": "view",
      "type": "function"
    },
    {
      "inputs": [],
      "name": "tokenVault",
      "outputs": [
        {
          "internalType": "contract TokenVault",
          "name": "",
          "type": "address"
        }
      ],
      "stateMutability": "view",
      "type": "function"
    },
    {
      "inputs": [
        {
          "internalType": "address",
          "name": "",
          "type": "address"
        }
      ],
      "name": "tokensLocked",
      "outputs": [
        {
          "internalType": "uint256",
          "name": "amount",
          "type": "uint256"
        },
        {
          "internalType": "uint256",
          "name": "timestamp",
          "type": "uint256"
        }
      ],
      "stateMutability": "view",
      "type": "function"
    },
    {
      "inputs": [],
      "name": "totalLocked",
      "outputs": [
        {
          "internalType": "uint256",
          "name": "",
          "type": "uint256"
        }
      ],
      "stateMutability": "view",
      "type": "function"
    },
    {
      "inputs": [
        {
          "internalType": "uint256",
          "name": "snapshotId",
          "type": "uint256"
        }
      ],
      "name": "totalLockedAt",
      "outputs": [
        {
          "internalType": "uint256",
          "name": "",
          "type": "uint256"
        }
      ],
      "stateMutability": "view",
      "type": "function"
    },
    {
      "inputs": [],
      "name": "totalProposals",
      "outputs": [
        {
          "internalType": "uint256",
          "name": "",
          "type": "uint256"
        }
      ],
      "stateMutability": "view",
      "type": "function"
    },
    {
      "inputs": [
        {
          "internalType": "bytes32",
          "name": "root",
          "type": "bytes32"
        },
        {
          "internalType": "bytes32",
          "name": "voteHash",
          "type": "bytes32"
        },
        {
          "internalType": "bytes32[]",
          "name": "proof",
          "type": "bytes32[]"
        }
      ],
      "name": "validateMerkleTreeLeaf",
      "outputs": [
        {
          "internalType": "bool",
          "name": "",
          "type": "bool"
        }
      ],
      "stateMutability": "nonpayable",
      "type": "function"
    },
    {
      "inputs": [],
      "name": "voteGas",
      "outputs": [
        {
          "internalType": "uint256",
          "name": "",
          "type": "uint256"
        }
      ],
      "stateMutability": "view",
      "type": "function"
    },
    {
      "inputs": [
        {
          "internalType": "address",
          "name": "account",
          "type": "address"
        }
      ],
      "name": "votingPowerOf",
      "outputs": [
        {
          "internalType": "uint256",
          "name": "",
          "type": "uint256"
        }
      ],
      "stateMutability": "view",
      "type": "function"
    },
    {
      "inputs": [
        {
          "internalType": "address",
          "name": "account",
          "type": "address"
        },
        {
          "internalType": "uint256",
          "name": "snapshotId",
          "type": "uint256"
        }
      ],
      "name": "votingPowerOfAt",
      "outputs": [
        {
          "internalType": "uint256",
          "name": "",
          "type": "uint256"
        }
      ],
      "stateMutability": "view",
      "type": "function"
    },
    {
      "inputs": [
        {
          "internalType": "address[]",
          "name": "accounts",
          "type": "address[]"
        },
        {
          "internalType": "uint256[]",
          "name": "snapshotIds",
          "type": "uint256[]"
        }
      ],
      "name": "votingPowerOfMultipleAt",
      "outputs": [
        {
          "internalType": "uint256[]",
          "name": "",
          "type": "uint256[]"
        }
      ],
      "stateMutability": "view",
      "type": "function"
    },
    {
      "inputs": [],
      "name": "votingPowerPercentageForProposalCreation",
      "outputs": [
        {
          "internalType": "uint256",
          "name": "",
          "type": "uint256"
        }
      ],
      "stateMutability": "view",
      "type": "function"
    },
    {
      "inputs": [],
      "name": "votingPowerPercentageForProposalExecution",
      "outputs": [
        {
          "internalType": "uint256",
          "name": "",
          "type": "uint256"
        }
      ],
      "stateMutability": "view",
      "type": "function"
    },
    {
      "inputs": [
        {
          "internalType": "uint256",
          "name": "tokenAmount",
          "type": "uint256"
        }
      ],
      "name": "withdrawTokens",
      "outputs": [],
      "stateMutability": "nonpayable",
      "type": "function"
    }
  ],
  "bytecode": "0x60806040526001601c5534801561001557600080fd5b506162d380620000266000396000f3fe608060405260043610620004095760003560e01c8063671abed7116200021b578063afd22c401162000123578063e045035311620000b3578063f4732da61162000081578063f4732da61462000c9f578063f98606a71462000cb6578063f9a92d821462000cce578063fc0c546a1462000cf3578063fc4e703f1462000d1557005b8063e04503531462000c07578063e158080a1462000c1f578063ed996f5e1462000c37578063f09951981462000c5c57005b8063bba363a011620000f1578063bba363a01462000b8f578063bcc3f3bd1462000bb4578063c0a4d64d1462000bd9578063c93e01e31462000bf057005b8063afd22c401462000b09578063b3929aaa1462000b2e578063b3b470611462000b53578063b7c15f8d1462000b7857005b80638f18030511620001ab578063a7aeb5571162000179578063a7aeb5571462000a69578063ab6ea06b1462000a81578063ad6c1e341462000aa6578063adf2c7b61462000abd578063ae6192341462000af157005b80638f18030514620009f557806392b716541462000a0c578063a16fe3421462000a31578063a78d80fc1462000a5157005b806377027ff411620001e957806377027ff4146200096e5780638029eff1146200098557806389c98c0614620009b95780638ddaae9e14620009d057005b8063671abed714620008cd5780636c8b72f614620009015780636e27d889146200091857806371893546146200093d57005b806325c069fc116200031f5780633de39c1111620002af57806354f2f7af116200027d57806354f2f7af14620008445780635689141214620008645780635bc789d9146200087c5780635e508c2c146200089e57806364fe6ed214620008b657005b80633de39c1114620007c95780633f10cf1514620007e1578063430694cf14620007f95780635439ad86146200082d57005b8063315a095d11620002ed578063315a095d146200072e57806332ed5b12146200075357806336f8f8d9146200078c5780633bf353fb14620007b157005b806325c069fc146200065d5780632d5b17de14620006875780632d757c3e14620006ac5780632fd99c0014620006e957005b806316bbecde116200039b57806321df0da7116200036957806321df0da714620005ca5780632229a0e214620005fe57806322bafdff14620006155780632467ef94146200064657005b806316bbecde146200055e57806317d7de7c1462000583578063184a0ae9146200059b5780631a5007dd14620005b357005b80630d66808711620003d95780630d66808714620004d7578063123f6d6714620004ef578063130485fe146200051457806313108d74146200053957005b80623a40d0146200040b57806301a598a6146200043b57806306fdde0314620004895780630a366a6314620004b0575b005b3480156200041857600080fd5b506200042362000d2d565b604051620004329190620048f5565b60405180910390f35b3480156200044857600080fd5b50620004736200045a36600462004953565b6012602052600090815260409020805460019091015482565b6040805192835260208301919091520162000432565b3480156200049657600080fd5b50620004a162000d87565b604051620004329190620049c1565b348015620004bd57600080fd5b50620004c862000e1d565b60405190815260200162000432565b348015620004e457600080fd5b50620004c8600d5481565b348015620004fc57600080fd5b50620004096200050e366004620049d6565b62000e4a565b3480156200052157600080fd5b50620004736200053336600462004a3f565b62000fe3565b3480156200054657600080fd5b50620004c86200055836600462004cd8565b62001015565b3480156200056b57600080fd5b50620004096200057d36600462004dc1565b6200105a565b3480156200059057600080fd5b50620004a16200118b565b348015620005a857600080fd5b50620004c860035481565b348015620005c057600080fd5b50600a54620004c8565b348015620005d757600080fd5b506000546001600160a01b03165b6040516001600160a01b03909116815260200162000432565b3480156200060b57600080fd5b50601654620004c8565b3480156200062257600080fd5b50620004c86200063436600462004dee565b60009081526018602052604090205490565b3480156200065357600080fd5b50600c54620004c8565b3480156200066a57600080fd5b5062000674600a81565b60405160ff909116815260200162000432565b3480156200069457600080fd5b5062000409620006a636600462004e08565b6200121c565b348015620006b957600080fd5b50620004c8620006cb36600462004953565b6001600160a01b031660009081526012602052604090206001015490565b348015620006f657600080fd5b506200071d6200070836600462004dee565b60136020526000908152604090205460ff1681565b604051901515815260200162000432565b3480156200073b57600080fd5b50620004096200074d36600462004dee565b620014b4565b3480156200076057600080fd5b50620007786200077236600462004dee565b62001754565b604051620004329695949392919062004eb1565b3480156200079957600080fd5b5062000409620007ab36600462004f11565b620018b8565b348015620007be57600080fd5b50620004c8600c5481565b348015620007d657600080fd5b50620004c860085481565b348015620007ee57600080fd5b50620004c860045481565b3480156200080657600080fd5b506200081e6200081836600462004dee565b62001b25565b60405162000432919062005098565b3480156200083a57600080fd5b50601c54620004c8565b3480156200085157600080fd5b506011546001600160a01b0316620005e5565b3480156200087157600080fd5b50620004c8600e5481565b3480156200088957600080fd5b50601154620005e5906001600160a01b031681565b348015620008ab57600080fd5b50620004c860055481565b348015620008c357600080fd5b50601054620004c8565b348015620008da57600080fd5b50620008f2620008ec366004620051a5565b62001ed8565b60405162000432919062005236565b3480156200090e57600080fd5b50600754620004c8565b3480156200092557600080fd5b50620004096200093736600462004dee565b62002349565b3480156200094a57600080fd5b50620004c86200095c36600462004dee565b60186020526000908152604090205481565b3480156200097b57600080fd5b50600954620004c8565b3480156200099257600080fd5b506200071d620009a436600462004dee565b60009081526013602052604090205460ff1690565b348015620009c657600080fd5b50600854620004c8565b348015620009dd57600080fd5b5062000409620009ef36600462005307565b620024fe565b34801562000a0257600080fd5b50600b54620004c8565b34801562000a1957600080fd5b50620004c862000a2b3660046200545f565b6200261d565b34801562000a3e57600080fd5b506001546001600160a01b0316620005e5565b34801562000a5e57600080fd5b50620004c8600a5481565b34801562000a7657600080fd5b50620004c8600f5481565b34801562000a8e57600080fd5b506200071d62000aa03660046200549b565b62002674565b34801562000ab357600080fd5b50600f54620004c8565b34801562000aca57600080fd5b5062000ae262000adc366004620054e4565b6200268b565b6040516200043291906200554e565b34801562000afe57600080fd5b50620004c8620027f0565b34801562000b1657600080fd5b506200040962000b2836600462005563565b6200280a565b34801562000b3b57600080fd5b50620004c862000b4d36600462004dee565b62002c4f565b34801562000b6057600080fd5b506200040962000b7236600462004dee565b62002c71565b34801562000b8557600080fd5b50600454620004c8565b34801562000b9c57600080fd5b50620004c862000bae36600462004dee565b62003569565b34801562000bc157600080fd5b50620004c862000bd336600462004953565b62003584565b34801562000be657600080fd5b50600d54620004c8565b34801562000bfd57600080fd5b50600354620004c8565b34801562000c1457600080fd5b50620004c860095481565b34801562000c2c57600080fd5b50620004c860105481565b34801562000c4457600080fd5b50620004c862000c5636600462004dee565b6200359f565b34801562000c6957600080fd5b506200047362000c7b36600462004a3f565b60146020908152600092835260408084209091529082529020805460019091015482565b34801562000cac57600080fd5b50600e54620004c8565b34801562000cc357600080fd5b50620004c860065481565b34801562000cdb57600080fd5b50620004c862000ced36600462005600565b620035ce565b34801562000d0057600080fd5b50600054620005e5906001600160a01b031681565b34801562000d2257600080fd5b50620004c860075481565b6060601680548060200260200160405190810160405280929190818152602001828054801562000d7d57602002820191906000526020600020905b81548152602001906001019080831162000d68575b5050505050905090565b6002805462000d96906200562d565b80601f016020809104026020016040519081016040528092919081815260200182805462000dc4906200562d565b801562000e155780601f1062000de95761010080835404028352916020019162000e15565b820191906000526020600020905b81548152906001019060200180831162000df757829003601f168201915b505050505081565b600062000e4561271062000e3e60065462000e37600e5490565b9062003621565b9062003636565b905090565b33301462000ed05760405162461bcd60e51b815260206004820152604260248201527f45524332304775696c643a204f6e6c792063616c6c61626c652062792045524360448201527f32306775696c6420697473656c66206f72207768656e20696e697469616c697a606482015261195960f21b608482015260a4015b60405180910390fd5b60008a1162000ef35760405162461bcd60e51b815260040162000ec7906200566a565b8983101562000f165760405162461bcd60e51b815260040162000ec790620056b9565b6000881162000f395760405162461bcd60e51b815260040162000ec79062005716565b6201c90886111562000fb45760405162461bcd60e51b815260206004820152603960248201527f45524332304775696c643a20766f7465206761732068617320746f206265206560448201527f7175616c206f72206c6f776572207468616e2031313730303000000000000000606482015260840162000ec7565b600399909955600497909755600595909555600693909355600791909155600855600955600d55600f55601055565b60008281526014602090815260408083206001600160a01b0385168452909152902080546001909101545b9250929050565b6000806200102888888888888862003644565b601c549091506200103b90600162003c2a565b601c819055600082815260186020526040902055979650505050505050565b60008381526015602052604090206002015442106200108d5760405162461bcd60e51b815260040162000ec79062005773565b6000838152601860205260409020548190620010ab903390620035ce565b1015620010cc5760405162461bcd60e51b815260040162000ec790620057c6565b60008381526014602090815260408083203384529091529020541580156200110e57506000838152601460209081526040808320338452909152902060010154155b80620011595750600083815260146020908152604080832033845290915290205482148015620011595750600083815260146020908152604080832033845290915290206001015481115b620011785760405162461bcd60e51b815260040162000ec79062005814565b620011863384848462003c38565b505050565b6060600280546200119c906200562d565b80601f0160208091040260200160405190810160405280929190818152602001828054620011ca906200562d565b801562000d7d5780601f10620011ef5761010080835404028352916020019162000d7d565b820191906000526020600020905b815481529060010190602001808311620011fd57509395945050505050565b60008581526015602052604090206002015442106200124f5760405162461bcd60e51b815260040162000ec79062005773565b60006200125f838787876200261d565b60008181526013602052604090205490915060ff1615620012cd5760405162461bcd60e51b815260206004820152602160248201527f536e617073686f7445524332304775696c643a20416c726561647920766f74656044820152601960fa1b606482015260840162000ec7565b620012e482620012dd8362003e99565b9062003eec565b6001600160a01b0316836001600160a01b031614620013465760405162461bcd60e51b815260206004820181905260248201527f536e617073686f7445524332304775696c643a2057726f6e67207369676e6572604482015260640162000ec7565b6000818152601360209081526040808320805460ff19166001179055888352601890915290205484906200137c908590620035ce565b10158015620013af575060008681526014602090815260408083206001600160a01b038716845290915290206001015484115b620013ce5760405162461bcd60e51b815260040162000ec790620057c6565b60008681526014602090815260408083206001600160a01b038716845290915290205415801562001422575060008681526014602090815260408083206001600160a01b0387168452909152902060010154155b806200147f575060008681526014602090815260408083206001600160a01b0387168452909152902054851480156200147f575060008681526014602090815260408083206001600160a01b038716845290915290206001015484115b6200149e5760405162461bcd60e51b815260040162000ec79062005814565b620014ac8387878762003c38565b505050505050565b80620014c03362003584565b1015620015365760405162461bcd60e51b815260206004820152603e60248201527f536e617073686f7445524332304775696c643a20556e61626c6520746f20776960448201527f746864726177206d6f726520746f6b656e73207468616e206c6f636b65640000606482015260840162000ec7565b336000908152601260205260409020600101544211620015a95760405162461bcd60e51b815260206004820152602760248201527f536e617073686f7445524332304775696c643a20546f6b656e73207374696c6c604482015266081b1bd8dad95960ca1b606482015260840162000ec7565b60008111620016315760405162461bcd60e51b815260206004820152604760248201527f536e617073686f7445524332304775696c643a20616d6f756e74206f6620746f60448201527f6b656e7320746f207769746864726177206d75737420626520677265617465726064820152660207468616e20360cc1b608482015260a40162000ec7565b6200163c3362003f0c565b6200164662003f3d565b3360009081526012602052604090205462001662908262003f4e565b33600090815260126020526040902055600e5462001681908262003f4e565b600e5560115460405163f3fef3a360e01b8152336004820152602481018390526001600160a01b039091169063f3fef3a390604401600060405180830381600087803b158015620016d157600080fd5b505af1158015620016e6573d6000803e3d6000fd5b5050336000908152601260205260409020541515915062001717905057600b546200171390600162003f4e565b600b555b60408051338152602081018390527f6352c5382c4a4578e712449ca65e83cdb392d045dfcf1cad9615189db2da244b91015b60405180910390a150565b60156020526000908152604090208054600182015460028301546006840180546001600160a01b0390941694929391929162001790906200562d565b80601f0160208091040260200160405190810160405280929190818152602001828054620017be906200562d565b80156200180f5780601f10620017e3576101008083540402835291602001916200180f565b820191906000526020600020905b815481529060010190602001808311620017f157829003601f168201915b50505050509080600701805462001826906200562d565b80601f016020809104026020016040519081016040528092919081815260200182805462001854906200562d565b8015620018a55780601f106200187957610100808354040283529160200191620018a5565b820191906000526020600020905b8154815290600101906020018083116200188757829003601f168201915b5050506008909301549192505060ff1686565b60175462010000900460ff1680620018d85750601754610100900460ff16155b6200193d5760405162461bcd60e51b815260206004820152602e60248201527f496e697469616c697a61626c653a20636f6e747261637420697320616c72656160448201526d191e481a5b9a5d1a585b1a5e995960921b606482015260840162000ec7565b60175462010000900460ff1615801562001963576017805462ffff001916620101001790555b6001600160a01b038c16620019ca5760405162461bcd60e51b815260206004820152602660248201527f45524332304775696c643a20746f6b656e2063616e74206265207a65726f206160448201526564647265737360d01b606482015260840162000ec7565b60008b11620019ed5760405162461bcd60e51b815260040162000ec7906200566a565b8a83101562001a105760405162461bcd60e51b815260040162000ec790620056b9565b6000891162001a335760405162461bcd60e51b815260040162000ec79062005716565b865162001a489060029060208a01906200467c565b50600080546001600160a01b0319166001600160a01b038e16908117909155604051309062001a77906200470b565b6001600160a01b03928316815291166020820152604001604051809103906000f08015801562001aab573d6000803e3d6000fd5b50601180546001600160a01b03199081166001600160a01b039384161790915560038d905560048c905560058b905560068a9055600788905560088790556009869055600d85905560018054909116918416919091179055801562001b17576017805462ff0000191690555b505050505050505050505050565b62001b2f62004719565b60008281526015602090815260409182902082516101408101845281546001600160a01b03168152600182015481840152600282015481850152600382018054855181860281018601909652808652919492936060860193929083018282801562001bc457602002820191906000526020600020905b81546001600160a01b0316815260019091019060200180831162001ba5575b5050505050815260200160048201805480602002602001604051908101604052809291908181526020016000905b8282101562001ca857838290600052602060002001805462001c14906200562d565b80601f016020809104026020016040519081016040528092919081815260200182805462001c42906200562d565b801562001c935780601f1062001c675761010080835404028352916020019162001c93565b820191906000526020600020905b81548152906001019060200180831162001c7557829003601f168201915b50505050508152602001906001019062001bf2565b5050505081526020016005820180548060200260200160405190810160405280929190818152602001828054801562001d0157602002820191906000526020600020905b81548152602001906001019080831162001cec575b5050505050815260200160068201805462001d1c906200562d565b80601f016020809104026020016040519081016040528092919081815260200182805462001d4a906200562d565b801562001d9b5780601f1062001d6f5761010080835404028352916020019162001d9b565b820191906000526020600020905b81548152906001019060200180831162001d7d57829003601f168201915b5050505050815260200160078201805462001db6906200562d565b80601f016020809104026020016040519081016040528092919081815260200182805462001de4906200562d565b801562001e355780601f1062001e095761010080835404028352916020019162001e35565b820191906000526020600020905b81548152906001019060200180831162001e1757829003601f168201915b5050509183525050600882015460209091019060ff16600481111562001e5f5762001e5f62004e78565b600481111562001e735762001e7362004e78565b81526020016009820180548060200260200160405190810160405280929190818152602001828054801562001ec857602002820191906000526020600020905b81548152602001906001019080831162001eb3575b5050505050815250509050919050565b60608251845114801562001eed575081518351145b62001f615760405162461bcd60e51b815260206004820152603f60248201527f45524332304775696c643a20496e76616c69642070726f706f73616c4964732c60448201527f206f7074696f6e73206f7220766f74696e67506f77657273206c656e67746800606482015260840162000ec7565b60008085516001600160401b0381111562001f805762001f8062004a6e565b60405190808252806020026020018201604052801562001faa578160200160208202803683370190505b509050600091505b85518210156200234057426015600088858151811062001fd65762001fd662005883565b60200260200101518152602001908152602001600020600201541015620020245760008183815181106200200e576200200e62005883565b911515602092830291909101909101526200232b565b83828151811062002039576200203962005883565b60200260200101516200204c3362003584565b1080620020c95750601460008784815181106200206d576200206d62005883565b602002602001015181526020019081526020016000206000336001600160a01b03166001600160a01b0316815260200190815260200160002060010154848381518110620020bf57620020bf62005883565b6020026020010151105b15620020e65760008183815181106200200e576200200e62005883565b60146000878481518110620020ff57620020ff62005883565b6020908102919091018101518252818101929092526040908101600090812033825290925290205415806200218957506014600087848151811062002148576200214862005883565b602002602001015181526020019081526020016000206000336001600160a01b03166001600160a01b03168152602001908152602001600020600101546000145b8015620022835750848281518110620021a657620021a662005883565b602002602001015160146000888581518110620021c757620021c762005883565b602002602001015181526020019081526020016000206000336001600160a01b03166001600160a01b03168152602001908152602001600020600001541415801562002283575083828151811062002223576200222362005883565b60200260200101516014600088858151811062002244576200224462005883565b602002602001015181526020019081526020016000206000336001600160a01b03166001600160a01b0316815260200190815260200160002060010154115b15620022a05760008183815181106200200e576200200e62005883565b6001818381518110620022b757620022b762005883565b6020026020010190151590811515815250506200232b33878481518110620022e357620022e362005883565b602002602001015187858151811062002300576200230062005883565b60200260200101518786815181106200231d576200231d62005883565b602002602001015162003c38565b816200233781620058af565b92505062001fb2565b95945050505050565b60008111620023c15760405162461bcd60e51b815260206004820152603a60248201527f536e617073686f7445524332304775696c643a20546f6b656e7320746f206c6f60448201527f636b2073686f756c6420626520686967686572207468616e2030000000000000606482015260840162000ec7565b33600090815260126020526040902054620023ea57600b54620023e690600162003c2a565b600b555b620023f53362003f0c565b620023ff62003f3d565b6011546040516311f9fbc960e21b8152336004820152602481018390526001600160a01b03909116906347e7ef2490604401600060405180830381600087803b1580156200244c57600080fd5b505af115801562002461573d6000803e3d6000fd5b50503360009081526012602052604090205462002482925090508262003c2a565b33600090815260126020526040902055600d54620024a290429062003c2a565b33600090815260126020526040902060010155600e54620024c4908262003c2a565b600e5560408051338152602081018390527fac87f20a77d28ee8bbb58ec87ea8fa968b3393efae1a368fd50b767c2847391c910162001749565b60005b88518110156200261257620025fd89828151811062002524576200252462005883565b602002602001015189838151811062002541576200254162005883565b60200260200101518984815181106200255e576200255e62005883565b60200260200101518985815181106200257b576200257b62005883565b602002602001015189868151811062002598576200259862005883565b6020026020010151898781518110620025b557620025b562005883565b6020026020010151898881518110620025d257620025d262005883565b6020026020010151898981518110620025ef57620025ef62005883565b60200260200101516200280a565b806200260981620058af565b91505062002501565b505050505050505050565b6040516bffffffffffffffffffffffff19606086901b166020820152603481018490526054810183905260748101829052600090609401604051602081830303815290604052805190602001209050949350505050565b60006200268382858562003f5c565b949350505050565b60608151835114620027155760405162461bcd60e51b815260206004820152604660248201527f536e617073686f7445524332304775696c643a20536e617073686f744964732060448201527f616e64206163636f756e7473206d7573742068617665207468652073616d65206064820152650d8cadccee8d60d31b608482015260a40162000ec7565b600083516001600160401b0381111562002733576200273362004a6e565b6040519080825280602002602001820160405280156200275d578160200160208202803683370190505b50905060005b8451811015620027e657620027b185828151811062002786576200278662005883565b6020026020010151858381518110620027a357620027a362005883565b6020026020010151620035ce565b828281518110620027c657620027c662005883565b602090810291909101015280620027dd81620058af565b91505062002763565b5090505b92915050565b600062000e4561271062000e3e60055462000e37600e5490565b60006200281a888686866200261d565b90508681146200286d5760405162461bcd60e51b815260206004820152601d60248201527f45524332304775696c643a20496e76616c696420766f74652068617368000000604482015260640162000ec7565b60008181526013602052604090205460ff1615620028ce5760405162461bcd60e51b815260206004820152601960248201527f45524332304775696c643a20416c726561647920766f74656400000000000000604482015260640162000ec7565b600089604051602001620028e491815260200190565b6040516020818303038152906040528051906020012090506200290c83620012dd8362003e99565b6001600160a01b0316896001600160a01b0316146200296e5760405162461bcd60e51b815260206004820152601860248201527f45524332304775696c643a2057726f6e67207369676e65720000000000000000604482015260640162000ec7565b60006200297d8b8a8a62002674565b905080620029da5760405162461bcd60e51b8152602060048201526024808201527f45524332304775696c643a20496e76616c6964206d65726b6c652074726565206044820152633632b0b360e11b606482015260840162000ec7565b600087815260156020526040902060020154421062002a505760405162461bcd60e51b815260206004820152602b60248201527f45524332304775696c643a2050726f706f73616c20656e6465642c2063616e6e60448201526a1bdd081899481d9bdd195960aa1b606482015260840162000ec7565b8462002a5c8b62003584565b1015801562002a8f575060008781526014602090815260408083206001600160a01b038e16845290915290206001015485115b62002aec5760405162461bcd60e51b815260206004820152602660248201527f45524332304775696c643a20496e76616c696420766f74696e67506f77657220604482015265185b5bdd5b9d60d21b606482015260840162000ec7565b60008781526014602090815260408083206001600160a01b038e16845290915290205415801562002b40575060008781526014602090815260408083206001600160a01b038e168452909152902060010154155b8062002b9d575060008781526014602090815260408083206001600160a01b038e1684529091529020548614801562002b9d575060008781526014602090815260408083206001600160a01b038e16845290915290206001015485115b62002c1b5760405162461bcd60e51b815260206004820152604160248201527f45524332304775696c643a2043616e6e6f74206368616e6765206f7074696f6e60448201527f20766f7465642c206f6e6c7920696e63726561736520766f74696e67506f77656064820152603960f91b608482015260a40162000ec7565b6000838152601360205260409020805460ff1916600117905562002c428a88888862003c38565b5050505050505050505050565b6016818154811062002c6057600080fd5b600091825260209091200154905081565b60175460ff161562002cdb5760405162461bcd60e51b815260206004820152602c60248201527f536e617073686f7445524332304775696c643a2050726f706f73616c20756e6460448201526b32b91032bc32b1baba34b7b760a11b606482015260840162000ec7565b600160008281526015602052604090206008015460ff16600481111562002d065762002d0662004e78565b1462002d6b5760405162461bcd60e51b815260206004820152602d60248201527f536e617073686f7445524332304775696c643a2050726f706f73616c20616c7260448201526c1958591e48195e1958dd5d1959609a1b606482015260840162000ec7565b600081815260156020526040902060020154421162002de35760405162461bcd60e51b815260206004820152602d60248201527f536e617073686f7445524332304775696c643a2050726f706f73616c2068617360448201526c1b89dd08195b991959081e595d609a1b606482015260840162000ec7565b6000805b60008381526015602052604090206009015481101562002edd5760008381526018602052604090205462002e1b9062003569565b600084815260156020526040902060090180548390811062002e415762002e4162005883565b90600052602060002001541015801562002ebe5750600083815260156020526040902060090180548390811062002e7c5762002e7c62005883565b906000526020600020015460156000858152602001908152602001600020600901828154811062002eb15762002eb162005883565b9060005260206000200154115b1562002ec8578091505b8062002ed481620058af565b91505062002de7565b8162002f2d576000838152601560205260409020600801805460ff1916600290811790915583906000805160206200627e833981519152905b60405190815260200160405180910390a262003551565b600454600084815260156020526040902060020154429162002f50919062003c2a565b101562002f8f576000838152601560205260409020600801805460ff1916600490811790915583906000805160206200627e8339815191529062002f16565b600083815260156020526040812060088101805460ff191660031790556009015462002fdb9062002fc290600162003f4e565b6000868152601560205260409020600301549062003636565b905062002ff662002fee84600162003f4e565b829062003621565b9150600062003006838362003c2a565b9050600160009054906101000a90046001600160a01b03166001600160a01b0316633e7a47b26040518163ffffffff1660e01b8152600401600060405180830381600087803b1580156200305957600080fd5b505af11580156200306e573d6000803e3d6000fd5b505050505b80831015620034a8576000858152601560205260408120600301805485908110620030a257620030a262005883565b6000918252602090912001546001600160a01b0316148015906200310257506000858152601560205260408120600401805485908110620030e757620030e762005883565b906000526020600020018054620030fe906200562d565b9050115b15620034935760008581526015602052604081206004018054859081106200312e576200312e62005883565b90600052602060002001805462003145906200562d565b80601f016020809104026020016040519081016040528092919081815260200182805462003173906200562d565b8015620031c45780601f106200319857610100808354040283529160200191620031c4565b820191906000526020600020905b815481529060010190602001808311620031a657829003601f168201915b50505060208084015160015460008c815260159093526040909220600301805495965090946001600160a01b03909216935063eed47033925030918990811062003212576200321262005883565b9060005260206000200160009054906101000a90046001600160a01b031684601560008d81526020019081526020016000206005018a815481106200325b576200325b62005883565b60009182526020909120015460405160e086901b6001600160e01b031990811682526001600160a01b039586166004830152939094166024850152911660448301526064820152608401600060405180830381600087803b158015620032c057600080fd5b505af1925050508015620032d2575060015b6200332e57620032e1620058cd565b806308c379a01415620033225750620032f9620058ea565b8062003306575062003324565b8060405162461bcd60e51b815260040162000ec79190620049c1565b505b3d6000803e3d6000fd5b6017805460ff19166001179055600087815260156020526040812060030180548790811062003361576200336162005883565b60009182526020808320909101548a83526015909152604090912060050180546001600160a01b039092169188908110620033a057620033a062005883565b9060005260206000200154601560008b81526020019081526020016000206004018881548110620033d557620033d562005883565b90600052602060002001604051620033ee919062005979565b60006040518083038185875af1925050503d80600081146200342d576040519150601f19603f3d011682016040523d82523d6000602084013e62003432565b606091505b5050905080620034855760405162461bcd60e51b815260206004820181905260248201527f45524332304775696c643a2050726f706f73616c2063616c6c206661696c6564604482015260640162000ec7565b50506017805460ff19169055505b826200349f81620058af565b93505062003073565b60015460405163fb0fde8560e01b81523060048201526001600160a01b039091169063fb0fde8590602401602060405180830381600087803b158015620034ee57600080fd5b505af115801562003503573d6000803e3d6000fd5b505050506040513d601f19601f8201168201806040525081019062003529919062005a1d565b50846000805160206200627e833981519152600360405190815260200160405180910390a250505b600c546200356190600162003f4e565b600c55505050565b6000620027ea61271062000e3e60055462000e37866200359f565b6001600160a01b031660009081526012602052604090205490565b6000806000620035b184601a62003f74565b915091508115620035c3579392505050565b5050600e5492915050565b6001600160a01b038216600090815260196020526040812081908190620035f790859062003f74565b9150915081156200360c579150620027ea9050565b620036178562003584565b92505050620027ea565b60006200362f828462005a41565b9392505050565b60006200362f828462005a79565b6000601054600e541015620036c25760405162461bcd60e51b815260206004820152603960248201527f45524332304775696c643a204e6f7420656e6f75676820746f6b656e73206c6f60448201527f636b656420746f2063726561746520612070726f706f73616c00000000000000606482015260840162000ec7565b600f54600b541015620037345760405162461bcd60e51b815260206004820152603360248201527f45524332304775696c643a204e6f7420656e6f756768206d656d6265727320746044820152721bc818dc99585d194818481c1c9bdc1bdcd85b606a1b606482015260840162000ec7565b600954600c5410620037a85760405162461bcd60e51b815260206004820152603660248201527f45524332304775696c643a204d6178696d756d20616d6f756e74206f662061636044820152751d1a5d99481c1c9bdc1bdcd85b1cc81c995858da195960521b606482015260840162000ec7565b620037b262000e1d565b620037bd3362003584565b10156200382b5760405162461bcd60e51b815260206004820152603560248201527f45524332304775696c643a204e6f7420656e6f75676820766f74696e67506f77604482015274195c881d1bc818dc99585d19481c1c9bdc1bdcd85b605a1b606482015260840162000ec7565b855187511480156200383e575084518751145b620038a95760405162461bcd60e51b815260206004820152603460248201527f45524332304775696c643a2057726f6e67206c656e677468206f6620746f2c2060448201527364617461206f722076616c75652061727261797360601b606482015260840162000ec7565b6000875111620039165760405162461bcd60e51b815260206004820152603160248201527f45524332304775696c643a20746f2c20646174612076616c7565206172726179604482015270732063616e6e6f7420626520656d70747960781b606482015260840162000ec7565b86518411158015620039335750845162003931908562004081565b155b620039a75760405162461bcd60e51b815260206004820152603760248201527f45524332304775696c643a20496e76616c696420746f74616c4f7074696f6e7360448201527f206f72206f7074696f6e2063616c6c73206c656e677468000000000000000000606482015260840162000ec7565b600a84111562003a205760405162461bcd60e51b815260206004820152603a60248201527f45524332304775696c643a204d6178696d756d20616d6f756e74206f66206f7060448201527f74696f6e73207065722070726f706f73616c2072656163686564000000000000606482015260840162000ec7565b600a546040516bffffffffffffffffffffffff193360601b166020820152426034820152605481019190915260009060740160405160208183030381529060405280519060200120905062003a826001600a5462003c2a90919063ffffffff16565b600a55600081815260156020526040902080546001600160a01b03191633178155426001820181905560035462003aba919062003c2a565b6002820155885162003ad690600383019060208c019062004789565b50875162003aee90600483019060208b0190620047e1565b50865162003b0690600583019060208a019062004841565b50845162003b1e90600683019060208801906200467c565b50835162003b3690600783019060208701906200467c565b5062003b4486600162003c2a565b6001600160401b0381111562003b5e5762003b5e62004a6e565b60405190808252806020026020018201604052801562003b88578160200160208202803683370190505b50805162003ba191600984019160209091019062004841565b5060088101805460ff19166001908117909155600c5462003bc29162003c2a565b600c55816000805160206200627e833981519152600160405190815260200160405180910390a250601680546001810182556000919091527fd833147d7dc355ba459fc788f669e58cfaf9dc25ddcd0702e87d69c7b512428901819055979650505050505050565b60006200362f828462005a90565b60008381526014602090815260408083206001600160a01b03881684528252808320600101548684526015909252909120600901805462003cae92849262003ca7928790811062003c8d5762003c8d62005883565b906000526020600020015462003f4e90919063ffffffff16565b9062003c2a565b600084815260156020526040902060090180548490811062003cd45762003cd462005883565b60009182526020808320909101929092558481526014825260408082206001600160a01b038816835283528082208581556001018490558582526015909252206002015462003d3b856001600160a01b031660009081526012602052604090206001015490565b101562003d70576000838152601560209081526040808320600201546001600160a01b03881684526012909252909120600101555b604080516001600160a01b038616815260208101839052839185917f583c62f152711bcb1ca6186c1065821ff17a7cbe226dcb559a1c889dcf0d769b910160405180910390a36007541562003e9357600062003de662003ddc6008543a6200408f90919063ffffffff16565b6007549062003621565b905080471015801562003df85750333b155b1562003e9157604051600090339083908381818185875af1925050503d806000811462003e42576040519150601f19603f3d011682016040523d82523d6000602084013e62003e47565b606091505b5050905080620014ac5760405162461bcd60e51b81526020600482015260146024820152734661696c656420746f20726566756e642067617360601b604482015260640162000ec7565b505b50505050565b6040517f19457468657265756d205369676e6564204d6573736167653a0a3332000000006020820152603c8101829052600090605c01604051602081830303815290604052805190602001209050919050565b600080600062003efd8585620040a7565b91509150620027e6816200411d565b6001600160a01b038116600090815260196020526040902062003f3a9062003f348362003584565b620042f0565b50565b62003f4c601a600e54620042f0565b565b60006200362f828462005aab565b60008262003f6b858462004334565b14949350505050565b6000806000841162003fc95760405162461bcd60e51b815260206004820152601b60248201527f536e617073686f7445524332304775696c643a20696420697320300000000000604482015260640162000ec7565b601c54841115620040285760405162461bcd60e51b815260206004820152602260248201527f536e617073686f7445524332304775696c643a206e6f6e6578697374656e74206044820152611a5960f21b606482015260840162000ec7565b6000620040368486620043e1565b8454909150811415620040515760008092509250506200100e565b60018460010182815481106200406b576200406b62005883565b906000526020600020015492509250506200100e565b60006200362f828462005ac5565b6000818310620040a057816200362f565b5090919050565b600080825160411415620040e25760208301516040840151606085015160001a620040d587828585620044a1565b945094505050506200100e565b8251604014156200411057602083015160408401516200410486838362004596565b9350935050506200100e565b506000905060026200100e565b600081600481111562004134576200413462004e78565b14156200413e5750565b600181600481111562004155576200415562004e78565b1415620041a55760405162461bcd60e51b815260206004820152601860248201527f45434453413a20696e76616c6964207369676e61747572650000000000000000604482015260640162000ec7565b6002816004811115620041bc57620041bc62004e78565b14156200420c5760405162461bcd60e51b815260206004820152601f60248201527f45434453413a20696e76616c6964207369676e6174757265206c656e67746800604482015260640162000ec7565b600381600481111562004223576200422362004e78565b14156200427e5760405162461bcd60e51b815260206004820152602260248201527f45434453413a20696e76616c6964207369676e6174757265202773272076616c604482015261756560f01b606482015260840162000ec7565b600481600481111562004295576200429562004e78565b141562003f3a5760405162461bcd60e51b815260206004820152602260248201527f45434453413a20696e76616c6964207369676e6174757265202776272076616c604482015261756560f01b606482015260840162000ec7565b601c5480620042ff84620045c7565b101562001186578254600180820185556000858152602080822090930193909355938401805494850181558252902090910155565b600081815b8451811015620027e65760008582815181106200435a576200435a62005883565b602002602001015190508083116200439e576040805160208101859052908101829052606001604051602081830303815290604052805190602001209250620043cb565b60408051602081018390529081018490526060016040516020818303038152906040528051906020012092505b5080620043d881620058af565b91505062004339565b815460009081905b808210156200444a57600062004400838362004615565b90508486828154811062004418576200441862005883565b90600052602060002001541115620044335780915062004443565b6200444081600162005a90565b92505b50620043e9565b60008211801562004485575083856200446560018562005aab565b8154811062004478576200447862005883565b9060005260206000200154145b1562004498576200361760018362005aab565b509050620027ea565b6000807f7fffffffffffffffffffffffffffffff5d576e7357a4501ddfe92f46681b20a0831115620044da57506000905060036200458d565b8460ff16601b14158015620044f357508460ff16601c14155b156200450657506000905060046200458d565b6040805160008082526020820180845289905260ff881692820192909252606081018690526080810185905260019060a0016020604051602081039080840390855afa1580156200455b573d6000803e3d6000fd5b5050604051601f1901519150506001600160a01b03811662004586576000600192509250506200458d565b9150600090505b94509492505050565b6000806001600160ff1b03831660ff84901c601b01620045b987828885620044a1565b935093505050935093915050565b8054600090620045d957506000919050565b81548290620045eb9060019062005aab565b81548110620045fe57620045fe62005883565b90600052602060002001549050919050565b919050565b6000600262004625818462005ac5565b6200463260028662005ac5565b6200463e919062005a90565b6200464a919062005a79565b6200465760028462005a79565b6200466460028662005a79565b62004670919062005a90565b6200362f919062005a90565b8280546200468a906200562d565b90600052602060002090601f016020900481019282620046ae5760008555620046f9565b82601f10620046c957805160ff1916838001178555620046f9565b82800160010185558215620046f9579182015b82811115620046f9578251825591602001919060010190620046dc565b50620047079291506200487e565b5090565b6107a18062005add83390190565b60405180610140016040528060006001600160a01b0316815260200160008152602001600081526020016060815260200160608152602001606081526020016060815260200160608152602001600060048111156200477c576200477c62004e78565b8152602001606081525090565b828054828255906000526020600020908101928215620046f9579160200282015b82811115620046f957825182546001600160a01b0319166001600160a01b03909116178255602090920191600190910190620047aa565b82805482825590600052602060002090810192821562004833579160200282015b82811115620048335782518051620048229184916020909101906200467c565b509160200191906001019062004802565b506200470792915062004895565b828054828255906000526020600020908101928215620046f95791602002820182811115620046f9578251825591602001919060010190620046dc565b5b808211156200470757600081556001016200487f565b8082111562004707576000620048ac8282620048b6565b5060010162004895565b508054620048c4906200562d565b6000825580601f10620048d5575050565b601f01602090049060005260206000209081019062003f3a91906200487e565b6020808252825182820181905260009190848201906040850190845b818110156200492f5783518352928401929184019160010162004911565b50909695505050505050565b80356001600160a01b03811681146200461057600080fd5b6000602082840312156200496657600080fd5b6200362f826200493b565b6000815180845260005b8181101562004999576020818501810151868301820152016200497b565b81811115620049ac576000602083870101525b50601f01601f19169290920160200192915050565b6020815260006200362f602083018462004971565b6000806000806000806000806000806101408b8d031215620049f757600080fd5b505088359a60208a01359a5060408a013599606081013599506080810135985060a0810135975060c0810135965060e081013595506101008101359450610120013592509050565b6000806040838503121562004a5357600080fd5b8235915062004a65602084016200493b565b90509250929050565b634e487b7160e01b600052604160045260246000fd5b601f8201601f191681016001600160401b038111828210171562004aac5762004aac62004a6e565b6040525050565b60006001600160401b0382111562004acf5762004acf62004a6e565b5060051b60200190565b600082601f83011262004aeb57600080fd5b8135602062004afa8262004ab3565b60405162004b09828262004a84565b83815260059390931b850182019282810191508684111562004b2a57600080fd5b8286015b8481101562004b505762004b42816200493b565b835291830191830162004b2e565b509695505050505050565b600082601f83011262004b6d57600080fd5b81356001600160401b0381111562004b895762004b8962004a6e565b60405162004ba2601f8301601f19166020018262004a84565b81815284602083860101111562004bb857600080fd5b816020850160208301376000918101602001919091529392505050565b600082601f83011262004be757600080fd5b8135602062004bf68262004ab3565b60405162004c05828262004a84565b83815260059390931b850182019282810191508684111562004c2657600080fd5b8286015b8481101562004b505780356001600160401b0381111562004c4b5760008081fd5b62004c5b8986838b010162004b5b565b84525091830191830162004c2a565b600082601f83011262004c7c57600080fd5b8135602062004c8b8262004ab3565b60405162004c9a828262004a84565b83815260059390931b850182019282810191508684111562004cbb57600080fd5b8286015b8481101562004b50578035835291830191830162004cbf565b60008060008060008060c0878903121562004cf257600080fd5b86356001600160401b038082111562004d0a57600080fd5b62004d188a838b0162004ad9565b9750602089013591508082111562004d2f57600080fd5b62004d3d8a838b0162004bd5565b9650604089013591508082111562004d5457600080fd5b62004d628a838b0162004c6a565b955060608901359450608089013591508082111562004d8057600080fd5b62004d8e8a838b0162004b5b565b935060a089013591508082111562004da557600080fd5b5062004db489828a0162004b5b565b9150509295509295509295565b60008060006060848603121562004dd757600080fd5b505081359360208301359350604090920135919050565b60006020828403121562004e0157600080fd5b5035919050565b600080600080600060a0868803121562004e2157600080fd5b85359450602086013593506040860135925062004e41606087016200493b565b915060808601356001600160401b0381111562004e5d57600080fd5b62004e6b8882890162004b5b565b9150509295509295909350565b634e487b7160e01b600052602160045260246000fd5b6005811062004ead57634e487b7160e01b600052602160045260246000fd5b9052565b60018060a01b038716815285602082015284604082015260c06060820152600062004ee060c083018662004971565b828103608084015262004ef4818662004971565b91505062004f0660a083018462004e8e565b979650505050505050565b60008060008060008060008060008060006101608c8e03121562004f3457600080fd5b62004f3f8c6200493b565b9a5060208c0135995060408c0135985060608c0135975060808c0135965060a08c01356001600160401b0381111562004f7757600080fd5b62004f858e828f0162004b5b565b96505060c08c0135945060e08c013593506101008c013592506101208c0135915062004fb56101408d016200493b565b90509295989b509295989b9093969950565b600081518084526020808501945080840160005b83811015620050025781516001600160a01b03168752958201959082019060010162004fdb565b509495945050505050565b600081518084526020808501808196508360051b8101915082860160005b85811015620050595782840389526200504684835162004971565b988501989350908401906001016200502b565b5091979650505050505050565b600081518084526020808501945080840160005b8381101562005002578151875295820195908201906001016200507a565b60208152620050b36020820183516001600160a01b03169052565b602082015160408201526040820151606082015260006060830151610140806080850152620050e761016085018362004fc7565b91506080850151601f19808685030160a08701526200510784836200500d565b935060a08701519150808685030160c087015262005126848362005066565b935060c08701519150808685030160e087015262005145848362004971565b935060e0870151915061010081878603018188015262005166858462004971565b945080880151925050610120620051808188018462004e8e565b8701518685039091018387015290506200519b838262005066565b9695505050505050565b600080600060608486031215620051bb57600080fd5b83356001600160401b0380821115620051d357600080fd5b620051e18783880162004c6a565b94506020860135915080821115620051f857600080fd5b620052068783880162004c6a565b935060408601359150808211156200521d57600080fd5b506200522c8682870162004c6a565b9150509250925092565b6020808252825182820181905260009190848201906040850190845b818110156200492f57835115158352928401929184019160010162005252565b600082601f8301126200528457600080fd5b81356020620052938262004ab3565b604051620052a2828262004a84565b83815260059390931b8501820192828101915086841115620052c357600080fd5b8286015b8481101562004b505780356001600160401b03811115620052e85760008081fd5b620052f88986838b010162004c6a565b845250918301918301620052c7565b600080600080600080600080610100898b0312156200532557600080fd5b88356001600160401b03808211156200533d57600080fd5b6200534b8c838d0162004c6a565b995060208b01359150808211156200536257600080fd5b620053708c838d0162004ad9565b985060408b01359150808211156200538757600080fd5b620053958c838d0162004c6a565b975060608b0135915080821115620053ac57600080fd5b620053ba8c838d0162005272565b965060808b0135915080821115620053d157600080fd5b620053df8c838d0162004c6a565b955060a08b0135915080821115620053f657600080fd5b620054048c838d0162004c6a565b945060c08b01359150808211156200541b57600080fd5b620054298c838d0162004c6a565b935060e08b01359150808211156200544057600080fd5b506200544f8b828c0162004bd5565b9150509295985092959890939650565b600080600080608085870312156200547657600080fd5b62005481856200493b565b966020860135965060408601359560600135945092505050565b600080600060608486031215620054b157600080fd5b833592506020840135915060408401356001600160401b03811115620054d657600080fd5b6200522c8682870162004c6a565b60008060408385031215620054f857600080fd5b82356001600160401b03808211156200551057600080fd5b6200551e8683870162004ad9565b935060208501359150808211156200553557600080fd5b50620055448582860162004c6a565b9150509250929050565b6020815260006200362f602083018462005066565b600080600080600080600080610100898b0312156200558157600080fd5b883597506200559360208a016200493b565b96506040890135955060608901356001600160401b0380821115620055b757600080fd5b620055c58c838d0162004c6a565b965060808b0135955060a08b0135945060c08b0135935060e08b0135915080821115620055f157600080fd5b506200544f8b828c0162004b5b565b600080604083850312156200561457600080fd5b6200561f836200493b565b946020939093013593505050565b600181811c908216806200564257607f821691505b602082108114156200566457634e487b7160e01b600052602260045260246000fd5b50919050565b6020808252602f908201527f45524332304775696c643a2070726f706f73616c2074696d652068617320746f60408201526e0206265206d6f7265207468616e203608c1b606082015260800190565b6020808252603e908201527f45524332304775696c643a206c6f636b54696d652068617320746f206265206860408201527f6967686572206f7220657175616c20746f2070726f706f73616c54696d650000606082015260800190565b6020808252603c908201527f45524332304775696c643a20766f74696e6720706f77657220666f722065786560408201527f637574696f6e2068617320746f206265206d6f7265207468616e203000000000606082015260800190565b60208082526033908201527f536e617073686f7445524332304775696c643a2050726f706f73616c20656e6460408201527219590b0818d85b9b9bdd081899481d9bdd1959606a1b606082015260800190565b6020808252602e908201527f536e617073686f7445524332304775696c643a20496e76616c696420766f746960408201526d1b99d41bddd95c88185b5bdd5b9d60921b606082015260800190565b60208082526049908201527f536e617073686f7445524332304775696c643a2043616e6e6f74206368616e6760408201527f65206f7074696f6e20766f7465642c206f6e6c7920696e63726561736520766f6060820152683a34b733a837bbb2b960b91b608082015260a00190565b634e487b7160e01b600052603260045260246000fd5b634e487b7160e01b600052601160045260246000fd5b6000600019821415620058c657620058c662005899565b5060010190565b600060033d1115620058e75760046000803e5060005160e01c5b90565b600060443d1015620058f95790565b6040516003193d81016004833e81513d6001600160401b0381602484011181841117156200592957505050505090565b8285019150815181811115620059425750505050505090565b843d87010160208285010111156200595d5750505050505090565b6200596e6020828601018762004a84565b509095945050505050565b600080835481600182811c9150808316806200599657607f831692505b6020808410821415620059b757634e487b7160e01b86526022600452602486fd5b818015620059ce5760018114620059e05762005a0f565b60ff1986168952848901965062005a0f565b60008a81526020902060005b8681101562005a075781548b820152908501908301620059ec565b505084890196505b509498975050505050505050565b60006020828403121562005a3057600080fd5b815180151581146200362f57600080fd5b600081600019048311821515161562005a5e5762005a5e62005899565b500290565b634e487b7160e01b600052601260045260246000fd5b60008262005a8b5762005a8b62005a63565b500490565b6000821982111562005aa65762005aa662005899565b500190565b60008282101562005ac05762005ac062005899565b500390565b60008262005ad75762005ad762005a63565b50069056fe608060405234801561001057600080fd5b506040516107a13803806107a183398101604081905261002f9161007c565b600080546001600160a01b039384166001600160a01b031991821617909155600180549290931691161790556100af565b80516001600160a01b038116811461007757600080fd5b919050565b6000806040838503121561008f57600080fd5b61009883610060565b91506100a660208401610060565b90509250929050565b6106e3806100be6000396000f3fe608060405234801561001057600080fd5b506004361061007d5760003560e01c80636e9960c31161005b5780636e9960c3146100ef578063f3fef3a314610100578063f851a44014610113578063fc0c546a1461012657600080fd5b806321df0da71461008257806327e235e3146100ac57806347e7ef24146100da575b600080fd5b6000546001600160a01b03165b6040516001600160a01b0390911681526020015b60405180910390f35b6100cc6100ba366004610586565b60026020526000908152604090205481565b6040519081526020016100a3565b6100ed6100e83660046105a1565b610139565b005b6001546001600160a01b031661008f565b6100ed61010e3660046105a1565b61020a565b60015461008f906001600160a01b031681565b60005461008f906001600160a01b031681565b6001546001600160a01b031633146101af5760405162461bcd60e51b815260206004820152602e60248201527f546f6b656e5661756c743a204465706f736974206d7573742062652073656e7460448201526d103a343937bab3b41030b236b4b760911b60648201526084015b60405180910390fd5b6000546101c7906001600160a01b031683308461025b565b6001600160a01b0382166000908152600260205260409020546101ea90826102cc565b6001600160a01b0390921660009081526002602052604090209190915550565b6001546001600160a01b0316331461022157600080fd5b600054610238906001600160a01b031683836102df565b6001600160a01b0382166000908152600260205260409020546101ea9082610314565b6040516001600160a01b03808516602483015283166044820152606481018290526102c69085906323b872dd60e01b906084015b60408051601f198184030181529190526020810180516001600160e01b03166001600160e01b031990931692909217909152610320565b50505050565b60006102d882846105e1565b9392505050565b6040516001600160a01b03831660248201526044810182905261030f90849063a9059cbb60e01b9060640161028f565b505050565b60006102d882846105f9565b6000610375826040518060400160405280602081526020017f5361666545524332303a206c6f772d6c6576656c2063616c6c206661696c6564815250856001600160a01b03166103f29092919063ffffffff16565b80519091501561030f57808060200190518101906103939190610610565b61030f5760405162461bcd60e51b815260206004820152602a60248201527f5361666545524332303a204552433230206f7065726174696f6e20646964206e6044820152691bdd081cdd58d8d9595960b21b60648201526084016101a6565b60606104018484600085610409565b949350505050565b60608247101561046a5760405162461bcd60e51b815260206004820152602660248201527f416464726573733a20696e73756666696369656e742062616c616e636520666f6044820152651c8818d85b1b60d21b60648201526084016101a6565b843b6104b85760405162461bcd60e51b815260206004820152601d60248201527f416464726573733a2063616c6c20746f206e6f6e2d636f6e747261637400000060448201526064016101a6565b600080866001600160a01b031685876040516104d4919061065e565b60006040518083038185875af1925050503d8060008114610511576040519150601f19603f3d011682016040523d82523d6000602084013e610516565b606091505b5091509150610526828286610531565b979650505050505050565b606083156105405750816102d8565b8251156105505782518084602001fd5b8160405162461bcd60e51b81526004016101a6919061067a565b80356001600160a01b038116811461058157600080fd5b919050565b60006020828403121561059857600080fd5b6102d88261056a565b600080604083850312156105b457600080fd5b6105bd8361056a565b946020939093013593505050565b634e487b7160e01b600052601160045260246000fd5b600082198211156105f4576105f46105cb565b500190565b60008282101561060b5761060b6105cb565b500390565b60006020828403121561062257600080fd5b815180151581146102d857600080fd5b60005b8381101561064d578181015183820152602001610635565b838111156102c65750506000910152565b60008251610670818460208701610632565b9190910192915050565b6020815260008251806020840152610699816040850160208701610632565b601f01601f1916919091016040019291505056fea2646970667358221220f83df9be484204d29c000a118187aee7d3ca7efcb094476e4ad893327bb967b564736f6c63430008080033fee62a9eec0be50eb061c711990ef0f1e17b40ea131d9347b0468acdaf8bf243a2646970667358221220a9f7ea45549de04739e8b600cd20c04628c2c4575d09d9a9e9d38ef3b40bd01664736f6c63430008080033",
  "linkReferences": {},
  "deployedLinkReferences": {}
}