{
  "_format": "hh-sol-artifact-1",
  "contractName": "SnapshotRepERC20Guild",
  "sourceName": "contracts/erc20guild/implementations/SnapshotRepERC20Guild.sol",
  "abi": [
    {
      "anonymous": false,
      "inputs": [
        {
          "indexed": true,
          "internalType": "address",
          "name": "previousOwner",
          "type": "address"
        },
        {
          "indexed": true,
          "internalType": "address",
          "name": "newOwner",
          "type": "address"
        }
      ],
      "name": "OwnershipTransferred",
      "type": "event"
    },
    {
      "anonymous": false,
      "inputs": [
        {
          "indexed": true,
          "internalType": "bytes32",
          "name": "proposalId",
          "type": "bytes32"
        },
        {
          "indexed": false,
          "internalType": "uint256",
          "name": "newState",
          "type": "uint256"
        }
      ],
      "name": "ProposalStateChanged",
      "type": "event"
    },
    {
      "anonymous": false,
      "inputs": [
        {
          "indexed": false,
          "internalType": "address",
          "name": "voter",
          "type": "address"
        },
        {
          "indexed": false,
          "internalType": "uint256",
          "name": "value",
          "type": "uint256"
        }
      ],
      "name": "TokensLocked",
      "type": "event"
    },
    {
      "anonymous": false,
      "inputs": [
        {
          "indexed": false,
          "internalType": "address",
          "name": "voter",
          "type": "address"
        },
        {
          "indexed": false,
          "internalType": "uint256",
          "name": "value",
          "type": "uint256"
        }
      ],
      "name": "TokensWithdrawn",
      "type": "event"
    },
    {
      "anonymous": false,
      "inputs": [
        {
          "indexed": true,
          "internalType": "bytes32",
          "name": "proposalId",
          "type": "bytes32"
        },
        {
          "indexed": true,
          "internalType": "uint256",
          "name": "action",
          "type": "uint256"
        },
        {
          "indexed": false,
          "internalType": "address",
          "name": "voter",
          "type": "address"
        },
        {
          "indexed": false,
          "internalType": "uint256",
          "name": "votingPower",
          "type": "uint256"
        }
      ],
      "name": "VoteAdded",
      "type": "event"
    },
    {
      "stateMutability": "payable",
      "type": "fallback"
    },
    {
      "inputs": [],
      "name": "MAX_ACTIONS_PER_PROPOSAL",
      "outputs": [
        {
          "internalType": "uint8",
          "name": "",
          "type": "uint8"
        }
      ],
      "stateMutability": "view",
      "type": "function"
    },
    {
      "inputs": [],
      "name": "activeProposalsNow",
      "outputs": [
        {
          "internalType": "uint256",
          "name": "",
          "type": "uint256"
        }
      ],
      "stateMutability": "view",
      "type": "function"
    },
    {
      "inputs": [
        {
          "internalType": "address[]",
          "name": "to",
          "type": "address[]"
        },
        {
          "internalType": "bytes[]",
          "name": "data",
          "type": "bytes[]"
        },
        {
          "internalType": "uint256[]",
          "name": "value",
          "type": "uint256[]"
        },
        {
          "internalType": "uint256",
          "name": "totalActions",
          "type": "uint256"
        },
        {
          "internalType": "string",
          "name": "title",
          "type": "string"
        },
        {
          "internalType": "string",
          "name": "contentHash",
          "type": "string"
        }
      ],
      "name": "createProposal",
      "outputs": [
        {
          "internalType": "bytes32",
          "name": "",
          "type": "bytes32"
        }
      ],
      "stateMutability": "nonpayable",
      "type": "function"
    },
    {
      "inputs": [
        {
          "internalType": "bytes32",
          "name": "proposalId",
          "type": "bytes32"
        }
      ],
      "name": "endProposal",
      "outputs": [],
      "stateMutability": "nonpayable",
      "type": "function"
    },
    {
      "inputs": [],
      "name": "getActiveProposalsNow",
      "outputs": [
        {
          "internalType": "uint256",
          "name": "",
          "type": "uint256"
        }
      ],
      "stateMutability": "view",
      "type": "function"
    },
    {
      "inputs": [],
      "name": "getLockTime",
      "outputs": [
        {
          "internalType": "uint256",
          "name": "",
          "type": "uint256"
        }
      ],
      "stateMutability": "view",
      "type": "function"
    },
    {
      "inputs": [],
      "name": "getMaxActiveProposals",
      "outputs": [
        {
          "internalType": "uint256",
          "name": "",
          "type": "uint256"
        }
      ],
      "stateMutability": "view",
      "type": "function"
    },
    {
      "inputs": [],
      "name": "getMaxGasPrice",
      "outputs": [
        {
          "internalType": "uint256",
          "name": "",
          "type": "uint256"
        }
      ],
      "stateMutability": "view",
      "type": "function"
    },
    {
      "inputs": [],
      "name": "getMinimumMembersForProposalCreation",
      "outputs": [
        {
          "internalType": "uint256",
          "name": "",
          "type": "uint256"
        }
      ],
      "stateMutability": "view",
      "type": "function"
    },
    {
      "inputs": [],
      "name": "getMinimumTokensLockedForProposalCreation",
      "outputs": [
        {
          "internalType": "uint256",
          "name": "",
          "type": "uint256"
        }
      ],
      "stateMutability": "view",
      "type": "function"
    },
    {
      "inputs": [],
      "name": "getName",
      "outputs": [
        {
          "internalType": "string",
          "name": "",
          "type": "string"
        }
      ],
      "stateMutability": "view",
      "type": "function"
    },
    {
      "inputs": [],
      "name": "getPermissionRegistry",
      "outputs": [
        {
          "internalType": "address",
          "name": "",
          "type": "address"
        }
      ],
      "stateMutability": "view",
      "type": "function"
    },
    {
      "inputs": [
        {
          "internalType": "bytes32",
          "name": "proposalId",
          "type": "bytes32"
        }
      ],
      "name": "getProposal",
      "outputs": [
        {
          "components": [
            {
              "internalType": "address",
              "name": "creator",
              "type": "address"
            },
            {
              "internalType": "uint256",
              "name": "startTime",
              "type": "uint256"
            },
            {
              "internalType": "uint256",
              "name": "endTime",
              "type": "uint256"
            },
            {
              "internalType": "address[]",
              "name": "to",
              "type": "address[]"
            },
            {
              "internalType": "bytes[]",
              "name": "data",
              "type": "bytes[]"
            },
            {
              "internalType": "uint256[]",
              "name": "value",
              "type": "uint256[]"
            },
            {
              "internalType": "string",
              "name": "title",
              "type": "string"
            },
            {
              "internalType": "string",
              "name": "contentHash",
              "type": "string"
            },
            {
              "internalType": "enum BaseERC20Guild.ProposalState",
              "name": "state",
              "type": "uint8"
            },
            {
              "internalType": "uint256[]",
              "name": "totalVotes",
              "type": "uint256[]"
            }
          ],
          "internalType": "struct BaseERC20Guild.Proposal",
          "name": "",
          "type": "tuple"
        }
      ],
      "stateMutability": "view",
      "type": "function"
    },
    {
      "inputs": [
        {
          "internalType": "bytes32",
          "name": "proposalId",
          "type": "bytes32"
        }
      ],
      "name": "getProposalSnapshotId",
      "outputs": [
        {
          "internalType": "uint256",
          "name": "",
          "type": "uint256"
        }
      ],
      "stateMutability": "view",
      "type": "function"
    },
    {
      "inputs": [],
      "name": "getProposalTime",
      "outputs": [
        {
          "internalType": "uint256",
          "name": "",
          "type": "uint256"
        }
      ],
      "stateMutability": "view",
      "type": "function"
    },
    {
      "inputs": [
        {
          "internalType": "bytes32",
          "name": "proposalId",
          "type": "bytes32"
        },
        {
          "internalType": "address",
          "name": "voter",
          "type": "address"
        }
      ],
      "name": "getProposalVotesOfVoter",
      "outputs": [
        {
          "internalType": "uint256",
          "name": "action",
          "type": "uint256"
        },
        {
          "internalType": "uint256",
          "name": "votingPower",
          "type": "uint256"
        }
      ],
      "stateMutability": "view",
      "type": "function"
    },
    {
      "inputs": [],
      "name": "getProposalsIds",
      "outputs": [
        {
          "internalType": "bytes32[]",
          "name": "",
          "type": "bytes32[]"
        }
      ],
      "stateMutability": "view",
      "type": "function"
    },
    {
      "inputs": [],
      "name": "getProposalsIdsLength",
      "outputs": [
        {
          "internalType": "uint256",
          "name": "",
          "type": "uint256"
        }
      ],
      "stateMutability": "view",
      "type": "function"
    },
    {
      "inputs": [
        {
          "internalType": "bytes32",
          "name": "signedVoteHash",
          "type": "bytes32"
        }
      ],
      "name": "getSignedVote",
      "outputs": [
        {
          "internalType": "bool",
          "name": "",
          "type": "bool"
        }
      ],
      "stateMutability": "view",
      "type": "function"
    },
    {
      "inputs": [
        {
          "internalType": "bytes32",
          "name": "proposalId",
          "type": "bytes32"
        }
      ],
      "name": "getSnapshotVotingPowerForProposalExecution",
      "outputs": [
        {
          "internalType": "uint256",
          "name": "",
          "type": "uint256"
        }
      ],
      "stateMutability": "view",
      "type": "function"
    },
    {
      "inputs": [],
      "name": "getTimeForExecution",
      "outputs": [
        {
          "internalType": "uint256",
          "name": "",
          "type": "uint256"
        }
      ],
      "stateMutability": "view",
      "type": "function"
    },
    {
      "inputs": [],
      "name": "getToken",
      "outputs": [
        {
          "internalType": "address",
          "name": "",
          "type": "address"
        }
      ],
      "stateMutability": "view",
      "type": "function"
    },
    {
      "inputs": [],
      "name": "getTokenVault",
      "outputs": [
        {
          "internalType": "address",
          "name": "",
          "type": "address"
        }
      ],
      "stateMutability": "view",
      "type": "function"
    },
    {
      "inputs": [],
      "name": "getTotalLocked",
      "outputs": [
        {
          "internalType": "uint256",
          "name": "",
          "type": "uint256"
        }
      ],
      "stateMutability": "view",
      "type": "function"
    },
    {
      "inputs": [],
      "name": "getTotalMembers",
      "outputs": [
        {
          "internalType": "uint256",
          "name": "",
          "type": "uint256"
        }
      ],
      "stateMutability": "view",
      "type": "function"
    },
    {
      "inputs": [],
      "name": "getTotalProposals",
      "outputs": [
        {
          "internalType": "uint256",
          "name": "",
          "type": "uint256"
        }
      ],
      "stateMutability": "view",
      "type": "function"
    },
    {
      "inputs": [],
      "name": "getVoteGas",
      "outputs": [
        {
          "internalType": "uint256",
          "name": "",
          "type": "uint256"
        }
      ],
      "stateMutability": "view",
      "type": "function"
    },
    {
      "inputs": [
        {
          "internalType": "address",
          "name": "voter",
          "type": "address"
        }
      ],
      "name": "getVoterLockTimestamp",
      "outputs": [
        {
          "internalType": "uint256",
          "name": "",
          "type": "uint256"
        }
      ],
      "stateMutability": "view",
      "type": "function"
    },
    {
      "inputs": [],
      "name": "getVotingPowerForProposalCreation",
      "outputs": [
        {
          "internalType": "uint256",
          "name": "",
          "type": "uint256"
        }
      ],
      "stateMutability": "view",
      "type": "function"
    },
    {
      "inputs": [],
      "name": "getVotingPowerForProposalExecution",
      "outputs": [
        {
          "internalType": "uint256",
          "name": "",
          "type": "uint256"
        }
      ],
      "stateMutability": "view",
      "type": "function"
    },
    {
      "inputs": [
        {
          "internalType": "address",
          "name": "voter",
          "type": "address"
        },
        {
          "internalType": "bytes32",
          "name": "proposalId",
          "type": "bytes32"
        },
        {
          "internalType": "uint256",
          "name": "action",
          "type": "uint256"
        },
        {
          "internalType": "uint256",
          "name": "votingPower",
          "type": "uint256"
        }
      ],
      "name": "hashVote",
      "outputs": [
        {
          "internalType": "bytes32",
          "name": "",
          "type": "bytes32"
        }
      ],
      "stateMutability": "pure",
      "type": "function"
    },
    {
      "inputs": [
        {
          "internalType": "address",
          "name": "_token",
          "type": "address"
        },
        {
          "internalType": "uint256",
          "name": "_proposalTime",
          "type": "uint256"
        },
        {
          "internalType": "uint256",
          "name": "_timeForExecution",
          "type": "uint256"
        },
        {
          "internalType": "uint256",
          "name": "_votingPowerForProposalExecution",
          "type": "uint256"
        },
        {
          "internalType": "uint256",
          "name": "_votingPowerForProposalCreation",
          "type": "uint256"
        },
        {
          "internalType": "string",
          "name": "_name",
          "type": "string"
        },
        {
          "internalType": "uint256",
          "name": "_voteGas",
          "type": "uint256"
        },
        {
          "internalType": "uint256",
          "name": "_maxGasPrice",
          "type": "uint256"
        },
        {
          "internalType": "uint256",
          "name": "_maxActiveProposals",
          "type": "uint256"
        },
        {
          "internalType": "uint256",
          "name": "_lockTime",
          "type": "uint256"
        },
        {
          "internalType": "address",
          "name": "_permissionRegistry",
          "type": "address"
        }
      ],
      "name": "initialize",
      "outputs": [],
      "stateMutability": "nonpayable",
      "type": "function"
    },
    {
      "inputs": [],
      "name": "lockTime",
      "outputs": [
        {
          "internalType": "uint256",
          "name": "",
          "type": "uint256"
        }
      ],
      "stateMutability": "view",
      "type": "function"
    },
    {
      "inputs": [
        {
          "internalType": "uint256",
          "name": "",
          "type": "uint256"
        }
      ],
      "name": "lockTokens",
      "outputs": [],
      "stateMutability": "nonpayable",
      "type": "function"
    },
    {
      "inputs": [],
      "name": "maxActiveProposals",
      "outputs": [
        {
          "internalType": "uint256",
          "name": "",
          "type": "uint256"
        }
      ],
      "stateMutability": "view",
      "type": "function"
    },
    {
      "inputs": [],
      "name": "maxGasPrice",
      "outputs": [
        {
          "internalType": "uint256",
          "name": "",
          "type": "uint256"
        }
      ],
      "stateMutability": "view",
      "type": "function"
    },
    {
      "inputs": [],
      "name": "minimumMembersForProposalCreation",
      "outputs": [
        {
          "internalType": "uint256",
          "name": "",
          "type": "uint256"
        }
      ],
      "stateMutability": "view",
      "type": "function"
    },
    {
      "inputs": [],
      "name": "minimumTokensLockedForProposalCreation",
      "outputs": [
        {
          "internalType": "uint256",
          "name": "",
          "type": "uint256"
        }
      ],
      "stateMutability": "view",
      "type": "function"
    },
    {
      "inputs": [],
      "name": "name",
      "outputs": [
        {
          "internalType": "string",
          "name": "",
          "type": "string"
        }
      ],
      "stateMutability": "view",
      "type": "function"
    },
    {
      "inputs": [],
      "name": "owner",
      "outputs": [
        {
          "internalType": "address",
          "name": "",
          "type": "address"
        }
      ],
      "stateMutability": "view",
      "type": "function"
    },
    {
      "inputs": [],
      "name": "proposalTime",
      "outputs": [
        {
          "internalType": "uint256",
          "name": "",
          "type": "uint256"
        }
      ],
      "stateMutability": "view",
      "type": "function"
    },
    {
      "inputs": [
        {
          "internalType": "bytes32",
          "name": "",
          "type": "bytes32"
        },
        {
          "internalType": "address",
          "name": "",
          "type": "address"
        }
      ],
      "name": "proposalVotes",
      "outputs": [
        {
          "internalType": "uint256",
          "name": "action",
          "type": "uint256"
        },
        {
          "internalType": "uint256",
          "name": "votingPower",
          "type": "uint256"
        }
      ],
      "stateMutability": "view",
      "type": "function"
    },
    {
      "inputs": [
        {
          "internalType": "bytes32",
          "name": "",
          "type": "bytes32"
        }
      ],
      "name": "proposals",
      "outputs": [
        {
          "internalType": "address",
          "name": "creator",
          "type": "address"
        },
        {
          "internalType": "uint256",
          "name": "startTime",
          "type": "uint256"
        },
        {
          "internalType": "uint256",
          "name": "endTime",
          "type": "uint256"
        },
        {
          "internalType": "string",
          "name": "title",
          "type": "string"
        },
        {
          "internalType": "string",
          "name": "contentHash",
          "type": "string"
        },
        {
          "internalType": "enum BaseERC20Guild.ProposalState",
          "name": "state",
          "type": "uint8"
        }
      ],
      "stateMutability": "view",
      "type": "function"
    },
    {
      "inputs": [
        {
          "internalType": "uint256",
          "name": "",
          "type": "uint256"
        }
      ],
      "name": "proposalsIds",
      "outputs": [
        {
          "internalType": "bytes32",
          "name": "",
          "type": "bytes32"
        }
      ],
      "stateMutability": "view",
      "type": "function"
    },
    {
      "inputs": [
        {
          "internalType": "bytes32",
          "name": "",
          "type": "bytes32"
        }
      ],
      "name": "proposalsSnapshots",
      "outputs": [
        {
          "internalType": "uint256",
          "name": "",
          "type": "uint256"
        }
      ],
      "stateMutability": "view",
      "type": "function"
    },
    {
      "inputs": [],
      "name": "renounceOwnership",
      "outputs": [],
      "stateMutability": "nonpayable",
      "type": "function"
    },
    {
      "inputs": [
        {
          "internalType": "uint256",
          "name": "_proposalTime",
          "type": "uint256"
        },
        {
          "internalType": "uint256",
          "name": "_timeForExecution",
          "type": "uint256"
        },
        {
          "internalType": "uint256",
          "name": "_votingPowerForProposalExecution",
          "type": "uint256"
        },
        {
          "internalType": "uint256",
          "name": "_votingPowerForProposalCreation",
          "type": "uint256"
        },
        {
          "internalType": "uint256",
          "name": "_voteGas",
          "type": "uint256"
        },
        {
          "internalType": "uint256",
          "name": "_maxGasPrice",
          "type": "uint256"
        },
        {
          "internalType": "uint256",
          "name": "_maxActiveProposals",
          "type": "uint256"
        },
        {
          "internalType": "uint256",
          "name": "_lockTime",
          "type": "uint256"
        },
        {
          "internalType": "uint256",
          "name": "_minimumMembersForProposalCreation",
          "type": "uint256"
        },
        {
          "internalType": "uint256",
          "name": "_minimumTokensLockedForProposalCreation",
          "type": "uint256"
        }
      ],
      "name": "setConfig",
      "outputs": [],
      "stateMutability": "nonpayable",
      "type": "function"
    },
    {
      "inputs": [
        {
          "internalType": "bytes32",
          "name": "proposalId",
          "type": "bytes32"
        },
        {
          "internalType": "uint256",
          "name": "action",
          "type": "uint256"
        },
        {
          "internalType": "uint256",
          "name": "votingPower",
          "type": "uint256"
        },
        {
          "internalType": "address",
          "name": "voter",
          "type": "address"
        },
        {
          "internalType": "bytes",
          "name": "signature",
          "type": "bytes"
        }
      ],
      "name": "setSignedVote",
      "outputs": [],
      "stateMutability": "nonpayable",
      "type": "function"
    },
    {
      "inputs": [
        {
          "internalType": "bytes32",
          "name": "proposalId",
          "type": "bytes32"
        },
        {
          "internalType": "uint256",
          "name": "action",
          "type": "uint256"
        },
        {
          "internalType": "uint256",
          "name": "votingPower",
          "type": "uint256"
        }
      ],
      "name": "setVote",
      "outputs": [],
      "stateMutability": "nonpayable",
      "type": "function"
    },
    {
      "inputs": [
        {
          "internalType": "bytes32",
          "name": "",
          "type": "bytes32"
        }
      ],
      "name": "signedVotes",
      "outputs": [
        {
          "internalType": "bool",
          "name": "",
          "type": "bool"
        }
      ],
      "stateMutability": "view",
      "type": "function"
    },
    {
      "inputs": [],
      "name": "timeForExecution",
      "outputs": [
        {
          "internalType": "uint256",
          "name": "",
          "type": "uint256"
        }
      ],
      "stateMutability": "view",
      "type": "function"
    },
    {
      "inputs": [],
      "name": "token",
      "outputs": [
        {
          "internalType": "contract IERC20Upgradeable",
          "name": "",
          "type": "address"
        }
      ],
      "stateMutability": "view",
      "type": "function"
    },
    {
      "inputs": [],
      "name": "tokenVault",
      "outputs": [
        {
          "internalType": "contract TokenVault",
          "name": "",
          "type": "address"
        }
      ],
      "stateMutability": "view",
      "type": "function"
    },
    {
      "inputs": [
        {
          "internalType": "address",
          "name": "",
          "type": "address"
        }
      ],
      "name": "tokensLocked",
      "outputs": [
        {
          "internalType": "uint256",
          "name": "amount",
          "type": "uint256"
        },
        {
          "internalType": "uint256",
          "name": "timestamp",
          "type": "uint256"
        }
      ],
      "stateMutability": "view",
      "type": "function"
    },
    {
      "inputs": [],
      "name": "totalLocked",
      "outputs": [
        {
          "internalType": "uint256",
          "name": "",
          "type": "uint256"
        }
      ],
      "stateMutability": "view",
      "type": "function"
    },
    {
      "inputs": [],
      "name": "totalProposals",
      "outputs": [
        {
          "internalType": "uint256",
          "name": "",
          "type": "uint256"
        }
      ],
      "stateMutability": "view",
      "type": "function"
    },
    {
      "inputs": [
        {
          "internalType": "address",
          "name": "newOwner",
          "type": "address"
        }
      ],
      "name": "transferOwnership",
      "outputs": [],
      "stateMutability": "nonpayable",
      "type": "function"
    },
    {
      "inputs": [],
      "name": "voteGas",
      "outputs": [
        {
          "internalType": "uint256",
          "name": "",
          "type": "uint256"
        }
      ],
      "stateMutability": "view",
      "type": "function"
    },
    {
      "inputs": [],
      "name": "votingPowerForProposalCreation",
      "outputs": [
        {
          "internalType": "uint256",
          "name": "",
          "type": "uint256"
        }
      ],
      "stateMutability": "view",
      "type": "function"
    },
    {
      "inputs": [],
      "name": "votingPowerForProposalExecution",
      "outputs": [
        {
          "internalType": "uint256",
          "name": "",
          "type": "uint256"
        }
      ],
      "stateMutability": "view",
      "type": "function"
    },
    {
      "inputs": [
        {
          "internalType": "address",
          "name": "account",
          "type": "address"
        }
      ],
      "name": "votingPowerOf",
      "outputs": [
        {
          "internalType": "uint256",
          "name": "",
          "type": "uint256"
        }
      ],
      "stateMutability": "view",
      "type": "function"
    },
    {
      "inputs": [
        {
          "internalType": "address",
          "name": "account",
          "type": "address"
        },
        {
          "internalType": "uint256",
          "name": "snapshotId",
          "type": "uint256"
        }
      ],
      "name": "votingPowerOfAt",
      "outputs": [
        {
          "internalType": "uint256",
          "name": "",
          "type": "uint256"
        }
      ],
      "stateMutability": "view",
      "type": "function"
    },
    {
      "inputs": [
        {
          "internalType": "address[]",
          "name": "accounts",
          "type": "address[]"
        },
        {
          "internalType": "uint256[]",
          "name": "snapshotIds",
          "type": "uint256[]"
        }
      ],
      "name": "votingPowerOfMultipleAt",
      "outputs": [
        {
          "internalType": "uint256[]",
          "name": "",
          "type": "uint256[]"
        }
      ],
      "stateMutability": "view",
      "type": "function"
    },
    {
      "inputs": [
        {
          "internalType": "uint256",
          "name": "",
          "type": "uint256"
        }
      ],
      "name": "withdrawTokens",
      "outputs": [],
      "stateMutability": "nonpayable",
      "type": "function"
    }
  ],
  "bytecode": "0x608060405234801561001057600080fd5b506153dc806100206000396000f3fe608060405260043610620003e55760003560e01c80636e27d8891162000203578063b3b470611162000117578063e045035311620000a7578063f4732da61162000075578063f4732da61462000bec578063f9a92d821462000c04578063fc0c546a1462000c29578063fc4e703f1462000c4b57005b8063e04503531462000b54578063e158080a1462000b6c578063f09951981462000b84578063f2fde38b1462000bc757005b8063c0a4d64d11620000e5578063c0a4d64d1462000ae9578063c93e01e31462000b00578063d54d299e1462000b17578063d8c6a6d11462000b2f57005b8063b3b470611462000a70578063b50e868f1462000a95578063b7c15f8d1462000aad578063bcc3f3bd1462000ac457005b806392b716541162000193578063ad6c1e341162000161578063ad6c1e3414620009e8578063adf2c7b614620009ff578063ae6192341462000a33578063b3929aaa1462000a4b57005b806392b716541462000973578063a16fe3421462000998578063a78d80fc14620009b8578063a7aeb55714620009d057005b80638029eff111620001d15780638029eff114620008f157806389c98c0614620009255780638da5cb5b146200093c5780638f180305146200095c57005b80636e27d889146200070a578063715018a614620008915780637189354614620008a957806377027ff414620008da57005b80632467ef9411620002fb5780633de39c11116200028b5780635689141211620002595780635689141214620008295780635bc789d9146200084157806364fe6ed214620008635780636c8b72f6146200087a57005b80633de39c1114620007a55780633f10cf1514620007bd578063430694cf14620007d557806354f2f7af146200080957005b8063315a095d11620002c9578063315a095d146200070a57806332ed5b12146200072f57806336f8f8d914620007685780633bf353fb146200078d57005b80632467ef94146200064c5780632d5b17de14620006635780632d757c3e14620006885780632fd99c0014620006c557005b806316bbecde116200037757806321070e8d116200034557806321070e8d14620005a657806321df0da714620005d05780632229a0e2146200060457806322bafdff146200061b57005b806316bbecde146200053a57806317d7de7c146200055f578063184a0ae914620005775780631a5007dd146200058f57005b80630d66808711620003b55780630d66808714620004b3578063123f6d6714620004cb578063130485fe14620004f057806313108d74146200051557005b80623a40d014620003e757806301a598a6146200041757806306fdde0314620004655780630a366a63146200048c575b005b348015620003f457600080fd5b50620003ff62000c63565b6040516200040e919062003c1c565b60405180910390f35b3480156200042457600080fd5b506200044f6200043636600462003c7f565b6012602052600090815260409020805460019091015482565b604080519283526020830191909152016200040e565b3480156200047257600080fd5b506200047d62000cbd565b6040516200040e919062003ce5565b3480156200049957600080fd5b50620004a462000d53565b6040519081526020016200040e565b348015620004c057600080fd5b50620004a4600d5481565b348015620004d857600080fd5b50620003e5620004ea36600462003cfa565b62000d80565b348015620004fd57600080fd5b506200044f6200050f36600462003d63565b62000f19565b3480156200052257600080fd5b50620004a46200053436600462004000565b62000f4b565b3480156200054757600080fd5b50620003e562000559366004620040ea565b62000ff2565b3480156200056c57600080fd5b506200047d62001123565b3480156200058457600080fd5b50620004a460035481565b3480156200059c57600080fd5b50600a54620004a4565b348015620005b357600080fd5b50620005bd600a81565b60405160ff90911681526020016200040e565b348015620005dd57600080fd5b506000546001600160a01b03165b6040516001600160a01b0390911681526020016200040e565b3480156200061157600080fd5b50601654620004a4565b3480156200062857600080fd5b50620004a46200063a36600462004117565b6000908152607c602052604090205490565b3480156200065957600080fd5b50600c54620004a4565b3480156200067057600080fd5b50620003e56200068236600462004131565b620011b4565b3480156200069557600080fd5b50620004a4620006a736600462003c7f565b6001600160a01b031660009081526012602052604090206001015490565b348015620006d257600080fd5b50620006f9620006e436600462004117565b60136020526000908152604090205460ff1681565b60405190151581526020016200040e565b3480156200071757600080fd5b50620003e56200072936600462004117565b620014a7565b3480156200073c57600080fd5b50620007546200074e36600462004117565b62001504565b6040516200040e96959493929190620041db565b3480156200077557600080fd5b50620003e5620007873660046200423b565b62001668565b3480156200079a57600080fd5b50620004a4600c5481565b348015620007b257600080fd5b50620004a460085481565b348015620007ca57600080fd5b50620004a460045481565b348015620007e257600080fd5b50620007fa620007f436600462004117565b62001850565b6040516200040e9190620043c3565b3480156200081657600080fd5b506011546001600160a01b0316620005eb565b3480156200083657600080fd5b50620004a4600e5481565b3480156200084e57600080fd5b50601154620005eb906001600160a01b031681565b3480156200087057600080fd5b50601054620004a4565b3480156200088757600080fd5b50600754620004a4565b3480156200089e57600080fd5b50620003e562001c03565b348015620008b657600080fd5b50620004a4620008c836600462004117565b607c6020526000908152604090205481565b348015620008e757600080fd5b50600954620004a4565b348015620008fe57600080fd5b50620006f96200091036600462004117565b60009081526013602052604090205460ff1690565b3480156200093257600080fd5b50600854620004a4565b3480156200094957600080fd5b50604a546001600160a01b0316620005eb565b3480156200096957600080fd5b50600b54620004a4565b3480156200098057600080fd5b50620004a462000992366004620044d0565b62001c6d565b348015620009a557600080fd5b506001546001600160a01b0316620005eb565b348015620009c557600080fd5b50620004a4600a5481565b348015620009dd57600080fd5b50620004a4600f5481565b348015620009f557600080fd5b50600f54620004a4565b34801562000a0c57600080fd5b5062000a2462000a1e3660046200450c565b62001cc4565b6040516200040e919062004577565b34801562000a4057600080fd5b50620004a462001da2565b34801562000a5857600080fd5b50620004a462000a6a36600462004117565b62001dbc565b34801562000a7d57600080fd5b50620003e562000a8f36600462004117565b62001dde565b34801562000aa257600080fd5b50620004a460065481565b34801562000aba57600080fd5b50600454620004a4565b34801562000ad157600080fd5b50620004a462000ae336600462003c7f565b6200273f565b34801562000af657600080fd5b50600d54620004a4565b34801562000b0d57600080fd5b50600354620004a4565b34801562000b2457600080fd5b50620004a460055481565b34801562000b3c57600080fd5b50620004a462000b4e36600462004117565b620027b1565b34801562000b6157600080fd5b50620004a460095481565b34801562000b7957600080fd5b50620004a460105481565b34801562000b9157600080fd5b506200044f62000ba336600462003d63565b60146020908152600092835260408084209091529082529020805460019091015482565b34801562000bd457600080fd5b50620003e562000be636600462003c7f565b62002850565b34801562000bf957600080fd5b50620004a462002921565b34801562000c1157600080fd5b50620004a462000c233660046200458c565b6200299c565b34801562000c3657600080fd5b50600054620005eb906001600160a01b031681565b34801562000c5857600080fd5b50620004a460075481565b6060601680548060200260200160405190810160405280929190818152602001828054801562000cb357602002820191906000526020600020905b81548152602001906001019080831162000c9e575b5050505050905090565b6002805462000ccc90620045b9565b80601f016020809104026020016040519081016040528092919081815260200182805462000cfa90620045b9565b801562000d4b5780601f1062000d1f5761010080835404028352916020019162000d4b565b820191906000526020600020905b81548152906001019060200180831162000d2d57829003601f168201915b505050505081565b600062000d7b61271062000d7460065462000d6d62002921565b9062002a1c565b9062002a2a565b905090565b33301462000e065760405162461bcd60e51b815260206004820152604260248201527f45524332304775696c643a204f6e6c792063616c6c61626c652062792045524360448201527f32306775696c6420697473656c66206f72207768656e20696e697469616c697a606482015261195960f21b608482015260a4015b60405180910390fd5b60008a1162000e295760405162461bcd60e51b815260040162000dfd90620045f5565b8983101562000e4c5760405162461bcd60e51b815260040162000dfd9062004644565b6000881162000e6f5760405162461bcd60e51b815260040162000dfd90620046a1565b6201c90886111562000eea5760405162461bcd60e51b815260206004820152603960248201527f45524332304775696c643a20766f7465206761732068617320746f206265206560448201527f7175616c206f72206c6f776572207468616e2031313730303000000000000000606482015260840162000dfd565b600399909955600497909755600595909555600693909355600791909155600855600955600d55600f55601055565b60008281526014602090815260408083206001600160a01b0385168452909152902080546001909101545b9250929050565b60008062000f5e88888888888862002a38565b905060008054906101000a90046001600160a01b03166001600160a01b0316635439ad866040518163ffffffff1660e01b8152600401602060405180830381865afa15801562000fb2573d6000803e3d6000fd5b505050506040513d601f19601f8201168201806040525081019062000fd89190620046fe565b6000828152607c6020526040902055979650505050505050565b6000838152601560205260409020600201544210620010255760405162461bcd60e51b815260040162000dfd9062004718565b6000838152607c60205260409020548190620010439033906200299c565b1015620010645760405162461bcd60e51b815260040162000dfd906200476e565b6000838152601460209081526040808320338452909152902054158015620010a657506000838152601460209081526040808320338452909152902060010154155b80620010f15750600083815260146020908152604080832033845290915290205482148015620010f15750600083815260146020908152604080832033845290915290206001015481115b620011105760405162461bcd60e51b815260040162000dfd90620047bf565b6200111e3384848462003011565b505050565b6060600280546200113490620045b9565b80601f01602080910402602001604051908101604052809291908181526020018280546200116290620045b9565b801562000cb35780601f10620011875761010080835404028352916020019162000cb3565b820191906000526020600020905b8154815290600101906020018083116200119557509395945050505050565b6000858152601560205260409020600201544210620011e75760405162461bcd60e51b815260040162000dfd9062004718565b6000620011f78387878762001c6d565b60008181526013602052604090205490915060ff1615620012675760405162461bcd60e51b8152602060048201526024808201527f536e617073686f7452657045524332304775696c643a20416c726561647920766044820152631bdd195960e21b606482015260840162000dfd565b620012cb82620012c4836040517f19457468657265756d205369676e6564204d6573736167653a0a3332000000006020820152603c8101829052600090605c01604051602081830303815290604052805190602001209050919050565b9062003272565b6001600160a01b0316836001600160a01b031614620013395760405162461bcd60e51b815260206004820152602360248201527f536e617073686f7452657045524332304775696c643a2057726f6e67207369676044820152623732b960e91b606482015260840162000dfd565b6000818152601360209081526040808320805460ff19166001179055888352607c90915290205484906200136f9085906200299c565b10158015620013a2575060008681526014602090815260408083206001600160a01b038716845290915290206001015484115b620013c15760405162461bcd60e51b815260040162000dfd906200476e565b60008681526014602090815260408083206001600160a01b038716845290915290205415801562001415575060008681526014602090815260408083206001600160a01b0387168452909152902060010154155b8062001472575060008681526014602090815260408083206001600160a01b03871684529091529020548514801562001472575060008681526014602090815260408083206001600160a01b038716845290915290206001015484115b620014915760405162461bcd60e51b815260040162000dfd90620047bf565b6200149f8387878762003011565b505050505050565b60405162461bcd60e51b815260206004820152602b60248201527f536e617073686f7452657045524332304775696c643a20746f6b656e2076617560448201526a1b1d08191a5cd8589b195960aa1b606482015260840162000dfd565b60156020526000908152604090208054600182015460028301546006840180546001600160a01b039094169492939192916200154090620045b9565b80601f01602080910402602001604051908101604052809291908181526020018280546200156e90620045b9565b8015620015bf5780601f106200159357610100808354040283529160200191620015bf565b820191906000526020600020905b815481529060010190602001808311620015a157829003601f168201915b505050505090806007018054620015d690620045b9565b80601f01602080910402602001604051908101604052809291908181526020018280546200160490620045b9565b8015620016555780601f10620016295761010080835404028352916020019162001655565b820191906000526020600020905b8154815290600101906020018083116200163757829003601f168201915b5050506008909301549192505060ff1686565b60175462010000900460ff1680620016885750601754610100900460ff16155b620016a75760405162461bcd60e51b815260040162000dfd9062004831565b60175462010000900460ff16158015620016cd576017805462ffff001916620101001790555b620016d762003292565b620016ec8c8c8c8c8c8c8c8c8c8c8c62003321565b600160009054906101000a90046001600160a01b03166001600160a01b0316636cfe0489308e7f40c10f19c047ae7dfa66d6312b683d2ea3dfbcb4159e96b967c5f4b0a86f2842600060016040518663ffffffff1660e01b8152600401620017599594939291906200487f565b600060405180830381600087803b1580156200177457600080fd5b505af115801562001789573d6000803e3d6000fd5b50505050600160009054906101000a90046001600160a01b03166001600160a01b0316636cfe0489308e7f9dc29fac0ba6d4fc521c69c2b0c636d612e3343bc39ed934429b8876b0d12cba600060016040518663ffffffff1660e01b8152600401620017fa9594939291906200487f565b600060405180830381600087803b1580156200181557600080fd5b505af11580156200182a573d6000803e3d6000fd5b50505050801562001842576017805462ff0000191690555b505050505050505050505050565b6200185a62003a26565b60008281526015602090815260409182902082516101408101845281546001600160a01b031681526001820154818401526002820154818501526003820180548551818602810186019096528086529194929360608601939290830182828015620018ef57602002820191906000526020600020905b81546001600160a01b03168152600190910190602001808311620018d0575b5050505050815260200160048201805480602002602001604051908101604052809291908181526020016000905b82821015620019d35783829060005260206000200180546200193f90620045b9565b80601f01602080910402602001604051908101604052809291908181526020018280546200196d90620045b9565b8015620019be5780601f106200199257610100808354040283529160200191620019be565b820191906000526020600020905b815481529060010190602001808311620019a057829003601f168201915b5050505050815260200190600101906200191d565b5050505081526020016005820180548060200260200160405190810160405280929190818152602001828054801562001a2c57602002820191906000526020600020905b81548152602001906001019080831162001a17575b5050505050815260200160068201805462001a4790620045b9565b80601f016020809104026020016040519081016040528092919081815260200182805462001a7590620045b9565b801562001ac65780601f1062001a9a5761010080835404028352916020019162001ac6565b820191906000526020600020905b81548152906001019060200180831162001aa857829003601f168201915b5050505050815260200160078201805462001ae190620045b9565b80601f016020809104026020016040519081016040528092919081815260200182805462001b0f90620045b9565b801562001b605780601f1062001b345761010080835404028352916020019162001b60565b820191906000526020600020905b81548152906001019060200180831162001b4257829003601f168201915b5050509183525050600882015460209091019060ff16600481111562001b8a5762001b8a620041a2565b600481111562001b9e5762001b9e620041a2565b81526020016009820180548060200260200160405190810160405280929190818152602001828054801562001bf357602002820191906000526020600020905b81548152602001906001019080831162001bde575b5050505050815250509050919050565b604a546001600160a01b0316331462001c5f5760405162461bcd60e51b815260206004820181905260248201527f4f776e61626c653a2063616c6c6572206973206e6f7420746865206f776e6572604482015260640162000dfd565b62001c6b600062003540565b565b6040516bffffffffffffffffffffffff19606086901b166020820152603481018490526054810183905260748101829052600090609401604051602081830303815290604052805190602001209050949350505050565b60606000835167ffffffffffffffff81111562001ce55762001ce562003d92565b60405190808252806020026020018201604052801562001d0f578160200160208202803683370190505b50905060005b845181101562001d985762001d6385828151811062001d385762001d38620048ba565b602002602001015185838151811062001d555762001d55620048ba565b60200260200101516200299c565b82828151811062001d785762001d78620048ba565b60209081029190910101528062001d8f81620048e6565b91505062001d15565b5090505b92915050565b600062000d7b61271062000d7460055462000d6d62002921565b6016818154811062001dcd57600080fd5b600091825260209091200154905081565b60175460ff161562001e465760405162461bcd60e51b815260206004820152602a60248201527f4552433230536e617073686f745265703a2050726f706f73616c20756e6465726044820152691032bc32b1baba34b7b760b11b606482015260840162000dfd565b600160008281526015602052604090206008015460ff16600481111562001e715762001e71620041a2565b1462001ed45760405162461bcd60e51b815260206004820152602b60248201527f4552433230536e617073686f745265703a2050726f706f73616c20616c72656160448201526a191e48195e1958dd5d195960aa1b606482015260840162000dfd565b600081815260156020526040902060020154421162001f4a5760405162461bcd60e51b815260206004820152602b60248201527f4552433230536e617073686f745265703a2050726f706f73616c206861736e2760448201526a1d08195b991959081e595d60aa1b606482015260840162000dfd565b60008181526015602052604081206009018054829190829062001f715762001f71620048ba565b600091825260209091200154905060015b600084815260156020526040902060090154811015620020b15762001fa784620027b1565b600085815260156020526040902060090180548390811062001fcd5762001fcd620048ba565b90600052602060002001541015801562002019575060008481526015602052604090206009018054839190839081106200200b576200200b620048ba565b906000526020600020015410155b156200209c576000848152601560205260409020600901805483919083908110620020485762002048620048ba565b9060005260206000200154036200206357600092506200209c565b600084815260156020526040902060090180549193508391829081106200208e576200208e620048ba565b906000526020600020015491505b80620020a881620048e6565b91505062001f82565b8260000362002104576000848152601560205260409020600801805460ff19166002908117909155849060008051602062005387833981519152905b60405190815260200160405180910390a262002726565b600454600085815260156020526040902060020154429162002127919062003592565b101562002166576000848152601560205260409020600801805460ff1916600490811790915584906000805160206200538783398151915290620020ed565b600084815260156020526040812060088101805460ff1916600317905560090154620021b29062002199906001620035a0565b6000878152601560205260409020600301549062002a2a565b9050620021cd620021c5856001620035a0565b829062002a1c565b91506000620021dd838362003592565b9050600160009054906101000a90046001600160a01b03166001600160a01b0316633e7a47b26040518163ffffffff1660e01b8152600401600060405180830381600087803b1580156200223057600080fd5b505af115801562002245573d6000803e3d6000fd5b505050505b808310156200268d576000868152601560205260408120600301805485908110620022795762002279620048ba565b6000918252602090912001546001600160a01b031614801590620022d957506000868152601560205260408120600401805485908110620022be57620022be620048ba565b906000526020600020018054620022d590620045b9565b9050115b1562002678576000868152601560205260408120600401805485908110620023055762002305620048ba565b9060005260206000200180546200231c90620045b9565b80601f01602080910402602001604051908101604052809291908181526020018280546200234a90620045b9565b80156200239b5780601f106200236f576101008083540402835291602001916200239b565b820191906000526020600020905b8154815290600101906020018083116200237d57829003601f168201915b50505060208084015160015460008d815260159093526040909220600301805495965090946001600160a01b03909216935063eed470339250309189908110620023e957620023e9620048ba565b9060005260206000200160009054906101000a90046001600160a01b031684601560008e81526020019081526020016000206005018a81548110620024325762002432620048ba565b60009182526020909120015460405160e086901b6001600160e01b031990811682526001600160a01b039586166004830152939094166024850152911660448301526064820152608401600060405180830381600087803b1580156200249757600080fd5b505af1925050508015620024a9575060015b6200250457620024b862004902565b806308c379a003620024f85750620024cf6200491f565b80620024dc5750620024fa565b8060405162461bcd60e51b815260040162000dfd919062003ce5565b505b3d6000803e3d6000fd5b6017805460ff191660011790556000888152601560205260408120600301805487908110620025375762002537620048ba565b60009182526020808320909101548b83526015909152604090912060050180546001600160a01b039092169188908110620025765762002576620048ba565b9060005260206000200154601560008c81526020019081526020016000206004018881548110620025ab57620025ab620048ba565b90600052602060002001604051620025c49190620049af565b60006040518083038185875af1925050503d806000811462002603576040519150601f19603f3d011682016040523d82523d6000602084013e62002608565b606091505b50509050806200266a5760405162461bcd60e51b815260206004820152602660248201527f4552433230536e617073686f745265703a2050726f706f73616c2063616c6c2060448201526519985a5b195960d21b606482015260840162000dfd565b50506017805460ff19169055505b826200268481620048e6565b9350506200224a565b60015460405163fb0fde8560e01b81523060048201526001600160a01b039091169063fb0fde85906024016020604051808303816000875af1158015620026d8573d6000803e3d6000fd5b505050506040513d601f19601f82011682018060405250810190620026fe919062004a2d565b508560008051602062005387833981519152600360405190815260200160405180910390a250505b600c5462002736906001620035a0565b600c5550505050565b600080546040516370a0823160e01b81526001600160a01b038481166004830152909116906370a0823190602401602060405180830381865afa1580156200278b573d6000803e3d6000fd5b505050506040513d601f19601f8201168201806040525081019062001d9c9190620046fe565b60055460008054909162001d9c916127109162000d74916001600160a01b031663981b24d0620027ed886000908152607c602052604090205490565b6040518263ffffffff1660e01b81526004016200280c91815260200190565b602060405180830381865afa1580156200282a573d6000803e3d6000fd5b505050506040513d601f19601f8201168201806040525081019062000d6d9190620046fe565b604a546001600160a01b03163314620028ac5760405162461bcd60e51b815260206004820181905260248201527f4f776e61626c653a2063616c6c6572206973206e6f7420746865206f776e6572604482015260640162000dfd565b6001600160a01b038116620029135760405162461bcd60e51b815260206004820152602660248201527f4f776e61626c653a206e6577206f776e657220697320746865207a65726f206160448201526564647265737360d01b606482015260840162000dfd565b6200291e8162003540565b50565b60008060009054906101000a90046001600160a01b03166001600160a01b03166318160ddd6040518163ffffffff1660e01b8152600401602060405180830381865afa15801562002976573d6000803e3d6000fd5b505050506040513d601f19601f8201168201806040525081019062000d7b9190620046fe565b6000805460405163277166bf60e11b81526001600160a01b0385811660048301526024820185905290911690634ee2cd7e90604401602060405180830381865afa158015620029ef573d6000803e3d6000fd5b505050506040513d601f19601f8201168201806040525081019062002a159190620046fe565b9392505050565b600062002a15828462004a51565b600062002a15828462004a81565b6000601054600e54101562002ab65760405162461bcd60e51b815260206004820152603960248201527f45524332304775696c643a204e6f7420656e6f75676820746f6b656e73206c6f60448201527f636b656420746f2063726561746520612070726f706f73616c00000000000000606482015260840162000dfd565b600f54600b54101562002b285760405162461bcd60e51b815260206004820152603360248201527f45524332304775696c643a204e6f7420656e6f756768206d656d6265727320746044820152721bc818dc99585d194818481c1c9bdc1bdcd85b606a1b606482015260840162000dfd565b600954600c541062002b9c5760405162461bcd60e51b815260206004820152603660248201527f45524332304775696c643a204d6178696d756d20616d6f756e74206f662061636044820152751d1a5d99481c1c9bdc1bdcd85b1cc81c995858da195960521b606482015260840162000dfd565b62002ba662000d53565b62002bb1336200273f565b101562002c1f5760405162461bcd60e51b815260206004820152603560248201527f45524332304775696c643a204e6f7420656e6f75676820766f74696e67506f77604482015274195c881d1bc818dc99585d19481c1c9bdc1bdcd85b605a1b606482015260840162000dfd565b8551875114801562002c32575084518751145b62002c9d5760405162461bcd60e51b815260206004820152603460248201527f45524332304775696c643a2057726f6e67206c656e677468206f6620746f2c2060448201527364617461206f722076616c75652061727261797360601b606482015260840162000dfd565b600087511162002d0a5760405162461bcd60e51b815260206004820152603160248201527f45524332304775696c643a20746f2c20646174612076616c7565206172726179604482015270732063616e6e6f7420626520656d70747960781b606482015260840162000dfd565b8651841115801562002d275750845162002d259085620035ae565b155b62002d9b5760405162461bcd60e51b815260206004820152603760248201527f45524332304775696c643a20496e76616c696420746f74616c416374696f6e7360448201527f206f7220616374696f6e2063616c6c73206c656e677468000000000000000000606482015260840162000dfd565b600a84111562002e145760405162461bcd60e51b815260206004820152603a60248201527f45524332304775696c643a204d6178696d756d20616d6f756e74206f6620616360448201527f74696f6e73207065722070726f706f73616c2072656163686564000000000000606482015260840162000dfd565b600a546040516bffffffffffffffffffffffff193360601b166020820152426034820152605481019190915260009060740160405160208183030381529060405280519060200120905062002e766001600a546200359290919063ffffffff16565b600a55600081815260156020526040902080546001600160a01b03191633178155426001820181905560035462002eae919062003592565b6002820155885162002eca90600383019060208c019062003a96565b50875162002ee290600483019060208b019062003b00565b50865162002efa90600583019060208a019062003b59565b506006810162002f0b868262004ae2565b506007810162002f1c858262004ae2565b5062002f2a86600162003592565b67ffffffffffffffff81111562002f455762002f4562003d92565b60405190808252806020026020018201604052801562002f6f578160200160208202803683370190505b50805162002f8891600984019160209091019062003b59565b5060088101805460ff19166001908117909155600c5462002fa99162003592565b600c558160008051602062005387833981519152600160405190815260200160405180910390a250601680546001810182556000919091527fd833147d7dc355ba459fc788f669e58cfaf9dc25ddcd0702e87d69c7b512428901819055979650505050505050565b60008381526014602090815260408083206001600160a01b03881684528252808320600101548684526015909252909120600901805462003087928492620030809287908110620030665762003066620048ba565b9060005260206000200154620035a090919063ffffffff16565b9062003592565b6000848152601560205260409020600901805484908110620030ad57620030ad620048ba565b60009182526020808320909101929092558481526014825260408082206001600160a01b038816835283528082208581556001018490558582526015909252206002015462003114856001600160a01b031660009081526012602052604090206001015490565b101562003149576000838152601560209081526040808320600201546001600160a01b03881684526012909252909120600101555b604080516001600160a01b038616815260208101839052839185917f583c62f152711bcb1ca6186c1065821ff17a7cbe226dcb559a1c889dcf0d769b910160405180910390a3600754156200326c576000620031bf620031b56008543a620035bc90919063ffffffff16565b6007549062002a1c565b9050804710158015620031d15750333b155b156200326a57604051600090339083908381818185875af1925050503d80600081146200321b576040519150601f19603f3d011682016040523d82523d6000602084013e62003220565b606091505b50509050806200149f5760405162461bcd60e51b81526020600482015260146024820152734661696c656420746f20726566756e642067617360601b604482015260640162000dfd565b505b50505050565b6000806000620032838585620035d4565b9150915062001d988162003648565b60175462010000900460ff1680620032b25750601754610100900460ff16155b620032d15760405162461bcd60e51b815260040162000dfd9062004831565b60175462010000900460ff16158015620032f7576017805462ffff001916620101001790555b6200330162003816565b6200330b62003890565b80156200291e576017805462ff00001916905550565b60175462010000900460ff1680620033415750601754610100900460ff16155b620033605760405162461bcd60e51b815260040162000dfd9062004831565b60175462010000900460ff1615801562003386576017805462ffff001916620101001790555b6001600160a01b038c16620033ed5760405162461bcd60e51b815260206004820152602660248201527f45524332304775696c643a20746f6b656e2063616e74206265207a65726f206160448201526564647265737360d01b606482015260840162000dfd565b60008b11620034105760405162461bcd60e51b815260040162000dfd90620045f5565b8a831015620034335760405162461bcd60e51b815260040162000dfd9062004644565b60008911620034565760405162461bcd60e51b815260040162000dfd90620046a1565b600262003464888262004ae2565b50600080546001600160a01b0319166001600160a01b038e169081179091556040513090620034939062003b97565b6001600160a01b03928316815291166020820152604001604051809103906000f080158015620034c7573d6000803e3d6000fd5b50601180546001600160a01b03199081166001600160a01b039384161790915560038d905560048c905560058b905560068a9055600788905560088790556009869055600d85905560018054909116918416919091179055801562001842576017805462ff000019169055505050505050505050505050565b604a80546001600160a01b038381166001600160a01b0319831681179093556040519116919082907f8be0079c531659141344cd1fd0a4f28419497f9722a3daafe3b4186f6b6457e090600090a35050565b600062002a15828462004baf565b600062002a15828462004bc5565b600062002a15828462004bdb565b6000818310620035cd578162002a15565b5090919050565b60008082516041036200360e5760208301516040840151606085015160001a620036018782858562003900565b9450945050505062000f44565b82516040036200363b57602083015160408401516200362f868383620039f5565b93509350505062000f44565b5060009050600262000f44565b60008160048111156200365f576200365f620041a2565b03620036685750565b60018160048111156200367f576200367f620041a2565b03620036ce5760405162461bcd60e51b815260206004820152601860248201527f45434453413a20696e76616c6964207369676e61747572650000000000000000604482015260640162000dfd565b6002816004811115620036e557620036e5620041a2565b03620037345760405162461bcd60e51b815260206004820152601f60248201527f45434453413a20696e76616c6964207369676e6174757265206c656e67746800604482015260640162000dfd565b60038160048111156200374b576200374b620041a2565b03620037a55760405162461bcd60e51b815260206004820152602260248201527f45434453413a20696e76616c6964207369676e6174757265202773272076616c604482015261756560f01b606482015260840162000dfd565b6004816004811115620037bc57620037bc620041a2565b036200291e5760405162461bcd60e51b815260206004820152602260248201527f45434453413a20696e76616c6964207369676e6174757265202776272076616c604482015261756560f01b606482015260840162000dfd565b60175462010000900460ff1680620038365750601754610100900460ff16155b620038555760405162461bcd60e51b815260040162000dfd9062004831565b60175462010000900460ff161580156200330b576017805462ffff0019166201010017905580156200291e576017805462ff00001916905550565b60175462010000900460ff1680620038b05750601754610100900460ff16155b620038cf5760405162461bcd60e51b815260040162000dfd9062004831565b60175462010000900460ff16158015620038f5576017805462ffff001916620101001790555b6200330b3362003540565b6000807f7fffffffffffffffffffffffffffffff5d576e7357a4501ddfe92f46681b20a0831115620039395750600090506003620039ec565b8460ff16601b141580156200395257508460ff16601c14155b15620039655750600090506004620039ec565b6040805160008082526020820180845289905260ff881692820192909252606081018690526080810185905260019060a0016020604051602081039080840390855afa158015620039ba573d6000803e3d6000fd5b5050604051601f1901519150506001600160a01b038116620039e557600060019250925050620039ec565b9150600090505b94509492505050565b6000806001600160ff1b03831660ff84901c601b0162003a188782888562003900565b935093505050935093915050565b60405180610140016040528060006001600160a01b03168152602001600081526020016000815260200160608152602001606081526020016060815260200160608152602001606081526020016000600481111562003a895762003a89620041a2565b8152602001606081525090565b82805482825590600052602060002090810192821562003aee579160200282015b8281111562003aee57825182546001600160a01b0319166001600160a01b0390911617825560209092019160019091019062003ab7565b5062003afc92915062003ba5565b5090565b82805482825590600052602060002090810192821562003b4b579160200282015b8281111562003b4b578251829062003b3a908262004ae2565b509160200191906001019062003b21565b5062003afc92915062003bbc565b82805482825590600052602060002090810192821562003aee579160200282015b8281111562003aee57825182559160200191906001019062003b7a565b6107948062004bf383390190565b5b8082111562003afc576000815560010162003ba6565b8082111562003afc57600062003bd3828262003bdd565b5060010162003bbc565b50805462003beb90620045b9565b6000825580601f1062003bfc575050565b601f0160209004906000526020600020908101906200291e919062003ba5565b6020808252825182820181905260009190848201906040850190845b8181101562003c565783518352928401929184019160010162003c38565b50909695505050505050565b80356001600160a01b038116811462003c7a57600080fd5b919050565b60006020828403121562003c9257600080fd5b62002a158262003c62565b6000815180845260005b8181101562003cc55760208185018101518683018201520162003ca7565b506000602082860101526020601f19601f83011685010191505092915050565b60208152600062002a15602083018462003c9d565b6000806000806000806000806000806101408b8d03121562003d1b57600080fd5b505088359a60208a01359a5060408a013599606081013599506080810135985060a0810135975060c0810135965060e081013595506101008101359450610120013592509050565b6000806040838503121562003d7757600080fd5b8235915062003d896020840162003c62565b90509250929050565b634e487b7160e01b600052604160045260246000fd5b601f8201601f1916810167ffffffffffffffff8111828210171562003dd15762003dd162003d92565b6040525050565b600067ffffffffffffffff82111562003df55762003df562003d92565b5060051b60200190565b600082601f83011262003e1157600080fd5b8135602062003e208262003dd8565b60405162003e2f828262003da8565b83815260059390931b850182019282810191508684111562003e5057600080fd5b8286015b8481101562003e765762003e688162003c62565b835291830191830162003e54565b509695505050505050565b600082601f83011262003e9357600080fd5b813567ffffffffffffffff81111562003eb05762003eb062003d92565b60405162003ec9601f8301601f19166020018262003da8565b81815284602083860101111562003edf57600080fd5b816020850160208301376000918101602001919091529392505050565b600082601f83011262003f0e57600080fd5b8135602062003f1d8262003dd8565b60405162003f2c828262003da8565b83815260059390931b850182019282810191508684111562003f4d57600080fd5b8286015b8481101562003e7657803567ffffffffffffffff81111562003f735760008081fd5b62003f838986838b010162003e81565b84525091830191830162003f51565b600082601f83011262003fa457600080fd5b8135602062003fb38262003dd8565b60405162003fc2828262003da8565b83815260059390931b850182019282810191508684111562003fe357600080fd5b8286015b8481101562003e76578035835291830191830162003fe7565b60008060008060008060c087890312156200401a57600080fd5b863567ffffffffffffffff808211156200403357600080fd5b620040418a838b0162003dff565b975060208901359150808211156200405857600080fd5b620040668a838b0162003efc565b965060408901359150808211156200407d57600080fd5b6200408b8a838b0162003f92565b9550606089013594506080890135915080821115620040a957600080fd5b620040b78a838b0162003e81565b935060a0890135915080821115620040ce57600080fd5b50620040dd89828a0162003e81565b9150509295509295509295565b6000806000606084860312156200410057600080fd5b505081359360208301359350604090920135919050565b6000602082840312156200412a57600080fd5b5035919050565b600080600080600060a086880312156200414a57600080fd5b8535945060208601359350604086013592506200416a6060870162003c62565b9150608086013567ffffffffffffffff8111156200418757600080fd5b620041958882890162003e81565b9150509295509295909350565b634e487b7160e01b600052602160045260246000fd5b60058110620041d757634e487b7160e01b600052602160045260246000fd5b9052565b60018060a01b038716815285602082015284604082015260c0606082015260006200420a60c083018662003c9d565b82810360808401526200421e818662003c9d565b9150506200423060a0830184620041b8565b979650505050505050565b60008060008060008060008060008060006101608c8e0312156200425e57600080fd5b620042698c62003c62565b9a5060208c0135995060408c0135985060608c0135975060808c0135965060a08c013567ffffffffffffffff811115620042a257600080fd5b620042b08e828f0162003e81565b96505060c08c0135945060e08c013593506101008c013592506101208c01359150620042e06101408d0162003c62565b90509295989b509295989b9093969950565b600081518084526020808501945080840160005b838110156200432d5781516001600160a01b03168752958201959082019060010162004306565b509495945050505050565b600081518084526020808501808196508360051b8101915082860160005b85811015620043845782840389526200437184835162003c9d565b9885019893509084019060010162004356565b5091979650505050505050565b600081518084526020808501945080840160005b838110156200432d57815187529582019590820190600101620043a5565b60208152620043de6020820183516001600160a01b03169052565b60208201516040820152604082015160608201526000606083015161014080608085015262004412610160850183620042f2565b91506080850151601f19808685030160a087015262004432848362004338565b935060a08701519150808685030160c087015262004451848362004391565b935060c08701519150808685030160e087015262004470848362003c9d565b935060e0870151915061010081878603018188015262004491858462003c9d565b945080880151925050610120620044ab81880184620041b8565b870151868503909101838701529050620044c6838262004391565b9695505050505050565b60008060008060808587031215620044e757600080fd5b620044f28562003c62565b966020860135965060408601359560600135945092505050565b600080604083850312156200452057600080fd5b823567ffffffffffffffff808211156200453957600080fd5b620045478683870162003dff565b935060208501359150808211156200455e57600080fd5b506200456d8582860162003f92565b9150509250929050565b60208152600062002a15602083018462004391565b60008060408385031215620045a057600080fd5b620045ab8362003c62565b946020939093013593505050565b600181811c90821680620045ce57607f821691505b602082108103620045ef57634e487b7160e01b600052602260045260246000fd5b50919050565b6020808252602f908201527f45524332304775696c643a2070726f706f73616c2074696d652068617320746f60408201526e0206265206d6f7265207468616e203608c1b606082015260800190565b6020808252603e908201527f45524332304775696c643a206c6f636b54696d652068617320746f206265206860408201527f6967686572206f7220657175616c20746f2070726f706f73616c54696d650000606082015260800190565b6020808252603c908201527f45524332304775696c643a20766f74696e6720706f77657220666f722065786560408201527f637574696f6e2068617320746f206265206d6f7265207468616e203000000000606082015260800190565b6000602082840312156200471157600080fd5b5051919050565b60208082526036908201527f536e617073686f7452657045524332304775696c643a2050726f706f73616c20604082015275195b9919590b0818d85b9b9bdd081899481d9bdd195960521b606082015260800190565b60208082526031908201527f536e617073686f7452657045524332304775696c643a20496e76616c696420766040820152701bdd1a5b99d41bddd95c88185b5bdd5b9d607a1b606082015260800190565b6020808252604c908201527f536e617073686f7452657045524332304775696c643a2043616e6e6f7420636860408201527f616e676520616374696f6e20766f7465642c206f6e6c7920696e63726561736560608201526b103b37ba34b733a837bbb2b960a11b608082015260a00190565b6020808252602e908201527f496e697469616c697a61626c653a20636f6e747261637420697320616c72656160408201526d191e481a5b9a5d1a585b1a5e995960921b606082015260800190565b6001600160a01b0395861681529390941660208401526001600160e01b03199190911660408301526060820152901515608082015260a00190565b634e487b7160e01b600052603260045260246000fd5b634e487b7160e01b600052601160045260246000fd5b600060018201620048fb57620048fb620048d0565b5060010190565b600060033d11156200491c5760046000803e5060005160e01c5b90565b600060443d10156200492e5790565b6040516003193d81016004833e81513d67ffffffffffffffff81602484011181841117156200495f57505050505090565b8285019150815181811115620049785750505050505090565b843d8701016020828501011115620049935750505050505090565b620049a46020828601018762003da8565b509095945050505050565b6000808354620049bf81620045b9565b60018281168015620049da5760018114620049f05762004a21565b60ff198416875282151583028701945062004a21565b8760005260208060002060005b8581101562004a185781548a820152908401908201620049fd565b50505082870194505b50929695505050505050565b60006020828403121562004a4057600080fd5b8151801515811462002a1557600080fd5b808202811582820484141762001d9c5762001d9c620048d0565b634e487b7160e01b600052601260045260246000fd5b60008262004a935762004a9362004a6b565b500490565b601f8211156200111e57600081815260208120601f850160051c8101602086101562004ac15750805b601f850160051c820191505b818110156200149f5782815560010162004acd565b815167ffffffffffffffff81111562004aff5762004aff62003d92565b62004b178162004b108454620045b9565b8462004a98565b602080601f83116001811462004b4f576000841562004b365750858301515b600019600386901b1c1916600185901b1785556200149f565b600085815260208120601f198616915b8281101562004b805788860151825594840194600190910190840162004b5f565b508582101562004b9f5787850151600019600388901b60f8161c191681555b5050505050600190811b01905550565b8082018082111562001d9c5762001d9c620048d0565b8181038181111562001d9c5762001d9c620048d0565b60008262004bed5762004bed62004a6b565b50069056fe608060405234801561001057600080fd5b5060405161079438038061079483398101604081905261002f9161007c565b600080546001600160a01b039384166001600160a01b031991821617909155600180549290931691161790556100af565b80516001600160a01b038116811461007757600080fd5b919050565b6000806040838503121561008f57600080fd5b61009883610060565b91506100a660208401610060565b90509250929050565b6106d6806100be6000396000f3fe608060405234801561001057600080fd5b506004361061007d5760003560e01c80636e9960c31161005b5780636e9960c3146100ef578063f3fef3a314610100578063f851a44014610113578063fc0c546a1461012657600080fd5b806321df0da71461008257806327e235e3146100ac57806347e7ef24146100da575b600080fd5b6000546001600160a01b03165b6040516001600160a01b0390911681526020015b60405180910390f35b6100cc6100ba36600461058a565b60026020526000908152604090205481565b6040519081526020016100a3565b6100ed6100e83660046105a5565b610139565b005b6001546001600160a01b031661008f565b6100ed61010e3660046105a5565b61020a565b60015461008f906001600160a01b031681565b60005461008f906001600160a01b031681565b6001546001600160a01b031633146101af5760405162461bcd60e51b815260206004820152602e60248201527f546f6b656e5661756c743a204465706f736974206d7573742062652073656e7460448201526d103a343937bab3b41030b236b4b760911b60648201526084015b60405180910390fd5b6000546101c7906001600160a01b031683308461025b565b6001600160a01b0382166000908152600260205260409020546101ea90826102cc565b6001600160a01b0390921660009081526002602052604090209190915550565b6001546001600160a01b0316331461022157600080fd5b600054610238906001600160a01b031683836102e1565b6001600160a01b0382166000908152600260205260409020546101ea9082610316565b6040516001600160a01b03808516602483015283166044820152606481018290526102c69085906323b872dd60e01b906084015b60408051601f198184030181529190526020810180516001600160e01b03166001600160e01b031990931692909217909152610322565b50505050565b60006102d882846105e5565b90505b92915050565b6040516001600160a01b03831660248201526044810182905261031190849063a9059cbb60e01b9060640161028f565b505050565b60006102d882846105f8565b6000610377826040518060400160405280602081526020017f5361666545524332303a206c6f772d6c6576656c2063616c6c206661696c6564815250856001600160a01b03166103f49092919063ffffffff16565b8051909150156103115780806020019051810190610395919061060b565b6103115760405162461bcd60e51b815260206004820152602a60248201527f5361666545524332303a204552433230206f7065726174696f6e20646964206e6044820152691bdd081cdd58d8d9595960b21b60648201526084016101a6565b6060610403848460008561040d565b90505b9392505050565b60608247101561046e5760405162461bcd60e51b815260206004820152602660248201527f416464726573733a20696e73756666696369656e742062616c616e636520666f6044820152651c8818d85b1b60d21b60648201526084016101a6565b843b6104bc5760405162461bcd60e51b815260206004820152601d60248201527f416464726573733a2063616c6c20746f206e6f6e2d636f6e747261637400000060448201526064016101a6565b600080866001600160a01b031685876040516104d89190610651565b60006040518083038185875af1925050503d8060008114610515576040519150601f19603f3d011682016040523d82523d6000602084013e61051a565b606091505b509150915061052a828286610535565b979650505050505050565b60608315610544575081610406565b8251156105545782518084602001fd5b8160405162461bcd60e51b81526004016101a6919061066d565b80356001600160a01b038116811461058557600080fd5b919050565b60006020828403121561059c57600080fd5b6102d88261056e565b600080604083850312156105b857600080fd5b6105c18361056e565b946020939093013593505050565b634e487b7160e01b600052601160045260246000fd5b808201808211156102db576102db6105cf565b818103818111156102db576102db6105cf565b60006020828403121561061d57600080fd5b8151801515811461040657600080fd5b60005b83811015610648578181015183820152602001610630565b50506000910152565b6000825161066381846020870161062d565b9190910192915050565b602081526000825180602084015261068c81604085016020870161062d565b601f01601f1916919091016040019291505056fea2646970667358221220a0cce4c1704a1b85c925e0db7e044772b1e42da8ceefa845efd985301083a7d264736f6c63430008110033fee62a9eec0be50eb061c711990ef0f1e17b40ea131d9347b0468acdaf8bf243a264697066735822122029d82ba68f0c499a5dd9b7e168d40550882b91b160477f9d117f7fd94841fc2164736f6c63430008110033",
  "linkReferences": {},
  "deployedLinkReferences": {}
}