{
  "_format": "hh-sol-artifact-1",
  "contractName": "SnapshotERC20Guild",
  "sourceName": "dxdao-contracts/contracts/erc20guild/implementations/SnapshotERC20Guild.sol",
  "abi": [
    {
      "anonymous": false,
      "inputs": [
        {
          "indexed": true,
          "internalType": "bytes32",
          "name": "proposalId",
          "type": "bytes32"
        },
        {
          "indexed": false,
          "internalType": "uint256",
          "name": "newState",
          "type": "uint256"
        }
      ],
      "name": "ProposalStateChanged",
      "type": "event"
    },
    {
      "anonymous": false,
      "inputs": [
        {
          "indexed": false,
          "internalType": "address",
          "name": "voter",
          "type": "address"
        },
        {
          "indexed": false,
          "internalType": "uint256",
          "name": "value",
          "type": "uint256"
        }
      ],
      "name": "TokensLocked",
      "type": "event"
    },
    {
      "anonymous": false,
      "inputs": [
        {
          "indexed": false,
          "internalType": "address",
          "name": "voter",
          "type": "address"
        },
        {
          "indexed": false,
          "internalType": "uint256",
          "name": "value",
          "type": "uint256"
        }
      ],
      "name": "TokensWithdrawn",
      "type": "event"
    },
    {
      "anonymous": false,
      "inputs": [
        {
          "indexed": true,
          "internalType": "bytes32",
          "name": "proposalId",
          "type": "bytes32"
        },
        {
          "indexed": true,
          "internalType": "uint256",
          "name": "option",
          "type": "uint256"
        },
        {
          "indexed": false,
          "internalType": "address",
          "name": "voter",
          "type": "address"
        },
        {
          "indexed": false,
          "internalType": "uint256",
          "name": "votingPower",
          "type": "uint256"
        }
      ],
      "name": "VoteAdded",
      "type": "event"
    },
    {
      "stateMutability": "payable",
      "type": "fallback"
    },
    {
      "inputs": [],
      "name": "MAX_OPTIONS_PER_PROPOSAL",
      "outputs": [
        {
          "internalType": "uint8",
          "name": "",
          "type": "uint8"
        }
      ],
      "stateMutability": "view",
      "type": "function"
    },
    {
      "inputs": [],
      "name": "activeProposalsNow",
      "outputs": [
        {
          "internalType": "uint256",
          "name": "",
          "type": "uint256"
        }
      ],
      "stateMutability": "view",
      "type": "function"
    },
    {
      "inputs": [
        {
          "internalType": "address[]",
          "name": "to",
          "type": "address[]"
        },
        {
          "internalType": "bytes[]",
          "name": "data",
          "type": "bytes[]"
        },
        {
          "internalType": "uint256[]",
          "name": "value",
          "type": "uint256[]"
        },
        {
          "internalType": "uint256",
          "name": "totalOptions",
          "type": "uint256"
        },
        {
          "internalType": "string",
          "name": "title",
          "type": "string"
        },
        {
          "internalType": "string",
          "name": "contentHash",
          "type": "string"
        }
      ],
      "name": "createProposal",
      "outputs": [
        {
          "internalType": "bytes32",
          "name": "",
          "type": "bytes32"
        }
      ],
      "stateMutability": "nonpayable",
      "type": "function"
    },
    {
      "inputs": [
        {
          "internalType": "bytes32",
          "name": "proposalId",
          "type": "bytes32"
        }
      ],
      "name": "endProposal",
      "outputs": [],
      "stateMutability": "nonpayable",
      "type": "function"
    },
    {
      "inputs": [
        {
          "internalType": "bytes32",
          "name": "root",
          "type": "bytes32"
        },
        {
          "internalType": "address",
          "name": "voter",
          "type": "address"
        },
        {
          "internalType": "bytes32",
          "name": "voteHash",
          "type": "bytes32"
        },
        {
          "internalType": "bytes32[]",
          "name": "proof",
          "type": "bytes32[]"
        },
        {
          "internalType": "bytes32",
          "name": "proposalId",
          "type": "bytes32"
        },
        {
          "internalType": "uint256",
          "name": "option",
          "type": "uint256"
        },
        {
          "internalType": "uint256",
          "name": "votingPower",
          "type": "uint256"
        }
      ],
      "name": "executeSignedVote",
      "outputs": [],
      "stateMutability": "nonpayable",
      "type": "function"
    },
    {
      "inputs": [
        {
          "internalType": "bytes32[]",
          "name": "roots",
          "type": "bytes32[]"
        },
        {
          "internalType": "address[]",
          "name": "voters",
          "type": "address[]"
        },
        {
          "internalType": "bytes32[]",
          "name": "votesHashes",
          "type": "bytes32[]"
        },
        {
          "internalType": "bytes32[][]",
          "name": "proofs",
          "type": "bytes32[][]"
        },
        {
          "internalType": "bytes32[]",
          "name": "proposalIds",
          "type": "bytes32[]"
        },
        {
          "internalType": "uint256[]",
          "name": "options",
          "type": "uint256[]"
        },
        {
          "internalType": "uint256[]",
          "name": "votingPowers",
          "type": "uint256[]"
        }
      ],
      "name": "executeSignedVotesBatches",
      "outputs": [],
      "stateMutability": "nonpayable",
      "type": "function"
    },
    {
      "inputs": [
        {
          "internalType": "bytes32[]",
          "name": "proposalIds",
          "type": "bytes32[]"
        },
        {
          "internalType": "uint256[]",
          "name": "options",
          "type": "uint256[]"
        },
        {
          "internalType": "uint256[]",
          "name": "votingPowers",
          "type": "uint256[]"
        }
      ],
      "name": "executeVotes",
      "outputs": [
        {
          "internalType": "bool[]",
          "name": "",
          "type": "bool[]"
        }
      ],
      "stateMutability": "nonpayable",
      "type": "function"
    },
    {
      "inputs": [],
      "name": "getActiveProposalsNow",
      "outputs": [
        {
          "internalType": "uint256",
          "name": "",
          "type": "uint256"
        }
      ],
      "stateMutability": "view",
      "type": "function"
    },
    {
      "inputs": [],
      "name": "getCurrentSnapshotId",
      "outputs": [
        {
          "internalType": "uint256",
          "name": "",
          "type": "uint256"
        }
      ],
      "stateMutability": "view",
      "type": "function"
    },
    {
      "inputs": [],
      "name": "getLockTime",
      "outputs": [
        {
          "internalType": "uint256",
          "name": "",
          "type": "uint256"
        }
      ],
      "stateMutability": "view",
      "type": "function"
    },
    {
      "inputs": [],
      "name": "getMaxActiveProposals",
      "outputs": [
        {
          "internalType": "uint256",
          "name": "",
          "type": "uint256"
        }
      ],
      "stateMutability": "view",
      "type": "function"
    },
    {
      "inputs": [],
      "name": "getMaxGasPrice",
      "outputs": [
        {
          "internalType": "uint256",
          "name": "",
          "type": "uint256"
        }
      ],
      "stateMutability": "view",
      "type": "function"
    },
    {
      "inputs": [],
      "name": "getMinimumMembersForProposalCreation",
      "outputs": [
        {
          "internalType": "uint256",
          "name": "",
          "type": "uint256"
        }
      ],
      "stateMutability": "view",
      "type": "function"
    },
    {
      "inputs": [],
      "name": "getMinimumTokensLockedForProposalCreation",
      "outputs": [
        {
          "internalType": "uint256",
          "name": "",
          "type": "uint256"
        }
      ],
      "stateMutability": "view",
      "type": "function"
    },
    {
      "inputs": [],
      "name": "getName",
      "outputs": [
        {
          "internalType": "string",
          "name": "",
          "type": "string"
        }
      ],
      "stateMutability": "view",
      "type": "function"
    },
    {
      "inputs": [],
      "name": "getPermissionRegistry",
      "outputs": [
        {
          "internalType": "address",
          "name": "",
          "type": "address"
        }
      ],
      "stateMutability": "view",
      "type": "function"
    },
    {
      "inputs": [
        {
          "internalType": "bytes32",
          "name": "proposalId",
          "type": "bytes32"
        }
      ],
      "name": "getProposal",
      "outputs": [
        {
          "components": [
            {
              "internalType": "address",
              "name": "creator",
              "type": "address"
            },
            {
              "internalType": "uint256",
              "name": "startTime",
              "type": "uint256"
            },
            {
              "internalType": "uint256",
              "name": "endTime",
              "type": "uint256"
            },
            {
              "internalType": "address[]",
              "name": "to",
              "type": "address[]"
            },
            {
              "internalType": "bytes[]",
              "name": "data",
              "type": "bytes[]"
            },
            {
              "internalType": "uint256[]",
              "name": "value",
              "type": "uint256[]"
            },
            {
              "internalType": "string",
              "name": "title",
              "type": "string"
            },
            {
              "internalType": "string",
              "name": "contentHash",
              "type": "string"
            },
            {
              "internalType": "enum BaseERC20Guild.ProposalState",
              "name": "state",
              "type": "uint8"
            },
            {
              "internalType": "uint256[]",
              "name": "totalVotes",
              "type": "uint256[]"
            }
          ],
          "internalType": "struct BaseERC20Guild.Proposal",
          "name": "",
          "type": "tuple"
        }
      ],
      "stateMutability": "view",
      "type": "function"
    },
    {
      "inputs": [
        {
          "internalType": "bytes32",
          "name": "proposalId",
          "type": "bytes32"
        }
      ],
      "name": "getProposalSnapshotId",
      "outputs": [
        {
          "internalType": "uint256",
          "name": "",
          "type": "uint256"
        }
      ],
      "stateMutability": "view",
      "type": "function"
    },
    {
      "inputs": [],
      "name": "getProposalTime",
      "outputs": [
        {
          "internalType": "uint256",
          "name": "",
          "type": "uint256"
        }
      ],
      "stateMutability": "view",
      "type": "function"
    },
    {
      "inputs": [
        {
          "internalType": "bytes32",
          "name": "proposalId",
          "type": "bytes32"
        },
        {
          "internalType": "address",
          "name": "voter",
          "type": "address"
        }
      ],
      "name": "getProposalVotesOfVoter",
      "outputs": [
        {
          "internalType": "uint256",
          "name": "option",
          "type": "uint256"
        },
        {
          "internalType": "uint256",
          "name": "votingPower",
          "type": "uint256"
        }
      ],
      "stateMutability": "view",
      "type": "function"
    },
    {
      "inputs": [],
      "name": "getProposalsIds",
      "outputs": [
        {
          "internalType": "bytes32[]",
          "name": "",
          "type": "bytes32[]"
        }
      ],
      "stateMutability": "view",
      "type": "function"
    },
    {
      "inputs": [],
      "name": "getProposalsIdsLength",
      "outputs": [
        {
          "internalType": "uint256",
          "name": "",
          "type": "uint256"
        }
      ],
      "stateMutability": "view",
      "type": "function"
    },
    {
      "inputs": [
        {
          "internalType": "bytes32",
          "name": "signedVoteHash",
          "type": "bytes32"
        }
      ],
      "name": "getSignedVote",
      "outputs": [
        {
          "internalType": "bool",
          "name": "",
          "type": "bool"
        }
      ],
      "stateMutability": "view",
      "type": "function"
    },
    {
      "inputs": [],
      "name": "getTimeForExecution",
      "outputs": [
        {
          "internalType": "uint256",
          "name": "",
          "type": "uint256"
        }
      ],
      "stateMutability": "view",
      "type": "function"
    },
    {
      "inputs": [],
      "name": "getToken",
      "outputs": [
        {
          "internalType": "address",
          "name": "",
          "type": "address"
        }
      ],
      "stateMutability": "view",
      "type": "function"
    },
    {
      "inputs": [],
      "name": "getTokenVault",
      "outputs": [
        {
          "internalType": "address",
          "name": "",
          "type": "address"
        }
      ],
      "stateMutability": "view",
      "type": "function"
    },
    {
      "inputs": [],
      "name": "getTotalLocked",
      "outputs": [
        {
          "internalType": "uint256",
          "name": "",
          "type": "uint256"
        }
      ],
      "stateMutability": "view",
      "type": "function"
    },
    {
      "inputs": [],
      "name": "getTotalMembers",
      "outputs": [
        {
          "internalType": "uint256",
          "name": "",
          "type": "uint256"
        }
      ],
      "stateMutability": "view",
      "type": "function"
    },
    {
      "inputs": [],
      "name": "getTotalProposals",
      "outputs": [
        {
          "internalType": "uint256",
          "name": "",
          "type": "uint256"
        }
      ],
      "stateMutability": "view",
      "type": "function"
    },
    {
      "inputs": [],
      "name": "getVoteGas",
      "outputs": [
        {
          "internalType": "uint256",
          "name": "",
          "type": "uint256"
        }
      ],
      "stateMutability": "view",
      "type": "function"
    },
    {
      "inputs": [
        {
          "internalType": "address",
          "name": "voter",
          "type": "address"
        }
      ],
      "name": "getVoterLockTimestamp",
      "outputs": [
        {
          "internalType": "uint256",
          "name": "",
          "type": "uint256"
        }
      ],
      "stateMutability": "view",
      "type": "function"
    },
    {
      "inputs": [],
      "name": "getVotingPowerForProposalCreation",
      "outputs": [
        {
          "internalType": "uint256",
          "name": "",
          "type": "uint256"
        }
      ],
      "stateMutability": "view",
      "type": "function"
    },
    {
      "inputs": [],
      "name": "getVotingPowerForProposalExecution",
      "outputs": [
        {
          "internalType": "uint256",
          "name": "",
          "type": "uint256"
        }
      ],
      "stateMutability": "view",
      "type": "function"
    },
    {
      "inputs": [
        {
          "internalType": "uint256",
          "name": "snapshotId",
          "type": "uint256"
        }
      ],
      "name": "getVotingPowerForProposalExecution",
      "outputs": [
        {
          "internalType": "uint256",
          "name": "",
          "type": "uint256"
        }
      ],
      "stateMutability": "view",
      "type": "function"
    },
    {
      "inputs": [
        {
          "internalType": "address",
          "name": "voter",
          "type": "address"
        },
        {
          "internalType": "bytes32",
          "name": "proposalId",
          "type": "bytes32"
        },
        {
          "internalType": "uint256",
          "name": "option",
          "type": "uint256"
        },
        {
          "internalType": "uint256",
          "name": "votingPower",
          "type": "uint256"
        }
      ],
      "name": "hashVote",
      "outputs": [
        {
          "internalType": "bytes32",
          "name": "",
          "type": "bytes32"
        }
      ],
      "stateMutability": "pure",
      "type": "function"
    },
    {
      "inputs": [
        {
          "internalType": "address",
          "name": "_token",
          "type": "address"
        },
        {
          "internalType": "uint256",
          "name": "_proposalTime",
          "type": "uint256"
        },
        {
          "internalType": "uint256",
          "name": "_timeForExecution",
          "type": "uint256"
        },
        {
          "internalType": "uint256",
          "name": "_votingPowerPercentageForProposalExecution",
          "type": "uint256"
        },
        {
          "internalType": "uint256",
          "name": "_votingPowerPercentageForProposalCreation",
          "type": "uint256"
        },
        {
          "internalType": "string",
          "name": "_name",
          "type": "string"
        },
        {
          "internalType": "uint256",
          "name": "_voteGas",
          "type": "uint256"
        },
        {
          "internalType": "uint256",
          "name": "_maxGasPrice",
          "type": "uint256"
        },
        {
          "internalType": "uint256",
          "name": "_maxActiveProposals",
          "type": "uint256"
        },
        {
          "internalType": "uint256",
          "name": "_lockTime",
          "type": "uint256"
        },
        {
          "internalType": "address",
          "name": "_permissionRegistry",
          "type": "address"
        }
      ],
      "name": "initialize",
      "outputs": [],
      "stateMutability": "nonpayable",
      "type": "function"
    },
    {
      "inputs": [],
      "name": "lockTime",
      "outputs": [
        {
          "internalType": "uint256",
          "name": "",
          "type": "uint256"
        }
      ],
      "stateMutability": "view",
      "type": "function"
    },
    {
      "inputs": [
        {
          "internalType": "uint256",
          "name": "tokenAmount",
          "type": "uint256"
        }
      ],
      "name": "lockTokens",
      "outputs": [],
      "stateMutability": "nonpayable",
      "type": "function"
    },
    {
      "inputs": [],
      "name": "maxActiveProposals",
      "outputs": [
        {
          "internalType": "uint256",
          "name": "",
          "type": "uint256"
        }
      ],
      "stateMutability": "view",
      "type": "function"
    },
    {
      "inputs": [],
      "name": "maxGasPrice",
      "outputs": [
        {
          "internalType": "uint256",
          "name": "",
          "type": "uint256"
        }
      ],
      "stateMutability": "view",
      "type": "function"
    },
    {
      "inputs": [],
      "name": "minimumMembersForProposalCreation",
      "outputs": [
        {
          "internalType": "uint256",
          "name": "",
          "type": "uint256"
        }
      ],
      "stateMutability": "view",
      "type": "function"
    },
    {
      "inputs": [],
      "name": "minimumTokensLockedForProposalCreation",
      "outputs": [
        {
          "internalType": "uint256",
          "name": "",
          "type": "uint256"
        }
      ],
      "stateMutability": "view",
      "type": "function"
    },
    {
      "inputs": [],
      "name": "name",
      "outputs": [
        {
          "internalType": "string",
          "name": "",
          "type": "string"
        }
      ],
      "stateMutability": "view",
      "type": "function"
    },
    {
      "inputs": [],
      "name": "proposalTime",
      "outputs": [
        {
          "internalType": "uint256",
          "name": "",
          "type": "uint256"
        }
      ],
      "stateMutability": "view",
      "type": "function"
    },
    {
      "inputs": [
        {
          "internalType": "bytes32",
          "name": "",
          "type": "bytes32"
        },
        {
          "internalType": "address",
          "name": "",
          "type": "address"
        }
      ],
      "name": "proposalVotes",
      "outputs": [
        {
          "internalType": "uint256",
          "name": "option",
          "type": "uint256"
        },
        {
          "internalType": "uint256",
          "name": "votingPower",
          "type": "uint256"
        }
      ],
      "stateMutability": "view",
      "type": "function"
    },
    {
      "inputs": [
        {
          "internalType": "bytes32",
          "name": "",
          "type": "bytes32"
        }
      ],
      "name": "proposals",
      "outputs": [
        {
          "internalType": "address",
          "name": "creator",
          "type": "address"
        },
        {
          "internalType": "uint256",
          "name": "startTime",
          "type": "uint256"
        },
        {
          "internalType": "uint256",
          "name": "endTime",
          "type": "uint256"
        },
        {
          "internalType": "string",
          "name": "title",
          "type": "string"
        },
        {
          "internalType": "string",
          "name": "contentHash",
          "type": "string"
        },
        {
          "internalType": "enum BaseERC20Guild.ProposalState",
          "name": "state",
          "type": "uint8"
        }
      ],
      "stateMutability": "view",
      "type": "function"
    },
    {
      "inputs": [
        {
          "internalType": "uint256",
          "name": "",
          "type": "uint256"
        }
      ],
      "name": "proposalsIds",
      "outputs": [
        {
          "internalType": "bytes32",
          "name": "",
          "type": "bytes32"
        }
      ],
      "stateMutability": "view",
      "type": "function"
    },
    {
      "inputs": [
        {
          "internalType": "bytes32",
          "name": "",
          "type": "bytes32"
        }
      ],
      "name": "proposalsSnapshots",
      "outputs": [
        {
          "internalType": "uint256",
          "name": "",
          "type": "uint256"
        }
      ],
      "stateMutability": "view",
      "type": "function"
    },
    {
      "inputs": [
        {
          "internalType": "uint256",
          "name": "_proposalTime",
          "type": "uint256"
        },
        {
          "internalType": "uint256",
          "name": "_timeForExecution",
          "type": "uint256"
        },
        {
          "internalType": "uint256",
          "name": "_votingPowerPercentageForProposalExecution",
          "type": "uint256"
        },
        {
          "internalType": "uint256",
          "name": "_votingPowerPercentageForProposalCreation",
          "type": "uint256"
        },
        {
          "internalType": "uint256",
          "name": "_voteGas",
          "type": "uint256"
        },
        {
          "internalType": "uint256",
          "name": "_maxGasPrice",
          "type": "uint256"
        },
        {
          "internalType": "uint256",
          "name": "_maxActiveProposals",
          "type": "uint256"
        },
        {
          "internalType": "uint256",
          "name": "_lockTime",
          "type": "uint256"
        },
        {
          "internalType": "uint256",
          "name": "_minimumMembersForProposalCreation",
          "type": "uint256"
        },
        {
          "internalType": "uint256",
          "name": "_minimumTokensLockedForProposalCreation",
          "type": "uint256"
        }
      ],
      "name": "setConfig",
      "outputs": [],
      "stateMutability": "nonpayable",
      "type": "function"
    },
    {
      "inputs": [
        {
          "internalType": "bytes32",
          "name": "proposalId",
          "type": "bytes32"
        },
        {
          "internalType": "uint256",
          "name": "option",
          "type": "uint256"
        },
        {
          "internalType": "uint256",
          "name": "votingPower",
          "type": "uint256"
        },
        {
          "internalType": "address",
          "name": "voter",
          "type": "address"
        },
        {
          "internalType": "bytes",
          "name": "signature",
          "type": "bytes"
        }
      ],
      "name": "setSignedVote",
      "outputs": [],
      "stateMutability": "nonpayable",
      "type": "function"
    },
    {
      "inputs": [
        {
          "internalType": "bytes32",
          "name": "proposalId",
          "type": "bytes32"
        },
        {
          "internalType": "uint256",
          "name": "option",
          "type": "uint256"
        },
        {
          "internalType": "uint256",
          "name": "votingPower",
          "type": "uint256"
        }
      ],
      "name": "setVote",
      "outputs": [],
      "stateMutability": "nonpayable",
      "type": "function"
    },
    {
      "inputs": [
        {
          "internalType": "bytes32",
          "name": "",
          "type": "bytes32"
        }
      ],
      "name": "signedVotes",
      "outputs": [
        {
          "internalType": "bool",
          "name": "",
          "type": "bool"
        }
      ],
      "stateMutability": "view",
      "type": "function"
    },
    {
      "inputs": [],
      "name": "timeForExecution",
      "outputs": [
        {
          "internalType": "uint256",
          "name": "",
          "type": "uint256"
        }
      ],
      "stateMutability": "view",
      "type": "function"
    },
    {
      "inputs": [],
      "name": "token",
      "outputs": [
        {
          "internalType": "contract IERC20Upgradeable",
          "name": "",
          "type": "address"
        }
      ],
      "stateMutability": "view",
      "type": "function"
    },
    {
      "inputs": [],
      "name": "tokenVault",
      "outputs": [
        {
          "internalType": "contract TokenVault",
          "name": "",
          "type": "address"
        }
      ],
      "stateMutability": "view",
      "type": "function"
    },
    {
      "inputs": [
        {
          "internalType": "address",
          "name": "",
          "type": "address"
        }
      ],
      "name": "tokensLocked",
      "outputs": [
        {
          "internalType": "uint256",
          "name": "amount",
          "type": "uint256"
        },
        {
          "internalType": "uint256",
          "name": "timestamp",
          "type": "uint256"
        }
      ],
      "stateMutability": "view",
      "type": "function"
    },
    {
      "inputs": [],
      "name": "totalLocked",
      "outputs": [
        {
          "internalType": "uint256",
          "name": "",
          "type": "uint256"
        }
      ],
      "stateMutability": "view",
      "type": "function"
    },
    {
      "inputs": [
        {
          "internalType": "uint256",
          "name": "snapshotId",
          "type": "uint256"
        }
      ],
      "name": "totalLockedAt",
      "outputs": [
        {
          "internalType": "uint256",
          "name": "",
          "type": "uint256"
        }
      ],
      "stateMutability": "view",
      "type": "function"
    },
    {
      "inputs": [],
      "name": "totalProposals",
      "outputs": [
        {
          "internalType": "uint256",
          "name": "",
          "type": "uint256"
        }
      ],
      "stateMutability": "view",
      "type": "function"
    },
    {
      "inputs": [
        {
          "internalType": "bytes32",
          "name": "root",
          "type": "bytes32"
        },
        {
          "internalType": "bytes32",
          "name": "voteHash",
          "type": "bytes32"
        },
        {
          "internalType": "bytes32[]",
          "name": "proof",
          "type": "bytes32[]"
        }
      ],
      "name": "validateMerkleTreeLeaf",
      "outputs": [
        {
          "internalType": "bool",
          "name": "",
          "type": "bool"
        }
      ],
      "stateMutability": "nonpayable",
      "type": "function"
    },
    {
      "inputs": [],
      "name": "voteGas",
      "outputs": [
        {
          "internalType": "uint256",
          "name": "",
          "type": "uint256"
        }
      ],
      "stateMutability": "view",
      "type": "function"
    },
    {
      "inputs": [
        {
          "internalType": "address",
          "name": "account",
          "type": "address"
        }
      ],
      "name": "votingPowerOf",
      "outputs": [
        {
          "internalType": "uint256",
          "name": "",
          "type": "uint256"
        }
      ],
      "stateMutability": "view",
      "type": "function"
    },
    {
      "inputs": [
        {
          "internalType": "address",
          "name": "account",
          "type": "address"
        },
        {
          "internalType": "uint256",
          "name": "snapshotId",
          "type": "uint256"
        }
      ],
      "name": "votingPowerOfAt",
      "outputs": [
        {
          "internalType": "uint256",
          "name": "",
          "type": "uint256"
        }
      ],
      "stateMutability": "view",
      "type": "function"
    },
    {
      "inputs": [
        {
          "internalType": "address[]",
          "name": "accounts",
          "type": "address[]"
        },
        {
          "internalType": "uint256[]",
          "name": "snapshotIds",
          "type": "uint256[]"
        }
      ],
      "name": "votingPowerOfMultipleAt",
      "outputs": [
        {
          "internalType": "uint256[]",
          "name": "",
          "type": "uint256[]"
        }
      ],
      "stateMutability": "view",
      "type": "function"
    },
    {
      "inputs": [],
      "name": "votingPowerPercentageForProposalCreation",
      "outputs": [
        {
          "internalType": "uint256",
          "name": "",
          "type": "uint256"
        }
      ],
      "stateMutability": "view",
      "type": "function"
    },
    {
      "inputs": [],
      "name": "votingPowerPercentageForProposalExecution",
      "outputs": [
        {
          "internalType": "uint256",
          "name": "",
          "type": "uint256"
        }
      ],
      "stateMutability": "view",
      "type": "function"
    },
    {
      "inputs": [
        {
          "internalType": "uint256",
          "name": "tokenAmount",
          "type": "uint256"
        }
      ],
      "name": "withdrawTokens",
      "outputs": [],
      "stateMutability": "nonpayable",
      "type": "function"
    }
  ],
  "bytecode": "0x60806040526001601c5534801561001557600080fd5b506161c680620000266000396000f3fe608060405260043610620004095760003560e01c8063671abed7116200021b578063ae6192341162000123578063e045035311620000b3578063f4732da61162000081578063f4732da61462000c9f578063f98606a71462000cb6578063f9a92d821462000cce578063fc0c546a1462000cf3578063fc4e703f1462000d1557005b8063e04503531462000c07578063e158080a1462000c1f578063ed996f5e1462000c37578063f09951981462000c5c57005b8063bba363a011620000f1578063bba363a01462000b8f578063bcc3f3bd1462000bb4578063c0a4d64d1462000bd9578063c93e01e31462000bf057005b8063ae6192341462000b16578063b3929aaa1462000b2e578063b3b470611462000b53578063b7c15f8d1462000b7857005b80638bb8591e11620001ab578063a78d80fc1162000179578063a78d80fc1462000a76578063a7aeb5571462000a8e578063ab6ea06b1462000aa6578063ad6c1e341462000acb578063adf2c7b61462000ae257005b80638bb8591e14620009f55780638f1803051462000a1a57806392b716541462000a31578063a16fe3421462000a5657005b806377027ff411620001e957806377027ff4146200096e5780638029eff1146200098557806386e2712514620009b957806389c98c0614620009de57005b8063671abed714620008cd5780636c8b72f614620009015780636e27d889146200091857806371893546146200093d57005b806325c069fc116200031f5780633de39c1111620002af57806354f2f7af116200027d57806354f2f7af14620008445780635689141214620008645780635bc789d9146200087c5780635e508c2c146200089e57806364fe6ed214620008b657005b80633de39c1114620007c95780633f10cf1514620007e1578063430694cf14620007f95780635439ad86146200082d57005b8063315a095d11620002ed578063315a095d146200072e57806332ed5b12146200075357806336f8f8d9146200078c5780633bf353fb14620007b157005b806325c069fc146200065d5780632d5b17de14620006875780632d757c3e14620006ac5780632fd99c0014620006e957005b806316bbecde116200039b57806321df0da7116200036957806321df0da714620005ca5780632229a0e214620005fe57806322bafdff14620006155780632467ef94146200064657005b806316bbecde146200055e57806317d7de7c1462000583578063184a0ae9146200059b5780631a5007dd14620005b357005b80630d66808711620003d95780630d66808714620004d7578063123f6d6714620004ef578063130485fe146200051457806313108d74146200053957005b80623a40d0146200040b57806301a598a6146200043b57806306fdde0314620004895780630a366a6314620004b0575b005b3480156200041857600080fd5b506200042362000d2d565b6040516200043291906200482f565b60405180910390f35b3480156200044857600080fd5b50620004736200045a3660046200488d565b6012602052600090815260409020805460019091015482565b6040805192835260208301919091520162000432565b3480156200049657600080fd5b50620004a162000d87565b604051620004329190620048fb565b348015620004bd57600080fd5b50620004c862000e1d565b60405190815260200162000432565b348015620004e457600080fd5b50620004c8600d5481565b348015620004fc57600080fd5b50620004096200050e36600462004910565b62000e4a565b3480156200052157600080fd5b50620004736200053336600462004979565b62000fe3565b3480156200054657600080fd5b50620004c86200055836600462004c12565b62001015565b3480156200056b57600080fd5b50620004096200057d36600462004cfb565b6200105a565b3480156200059057600080fd5b50620004a16200118b565b348015620005a857600080fd5b50620004c860035481565b348015620005c057600080fd5b50600a54620004c8565b348015620005d757600080fd5b506000546001600160a01b03165b6040516001600160a01b03909116815260200162000432565b3480156200060b57600080fd5b50601654620004c8565b3480156200062257600080fd5b50620004c86200063436600462004d28565b60009081526018602052604090205490565b3480156200065357600080fd5b50600c54620004c8565b3480156200066a57600080fd5b5062000674600a81565b60405160ff909116815260200162000432565b3480156200069457600080fd5b5062000409620006a636600462004d42565b6200121c565b348015620006b957600080fd5b50620004c8620006cb3660046200488d565b6001600160a01b031660009081526012602052604090206001015490565b348015620006f657600080fd5b506200071d6200070836600462004d28565b60136020526000908152604090205460ff1681565b604051901515815260200162000432565b3480156200073b57600080fd5b50620004096200074d36600462004d28565b62001501565b3480156200076057600080fd5b50620007786200077236600462004d28565b620017a1565b604051620004329695949392919062004deb565b3480156200079957600080fd5b5062000409620007ab36600462004e4b565b62001905565b348015620007be57600080fd5b50620004c8600c5481565b348015620007d657600080fd5b50620004c860085481565b348015620007ee57600080fd5b50620004c860045481565b3480156200080657600080fd5b506200081e6200081836600462004d28565b62001b72565b60405162000432919062004fcf565b3480156200083a57600080fd5b50601c54620004c8565b3480156200085157600080fd5b506011546001600160a01b0316620005e5565b3480156200087157600080fd5b50620004c8600e5481565b3480156200088957600080fd5b50601154620005e5906001600160a01b031681565b348015620008ab57600080fd5b50620004c860055481565b348015620008c357600080fd5b50601054620004c8565b348015620008da57600080fd5b50620008f2620008ec366004620050dc565b62001f25565b6040516200043291906200516d565b3480156200090e57600080fd5b50600754620004c8565b3480156200092557600080fd5b50620004096200093736600462004d28565b62002396565b3480156200094a57600080fd5b50620004c86200095c36600462004d28565b60186020526000908152604090205481565b3480156200097b57600080fd5b50600954620004c8565b3480156200099257600080fd5b506200071d620009a436600462004d28565b60009081526013602052604090205460ff1690565b348015620009c657600080fd5b5062000409620009d8366004620051a9565b6200254b565b348015620009eb57600080fd5b50600854620004c8565b34801562000a0257600080fd5b506200040962000a14366004620052bf565b620028ee565b34801562000a2757600080fd5b50600b54620004c8565b34801562000a3e57600080fd5b50620004c862000a50366004620053ef565b620029ef565b34801562000a6357600080fd5b506001546001600160a01b0316620005e5565b34801562000a8357600080fd5b50620004c8600a5481565b34801562000a9b57600080fd5b50620004c8600f5481565b34801562000ab357600080fd5b506200071d62000ac53660046200542b565b62002a46565b34801562000ad857600080fd5b50600f54620004c8565b34801562000aef57600080fd5b5062000b0762000b0136600462005474565b62002a5d565b604051620004329190620054de565b34801562000b2357600080fd5b50620004c862002bc2565b34801562000b3b57600080fd5b50620004c862000b4d36600462004d28565b62002bdc565b34801562000b6057600080fd5b506200040962000b7236600462004d28565b62002bfe565b34801562000b8557600080fd5b50600454620004c8565b34801562000b9c57600080fd5b50620004c862000bae36600462004d28565b620034f6565b34801562000bc157600080fd5b50620004c862000bd33660046200488d565b62003511565b34801562000be657600080fd5b50600d54620004c8565b34801562000bfd57600080fd5b50600354620004c8565b34801562000c1457600080fd5b50620004c860095481565b34801562000c2c57600080fd5b50620004c860105481565b34801562000c4457600080fd5b50620004c862000c5636600462004d28565b6200352c565b34801562000c6957600080fd5b506200047362000c7b36600462004979565b60146020908152600092835260408084209091529082529020805460019091015482565b34801562000cac57600080fd5b50600e54620004c8565b34801562000cc357600080fd5b50620004c860065481565b34801562000cdb57600080fd5b50620004c862000ced366004620054f3565b6200355b565b34801562000d0057600080fd5b50600054620005e5906001600160a01b031681565b34801562000d2257600080fd5b50620004c860075481565b6060601680548060200260200160405190810160405280929190818152602001828054801562000d7d57602002820191906000526020600020905b81548152602001906001019080831162000d68575b5050505050905090565b6002805462000d969062005520565b80601f016020809104026020016040519081016040528092919081815260200182805462000dc49062005520565b801562000e155780601f1062000de95761010080835404028352916020019162000e15565b820191906000526020600020905b81548152906001019060200180831162000df757829003601f168201915b505050505081565b600062000e4561271062000e3e60065462000e37600e5490565b90620035ae565b90620035c3565b905090565b33301462000ed05760405162461bcd60e51b815260206004820152604260248201527f45524332304775696c643a204f6e6c792063616c6c61626c652062792045524360448201527f32306775696c6420697473656c66206f72207768656e20696e697469616c697a606482015261195960f21b608482015260a4015b60405180910390fd5b60008a1162000ef35760405162461bcd60e51b815260040162000ec7906200555d565b8983101562000f165760405162461bcd60e51b815260040162000ec790620055ac565b6000881162000f395760405162461bcd60e51b815260040162000ec79062005609565b6201c90886111562000fb45760405162461bcd60e51b815260206004820152603960248201527f45524332304775696c643a20766f7465206761732068617320746f206265206560448201527f7175616c206f72206c6f776572207468616e2031313730303000000000000000606482015260840162000ec7565b600399909955600497909755600595909555600693909355600791909155600855600955600d55600f55601055565b60008281526014602090815260408083206001600160a01b0385168452909152902080546001909101545b9250929050565b60008062001028888888888888620035d1565b601c549091506200103b90600162003bb7565b601c819055600082815260186020526040902055979650505050505050565b60008381526015602052604090206002015442106200108d5760405162461bcd60e51b815260040162000ec79062005666565b6000838152601860205260409020548190620010ab9033906200355b565b1015620010cc5760405162461bcd60e51b815260040162000ec790620056b9565b60008381526014602090815260408083203384529091529020541580156200110e57506000838152601460209081526040808320338452909152902060010154155b80620011595750600083815260146020908152604080832033845290915290205482148015620011595750600083815260146020908152604080832033845290915290206001015481115b620011785760405162461bcd60e51b815260040162000ec79062005707565b620011863384848462003bc5565b505050565b6060600280546200119c9062005520565b80601f0160208091040260200160405190810160405280929190818152602001828054620011ca9062005520565b801562000d7d5780601f10620011ef5761010080835404028352916020019162000d7d565b820191906000526020600020905b815481529060010190602001808311620011fd57509395945050505050565b60008581526015602052604090206002015442106200124f5760405162461bcd60e51b815260040162000ec79062005666565b60006200125f83878787620029ef565b60008181526013602052604090205490915060ff1615620012cd5760405162461bcd60e51b815260206004820152602160248201527f536e617073686f7445524332304775696c643a20416c726561647920766f74656044820152601960fa1b606482015260840162000ec7565b62001331826200132a836040517f19457468657265756d205369676e6564204d6573736167653a0a3332000000006020820152603c8101829052600090605c01604051602081830303815290604052805190602001209050919050565b9062003e26565b6001600160a01b0316836001600160a01b031614620013935760405162461bcd60e51b815260206004820181905260248201527f536e617073686f7445524332304775696c643a2057726f6e67207369676e6572604482015260640162000ec7565b6000818152601360209081526040808320805460ff1916600117905588835260189091529020548490620013c99085906200355b565b10158015620013fc575060008681526014602090815260408083206001600160a01b038716845290915290206001015484115b6200141b5760405162461bcd60e51b815260040162000ec790620056b9565b60008681526014602090815260408083206001600160a01b03871684529091529020541580156200146f575060008681526014602090815260408083206001600160a01b0387168452909152902060010154155b80620014cc575060008681526014602090815260408083206001600160a01b038716845290915290205485148015620014cc575060008681526014602090815260408083206001600160a01b038716845290915290206001015484115b620014eb5760405162461bcd60e51b815260040162000ec79062005707565b620014f98387878762003bc5565b505050505050565b806200150d3362003511565b1015620015835760405162461bcd60e51b815260206004820152603e60248201527f536e617073686f7445524332304775696c643a20556e61626c6520746f20776960448201527f746864726177206d6f726520746f6b656e73207468616e206c6f636b65640000606482015260840162000ec7565b336000908152601260205260409020600101544211620015f65760405162461bcd60e51b815260206004820152602760248201527f536e617073686f7445524332304775696c643a20546f6b656e73207374696c6c604482015266081b1bd8dad95960ca1b606482015260840162000ec7565b600081116200167e5760405162461bcd60e51b815260206004820152604760248201527f536e617073686f7445524332304775696c643a20616d6f756e74206f6620746f60448201527f6b656e7320746f207769746864726177206d75737420626520677265617465726064820152660207468616e20360cc1b608482015260a40162000ec7565b620016893362003e46565b6200169362003e77565b33600090815260126020526040902054620016af908262003e88565b33600090815260126020526040902055600e54620016ce908262003e88565b600e5560115460405163f3fef3a360e01b8152336004820152602481018390526001600160a01b039091169063f3fef3a390604401600060405180830381600087803b1580156200171e57600080fd5b505af115801562001733573d6000803e3d6000fd5b5050336000908152601260205260409020541515915062001764905057600b546200176090600162003e88565b600b555b60408051338152602081018390527f6352c5382c4a4578e712449ca65e83cdb392d045dfcf1cad9615189db2da244b91015b60405180910390a150565b60156020526000908152604090208054600182015460028301546006840180546001600160a01b03909416949293919291620017dd9062005520565b80601f01602080910402602001604051908101604052809291908181526020018280546200180b9062005520565b80156200185c5780601f1062001830576101008083540402835291602001916200185c565b820191906000526020600020905b8154815290600101906020018083116200183e57829003601f168201915b505050505090806007018054620018739062005520565b80601f0160208091040260200160405190810160405280929190818152602001828054620018a19062005520565b8015620018f25780601f10620018c657610100808354040283529160200191620018f2565b820191906000526020600020905b815481529060010190602001808311620018d457829003601f168201915b5050506008909301549192505060ff1686565b60175462010000900460ff1680620019255750601754610100900460ff16155b6200198a5760405162461bcd60e51b815260206004820152602e60248201527f496e697469616c697a61626c653a20636f6e747261637420697320616c72656160448201526d191e481a5b9a5d1a585b1a5e995960921b606482015260840162000ec7565b60175462010000900460ff16158015620019b0576017805462ffff001916620101001790555b6001600160a01b038c1662001a175760405162461bcd60e51b815260206004820152602660248201527f45524332304775696c643a20746f6b656e2063616e74206265207a65726f206160448201526564647265737360d01b606482015260840162000ec7565b60008b1162001a3a5760405162461bcd60e51b815260040162000ec7906200555d565b8a83101562001a5d5760405162461bcd60e51b815260040162000ec790620055ac565b6000891162001a805760405162461bcd60e51b815260040162000ec79062005609565b865162001a959060029060208a0190620045b6565b50600080546001600160a01b0319166001600160a01b038e16908117909155604051309062001ac49062004645565b6001600160a01b03928316815291166020820152604001604051809103906000f08015801562001af8573d6000803e3d6000fd5b50601180546001600160a01b03199081166001600160a01b039384161790915560038d905560048c905560058b905560068a9055600788905560088790556009869055600d85905560018054909116918416919091179055801562001b64576017805462ff0000191690555b505050505050505050505050565b62001b7c62004653565b60008281526015602090815260409182902082516101408101845281546001600160a01b03168152600182015481840152600282015481850152600382018054855181860281018601909652808652919492936060860193929083018282801562001c1157602002820191906000526020600020905b81546001600160a01b0316815260019091019060200180831162001bf2575b5050505050815260200160048201805480602002602001604051908101604052809291908181526020016000905b8282101562001cf557838290600052602060002001805462001c619062005520565b80601f016020809104026020016040519081016040528092919081815260200182805462001c8f9062005520565b801562001ce05780601f1062001cb45761010080835404028352916020019162001ce0565b820191906000526020600020905b81548152906001019060200180831162001cc257829003601f168201915b50505050508152602001906001019062001c3f565b5050505081526020016005820180548060200260200160405190810160405280929190818152602001828054801562001d4e57602002820191906000526020600020905b81548152602001906001019080831162001d39575b5050505050815260200160068201805462001d699062005520565b80601f016020809104026020016040519081016040528092919081815260200182805462001d979062005520565b801562001de85780601f1062001dbc5761010080835404028352916020019162001de8565b820191906000526020600020905b81548152906001019060200180831162001dca57829003601f168201915b5050505050815260200160078201805462001e039062005520565b80601f016020809104026020016040519081016040528092919081815260200182805462001e319062005520565b801562001e825780601f1062001e565761010080835404028352916020019162001e82565b820191906000526020600020905b81548152906001019060200180831162001e6457829003601f168201915b5050509183525050600882015460209091019060ff16600481111562001eac5762001eac62004db2565b600481111562001ec05762001ec062004db2565b81526020016009820180548060200260200160405190810160405280929190818152602001828054801562001f1557602002820191906000526020600020905b81548152602001906001019080831162001f00575b5050505050815250509050919050565b60608251845114801562001f3a575081518351145b62001fae5760405162461bcd60e51b815260206004820152603f60248201527f45524332304775696c643a20496e76616c69642070726f706f73616c4964732c60448201527f206f7074696f6e73206f7220766f74696e67506f77657273206c656e67746800606482015260840162000ec7565b60008085516001600160401b0381111562001fcd5762001fcd620049a8565b60405190808252806020026020018201604052801562001ff7578160200160208202803683370190505b509050600091505b85518210156200238d57426015600088858151811062002023576200202362005776565b60200260200101518152602001908152602001600020600201541015620020715760008183815181106200205b576200205b62005776565b9115156020928302919091019091015262002378565b83828151811062002086576200208662005776565b6020026020010151620020993362003511565b108062002116575060146000878481518110620020ba57620020ba62005776565b602002602001015181526020019081526020016000206000336001600160a01b03166001600160a01b03168152602001908152602001600020600101548483815181106200210c576200210c62005776565b6020026020010151105b15620021335760008183815181106200205b576200205b62005776565b601460008784815181106200214c576200214c62005776565b602090810291909101810151825281810192909252604090810160009081203382529092529020541580620021d657506014600087848151811062002195576200219562005776565b602002602001015181526020019081526020016000206000336001600160a01b03166001600160a01b03168152602001908152602001600020600101546000145b8015620022d05750848281518110620021f357620021f362005776565b60200260200101516014600088858151811062002214576200221462005776565b602002602001015181526020019081526020016000206000336001600160a01b03166001600160a01b031681526020019081526020016000206000015414158015620022d0575083828151811062002270576200227062005776565b60200260200101516014600088858151811062002291576200229162005776565b602002602001015181526020019081526020016000206000336001600160a01b03166001600160a01b0316815260200190815260200160002060010154115b15620022ed5760008183815181106200205b576200205b62005776565b600181838151811062002304576200230462005776565b602002602001019015159081151581525050620023783387848151811062002330576200233062005776565b60200260200101518785815181106200234d576200234d62005776565b60200260200101518786815181106200236a576200236a62005776565b602002602001015162003bc5565b816200238481620057a2565b92505062001fff565b95945050505050565b600081116200240e5760405162461bcd60e51b815260206004820152603a60248201527f536e617073686f7445524332304775696c643a20546f6b656e7320746f206c6f60448201527f636b2073686f756c6420626520686967686572207468616e2030000000000000606482015260840162000ec7565b336000908152601260205260409020546200243757600b546200243390600162003bb7565b600b555b620024423362003e46565b6200244c62003e77565b6011546040516311f9fbc960e21b8152336004820152602481018390526001600160a01b03909116906347e7ef2490604401600060405180830381600087803b1580156200249957600080fd5b505af1158015620024ae573d6000803e3d6000fd5b505033600090815260126020526040902054620024cf925090508262003bb7565b33600090815260126020526040902055600d54620024ef90429062003bb7565b33600090815260126020526040902060010155600e5462002511908262003bb7565b600e5560408051338152602081018390527fac87f20a77d28ee8bbb58ec87ea8fa968b3393efae1a368fd50b767c2847391c910162001796565b60006200255b87858585620029ef565b9050858114620025ae5760405162461bcd60e51b815260206004820152601d60248201527f45524332304775696c643a20496e76616c696420766f74652068617368000000604482015260640162000ec7565b60008181526013602052604090205460ff16156200260f5760405162461bcd60e51b815260206004820152601960248201527f45524332304775696c643a20416c726561647920766f74656400000000000000604482015260640162000ec7565b60006200261e89888862002a46565b9050806200267b5760405162461bcd60e51b8152602060048201526024808201527f45524332304775696c643a20496e76616c6964206d65726b6c652074726565206044820152633632b0b360e11b606482015260840162000ec7565b6000858152601560205260409020600201544210620026f15760405162461bcd60e51b815260206004820152602b60248201527f45524332304775696c643a2050726f706f73616c20656e6465642c2063616e6e60448201526a1bdd081899481d9bdd195960aa1b606482015260840162000ec7565b82620026fd8962003511565b1015801562002730575060008581526014602090815260408083206001600160a01b038c16845290915290206001015483115b6200278d5760405162461bcd60e51b815260206004820152602660248201527f45524332304775696c643a20496e76616c696420766f74696e67506f77657220604482015265185b5bdd5b9d60d21b606482015260840162000ec7565b60008581526014602090815260408083206001600160a01b038c168452909152902054158015620027e1575060008581526014602090815260408083206001600160a01b038c168452909152902060010154155b806200283e575060008581526014602090815260408083206001600160a01b038c168452909152902054841480156200283e575060008581526014602090815260408083206001600160a01b038c16845290915290206001015483115b620028bc5760405162461bcd60e51b815260206004820152604160248201527f45524332304775696c643a2043616e6e6f74206368616e6765206f7074696f6e60448201527f20766f7465642c206f6e6c7920696e63726561736520766f74696e67506f77656064820152603960f91b608482015260a40162000ec7565b6000828152601360205260409020805460ff19166001179055620028e38886868662003bc5565b505050505050505050565b60005b8751811015620029e557620029d088828151811062002914576200291462005776565b602002602001015188838151811062002931576200293162005776565b60200260200101518884815181106200294e576200294e62005776565b60200260200101518885815181106200296b576200296b62005776565b602002602001015188868151811062002988576200298862005776565b6020026020010151888781518110620029a557620029a562005776565b6020026020010151888881518110620029c257620029c262005776565b60200260200101516200254b565b80620029dc81620057a2565b915050620028f1565b5050505050505050565b6040516bffffffffffffffffffffffff19606086901b166020820152603481018490526054810183905260748101829052600090609401604051602081830303815290604052805190602001209050949350505050565b600062002a5582858562003e96565b949350505050565b6060815183511462002ae75760405162461bcd60e51b815260206004820152604660248201527f536e617073686f7445524332304775696c643a20536e617073686f744964732060448201527f616e64206163636f756e7473206d7573742068617665207468652073616d65206064820152650d8cadccee8d60d31b608482015260a40162000ec7565b600083516001600160401b0381111562002b055762002b05620049a8565b60405190808252806020026020018201604052801562002b2f578160200160208202803683370190505b50905060005b845181101562002bb85762002b8385828151811062002b585762002b5862005776565b602002602001015185838151811062002b755762002b7562005776565b60200260200101516200355b565b82828151811062002b985762002b9862005776565b60209081029190910101528062002baf81620057a2565b91505062002b35565b5090505b92915050565b600062000e4561271062000e3e60055462000e37600e5490565b6016818154811062002bed57600080fd5b600091825260209091200154905081565b60175460ff161562002c685760405162461bcd60e51b815260206004820152602c60248201527f536e617073686f7445524332304775696c643a2050726f706f73616c20756e6460448201526b32b91032bc32b1baba34b7b760a11b606482015260840162000ec7565b600160008281526015602052604090206008015460ff16600481111562002c935762002c9362004db2565b1462002cf85760405162461bcd60e51b815260206004820152602d60248201527f536e617073686f7445524332304775696c643a2050726f706f73616c20616c7260448201526c1958591e48195e1958dd5d1959609a1b606482015260840162000ec7565b600081815260156020526040902060020154421162002d705760405162461bcd60e51b815260206004820152602d60248201527f536e617073686f7445524332304775696c643a2050726f706f73616c2068617360448201526c1b89dd08195b991959081e595d609a1b606482015260840162000ec7565b6000805b60008381526015602052604090206009015481101562002e6a5760008381526018602052604090205462002da890620034f6565b600084815260156020526040902060090180548390811062002dce5762002dce62005776565b90600052602060002001541015801562002e4b5750600083815260156020526040902060090180548390811062002e095762002e0962005776565b906000526020600020015460156000858152602001908152602001600020600901828154811062002e3e5762002e3e62005776565b9060005260206000200154115b1562002e55578091505b8062002e6181620057a2565b91505062002d74565b8162002eba576000838152601560205260409020600801805460ff19166002908117909155839060008051602062006171833981519152905b60405190815260200160405180910390a2620034de565b600454600084815260156020526040902060020154429162002edd919062003bb7565b101562002f1c576000838152601560205260409020600801805460ff191660049081179091558390600080516020620061718339815191529062002ea3565b600083815260156020526040812060088101805460ff191660031790556009015462002f689062002f4f90600162003e88565b60008681526015602052604090206003015490620035c3565b905062002f8362002f7b84600162003e88565b8290620035ae565b9150600062002f93838362003bb7565b9050600160009054906101000a90046001600160a01b03166001600160a01b0316633e7a47b26040518163ffffffff1660e01b8152600401600060405180830381600087803b15801562002fe657600080fd5b505af115801562002ffb573d6000803e3d6000fd5b505050505b80831015620034355760008581526015602052604081206003018054859081106200302f576200302f62005776565b6000918252602090912001546001600160a01b0316148015906200308f5750600085815260156020526040812060040180548590811062003074576200307462005776565b9060005260206000200180546200308b9062005520565b9050115b1562003420576000858152601560205260408120600401805485908110620030bb57620030bb62005776565b906000526020600020018054620030d29062005520565b80601f0160208091040260200160405190810160405280929190818152602001828054620031009062005520565b8015620031515780601f10620031255761010080835404028352916020019162003151565b820191906000526020600020905b8154815290600101906020018083116200313357829003601f168201915b50505060208084015160015460008c815260159093526040909220600301805495965090946001600160a01b03909216935063eed4703392503091899081106200319f576200319f62005776565b9060005260206000200160009054906101000a90046001600160a01b031684601560008d81526020019081526020016000206005018a81548110620031e857620031e862005776565b60009182526020909120015460405160e086901b6001600160e01b031990811682526001600160a01b039586166004830152939094166024850152911660448301526064820152608401600060405180830381600087803b1580156200324d57600080fd5b505af19250505080156200325f575060015b620032bb576200326e620057c0565b806308c379a01415620032af575062003286620057dd565b80620032935750620032b1565b8060405162461bcd60e51b815260040162000ec79190620048fb565b505b3d6000803e3d6000fd5b6017805460ff191660011790556000878152601560205260408120600301805487908110620032ee57620032ee62005776565b60009182526020808320909101548a83526015909152604090912060050180546001600160a01b0390921691889081106200332d576200332d62005776565b9060005260206000200154601560008b8152602001908152602001600020600401888154811062003362576200336262005776565b906000526020600020016040516200337b91906200586c565b60006040518083038185875af1925050503d8060008114620033ba576040519150601f19603f3d011682016040523d82523d6000602084013e620033bf565b606091505b5050905080620034125760405162461bcd60e51b815260206004820181905260248201527f45524332304775696c643a2050726f706f73616c2063616c6c206661696c6564604482015260640162000ec7565b50506017805460ff19169055505b826200342c81620057a2565b93505062003000565b60015460405163fb0fde8560e01b81523060048201526001600160a01b039091169063fb0fde8590602401602060405180830381600087803b1580156200347b57600080fd5b505af115801562003490573d6000803e3d6000fd5b505050506040513d601f19601f82011682018060405250810190620034b6919062005910565b508460008051602062006171833981519152600360405190815260200160405180910390a250505b600c54620034ee90600162003e88565b600c55505050565b600062002bbc61271062000e3e60055462000e37866200352c565b6001600160a01b031660009081526012602052604090205490565b60008060006200353e84601a62003eae565b91509150811562003550579392505050565b5050600e5492915050565b6001600160a01b0382166000908152601960205260408120819081906200358490859062003eae565b9150915081156200359957915062002bbc9050565b620035a48562003511565b9250505062002bbc565b6000620035bc828462005934565b9392505050565b6000620035bc82846200596c565b6000601054600e5410156200364f5760405162461bcd60e51b815260206004820152603960248201527f45524332304775696c643a204e6f7420656e6f75676820746f6b656e73206c6f60448201527f636b656420746f2063726561746520612070726f706f73616c00000000000000606482015260840162000ec7565b600f54600b541015620036c15760405162461bcd60e51b815260206004820152603360248201527f45524332304775696c643a204e6f7420656e6f756768206d656d6265727320746044820152721bc818dc99585d194818481c1c9bdc1bdcd85b606a1b606482015260840162000ec7565b600954600c5410620037355760405162461bcd60e51b815260206004820152603660248201527f45524332304775696c643a204d6178696d756d20616d6f756e74206f662061636044820152751d1a5d99481c1c9bdc1bdcd85b1cc81c995858da195960521b606482015260840162000ec7565b6200373f62000e1d565b6200374a3362003511565b1015620037b85760405162461bcd60e51b815260206004820152603560248201527f45524332304775696c643a204e6f7420656e6f75676820766f74696e67506f77604482015274195c881d1bc818dc99585d19481c1c9bdc1bdcd85b605a1b606482015260840162000ec7565b85518751148015620037cb575084518751145b620038365760405162461bcd60e51b815260206004820152603460248201527f45524332304775696c643a2057726f6e67206c656e677468206f6620746f2c2060448201527364617461206f722076616c75652061727261797360601b606482015260840162000ec7565b6000875111620038a35760405162461bcd60e51b815260206004820152603160248201527f45524332304775696c643a20746f2c20646174612076616c7565206172726179604482015270732063616e6e6f7420626520656d70747960781b606482015260840162000ec7565b86518411158015620038c057508451620038be908562003fbb565b155b620039345760405162461bcd60e51b815260206004820152603760248201527f45524332304775696c643a20496e76616c696420746f74616c4f7074696f6e7360448201527f206f72206f7074696f6e2063616c6c73206c656e677468000000000000000000606482015260840162000ec7565b600a841115620039ad5760405162461bcd60e51b815260206004820152603a60248201527f45524332304775696c643a204d6178696d756d20616d6f756e74206f66206f7060448201527f74696f6e73207065722070726f706f73616c2072656163686564000000000000606482015260840162000ec7565b600a546040516bffffffffffffffffffffffff193360601b166020820152426034820152605481019190915260009060740160405160208183030381529060405280519060200120905062003a0f6001600a5462003bb790919063ffffffff16565b600a55600081815260156020526040902080546001600160a01b03191633178155426001820181905560035462003a47919062003bb7565b6002820155885162003a6390600383019060208c0190620046c3565b50875162003a7b90600483019060208b01906200471b565b50865162003a9390600583019060208a01906200477b565b50845162003aab9060068301906020880190620045b6565b50835162003ac39060078301906020870190620045b6565b5062003ad186600162003bb7565b6001600160401b0381111562003aeb5762003aeb620049a8565b60405190808252806020026020018201604052801562003b15578160200160208202803683370190505b50805162003b2e9160098401916020909101906200477b565b5060088101805460ff19166001908117909155600c5462003b4f9162003bb7565b600c558160008051602062006171833981519152600160405190815260200160405180910390a250601680546001810182556000919091527fd833147d7dc355ba459fc788f669e58cfaf9dc25ddcd0702e87d69c7b512428901819055979650505050505050565b6000620035bc828462005983565b60008381526014602090815260408083206001600160a01b03881684528252808320600101548684526015909252909120600901805462003c3b92849262003c34928790811062003c1a5762003c1a62005776565b906000526020600020015462003e8890919063ffffffff16565b9062003bb7565b600084815260156020526040902060090180548490811062003c615762003c6162005776565b60009182526020808320909101929092558481526014825260408082206001600160a01b038816835283528082208581556001018490558582526015909252206002015462003cc8856001600160a01b031660009081526012602052604090206001015490565b101562003cfd576000838152601560209081526040808320600201546001600160a01b03881684526012909252909120600101555b604080516001600160a01b038616815260208101839052839185917f583c62f152711bcb1ca6186c1065821ff17a7cbe226dcb559a1c889dcf0d769b910160405180910390a36007541562003e2057600062003d7362003d696008543a62003fc990919063ffffffff16565b60075490620035ae565b905080471015801562003d855750333b155b1562003e1e57604051600090339083908381818185875af1925050503d806000811462003dcf576040519150601f19603f3d011682016040523d82523d6000602084013e62003dd4565b606091505b5050905080620014f95760405162461bcd60e51b81526020600482015260146024820152734661696c656420746f20726566756e642067617360601b604482015260640162000ec7565b505b50505050565b600080600062003e37858562003fe1565b9150915062002bb88162004057565b6001600160a01b038116600090815260196020526040902062003e749062003e6e8362003511565b6200422a565b50565b62003e86601a600e546200422a565b565b6000620035bc82846200599e565b60008262003ea585846200426e565b14949350505050565b6000806000841162003f035760405162461bcd60e51b815260206004820152601b60248201527f536e617073686f7445524332304775696c643a20696420697320300000000000604482015260640162000ec7565b601c5484111562003f625760405162461bcd60e51b815260206004820152602260248201527f536e617073686f7445524332304775696c643a206e6f6e6578697374656e74206044820152611a5960f21b606482015260840162000ec7565b600062003f7084866200431b565b845490915081141562003f8b5760008092509250506200100e565b600184600101828154811062003fa55762003fa562005776565b906000526020600020015492509250506200100e565b6000620035bc8284620059b8565b600081831062003fda5781620035bc565b5090919050565b6000808251604114156200401c5760208301516040840151606085015160001a6200400f87828585620043db565b945094505050506200100e565b8251604014156200404a57602083015160408401516200403e868383620044d0565b9350935050506200100e565b506000905060026200100e565b60008160048111156200406e576200406e62004db2565b1415620040785750565b60018160048111156200408f576200408f62004db2565b1415620040df5760405162461bcd60e51b815260206004820152601860248201527f45434453413a20696e76616c6964207369676e61747572650000000000000000604482015260640162000ec7565b6002816004811115620040f657620040f662004db2565b1415620041465760405162461bcd60e51b815260206004820152601f60248201527f45434453413a20696e76616c6964207369676e6174757265206c656e67746800604482015260640162000ec7565b60038160048111156200415d576200415d62004db2565b1415620041b85760405162461bcd60e51b815260206004820152602260248201527f45434453413a20696e76616c6964207369676e6174757265202773272076616c604482015261756560f01b606482015260840162000ec7565b6004816004811115620041cf57620041cf62004db2565b141562003e745760405162461bcd60e51b815260206004820152602260248201527f45434453413a20696e76616c6964207369676e6174757265202776272076616c604482015261756560f01b606482015260840162000ec7565b601c5480620042398462004501565b101562001186578254600180820185556000858152602080822090930193909355938401805494850181558252902090910155565b600081815b845181101562002bb857600085828151811062004294576200429462005776565b60200260200101519050808311620042d857604080516020810185905290810182905260600160405160208183030381529060405280519060200120925062004305565b60408051602081018390529081018490526060016040516020818303038152906040528051906020012092505b50806200431281620057a2565b91505062004273565b815460009081905b80821015620043845760006200433a83836200454f565b90508486828154811062004352576200435262005776565b906000526020600020015411156200436d578091506200437d565b6200437a81600162005983565b92505b5062004323565b600082118015620043bf575083856200439f6001856200599e565b81548110620043b257620043b262005776565b9060005260206000200154145b15620043d257620035a46001836200599e565b50905062002bbc565b6000807f7fffffffffffffffffffffffffffffff5d576e7357a4501ddfe92f46681b20a0831115620044145750600090506003620044c7565b8460ff16601b141580156200442d57508460ff16601c14155b15620044405750600090506004620044c7565b6040805160008082526020820180845289905260ff881692820192909252606081018690526080810185905260019060a0016020604051602081039080840390855afa15801562004495573d6000803e3d6000fd5b5050604051601f1901519150506001600160a01b038116620044c057600060019250925050620044c7565b9150600090505b94509492505050565b6000806001600160ff1b03831660ff84901c601b01620044f387828885620043db565b935093505050935093915050565b80546000906200451357506000919050565b8154829062004525906001906200599e565b8154811062004538576200453862005776565b90600052602060002001549050919050565b919050565b600060026200455f8184620059b8565b6200456c600286620059b8565b62004578919062005983565b6200458491906200596c565b620045916002846200596c565b6200459e6002866200596c565b620045aa919062005983565b620035bc919062005983565b828054620045c49062005520565b90600052602060002090601f016020900481019282620045e8576000855562004633565b82601f106200460357805160ff191683800117855562004633565b8280016001018555821562004633579182015b828111156200463357825182559160200191906001019062004616565b5062004641929150620047b8565b5090565b6107a180620059d083390190565b60405180610140016040528060006001600160a01b031681526020016000815260200160008152602001606081526020016060815260200160608152602001606081526020016060815260200160006004811115620046b657620046b662004db2565b8152602001606081525090565b82805482825590600052602060002090810192821562004633579160200282015b828111156200463357825182546001600160a01b0319166001600160a01b03909116178255602090920191600190910190620046e4565b8280548282559060005260206000209081019282156200476d579160200282015b828111156200476d57825180516200475c918491602090910190620045b6565b50916020019190600101906200473c565b5062004641929150620047cf565b8280548282559060005260206000209081019282156200463357916020028201828111156200463357825182559160200191906001019062004616565b5b80821115620046415760008155600101620047b9565b8082111562004641576000620047e68282620047f0565b50600101620047cf565b508054620047fe9062005520565b6000825580601f106200480f575050565b601f01602090049060005260206000209081019062003e749190620047b8565b6020808252825182820181905260009190848201906040850190845b8181101562004869578351835292840192918401916001016200484b565b50909695505050505050565b80356001600160a01b03811681146200454a57600080fd5b600060208284031215620048a057600080fd5b620035bc8262004875565b6000815180845260005b81811015620048d357602081850181015186830182015201620048b5565b81811115620048e6576000602083870101525b50601f01601f19169290920160200192915050565b602081526000620035bc6020830184620048ab565b6000806000806000806000806000806101408b8d0312156200493157600080fd5b505088359a60208a01359a5060408a013599606081013599506080810135985060a0810135975060c0810135965060e081013595506101008101359450610120013592509050565b600080604083850312156200498d57600080fd5b823591506200499f6020840162004875565b90509250929050565b634e487b7160e01b600052604160045260246000fd5b601f8201601f191681016001600160401b0381118282101715620049e657620049e6620049a8565b6040525050565b60006001600160401b0382111562004a095762004a09620049a8565b5060051b60200190565b600082601f83011262004a2557600080fd5b8135602062004a3482620049ed565b60405162004a438282620049be565b83815260059390931b850182019282810191508684111562004a6457600080fd5b8286015b8481101562004a8a5762004a7c8162004875565b835291830191830162004a68565b509695505050505050565b600082601f83011262004aa757600080fd5b81356001600160401b0381111562004ac35762004ac3620049a8565b60405162004adc601f8301601f191660200182620049be565b81815284602083860101111562004af257600080fd5b816020850160208301376000918101602001919091529392505050565b600082601f83011262004b2157600080fd5b8135602062004b3082620049ed565b60405162004b3f8282620049be565b83815260059390931b850182019282810191508684111562004b6057600080fd5b8286015b8481101562004a8a5780356001600160401b0381111562004b855760008081fd5b62004b958986838b010162004a95565b84525091830191830162004b64565b600082601f83011262004bb657600080fd5b8135602062004bc582620049ed565b60405162004bd48282620049be565b83815260059390931b850182019282810191508684111562004bf557600080fd5b8286015b8481101562004a8a578035835291830191830162004bf9565b60008060008060008060c0878903121562004c2c57600080fd5b86356001600160401b038082111562004c4457600080fd5b62004c528a838b0162004a13565b9750602089013591508082111562004c6957600080fd5b62004c778a838b0162004b0f565b9650604089013591508082111562004c8e57600080fd5b62004c9c8a838b0162004ba4565b955060608901359450608089013591508082111562004cba57600080fd5b62004cc88a838b0162004a95565b935060a089013591508082111562004cdf57600080fd5b5062004cee89828a0162004a95565b9150509295509295509295565b60008060006060848603121562004d1157600080fd5b505081359360208301359350604090920135919050565b60006020828403121562004d3b57600080fd5b5035919050565b600080600080600060a0868803121562004d5b57600080fd5b85359450602086013593506040860135925062004d7b6060870162004875565b915060808601356001600160401b0381111562004d9757600080fd5b62004da58882890162004a95565b9150509295509295909350565b634e487b7160e01b600052602160045260246000fd5b6005811062004de757634e487b7160e01b600052602160045260246000fd5b9052565b60018060a01b038716815285602082015284604082015260c06060820152600062004e1a60c0830186620048ab565b828103608084015262004e2e8186620048ab565b91505062004e4060a083018462004dc8565b979650505050505050565b60008060008060008060008060008060006101608c8e03121562004e6e57600080fd5b62004e798c62004875565b9a5060208c0135995060408c0135985060608c0135975060808c0135965060a08c01356001600160401b0381111562004eb157600080fd5b62004ebf8e828f0162004a95565b96505060c08c0135945060e08c013593506101008c013592506101208c0135915062004eef6101408d0162004875565b90509295989b509295989b9093969950565b600081518084526020808501945080840160005b8381101562004f3c5781516001600160a01b03168752958201959082019060010162004f15565b509495945050505050565b6000815180845260208085019450848260051b860182860160005b8581101562004f9057838303895262004f7d838351620048ab565b9885019892509084019060010162004f62565b5090979650505050505050565b600081518084526020808501945080840160005b8381101562004f3c5781518752958201959082019060010162004fb1565b6020815262004fea6020820183516001600160a01b03169052565b6020820151604082015260408201516060820152600060608301516101408060808501526200501e61016085018362004f01565b91506080850151601f19808685030160a08701526200503e848362004f47565b935060a08701519150808685030160c08701526200505d848362004f9d565b935060c08701519150808685030160e08701526200507c8483620048ab565b935060e087015191506101008187860301818801526200509d8584620048ab565b945080880151925050610120620050b78188018462004dc8565b870151868503909101838701529050620050d2838262004f9d565b9695505050505050565b600080600060608486031215620050f257600080fd5b83356001600160401b03808211156200510a57600080fd5b620051188783880162004ba4565b945060208601359150808211156200512f57600080fd5b6200513d8783880162004ba4565b935060408601359150808211156200515457600080fd5b50620051638682870162004ba4565b9150509250925092565b6020808252825182820181905260009190848201906040850190845b818110156200486957835115158352928401929184019160010162005189565b600080600080600080600060e0888a031215620051c557600080fd5b87359650620051d76020890162004875565b95506040880135945060608801356001600160401b03811115620051fa57600080fd5b620052088a828b0162004ba4565b979a969950949760808101359660a0820135965060c090910135945092505050565b600082601f8301126200523c57600080fd5b813560206200524b82620049ed565b6040516200525a8282620049be565b83815260059390931b85018201928281019150868411156200527b57600080fd5b8286015b8481101562004a8a5780356001600160401b03811115620052a05760008081fd5b620052b08986838b010162004ba4565b8452509183019183016200527f565b600080600080600080600060e0888a031215620052db57600080fd5b87356001600160401b0380821115620052f357600080fd5b620053018b838c0162004ba4565b985060208a01359150808211156200531857600080fd5b620053268b838c0162004a13565b975060408a01359150808211156200533d57600080fd5b6200534b8b838c0162004ba4565b965060608a01359150808211156200536257600080fd5b620053708b838c016200522a565b955060808a01359150808211156200538757600080fd5b620053958b838c0162004ba4565b945060a08a0135915080821115620053ac57600080fd5b620053ba8b838c0162004ba4565b935060c08a0135915080821115620053d157600080fd5b50620053e08a828b0162004ba4565b91505092959891949750929550565b600080600080608085870312156200540657600080fd5b620054118562004875565b966020860135965060408601359560600135945092505050565b6000806000606084860312156200544157600080fd5b833592506020840135915060408401356001600160401b038111156200546657600080fd5b620051638682870162004ba4565b600080604083850312156200548857600080fd5b82356001600160401b0380821115620054a057600080fd5b620054ae8683870162004a13565b93506020850135915080821115620054c557600080fd5b50620054d48582860162004ba4565b9150509250929050565b602081526000620035bc602083018462004f9d565b600080604083850312156200550757600080fd5b620055128362004875565b946020939093013593505050565b600181811c908216806200553557607f821691505b602082108114156200555757634e487b7160e01b600052602260045260246000fd5b50919050565b6020808252602f908201527f45524332304775696c643a2070726f706f73616c2074696d652068617320746f60408201526e0206265206d6f7265207468616e203608c1b606082015260800190565b6020808252603e908201527f45524332304775696c643a206c6f636b54696d652068617320746f206265206860408201527f6967686572206f7220657175616c20746f2070726f706f73616c54696d650000606082015260800190565b6020808252603c908201527f45524332304775696c643a20766f74696e6720706f77657220666f722065786560408201527f637574696f6e2068617320746f206265206d6f7265207468616e203000000000606082015260800190565b60208082526033908201527f536e617073686f7445524332304775696c643a2050726f706f73616c20656e6460408201527219590b0818d85b9b9bdd081899481d9bdd1959606a1b606082015260800190565b6020808252602e908201527f536e617073686f7445524332304775696c643a20496e76616c696420766f746960408201526d1b99d41bddd95c88185b5bdd5b9d60921b606082015260800190565b60208082526049908201527f536e617073686f7445524332304775696c643a2043616e6e6f74206368616e6760408201527f65206f7074696f6e20766f7465642c206f6e6c7920696e63726561736520766f6060820152683a34b733a837bbb2b960b91b608082015260a00190565b634e487b7160e01b600052603260045260246000fd5b634e487b7160e01b600052601160045260246000fd5b6000600019821415620057b957620057b96200578c565b5060010190565b600060033d1115620057da5760046000803e5060005160e01c5b90565b600060443d1015620057ec5790565b6040516003193d81016004833e81513d6001600160401b0381602484011181841117156200581c57505050505090565b8285019150815181811115620058355750505050505090565b843d8701016020828501011115620058505750505050505090565b6200586160208286010187620049be565b509095945050505050565b600080835481600182811c9150808316806200588957607f831692505b6020808410821415620058aa57634e487b7160e01b86526022600452602486fd5b818015620058c15760018114620058d35762005902565b60ff1986168952848901965062005902565b60008a81526020902060005b86811015620058fa5781548b820152908501908301620058df565b505084890196505b509498975050505050505050565b6000602082840312156200592357600080fd5b81518015158114620035bc57600080fd5b60008160001904831182151516156200595157620059516200578c565b500290565b634e487b7160e01b600052601260045260246000fd5b6000826200597e576200597e62005956565b500490565b600082198211156200599957620059996200578c565b500190565b600082821015620059b357620059b36200578c565b500390565b600082620059ca57620059ca62005956565b50069056fe608060405234801561001057600080fd5b506040516107a13803806107a183398101604081905261002f9161007c565b600080546001600160a01b039384166001600160a01b031991821617909155600180549290931691161790556100af565b80516001600160a01b038116811461007757600080fd5b919050565b6000806040838503121561008f57600080fd5b61009883610060565b91506100a660208401610060565b90509250929050565b6106e3806100be6000396000f3fe608060405234801561001057600080fd5b506004361061007d5760003560e01c80636e9960c31161005b5780636e9960c3146100ef578063f3fef3a314610100578063f851a44014610113578063fc0c546a1461012657600080fd5b806321df0da71461008257806327e235e3146100ac57806347e7ef24146100da575b600080fd5b6000546001600160a01b03165b6040516001600160a01b0390911681526020015b60405180910390f35b6100cc6100ba366004610586565b60026020526000908152604090205481565b6040519081526020016100a3565b6100ed6100e83660046105a1565b610139565b005b6001546001600160a01b031661008f565b6100ed61010e3660046105a1565b61020a565b60015461008f906001600160a01b031681565b60005461008f906001600160a01b031681565b6001546001600160a01b031633146101af5760405162461bcd60e51b815260206004820152602e60248201527f546f6b656e5661756c743a204465706f736974206d7573742062652073656e7460448201526d103a343937bab3b41030b236b4b760911b60648201526084015b60405180910390fd5b6000546101c7906001600160a01b031683308461025b565b6001600160a01b0382166000908152600260205260409020546101ea90826102cc565b6001600160a01b0390921660009081526002602052604090209190915550565b6001546001600160a01b0316331461022157600080fd5b600054610238906001600160a01b031683836102df565b6001600160a01b0382166000908152600260205260409020546101ea9082610314565b6040516001600160a01b03808516602483015283166044820152606481018290526102c69085906323b872dd60e01b906084015b60408051601f198184030181529190526020810180516001600160e01b03166001600160e01b031990931692909217909152610320565b50505050565b60006102d882846105e1565b9392505050565b6040516001600160a01b03831660248201526044810182905261030f90849063a9059cbb60e01b9060640161028f565b505050565b60006102d882846105f9565b6000610375826040518060400160405280602081526020017f5361666545524332303a206c6f772d6c6576656c2063616c6c206661696c6564815250856001600160a01b03166103f29092919063ffffffff16565b80519091501561030f57808060200190518101906103939190610610565b61030f5760405162461bcd60e51b815260206004820152602a60248201527f5361666545524332303a204552433230206f7065726174696f6e20646964206e6044820152691bdd081cdd58d8d9595960b21b60648201526084016101a6565b60606104018484600085610409565b949350505050565b60608247101561046a5760405162461bcd60e51b815260206004820152602660248201527f416464726573733a20696e73756666696369656e742062616c616e636520666f6044820152651c8818d85b1b60d21b60648201526084016101a6565b843b6104b85760405162461bcd60e51b815260206004820152601d60248201527f416464726573733a2063616c6c20746f206e6f6e2d636f6e747261637400000060448201526064016101a6565b600080866001600160a01b031685876040516104d4919061065e565b60006040518083038185875af1925050503d8060008114610511576040519150601f19603f3d011682016040523d82523d6000602084013e610516565b606091505b5091509150610526828286610531565b979650505050505050565b606083156105405750816102d8565b8251156105505782518084602001fd5b8160405162461bcd60e51b81526004016101a6919061067a565b80356001600160a01b038116811461058157600080fd5b919050565b60006020828403121561059857600080fd5b6102d88261056a565b600080604083850312156105b457600080fd5b6105bd8361056a565b946020939093013593505050565b634e487b7160e01b600052601160045260246000fd5b600082198211156105f4576105f46105cb565b500190565b60008282101561060b5761060b6105cb565b500390565b60006020828403121561062257600080fd5b815180151581146102d857600080fd5b60005b8381101561064d578181015183820152602001610635565b838111156102c65750506000910152565b60008251610670818460208701610632565b9190910192915050565b6020815260008251806020840152610699816040850160208701610632565b601f01601f1916919091016040019291505056fea2646970667358221220f83df9be484204d29c000a118187aee7d3ca7efcb094476e4ad893327bb967b564736f6c63430008080033fee62a9eec0be50eb061c711990ef0f1e17b40ea131d9347b0468acdaf8bf243a2646970667358221220fca88be9c697c624935afd1ddebe4a6551c22303fd36b569295b87b712c240ac64736f6c63430008080033",
  "linkReferences": {},
  "deployedLinkReferences": {}
}