{
  "_format": "hh-sol-artifact-1",
  "contractName": "SnapshotRepERC20Guild",
  "sourceName": "dxdao-contracts/contracts/erc20guild/implementations/SnapshotRepERC20Guild.sol",
  "abi": [
    {
      "anonymous": false,
      "inputs": [
        {
          "indexed": true,
          "internalType": "address",
          "name": "previousOwner",
          "type": "address"
        },
        {
          "indexed": true,
          "internalType": "address",
          "name": "newOwner",
          "type": "address"
        }
      ],
      "name": "OwnershipTransferred",
      "type": "event"
    },
    {
      "anonymous": false,
      "inputs": [
        {
          "indexed": true,
          "internalType": "bytes32",
          "name": "proposalId",
          "type": "bytes32"
        },
        {
          "indexed": false,
          "internalType": "uint256",
          "name": "newState",
          "type": "uint256"
        }
      ],
      "name": "ProposalStateChanged",
      "type": "event"
    },
    {
      "anonymous": false,
      "inputs": [
        {
          "indexed": false,
          "internalType": "address",
          "name": "voter",
          "type": "address"
        },
        {
          "indexed": false,
          "internalType": "uint256",
          "name": "value",
          "type": "uint256"
        }
      ],
      "name": "TokensLocked",
      "type": "event"
    },
    {
      "anonymous": false,
      "inputs": [
        {
          "indexed": false,
          "internalType": "address",
          "name": "voter",
          "type": "address"
        },
        {
          "indexed": false,
          "internalType": "uint256",
          "name": "value",
          "type": "uint256"
        }
      ],
      "name": "TokensWithdrawn",
      "type": "event"
    },
    {
      "anonymous": false,
      "inputs": [
        {
          "indexed": true,
          "internalType": "bytes32",
          "name": "proposalId",
          "type": "bytes32"
        },
        {
          "indexed": true,
          "internalType": "uint256",
          "name": "option",
          "type": "uint256"
        },
        {
          "indexed": false,
          "internalType": "address",
          "name": "voter",
          "type": "address"
        },
        {
          "indexed": false,
          "internalType": "uint256",
          "name": "votingPower",
          "type": "uint256"
        }
      ],
      "name": "VoteAdded",
      "type": "event"
    },
    {
      "stateMutability": "payable",
      "type": "fallback"
    },
    {
      "inputs": [],
      "name": "MAX_OPTIONS_PER_PROPOSAL",
      "outputs": [
        {
          "internalType": "uint8",
          "name": "",
          "type": "uint8"
        }
      ],
      "stateMutability": "view",
      "type": "function"
    },
    {
      "inputs": [],
      "name": "activeProposalsNow",
      "outputs": [
        {
          "internalType": "uint256",
          "name": "",
          "type": "uint256"
        }
      ],
      "stateMutability": "view",
      "type": "function"
    },
    {
      "inputs": [
        {
          "internalType": "address[]",
          "name": "to",
          "type": "address[]"
        },
        {
          "internalType": "bytes[]",
          "name": "data",
          "type": "bytes[]"
        },
        {
          "internalType": "uint256[]",
          "name": "value",
          "type": "uint256[]"
        },
        {
          "internalType": "uint256",
          "name": "totalOptions",
          "type": "uint256"
        },
        {
          "internalType": "string",
          "name": "title",
          "type": "string"
        },
        {
          "internalType": "string",
          "name": "contentHash",
          "type": "string"
        }
      ],
      "name": "createProposal",
      "outputs": [
        {
          "internalType": "bytes32",
          "name": "",
          "type": "bytes32"
        }
      ],
      "stateMutability": "nonpayable",
      "type": "function"
    },
    {
      "inputs": [
        {
          "internalType": "bytes32",
          "name": "proposalId",
          "type": "bytes32"
        }
      ],
      "name": "endProposal",
      "outputs": [],
      "stateMutability": "nonpayable",
      "type": "function"
    },
    {
      "inputs": [
        {
          "internalType": "bytes32",
          "name": "root",
          "type": "bytes32"
        },
        {
          "internalType": "address",
          "name": "voter",
          "type": "address"
        },
        {
          "internalType": "bytes32",
          "name": "voteHash",
          "type": "bytes32"
        },
        {
          "internalType": "bytes32[]",
          "name": "proof",
          "type": "bytes32[]"
        },
        {
          "internalType": "bytes32",
          "name": "proposalId",
          "type": "bytes32"
        },
        {
          "internalType": "uint256",
          "name": "option",
          "type": "uint256"
        },
        {
          "internalType": "uint256",
          "name": "votingPower",
          "type": "uint256"
        }
      ],
      "name": "executeSignedVote",
      "outputs": [],
      "stateMutability": "nonpayable",
      "type": "function"
    },
    {
      "inputs": [
        {
          "internalType": "bytes32[]",
          "name": "proposalIds",
          "type": "bytes32[]"
        },
        {
          "internalType": "uint256[]",
          "name": "options",
          "type": "uint256[]"
        },
        {
          "internalType": "uint256[]",
          "name": "votingPowers",
          "type": "uint256[]"
        }
      ],
      "name": "executeVotes",
      "outputs": [
        {
          "internalType": "bool[]",
          "name": "",
          "type": "bool[]"
        }
      ],
      "stateMutability": "nonpayable",
      "type": "function"
    },
    {
      "inputs": [],
      "name": "getActiveProposalsNow",
      "outputs": [
        {
          "internalType": "uint256",
          "name": "",
          "type": "uint256"
        }
      ],
      "stateMutability": "view",
      "type": "function"
    },
    {
      "inputs": [],
      "name": "getLockTime",
      "outputs": [
        {
          "internalType": "uint256",
          "name": "",
          "type": "uint256"
        }
      ],
      "stateMutability": "view",
      "type": "function"
    },
    {
      "inputs": [],
      "name": "getMaxActiveProposals",
      "outputs": [
        {
          "internalType": "uint256",
          "name": "",
          "type": "uint256"
        }
      ],
      "stateMutability": "view",
      "type": "function"
    },
    {
      "inputs": [],
      "name": "getMaxGasPrice",
      "outputs": [
        {
          "internalType": "uint256",
          "name": "",
          "type": "uint256"
        }
      ],
      "stateMutability": "view",
      "type": "function"
    },
    {
      "inputs": [],
      "name": "getMinimumMembersForProposalCreation",
      "outputs": [
        {
          "internalType": "uint256",
          "name": "",
          "type": "uint256"
        }
      ],
      "stateMutability": "view",
      "type": "function"
    },
    {
      "inputs": [],
      "name": "getMinimumTokensLockedForProposalCreation",
      "outputs": [
        {
          "internalType": "uint256",
          "name": "",
          "type": "uint256"
        }
      ],
      "stateMutability": "view",
      "type": "function"
    },
    {
      "inputs": [],
      "name": "getName",
      "outputs": [
        {
          "internalType": "string",
          "name": "",
          "type": "string"
        }
      ],
      "stateMutability": "view",
      "type": "function"
    },
    {
      "inputs": [],
      "name": "getPermissionRegistry",
      "outputs": [
        {
          "internalType": "address",
          "name": "",
          "type": "address"
        }
      ],
      "stateMutability": "view",
      "type": "function"
    },
    {
      "inputs": [
        {
          "internalType": "bytes32",
          "name": "proposalId",
          "type": "bytes32"
        }
      ],
      "name": "getProposal",
      "outputs": [
        {
          "components": [
            {
              "internalType": "address",
              "name": "creator",
              "type": "address"
            },
            {
              "internalType": "uint256",
              "name": "startTime",
              "type": "uint256"
            },
            {
              "internalType": "uint256",
              "name": "endTime",
              "type": "uint256"
            },
            {
              "internalType": "address[]",
              "name": "to",
              "type": "address[]"
            },
            {
              "internalType": "bytes[]",
              "name": "data",
              "type": "bytes[]"
            },
            {
              "internalType": "uint256[]",
              "name": "value",
              "type": "uint256[]"
            },
            {
              "internalType": "string",
              "name": "title",
              "type": "string"
            },
            {
              "internalType": "string",
              "name": "contentHash",
              "type": "string"
            },
            {
              "internalType": "enum BaseERC20Guild.ProposalState",
              "name": "state",
              "type": "uint8"
            },
            {
              "internalType": "uint256[]",
              "name": "totalVotes",
              "type": "uint256[]"
            }
          ],
          "internalType": "struct BaseERC20Guild.Proposal",
          "name": "",
          "type": "tuple"
        }
      ],
      "stateMutability": "view",
      "type": "function"
    },
    {
      "inputs": [
        {
          "internalType": "bytes32",
          "name": "proposalId",
          "type": "bytes32"
        }
      ],
      "name": "getProposalSnapshotId",
      "outputs": [
        {
          "internalType": "uint256",
          "name": "",
          "type": "uint256"
        }
      ],
      "stateMutability": "view",
      "type": "function"
    },
    {
      "inputs": [],
      "name": "getProposalTime",
      "outputs": [
        {
          "internalType": "uint256",
          "name": "",
          "type": "uint256"
        }
      ],
      "stateMutability": "view",
      "type": "function"
    },
    {
      "inputs": [
        {
          "internalType": "bytes32",
          "name": "proposalId",
          "type": "bytes32"
        },
        {
          "internalType": "address",
          "name": "voter",
          "type": "address"
        }
      ],
      "name": "getProposalVotesOfVoter",
      "outputs": [
        {
          "internalType": "uint256",
          "name": "option",
          "type": "uint256"
        },
        {
          "internalType": "uint256",
          "name": "votingPower",
          "type": "uint256"
        }
      ],
      "stateMutability": "view",
      "type": "function"
    },
    {
      "inputs": [],
      "name": "getProposalsIds",
      "outputs": [
        {
          "internalType": "bytes32[]",
          "name": "",
          "type": "bytes32[]"
        }
      ],
      "stateMutability": "view",
      "type": "function"
    },
    {
      "inputs": [],
      "name": "getProposalsIdsLength",
      "outputs": [
        {
          "internalType": "uint256",
          "name": "",
          "type": "uint256"
        }
      ],
      "stateMutability": "view",
      "type": "function"
    },
    {
      "inputs": [
        {
          "internalType": "bytes32",
          "name": "signedVoteHash",
          "type": "bytes32"
        }
      ],
      "name": "getSignedVote",
      "outputs": [
        {
          "internalType": "bool",
          "name": "",
          "type": "bool"
        }
      ],
      "stateMutability": "view",
      "type": "function"
    },
    {
      "inputs": [
        {
          "internalType": "bytes32",
          "name": "proposalId",
          "type": "bytes32"
        }
      ],
      "name": "getSnapshotVotingPowerForProposalExecution",
      "outputs": [
        {
          "internalType": "uint256",
          "name": "",
          "type": "uint256"
        }
      ],
      "stateMutability": "view",
      "type": "function"
    },
    {
      "inputs": [],
      "name": "getTimeForExecution",
      "outputs": [
        {
          "internalType": "uint256",
          "name": "",
          "type": "uint256"
        }
      ],
      "stateMutability": "view",
      "type": "function"
    },
    {
      "inputs": [],
      "name": "getToken",
      "outputs": [
        {
          "internalType": "address",
          "name": "",
          "type": "address"
        }
      ],
      "stateMutability": "view",
      "type": "function"
    },
    {
      "inputs": [],
      "name": "getTokenVault",
      "outputs": [
        {
          "internalType": "address",
          "name": "",
          "type": "address"
        }
      ],
      "stateMutability": "view",
      "type": "function"
    },
    {
      "inputs": [],
      "name": "getTotalLocked",
      "outputs": [
        {
          "internalType": "uint256",
          "name": "",
          "type": "uint256"
        }
      ],
      "stateMutability": "view",
      "type": "function"
    },
    {
      "inputs": [],
      "name": "getTotalMembers",
      "outputs": [
        {
          "internalType": "uint256",
          "name": "",
          "type": "uint256"
        }
      ],
      "stateMutability": "view",
      "type": "function"
    },
    {
      "inputs": [],
      "name": "getTotalProposals",
      "outputs": [
        {
          "internalType": "uint256",
          "name": "",
          "type": "uint256"
        }
      ],
      "stateMutability": "view",
      "type": "function"
    },
    {
      "inputs": [],
      "name": "getVoteGas",
      "outputs": [
        {
          "internalType": "uint256",
          "name": "",
          "type": "uint256"
        }
      ],
      "stateMutability": "view",
      "type": "function"
    },
    {
      "inputs": [
        {
          "internalType": "address",
          "name": "voter",
          "type": "address"
        }
      ],
      "name": "getVoterLockTimestamp",
      "outputs": [
        {
          "internalType": "uint256",
          "name": "",
          "type": "uint256"
        }
      ],
      "stateMutability": "view",
      "type": "function"
    },
    {
      "inputs": [],
      "name": "getVotingPowerForProposalCreation",
      "outputs": [
        {
          "internalType": "uint256",
          "name": "",
          "type": "uint256"
        }
      ],
      "stateMutability": "view",
      "type": "function"
    },
    {
      "inputs": [],
      "name": "getVotingPowerForProposalExecution",
      "outputs": [
        {
          "internalType": "uint256",
          "name": "",
          "type": "uint256"
        }
      ],
      "stateMutability": "view",
      "type": "function"
    },
    {
      "inputs": [
        {
          "internalType": "address",
          "name": "voter",
          "type": "address"
        },
        {
          "internalType": "bytes32",
          "name": "proposalId",
          "type": "bytes32"
        },
        {
          "internalType": "uint256",
          "name": "option",
          "type": "uint256"
        },
        {
          "internalType": "uint256",
          "name": "votingPower",
          "type": "uint256"
        }
      ],
      "name": "hashVote",
      "outputs": [
        {
          "internalType": "bytes32",
          "name": "",
          "type": "bytes32"
        }
      ],
      "stateMutability": "pure",
      "type": "function"
    },
    {
      "inputs": [
        {
          "internalType": "address",
          "name": "_token",
          "type": "address"
        },
        {
          "internalType": "uint256",
          "name": "_proposalTime",
          "type": "uint256"
        },
        {
          "internalType": "uint256",
          "name": "_timeForExecution",
          "type": "uint256"
        },
        {
          "internalType": "uint256",
          "name": "_votingPowerPercentageForProposalExecution",
          "type": "uint256"
        },
        {
          "internalType": "uint256",
          "name": "_votingPowerPercentageForProposalCreation",
          "type": "uint256"
        },
        {
          "internalType": "string",
          "name": "_name",
          "type": "string"
        },
        {
          "internalType": "uint256",
          "name": "_voteGas",
          "type": "uint256"
        },
        {
          "internalType": "uint256",
          "name": "_maxGasPrice",
          "type": "uint256"
        },
        {
          "internalType": "uint256",
          "name": "_maxActiveProposals",
          "type": "uint256"
        },
        {
          "internalType": "uint256",
          "name": "_lockTime",
          "type": "uint256"
        },
        {
          "internalType": "address",
          "name": "_permissionRegistry",
          "type": "address"
        }
      ],
      "name": "initialize",
      "outputs": [],
      "stateMutability": "nonpayable",
      "type": "function"
    },
    {
      "inputs": [],
      "name": "lockTime",
      "outputs": [
        {
          "internalType": "uint256",
          "name": "",
          "type": "uint256"
        }
      ],
      "stateMutability": "view",
      "type": "function"
    },
    {
      "inputs": [
        {
          "internalType": "uint256",
          "name": "",
          "type": "uint256"
        }
      ],
      "name": "lockTokens",
      "outputs": [],
      "stateMutability": "nonpayable",
      "type": "function"
    },
    {
      "inputs": [],
      "name": "maxActiveProposals",
      "outputs": [
        {
          "internalType": "uint256",
          "name": "",
          "type": "uint256"
        }
      ],
      "stateMutability": "view",
      "type": "function"
    },
    {
      "inputs": [],
      "name": "maxGasPrice",
      "outputs": [
        {
          "internalType": "uint256",
          "name": "",
          "type": "uint256"
        }
      ],
      "stateMutability": "view",
      "type": "function"
    },
    {
      "inputs": [],
      "name": "minimumMembersForProposalCreation",
      "outputs": [
        {
          "internalType": "uint256",
          "name": "",
          "type": "uint256"
        }
      ],
      "stateMutability": "view",
      "type": "function"
    },
    {
      "inputs": [],
      "name": "minimumTokensLockedForProposalCreation",
      "outputs": [
        {
          "internalType": "uint256",
          "name": "",
          "type": "uint256"
        }
      ],
      "stateMutability": "view",
      "type": "function"
    },
    {
      "inputs": [],
      "name": "name",
      "outputs": [
        {
          "internalType": "string",
          "name": "",
          "type": "string"
        }
      ],
      "stateMutability": "view",
      "type": "function"
    },
    {
      "inputs": [],
      "name": "owner",
      "outputs": [
        {
          "internalType": "address",
          "name": "",
          "type": "address"
        }
      ],
      "stateMutability": "view",
      "type": "function"
    },
    {
      "inputs": [],
      "name": "proposalTime",
      "outputs": [
        {
          "internalType": "uint256",
          "name": "",
          "type": "uint256"
        }
      ],
      "stateMutability": "view",
      "type": "function"
    },
    {
      "inputs": [
        {
          "internalType": "bytes32",
          "name": "",
          "type": "bytes32"
        },
        {
          "internalType": "address",
          "name": "",
          "type": "address"
        }
      ],
      "name": "proposalVotes",
      "outputs": [
        {
          "internalType": "uint256",
          "name": "option",
          "type": "uint256"
        },
        {
          "internalType": "uint256",
          "name": "votingPower",
          "type": "uint256"
        }
      ],
      "stateMutability": "view",
      "type": "function"
    },
    {
      "inputs": [
        {
          "internalType": "bytes32",
          "name": "",
          "type": "bytes32"
        }
      ],
      "name": "proposals",
      "outputs": [
        {
          "internalType": "address",
          "name": "creator",
          "type": "address"
        },
        {
          "internalType": "uint256",
          "name": "startTime",
          "type": "uint256"
        },
        {
          "internalType": "uint256",
          "name": "endTime",
          "type": "uint256"
        },
        {
          "internalType": "string",
          "name": "title",
          "type": "string"
        },
        {
          "internalType": "string",
          "name": "contentHash",
          "type": "string"
        },
        {
          "internalType": "enum BaseERC20Guild.ProposalState",
          "name": "state",
          "type": "uint8"
        }
      ],
      "stateMutability": "view",
      "type": "function"
    },
    {
      "inputs": [
        {
          "internalType": "uint256",
          "name": "",
          "type": "uint256"
        }
      ],
      "name": "proposalsIds",
      "outputs": [
        {
          "internalType": "bytes32",
          "name": "",
          "type": "bytes32"
        }
      ],
      "stateMutability": "view",
      "type": "function"
    },
    {
      "inputs": [
        {
          "internalType": "bytes32",
          "name": "",
          "type": "bytes32"
        }
      ],
      "name": "proposalsSnapshots",
      "outputs": [
        {
          "internalType": "uint256",
          "name": "",
          "type": "uint256"
        }
      ],
      "stateMutability": "view",
      "type": "function"
    },
    {
      "inputs": [],
      "name": "renounceOwnership",
      "outputs": [],
      "stateMutability": "nonpayable",
      "type": "function"
    },
    {
      "inputs": [
        {
          "internalType": "uint256",
          "name": "_proposalTime",
          "type": "uint256"
        },
        {
          "internalType": "uint256",
          "name": "_timeForExecution",
          "type": "uint256"
        },
        {
          "internalType": "uint256",
          "name": "_votingPowerPercentageForProposalExecution",
          "type": "uint256"
        },
        {
          "internalType": "uint256",
          "name": "_votingPowerPercentageForProposalCreation",
          "type": "uint256"
        },
        {
          "internalType": "uint256",
          "name": "_voteGas",
          "type": "uint256"
        },
        {
          "internalType": "uint256",
          "name": "_maxGasPrice",
          "type": "uint256"
        },
        {
          "internalType": "uint256",
          "name": "_maxActiveProposals",
          "type": "uint256"
        },
        {
          "internalType": "uint256",
          "name": "_lockTime",
          "type": "uint256"
        },
        {
          "internalType": "uint256",
          "name": "_minimumMembersForProposalCreation",
          "type": "uint256"
        },
        {
          "internalType": "uint256",
          "name": "_minimumTokensLockedForProposalCreation",
          "type": "uint256"
        }
      ],
      "name": "setConfig",
      "outputs": [],
      "stateMutability": "nonpayable",
      "type": "function"
    },
    {
      "inputs": [
        {
          "internalType": "bytes32",
          "name": "proposalId",
          "type": "bytes32"
        },
        {
          "internalType": "uint256",
          "name": "option",
          "type": "uint256"
        },
        {
          "internalType": "uint256",
          "name": "votingPower",
          "type": "uint256"
        },
        {
          "internalType": "address",
          "name": "voter",
          "type": "address"
        },
        {
          "internalType": "bytes",
          "name": "signature",
          "type": "bytes"
        }
      ],
      "name": "setSignedVote",
      "outputs": [],
      "stateMutability": "nonpayable",
      "type": "function"
    },
    {
      "inputs": [
        {
          "internalType": "bytes32",
          "name": "proposalId",
          "type": "bytes32"
        },
        {
          "internalType": "uint256",
          "name": "option",
          "type": "uint256"
        },
        {
          "internalType": "uint256",
          "name": "votingPower",
          "type": "uint256"
        }
      ],
      "name": "setVote",
      "outputs": [],
      "stateMutability": "nonpayable",
      "type": "function"
    },
    {
      "inputs": [
        {
          "internalType": "bytes32",
          "name": "",
          "type": "bytes32"
        }
      ],
      "name": "signedVotes",
      "outputs": [
        {
          "internalType": "bool",
          "name": "",
          "type": "bool"
        }
      ],
      "stateMutability": "view",
      "type": "function"
    },
    {
      "inputs": [],
      "name": "timeForExecution",
      "outputs": [
        {
          "internalType": "uint256",
          "name": "",
          "type": "uint256"
        }
      ],
      "stateMutability": "view",
      "type": "function"
    },
    {
      "inputs": [],
      "name": "token",
      "outputs": [
        {
          "internalType": "contract IERC20Upgradeable",
          "name": "",
          "type": "address"
        }
      ],
      "stateMutability": "view",
      "type": "function"
    },
    {
      "inputs": [],
      "name": "tokenVault",
      "outputs": [
        {
          "internalType": "contract TokenVault",
          "name": "",
          "type": "address"
        }
      ],
      "stateMutability": "view",
      "type": "function"
    },
    {
      "inputs": [
        {
          "internalType": "address",
          "name": "",
          "type": "address"
        }
      ],
      "name": "tokensLocked",
      "outputs": [
        {
          "internalType": "uint256",
          "name": "amount",
          "type": "uint256"
        },
        {
          "internalType": "uint256",
          "name": "timestamp",
          "type": "uint256"
        }
      ],
      "stateMutability": "view",
      "type": "function"
    },
    {
      "inputs": [],
      "name": "totalLocked",
      "outputs": [
        {
          "internalType": "uint256",
          "name": "",
          "type": "uint256"
        }
      ],
      "stateMutability": "view",
      "type": "function"
    },
    {
      "inputs": [],
      "name": "totalProposals",
      "outputs": [
        {
          "internalType": "uint256",
          "name": "",
          "type": "uint256"
        }
      ],
      "stateMutability": "view",
      "type": "function"
    },
    {
      "inputs": [
        {
          "internalType": "address",
          "name": "newOwner",
          "type": "address"
        }
      ],
      "name": "transferOwnership",
      "outputs": [],
      "stateMutability": "nonpayable",
      "type": "function"
    },
    {
      "inputs": [
        {
          "internalType": "bytes32",
          "name": "root",
          "type": "bytes32"
        },
        {
          "internalType": "bytes32",
          "name": "voteHash",
          "type": "bytes32"
        },
        {
          "internalType": "bytes32[]",
          "name": "proof",
          "type": "bytes32[]"
        }
      ],
      "name": "validateMerkleTreeLeaf",
      "outputs": [
        {
          "internalType": "bool",
          "name": "",
          "type": "bool"
        }
      ],
      "stateMutability": "nonpayable",
      "type": "function"
    },
    {
      "inputs": [],
      "name": "voteGas",
      "outputs": [
        {
          "internalType": "uint256",
          "name": "",
          "type": "uint256"
        }
      ],
      "stateMutability": "view",
      "type": "function"
    },
    {
      "inputs": [
        {
          "internalType": "address",
          "name": "account",
          "type": "address"
        }
      ],
      "name": "votingPowerOf",
      "outputs": [
        {
          "internalType": "uint256",
          "name": "",
          "type": "uint256"
        }
      ],
      "stateMutability": "view",
      "type": "function"
    },
    {
      "inputs": [
        {
          "internalType": "address",
          "name": "account",
          "type": "address"
        },
        {
          "internalType": "uint256",
          "name": "snapshotId",
          "type": "uint256"
        }
      ],
      "name": "votingPowerOfAt",
      "outputs": [
        {
          "internalType": "uint256",
          "name": "",
          "type": "uint256"
        }
      ],
      "stateMutability": "view",
      "type": "function"
    },
    {
      "inputs": [
        {
          "internalType": "address[]",
          "name": "accounts",
          "type": "address[]"
        },
        {
          "internalType": "uint256[]",
          "name": "snapshotIds",
          "type": "uint256[]"
        }
      ],
      "name": "votingPowerOfMultipleAt",
      "outputs": [
        {
          "internalType": "uint256[]",
          "name": "",
          "type": "uint256[]"
        }
      ],
      "stateMutability": "view",
      "type": "function"
    },
    {
      "inputs": [],
      "name": "votingPowerPercentageForProposalCreation",
      "outputs": [
        {
          "internalType": "uint256",
          "name": "",
          "type": "uint256"
        }
      ],
      "stateMutability": "view",
      "type": "function"
    },
    {
      "inputs": [],
      "name": "votingPowerPercentageForProposalExecution",
      "outputs": [
        {
          "internalType": "uint256",
          "name": "",
          "type": "uint256"
        }
      ],
      "stateMutability": "view",
      "type": "function"
    },
    {
      "inputs": [
        {
          "internalType": "uint256",
          "name": "",
          "type": "uint256"
        }
      ],
      "name": "withdrawTokens",
      "outputs": [],
      "stateMutability": "nonpayable",
      "type": "function"
    }
  ],
  "bytecode": "0x608060405234801561001057600080fd5b50615f3480620000216000396000f3fe608060405260043610620004095760003560e01c80636c8b72f6116200021b578063ae6192341162000123578063e045035311620000b3578063f4732da61162000081578063f4732da61462000c76578063f98606a71462000c8e578063f9a92d821462000ca6578063fc0c546a1462000ccb578063fc4e703f1462000ced57005b8063e04503531462000bde578063e158080a1462000bf6578063f09951981462000c0e578063f2fde38b1462000c5157005b8063bcc3f3bd11620000f1578063bcc3f3bd1462000b66578063c0a4d64d1462000b8b578063c93e01e31462000ba2578063d8c6a6d11462000bb957005b8063ae6192341462000aed578063b3929aaa1462000b05578063b3b470611462000b2a578063b7c15f8d1462000b4f57005b80638da5cb5b11620001ab578063a78d80fc1162000179578063a78d80fc1462000a4d578063a7aeb5571462000a65578063ab6ea06b1462000a7d578063ad6c1e341462000aa2578063adf2c7b61462000ab957005b80638da5cb5b14620009d15780638f18030514620009f157806392b716541462000a08578063a16fe3421462000a2d57005b806377027ff411620001e957806377027ff4146200094a5780638029eff1146200096157806386e27125146200099557806389c98c0614620009ba57005b80636c8b72f614620008ea5780636e27d889146200072e578063715018a6146200090157806371893546146200091957005b806325c069fc116200031f5780633de39c1111620002af57806356891412116200027d57806356891412146200084d5780635bc789d914620008655780635e508c2c146200088757806364fe6ed2146200089f578063671abed714620008b657005b80633de39c1114620007c95780633f10cf1514620007e1578063430694cf14620007f957806354f2f7af146200082d57005b8063315a095d11620002ed578063315a095d146200072e57806332ed5b12146200075357806336f8f8d9146200078c5780633bf353fb14620007b157005b806325c069fc146200065d5780632d5b17de14620006875780632d757c3e14620006ac5780632fd99c0014620006e957005b806316bbecde116200039b57806321df0da7116200036957806321df0da714620005ca5780632229a0e214620005fe57806322bafdff14620006155780632467ef94146200064657005b806316bbecde146200055e57806317d7de7c1462000583578063184a0ae9146200059b5780631a5007dd14620005b357005b80630d66808711620003d95780630d66808714620004d7578063123f6d6714620004ef578063130485fe146200051457806313108d74146200053957005b80623a40d0146200040b57806301a598a6146200043b57806306fdde0314620004895780630a366a6314620004b0575b005b3480156200041857600080fd5b506200042362000d05565b604051620004329190620046ae565b60405180910390f35b3480156200044857600080fd5b50620004736200045a36600462004711565b6012602052600090815260409020805460019091015482565b6040805192835260208301919091520162000432565b3480156200049657600080fd5b50620004a162000d5f565b6040516200043291906200477f565b348015620004bd57600080fd5b50620004c862000df5565b60405190815260200162000432565b348015620004e457600080fd5b50620004c8600d5481565b348015620004fc57600080fd5b50620004096200050e36600462004794565b62000e22565b3480156200052157600080fd5b506200047362000533366004620047fd565b62000fbb565b3480156200054657600080fd5b50620004c86200055836600462004a96565b62000fed565b3480156200056b57600080fd5b50620004096200057d36600462004b7f565b620010a4565b3480156200059057600080fd5b50620004a1620011d5565b348015620005a857600080fd5b50620004c860035481565b348015620005c057600080fd5b50600a54620004c8565b348015620005d757600080fd5b506000546001600160a01b03165b6040516001600160a01b03909116815260200162000432565b3480156200060b57600080fd5b50601654620004c8565b3480156200062257600080fd5b50620004c86200063436600462004bac565b6000908152607c602052604090205490565b3480156200065357600080fd5b50600c54620004c8565b3480156200066a57600080fd5b5062000674600a81565b60405160ff909116815260200162000432565b3480156200069457600080fd5b5062000409620006a636600462004bc6565b62001266565b348015620006b957600080fd5b50620004c8620006cb36600462004711565b6001600160a01b031660009081526012602052604090206001015490565b348015620006f657600080fd5b506200071d6200070836600462004bac565b60136020526000908152604090205460ff1681565b604051901515815260200162000432565b3480156200073b57600080fd5b50620004096200074d36600462004bac565b62001559565b3480156200076057600080fd5b50620007786200077236600462004bac565b620015b6565b604051620004329695949392919062004c6f565b3480156200079957600080fd5b5062000409620007ab36600462004ccf565b6200171a565b348015620007be57600080fd5b50620004c8600c5481565b348015620007d657600080fd5b50620004c860085481565b348015620007ee57600080fd5b50620004c860045481565b3480156200080657600080fd5b506200081e6200081836600462004bac565b62001902565b60405162000432919062004e56565b3480156200083a57600080fd5b506011546001600160a01b0316620005e5565b3480156200085a57600080fd5b50620004c8600e5481565b3480156200087257600080fd5b50601154620005e5906001600160a01b031681565b3480156200089457600080fd5b50620004c860055481565b348015620008ac57600080fd5b50601054620004c8565b348015620008c357600080fd5b50620008db620008d536600462004f63565b62001cb5565b60405162000432919062004ff4565b348015620008f757600080fd5b50600754620004c8565b3480156200090e57600080fd5b506200040962002126565b3480156200092657600080fd5b50620004c86200093836600462004bac565b607c6020526000908152604090205481565b3480156200095757600080fd5b50600954620004c8565b3480156200096e57600080fd5b506200071d6200098036600462004bac565b60009081526013602052604090205460ff1690565b348015620009a257600080fd5b5062000409620009b436600462005030565b62002190565b348015620009c757600080fd5b50600854620004c8565b348015620009de57600080fd5b50604a546001600160a01b0316620005e5565b348015620009fe57600080fd5b50600b54620004c8565b34801562000a1557600080fd5b50620004c862000a27366004620050b1565b62002533565b34801562000a3a57600080fd5b506001546001600160a01b0316620005e5565b34801562000a5a57600080fd5b50620004c8600a5481565b34801562000a7257600080fd5b50620004c8600f5481565b34801562000a8a57600080fd5b506200071d62000a9c366004620050ed565b6200258a565b34801562000aaf57600080fd5b50600f54620004c8565b34801562000ac657600080fd5b5062000ade62000ad836600462005136565b620025a1565b604051620004329190620051a0565b34801562000afa57600080fd5b50620004c86200267c565b34801562000b1257600080fd5b50620004c862000b2436600462004bac565b62002696565b34801562000b3757600080fd5b506200040962000b4936600462004bac565b620026b8565b34801562000b5c57600080fd5b50600454620004c8565b34801562000b7357600080fd5b50620004c862000b8536600462004711565b62003028565b34801562000b9857600080fd5b50600d54620004c8565b34801562000baf57600080fd5b50600354620004c8565b34801562000bc657600080fd5b50620004c862000bd836600462004bac565b620030b0565b34801562000beb57600080fd5b50620004c860095481565b34801562000c0357600080fd5b50620004c860105481565b34801562000c1b57600080fd5b506200047362000c2d366004620047fd565b60146020908152600092835260408084209091529082529020805460019091015482565b34801562000c5e57600080fd5b506200040962000c7036600462004711565b6200315f565b34801562000c8357600080fd5b50620004c862003230565b34801562000c9b57600080fd5b50620004c860065481565b34801562000cb357600080fd5b50620004c862000cc5366004620051b5565b620032bb565b34801562000cd857600080fd5b50600054620005e5906001600160a01b031681565b34801562000cfa57600080fd5b50620004c860075481565b6060601680548060200260200160405190810160405280929190818152602001828054801562000d5557602002820191906000526020600020905b81548152602001906001019080831162000d40575b5050505050905090565b6002805462000d6e90620051e2565b80601f016020809104026020016040519081016040528092919081815260200182805462000d9c90620051e2565b801562000ded5780601f1062000dc15761010080835404028352916020019162000ded565b820191906000526020600020905b81548152906001019060200180831162000dcf57829003601f168201915b505050505081565b600062000e1d61271062000e1660065462000e0f62003230565b906200334b565b9062003359565b905090565b33301462000ea85760405162461bcd60e51b815260206004820152604260248201527f45524332304775696c643a204f6e6c792063616c6c61626c652062792045524360448201527f32306775696c6420697473656c66206f72207768656e20696e697469616c697a606482015261195960f21b608482015260a4015b60405180910390fd5b60008a1162000ecb5760405162461bcd60e51b815260040162000e9f906200521f565b8983101562000eee5760405162461bcd60e51b815260040162000e9f906200526e565b6000881162000f115760405162461bcd60e51b815260040162000e9f90620052cb565b6201c90886111562000f8c5760405162461bcd60e51b815260206004820152603960248201527f45524332304775696c643a20766f7465206761732068617320746f206265206560448201527f7175616c206f72206c6f776572207468616e2031313730303000000000000000606482015260840162000e9f565b600399909955600497909755600595909555600693909355600791909155600855600955600d55600f55601055565b60008281526014602090815260408083206001600160a01b0385168452909152902080546001909101545b9250929050565b6000806200100088888888888862003367565b905060008054906101000a90046001600160a01b03166001600160a01b0316635439ad866040518163ffffffff1660e01b815260040160206040518083038186803b1580156200104f57600080fd5b505afa15801562001064573d6000803e3d6000fd5b505050506040513d601f19601f820116820180604052508101906200108a919062005328565b6000828152607c6020526040902055979650505050505050565b6000838152601560205260409020600201544210620010d75760405162461bcd60e51b815260040162000e9f9062005342565b6000838152607c60205260409020548190620010f5903390620032bb565b1015620011165760405162461bcd60e51b815260040162000e9f9062005398565b60008381526014602090815260408083203384529091529020541580156200115857506000838152601460209081526040808320338452909152902060010154155b80620011a35750600083815260146020908152604080832033845290915290205482148015620011a35750600083815260146020908152604080832033845290915290206001015481115b620011c25760405162461bcd60e51b815260040162000e9f90620053e9565b620011d0338484846200394d565b505050565b606060028054620011e690620051e2565b80601f01602080910402602001604051908101604052809291908181526020018280546200121490620051e2565b801562000d555780601f10620012395761010080835404028352916020019162000d55565b820191906000526020600020905b8154815290600101906020018083116200124757509395945050505050565b6000858152601560205260409020600201544210620012995760405162461bcd60e51b815260040162000e9f9062005342565b6000620012a98387878762002533565b60008181526013602052604090205490915060ff1615620013195760405162461bcd60e51b8152602060048201526024808201527f536e617073686f7452657045524332304775696c643a20416c726561647920766044820152631bdd195960e21b606482015260840162000e9f565b6200137d8262001376836040517f19457468657265756d205369676e6564204d6573736167653a0a3332000000006020820152603c8101829052600090605c01604051602081830303815290604052805190602001209050919050565b9062003bae565b6001600160a01b0316836001600160a01b031614620013eb5760405162461bcd60e51b815260206004820152602360248201527f536e617073686f7452657045524332304775696c643a2057726f6e67207369676044820152623732b960e91b606482015260840162000e9f565b6000818152601360209081526040808320805460ff19166001179055888352607c909152902054849062001421908590620032bb565b1015801562001454575060008681526014602090815260408083206001600160a01b038716845290915290206001015484115b620014735760405162461bcd60e51b815260040162000e9f9062005398565b60008681526014602090815260408083206001600160a01b0387168452909152902054158015620014c7575060008681526014602090815260408083206001600160a01b0387168452909152902060010154155b8062001524575060008681526014602090815260408083206001600160a01b03871684529091529020548514801562001524575060008681526014602090815260408083206001600160a01b038716845290915290206001015484115b620015435760405162461bcd60e51b815260040162000e9f90620053e9565b62001551838787876200394d565b505050505050565b60405162461bcd60e51b815260206004820152602b60248201527f536e617073686f7452657045524332304775696c643a20746f6b656e2076617560448201526a1b1d08191a5cd8589b195960aa1b606482015260840162000e9f565b60156020526000908152604090208054600182015460028301546006840180546001600160a01b03909416949293919291620015f290620051e2565b80601f01602080910402602001604051908101604052809291908181526020018280546200162090620051e2565b8015620016715780601f10620016455761010080835404028352916020019162001671565b820191906000526020600020905b8154815290600101906020018083116200165357829003601f168201915b5050505050908060070180546200168890620051e2565b80601f0160208091040260200160405190810160405280929190818152602001828054620016b690620051e2565b8015620017075780601f10620016db5761010080835404028352916020019162001707565b820191906000526020600020905b815481529060010190602001808311620016e957829003601f168201915b5050506008909301549192505060ff1686565b60175462010000900460ff16806200173a5750601754610100900460ff16155b620017595760405162461bcd60e51b815260040162000e9f906200545b565b60175462010000900460ff161580156200177f576017805462ffff001916620101001790555b6200178962003bce565b6200179e8c8c8c8c8c8c8c8c8c8c8c62003c5d565b600160009054906101000a90046001600160a01b03166001600160a01b0316636cfe0489308e7f40c10f19c047ae7dfa66d6312b683d2ea3dfbcb4159e96b967c5f4b0a86f2842600060016040518663ffffffff1660e01b81526004016200180b959493929190620054a9565b600060405180830381600087803b1580156200182657600080fd5b505af11580156200183b573d6000803e3d6000fd5b50505050600160009054906101000a90046001600160a01b03166001600160a01b0316636cfe0489308e7f9dc29fac0ba6d4fc521c69c2b0c636d612e3343bc39ed934429b8876b0d12cba600060016040518663ffffffff1660e01b8152600401620018ac959493929190620054a9565b600060405180830381600087803b158015620018c757600080fd5b505af1158015620018dc573d6000803e3d6000fd5b505050508015620018f4576017805462ff0000191690555b505050505050505050505050565b6200190c62004435565b60008281526015602090815260409182902082516101408101845281546001600160a01b031681526001820154818401526002820154818501526003820180548551818602810186019096528086529194929360608601939290830182828015620019a157602002820191906000526020600020905b81546001600160a01b0316815260019091019060200180831162001982575b5050505050815260200160048201805480602002602001604051908101604052809291908181526020016000905b8282101562001a85578382906000526020600020018054620019f190620051e2565b80601f016020809104026020016040519081016040528092919081815260200182805462001a1f90620051e2565b801562001a705780601f1062001a445761010080835404028352916020019162001a70565b820191906000526020600020905b81548152906001019060200180831162001a5257829003601f168201915b505050505081526020019060010190620019cf565b5050505081526020016005820180548060200260200160405190810160405280929190818152602001828054801562001ade57602002820191906000526020600020905b81548152602001906001019080831162001ac9575b5050505050815260200160068201805462001af990620051e2565b80601f016020809104026020016040519081016040528092919081815260200182805462001b2790620051e2565b801562001b785780601f1062001b4c5761010080835404028352916020019162001b78565b820191906000526020600020905b81548152906001019060200180831162001b5a57829003601f168201915b5050505050815260200160078201805462001b9390620051e2565b80601f016020809104026020016040519081016040528092919081815260200182805462001bc190620051e2565b801562001c125780601f1062001be65761010080835404028352916020019162001c12565b820191906000526020600020905b81548152906001019060200180831162001bf457829003601f168201915b5050509183525050600882015460209091019060ff16600481111562001c3c5762001c3c62004c36565b600481111562001c505762001c5062004c36565b81526020016009820180548060200260200160405190810160405280929190818152602001828054801562001ca557602002820191906000526020600020905b81548152602001906001019080831162001c90575b5050505050815250509050919050565b60608251845114801562001cca575081518351145b62001d3e5760405162461bcd60e51b815260206004820152603f60248201527f45524332304775696c643a20496e76616c69642070726f706f73616c4964732c60448201527f206f7074696f6e73206f7220766f74696e67506f77657273206c656e67746800606482015260840162000e9f565b60008085516001600160401b0381111562001d5d5762001d5d6200482c565b60405190808252806020026020018201604052801562001d87578160200160208202803683370190505b509050600091505b85518210156200211d57426015600088858151811062001db35762001db3620054e4565b6020026020010151815260200190815260200160002060020154101562001e0157600081838151811062001deb5762001deb620054e4565b9115156020928302919091019091015262002108565b83828151811062001e165762001e16620054e4565b602002602001015162001e293362003028565b108062001ea657506014600087848151811062001e4a5762001e4a620054e4565b602002602001015181526020019081526020016000206000336001600160a01b03166001600160a01b031681526020019081526020016000206001015484838151811062001e9c5762001e9c620054e4565b6020026020010151105b1562001ec357600081838151811062001deb5762001deb620054e4565b6014600087848151811062001edc5762001edc620054e4565b60209081029190910181015182528181019290925260409081016000908120338252909252902054158062001f6657506014600087848151811062001f255762001f25620054e4565b602002602001015181526020019081526020016000206000336001600160a01b03166001600160a01b03168152602001908152602001600020600101546000145b801562002060575084828151811062001f835762001f83620054e4565b60200260200101516014600088858151811062001fa45762001fa4620054e4565b602002602001015181526020019081526020016000206000336001600160a01b03166001600160a01b031681526020019081526020016000206000015414158015620020605750838281518110620020005762002000620054e4565b602002602001015160146000888581518110620020215762002021620054e4565b602002602001015181526020019081526020016000206000336001600160a01b03166001600160a01b0316815260200190815260200160002060010154115b156200207d57600081838151811062001deb5762001deb620054e4565b6001818381518110620020945762002094620054e4565b6020026020010190151590811515815250506200210833878481518110620020c057620020c0620054e4565b6020026020010151878581518110620020dd57620020dd620054e4565b6020026020010151878681518110620020fa57620020fa620054e4565b60200260200101516200394d565b81620021148162005510565b92505062001d8f565b95945050505050565b604a546001600160a01b03163314620021825760405162461bcd60e51b815260206004820181905260248201527f4f776e61626c653a2063616c6c6572206973206e6f7420746865206f776e6572604482015260640162000e9f565b6200218e600062003e83565b565b6000620021a08785858562002533565b9050858114620021f35760405162461bcd60e51b815260206004820152601d60248201527f45524332304775696c643a20496e76616c696420766f74652068617368000000604482015260640162000e9f565b60008181526013602052604090205460ff1615620022545760405162461bcd60e51b815260206004820152601960248201527f45524332304775696c643a20416c726561647920766f74656400000000000000604482015260640162000e9f565b6000620022638988886200258a565b905080620022c05760405162461bcd60e51b8152602060048201526024808201527f45524332304775696c643a20496e76616c6964206d65726b6c652074726565206044820152633632b0b360e11b606482015260840162000e9f565b6000858152601560205260409020600201544210620023365760405162461bcd60e51b815260206004820152602b60248201527f45524332304775696c643a2050726f706f73616c20656e6465642c2063616e6e60448201526a1bdd081899481d9bdd195960aa1b606482015260840162000e9f565b82620023428962003028565b1015801562002375575060008581526014602090815260408083206001600160a01b038c16845290915290206001015483115b620023d25760405162461bcd60e51b815260206004820152602660248201527f45524332304775696c643a20496e76616c696420766f74696e67506f77657220604482015265185b5bdd5b9d60d21b606482015260840162000e9f565b60008581526014602090815260408083206001600160a01b038c16845290915290205415801562002426575060008581526014602090815260408083206001600160a01b038c168452909152902060010154155b8062002483575060008581526014602090815260408083206001600160a01b038c1684529091529020548414801562002483575060008581526014602090815260408083206001600160a01b038c16845290915290206001015483115b620025015760405162461bcd60e51b815260206004820152604160248201527f45524332304775696c643a2043616e6e6f74206368616e6765206f7074696f6e60448201527f20766f7465642c206f6e6c7920696e63726561736520766f74696e67506f77656064820152603960f91b608482015260a40162000e9f565b6000828152601360205260409020805460ff1916600117905562002528888686866200394d565b505050505050505050565b6040516bffffffffffffffffffffffff19606086901b166020820152603481018490526054810183905260748101829052600090609401604051602081830303815290604052805190602001209050949350505050565b60006200259982858562003ed5565b949350505050565b6060600083516001600160401b03811115620025c157620025c16200482c565b604051908082528060200260200182016040528015620025eb578160200160208202803683370190505b50905060005b845181101562002674576200263f858281518110620026145762002614620054e4565b6020026020010151858381518110620026315762002631620054e4565b6020026020010151620032bb565b828281518110620026545762002654620054e4565b6020908102919091010152806200266b8162005510565b915050620025f1565b509392505050565b600062000e1d61271062000e1660055462000e0f62003230565b60168181548110620026a757600080fd5b600091825260209091200154905081565b60175460ff1615620027205760405162461bcd60e51b815260206004820152602a60248201527f4552433230536e617073686f745265703a2050726f706f73616c20756e6465726044820152691032bc32b1baba34b7b760b11b606482015260840162000e9f565b600160008281526015602052604090206008015460ff1660048111156200274b576200274b62004c36565b14620027ae5760405162461bcd60e51b815260206004820152602b60248201527f4552433230536e617073686f745265703a2050726f706f73616c20616c72656160448201526a191e48195e1958dd5d195960aa1b606482015260840162000e9f565b6000818152601560205260409020600201544211620028245760405162461bcd60e51b815260206004820152602b60248201527f4552433230536e617073686f745265703a2050726f706f73616c206861736e2760448201526a1d08195b991959081e595d60aa1b606482015260840162000e9f565b6000818152601560205260408120600901805482919082906200284b576200284b620054e4565b600091825260209091200154905060015b6000848152601560205260409020600901548110156200298c576200288184620030b0565b6000858152601560205260409020600901805483908110620028a757620028a7620054e4565b906000526020600020015410158015620028f357506000848152601560205260409020600901805483919083908110620028e557620028e5620054e4565b906000526020600020015410155b1562002977576000848152601560205260409020600901805483919083908110620029225762002922620054e4565b906000526020600020015414156200293e576000925062002977565b60008481526015602052604090206009018054919350839182908110620029695762002969620054e4565b906000526020600020015491505b80620029838162005510565b9150506200285c565b82620029dc576000848152601560205260409020600801805460ff19166002908117909155849060008051602062005edf833981519152905b60405190815260200160405180910390a26200300f565b6004546000858152601560205260409020600201544291620029ff919062003eed565b101562002a3e576000848152601560205260409020600801805460ff19166004908117909155849060008051602062005edf83398151915290620029c5565b600084815260156020526040812060088101805460ff191660031790556009015462002a8a9062002a7190600162003efb565b6000878152601560205260409020600301549062003359565b905062002aa562002a9d85600162003efb565b82906200334b565b9150600062002ab5838362003eed565b9050600160009054906101000a90046001600160a01b03166001600160a01b0316633e7a47b26040518163ffffffff1660e01b8152600401600060405180830381600087803b15801562002b0857600080fd5b505af115801562002b1d573d6000803e3d6000fd5b505050505b8083101562002f6657600086815260156020526040812060030180548590811062002b515762002b51620054e4565b6000918252602090912001546001600160a01b03161480159062002bb15750600086815260156020526040812060040180548590811062002b965762002b96620054e4565b90600052602060002001805462002bad90620051e2565b9050115b1562002f5157600086815260156020526040812060040180548590811062002bdd5762002bdd620054e4565b90600052602060002001805462002bf490620051e2565b80601f016020809104026020016040519081016040528092919081815260200182805462002c2290620051e2565b801562002c735780601f1062002c475761010080835404028352916020019162002c73565b820191906000526020600020905b81548152906001019060200180831162002c5557829003601f168201915b50505060208084015160015460008d815260159093526040909220600301805495965090946001600160a01b03909216935063eed47033925030918990811062002cc15762002cc1620054e4565b9060005260206000200160009054906101000a90046001600160a01b031684601560008e81526020019081526020016000206005018a8154811062002d0a5762002d0a620054e4565b60009182526020909120015460405160e086901b6001600160e01b031990811682526001600160a01b039586166004830152939094166024850152911660448301526064820152608401600060405180830381600087803b15801562002d6f57600080fd5b505af192505050801562002d81575060015b62002ddd5762002d906200552e565b806308c379a0141562002dd1575062002da86200554b565b8062002db5575062002dd3565b8060405162461bcd60e51b815260040162000e9f91906200477f565b505b3d6000803e3d6000fd5b6017805460ff19166001179055600088815260156020526040812060030180548790811062002e105762002e10620054e4565b60009182526020808320909101548b83526015909152604090912060050180546001600160a01b03909216918890811062002e4f5762002e4f620054e4565b9060005260206000200154601560008c8152602001908152602001600020600401888154811062002e845762002e84620054e4565b9060005260206000200160405162002e9d9190620055da565b60006040518083038185875af1925050503d806000811462002edc576040519150601f19603f3d011682016040523d82523d6000602084013e62002ee1565b606091505b505090508062002f435760405162461bcd60e51b815260206004820152602660248201527f4552433230536e617073686f745265703a2050726f706f73616c2063616c6c2060448201526519985a5b195960d21b606482015260840162000e9f565b50506017805460ff19169055505b8262002f5d8162005510565b93505062002b22565b60015460405163fb0fde8560e01b81523060048201526001600160a01b039091169063fb0fde8590602401602060405180830381600087803b15801562002fac57600080fd5b505af115801562002fc1573d6000803e3d6000fd5b505050506040513d601f19601f8201168201806040525081019062002fe791906200567e565b508560008051602062005edf833981519152600360405190815260200160405180910390a250505b600c546200301f90600162003efb565b600c5550505050565b600080546040516370a0823160e01b81526001600160a01b038481166004830152909116906370a082319060240160206040518083038186803b1580156200306f57600080fd5b505afa15801562003084573d6000803e3d6000fd5b505050506040513d601f19601f82011682018060405250810190620030aa919062005328565b92915050565b600554600080549091620030aa916127109162000e16916001600160a01b031663981b24d0620030ec886000908152607c602052604090205490565b6040518263ffffffff1660e01b81526004016200310b91815260200190565b60206040518083038186803b1580156200312457600080fd5b505afa15801562003139573d6000803e3d6000fd5b505050506040513d601f19601f8201168201806040525081019062000e0f919062005328565b604a546001600160a01b03163314620031bb5760405162461bcd60e51b815260206004820181905260248201527f4f776e61626c653a2063616c6c6572206973206e6f7420746865206f776e6572604482015260640162000e9f565b6001600160a01b038116620032225760405162461bcd60e51b815260206004820152602660248201527f4f776e61626c653a206e6577206f776e657220697320746865207a65726f206160448201526564647265737360d01b606482015260840162000e9f565b6200322d8162003e83565b50565b60008060009054906101000a90046001600160a01b03166001600160a01b03166318160ddd6040518163ffffffff1660e01b815260040160206040518083038186803b1580156200328057600080fd5b505afa15801562003295573d6000803e3d6000fd5b505050506040513d601f19601f8201168201806040525081019062000e1d919062005328565b6000805460405163277166bf60e11b81526001600160a01b0385811660048301526024820185905290911690634ee2cd7e9060440160206040518083038186803b1580156200330957600080fd5b505afa1580156200331e573d6000803e3d6000fd5b505050506040513d601f19601f8201168201806040525081019062003344919062005328565b9392505050565b6000620033448284620056a2565b6000620033448284620056da565b6000601054600e541015620033e55760405162461bcd60e51b815260206004820152603960248201527f45524332304775696c643a204e6f7420656e6f75676820746f6b656e73206c6f60448201527f636b656420746f2063726561746520612070726f706f73616c00000000000000606482015260840162000e9f565b600f54600b541015620034575760405162461bcd60e51b815260206004820152603360248201527f45524332304775696c643a204e6f7420656e6f756768206d656d6265727320746044820152721bc818dc99585d194818481c1c9bdc1bdcd85b606a1b606482015260840162000e9f565b600954600c5410620034cb5760405162461bcd60e51b815260206004820152603660248201527f45524332304775696c643a204d6178696d756d20616d6f756e74206f662061636044820152751d1a5d99481c1c9bdc1bdcd85b1cc81c995858da195960521b606482015260840162000e9f565b620034d562000df5565b620034e03362003028565b10156200354e5760405162461bcd60e51b815260206004820152603560248201527f45524332304775696c643a204e6f7420656e6f75676820766f74696e67506f77604482015274195c881d1bc818dc99585d19481c1c9bdc1bdcd85b605a1b606482015260840162000e9f565b8551875114801562003561575084518751145b620035cc5760405162461bcd60e51b815260206004820152603460248201527f45524332304775696c643a2057726f6e67206c656e677468206f6620746f2c2060448201527364617461206f722076616c75652061727261797360601b606482015260840162000e9f565b6000875111620036395760405162461bcd60e51b815260206004820152603160248201527f45524332304775696c643a20746f2c20646174612076616c7565206172726179604482015270732063616e6e6f7420626520656d70747960781b606482015260840162000e9f565b86518411158015620036565750845162003654908562003f09565b155b620036ca5760405162461bcd60e51b815260206004820152603760248201527f45524332304775696c643a20496e76616c696420746f74616c4f7074696f6e7360448201527f206f72206f7074696f6e2063616c6c73206c656e677468000000000000000000606482015260840162000e9f565b600a841115620037435760405162461bcd60e51b815260206004820152603a60248201527f45524332304775696c643a204d6178696d756d20616d6f756e74206f66206f7060448201527f74696f6e73207065722070726f706f73616c2072656163686564000000000000606482015260840162000e9f565b600a546040516bffffffffffffffffffffffff193360601b1660208201524260348201526054810191909152600090607401604051602081830303815290604052805190602001209050620037a56001600a5462003eed90919063ffffffff16565b600a55600081815260156020526040902080546001600160a01b031916331781554260018201819055600354620037dd919062003eed565b60028201558851620037f990600383019060208c0190620044a5565b5087516200381190600483019060208b01906200450f565b5086516200382990600583019060208a01906200456f565b508451620038419060068301906020880190620045ad565b508351620038599060078301906020870190620045ad565b506200386786600162003eed565b6001600160401b038111156200388157620038816200482c565b604051908082528060200260200182016040528015620038ab578160200160208202803683370190505b508051620038c49160098401916020909101906200456f565b5060088101805460ff19166001908117909155600c54620038e59162003eed565b600c558160008051602062005edf833981519152600160405190815260200160405180910390a250601680546001810182556000919091527fd833147d7dc355ba459fc788f669e58cfaf9dc25ddcd0702e87d69c7b512428901819055979650505050505050565b60008381526014602090815260408083206001600160a01b038816845282528083206001015486845260159092529091206009018054620039c3928492620039bc9287908110620039a257620039a2620054e4565b906000526020600020015462003efb90919063ffffffff16565b9062003eed565b6000848152601560205260409020600901805484908110620039e957620039e9620054e4565b60009182526020808320909101929092558481526014825260408082206001600160a01b038816835283528082208581556001018490558582526015909252206002015462003a50856001600160a01b031660009081526012602052604090206001015490565b101562003a85576000838152601560209081526040808320600201546001600160a01b03881684526012909252909120600101555b604080516001600160a01b038616815260208101839052839185917f583c62f152711bcb1ca6186c1065821ff17a7cbe226dcb559a1c889dcf0d769b910160405180910390a36007541562003ba857600062003afb62003af16008543a62003f1790919063ffffffff16565b600754906200334b565b905080471015801562003b0d5750333b155b1562003ba657604051600090339083908381818185875af1925050503d806000811462003b57576040519150601f19603f3d011682016040523d82523d6000602084013e62003b5c565b606091505b5050905080620015515760405162461bcd60e51b81526020600482015260146024820152734661696c656420746f20726566756e642067617360601b604482015260640162000e9f565b505b50505050565b600080600062003bbf858562003f2f565b91509150620026748162003fa5565b60175462010000900460ff168062003bee5750601754610100900460ff16155b62003c0d5760405162461bcd60e51b815260040162000e9f906200545b565b60175462010000900460ff1615801562003c33576017805462ffff001916620101001790555b62003c3d62004178565b62003c47620041f2565b80156200322d576017805462ff00001916905550565b60175462010000900460ff168062003c7d5750601754610100900460ff16155b62003c9c5760405162461bcd60e51b815260040162000e9f906200545b565b60175462010000900460ff1615801562003cc2576017805462ffff001916620101001790555b6001600160a01b038c1662003d295760405162461bcd60e51b815260206004820152602660248201527f45524332304775696c643a20746f6b656e2063616e74206265207a65726f206160448201526564647265737360d01b606482015260840162000e9f565b60008b1162003d4c5760405162461bcd60e51b815260040162000e9f906200521f565b8a83101562003d6f5760405162461bcd60e51b815260040162000e9f906200526e565b6000891162003d925760405162461bcd60e51b815260040162000e9f90620052cb565b865162003da79060029060208a0190620045ad565b50600080546001600160a01b0319166001600160a01b038e16908117909155604051309062003dd69062004629565b6001600160a01b03928316815291166020820152604001604051809103906000f08015801562003e0a573d6000803e3d6000fd5b50601180546001600160a01b03199081166001600160a01b039384161790915560038d905560048c905560058b905560068a9055600788905560088790556009869055600d859055600180549091169184169190911790558015620018f4576017805462ff000019169055505050505050505050505050565b604a80546001600160a01b038381166001600160a01b0319831681179093556040519116919082907f8be0079c531659141344cd1fd0a4f28419497f9722a3daafe3b4186f6b6457e090600090a35050565b60008262003ee4858462004262565b14949350505050565b6000620033448284620056f1565b60006200334482846200570c565b600062003344828462005726565b600081831062003f28578162003344565b5090919050565b60008082516041141562003f6a5760208301516040840151606085015160001a62003f5d878285856200430f565b9450945050505062000fe6565b82516040141562003f98576020830151604084015162003f8c86838362004404565b93509350505062000fe6565b5060009050600262000fe6565b600081600481111562003fbc5762003fbc62004c36565b141562003fc65750565b600181600481111562003fdd5762003fdd62004c36565b14156200402d5760405162461bcd60e51b815260206004820152601860248201527f45434453413a20696e76616c6964207369676e61747572650000000000000000604482015260640162000e9f565b600281600481111562004044576200404462004c36565b1415620040945760405162461bcd60e51b815260206004820152601f60248201527f45434453413a20696e76616c6964207369676e6174757265206c656e67746800604482015260640162000e9f565b6003816004811115620040ab57620040ab62004c36565b1415620041065760405162461bcd60e51b815260206004820152602260248201527f45434453413a20696e76616c6964207369676e6174757265202773272076616c604482015261756560f01b606482015260840162000e9f565b60048160048111156200411d576200411d62004c36565b14156200322d5760405162461bcd60e51b815260206004820152602260248201527f45434453413a20696e76616c6964207369676e6174757265202776272076616c604482015261756560f01b606482015260840162000e9f565b60175462010000900460ff1680620041985750601754610100900460ff16155b620041b75760405162461bcd60e51b815260040162000e9f906200545b565b60175462010000900460ff1615801562003c47576017805462ffff0019166201010017905580156200322d576017805462ff00001916905550565b60175462010000900460ff1680620042125750601754610100900460ff16155b620042315760405162461bcd60e51b815260040162000e9f906200545b565b60175462010000900460ff1615801562004257576017805462ffff001916620101001790555b62003c473362003e83565b600081815b845181101562002674576000858281518110620042885762004288620054e4565b60200260200101519050808311620042cc576040805160208101859052908101829052606001604051602081830303815290604052805190602001209250620042f9565b60408051602081018390529081018490526060016040516020818303038152906040528051906020012092505b5080620043068162005510565b91505062004267565b6000807f7fffffffffffffffffffffffffffffff5d576e7357a4501ddfe92f46681b20a0831115620043485750600090506003620043fb565b8460ff16601b141580156200436157508460ff16601c14155b15620043745750600090506004620043fb565b6040805160008082526020820180845289905260ff881692820192909252606081018690526080810185905260019060a0016020604051602081039080840390855afa158015620043c9573d6000803e3d6000fd5b5050604051601f1901519150506001600160a01b038116620043f457600060019250925050620043fb565b9150600090505b94509492505050565b6000806001600160ff1b03831660ff84901c601b0162004427878288856200430f565b935093505050935093915050565b60405180610140016040528060006001600160a01b03168152602001600081526020016000815260200160608152602001606081526020016060815260200160608152602001606081526020016000600481111562004498576200449862004c36565b8152602001606081525090565b828054828255906000526020600020908101928215620044fd579160200282015b82811115620044fd57825182546001600160a01b0319166001600160a01b03909116178255602090920191600190910190620044c6565b506200450b92915062004637565b5090565b82805482825590600052602060002090810192821562004561579160200282015b8281111562004561578251805162004550918491602090910190620045ad565b509160200191906001019062004530565b506200450b9291506200464e565b828054828255906000526020600020908101928215620044fd579160200282015b82811115620044fd57825182559160200191906001019062004590565b828054620045bb90620051e2565b90600052602060002090601f016020900481019282620045df5760008555620044fd565b82601f10620045fa57805160ff1916838001178555620044fd565b82800160010185558215620044fd5791820182811115620044fd57825182559160200191906001019062004590565b6107a1806200573e83390190565b5b808211156200450b576000815560010162004638565b808211156200450b5760006200466582826200466f565b506001016200464e565b5080546200467d90620051e2565b6000825580601f106200468e575050565b601f0160209004906000526020600020908101906200322d919062004637565b6020808252825182820181905260009190848201906040850190845b81811015620046e857835183529284019291840191600101620046ca565b50909695505050505050565b80356001600160a01b03811681146200470c57600080fd5b919050565b6000602082840312156200472457600080fd5b6200334482620046f4565b6000815180845260005b81811015620047575760208185018101518683018201520162004739565b818111156200476a576000602083870101525b50601f01601f19169290920160200192915050565b6020815260006200334460208301846200472f565b6000806000806000806000806000806101408b8d031215620047b557600080fd5b505088359a60208a01359a5060408a013599606081013599506080810135985060a0810135975060c0810135965060e081013595506101008101359450610120013592509050565b600080604083850312156200481157600080fd5b823591506200482360208401620046f4565b90509250929050565b634e487b7160e01b600052604160045260246000fd5b601f8201601f191681016001600160401b03811182821017156200486a576200486a6200482c565b6040525050565b60006001600160401b038211156200488d576200488d6200482c565b5060051b60200190565b600082601f830112620048a957600080fd5b81356020620048b88262004871565b604051620048c7828262004842565b83815260059390931b8501820192828101915086841115620048e857600080fd5b8286015b848110156200490e576200490081620046f4565b8352918301918301620048ec565b509695505050505050565b600082601f8301126200492b57600080fd5b81356001600160401b038111156200494757620049476200482c565b60405162004960601f8301601f19166020018262004842565b8181528460208386010111156200497657600080fd5b816020850160208301376000918101602001919091529392505050565b600082601f830112620049a557600080fd5b81356020620049b48262004871565b604051620049c3828262004842565b83815260059390931b8501820192828101915086841115620049e457600080fd5b8286015b848110156200490e5780356001600160401b0381111562004a095760008081fd5b62004a198986838b010162004919565b845250918301918301620049e8565b600082601f83011262004a3a57600080fd5b8135602062004a498262004871565b60405162004a58828262004842565b83815260059390931b850182019282810191508684111562004a7957600080fd5b8286015b848110156200490e578035835291830191830162004a7d565b60008060008060008060c0878903121562004ab057600080fd5b86356001600160401b038082111562004ac857600080fd5b62004ad68a838b0162004897565b9750602089013591508082111562004aed57600080fd5b62004afb8a838b0162004993565b9650604089013591508082111562004b1257600080fd5b62004b208a838b0162004a28565b955060608901359450608089013591508082111562004b3e57600080fd5b62004b4c8a838b0162004919565b935060a089013591508082111562004b6357600080fd5b5062004b7289828a0162004919565b9150509295509295509295565b60008060006060848603121562004b9557600080fd5b505081359360208301359350604090920135919050565b60006020828403121562004bbf57600080fd5b5035919050565b600080600080600060a0868803121562004bdf57600080fd5b85359450602086013593506040860135925062004bff60608701620046f4565b915060808601356001600160401b0381111562004c1b57600080fd5b62004c298882890162004919565b9150509295509295909350565b634e487b7160e01b600052602160045260246000fd5b6005811062004c6b57634e487b7160e01b600052602160045260246000fd5b9052565b60018060a01b038716815285602082015284604082015260c06060820152600062004c9e60c08301866200472f565b828103608084015262004cb281866200472f565b91505062004cc460a083018462004c4c565b979650505050505050565b60008060008060008060008060008060006101608c8e03121562004cf257600080fd5b62004cfd8c620046f4565b9a5060208c0135995060408c0135985060608c0135975060808c0135965060a08c01356001600160401b0381111562004d3557600080fd5b62004d438e828f0162004919565b96505060c08c0135945060e08c013593506101008c013592506101208c0135915062004d736101408d01620046f4565b90509295989b509295989b9093969950565b600081518084526020808501945080840160005b8381101562004dc05781516001600160a01b03168752958201959082019060010162004d99565b509495945050505050565b600081518084526020808501808196508360051b8101915082860160005b8581101562004e1757828403895262004e048483516200472f565b9885019893509084019060010162004de9565b5091979650505050505050565b600081518084526020808501945080840160005b8381101562004dc05781518752958201959082019060010162004e38565b6020815262004e716020820183516001600160a01b03169052565b60208201516040820152604082015160608201526000606083015161014080608085015262004ea561016085018362004d85565b91506080850151601f19808685030160a087015262004ec5848362004dcb565b935060a08701519150808685030160c087015262004ee4848362004e24565b935060c08701519150808685030160e087015262004f0384836200472f565b935060e0870151915061010081878603018188015262004f2485846200472f565b94508088015192505061012062004f3e8188018462004c4c565b87015186850390910183870152905062004f59838262004e24565b9695505050505050565b60008060006060848603121562004f7957600080fd5b83356001600160401b038082111562004f9157600080fd5b62004f9f8783880162004a28565b9450602086013591508082111562004fb657600080fd5b62004fc48783880162004a28565b9350604086013591508082111562004fdb57600080fd5b5062004fea8682870162004a28565b9150509250925092565b6020808252825182820181905260009190848201906040850190845b81811015620046e857835115158352928401929184019160010162005010565b600080600080600080600060e0888a0312156200504c57600080fd5b873596506200505e60208901620046f4565b95506040880135945060608801356001600160401b038111156200508157600080fd5b6200508f8a828b0162004a28565b979a969950949760808101359660a0820135965060c090910135945092505050565b60008060008060808587031215620050c857600080fd5b620050d385620046f4565b966020860135965060408601359560600135945092505050565b6000806000606084860312156200510357600080fd5b833592506020840135915060408401356001600160401b038111156200512857600080fd5b62004fea8682870162004a28565b600080604083850312156200514a57600080fd5b82356001600160401b03808211156200516257600080fd5b620051708683870162004897565b935060208501359150808211156200518757600080fd5b50620051968582860162004a28565b9150509250929050565b60208152600062003344602083018462004e24565b60008060408385031215620051c957600080fd5b620051d483620046f4565b946020939093013593505050565b600181811c90821680620051f757607f821691505b602082108114156200521957634e487b7160e01b600052602260045260246000fd5b50919050565b6020808252602f908201527f45524332304775696c643a2070726f706f73616c2074696d652068617320746f60408201526e0206265206d6f7265207468616e203608c1b606082015260800190565b6020808252603e908201527f45524332304775696c643a206c6f636b54696d652068617320746f206265206860408201527f6967686572206f7220657175616c20746f2070726f706f73616c54696d650000606082015260800190565b6020808252603c908201527f45524332304775696c643a20766f74696e6720706f77657220666f722065786560408201527f637574696f6e2068617320746f206265206d6f7265207468616e203000000000606082015260800190565b6000602082840312156200533b57600080fd5b5051919050565b60208082526036908201527f536e617073686f7452657045524332304775696c643a2050726f706f73616c20604082015275195b9919590b0818d85b9b9bdd081899481d9bdd195960521b606082015260800190565b60208082526031908201527f536e617073686f7452657045524332304775696c643a20496e76616c696420766040820152701bdd1a5b99d41bddd95c88185b5bdd5b9d607a1b606082015260800190565b6020808252604c908201527f536e617073686f7452657045524332304775696c643a2043616e6e6f7420636860408201527f616e6765206f7074696f6e20766f7465642c206f6e6c7920696e63726561736560608201526b103b37ba34b733a837bbb2b960a11b608082015260a00190565b6020808252602e908201527f496e697469616c697a61626c653a20636f6e747261637420697320616c72656160408201526d191e481a5b9a5d1a585b1a5e995960921b606082015260800190565b6001600160a01b0395861681529390941660208401526001600160e01b03199190911660408301526060820152901515608082015260a00190565b634e487b7160e01b600052603260045260246000fd5b634e487b7160e01b600052601160045260246000fd5b6000600019821415620055275762005527620054fa565b5060010190565b600060033d1115620055485760046000803e5060005160e01c5b90565b600060443d10156200555a5790565b6040516003193d81016004833e81513d6001600160401b0381602484011181841117156200558a57505050505090565b8285019150815181811115620055a35750505050505090565b843d8701016020828501011115620055be5750505050505090565b620055cf6020828601018762004842565b509095945050505050565b600080835481600182811c915080831680620055f757607f831692505b60208084108214156200561857634e487b7160e01b86526022600452602486fd5b8180156200562f5760018114620056415762005670565b60ff1986168952848901965062005670565b60008a81526020902060005b86811015620056685781548b8201529085019083016200564d565b505084890196505b509498975050505050505050565b6000602082840312156200569157600080fd5b815180151581146200334457600080fd5b6000816000190483118215151615620056bf57620056bf620054fa565b500290565b634e487b7160e01b600052601260045260246000fd5b600082620056ec57620056ec620056c4565b500490565b60008219821115620057075762005707620054fa565b500190565b600082821015620057215762005721620054fa565b500390565b600082620057385762005738620056c4565b50069056fe608060405234801561001057600080fd5b506040516107a13803806107a183398101604081905261002f9161007c565b600080546001600160a01b039384166001600160a01b031991821617909155600180549290931691161790556100af565b80516001600160a01b038116811461007757600080fd5b919050565b6000806040838503121561008f57600080fd5b61009883610060565b91506100a660208401610060565b90509250929050565b6106e3806100be6000396000f3fe608060405234801561001057600080fd5b506004361061007d5760003560e01c80636e9960c31161005b5780636e9960c3146100ef578063f3fef3a314610100578063f851a44014610113578063fc0c546a1461012657600080fd5b806321df0da71461008257806327e235e3146100ac57806347e7ef24146100da575b600080fd5b6000546001600160a01b03165b6040516001600160a01b0390911681526020015b60405180910390f35b6100cc6100ba366004610586565b60026020526000908152604090205481565b6040519081526020016100a3565b6100ed6100e83660046105a1565b610139565b005b6001546001600160a01b031661008f565b6100ed61010e3660046105a1565b61020a565b60015461008f906001600160a01b031681565b60005461008f906001600160a01b031681565b6001546001600160a01b031633146101af5760405162461bcd60e51b815260206004820152602e60248201527f546f6b656e5661756c743a204465706f736974206d7573742062652073656e7460448201526d103a343937bab3b41030b236b4b760911b60648201526084015b60405180910390fd5b6000546101c7906001600160a01b031683308461025b565b6001600160a01b0382166000908152600260205260409020546101ea90826102cc565b6001600160a01b0390921660009081526002602052604090209190915550565b6001546001600160a01b0316331461022157600080fd5b600054610238906001600160a01b031683836102df565b6001600160a01b0382166000908152600260205260409020546101ea9082610314565b6040516001600160a01b03808516602483015283166044820152606481018290526102c69085906323b872dd60e01b906084015b60408051601f198184030181529190526020810180516001600160e01b03166001600160e01b031990931692909217909152610320565b50505050565b60006102d882846105e1565b9392505050565b6040516001600160a01b03831660248201526044810182905261030f90849063a9059cbb60e01b9060640161028f565b505050565b60006102d882846105f9565b6000610375826040518060400160405280602081526020017f5361666545524332303a206c6f772d6c6576656c2063616c6c206661696c6564815250856001600160a01b03166103f29092919063ffffffff16565b80519091501561030f57808060200190518101906103939190610610565b61030f5760405162461bcd60e51b815260206004820152602a60248201527f5361666545524332303a204552433230206f7065726174696f6e20646964206e6044820152691bdd081cdd58d8d9595960b21b60648201526084016101a6565b60606104018484600085610409565b949350505050565b60608247101561046a5760405162461bcd60e51b815260206004820152602660248201527f416464726573733a20696e73756666696369656e742062616c616e636520666f6044820152651c8818d85b1b60d21b60648201526084016101a6565b843b6104b85760405162461bcd60e51b815260206004820152601d60248201527f416464726573733a2063616c6c20746f206e6f6e2d636f6e747261637400000060448201526064016101a6565b600080866001600160a01b031685876040516104d4919061065e565b60006040518083038185875af1925050503d8060008114610511576040519150601f19603f3d011682016040523d82523d6000602084013e610516565b606091505b5091509150610526828286610531565b979650505050505050565b606083156105405750816102d8565b8251156105505782518084602001fd5b8160405162461bcd60e51b81526004016101a6919061067a565b80356001600160a01b038116811461058157600080fd5b919050565b60006020828403121561059857600080fd5b6102d88261056a565b600080604083850312156105b457600080fd5b6105bd8361056a565b946020939093013593505050565b634e487b7160e01b600052601160045260246000fd5b600082198211156105f4576105f46105cb565b500190565b60008282101561060b5761060b6105cb565b500390565b60006020828403121561062257600080fd5b815180151581146102d857600080fd5b60005b8381101561064d578181015183820152602001610635565b838111156102c65750506000910152565b60008251610670818460208701610632565b9190910192915050565b6020815260008251806020840152610699816040850160208701610632565b601f01601f1916919091016040019291505056fea2646970667358221220f83df9be484204d29c000a118187aee7d3ca7efcb094476e4ad893327bb967b564736f6c63430008080033fee62a9eec0be50eb061c711990ef0f1e17b40ea131d9347b0468acdaf8bf243a2646970667358221220a06f6188937cb2d2acc71bf2f71f0db0316590079622153451f7af5a7f5cea5064736f6c63430008080033",
  "linkReferences": {},
  "deployedLinkReferences": {}
}