{
  "_format": "hh-sol-artifact-1",
  "contractName": "SnapshotRepERC20Guild",
  "sourceName": "dxdao-contracts/contracts/erc20guild/implementations/SnapshotRepERC20Guild.sol",
  "abi": [
    {
      "anonymous": false,
      "inputs": [
        {
          "indexed": true,
          "internalType": "address",
          "name": "previousOwner",
          "type": "address"
        },
        {
          "indexed": true,
          "internalType": "address",
          "name": "newOwner",
          "type": "address"
        }
      ],
      "name": "OwnershipTransferred",
      "type": "event"
    },
    {
      "anonymous": false,
      "inputs": [
        {
          "indexed": true,
          "internalType": "bytes32",
          "name": "proposalId",
          "type": "bytes32"
        },
        {
          "indexed": false,
          "internalType": "uint256",
          "name": "newState",
          "type": "uint256"
        }
      ],
      "name": "ProposalStateChanged",
      "type": "event"
    },
    {
      "anonymous": false,
      "inputs": [
        {
          "indexed": false,
          "internalType": "address",
          "name": "voter",
          "type": "address"
        },
        {
          "indexed": false,
          "internalType": "uint256",
          "name": "value",
          "type": "uint256"
        }
      ],
      "name": "TokensLocked",
      "type": "event"
    },
    {
      "anonymous": false,
      "inputs": [
        {
          "indexed": false,
          "internalType": "address",
          "name": "voter",
          "type": "address"
        },
        {
          "indexed": false,
          "internalType": "uint256",
          "name": "value",
          "type": "uint256"
        }
      ],
      "name": "TokensWithdrawn",
      "type": "event"
    },
    {
      "anonymous": false,
      "inputs": [
        {
          "indexed": true,
          "internalType": "bytes32",
          "name": "proposalId",
          "type": "bytes32"
        },
        {
          "indexed": true,
          "internalType": "uint256",
          "name": "option",
          "type": "uint256"
        },
        {
          "indexed": false,
          "internalType": "address",
          "name": "voter",
          "type": "address"
        },
        {
          "indexed": false,
          "internalType": "uint256",
          "name": "votingPower",
          "type": "uint256"
        }
      ],
      "name": "VoteAdded",
      "type": "event"
    },
    {
      "stateMutability": "payable",
      "type": "fallback"
    },
    {
      "inputs": [],
      "name": "MAX_OPTIONS_PER_PROPOSAL",
      "outputs": [
        {
          "internalType": "uint8",
          "name": "",
          "type": "uint8"
        }
      ],
      "stateMutability": "view",
      "type": "function"
    },
    {
      "inputs": [],
      "name": "activeProposalsNow",
      "outputs": [
        {
          "internalType": "uint256",
          "name": "",
          "type": "uint256"
        }
      ],
      "stateMutability": "view",
      "type": "function"
    },
    {
      "inputs": [
        {
          "internalType": "address[]",
          "name": "to",
          "type": "address[]"
        },
        {
          "internalType": "bytes[]",
          "name": "data",
          "type": "bytes[]"
        },
        {
          "internalType": "uint256[]",
          "name": "value",
          "type": "uint256[]"
        },
        {
          "internalType": "uint256",
          "name": "totalOptions",
          "type": "uint256"
        },
        {
          "internalType": "string",
          "name": "title",
          "type": "string"
        },
        {
          "internalType": "string",
          "name": "contentHash",
          "type": "string"
        }
      ],
      "name": "createProposal",
      "outputs": [
        {
          "internalType": "bytes32",
          "name": "",
          "type": "bytes32"
        }
      ],
      "stateMutability": "nonpayable",
      "type": "function"
    },
    {
      "inputs": [
        {
          "internalType": "bytes32",
          "name": "proposalId",
          "type": "bytes32"
        }
      ],
      "name": "endProposal",
      "outputs": [],
      "stateMutability": "nonpayable",
      "type": "function"
    },
    {
      "inputs": [
        {
          "internalType": "bytes32",
          "name": "root",
          "type": "bytes32"
        },
        {
          "internalType": "address",
          "name": "voter",
          "type": "address"
        },
        {
          "internalType": "bytes32",
          "name": "voteHash",
          "type": "bytes32"
        },
        {
          "internalType": "bytes32[]",
          "name": "proof",
          "type": "bytes32[]"
        },
        {
          "internalType": "bytes32",
          "name": "proposalId",
          "type": "bytes32"
        },
        {
          "internalType": "uint256",
          "name": "option",
          "type": "uint256"
        },
        {
          "internalType": "uint256",
          "name": "votingPower",
          "type": "uint256"
        }
      ],
      "name": "executeSignedVote",
      "outputs": [],
      "stateMutability": "nonpayable",
      "type": "function"
    },
    {
      "inputs": [
        {
          "internalType": "bytes32[]",
          "name": "roots",
          "type": "bytes32[]"
        },
        {
          "internalType": "address[]",
          "name": "voters",
          "type": "address[]"
        },
        {
          "internalType": "bytes32[]",
          "name": "votesHashes",
          "type": "bytes32[]"
        },
        {
          "internalType": "bytes32[][]",
          "name": "proofs",
          "type": "bytes32[][]"
        },
        {
          "internalType": "bytes32[]",
          "name": "proposalIds",
          "type": "bytes32[]"
        },
        {
          "internalType": "uint256[]",
          "name": "options",
          "type": "uint256[]"
        },
        {
          "internalType": "uint256[]",
          "name": "votingPowers",
          "type": "uint256[]"
        }
      ],
      "name": "executeSignedVotesBatches",
      "outputs": [],
      "stateMutability": "nonpayable",
      "type": "function"
    },
    {
      "inputs": [
        {
          "internalType": "bytes32[]",
          "name": "proposalIds",
          "type": "bytes32[]"
        },
        {
          "internalType": "uint256[]",
          "name": "options",
          "type": "uint256[]"
        },
        {
          "internalType": "uint256[]",
          "name": "votingPowers",
          "type": "uint256[]"
        }
      ],
      "name": "executeVotes",
      "outputs": [
        {
          "internalType": "bool[]",
          "name": "",
          "type": "bool[]"
        }
      ],
      "stateMutability": "nonpayable",
      "type": "function"
    },
    {
      "inputs": [],
      "name": "getActiveProposalsNow",
      "outputs": [
        {
          "internalType": "uint256",
          "name": "",
          "type": "uint256"
        }
      ],
      "stateMutability": "view",
      "type": "function"
    },
    {
      "inputs": [],
      "name": "getLockTime",
      "outputs": [
        {
          "internalType": "uint256",
          "name": "",
          "type": "uint256"
        }
      ],
      "stateMutability": "view",
      "type": "function"
    },
    {
      "inputs": [],
      "name": "getMaxActiveProposals",
      "outputs": [
        {
          "internalType": "uint256",
          "name": "",
          "type": "uint256"
        }
      ],
      "stateMutability": "view",
      "type": "function"
    },
    {
      "inputs": [],
      "name": "getMaxGasPrice",
      "outputs": [
        {
          "internalType": "uint256",
          "name": "",
          "type": "uint256"
        }
      ],
      "stateMutability": "view",
      "type": "function"
    },
    {
      "inputs": [],
      "name": "getMinimumMembersForProposalCreation",
      "outputs": [
        {
          "internalType": "uint256",
          "name": "",
          "type": "uint256"
        }
      ],
      "stateMutability": "view",
      "type": "function"
    },
    {
      "inputs": [],
      "name": "getMinimumTokensLockedForProposalCreation",
      "outputs": [
        {
          "internalType": "uint256",
          "name": "",
          "type": "uint256"
        }
      ],
      "stateMutability": "view",
      "type": "function"
    },
    {
      "inputs": [],
      "name": "getName",
      "outputs": [
        {
          "internalType": "string",
          "name": "",
          "type": "string"
        }
      ],
      "stateMutability": "view",
      "type": "function"
    },
    {
      "inputs": [],
      "name": "getPermissionRegistry",
      "outputs": [
        {
          "internalType": "address",
          "name": "",
          "type": "address"
        }
      ],
      "stateMutability": "view",
      "type": "function"
    },
    {
      "inputs": [
        {
          "internalType": "bytes32",
          "name": "proposalId",
          "type": "bytes32"
        }
      ],
      "name": "getProposal",
      "outputs": [
        {
          "components": [
            {
              "internalType": "address",
              "name": "creator",
              "type": "address"
            },
            {
              "internalType": "uint256",
              "name": "startTime",
              "type": "uint256"
            },
            {
              "internalType": "uint256",
              "name": "endTime",
              "type": "uint256"
            },
            {
              "internalType": "address[]",
              "name": "to",
              "type": "address[]"
            },
            {
              "internalType": "bytes[]",
              "name": "data",
              "type": "bytes[]"
            },
            {
              "internalType": "uint256[]",
              "name": "value",
              "type": "uint256[]"
            },
            {
              "internalType": "string",
              "name": "title",
              "type": "string"
            },
            {
              "internalType": "string",
              "name": "contentHash",
              "type": "string"
            },
            {
              "internalType": "enum BaseERC20Guild.ProposalState",
              "name": "state",
              "type": "uint8"
            },
            {
              "internalType": "uint256[]",
              "name": "totalVotes",
              "type": "uint256[]"
            }
          ],
          "internalType": "struct BaseERC20Guild.Proposal",
          "name": "",
          "type": "tuple"
        }
      ],
      "stateMutability": "view",
      "type": "function"
    },
    {
      "inputs": [
        {
          "internalType": "bytes32",
          "name": "proposalId",
          "type": "bytes32"
        }
      ],
      "name": "getProposalSnapshotId",
      "outputs": [
        {
          "internalType": "uint256",
          "name": "",
          "type": "uint256"
        }
      ],
      "stateMutability": "view",
      "type": "function"
    },
    {
      "inputs": [],
      "name": "getProposalTime",
      "outputs": [
        {
          "internalType": "uint256",
          "name": "",
          "type": "uint256"
        }
      ],
      "stateMutability": "view",
      "type": "function"
    },
    {
      "inputs": [
        {
          "internalType": "bytes32",
          "name": "proposalId",
          "type": "bytes32"
        },
        {
          "internalType": "address",
          "name": "voter",
          "type": "address"
        }
      ],
      "name": "getProposalVotesOfVoter",
      "outputs": [
        {
          "internalType": "uint256",
          "name": "option",
          "type": "uint256"
        },
        {
          "internalType": "uint256",
          "name": "votingPower",
          "type": "uint256"
        }
      ],
      "stateMutability": "view",
      "type": "function"
    },
    {
      "inputs": [],
      "name": "getProposalsIds",
      "outputs": [
        {
          "internalType": "bytes32[]",
          "name": "",
          "type": "bytes32[]"
        }
      ],
      "stateMutability": "view",
      "type": "function"
    },
    {
      "inputs": [],
      "name": "getProposalsIdsLength",
      "outputs": [
        {
          "internalType": "uint256",
          "name": "",
          "type": "uint256"
        }
      ],
      "stateMutability": "view",
      "type": "function"
    },
    {
      "inputs": [
        {
          "internalType": "bytes32",
          "name": "signedVoteHash",
          "type": "bytes32"
        }
      ],
      "name": "getSignedVote",
      "outputs": [
        {
          "internalType": "bool",
          "name": "",
          "type": "bool"
        }
      ],
      "stateMutability": "view",
      "type": "function"
    },
    {
      "inputs": [
        {
          "internalType": "bytes32",
          "name": "proposalId",
          "type": "bytes32"
        }
      ],
      "name": "getSnapshotVotingPowerForProposalExecution",
      "outputs": [
        {
          "internalType": "uint256",
          "name": "",
          "type": "uint256"
        }
      ],
      "stateMutability": "view",
      "type": "function"
    },
    {
      "inputs": [],
      "name": "getTimeForExecution",
      "outputs": [
        {
          "internalType": "uint256",
          "name": "",
          "type": "uint256"
        }
      ],
      "stateMutability": "view",
      "type": "function"
    },
    {
      "inputs": [],
      "name": "getToken",
      "outputs": [
        {
          "internalType": "address",
          "name": "",
          "type": "address"
        }
      ],
      "stateMutability": "view",
      "type": "function"
    },
    {
      "inputs": [],
      "name": "getTokenVault",
      "outputs": [
        {
          "internalType": "address",
          "name": "",
          "type": "address"
        }
      ],
      "stateMutability": "view",
      "type": "function"
    },
    {
      "inputs": [],
      "name": "getTotalLocked",
      "outputs": [
        {
          "internalType": "uint256",
          "name": "",
          "type": "uint256"
        }
      ],
      "stateMutability": "view",
      "type": "function"
    },
    {
      "inputs": [],
      "name": "getTotalMembers",
      "outputs": [
        {
          "internalType": "uint256",
          "name": "",
          "type": "uint256"
        }
      ],
      "stateMutability": "view",
      "type": "function"
    },
    {
      "inputs": [],
      "name": "getTotalProposals",
      "outputs": [
        {
          "internalType": "uint256",
          "name": "",
          "type": "uint256"
        }
      ],
      "stateMutability": "view",
      "type": "function"
    },
    {
      "inputs": [],
      "name": "getVoteGas",
      "outputs": [
        {
          "internalType": "uint256",
          "name": "",
          "type": "uint256"
        }
      ],
      "stateMutability": "view",
      "type": "function"
    },
    {
      "inputs": [
        {
          "internalType": "address",
          "name": "voter",
          "type": "address"
        }
      ],
      "name": "getVoterLockTimestamp",
      "outputs": [
        {
          "internalType": "uint256",
          "name": "",
          "type": "uint256"
        }
      ],
      "stateMutability": "view",
      "type": "function"
    },
    {
      "inputs": [],
      "name": "getVotingPowerForProposalCreation",
      "outputs": [
        {
          "internalType": "uint256",
          "name": "",
          "type": "uint256"
        }
      ],
      "stateMutability": "view",
      "type": "function"
    },
    {
      "inputs": [],
      "name": "getVotingPowerForProposalExecution",
      "outputs": [
        {
          "internalType": "uint256",
          "name": "",
          "type": "uint256"
        }
      ],
      "stateMutability": "view",
      "type": "function"
    },
    {
      "inputs": [
        {
          "internalType": "address",
          "name": "voter",
          "type": "address"
        },
        {
          "internalType": "bytes32",
          "name": "proposalId",
          "type": "bytes32"
        },
        {
          "internalType": "uint256",
          "name": "option",
          "type": "uint256"
        },
        {
          "internalType": "uint256",
          "name": "votingPower",
          "type": "uint256"
        }
      ],
      "name": "hashVote",
      "outputs": [
        {
          "internalType": "bytes32",
          "name": "",
          "type": "bytes32"
        }
      ],
      "stateMutability": "pure",
      "type": "function"
    },
    {
      "inputs": [
        {
          "internalType": "address",
          "name": "_token",
          "type": "address"
        },
        {
          "internalType": "uint256",
          "name": "_proposalTime",
          "type": "uint256"
        },
        {
          "internalType": "uint256",
          "name": "_timeForExecution",
          "type": "uint256"
        },
        {
          "internalType": "uint256",
          "name": "_votingPowerPercentageForProposalExecution",
          "type": "uint256"
        },
        {
          "internalType": "uint256",
          "name": "_votingPowerPercentageForProposalCreation",
          "type": "uint256"
        },
        {
          "internalType": "string",
          "name": "_name",
          "type": "string"
        },
        {
          "internalType": "uint256",
          "name": "_voteGas",
          "type": "uint256"
        },
        {
          "internalType": "uint256",
          "name": "_maxGasPrice",
          "type": "uint256"
        },
        {
          "internalType": "uint256",
          "name": "_maxActiveProposals",
          "type": "uint256"
        },
        {
          "internalType": "uint256",
          "name": "_lockTime",
          "type": "uint256"
        },
        {
          "internalType": "address",
          "name": "_permissionRegistry",
          "type": "address"
        }
      ],
      "name": "initialize",
      "outputs": [],
      "stateMutability": "nonpayable",
      "type": "function"
    },
    {
      "inputs": [],
      "name": "lockTime",
      "outputs": [
        {
          "internalType": "uint256",
          "name": "",
          "type": "uint256"
        }
      ],
      "stateMutability": "view",
      "type": "function"
    },
    {
      "inputs": [
        {
          "internalType": "uint256",
          "name": "",
          "type": "uint256"
        }
      ],
      "name": "lockTokens",
      "outputs": [],
      "stateMutability": "nonpayable",
      "type": "function"
    },
    {
      "inputs": [],
      "name": "maxActiveProposals",
      "outputs": [
        {
          "internalType": "uint256",
          "name": "",
          "type": "uint256"
        }
      ],
      "stateMutability": "view",
      "type": "function"
    },
    {
      "inputs": [],
      "name": "maxGasPrice",
      "outputs": [
        {
          "internalType": "uint256",
          "name": "",
          "type": "uint256"
        }
      ],
      "stateMutability": "view",
      "type": "function"
    },
    {
      "inputs": [],
      "name": "minimumMembersForProposalCreation",
      "outputs": [
        {
          "internalType": "uint256",
          "name": "",
          "type": "uint256"
        }
      ],
      "stateMutability": "view",
      "type": "function"
    },
    {
      "inputs": [],
      "name": "minimumTokensLockedForProposalCreation",
      "outputs": [
        {
          "internalType": "uint256",
          "name": "",
          "type": "uint256"
        }
      ],
      "stateMutability": "view",
      "type": "function"
    },
    {
      "inputs": [],
      "name": "name",
      "outputs": [
        {
          "internalType": "string",
          "name": "",
          "type": "string"
        }
      ],
      "stateMutability": "view",
      "type": "function"
    },
    {
      "inputs": [],
      "name": "owner",
      "outputs": [
        {
          "internalType": "address",
          "name": "",
          "type": "address"
        }
      ],
      "stateMutability": "view",
      "type": "function"
    },
    {
      "inputs": [],
      "name": "proposalTime",
      "outputs": [
        {
          "internalType": "uint256",
          "name": "",
          "type": "uint256"
        }
      ],
      "stateMutability": "view",
      "type": "function"
    },
    {
      "inputs": [
        {
          "internalType": "bytes32",
          "name": "",
          "type": "bytes32"
        },
        {
          "internalType": "address",
          "name": "",
          "type": "address"
        }
      ],
      "name": "proposalVotes",
      "outputs": [
        {
          "internalType": "uint256",
          "name": "option",
          "type": "uint256"
        },
        {
          "internalType": "uint256",
          "name": "votingPower",
          "type": "uint256"
        }
      ],
      "stateMutability": "view",
      "type": "function"
    },
    {
      "inputs": [
        {
          "internalType": "bytes32",
          "name": "",
          "type": "bytes32"
        }
      ],
      "name": "proposals",
      "outputs": [
        {
          "internalType": "address",
          "name": "creator",
          "type": "address"
        },
        {
          "internalType": "uint256",
          "name": "startTime",
          "type": "uint256"
        },
        {
          "internalType": "uint256",
          "name": "endTime",
          "type": "uint256"
        },
        {
          "internalType": "string",
          "name": "title",
          "type": "string"
        },
        {
          "internalType": "string",
          "name": "contentHash",
          "type": "string"
        },
        {
          "internalType": "enum BaseERC20Guild.ProposalState",
          "name": "state",
          "type": "uint8"
        }
      ],
      "stateMutability": "view",
      "type": "function"
    },
    {
      "inputs": [
        {
          "internalType": "uint256",
          "name": "",
          "type": "uint256"
        }
      ],
      "name": "proposalsIds",
      "outputs": [
        {
          "internalType": "bytes32",
          "name": "",
          "type": "bytes32"
        }
      ],
      "stateMutability": "view",
      "type": "function"
    },
    {
      "inputs": [
        {
          "internalType": "bytes32",
          "name": "",
          "type": "bytes32"
        }
      ],
      "name": "proposalsSnapshots",
      "outputs": [
        {
          "internalType": "uint256",
          "name": "",
          "type": "uint256"
        }
      ],
      "stateMutability": "view",
      "type": "function"
    },
    {
      "inputs": [],
      "name": "renounceOwnership",
      "outputs": [],
      "stateMutability": "nonpayable",
      "type": "function"
    },
    {
      "inputs": [
        {
          "internalType": "uint256",
          "name": "_proposalTime",
          "type": "uint256"
        },
        {
          "internalType": "uint256",
          "name": "_timeForExecution",
          "type": "uint256"
        },
        {
          "internalType": "uint256",
          "name": "_votingPowerPercentageForProposalExecution",
          "type": "uint256"
        },
        {
          "internalType": "uint256",
          "name": "_votingPowerPercentageForProposalCreation",
          "type": "uint256"
        },
        {
          "internalType": "uint256",
          "name": "_voteGas",
          "type": "uint256"
        },
        {
          "internalType": "uint256",
          "name": "_maxGasPrice",
          "type": "uint256"
        },
        {
          "internalType": "uint256",
          "name": "_maxActiveProposals",
          "type": "uint256"
        },
        {
          "internalType": "uint256",
          "name": "_lockTime",
          "type": "uint256"
        },
        {
          "internalType": "uint256",
          "name": "_minimumMembersForProposalCreation",
          "type": "uint256"
        },
        {
          "internalType": "uint256",
          "name": "_minimumTokensLockedForProposalCreation",
          "type": "uint256"
        }
      ],
      "name": "setConfig",
      "outputs": [],
      "stateMutability": "nonpayable",
      "type": "function"
    },
    {
      "inputs": [
        {
          "internalType": "bytes32",
          "name": "proposalId",
          "type": "bytes32"
        },
        {
          "internalType": "uint256",
          "name": "option",
          "type": "uint256"
        },
        {
          "internalType": "uint256",
          "name": "votingPower",
          "type": "uint256"
        },
        {
          "internalType": "address",
          "name": "voter",
          "type": "address"
        },
        {
          "internalType": "bytes",
          "name": "signature",
          "type": "bytes"
        }
      ],
      "name": "setSignedVote",
      "outputs": [],
      "stateMutability": "nonpayable",
      "type": "function"
    },
    {
      "inputs": [
        {
          "internalType": "bytes32",
          "name": "proposalId",
          "type": "bytes32"
        },
        {
          "internalType": "uint256",
          "name": "option",
          "type": "uint256"
        },
        {
          "internalType": "uint256",
          "name": "votingPower",
          "type": "uint256"
        }
      ],
      "name": "setVote",
      "outputs": [],
      "stateMutability": "nonpayable",
      "type": "function"
    },
    {
      "inputs": [
        {
          "internalType": "bytes32",
          "name": "",
          "type": "bytes32"
        }
      ],
      "name": "signedVotes",
      "outputs": [
        {
          "internalType": "bool",
          "name": "",
          "type": "bool"
        }
      ],
      "stateMutability": "view",
      "type": "function"
    },
    {
      "inputs": [],
      "name": "timeForExecution",
      "outputs": [
        {
          "internalType": "uint256",
          "name": "",
          "type": "uint256"
        }
      ],
      "stateMutability": "view",
      "type": "function"
    },
    {
      "inputs": [],
      "name": "token",
      "outputs": [
        {
          "internalType": "contract IERC20Upgradeable",
          "name": "",
          "type": "address"
        }
      ],
      "stateMutability": "view",
      "type": "function"
    },
    {
      "inputs": [],
      "name": "tokenVault",
      "outputs": [
        {
          "internalType": "contract TokenVault",
          "name": "",
          "type": "address"
        }
      ],
      "stateMutability": "view",
      "type": "function"
    },
    {
      "inputs": [
        {
          "internalType": "address",
          "name": "",
          "type": "address"
        }
      ],
      "name": "tokensLocked",
      "outputs": [
        {
          "internalType": "uint256",
          "name": "amount",
          "type": "uint256"
        },
        {
          "internalType": "uint256",
          "name": "timestamp",
          "type": "uint256"
        }
      ],
      "stateMutability": "view",
      "type": "function"
    },
    {
      "inputs": [],
      "name": "totalLocked",
      "outputs": [
        {
          "internalType": "uint256",
          "name": "",
          "type": "uint256"
        }
      ],
      "stateMutability": "view",
      "type": "function"
    },
    {
      "inputs": [],
      "name": "totalProposals",
      "outputs": [
        {
          "internalType": "uint256",
          "name": "",
          "type": "uint256"
        }
      ],
      "stateMutability": "view",
      "type": "function"
    },
    {
      "inputs": [
        {
          "internalType": "address",
          "name": "newOwner",
          "type": "address"
        }
      ],
      "name": "transferOwnership",
      "outputs": [],
      "stateMutability": "nonpayable",
      "type": "function"
    },
    {
      "inputs": [
        {
          "internalType": "bytes32",
          "name": "root",
          "type": "bytes32"
        },
        {
          "internalType": "bytes32",
          "name": "voteHash",
          "type": "bytes32"
        },
        {
          "internalType": "bytes32[]",
          "name": "proof",
          "type": "bytes32[]"
        }
      ],
      "name": "validateMerkleTreeLeaf",
      "outputs": [
        {
          "internalType": "bool",
          "name": "",
          "type": "bool"
        }
      ],
      "stateMutability": "nonpayable",
      "type": "function"
    },
    {
      "inputs": [],
      "name": "voteGas",
      "outputs": [
        {
          "internalType": "uint256",
          "name": "",
          "type": "uint256"
        }
      ],
      "stateMutability": "view",
      "type": "function"
    },
    {
      "inputs": [
        {
          "internalType": "address",
          "name": "account",
          "type": "address"
        }
      ],
      "name": "votingPowerOf",
      "outputs": [
        {
          "internalType": "uint256",
          "name": "",
          "type": "uint256"
        }
      ],
      "stateMutability": "view",
      "type": "function"
    },
    {
      "inputs": [
        {
          "internalType": "address",
          "name": "account",
          "type": "address"
        },
        {
          "internalType": "uint256",
          "name": "snapshotId",
          "type": "uint256"
        }
      ],
      "name": "votingPowerOfAt",
      "outputs": [
        {
          "internalType": "uint256",
          "name": "",
          "type": "uint256"
        }
      ],
      "stateMutability": "view",
      "type": "function"
    },
    {
      "inputs": [
        {
          "internalType": "address[]",
          "name": "accounts",
          "type": "address[]"
        },
        {
          "internalType": "uint256[]",
          "name": "snapshotIds",
          "type": "uint256[]"
        }
      ],
      "name": "votingPowerOfMultipleAt",
      "outputs": [
        {
          "internalType": "uint256[]",
          "name": "",
          "type": "uint256[]"
        }
      ],
      "stateMutability": "view",
      "type": "function"
    },
    {
      "inputs": [],
      "name": "votingPowerPercentageForProposalCreation",
      "outputs": [
        {
          "internalType": "uint256",
          "name": "",
          "type": "uint256"
        }
      ],
      "stateMutability": "view",
      "type": "function"
    },
    {
      "inputs": [],
      "name": "votingPowerPercentageForProposalExecution",
      "outputs": [
        {
          "internalType": "uint256",
          "name": "",
          "type": "uint256"
        }
      ],
      "stateMutability": "view",
      "type": "function"
    },
    {
      "inputs": [
        {
          "internalType": "uint256",
          "name": "",
          "type": "uint256"
        }
      ],
      "name": "withdrawTokens",
      "outputs": [],
      "stateMutability": "nonpayable",
      "type": "function"
    }
  ],
  "bytecode": "0x608060405234801561001057600080fd5b5061622b80620000216000396000f3fe608060405260043610620004155760003560e01c80636e27d889116200021b578063ae6192341162000123578063e045035311620000b3578063f4732da61162000081578063f4732da61462000ca7578063f98606a71462000cbf578063f9a92d821462000cd7578063fc0c546a1462000cfc578063fc4e703f1462000d1e57005b8063e04503531462000c0f578063e158080a1462000c27578063f09951981462000c3f578063f2fde38b1462000c8257005b8063bcc3f3bd11620000f1578063bcc3f3bd1462000b97578063c0a4d64d1462000bbc578063c93e01e31462000bd3578063d8c6a6d11462000bea57005b8063ae6192341462000b1e578063b3929aaa1462000b36578063b3b470611462000b5b578063b7c15f8d1462000b8057005b80638da5cb5b11620001ab578063a78d80fc1162000179578063a78d80fc1462000a7e578063a7aeb5571462000a96578063ab6ea06b1462000aae578063ad6c1e341462000ad3578063adf2c7b61462000aea57005b80638da5cb5b1462000a025780638f1803051462000a2257806392b716541462000a39578063a16fe3421462000a5e57005b80638029eff111620001e95780638029eff1146200096d57806386e2712514620009a157806389c98c0614620009c65780638bb8591e14620009dd57005b80636e27d889146200073a578063715018a6146200090d57806371893546146200092557806377027ff4146200095657005b80632d5b17de116200031f5780633f10cf1511620002af5780635bc789d9116200027d5780635bc789d914620008715780635e508c2c146200089357806364fe6ed214620008ab578063671abed714620008c25780636c8b72f614620008f657005b80633f10cf1514620007ed578063430694cf146200080557806354f2f7af146200083957806356891412146200085957005b806332ed5b1211620002ed57806332ed5b12146200075f57806336f8f8d914620007985780633bf353fb14620007bd5780633de39c1114620007d557005b80632d5b17de14620006935780632d757c3e14620006b85780632fd99c0014620006f5578063315a095d146200073a57005b806316bbecde11620003a757806321df0da7116200037557806321df0da714620005d65780632229a0e2146200060a57806322bafdff14620006215780632467ef94146200065257806325c069fc146200066957005b806316bbecde146200056a57806317d7de7c146200058f578063184a0ae914620005a75780631a5007dd14620005bf57005b80630d66808711620003e55780630d66808714620004e3578063123f6d6714620004fb578063130485fe146200052057806313108d74146200054557005b80623a40d0146200041757806301a598a6146200044757806306fdde0314620004955780630a366a6314620004bc575b005b3480156200042457600080fd5b506200042f62000d36565b6040516200043e9190620047e0565b60405180910390f35b3480156200045457600080fd5b506200047f6200046636600462004843565b6012602052600090815260409020805460019091015482565b604080519283526020830191909152016200043e565b348015620004a257600080fd5b50620004ad62000d90565b6040516200043e9190620048b1565b348015620004c957600080fd5b50620004d462000e26565b6040519081526020016200043e565b348015620004f057600080fd5b50620004d4600d5481565b3480156200050857600080fd5b50620004156200051a366004620048c6565b62000e53565b3480156200052d57600080fd5b506200047f6200053f3660046200492f565b62000fec565b3480156200055257600080fd5b50620004d46200056436600462004bc8565b6200101e565b3480156200057757600080fd5b50620004156200058936600462004cb1565b620010d5565b3480156200059c57600080fd5b50620004ad62001206565b348015620005b457600080fd5b50620004d460035481565b348015620005cc57600080fd5b50600a54620004d4565b348015620005e357600080fd5b506000546001600160a01b03165b6040516001600160a01b0390911681526020016200043e565b3480156200061757600080fd5b50601654620004d4565b3480156200062e57600080fd5b50620004d46200064036600462004cde565b6000908152607c602052604090205490565b3480156200065f57600080fd5b50600c54620004d4565b3480156200067657600080fd5b5062000680600a81565b60405160ff90911681526020016200043e565b348015620006a057600080fd5b5062000415620006b236600462004cf8565b62001297565b348015620006c557600080fd5b50620004d4620006d736600462004843565b6001600160a01b031660009081526012602052604090206001015490565b3480156200070257600080fd5b50620007296200071436600462004cde565b60136020526000908152604090205460ff1681565b60405190151581526020016200043e565b3480156200074757600080fd5b50620004156200075936600462004cde565b6200158a565b3480156200076c57600080fd5b50620007846200077e36600462004cde565b620015e7565b6040516200043e9695949392919062004da1565b348015620007a557600080fd5b5062000415620007b736600462004e01565b6200174b565b348015620007ca57600080fd5b50620004d4600c5481565b348015620007e257600080fd5b50620004d460085481565b348015620007fa57600080fd5b50620004d460045481565b3480156200081257600080fd5b506200082a6200082436600462004cde565b62001933565b6040516200043e919062004f88565b3480156200084657600080fd5b506011546001600160a01b0316620005f1565b3480156200086657600080fd5b50620004d4600e5481565b3480156200087e57600080fd5b50601154620005f1906001600160a01b031681565b348015620008a057600080fd5b50620004d460055481565b348015620008b857600080fd5b50601054620004d4565b348015620008cf57600080fd5b50620008e7620008e136600462005095565b62001ce6565b6040516200043e919062005126565b3480156200090357600080fd5b50600754620004d4565b3480156200091a57600080fd5b506200041562002157565b3480156200093257600080fd5b50620004d46200094436600462004cde565b607c6020526000908152604090205481565b3480156200096357600080fd5b50600954620004d4565b3480156200097a57600080fd5b50620007296200098c36600462004cde565b60009081526013602052604090205460ff1690565b348015620009ae57600080fd5b5062000415620009c036600462005162565b620021c1565b348015620009d357600080fd5b50600854620004d4565b348015620009ea57600080fd5b5062000415620009fc36600462005278565b62002564565b34801562000a0f57600080fd5b50604a546001600160a01b0316620005f1565b34801562000a2f57600080fd5b50600b54620004d4565b34801562000a4657600080fd5b50620004d462000a58366004620053a8565b62002665565b34801562000a6b57600080fd5b506001546001600160a01b0316620005f1565b34801562000a8b57600080fd5b50620004d4600a5481565b34801562000aa357600080fd5b50620004d4600f5481565b34801562000abb57600080fd5b506200072962000acd366004620053e4565b620026bc565b34801562000ae057600080fd5b50600f54620004d4565b34801562000af757600080fd5b5062000b0f62000b093660046200542d565b620026d3565b6040516200043e919062005497565b34801562000b2b57600080fd5b50620004d4620027ae565b34801562000b4357600080fd5b50620004d462000b5536600462004cde565b620027c8565b34801562000b6857600080fd5b506200041562000b7a36600462004cde565b620027ea565b34801562000b8d57600080fd5b50600454620004d4565b34801562000ba457600080fd5b50620004d462000bb636600462004843565b6200315a565b34801562000bc957600080fd5b50600d54620004d4565b34801562000be057600080fd5b50600354620004d4565b34801562000bf757600080fd5b50620004d462000c0936600462004cde565b620031e2565b34801562000c1c57600080fd5b50620004d460095481565b34801562000c3457600080fd5b50620004d460105481565b34801562000c4c57600080fd5b506200047f62000c5e3660046200492f565b60146020908152600092835260408084209091529082529020805460019091015482565b34801562000c8f57600080fd5b506200041562000ca136600462004843565b62003291565b34801562000cb457600080fd5b50620004d462003362565b34801562000ccc57600080fd5b50620004d460065481565b34801562000ce457600080fd5b50620004d462000cf6366004620054ac565b620033ed565b34801562000d0957600080fd5b50600054620005f1906001600160a01b031681565b34801562000d2b57600080fd5b50620004d460075481565b6060601680548060200260200160405190810160405280929190818152602001828054801562000d8657602002820191906000526020600020905b81548152602001906001019080831162000d71575b5050505050905090565b6002805462000d9f90620054d9565b80601f016020809104026020016040519081016040528092919081815260200182805462000dcd90620054d9565b801562000e1e5780601f1062000df25761010080835404028352916020019162000e1e565b820191906000526020600020905b81548152906001019060200180831162000e0057829003601f168201915b505050505081565b600062000e4e61271062000e4760065462000e4062003362565b906200347d565b906200348b565b905090565b33301462000ed95760405162461bcd60e51b815260206004820152604260248201527f45524332304775696c643a204f6e6c792063616c6c61626c652062792045524360448201527f32306775696c6420697473656c66206f72207768656e20696e697469616c697a606482015261195960f21b608482015260a4015b60405180910390fd5b60008a1162000efc5760405162461bcd60e51b815260040162000ed09062005516565b8983101562000f1f5760405162461bcd60e51b815260040162000ed09062005565565b6000881162000f425760405162461bcd60e51b815260040162000ed090620055c2565b6201c90886111562000fbd5760405162461bcd60e51b815260206004820152603960248201527f45524332304775696c643a20766f7465206761732068617320746f206265206560448201527f7175616c206f72206c6f776572207468616e2031313730303000000000000000606482015260840162000ed0565b600399909955600497909755600595909555600693909355600791909155600855600955600d55600f55601055565b60008281526014602090815260408083206001600160a01b0385168452909152902080546001909101545b9250929050565b6000806200103188888888888862003499565b905060008054906101000a90046001600160a01b03166001600160a01b0316635439ad866040518163ffffffff1660e01b815260040160206040518083038186803b1580156200108057600080fd5b505afa15801562001095573d6000803e3d6000fd5b505050506040513d601f19601f82011682018060405250810190620010bb91906200561f565b6000828152607c6020526040902055979650505050505050565b6000838152601560205260409020600201544210620011085760405162461bcd60e51b815260040162000ed09062005639565b6000838152607c6020526040902054819062001126903390620033ed565b1015620011475760405162461bcd60e51b815260040162000ed0906200568f565b60008381526014602090815260408083203384529091529020541580156200118957506000838152601460209081526040808320338452909152902060010154155b80620011d45750600083815260146020908152604080832033845290915290205482148015620011d45750600083815260146020908152604080832033845290915290206001015481115b620011f35760405162461bcd60e51b815260040162000ed090620056e0565b620012013384848462003a7f565b505050565b6060600280546200121790620054d9565b80601f01602080910402602001604051908101604052809291908181526020018280546200124590620054d9565b801562000d865780601f106200126a5761010080835404028352916020019162000d86565b820191906000526020600020905b8154815290600101906020018083116200127857509395945050505050565b6000858152601560205260409020600201544210620012ca5760405162461bcd60e51b815260040162000ed09062005639565b6000620012da8387878762002665565b60008181526013602052604090205490915060ff16156200134a5760405162461bcd60e51b8152602060048201526024808201527f536e617073686f7452657045524332304775696c643a20416c726561647920766044820152631bdd195960e21b606482015260840162000ed0565b620013ae82620013a7836040517f19457468657265756d205369676e6564204d6573736167653a0a3332000000006020820152603c8101829052600090605c01604051602081830303815290604052805190602001209050919050565b9062003ce0565b6001600160a01b0316836001600160a01b0316146200141c5760405162461bcd60e51b815260206004820152602360248201527f536e617073686f7452657045524332304775696c643a2057726f6e67207369676044820152623732b960e91b606482015260840162000ed0565b6000818152601360209081526040808320805460ff19166001179055888352607c909152902054849062001452908590620033ed565b1015801562001485575060008681526014602090815260408083206001600160a01b038716845290915290206001015484115b620014a45760405162461bcd60e51b815260040162000ed0906200568f565b60008681526014602090815260408083206001600160a01b0387168452909152902054158015620014f8575060008681526014602090815260408083206001600160a01b0387168452909152902060010154155b8062001555575060008681526014602090815260408083206001600160a01b03871684529091529020548514801562001555575060008681526014602090815260408083206001600160a01b038716845290915290206001015484115b620015745760405162461bcd60e51b815260040162000ed090620056e0565b620015828387878762003a7f565b505050505050565b60405162461bcd60e51b815260206004820152602b60248201527f536e617073686f7452657045524332304775696c643a20746f6b656e2076617560448201526a1b1d08191a5cd8589b195960aa1b606482015260840162000ed0565b60156020526000908152604090208054600182015460028301546006840180546001600160a01b039094169492939192916200162390620054d9565b80601f01602080910402602001604051908101604052809291908181526020018280546200165190620054d9565b8015620016a25780601f106200167657610100808354040283529160200191620016a2565b820191906000526020600020905b8154815290600101906020018083116200168457829003601f168201915b505050505090806007018054620016b990620054d9565b80601f0160208091040260200160405190810160405280929190818152602001828054620016e790620054d9565b8015620017385780601f106200170c5761010080835404028352916020019162001738565b820191906000526020600020905b8154815290600101906020018083116200171a57829003601f168201915b5050506008909301549192505060ff1686565b60175462010000900460ff16806200176b5750601754610100900460ff16155b6200178a5760405162461bcd60e51b815260040162000ed09062005752565b60175462010000900460ff16158015620017b0576017805462ffff001916620101001790555b620017ba62003d00565b620017cf8c8c8c8c8c8c8c8c8c8c8c62003d8f565b600160009054906101000a90046001600160a01b03166001600160a01b0316636cfe0489308e7f40c10f19c047ae7dfa66d6312b683d2ea3dfbcb4159e96b967c5f4b0a86f2842600060016040518663ffffffff1660e01b81526004016200183c959493929190620057a0565b600060405180830381600087803b1580156200185757600080fd5b505af11580156200186c573d6000803e3d6000fd5b50505050600160009054906101000a90046001600160a01b03166001600160a01b0316636cfe0489308e7f9dc29fac0ba6d4fc521c69c2b0c636d612e3343bc39ed934429b8876b0d12cba600060016040518663ffffffff1660e01b8152600401620018dd959493929190620057a0565b600060405180830381600087803b158015620018f857600080fd5b505af11580156200190d573d6000803e3d6000fd5b50505050801562001925576017805462ff0000191690555b505050505050505050505050565b6200193d62004567565b60008281526015602090815260409182902082516101408101845281546001600160a01b031681526001820154818401526002820154818501526003820180548551818602810186019096528086529194929360608601939290830182828015620019d257602002820191906000526020600020905b81546001600160a01b03168152600190910190602001808311620019b3575b5050505050815260200160048201805480602002602001604051908101604052809291908181526020016000905b8282101562001ab657838290600052602060002001805462001a2290620054d9565b80601f016020809104026020016040519081016040528092919081815260200182805462001a5090620054d9565b801562001aa15780601f1062001a755761010080835404028352916020019162001aa1565b820191906000526020600020905b81548152906001019060200180831162001a8357829003601f168201915b50505050508152602001906001019062001a00565b5050505081526020016005820180548060200260200160405190810160405280929190818152602001828054801562001b0f57602002820191906000526020600020905b81548152602001906001019080831162001afa575b5050505050815260200160068201805462001b2a90620054d9565b80601f016020809104026020016040519081016040528092919081815260200182805462001b5890620054d9565b801562001ba95780601f1062001b7d5761010080835404028352916020019162001ba9565b820191906000526020600020905b81548152906001019060200180831162001b8b57829003601f168201915b5050505050815260200160078201805462001bc490620054d9565b80601f016020809104026020016040519081016040528092919081815260200182805462001bf290620054d9565b801562001c435780601f1062001c175761010080835404028352916020019162001c43565b820191906000526020600020905b81548152906001019060200180831162001c2557829003601f168201915b5050509183525050600882015460209091019060ff16600481111562001c6d5762001c6d62004d68565b600481111562001c815762001c8162004d68565b81526020016009820180548060200260200160405190810160405280929190818152602001828054801562001cd657602002820191906000526020600020905b81548152602001906001019080831162001cc1575b5050505050815250509050919050565b60608251845114801562001cfb575081518351145b62001d6f5760405162461bcd60e51b815260206004820152603f60248201527f45524332304775696c643a20496e76616c69642070726f706f73616c4964732c60448201527f206f7074696f6e73206f7220766f74696e67506f77657273206c656e67746800606482015260840162000ed0565b60008085516001600160401b0381111562001d8e5762001d8e6200495e565b60405190808252806020026020018201604052801562001db8578160200160208202803683370190505b509050600091505b85518210156200214e57426015600088858151811062001de45762001de4620057db565b6020026020010151815260200190815260200160002060020154101562001e3257600081838151811062001e1c5762001e1c620057db565b9115156020928302919091019091015262002139565b83828151811062001e475762001e47620057db565b602002602001015162001e5a336200315a565b108062001ed757506014600087848151811062001e7b5762001e7b620057db565b602002602001015181526020019081526020016000206000336001600160a01b03166001600160a01b031681526020019081526020016000206001015484838151811062001ecd5762001ecd620057db565b6020026020010151105b1562001ef457600081838151811062001e1c5762001e1c620057db565b6014600087848151811062001f0d5762001f0d620057db565b60209081029190910181015182528181019290925260409081016000908120338252909252902054158062001f9757506014600087848151811062001f565762001f56620057db565b602002602001015181526020019081526020016000206000336001600160a01b03166001600160a01b03168152602001908152602001600020600101546000145b801562002091575084828151811062001fb45762001fb4620057db565b60200260200101516014600088858151811062001fd55762001fd5620057db565b602002602001015181526020019081526020016000206000336001600160a01b03166001600160a01b031681526020019081526020016000206000015414158015620020915750838281518110620020315762002031620057db565b602002602001015160146000888581518110620020525762002052620057db565b602002602001015181526020019081526020016000206000336001600160a01b03166001600160a01b0316815260200190815260200160002060010154115b15620020ae57600081838151811062001e1c5762001e1c620057db565b6001818381518110620020c557620020c5620057db565b6020026020010190151590811515815250506200213933878481518110620020f157620020f1620057db565b60200260200101518785815181106200210e576200210e620057db565b60200260200101518786815181106200212b576200212b620057db565b602002602001015162003a7f565b81620021458162005807565b92505062001dc0565b95945050505050565b604a546001600160a01b03163314620021b35760405162461bcd60e51b815260206004820181905260248201527f4f776e61626c653a2063616c6c6572206973206e6f7420746865206f776e6572604482015260640162000ed0565b620021bf600062003fb5565b565b6000620021d18785858562002665565b9050858114620022245760405162461bcd60e51b815260206004820152601d60248201527f45524332304775696c643a20496e76616c696420766f74652068617368000000604482015260640162000ed0565b60008181526013602052604090205460ff1615620022855760405162461bcd60e51b815260206004820152601960248201527f45524332304775696c643a20416c726561647920766f74656400000000000000604482015260640162000ed0565b600062002294898888620026bc565b905080620022f15760405162461bcd60e51b8152602060048201526024808201527f45524332304775696c643a20496e76616c6964206d65726b6c652074726565206044820152633632b0b360e11b606482015260840162000ed0565b6000858152601560205260409020600201544210620023675760405162461bcd60e51b815260206004820152602b60248201527f45524332304775696c643a2050726f706f73616c20656e6465642c2063616e6e60448201526a1bdd081899481d9bdd195960aa1b606482015260840162000ed0565b8262002373896200315a565b10158015620023a6575060008581526014602090815260408083206001600160a01b038c16845290915290206001015483115b620024035760405162461bcd60e51b815260206004820152602660248201527f45524332304775696c643a20496e76616c696420766f74696e67506f77657220604482015265185b5bdd5b9d60d21b606482015260840162000ed0565b60008581526014602090815260408083206001600160a01b038c16845290915290205415801562002457575060008581526014602090815260408083206001600160a01b038c168452909152902060010154155b80620024b4575060008581526014602090815260408083206001600160a01b038c16845290915290205484148015620024b4575060008581526014602090815260408083206001600160a01b038c16845290915290206001015483115b620025325760405162461bcd60e51b815260206004820152604160248201527f45524332304775696c643a2043616e6e6f74206368616e6765206f7074696f6e60448201527f20766f7465642c206f6e6c7920696e63726561736520766f74696e67506f77656064820152603960f91b608482015260a40162000ed0565b6000828152601360205260409020805460ff19166001179055620025598886868662003a7f565b505050505050505050565b60005b87518110156200265b57620026468882815181106200258a576200258a620057db565b6020026020010151888381518110620025a757620025a7620057db565b6020026020010151888481518110620025c457620025c4620057db565b6020026020010151888581518110620025e157620025e1620057db565b6020026020010151888681518110620025fe57620025fe620057db565b60200260200101518887815181106200261b576200261b620057db565b6020026020010151888881518110620026385762002638620057db565b6020026020010151620021c1565b80620026528162005807565b91505062002567565b5050505050505050565b6040516bffffffffffffffffffffffff19606086901b166020820152603481018490526054810183905260748101829052600090609401604051602081830303815290604052805190602001209050949350505050565b6000620026cb82858562004007565b949350505050565b6060600083516001600160401b03811115620026f357620026f36200495e565b6040519080825280602002602001820160405280156200271d578160200160208202803683370190505b50905060005b8451811015620027a65762002771858281518110620027465762002746620057db565b6020026020010151858381518110620027635762002763620057db565b6020026020010151620033ed565b828281518110620027865762002786620057db565b6020908102919091010152806200279d8162005807565b91505062002723565b509392505050565b600062000e4e61271062000e4760055462000e4062003362565b60168181548110620027d957600080fd5b600091825260209091200154905081565b60175460ff1615620028525760405162461bcd60e51b815260206004820152602a60248201527f4552433230536e617073686f745265703a2050726f706f73616c20756e6465726044820152691032bc32b1baba34b7b760b11b606482015260840162000ed0565b600160008281526015602052604090206008015460ff1660048111156200287d576200287d62004d68565b14620028e05760405162461bcd60e51b815260206004820152602b60248201527f4552433230536e617073686f745265703a2050726f706f73616c20616c72656160448201526a191e48195e1958dd5d195960aa1b606482015260840162000ed0565b6000818152601560205260409020600201544211620029565760405162461bcd60e51b815260206004820152602b60248201527f4552433230536e617073686f745265703a2050726f706f73616c206861736e2760448201526a1d08195b991959081e595d60aa1b606482015260840162000ed0565b6000818152601560205260408120600901805482919082906200297d576200297d620057db565b600091825260209091200154905060015b60008481526015602052604090206009015481101562002abe57620029b384620031e2565b6000858152601560205260409020600901805483908110620029d957620029d9620057db565b90600052602060002001541015801562002a255750600084815260156020526040902060090180548391908390811062002a175762002a17620057db565b906000526020600020015410155b1562002aa957600084815260156020526040902060090180548391908390811062002a545762002a54620057db565b9060005260206000200154141562002a70576000925062002aa9565b6000848152601560205260409020600901805491935083918290811062002a9b5762002a9b620057db565b906000526020600020015491505b8062002ab58162005807565b9150506200298e565b8262002b0e576000848152601560205260409020600801805460ff191660029081179091558490600080516020620061d6833981519152905b60405190815260200160405180910390a262003141565b600454600085815260156020526040902060020154429162002b3191906200401f565b101562002b70576000848152601560205260409020600801805460ff191660049081179091558490600080516020620061d68339815191529062002af7565b600084815260156020526040812060088101805460ff191660031790556009015462002bbc9062002ba39060016200402d565b600087815260156020526040902060030154906200348b565b905062002bd762002bcf8560016200402d565b82906200347d565b9150600062002be783836200401f565b9050600160009054906101000a90046001600160a01b03166001600160a01b0316633e7a47b26040518163ffffffff1660e01b8152600401600060405180830381600087803b15801562002c3a57600080fd5b505af115801562002c4f573d6000803e3d6000fd5b505050505b808310156200309857600086815260156020526040812060030180548590811062002c835762002c83620057db565b6000918252602090912001546001600160a01b03161480159062002ce35750600086815260156020526040812060040180548590811062002cc85762002cc8620057db565b90600052602060002001805462002cdf90620054d9565b9050115b156200308357600086815260156020526040812060040180548590811062002d0f5762002d0f620057db565b90600052602060002001805462002d2690620054d9565b80601f016020809104026020016040519081016040528092919081815260200182805462002d5490620054d9565b801562002da55780601f1062002d795761010080835404028352916020019162002da5565b820191906000526020600020905b81548152906001019060200180831162002d8757829003601f168201915b50505060208084015160015460008d815260159093526040909220600301805495965090946001600160a01b03909216935063eed47033925030918990811062002df35762002df3620057db565b9060005260206000200160009054906101000a90046001600160a01b031684601560008e81526020019081526020016000206005018a8154811062002e3c5762002e3c620057db565b60009182526020909120015460405160e086901b6001600160e01b031990811682526001600160a01b039586166004830152939094166024850152911660448301526064820152608401600060405180830381600087803b15801562002ea157600080fd5b505af192505050801562002eb3575060015b62002f0f5762002ec262005825565b806308c379a0141562002f03575062002eda62005842565b8062002ee7575062002f05565b8060405162461bcd60e51b815260040162000ed09190620048b1565b505b3d6000803e3d6000fd5b6017805460ff19166001179055600088815260156020526040812060030180548790811062002f425762002f42620057db565b60009182526020808320909101548b83526015909152604090912060050180546001600160a01b03909216918890811062002f815762002f81620057db565b9060005260206000200154601560008c8152602001908152602001600020600401888154811062002fb65762002fb6620057db565b9060005260206000200160405162002fcf9190620058d1565b60006040518083038185875af1925050503d80600081146200300e576040519150601f19603f3d011682016040523d82523d6000602084013e62003013565b606091505b5050905080620030755760405162461bcd60e51b815260206004820152602660248201527f4552433230536e617073686f745265703a2050726f706f73616c2063616c6c2060448201526519985a5b195960d21b606482015260840162000ed0565b50506017805460ff19169055505b826200308f8162005807565b93505062002c54565b60015460405163fb0fde8560e01b81523060048201526001600160a01b039091169063fb0fde8590602401602060405180830381600087803b158015620030de57600080fd5b505af1158015620030f3573d6000803e3d6000fd5b505050506040513d601f19601f8201168201806040525081019062003119919062005975565b5085600080516020620061d6833981519152600360405190815260200160405180910390a250505b600c54620031519060016200402d565b600c5550505050565b600080546040516370a0823160e01b81526001600160a01b038481166004830152909116906370a082319060240160206040518083038186803b158015620031a157600080fd5b505afa158015620031b6573d6000803e3d6000fd5b505050506040513d601f19601f82011682018060405250810190620031dc91906200561f565b92915050565b600554600080549091620031dc916127109162000e47916001600160a01b031663981b24d06200321e886000908152607c602052604090205490565b6040518263ffffffff1660e01b81526004016200323d91815260200190565b60206040518083038186803b1580156200325657600080fd5b505afa1580156200326b573d6000803e3d6000fd5b505050506040513d601f19601f8201168201806040525081019062000e4091906200561f565b604a546001600160a01b03163314620032ed5760405162461bcd60e51b815260206004820181905260248201527f4f776e61626c653a2063616c6c6572206973206e6f7420746865206f776e6572604482015260640162000ed0565b6001600160a01b038116620033545760405162461bcd60e51b815260206004820152602660248201527f4f776e61626c653a206e6577206f776e657220697320746865207a65726f206160448201526564647265737360d01b606482015260840162000ed0565b6200335f8162003fb5565b50565b60008060009054906101000a90046001600160a01b03166001600160a01b03166318160ddd6040518163ffffffff1660e01b815260040160206040518083038186803b158015620033b257600080fd5b505afa158015620033c7573d6000803e3d6000fd5b505050506040513d601f19601f8201168201806040525081019062000e4e91906200561f565b6000805460405163277166bf60e11b81526001600160a01b0385811660048301526024820185905290911690634ee2cd7e9060440160206040518083038186803b1580156200343b57600080fd5b505afa15801562003450573d6000803e3d6000fd5b505050506040513d601f19601f820116820180604052508101906200347691906200561f565b9392505050565b600062003476828462005999565b6000620034768284620059d1565b6000601054600e541015620035175760405162461bcd60e51b815260206004820152603960248201527f45524332304775696c643a204e6f7420656e6f75676820746f6b656e73206c6f60448201527f636b656420746f2063726561746520612070726f706f73616c00000000000000606482015260840162000ed0565b600f54600b541015620035895760405162461bcd60e51b815260206004820152603360248201527f45524332304775696c643a204e6f7420656e6f756768206d656d6265727320746044820152721bc818dc99585d194818481c1c9bdc1bdcd85b606a1b606482015260840162000ed0565b600954600c5410620035fd5760405162461bcd60e51b815260206004820152603660248201527f45524332304775696c643a204d6178696d756d20616d6f756e74206f662061636044820152751d1a5d99481c1c9bdc1bdcd85b1cc81c995858da195960521b606482015260840162000ed0565b6200360762000e26565b62003612336200315a565b1015620036805760405162461bcd60e51b815260206004820152603560248201527f45524332304775696c643a204e6f7420656e6f75676820766f74696e67506f77604482015274195c881d1bc818dc99585d19481c1c9bdc1bdcd85b605a1b606482015260840162000ed0565b8551875114801562003693575084518751145b620036fe5760405162461bcd60e51b815260206004820152603460248201527f45524332304775696c643a2057726f6e67206c656e677468206f6620746f2c2060448201527364617461206f722076616c75652061727261797360601b606482015260840162000ed0565b60008751116200376b5760405162461bcd60e51b815260206004820152603160248201527f45524332304775696c643a20746f2c20646174612076616c7565206172726179604482015270732063616e6e6f7420626520656d70747960781b606482015260840162000ed0565b8651841115801562003788575084516200378690856200403b565b155b620037fc5760405162461bcd60e51b815260206004820152603760248201527f45524332304775696c643a20496e76616c696420746f74616c4f7074696f6e7360448201527f206f72206f7074696f6e2063616c6c73206c656e677468000000000000000000606482015260840162000ed0565b600a841115620038755760405162461bcd60e51b815260206004820152603a60248201527f45524332304775696c643a204d6178696d756d20616d6f756e74206f66206f7060448201527f74696f6e73207065722070726f706f73616c2072656163686564000000000000606482015260840162000ed0565b600a546040516bffffffffffffffffffffffff193360601b1660208201524260348201526054810191909152600090607401604051602081830303815290604052805190602001209050620038d76001600a546200401f90919063ffffffff16565b600a55600081815260156020526040902080546001600160a01b0319163317815542600182018190556003546200390f91906200401f565b600282015588516200392b90600383019060208c0190620045d7565b5087516200394390600483019060208b019062004641565b5086516200395b90600583019060208a0190620046a1565b508451620039739060068301906020880190620046df565b5083516200398b9060078301906020870190620046df565b50620039998660016200401f565b6001600160401b03811115620039b357620039b36200495e565b604051908082528060200260200182016040528015620039dd578160200160208202803683370190505b508051620039f6916009840191602090910190620046a1565b5060088101805460ff19166001908117909155600c5462003a17916200401f565b600c5581600080516020620061d6833981519152600160405190815260200160405180910390a250601680546001810182556000919091527fd833147d7dc355ba459fc788f669e58cfaf9dc25ddcd0702e87d69c7b512428901819055979650505050505050565b60008381526014602090815260408083206001600160a01b03881684528252808320600101548684526015909252909120600901805462003af592849262003aee928790811062003ad45762003ad4620057db565b90600052602060002001546200402d90919063ffffffff16565b906200401f565b600084815260156020526040902060090180548490811062003b1b5762003b1b620057db565b60009182526020808320909101929092558481526014825260408082206001600160a01b038816835283528082208581556001018490558582526015909252206002015462003b82856001600160a01b031660009081526012602052604090206001015490565b101562003bb7576000838152601560209081526040808320600201546001600160a01b03881684526012909252909120600101555b604080516001600160a01b038616815260208101839052839185917f583c62f152711bcb1ca6186c1065821ff17a7cbe226dcb559a1c889dcf0d769b910160405180910390a36007541562003cda57600062003c2d62003c236008543a6200404990919063ffffffff16565b600754906200347d565b905080471015801562003c3f5750333b155b1562003cd857604051600090339083908381818185875af1925050503d806000811462003c89576040519150601f19603f3d011682016040523d82523d6000602084013e62003c8e565b606091505b5050905080620015825760405162461bcd60e51b81526020600482015260146024820152734661696c656420746f20726566756e642067617360601b604482015260640162000ed0565b505b50505050565b600080600062003cf1858562004061565b91509150620027a681620040d7565b60175462010000900460ff168062003d205750601754610100900460ff16155b62003d3f5760405162461bcd60e51b815260040162000ed09062005752565b60175462010000900460ff1615801562003d65576017805462ffff001916620101001790555b62003d6f620042aa565b62003d7962004324565b80156200335f576017805462ff00001916905550565b60175462010000900460ff168062003daf5750601754610100900460ff16155b62003dce5760405162461bcd60e51b815260040162000ed09062005752565b60175462010000900460ff1615801562003df4576017805462ffff001916620101001790555b6001600160a01b038c1662003e5b5760405162461bcd60e51b815260206004820152602660248201527f45524332304775696c643a20746f6b656e2063616e74206265207a65726f206160448201526564647265737360d01b606482015260840162000ed0565b60008b1162003e7e5760405162461bcd60e51b815260040162000ed09062005516565b8a83101562003ea15760405162461bcd60e51b815260040162000ed09062005565565b6000891162003ec45760405162461bcd60e51b815260040162000ed090620055c2565b865162003ed99060029060208a0190620046df565b50600080546001600160a01b0319166001600160a01b038e16908117909155604051309062003f08906200475b565b6001600160a01b03928316815291166020820152604001604051809103906000f08015801562003f3c573d6000803e3d6000fd5b50601180546001600160a01b03199081166001600160a01b039384161790915560038d905560048c905560058b905560068a9055600788905560088790556009869055600d85905560018054909116918416919091179055801562001925576017805462ff000019169055505050505050505050505050565b604a80546001600160a01b038381166001600160a01b0319831681179093556040519116919082907f8be0079c531659141344cd1fd0a4f28419497f9722a3daafe3b4186f6b6457e090600090a35050565b60008262004016858462004394565b14949350505050565b6000620034768284620059e8565b600062003476828462005a03565b600062003476828462005a1d565b60008183106200405a578162003476565b5090919050565b6000808251604114156200409c5760208301516040840151606085015160001a6200408f8782858562004441565b9450945050505062001017565b825160401415620040ca5760208301516040840151620040be86838362004536565b93509350505062001017565b5060009050600262001017565b6000816004811115620040ee57620040ee62004d68565b1415620040f85750565b60018160048111156200410f576200410f62004d68565b14156200415f5760405162461bcd60e51b815260206004820152601860248201527f45434453413a20696e76616c6964207369676e61747572650000000000000000604482015260640162000ed0565b600281600481111562004176576200417662004d68565b1415620041c65760405162461bcd60e51b815260206004820152601f60248201527f45434453413a20696e76616c6964207369676e6174757265206c656e67746800604482015260640162000ed0565b6003816004811115620041dd57620041dd62004d68565b1415620042385760405162461bcd60e51b815260206004820152602260248201527f45434453413a20696e76616c6964207369676e6174757265202773272076616c604482015261756560f01b606482015260840162000ed0565b60048160048111156200424f576200424f62004d68565b14156200335f5760405162461bcd60e51b815260206004820152602260248201527f45434453413a20696e76616c6964207369676e6174757265202776272076616c604482015261756560f01b606482015260840162000ed0565b60175462010000900460ff1680620042ca5750601754610100900460ff16155b620042e95760405162461bcd60e51b815260040162000ed09062005752565b60175462010000900460ff1615801562003d79576017805462ffff0019166201010017905580156200335f576017805462ff00001916905550565b60175462010000900460ff1680620043445750601754610100900460ff16155b620043635760405162461bcd60e51b815260040162000ed09062005752565b60175462010000900460ff1615801562004389576017805462ffff001916620101001790555b62003d793362003fb5565b600081815b8451811015620027a6576000858281518110620043ba57620043ba620057db565b60200260200101519050808311620043fe5760408051602081018590529081018290526060016040516020818303038152906040528051906020012092506200442b565b60408051602081018390529081018490526060016040516020818303038152906040528051906020012092505b5080620044388162005807565b91505062004399565b6000807f7fffffffffffffffffffffffffffffff5d576e7357a4501ddfe92f46681b20a08311156200447a57506000905060036200452d565b8460ff16601b141580156200449357508460ff16601c14155b15620044a657506000905060046200452d565b6040805160008082526020820180845289905260ff881692820192909252606081018690526080810185905260019060a0016020604051602081039080840390855afa158015620044fb573d6000803e3d6000fd5b5050604051601f1901519150506001600160a01b03811662004526576000600192509250506200452d565b9150600090505b94509492505050565b6000806001600160ff1b03831660ff84901c601b01620045598782888562004441565b935093505050935093915050565b60405180610140016040528060006001600160a01b031681526020016000815260200160008152602001606081526020016060815260200160608152602001606081526020016060815260200160006004811115620045ca57620045ca62004d68565b8152602001606081525090565b8280548282559060005260206000209081019282156200462f579160200282015b828111156200462f57825182546001600160a01b0319166001600160a01b03909116178255602090920191600190910190620045f8565b506200463d92915062004769565b5090565b82805482825590600052602060002090810192821562004693579160200282015b8281111562004693578251805162004682918491602090910190620046df565b509160200191906001019062004662565b506200463d92915062004780565b8280548282559060005260206000209081019282156200462f579160200282015b828111156200462f578251825591602001919060010190620046c2565b828054620046ed90620054d9565b90600052602060002090601f0160209004810192826200471157600085556200462f565b82601f106200472c57805160ff19168380011785556200462f565b828001600101855582156200462f57918201828111156200462f578251825591602001919060010190620046c2565b6107a18062005a3583390190565b5b808211156200463d57600081556001016200476a565b808211156200463d576000620047978282620047a1565b5060010162004780565b508054620047af90620054d9565b6000825580601f10620047c0575050565b601f0160209004906000526020600020908101906200335f919062004769565b6020808252825182820181905260009190848201906040850190845b818110156200481a57835183529284019291840191600101620047fc565b50909695505050505050565b80356001600160a01b03811681146200483e57600080fd5b919050565b6000602082840312156200485657600080fd5b620034768262004826565b6000815180845260005b8181101562004889576020818501810151868301820152016200486b565b818111156200489c576000602083870101525b50601f01601f19169290920160200192915050565b60208152600062003476602083018462004861565b6000806000806000806000806000806101408b8d031215620048e757600080fd5b505088359a60208a01359a5060408a013599606081013599506080810135985060a0810135975060c0810135965060e081013595506101008101359450610120013592509050565b600080604083850312156200494357600080fd5b82359150620049556020840162004826565b90509250929050565b634e487b7160e01b600052604160045260246000fd5b601f8201601f191681016001600160401b03811182821017156200499c576200499c6200495e565b6040525050565b60006001600160401b03821115620049bf57620049bf6200495e565b5060051b60200190565b600082601f830112620049db57600080fd5b81356020620049ea82620049a3565b604051620049f9828262004974565b83815260059390931b850182019282810191508684111562004a1a57600080fd5b8286015b8481101562004a405762004a328162004826565b835291830191830162004a1e565b509695505050505050565b600082601f83011262004a5d57600080fd5b81356001600160401b0381111562004a795762004a796200495e565b60405162004a92601f8301601f19166020018262004974565b81815284602083860101111562004aa857600080fd5b816020850160208301376000918101602001919091529392505050565b600082601f83011262004ad757600080fd5b8135602062004ae682620049a3565b60405162004af5828262004974565b83815260059390931b850182019282810191508684111562004b1657600080fd5b8286015b8481101562004a405780356001600160401b0381111562004b3b5760008081fd5b62004b4b8986838b010162004a4b565b84525091830191830162004b1a565b600082601f83011262004b6c57600080fd5b8135602062004b7b82620049a3565b60405162004b8a828262004974565b83815260059390931b850182019282810191508684111562004bab57600080fd5b8286015b8481101562004a40578035835291830191830162004baf565b60008060008060008060c0878903121562004be257600080fd5b86356001600160401b038082111562004bfa57600080fd5b62004c088a838b01620049c9565b9750602089013591508082111562004c1f57600080fd5b62004c2d8a838b0162004ac5565b9650604089013591508082111562004c4457600080fd5b62004c528a838b0162004b5a565b955060608901359450608089013591508082111562004c7057600080fd5b62004c7e8a838b0162004a4b565b935060a089013591508082111562004c9557600080fd5b5062004ca489828a0162004a4b565b9150509295509295509295565b60008060006060848603121562004cc757600080fd5b505081359360208301359350604090920135919050565b60006020828403121562004cf157600080fd5b5035919050565b600080600080600060a0868803121562004d1157600080fd5b85359450602086013593506040860135925062004d316060870162004826565b915060808601356001600160401b0381111562004d4d57600080fd5b62004d5b8882890162004a4b565b9150509295509295909350565b634e487b7160e01b600052602160045260246000fd5b6005811062004d9d57634e487b7160e01b600052602160045260246000fd5b9052565b60018060a01b038716815285602082015284604082015260c06060820152600062004dd060c083018662004861565b828103608084015262004de4818662004861565b91505062004df660a083018462004d7e565b979650505050505050565b60008060008060008060008060008060006101608c8e03121562004e2457600080fd5b62004e2f8c62004826565b9a5060208c0135995060408c0135985060608c0135975060808c0135965060a08c01356001600160401b0381111562004e6757600080fd5b62004e758e828f0162004a4b565b96505060c08c0135945060e08c013593506101008c013592506101208c0135915062004ea56101408d0162004826565b90509295989b509295989b9093969950565b600081518084526020808501945080840160005b8381101562004ef25781516001600160a01b03168752958201959082019060010162004ecb565b509495945050505050565b600081518084526020808501808196508360051b8101915082860160005b8581101562004f4957828403895262004f3684835162004861565b9885019893509084019060010162004f1b565b5091979650505050505050565b600081518084526020808501945080840160005b8381101562004ef25781518752958201959082019060010162004f6a565b6020815262004fa36020820183516001600160a01b03169052565b60208201516040820152604082015160608201526000606083015161014080608085015262004fd761016085018362004eb7565b91506080850151601f19808685030160a087015262004ff7848362004efd565b935060a08701519150808685030160c087015262005016848362004f56565b935060c08701519150808685030160e087015262005035848362004861565b935060e0870151915061010081878603018188015262005056858462004861565b945080880151925050610120620050708188018462004d7e565b8701518685039091018387015290506200508b838262004f56565b9695505050505050565b600080600060608486031215620050ab57600080fd5b83356001600160401b0380821115620050c357600080fd5b620050d18783880162004b5a565b94506020860135915080821115620050e857600080fd5b620050f68783880162004b5a565b935060408601359150808211156200510d57600080fd5b506200511c8682870162004b5a565b9150509250925092565b6020808252825182820181905260009190848201906040850190845b818110156200481a57835115158352928401929184019160010162005142565b600080600080600080600060e0888a0312156200517e57600080fd5b87359650620051906020890162004826565b95506040880135945060608801356001600160401b03811115620051b357600080fd5b620051c18a828b0162004b5a565b979a969950949760808101359660a0820135965060c090910135945092505050565b600082601f830112620051f557600080fd5b813560206200520482620049a3565b60405162005213828262004974565b83815260059390931b85018201928281019150868411156200523457600080fd5b8286015b8481101562004a405780356001600160401b03811115620052595760008081fd5b620052698986838b010162004b5a565b84525091830191830162005238565b600080600080600080600060e0888a0312156200529457600080fd5b87356001600160401b0380821115620052ac57600080fd5b620052ba8b838c0162004b5a565b985060208a0135915080821115620052d157600080fd5b620052df8b838c01620049c9565b975060408a0135915080821115620052f657600080fd5b620053048b838c0162004b5a565b965060608a01359150808211156200531b57600080fd5b620053298b838c01620051e3565b955060808a01359150808211156200534057600080fd5b6200534e8b838c0162004b5a565b945060a08a01359150808211156200536557600080fd5b620053738b838c0162004b5a565b935060c08a01359150808211156200538a57600080fd5b50620053998a828b0162004b5a565b91505092959891949750929550565b60008060008060808587031215620053bf57600080fd5b620053ca8562004826565b966020860135965060408601359560600135945092505050565b600080600060608486031215620053fa57600080fd5b833592506020840135915060408401356001600160401b038111156200541f57600080fd5b6200511c8682870162004b5a565b600080604083850312156200544157600080fd5b82356001600160401b03808211156200545957600080fd5b6200546786838701620049c9565b935060208501359150808211156200547e57600080fd5b506200548d8582860162004b5a565b9150509250929050565b60208152600062003476602083018462004f56565b60008060408385031215620054c057600080fd5b620054cb8362004826565b946020939093013593505050565b600181811c90821680620054ee57607f821691505b602082108114156200551057634e487b7160e01b600052602260045260246000fd5b50919050565b6020808252602f908201527f45524332304775696c643a2070726f706f73616c2074696d652068617320746f60408201526e0206265206d6f7265207468616e203608c1b606082015260800190565b6020808252603e908201527f45524332304775696c643a206c6f636b54696d652068617320746f206265206860408201527f6967686572206f7220657175616c20746f2070726f706f73616c54696d650000606082015260800190565b6020808252603c908201527f45524332304775696c643a20766f74696e6720706f77657220666f722065786560408201527f637574696f6e2068617320746f206265206d6f7265207468616e203000000000606082015260800190565b6000602082840312156200563257600080fd5b5051919050565b60208082526036908201527f536e617073686f7452657045524332304775696c643a2050726f706f73616c20604082015275195b9919590b0818d85b9b9bdd081899481d9bdd195960521b606082015260800190565b60208082526031908201527f536e617073686f7452657045524332304775696c643a20496e76616c696420766040820152701bdd1a5b99d41bddd95c88185b5bdd5b9d607a1b606082015260800190565b6020808252604c908201527f536e617073686f7452657045524332304775696c643a2043616e6e6f7420636860408201527f616e6765206f7074696f6e20766f7465642c206f6e6c7920696e63726561736560608201526b103b37ba34b733a837bbb2b960a11b608082015260a00190565b6020808252602e908201527f496e697469616c697a61626c653a20636f6e747261637420697320616c72656160408201526d191e481a5b9a5d1a585b1a5e995960921b606082015260800190565b6001600160a01b0395861681529390941660208401526001600160e01b03199190911660408301526060820152901515608082015260a00190565b634e487b7160e01b600052603260045260246000fd5b634e487b7160e01b600052601160045260246000fd5b60006000198214156200581e576200581e620057f1565b5060010190565b600060033d11156200583f5760046000803e5060005160e01c5b90565b600060443d1015620058515790565b6040516003193d81016004833e81513d6001600160401b0381602484011181841117156200588157505050505090565b82850191508151818111156200589a5750505050505090565b843d8701016020828501011115620058b55750505050505090565b620058c66020828601018762004974565b509095945050505050565b600080835481600182811c915080831680620058ee57607f831692505b60208084108214156200590f57634e487b7160e01b86526022600452602486fd5b818015620059265760018114620059385762005967565b60ff1986168952848901965062005967565b60008a81526020902060005b868110156200595f5781548b82015290850190830162005944565b505084890196505b509498975050505050505050565b6000602082840312156200598857600080fd5b815180151581146200347657600080fd5b6000816000190483118215151615620059b657620059b6620057f1565b500290565b634e487b7160e01b600052601260045260246000fd5b600082620059e357620059e3620059bb565b500490565b60008219821115620059fe57620059fe620057f1565b500190565b60008282101562005a185762005a18620057f1565b500390565b60008262005a2f5762005a2f620059bb565b50069056fe608060405234801561001057600080fd5b506040516107a13803806107a183398101604081905261002f9161007c565b600080546001600160a01b039384166001600160a01b031991821617909155600180549290931691161790556100af565b80516001600160a01b038116811461007757600080fd5b919050565b6000806040838503121561008f57600080fd5b61009883610060565b91506100a660208401610060565b90509250929050565b6106e3806100be6000396000f3fe608060405234801561001057600080fd5b506004361061007d5760003560e01c80636e9960c31161005b5780636e9960c3146100ef578063f3fef3a314610100578063f851a44014610113578063fc0c546a1461012657600080fd5b806321df0da71461008257806327e235e3146100ac57806347e7ef24146100da575b600080fd5b6000546001600160a01b03165b6040516001600160a01b0390911681526020015b60405180910390f35b6100cc6100ba366004610586565b60026020526000908152604090205481565b6040519081526020016100a3565b6100ed6100e83660046105a1565b610139565b005b6001546001600160a01b031661008f565b6100ed61010e3660046105a1565b61020a565b60015461008f906001600160a01b031681565b60005461008f906001600160a01b031681565b6001546001600160a01b031633146101af5760405162461bcd60e51b815260206004820152602e60248201527f546f6b656e5661756c743a204465706f736974206d7573742062652073656e7460448201526d103a343937bab3b41030b236b4b760911b60648201526084015b60405180910390fd5b6000546101c7906001600160a01b031683308461025b565b6001600160a01b0382166000908152600260205260409020546101ea90826102cc565b6001600160a01b0390921660009081526002602052604090209190915550565b6001546001600160a01b0316331461022157600080fd5b600054610238906001600160a01b031683836102df565b6001600160a01b0382166000908152600260205260409020546101ea9082610314565b6040516001600160a01b03808516602483015283166044820152606481018290526102c69085906323b872dd60e01b906084015b60408051601f198184030181529190526020810180516001600160e01b03166001600160e01b031990931692909217909152610320565b50505050565b60006102d882846105e1565b9392505050565b6040516001600160a01b03831660248201526044810182905261030f90849063a9059cbb60e01b9060640161028f565b505050565b60006102d882846105f9565b6000610375826040518060400160405280602081526020017f5361666545524332303a206c6f772d6c6576656c2063616c6c206661696c6564815250856001600160a01b03166103f29092919063ffffffff16565b80519091501561030f57808060200190518101906103939190610610565b61030f5760405162461bcd60e51b815260206004820152602a60248201527f5361666545524332303a204552433230206f7065726174696f6e20646964206e6044820152691bdd081cdd58d8d9595960b21b60648201526084016101a6565b60606104018484600085610409565b949350505050565b60608247101561046a5760405162461bcd60e51b815260206004820152602660248201527f416464726573733a20696e73756666696369656e742062616c616e636520666f6044820152651c8818d85b1b60d21b60648201526084016101a6565b843b6104b85760405162461bcd60e51b815260206004820152601d60248201527f416464726573733a2063616c6c20746f206e6f6e2d636f6e747261637400000060448201526064016101a6565b600080866001600160a01b031685876040516104d4919061065e565b60006040518083038185875af1925050503d8060008114610511576040519150601f19603f3d011682016040523d82523d6000602084013e610516565b606091505b5091509150610526828286610531565b979650505050505050565b606083156105405750816102d8565b8251156105505782518084602001fd5b8160405162461bcd60e51b81526004016101a6919061067a565b80356001600160a01b038116811461058157600080fd5b919050565b60006020828403121561059857600080fd5b6102d88261056a565b600080604083850312156105b457600080fd5b6105bd8361056a565b946020939093013593505050565b634e487b7160e01b600052601160045260246000fd5b600082198211156105f4576105f46105cb565b500190565b60008282101561060b5761060b6105cb565b500390565b60006020828403121561062257600080fd5b815180151581146102d857600080fd5b60005b8381101561064d578181015183820152602001610635565b838111156102c65750506000910152565b60008251610670818460208701610632565b9190910192915050565b6020815260008251806020840152610699816040850160208701610632565b601f01601f1916919091016040019291505056fea2646970667358221220f83df9be484204d29c000a118187aee7d3ca7efcb094476e4ad893327bb967b564736f6c63430008080033fee62a9eec0be50eb061c711990ef0f1e17b40ea131d9347b0468acdaf8bf243a2646970667358221220aeef467d4f5bfbde928dffb9645714e3fe83b4c504cf7361da5ec89a8ac731fb64736f6c63430008080033",
  "linkReferences": {},
  "deployedLinkReferences": {}
}